{"contracts/Course.sol":{"CourseContract":{"abi":[{"inputs":[],"stateMutability":"nonpayable","type":"constructor"},{"anonymous":false,"inputs":[{"indexed":false,"internalType":"uint256","name":"id","type":"uint256"},{"indexed":false,"internalType":"string","name":"name","type":"string"}],"name":"CourseCreated","type":"event"},{"anonymous":false,"inputs":[{"indexed":false,"internalType":"uint256","name":"id","type":"uint256"}],"name":"CourseDeleted","type":"event"},{"anonymous":false,"inputs":[{"indexed":false,"internalType":"uint256","name":"id","type":"uint256"},{"indexed":false,"internalType":"string","name":"name","type":"string"}],"name":"CourseUpdated","type":"event"},{"anonymous":false,"inputs":[{"indexed":false,"internalType":"uint256","name":"id","type":"uint256"},{"indexed":false,"internalType":"uint8","name":"day","type":"uint8"},{"indexed":false,"internalType":"uint8","name":"startHour","type":"uint8"},{"indexed":false,"internalType":"uint8","name":"endHour","type":"uint8"}],"name":"ScheduleAdded","type":"event"},{"anonymous":false,"inputs":[{"indexed":false,"internalType":"uint256","name":"courseId","type":"uint256"},{"indexed":false,"internalType":"address","name":"student","type":"address"}],"name":"StudentRegisteredInCourse","type":"event"},{"anonymous":false,"inputs":[{"indexed":false,"internalType":"address","name":"addr","type":"address"},{"indexed":false,"internalType":"enum CourseContract.Role","name":"role","type":"uint8"}],"name":"UserRegistered","type":"event"},{"inputs":[{"internalType":"uint256","name":"_id","type":"uint256"},{"internalType":"uint8","name":"_day","type":"uint8"},{"internalType":"uint8","name":"_startHour","type":"uint8"},{"internalType":"uint8","name":"_endHour","type":"uint8"}],"name":"addSchedule","outputs":[],"stateMutability":"nonpayable","type":"function"},{"inputs":[],"name":"admin","outputs":[{"internalType":"address","name":"","type":"address"}],"stateMutability":"view","type":"function"},{"inputs":[{"internalType":"uint256","name":"","type":"uint256"}],"name":"courses","outputs":[{"internalType":"string","name":"name","type":"string"},{"internalType":"string","name":"description","type":"string"},{"internalType":"uint256","name":"credits","type":"uint256"},{"internalType":"bool","name":"isActive","type":"bool"},{"internalType":"uint256","name":"totalSchedules","type":"uint256"}],"stateMutability":"view","type":"function"},{"inputs":[{"internalType":"string","name":"_name","type":"string"},{"internalType":"string","name":"_description","type":"string"},{"internalType":"uint256","name":"_credits","type":"uint256"}],"name":"createCourse","outputs":[],"stateMutability":"nonpayable","type":"function"},{"inputs":[{"internalType":"uint256","name":"_id","type":"uint256"}],"name":"deleteCourse","outputs":[],"stateMutability":"nonpayable","type":"function"},{"inputs":[{"internalType":"uint256","name":"_id","type":"uint256"}],"name":"getCourse","outputs":[{"internalType":"string","name":"","type":"string"},{"internalType":"string","name":"","type":"string"},{"internalType":"uint256","name":"","type":"uint256"},{"internalType":"bool","name":"","type":"bool"},{"internalType":"uint256","name":"","type":"uint256"}],"stateMutability":"view","type":"function"},{"inputs":[{"internalType":"uint256","name":"_courseId","type":"uint256"},{"internalType":"uint256","name":"_scheduleId","type":"uint256"}],"name":"getSchedule","outputs":[{"internalType":"uint8","name":"","type":"uint8"},{"internalType":"uint8","name":"","type":"uint8"},{"internalType":"uint8","name":"","type":"uint8"}],"stateMutability":"view","type":"function"},{"inputs":[],"name":"getStudentCourses","outputs":[{"internalType":"uint256[]","name":"","type":"uint256[]"}],"stateMutability":"view","type":"function"},{"inputs":[],"name":"listCourses","outputs":[{"internalType":"uint256[]","name":"","type":"uint256[]"}],"stateMutability":"view","type":"function"},{"inputs":[{"internalType":"uint256","name":"_courseId","type":"uint256"}],"name":"registerStudentInCourse","outputs":[],"stateMutability":"nonpayable","type":"function"},{"inputs":[{"internalType":"address","name":"_user","type":"address"},{"internalType":"enum CourseContract.Role","name":"_role","type":"uint8"}],"name":"registerUser","outputs":[],"stateMutability":"nonpayable","type":"function"},{"inputs":[],"name":"totalCourses","outputs":[{"internalType":"uint256","name":"","type":"uint256"}],"stateMutability":"view","type":"function"},{"inputs":[{"internalType":"uint256","name":"_id","type":"uint256"},{"internalType":"string","name":"_name","type":"string"},{"internalType":"string","name":"_description","type":"string"},{"internalType":"uint256","name":"_credits","type":"uint256"}],"name":"updateCourse","outputs":[],"stateMutability":"nonpayable","type":"function"},{"inputs":[{"internalType":"address","name":"","type":"address"}],"name":"users","outputs":[{"internalType":"address","name":"addr","type":"address"},{"internalType":"enum CourseContract.Role","name":"role","type":"uint8"},{"internalType":"bool","name":"isActive","type":"bool"}],"stateMutability":"view","type":"function"}],"evm":{"bytecode":{"linkReferences":{},"object":"608060405234801561001057600080fd5b5061002b67fc2585265235f0bb60c01b6101c460201b60201c565b61004567114cbf210120309860c01b6101c460201b60201c565b33600360006101000a81548173ffffffffffffffffffffffffffffffffffffffff021916908373ffffffffffffffffffffffffffffffffffffffff1602179055506100a0673426b1b7bbe9be4360c01b6101c460201b60201c565b60405180606001604052803373ffffffffffffffffffffffffffffffffffffffff1681526020016002808111156100da576100d96101c7565b5b815260200160011515815250600160003373ffffffffffffffffffffffffffffffffffffffff1673ffffffffffffffffffffffffffffffffffffffff16815260200190815260200160002060008201518160000160006101000a81548173ffffffffffffffffffffffffffffffffffffffff021916908373ffffffffffffffffffffffffffffffffffffffff16021790555060208201518160000160146101000a81548160ff02191690836002811115610197576101966101c7565b5b021790555060408201518160000160156101000a81548160ff0219169083151502179055509050506101f6565b50565b7f4e487b7100000000000000000000000000000000000000000000000000000000600052602160045260246000fd5b613606806102056000396000f3fe608060405234801561001057600080fd5b50600436106100ea5760003560e01c80639dad8d221161008c578063a87430ba11610066578063a87430ba1461023b578063c53069c71461026d578063f43e5e421461028b578063f851a440146102bd576100ea565b80639dad8d22146101e75780639e9fa09714610203578063a4adb24b1461021f576100ea565b806383517a4f116100c857806383517a4f1461015b57806387ac18601461017957806391aac0651461019757806396f979d2146101b3576100ea565b80630b91e28d146100ef57806319384dd11461012357806377b311341461013f575b600080fd5b610109600480360381019061010491906124f1565b6102db565b60405161011a9594939291906125d8565b60405180910390f35b61013d600480360381019061013891906124f1565b610541565b005b61015960048036038101906101549190612672565b610a17565b005b610163610e86565b6040516101709190612797565b60405180910390f35b610181611453565b60405161018e91906127b9565b60405180910390f35b6101b160048036038101906101ac9190612909565b611459565b005b6101cd60048036038101906101c891906124f1565b6116c2565b6040516101de9594939291906125d8565b60405180910390f35b61020160048036038101906101fc91906124f1565b611815565b005b61021d60048036038101906102189190612a2b565b611a13565b005b61023960048036038101906102349190612a6b565b611c9f565b005b61025560048036038101906102509190612af6565b611e54565b60405161026493929190612ba9565b60405180910390f35b610275611eb8565b6040516102829190612797565b60405180910390f35b6102a560048036038101906102a09190612be0565b6121ba565b6040516102b493929190612c2f565b60405180910390f35b6102c561247e565b6040516102d29190612c66565b60405180910390f35b60608060008060006102f7678b618eed2c41925b60c01b6124a4565b61030b67afec20a08eee608560c01b6124a4565b61031f67fa097e7a2659d2e760c01b6124a4565b61033367a168d382b85e03b560c01b6124a4565b6002548610610377576040517f08c379a000000000000000000000000000000000000000000000000000000000815260040161036e90612ccd565b60405180910390fd5b61038b676254f0f5f0e9525260c01b6124a4565b61039f67a078ccabf902cb0160c01b6124a4565b6103b367b2971507281ed19960c01b6124a4565b600080600088815260200190815260200160002090506103dd670dece291aaa8df6360c01b6124a4565b6103f1679a8cf82e47a2be8060c01b6124a4565b806000018160010182600201548360030160009054906101000a900460ff16846004015484805461042190612d1c565b80601f016020809104026020016040519081016040528092919081815260200182805461044d90612d1c565b801561049a5780601f1061046f5761010080835404028352916020019161049a565b820191906000526020600020905b81548152906001019060200180831161047d57829003601f168201915b505050505094508380546104ad90612d1c565b80601f01602080910402602001604051908101604052809291908181526020018280546104d990612d1c565b80156105265780601f106104fb57610100808354040283529160200191610526565b820191906000526020600020905b81548152906001019060200180831161050957829003601f168201915b50505050509350955095509550955095505091939590929450565b6105556739b0ffa113586f5760c01b6124a4565b6105696710e9c80e4f30207860c01b6124a4565b61057d6790204b32cccd776660c01b6124a4565b6105916762805c7e524ac39d60c01b6124a4565b60025481106105d5576040517f08c379a00000000000000000000000000000000000000000000000000000000081526004016105cc90612ccd565b60405180910390fd5b6105e9675f01d8c85915955360c01b6124a4565b6105fd67866f4d7d1a5180d960c01b6124a4565b61061167e8de4c75e25f33e660c01b6124a4565b610625672462859483c4c49460c01b6124a4565b60008082815260200190815260200160002060030160009054906101000a900460ff16610687576040517f08c379a000000000000000000000000000000000000000000000000000000000815260040161067e90612dbf565b60405180910390fd5b61069b6751783a9af6942dc160c01b6124a4565b6106af679f6933d52ba20fbb60c01b6124a4565b6106c367a076949b0b75046860c01b6124a4565b6106d7675ca77da6d7ef415860c01b6124a4565b600060028111156106eb576106ea612b32565b5b600160003373ffffffffffffffffffffffffffffffffffffffff1673ffffffffffffffffffffffffffffffffffffffff16815260200190815260200160002060000160149054906101000a900460ff16600281111561074d5761074c612b32565b5b1461078d576040517f08c379a000000000000000000000000000000000000000000000000000000000815260040161078490612e51565b60405180910390fd5b6107a167cd3c4d831e97554560c01b6124a4565b6107b5671276b6276b24577160c01b6124a4565b6107c967e3bdc6b86c2f0d6e60c01b6124a4565b600080600083815260200190815260200160002090506107f3679e729b70412c1efa60c01b6124a4565b610807676f8ff91ad6ccae1360c01b6124a4565b60005b81600501805490508110156109245761082d6762819ceaef754cc760c01b6124a4565b6108416729b1987db8e5a3cd60c01b6124a4565b610855670bfd329f16fed2d860c01b6124a4565b3373ffffffffffffffffffffffffffffffffffffffff1682600501828154811061088257610881612e71565b5b9060005260206000200160009054906101000a900473ffffffffffffffffffffffffffffffffffffffff1673ffffffffffffffffffffffffffffffffffffffff1603610903576040517f08c379a00000000000000000000000000000000000000000000000000000000081526004016108fa90612f12565b60405180910390fd5b61091767c8af1c2a62fd5fd560c01b6124a4565b808060010191505061080a565b506109396705918c7faf12bf6560c01b6124a4565b61094d671bf08bd5d93ceac460c01b6124a4565b80600501339080600181540180825580915050600190039060005260206000200160009091909190916101000a81548173ffffffffffffffffffffffffffffffffffffffff021916908373ffffffffffffffffffffffffffffffffffffffff1602179055506109c667f9933c064d04488560c01b6124a4565b6109da6706f2c126eab93f7760c01b6124a4565b7f5978a47ce47cdeb8a43a1794142dd16f2f94e95103bd104783a42725c7fe8cff8233604051610a0b929190612f32565b60405180910390a15050565b610a2b677ae6747bd1c9b5e860c01b6124a4565b610a3f673d82f283b19a735160c01b6124a4565b610a5367e490745050d0bca960c01b6124a4565b610a676749d79f0d5545eef060c01b6124a4565b6002548410610aab576040517f08c379a0000000000000000000000000000000000000000000000000000000008152600401610aa290612ccd565b60405180910390fd5b610abf67a0604d10f899b05260c01b6124a4565b610ad367ef2a0f0c620b08b560c01b6124a4565b610ae767cf2059d946e614da60c01b6124a4565b610afb6723a06b278b7256ef60c01b6124a4565b60008085815260200190815260200160002060030160009054906101000a900460ff16610b5d576040517f08c379a0000000000000000000000000000000000000000000000000000000008152600401610b5490612dbf565b60405180910390fd5b610b716785e5d7ad9ec1a7a560c01b6124a4565b610b8567b316a32e1b028d1e60c01b6124a4565b610b996701c1f7a68359050f60c01b6124a4565b610bad673ea2a50efee7040960c01b6124a4565b60018360ff1610158015610bc5575060078360ff1611155b610c04576040517f08c379a0000000000000000000000000000000000000000000000000000000008152600401610bfb90612fa7565b60405180910390fd5b610c1867c10d5b130a68752660c01b6124a4565b610c2c672ba33dc9610a7ba760c01b6124a4565b610c4067b218db656501c9b560c01b6124a4565b610c546743b2196d46e3d53560c01b6124a4565b60188260ff16108015610c6a575060188160ff16105b8015610c7b57508060ff168260ff16105b610cba576040517f08c379a0000000000000000000000000000000000000000000000000000000008152600401610cb190613013565b60405180910390fd5b610cce67550bfaada84c6f4c60c01b6124a4565b610ce267ea622c3ea0fcc5aa60c01b6124a4565b610cf66729a220ceaefb54b160c01b6124a4565b60008060008681526020019081526020016000209050610d2067017a7679072fcefb60c01b6124a4565b610d3467bee8c48e05ab548560c01b6124a4565b600060018260040154610d479190613062565b9050610d5d67d7b3d7c86655e1f560c01b6124a4565b60405180606001604052808660ff1681526020018560ff1681526020018460ff1681525082600601600083815260200190815260200160002060008201518160000160006101000a81548160ff021916908360ff16021790555060208201518160000160016101000a81548160ff021916908360ff16021790555060408201518160000160026101000a81548160ff021916908360ff160217905550905050610e1067eb1cf8fe819bcbca60c01b6124a4565b808260040181905550610e2d676dd96455537ea3ff60c01b6124a4565b610e4167ed6f0775af2a4fb960c01b6124a4565b7f3ff69354bb51befb41cb392610be115187b4afcfed73d238a16f370c7f20491c86868686604051610e769493929190613096565b60405180910390a1505050505050565b6060610e9c670dad043e7110fcf560c01b6124a4565b610eb067fb0cc7466544cb0a60c01b6124a4565b610ec467cb04a7d236b7d1a860c01b6124a4565b610ed867d3d33ccfbbc4be4260c01b6124a4565b600160003373ffffffffffffffffffffffffffffffffffffffff1673ffffffffffffffffffffffffffffffffffffffff16815260200190815260200160002060000160159054906101000a900460ff16610f67576040517f08c379a0000000000000000000000000000000000000000000000000000000008152600401610f5e90613127565b60405180910390fd5b610f7b67d03ebef8257b677b60c01b6124a4565b610f8f675d912c3327b9ea1c60c01b6124a4565b610fa367e4a11287c15c998a60c01b6124a4565b610fb76727eb27f3efd6089360c01b6124a4565b60006002811115610fcb57610fca612b32565b5b600160003373ffffffffffffffffffffffffffffffffffffffff1673ffffffffffffffffffffffffffffffffffffffff16815260200190815260200160002060000160149054906101000a900460ff16600281111561102d5761102c612b32565b5b1461106d576040517f08c379a0000000000000000000000000000000000000000000000000000000008152600401611064906131b9565b60405180910390fd5b61108167d0d85b1422ce065060c01b6124a4565b611095679cebd3e8a3a4dd2a60c01b6124a4565b6110a967bebbe3772f9b667860c01b6124a4565b600060025467ffffffffffffffff8111156110c7576110c66127de565b5b6040519080825280602002602001820160405280156110f55781602001602082028036833780820191505090505b50905061110c672cc5221b809a01a160c01b6124a4565b61112067414843e019cbf5ec60c01b6124a4565b600061113667d9722dfb8ee9c13760c01b6124a4565b61114a67bcfb2943eb962f0160c01b6124a4565b60005b60025481101561131d5761116b67e0bb9c436cfef07f60c01b6124a4565b61117f67f26026083fa69b3e60c01b6124a4565b600080600083815260200190815260200160002090506111a967bcd08b297182bd7060c01b6124a4565b6111bd670a7966c88bba0a4a60c01b6124a4565b60005b816005018054905081101561130e576111e367c93b4ee31099e22b60c01b6124a4565b6111f7674207685e52896da060c01b6124a4565b3373ffffffffffffffffffffffffffffffffffffffff1682600501828154811061122457611223612e71565b5b9060005260206000200160009054906101000a900473ffffffffffffffffffffffffffffffffffffffff1673ffffffffffffffffffffffffffffffffffffffff16036112ed5761127e67f20fbff7cbdde7d160c01b6124a4565b6112926726c0f2deb2b7e94f60c01b6124a4565b828585815181106112a6576112a5612e71565b5b6020026020010181815250506112c6679780635dedce018760c01b6124a4565b83806112d1906131d9565b9450506112e867f25ade49fcd24e4e60c01b6124a4565b61130e565b61130167e0627f6a2223d25760c01b6124a4565b80806001019150506111c0565b5050808060010191505061114d565b5061133267faf936e08026669960c01b6124a4565b61134667c51014e2c72e11e660c01b6124a4565b60008167ffffffffffffffff811115611362576113616127de565b5b6040519080825280602002602001820160405280156113905781602001602082028036833780820191505090505b5090506113a767469e264a8e21645c60c01b6124a4565b6113bb67abfe7c6f3fd8a77e60c01b6124a4565b60005b82811015611421576113da67246ae8d749404ac760c01b6124a4565b8381815181106113ed576113ec612e71565b5b602002602001015182828151811061140857611407612e71565b5b60200260200101818152505080806001019150506113be565b5061143667241432874b140fa260c01b6124a4565b61144a671ed9041d1dc76a6260c01b6124a4565b80935050505090565b60025481565b61146d67efa420086581272360c01b6124a4565b611481675fb32f58224448e160c01b6124a4565b611495679e4665c1c9d4115560c01b6124a4565b6114a9671b85a9d3ad6a26e860c01b6124a4565b60025484106114ed576040517f08c379a00000000000000000000000000000000000000000000000000000000081526004016114e490612ccd565b60405180910390fd5b611501671615e6c23917cf2460c01b6124a4565b61151567cad2bd8e060fa67b60c01b6124a4565b611529676a13bf3997a98b1c60c01b6124a4565b61153d6755373551cbeddfd060c01b6124a4565b60008085815260200190815260200160002060030160009054906101000a900460ff1661159f576040517f08c379a000000000000000000000000000000000000000000000000000000000815260040161159690612dbf565b60405180910390fd5b6115b3676d5a3ce307bbae1b60c01b6124a4565b6115c767f65ca3a9180c2ef860c01b6124a4565b6115db67d6761eb1694d1ae160c01b6124a4565b60008060008681526020019081526020016000209050611605676cae4b343425ffea60c01b6124a4565b8381600001908161161691906133cd565b5061162b67bbd053e05ff771c260c01b6124a4565b8281600101908161163c91906133cd565b50611651677b4f18d59c7962fb60c01b6124a4565b81816002018190555061166e67d5e20a06db62a45f60c01b6124a4565b61168267a4845e4364ae8b4860c01b6124a4565b7f61f1b503285f2baf5ae0ec7be5c9605a293c9d47bdaf9bdb36fc15c570615fe685856040516116b392919061349f565b60405180910390a15050505050565b60006020528060005260406000206000915090508060000180546116e590612d1c565b80601f016020809104026020016040519081016040528092919081815260200182805461171190612d1c565b801561175e5780601f106117335761010080835404028352916020019161175e565b820191906000526020600020905b81548152906001019060200180831161174157829003601f168201915b50505050509080600101805461177390612d1c565b80601f016020809104026020016040519081016040528092919081815260200182805461179f90612d1c565b80156117ec5780601f106117c1576101008083540402835291602001916117ec565b820191906000526020600020905b8154815290600101906020018083116117cf57829003601f168201915b5050505050908060020154908060030160009054906101000a900460ff16908060040154905085565b61182967fbe0b86a39a049d560c01b6124a4565b61183d6710513aa207c4377060c01b6124a4565b61185167ce0f3b4fbd24776160c01b6124a4565b61186567fa12b017006519ff60c01b6124a4565b60025481106118a9576040517f08c379a00000000000000000000000000000000000000000000000000000000081526004016118a090612ccd565b60405180910390fd5b6118bd67727950b62b21615260c01b6124a4565b6118d167bfbf86115256ccf560c01b6124a4565b6118e56765e0290839d646f160c01b6124a4565b6118f9679f771991c3aef0f060c01b6124a4565b60008082815260200190815260200160002060030160009054906101000a900460ff1661195b576040517f08c379a000000000000000000000000000000000000000000000000000000000815260040161195290612dbf565b60405180910390fd5b61196f674f2e29a43170ef9b60c01b6124a4565b611983675d3e28a49c8a8d0a60c01b6124a4565b600080600083815260200190815260200160002060030160006101000a81548160ff0219169083151502179055506119c5678f77b762c337edc460c01b6124a4565b6119d967aa012ee553094ab960c01b6124a4565b7f39eeda956a5b638cce21d44feb4e3279509fbaf8fb7776431f55f57a0cd2153781604051611a0891906127b9565b60405180910390a150565b611a27678cfd343db7f9f31060c01b6124a4565b611a3b67e2ddcc1130163da760c01b6124a4565b611a4f67d08475223611b57360c01b6124a4565b611a6367e4c5ed3f9819cf5560c01b6124a4565b600160008373ffffffffffffffffffffffffffffffffffffffff1673ffffffffffffffffffffffffffffffffffffffff16815260200190815260200160002060000160159054906101000a900460ff1615611af3576040517f08c379a0000000000000000000000000000000000000000000000000000000008152600401611aea9061351b565b60405180910390fd5b611b0767c111f64eefd5922a60c01b6124a4565b611b1b675abba16195a16b8860c01b6124a4565b60405180606001604052808373ffffffffffffffffffffffffffffffffffffffff168152602001826002811115611b5557611b54612b32565b5b815260200160011515815250600160008473ffffffffffffffffffffffffffffffffffffffff1673ffffffffffffffffffffffffffffffffffffffff16815260200190815260200160002060008201518160000160006101000a81548173ffffffffffffffffffffffffffffffffffffffff021916908373ffffffffffffffffffffffffffffffffffffffff16021790555060208201518160000160146101000a81548160ff02191690836002811115611c1257611c11612b32565b5b021790555060408201518160000160156101000a81548160ff021916908315150217905550905050611c4e67918cfa8f16c3247e60c01b6124a4565b611c6267df9b372033c9a47c60c01b6124a4565b7f8e18574f8a7333e6a87112742a55853a643e2f0550f4e1a3a2c3f1bb2994441d8282604051611c9392919061353b565b60405180910390a15050565b611cb3674b2a1d54151477b460c01b6124a4565b611cc7676645efcfc21f684b60c01b6124a4565b611cdb67bc49af777b3d779f60c01b6124a4565b600060026000815480929190611cf0906131d9565b919050559050611d0a67ca966d4f261220b060c01b6124a4565b611d1e67d5aab07bd10dde1960c01b6124a4565b60008060008381526020019081526020016000209050611d48670328384ebd74453d60c01b6124a4565b84816000019081611d5991906133cd565b50611d6e67935038318856fa9660c01b6124a4565b83816001019081611d7f91906133cd565b50611d9467e3576fbecb7259ed60c01b6124a4565b828160020181905550611db167492a52ecc5bb2cdd60c01b6124a4565b60018160030160006101000a81548160ff021916908315150217905550611de2679f8ab1dedc6bcb8f60c01b6124a4565b60008160040181905550611e00670cee4e5b094ef9c060c01b6124a4565b611e146793435154d47110ee60c01b6124a4565b7fc2c844c5f6c72fe99b99de0942ba619e99957d3e8f7e614263ecfe40de952e588286604051611e4592919061349f565b60405180910390a15050505050565b60016020528060005260406000206000915090508060000160009054906101000a900473ffffffffffffffffffffffffffffffffffffffff16908060000160149054906101000a900460ff16908060000160159054906101000a900460ff16905083565b6060611ece67e791826a5a23a9e460c01b6124a4565b611ee26740210fdaca2934eb60c01b6124a4565b611ef667ecc647d2615d65da60c01b6124a4565b600060025467ffffffffffffffff811115611f1457611f136127de565b5b604051908082528060200260200182016040528015611f425781602001602082028036833780820191505090505b509050611f59670fde97e48a717b0d60c01b6124a4565b611f6d67e514f2a59454790160c01b6124a4565b6000611f836706128a8ac189c55960c01b6124a4565b611f9767bac9fff63784e0a160c01b6124a4565b60005b60025481101561208557611fb867a3a17b43a70a4ae560c01b6124a4565b611fcc67a21e80bc7f071bbf60c01b6124a4565b60008082815260200190815260200160002060030160009054906101000a900460ff16156120635761200867aa60cb6a673fd3af60c01b6124a4565b61201c67aaf4e5dd1b02f40b60c01b6124a4565b808383815181106120305761202f612e71565b5b60200260200101818152505061205067a8326045f8a96ba760c01b6124a4565b818061205b906131d9565b925050612078565b612077677db4f457a6869a3e60c01b6124a4565b5b8080600101915050611f9a565b5061209a6777c38c97ef336b0860c01b6124a4565b6120ae67484cbd0a4b591dff60c01b6124a4565b60008167ffffffffffffffff8111156120ca576120c96127de565b5b6040519080825280602002602001820160405280156120f85781602001602082028036833780820191505090505b50905061210f67c8bfdba8f0cb99fa60c01b6124a4565b61212367437d0bf82235306e60c01b6124a4565b60005b828110156121895761214267cb8e4e53348c08f160c01b6124a4565b83818151811061215557612154612e71565b5b60200260200101518282815181106121705761216f612e71565b5b6020026020010181815250508080600101915050612126565b5061219e67aa9b19357554d9bb60c01b6124a4565b6121b16639ca7b8b366db360c01b6124a4565b80935050505090565b60008060006121d36746ae95bb242d27e060c01b6124a4565b6121e767bd358223229e8fb860c01b6124a4565b6121fb67440fb32cf1abe2d660c01b6124a4565b61220f6737470f2556bc5c7960c01b6124a4565b6002548510612253576040517f08c379a000000000000000000000000000000000000000000000000000000000815260040161224a90612ccd565b60405180910390fd5b61226767d27e475f0839936d60c01b6124a4565b61227b67f22f86f69ce72b9460c01b6124a4565b61228f67d721f89c0a8aa47960c01b6124a4565b6122a3670b924512d42e6c5860c01b6124a4565b60008086815260200190815260200160002060030160009054906101000a900460ff16612305576040517f08c379a00000000000000000000000000000000000000000000000000000000081526004016122fc90612dbf565b60405180910390fd5b612319670e63200269761fd460c01b6124a4565b61232d672fe43de37973ca6a60c01b6124a4565b612340665ed5b9b6afa40660c01b6124a4565b61235467f80d9f229565b75160c01b6124a4565b600080868152602001908152602001600020600401548411156123ac576040517f08c379a00000000000000000000000000000000000000000000000000000000081526004016123a3906135b0565b60405180910390fd5b6123c067e72c26862f3d974160c01b6124a4565b6123d467e1c2283c53d05d6560c01b6124a4565b6123e867912f4e6c47d0c07760c01b6124a4565b60008060008781526020019081526020016000206006016000868152602001908152602001600020905061242667fb95b48dcf71463860c01b6124a4565b61243a675fa890e0e2675a6260c01b6124a4565b8060000160009054906101000a900460ff168160000160019054906101000a900460ff168260000160029054906101000a900460ff16935093509350509250925092565b600360009054906101000a900473ffffffffffffffffffffffffffffffffffffffff1681565b50565b6000604051905090565b600080fd5b600080fd5b6000819050919050565b6124ce816124bb565b81146124d957600080fd5b50565b6000813590506124eb816124c5565b92915050565b600060208284031215612507576125066124b1565b5b6000612515848285016124dc565b91505092915050565b600081519050919050565b600082825260208201905092915050565b60005b8381101561255857808201518184015260208101905061253d565b60008484015250505050565b6000601f19601f8301169050919050565b60006125808261251e565b61258a8185612529565b935061259a81856020860161253a565b6125a381612564565b840191505092915050565b6125b7816124bb565b82525050565b60008115159050919050565b6125d2816125bd565b82525050565b600060a08201905081810360008301526125f28188612575565b905081810360208301526126068187612575565b905061261560408301866125ae565b61262260608301856125c9565b61262f60808301846125ae565b9695505050505050565b600060ff82169050919050565b61264f81612639565b811461265a57600080fd5b50565b60008135905061266c81612646565b92915050565b6000806000806080858703121561268c5761268b6124b1565b5b600061269a878288016124dc565b94505060206126ab8782880161265d565b93505060406126bc8782880161265d565b92505060606126cd8782880161265d565b91505092959194509250565b600081519050919050565b600082825260208201905092915050565b6000819050602082019050919050565b61270e816124bb565b82525050565b60006127208383612705565b60208301905092915050565b6000602082019050919050565b6000612744826126d9565b61274e81856126e4565b9350612759836126f5565b8060005b8381101561278a5781516127718882612714565b975061277c8361272c565b92505060018101905061275d565b5085935050505092915050565b600060208201905081810360008301526127b18184612739565b905092915050565b60006020820190506127ce60008301846125ae565b92915050565b600080fd5b600080fd5b7f4e487b7100000000000000000000000000000000000000000000000000000000600052604160045260246000fd5b61281682612564565b810181811067ffffffffffffffff82111715612835576128346127de565b5b80604052505050565b60006128486124a7565b9050612854828261280d565b919050565b600067ffffffffffffffff821115612874576128736127de565b5b61287d82612564565b9050602081019050919050565b82818337600083830152505050565b60006128ac6128a784612859565b61283e565b9050828152602081018484840111156128c8576128c76127d9565b5b6128d384828561288a565b509392505050565b600082601f8301126128f0576128ef6127d4565b5b8135612900848260208601612899565b91505092915050565b60008060008060808587031215612923576129226124b1565b5b6000612931878288016124dc565b945050602085013567ffffffffffffffff811115612952576129516124b6565b5b61295e878288016128db565b935050604085013567ffffffffffffffff81111561297f5761297e6124b6565b5b61298b878288016128db565b925050606061299c878288016124dc565b91505092959194509250565b600073ffffffffffffffffffffffffffffffffffffffff82169050919050565b60006129d3826129a8565b9050919050565b6129e3816129c8565b81146129ee57600080fd5b50565b600081359050612a00816129da565b92915050565b60038110612a1357600080fd5b50565b600081359050612a2581612a06565b92915050565b60008060408385031215612a4257612a416124b1565b5b6000612a50858286016129f1565b9250506020612a6185828601612a16565b9150509250929050565b600080600060608486031215612a8457612a836124b1565b5b600084013567ffffffffffffffff811115612aa257612aa16124b6565b5b612aae868287016128db565b935050602084013567ffffffffffffffff811115612acf57612ace6124b6565b5b612adb868287016128db565b9250506040612aec868287016124dc565b9150509250925092565b600060208284031215612b0c57612b0b6124b1565b5b6000612b1a848285016129f1565b91505092915050565b612b2c816129c8565b82525050565b7f4e487b7100000000000000000000000000000000000000000000000000000000600052602160045260246000fd5b60038110612b7257612b71612b32565b5b50565b6000819050612b8382612b61565b919050565b6000612b9382612b75565b9050919050565b612ba381612b88565b82525050565b6000606082019050612bbe6000830186612b23565b612bcb6020830185612b9a565b612bd860408301846125c9565b949350505050565b60008060408385031215612bf757612bf66124b1565b5b6000612c05858286016124dc565b9250506020612c16858286016124dc565b9150509250929050565b612c2981612639565b82525050565b6000606082019050612c446000830186612c20565b612c516020830185612c20565b612c5e6040830184612c20565b949350505050565b6000602082019050612c7b6000830184612b23565b92915050565b7f496e76616c696420636f75727365204944000000000000000000000000000000600082015250565b6000612cb7601183612529565b9150612cc282612c81565b602082019050919050565b60006020820190508181036000830152612ce681612caa565b9050919050565b7f4e487b7100000000000000000000000000000000000000000000000000000000600052602260045260246000fd5b60006002820490506001821680612d3457607f821691505b602082108103612d4757612d46612ced565b5b50919050565b7f436f7572736520646f6573206e6f74206578697374206f72206861732062656560008201527f6e2064656c657465640000000000000000000000000000000000000000000000602082015250565b6000612da9602983612529565b9150612db482612d4d565b604082019050919050565b60006020820190508181036000830152612dd881612d9c565b9050919050565b7f4f6e6c792073747564656e74732063616e20726567697374657220696e20636f60008201527f7572736573000000000000000000000000000000000000000000000000000000602082015250565b6000612e3b602583612529565b9150612e4682612ddf565b604082019050919050565b60006020820190508181036000830152612e6a81612e2e565b9050919050565b7f4e487b7100000000000000000000000000000000000000000000000000000000600052603260045260246000fd5b7f53747564656e7420616c7265616479207265676973746572656420696e20746860008201527f6520636f75727365000000000000000000000000000000000000000000000000602082015250565b6000612efc602883612529565b9150612f0782612ea0565b604082019050919050565b60006020820190508181036000830152612f2b81612eef565b9050919050565b6000604082019050612f4760008301856125ae565b612f546020830184612b23565b9392505050565b7f496e76616c696420646179000000000000000000000000000000000000000000600082015250565b6000612f91600b83612529565b9150612f9c82612f5b565b602082019050919050565b60006020820190508181036000830152612fc081612f84565b9050919050565b7f496e76616c6964207363686564756c6500000000000000000000000000000000600082015250565b6000612ffd601083612529565b915061300882612fc7565b602082019050919050565b6000602082019050818103600083015261302c81612ff0565b9050919050565b7f4e487b7100000000000000000000000000000000000000000000000000000000600052601160045260246000fd5b600061306d826124bb565b9150613078836124bb565b92508282019050808211156130905761308f613033565b5b92915050565b60006080820190506130ab60008301876125ae565b6130b86020830186612c20565b6130c56040830185612c20565b6130d26060830184612c20565b95945050505050565b7f55736572206e6f74207265676973746572656400000000000000000000000000600082015250565b6000613111601383612529565b915061311c826130db565b602082019050919050565b6000602082019050818103600083015261314081613104565b9050919050565b7f4f6e6c792073747564656e74732063616e206861766520656e726f6c6c65642060008201527f636f757273657300000000000000000000000000000000000000000000000000602082015250565b60006131a3602783612529565b91506131ae82613147565b604082019050919050565b600060208201905081810360008301526131d281613196565b9050919050565b60006131e4826124bb565b91507fffffffffffffffffffffffffffffffffffffffffffffffffffffffffffffffff820361321657613215613033565b5b600182019050919050565b60008190508160005260206000209050919050565b60006020601f8301049050919050565b600082821b905092915050565b6000600883026132837fffffffffffffffffffffffffffffffffffffffffffffffffffffffffffffffff82613246565b61328d8683613246565b95508019841693508086168417925050509392505050565b6000819050919050565b60006132ca6132c56132c0846124bb565b6132a5565b6124bb565b9050919050565b6000819050919050565b6132e4836132af565b6132f86132f0826132d1565b848454613253565b825550505050565b600090565b61330d613300565b6133188184846132db565b505050565b5b8181101561333c57613331600082613305565b60018101905061331e565b5050565b601f8211156133815761335281613221565b61335b84613236565b8101602085101561336a578190505b61337e61337685613236565b83018261331d565b50505b505050565b600082821c905092915050565b60006133a460001984600802613386565b1980831691505092915050565b60006133bd8383613393565b9150826002028217905092915050565b6133d68261251e565b67ffffffffffffffff8111156133ef576133ee6127de565b5b6133f98254612d1c565b613404828285613340565b600060209050601f8311600181146134375760008415613425578287015190505b61342f85826133b1565b865550613497565b601f19841661344586613221565b60005b8281101561346d57848901518255600182019150602085019450602081019050613448565b8683101561348a5784890151613486601f891682613393565b8355505b6001600288020188555050505b505050505050565b60006040820190506134b460008301856125ae565b81810360208301526134c68184612575565b90509392505050565b7f5573657220616c72656164792072656769737465726564000000000000000000600082015250565b6000613505601783612529565b9150613510826134cf565b602082019050919050565b60006020820190508181036000830152613534816134f8565b9050919050565b60006040820190506135506000830185612b23565b61355d6020830184612b9a565b9392505050565b7f496e76616c6964207363686564756c6520494400000000000000000000000000600082015250565b600061359a601383612529565b91506135a582613564565b602082019050919050565b600060208201905081810360008301526135c98161358d565b905091905056fea2646970667358221220c225543606ad56ca87c25e5fb932fdd9cff8241adec17d7ce7940e4693ab5be364736f6c634300081b0033","opcodes":"PUSH1 0x80 PUSH1 0x40 MSTORE CALLVALUE DUP1 ISZERO PUSH2 0x10 JUMPI PUSH1 0x0 DUP1 REVERT JUMPDEST POP PUSH2 0x2B PUSH8 0xFC2585265235F0BB PUSH1 0xC0 SHL PUSH2 0x1C4 PUSH1 0x20 SHL PUSH1 0x20 SHR JUMP JUMPDEST PUSH2 0x45 PUSH8 0x114CBF2101203098 PUSH1 0xC0 SHL PUSH2 0x1C4 PUSH1 0x20 SHL PUSH1 0x20 SHR JUMP JUMPDEST CALLER PUSH1 0x3 PUSH1 0x0 PUSH2 0x100 EXP DUP2 SLOAD DUP2 PUSH20 0xFFFFFFFFFFFFFFFFFFFFFFFFFFFFFFFFFFFFFFFF MUL NOT AND SWAP1 DUP4 PUSH20 0xFFFFFFFFFFFFFFFFFFFFFFFFFFFFFFFFFFFFFFFF AND MUL OR SWAP1 SSTORE POP PUSH2 0xA0 PUSH8 0x3426B1B7BBE9BE43 PUSH1 0xC0 SHL PUSH2 0x1C4 PUSH1 0x20 SHL PUSH1 0x20 SHR JUMP JUMPDEST PUSH1 0x40 MLOAD DUP1 PUSH1 0x60 ADD PUSH1 0x40 MSTORE DUP1 CALLER PUSH20 0xFFFFFFFFFFFFFFFFFFFFFFFFFFFFFFFFFFFFFFFF AND DUP2 MSTORE PUSH1 0x20 ADD PUSH1 0x2 DUP1 DUP2 GT ISZERO PUSH2 0xDA JUMPI PUSH2 0xD9 PUSH2 0x1C7 JUMP JUMPDEST JUMPDEST DUP2 MSTORE PUSH1 0x20 ADD PUSH1 0x1 ISZERO ISZERO DUP2 MSTORE POP PUSH1 0x1 PUSH1 0x0 CALLER PUSH20 0xFFFFFFFFFFFFFFFFFFFFFFFFFFFFFFFFFFFFFFFF AND PUSH20 0xFFFFFFFFFFFFFFFFFFFFFFFFFFFFFFFFFFFFFFFF AND DUP2 MSTORE PUSH1 0x20 ADD SWAP1 DUP2 MSTORE PUSH1 0x20 ADD PUSH1 0x0 KECCAK256 PUSH1 0x0 DUP3 ADD MLOAD DUP2 PUSH1 0x0 ADD PUSH1 0x0 PUSH2 0x100 EXP DUP2 SLOAD DUP2 PUSH20 0xFFFFFFFFFFFFFFFFFFFFFFFFFFFFFFFFFFFFFFFF MUL NOT AND SWAP1 DUP4 PUSH20 0xFFFFFFFFFFFFFFFFFFFFFFFFFFFFFFFFFFFFFFFF AND MUL OR SWAP1 SSTORE POP PUSH1 0x20 DUP3 ADD MLOAD DUP2 PUSH1 0x0 ADD PUSH1 0x14 PUSH2 0x100 EXP DUP2 SLOAD DUP2 PUSH1 0xFF MUL NOT AND SWAP1 DUP4 PUSH1 0x2 DUP2 GT ISZERO PUSH2 0x197 JUMPI PUSH2 0x196 PUSH2 0x1C7 JUMP JUMPDEST JUMPDEST MUL OR SWAP1 SSTORE POP PUSH1 0x40 DUP3 ADD MLOAD DUP2 PUSH1 0x0 ADD PUSH1 0x15 PUSH2 0x100 EXP DUP2 SLOAD DUP2 PUSH1 0xFF MUL NOT AND SWAP1 DUP4 ISZERO ISZERO MUL OR SWAP1 SSTORE POP SWAP1 POP POP PUSH2 0x1F6 JUMP JUMPDEST POP JUMP JUMPDEST PUSH32 0x4E487B7100000000000000000000000000000000000000000000000000000000 PUSH1 0x0 MSTORE PUSH1 0x21 PUSH1 0x4 MSTORE PUSH1 0x24 PUSH1 0x0 REVERT JUMPDEST PUSH2 0x3606 DUP1 PUSH2 0x205 PUSH1 0x0 CODECOPY PUSH1 0x0 RETURN INVALID PUSH1 0x80 PUSH1 0x40 MSTORE CALLVALUE DUP1 ISZERO PUSH2 0x10 JUMPI PUSH1 0x0 DUP1 REVERT JUMPDEST POP PUSH1 0x4 CALLDATASIZE LT PUSH2 0xEA JUMPI PUSH1 0x0 CALLDATALOAD PUSH1 0xE0 SHR DUP1 PUSH4 0x9DAD8D22 GT PUSH2 0x8C JUMPI DUP1 PUSH4 0xA87430BA GT PUSH2 0x66 JUMPI DUP1 PUSH4 0xA87430BA EQ PUSH2 0x23B JUMPI DUP1 PUSH4 0xC53069C7 EQ PUSH2 0x26D JUMPI DUP1 PUSH4 0xF43E5E42 EQ PUSH2 0x28B JUMPI DUP1 PUSH4 0xF851A440 EQ PUSH2 0x2BD JUMPI PUSH2 0xEA JUMP JUMPDEST DUP1 PUSH4 0x9DAD8D22 EQ PUSH2 0x1E7 JUMPI DUP1 PUSH4 0x9E9FA097 EQ PUSH2 0x203 JUMPI DUP1 PUSH4 0xA4ADB24B EQ PUSH2 0x21F JUMPI PUSH2 0xEA JUMP JUMPDEST DUP1 PUSH4 0x83517A4F GT PUSH2 0xC8 JUMPI DUP1 PUSH4 0x83517A4F EQ PUSH2 0x15B JUMPI DUP1 PUSH4 0x87AC1860 EQ PUSH2 0x179 JUMPI DUP1 PUSH4 0x91AAC065 EQ PUSH2 0x197 JUMPI DUP1 PUSH4 0x96F979D2 EQ PUSH2 0x1B3 JUMPI PUSH2 0xEA JUMP JUMPDEST DUP1 PUSH4 0xB91E28D EQ PUSH2 0xEF JUMPI DUP1 PUSH4 0x19384DD1 EQ PUSH2 0x123 JUMPI DUP1 PUSH4 0x77B31134 EQ PUSH2 0x13F JUMPI JUMPDEST PUSH1 0x0 DUP1 REVERT JUMPDEST PUSH2 0x109 PUSH1 0x4 DUP1 CALLDATASIZE SUB DUP2 ADD SWAP1 PUSH2 0x104 SWAP2 SWAP1 PUSH2 0x24F1 JUMP JUMPDEST PUSH2 0x2DB JUMP JUMPDEST PUSH1 0x40 MLOAD PUSH2 0x11A SWAP6 SWAP5 SWAP4 SWAP3 SWAP2 SWAP1 PUSH2 0x25D8 JUMP JUMPDEST PUSH1 0x40 MLOAD DUP1 SWAP2 SUB SWAP1 RETURN JUMPDEST PUSH2 0x13D PUSH1 0x4 DUP1 CALLDATASIZE SUB DUP2 ADD SWAP1 PUSH2 0x138 SWAP2 SWAP1 PUSH2 0x24F1 JUMP JUMPDEST PUSH2 0x541 JUMP JUMPDEST STOP JUMPDEST PUSH2 0x159 PUSH1 0x4 DUP1 CALLDATASIZE SUB DUP2 ADD SWAP1 PUSH2 0x154 SWAP2 SWAP1 PUSH2 0x2672 JUMP JUMPDEST PUSH2 0xA17 JUMP JUMPDEST STOP JUMPDEST PUSH2 0x163 PUSH2 0xE86 JUMP JUMPDEST PUSH1 0x40 MLOAD PUSH2 0x170 SWAP2 SWAP1 PUSH2 0x2797 JUMP JUMPDEST PUSH1 0x40 MLOAD DUP1 SWAP2 SUB SWAP1 RETURN JUMPDEST PUSH2 0x181 PUSH2 0x1453 JUMP JUMPDEST PUSH1 0x40 MLOAD PUSH2 0x18E SWAP2 SWAP1 PUSH2 0x27B9 JUMP JUMPDEST PUSH1 0x40 MLOAD DUP1 SWAP2 SUB SWAP1 RETURN JUMPDEST PUSH2 0x1B1 PUSH1 0x4 DUP1 CALLDATASIZE SUB DUP2 ADD SWAP1 PUSH2 0x1AC SWAP2 SWAP1 PUSH2 0x2909 JUMP JUMPDEST PUSH2 0x1459 JUMP JUMPDEST STOP JUMPDEST PUSH2 0x1CD PUSH1 0x4 DUP1 CALLDATASIZE SUB DUP2 ADD SWAP1 PUSH2 0x1C8 SWAP2 SWAP1 PUSH2 0x24F1 JUMP JUMPDEST PUSH2 0x16C2 JUMP JUMPDEST PUSH1 0x40 MLOAD PUSH2 0x1DE SWAP6 SWAP5 SWAP4 SWAP3 SWAP2 SWAP1 PUSH2 0x25D8 JUMP JUMPDEST PUSH1 0x40 MLOAD DUP1 SWAP2 SUB SWAP1 RETURN JUMPDEST PUSH2 0x201 PUSH1 0x4 DUP1 CALLDATASIZE SUB DUP2 ADD SWAP1 PUSH2 0x1FC SWAP2 SWAP1 PUSH2 0x24F1 JUMP JUMPDEST PUSH2 0x1815 JUMP JUMPDEST STOP JUMPDEST PUSH2 0x21D PUSH1 0x4 DUP1 CALLDATASIZE SUB DUP2 ADD SWAP1 PUSH2 0x218 SWAP2 SWAP1 PUSH2 0x2A2B JUMP JUMPDEST PUSH2 0x1A13 JUMP JUMPDEST STOP JUMPDEST PUSH2 0x239 PUSH1 0x4 DUP1 CALLDATASIZE SUB DUP2 ADD SWAP1 PUSH2 0x234 SWAP2 SWAP1 PUSH2 0x2A6B JUMP JUMPDEST PUSH2 0x1C9F JUMP JUMPDEST STOP JUMPDEST PUSH2 0x255 PUSH1 0x4 DUP1 CALLDATASIZE SUB DUP2 ADD SWAP1 PUSH2 0x250 SWAP2 SWAP1 PUSH2 0x2AF6 JUMP JUMPDEST PUSH2 0x1E54 JUMP JUMPDEST PUSH1 0x40 MLOAD PUSH2 0x264 SWAP4 SWAP3 SWAP2 SWAP1 PUSH2 0x2BA9 JUMP JUMPDEST PUSH1 0x40 MLOAD DUP1 SWAP2 SUB SWAP1 RETURN JUMPDEST PUSH2 0x275 PUSH2 0x1EB8 JUMP JUMPDEST PUSH1 0x40 MLOAD PUSH2 0x282 SWAP2 SWAP1 PUSH2 0x2797 JUMP JUMPDEST PUSH1 0x40 MLOAD DUP1 SWAP2 SUB SWAP1 RETURN JUMPDEST PUSH2 0x2A5 PUSH1 0x4 DUP1 CALLDATASIZE SUB DUP2 ADD SWAP1 PUSH2 0x2A0 SWAP2 SWAP1 PUSH2 0x2BE0 JUMP JUMPDEST PUSH2 0x21BA JUMP JUMPDEST PUSH1 0x40 MLOAD PUSH2 0x2B4 SWAP4 SWAP3 SWAP2 SWAP1 PUSH2 0x2C2F JUMP JUMPDEST PUSH1 0x40 MLOAD DUP1 SWAP2 SUB SWAP1 RETURN JUMPDEST PUSH2 0x2C5 PUSH2 0x247E JUMP JUMPDEST PUSH1 0x40 MLOAD PUSH2 0x2D2 SWAP2 SWAP1 PUSH2 0x2C66 JUMP JUMPDEST PUSH1 0x40 MLOAD DUP1 SWAP2 SUB SWAP1 RETURN JUMPDEST PUSH1 0x60 DUP1 PUSH1 0x0 DUP1 PUSH1 0x0 PUSH2 0x2F7 PUSH8 0x8B618EED2C41925B PUSH1 0xC0 SHL PUSH2 0x24A4 JUMP JUMPDEST PUSH2 0x30B PUSH8 0xAFEC20A08EEE6085 PUSH1 0xC0 SHL PUSH2 0x24A4 JUMP JUMPDEST PUSH2 0x31F PUSH8 0xFA097E7A2659D2E7 PUSH1 0xC0 SHL PUSH2 0x24A4 JUMP JUMPDEST PUSH2 0x333 PUSH8 0xA168D382B85E03B5 PUSH1 0xC0 SHL PUSH2 0x24A4 JUMP JUMPDEST PUSH1 0x2 SLOAD DUP7 LT PUSH2 0x377 JUMPI PUSH1 0x40 MLOAD PUSH32 0x8C379A000000000000000000000000000000000000000000000000000000000 DUP2 MSTORE PUSH1 0x4 ADD PUSH2 0x36E SWAP1 PUSH2 0x2CCD JUMP JUMPDEST PUSH1 0x40 MLOAD DUP1 SWAP2 SUB SWAP1 REVERT JUMPDEST PUSH2 0x38B PUSH8 0x6254F0F5F0E95252 PUSH1 0xC0 SHL PUSH2 0x24A4 JUMP JUMPDEST PUSH2 0x39F PUSH8 0xA078CCABF902CB01 PUSH1 0xC0 SHL PUSH2 0x24A4 JUMP JUMPDEST PUSH2 0x3B3 PUSH8 0xB2971507281ED199 PUSH1 0xC0 SHL PUSH2 0x24A4 JUMP JUMPDEST PUSH1 0x0 DUP1 PUSH1 0x0 DUP9 DUP2 MSTORE PUSH1 0x20 ADD SWAP1 DUP2 MSTORE PUSH1 0x20 ADD PUSH1 0x0 KECCAK256 SWAP1 POP PUSH2 0x3DD PUSH8 0xDECE291AAA8DF63 PUSH1 0xC0 SHL PUSH2 0x24A4 JUMP JUMPDEST PUSH2 0x3F1 PUSH8 0x9A8CF82E47A2BE80 PUSH1 0xC0 SHL PUSH2 0x24A4 JUMP JUMPDEST DUP1 PUSH1 0x0 ADD DUP2 PUSH1 0x1 ADD DUP3 PUSH1 0x2 ADD SLOAD DUP4 PUSH1 0x3 ADD PUSH1 0x0 SWAP1 SLOAD SWAP1 PUSH2 0x100 EXP SWAP1 DIV PUSH1 0xFF AND DUP5 PUSH1 0x4 ADD SLOAD DUP5 DUP1 SLOAD PUSH2 0x421 SWAP1 PUSH2 0x2D1C JUMP JUMPDEST DUP1 PUSH1 0x1F ADD PUSH1 0x20 DUP1 SWAP2 DIV MUL PUSH1 0x20 ADD PUSH1 0x40 MLOAD SWAP1 DUP2 ADD PUSH1 0x40 MSTORE DUP1 SWAP3 SWAP2 SWAP1 DUP2 DUP2 MSTORE PUSH1 0x20 ADD DUP3 DUP1 SLOAD PUSH2 0x44D SWAP1 PUSH2 0x2D1C JUMP JUMPDEST DUP1 ISZERO PUSH2 0x49A JUMPI DUP1 PUSH1 0x1F LT PUSH2 0x46F JUMPI PUSH2 0x100 DUP1 DUP4 SLOAD DIV MUL DUP4 MSTORE SWAP2 PUSH1 0x20 ADD SWAP2 PUSH2 0x49A JUMP JUMPDEST DUP3 ADD SWAP2 SWAP1 PUSH1 0x0 MSTORE PUSH1 0x20 PUSH1 0x0 KECCAK256 SWAP1 JUMPDEST DUP2 SLOAD DUP2 MSTORE SWAP1 PUSH1 0x1 ADD SWAP1 PUSH1 0x20 ADD DUP1 DUP4 GT PUSH2 0x47D JUMPI DUP3 SWAP1 SUB PUSH1 0x1F AND DUP3 ADD SWAP2 JUMPDEST POP POP POP POP POP SWAP5 POP DUP4 DUP1 SLOAD PUSH2 0x4AD SWAP1 PUSH2 0x2D1C JUMP JUMPDEST DUP1 PUSH1 0x1F ADD PUSH1 0x20 DUP1 SWAP2 DIV MUL PUSH1 0x20 ADD PUSH1 0x40 MLOAD SWAP1 DUP2 ADD PUSH1 0x40 MSTORE DUP1 SWAP3 SWAP2 SWAP1 DUP2 DUP2 MSTORE PUSH1 0x20 ADD DUP3 DUP1 SLOAD PUSH2 0x4D9 SWAP1 PUSH2 0x2D1C JUMP JUMPDEST DUP1 ISZERO PUSH2 0x526 JUMPI DUP1 PUSH1 0x1F LT PUSH2 0x4FB JUMPI PUSH2 0x100 DUP1 DUP4 SLOAD DIV MUL DUP4 MSTORE SWAP2 PUSH1 0x20 ADD SWAP2 PUSH2 0x526 JUMP JUMPDEST DUP3 ADD SWAP2 SWAP1 PUSH1 0x0 MSTORE PUSH1 0x20 PUSH1 0x0 KECCAK256 SWAP1 JUMPDEST DUP2 SLOAD DUP2 MSTORE SWAP1 PUSH1 0x1 ADD SWAP1 PUSH1 0x20 ADD DUP1 DUP4 GT PUSH2 0x509 JUMPI DUP3 SWAP1 SUB PUSH1 0x1F AND DUP3 ADD SWAP2 JUMPDEST POP POP POP POP POP SWAP4 POP SWAP6 POP SWAP6 POP SWAP6 POP SWAP6 POP SWAP6 POP POP SWAP2 SWAP4 SWAP6 SWAP1 SWAP3 SWAP5 POP JUMP JUMPDEST PUSH2 0x555 PUSH8 0x39B0FFA113586F57 PUSH1 0xC0 SHL PUSH2 0x24A4 JUMP JUMPDEST PUSH2 0x569 PUSH8 0x10E9C80E4F302078 PUSH1 0xC0 SHL PUSH2 0x24A4 JUMP JUMPDEST PUSH2 0x57D PUSH8 0x90204B32CCCD7766 PUSH1 0xC0 SHL PUSH2 0x24A4 JUMP JUMPDEST PUSH2 0x591 PUSH8 0x62805C7E524AC39D PUSH1 0xC0 SHL PUSH2 0x24A4 JUMP JUMPDEST PUSH1 0x2 SLOAD DUP2 LT PUSH2 0x5D5 JUMPI PUSH1 0x40 MLOAD PUSH32 0x8C379A000000000000000000000000000000000000000000000000000000000 DUP2 MSTORE PUSH1 0x4 ADD PUSH2 0x5CC SWAP1 PUSH2 0x2CCD JUMP JUMPDEST PUSH1 0x40 MLOAD DUP1 SWAP2 SUB SWAP1 REVERT JUMPDEST PUSH2 0x5E9 PUSH8 0x5F01D8C859159553 PUSH1 0xC0 SHL PUSH2 0x24A4 JUMP JUMPDEST PUSH2 0x5FD PUSH8 0x866F4D7D1A5180D9 PUSH1 0xC0 SHL PUSH2 0x24A4 JUMP JUMPDEST PUSH2 0x611 PUSH8 0xE8DE4C75E25F33E6 PUSH1 0xC0 SHL PUSH2 0x24A4 JUMP JUMPDEST PUSH2 0x625 PUSH8 0x2462859483C4C494 PUSH1 0xC0 SHL PUSH2 0x24A4 JUMP JUMPDEST PUSH1 0x0 DUP1 DUP3 DUP2 MSTORE PUSH1 0x20 ADD SWAP1 DUP2 MSTORE PUSH1 0x20 ADD PUSH1 0x0 KECCAK256 PUSH1 0x3 ADD PUSH1 0x0 SWAP1 SLOAD SWAP1 PUSH2 0x100 EXP SWAP1 DIV PUSH1 0xFF AND PUSH2 0x687 JUMPI PUSH1 0x40 MLOAD PUSH32 0x8C379A000000000000000000000000000000000000000000000000000000000 DUP2 MSTORE PUSH1 0x4 ADD PUSH2 0x67E SWAP1 PUSH2 0x2DBF JUMP JUMPDEST PUSH1 0x40 MLOAD DUP1 SWAP2 SUB SWAP1 REVERT JUMPDEST PUSH2 0x69B PUSH8 0x51783A9AF6942DC1 PUSH1 0xC0 SHL PUSH2 0x24A4 JUMP JUMPDEST PUSH2 0x6AF PUSH8 0x9F6933D52BA20FBB PUSH1 0xC0 SHL PUSH2 0x24A4 JUMP JUMPDEST PUSH2 0x6C3 PUSH8 0xA076949B0B750468 PUSH1 0xC0 SHL PUSH2 0x24A4 JUMP JUMPDEST PUSH2 0x6D7 PUSH8 0x5CA77DA6D7EF4158 PUSH1 0xC0 SHL PUSH2 0x24A4 JUMP JUMPDEST PUSH1 0x0 PUSH1 0x2 DUP2 GT ISZERO PUSH2 0x6EB JUMPI PUSH2 0x6EA PUSH2 0x2B32 JUMP JUMPDEST JUMPDEST PUSH1 0x1 PUSH1 0x0 CALLER PUSH20 0xFFFFFFFFFFFFFFFFFFFFFFFFFFFFFFFFFFFFFFFF AND PUSH20 0xFFFFFFFFFFFFFFFFFFFFFFFFFFFFFFFFFFFFFFFF AND DUP2 MSTORE PUSH1 0x20 ADD SWAP1 DUP2 MSTORE PUSH1 0x20 ADD PUSH1 0x0 KECCAK256 PUSH1 0x0 ADD PUSH1 0x14 SWAP1 SLOAD SWAP1 PUSH2 0x100 EXP SWAP1 DIV PUSH1 0xFF AND PUSH1 0x2 DUP2 GT ISZERO PUSH2 0x74D JUMPI PUSH2 0x74C PUSH2 0x2B32 JUMP JUMPDEST JUMPDEST EQ PUSH2 0x78D JUMPI PUSH1 0x40 MLOAD PUSH32 0x8C379A000000000000000000000000000000000000000000000000000000000 DUP2 MSTORE PUSH1 0x4 ADD PUSH2 0x784 SWAP1 PUSH2 0x2E51 JUMP JUMPDEST PUSH1 0x40 MLOAD DUP1 SWAP2 SUB SWAP1 REVERT JUMPDEST PUSH2 0x7A1 PUSH8 0xCD3C4D831E975545 PUSH1 0xC0 SHL PUSH2 0x24A4 JUMP JUMPDEST PUSH2 0x7B5 PUSH8 0x1276B6276B245771 PUSH1 0xC0 SHL PUSH2 0x24A4 JUMP JUMPDEST PUSH2 0x7C9 PUSH8 0xE3BDC6B86C2F0D6E PUSH1 0xC0 SHL PUSH2 0x24A4 JUMP JUMPDEST PUSH1 0x0 DUP1 PUSH1 0x0 DUP4 DUP2 MSTORE PUSH1 0x20 ADD SWAP1 DUP2 MSTORE PUSH1 0x20 ADD PUSH1 0x0 KECCAK256 SWAP1 POP PUSH2 0x7F3 PUSH8 0x9E729B70412C1EFA PUSH1 0xC0 SHL PUSH2 0x24A4 JUMP JUMPDEST PUSH2 0x807 PUSH8 0x6F8FF91AD6CCAE13 PUSH1 0xC0 SHL PUSH2 0x24A4 JUMP JUMPDEST PUSH1 0x0 JUMPDEST DUP2 PUSH1 0x5 ADD DUP1 SLOAD SWAP1 POP DUP2 LT ISZERO PUSH2 0x924 JUMPI PUSH2 0x82D PUSH8 0x62819CEAEF754CC7 PUSH1 0xC0 SHL PUSH2 0x24A4 JUMP JUMPDEST PUSH2 0x841 PUSH8 0x29B1987DB8E5A3CD PUSH1 0xC0 SHL PUSH2 0x24A4 JUMP JUMPDEST PUSH2 0x855 PUSH8 0xBFD329F16FED2D8 PUSH1 0xC0 SHL PUSH2 0x24A4 JUMP JUMPDEST CALLER PUSH20 0xFFFFFFFFFFFFFFFFFFFFFFFFFFFFFFFFFFFFFFFF AND DUP3 PUSH1 0x5 ADD DUP3 DUP2 SLOAD DUP2 LT PUSH2 0x882 JUMPI PUSH2 0x881 PUSH2 0x2E71 JUMP JUMPDEST JUMPDEST SWAP1 PUSH1 0x0 MSTORE PUSH1 0x20 PUSH1 0x0 KECCAK256 ADD PUSH1 0x0 SWAP1 SLOAD SWAP1 PUSH2 0x100 EXP SWAP1 DIV PUSH20 0xFFFFFFFFFFFFFFFFFFFFFFFFFFFFFFFFFFFFFFFF AND PUSH20 0xFFFFFFFFFFFFFFFFFFFFFFFFFFFFFFFFFFFFFFFF AND SUB PUSH2 0x903 JUMPI PUSH1 0x40 MLOAD PUSH32 0x8C379A000000000000000000000000000000000000000000000000000000000 DUP2 MSTORE PUSH1 0x4 ADD PUSH2 0x8FA SWAP1 PUSH2 0x2F12 JUMP JUMPDEST PUSH1 0x40 MLOAD DUP1 SWAP2 SUB SWAP1 REVERT JUMPDEST PUSH2 0x917 PUSH8 0xC8AF1C2A62FD5FD5 PUSH1 0xC0 SHL PUSH2 0x24A4 JUMP JUMPDEST DUP1 DUP1 PUSH1 0x1 ADD SWAP2 POP POP PUSH2 0x80A JUMP JUMPDEST POP PUSH2 0x939 PUSH8 0x5918C7FAF12BF65 PUSH1 0xC0 SHL PUSH2 0x24A4 JUMP JUMPDEST PUSH2 0x94D PUSH8 0x1BF08BD5D93CEAC4 PUSH1 0xC0 SHL PUSH2 0x24A4 JUMP JUMPDEST DUP1 PUSH1 0x5 ADD CALLER SWAP1 DUP1 PUSH1 0x1 DUP2 SLOAD ADD DUP1 DUP3 SSTORE DUP1 SWAP2 POP POP PUSH1 0x1 SWAP1 SUB SWAP1 PUSH1 0x0 MSTORE PUSH1 0x20 PUSH1 0x0 KECCAK256 ADD PUSH1 0x0 SWAP1 SWAP2 SWAP1 SWAP2 SWAP1 SWAP2 PUSH2 0x100 EXP DUP2 SLOAD DUP2 PUSH20 0xFFFFFFFFFFFFFFFFFFFFFFFFFFFFFFFFFFFFFFFF MUL NOT AND SWAP1 DUP4 PUSH20 0xFFFFFFFFFFFFFFFFFFFFFFFFFFFFFFFFFFFFFFFF AND MUL OR SWAP1 SSTORE POP PUSH2 0x9C6 PUSH8 0xF9933C064D044885 PUSH1 0xC0 SHL PUSH2 0x24A4 JUMP JUMPDEST PUSH2 0x9DA PUSH8 0x6F2C126EAB93F77 PUSH1 0xC0 SHL PUSH2 0x24A4 JUMP JUMPDEST PUSH32 0x5978A47CE47CDEB8A43A1794142DD16F2F94E95103BD104783A42725C7FE8CFF DUP3 CALLER PUSH1 0x40 MLOAD PUSH2 0xA0B SWAP3 SWAP2 SWAP1 PUSH2 0x2F32 JUMP JUMPDEST PUSH1 0x40 MLOAD DUP1 SWAP2 SUB SWAP1 LOG1 POP POP JUMP JUMPDEST PUSH2 0xA2B PUSH8 0x7AE6747BD1C9B5E8 PUSH1 0xC0 SHL PUSH2 0x24A4 JUMP JUMPDEST PUSH2 0xA3F PUSH8 0x3D82F283B19A7351 PUSH1 0xC0 SHL PUSH2 0x24A4 JUMP JUMPDEST PUSH2 0xA53 PUSH8 0xE490745050D0BCA9 PUSH1 0xC0 SHL PUSH2 0x24A4 JUMP JUMPDEST PUSH2 0xA67 PUSH8 0x49D79F0D5545EEF0 PUSH1 0xC0 SHL PUSH2 0x24A4 JUMP JUMPDEST PUSH1 0x2 SLOAD DUP5 LT PUSH2 0xAAB JUMPI PUSH1 0x40 MLOAD PUSH32 0x8C379A000000000000000000000000000000000000000000000000000000000 DUP2 MSTORE PUSH1 0x4 ADD PUSH2 0xAA2 SWAP1 PUSH2 0x2CCD JUMP JUMPDEST PUSH1 0x40 MLOAD DUP1 SWAP2 SUB SWAP1 REVERT JUMPDEST PUSH2 0xABF PUSH8 0xA0604D10F899B052 PUSH1 0xC0 SHL PUSH2 0x24A4 JUMP JUMPDEST PUSH2 0xAD3 PUSH8 0xEF2A0F0C620B08B5 PUSH1 0xC0 SHL PUSH2 0x24A4 JUMP JUMPDEST PUSH2 0xAE7 PUSH8 0xCF2059D946E614DA PUSH1 0xC0 SHL PUSH2 0x24A4 JUMP JUMPDEST PUSH2 0xAFB PUSH8 0x23A06B278B7256EF PUSH1 0xC0 SHL PUSH2 0x24A4 JUMP JUMPDEST PUSH1 0x0 DUP1 DUP6 DUP2 MSTORE PUSH1 0x20 ADD SWAP1 DUP2 MSTORE PUSH1 0x20 ADD PUSH1 0x0 KECCAK256 PUSH1 0x3 ADD PUSH1 0x0 SWAP1 SLOAD SWAP1 PUSH2 0x100 EXP SWAP1 DIV PUSH1 0xFF AND PUSH2 0xB5D JUMPI PUSH1 0x40 MLOAD PUSH32 0x8C379A000000000000000000000000000000000000000000000000000000000 DUP2 MSTORE PUSH1 0x4 ADD PUSH2 0xB54 SWAP1 PUSH2 0x2DBF JUMP JUMPDEST PUSH1 0x40 MLOAD DUP1 SWAP2 SUB SWAP1 REVERT JUMPDEST PUSH2 0xB71 PUSH8 0x85E5D7AD9EC1A7A5 PUSH1 0xC0 SHL PUSH2 0x24A4 JUMP JUMPDEST PUSH2 0xB85 PUSH8 0xB316A32E1B028D1E PUSH1 0xC0 SHL PUSH2 0x24A4 JUMP JUMPDEST PUSH2 0xB99 PUSH8 0x1C1F7A68359050F PUSH1 0xC0 SHL PUSH2 0x24A4 JUMP JUMPDEST PUSH2 0xBAD PUSH8 0x3EA2A50EFEE70409 PUSH1 0xC0 SHL PUSH2 0x24A4 JUMP JUMPDEST PUSH1 0x1 DUP4 PUSH1 0xFF AND LT ISZERO DUP1 ISZERO PUSH2 0xBC5 JUMPI POP PUSH1 0x7 DUP4 PUSH1 0xFF AND GT ISZERO JUMPDEST PUSH2 0xC04 JUMPI PUSH1 0x40 MLOAD PUSH32 0x8C379A000000000000000000000000000000000000000000000000000000000 DUP2 MSTORE PUSH1 0x4 ADD PUSH2 0xBFB SWAP1 PUSH2 0x2FA7 JUMP JUMPDEST PUSH1 0x40 MLOAD DUP1 SWAP2 SUB SWAP1 REVERT JUMPDEST PUSH2 0xC18 PUSH8 0xC10D5B130A687526 PUSH1 0xC0 SHL PUSH2 0x24A4 JUMP JUMPDEST PUSH2 0xC2C PUSH8 0x2BA33DC9610A7BA7 PUSH1 0xC0 SHL PUSH2 0x24A4 JUMP JUMPDEST PUSH2 0xC40 PUSH8 0xB218DB656501C9B5 PUSH1 0xC0 SHL PUSH2 0x24A4 JUMP JUMPDEST PUSH2 0xC54 PUSH8 0x43B2196D46E3D535 PUSH1 0xC0 SHL PUSH2 0x24A4 JUMP JUMPDEST PUSH1 0x18 DUP3 PUSH1 0xFF AND LT DUP1 ISZERO PUSH2 0xC6A JUMPI POP PUSH1 0x18 DUP2 PUSH1 0xFF AND LT JUMPDEST DUP1 ISZERO PUSH2 0xC7B JUMPI POP DUP1 PUSH1 0xFF AND DUP3 PUSH1 0xFF AND LT JUMPDEST PUSH2 0xCBA JUMPI PUSH1 0x40 MLOAD PUSH32 0x8C379A000000000000000000000000000000000000000000000000000000000 DUP2 MSTORE PUSH1 0x4 ADD PUSH2 0xCB1 SWAP1 PUSH2 0x3013 JUMP JUMPDEST PUSH1 0x40 MLOAD DUP1 SWAP2 SUB SWAP1 REVERT JUMPDEST PUSH2 0xCCE PUSH8 0x550BFAADA84C6F4C PUSH1 0xC0 SHL PUSH2 0x24A4 JUMP JUMPDEST PUSH2 0xCE2 PUSH8 0xEA622C3EA0FCC5AA PUSH1 0xC0 SHL PUSH2 0x24A4 JUMP JUMPDEST PUSH2 0xCF6 PUSH8 0x29A220CEAEFB54B1 PUSH1 0xC0 SHL PUSH2 0x24A4 JUMP JUMPDEST PUSH1 0x0 DUP1 PUSH1 0x0 DUP7 DUP2 MSTORE PUSH1 0x20 ADD SWAP1 DUP2 MSTORE PUSH1 0x20 ADD PUSH1 0x0 KECCAK256 SWAP1 POP PUSH2 0xD20 PUSH8 0x17A7679072FCEFB PUSH1 0xC0 SHL PUSH2 0x24A4 JUMP JUMPDEST PUSH2 0xD34 PUSH8 0xBEE8C48E05AB5485 PUSH1 0xC0 SHL PUSH2 0x24A4 JUMP JUMPDEST PUSH1 0x0 PUSH1 0x1 DUP3 PUSH1 0x4 ADD SLOAD PUSH2 0xD47 SWAP2 SWAP1 PUSH2 0x3062 JUMP JUMPDEST SWAP1 POP PUSH2 0xD5D PUSH8 0xD7B3D7C86655E1F5 PUSH1 0xC0 SHL PUSH2 0x24A4 JUMP JUMPDEST PUSH1 0x40 MLOAD DUP1 PUSH1 0x60 ADD PUSH1 0x40 MSTORE DUP1 DUP7 PUSH1 0xFF AND DUP2 MSTORE PUSH1 0x20 ADD DUP6 PUSH1 0xFF AND DUP2 MSTORE PUSH1 0x20 ADD DUP5 PUSH1 0xFF AND DUP2 MSTORE POP DUP3 PUSH1 0x6 ADD PUSH1 0x0 DUP4 DUP2 MSTORE PUSH1 0x20 ADD SWAP1 DUP2 MSTORE PUSH1 0x20 ADD PUSH1 0x0 KECCAK256 PUSH1 0x0 DUP3 ADD MLOAD DUP2 PUSH1 0x0 ADD PUSH1 0x0 PUSH2 0x100 EXP DUP2 SLOAD DUP2 PUSH1 0xFF MUL NOT AND SWAP1 DUP4 PUSH1 0xFF AND MUL OR SWAP1 SSTORE POP PUSH1 0x20 DUP3 ADD MLOAD DUP2 PUSH1 0x0 ADD PUSH1 0x1 PUSH2 0x100 EXP DUP2 SLOAD DUP2 PUSH1 0xFF MUL NOT AND SWAP1 DUP4 PUSH1 0xFF AND MUL OR SWAP1 SSTORE POP PUSH1 0x40 DUP3 ADD MLOAD DUP2 PUSH1 0x0 ADD PUSH1 0x2 PUSH2 0x100 EXP DUP2 SLOAD DUP2 PUSH1 0xFF MUL NOT AND SWAP1 DUP4 PUSH1 0xFF AND MUL OR SWAP1 SSTORE POP SWAP1 POP POP PUSH2 0xE10 PUSH8 0xEB1CF8FE819BCBCA PUSH1 0xC0 SHL PUSH2 0x24A4 JUMP JUMPDEST DUP1 DUP3 PUSH1 0x4 ADD DUP2 SWAP1 SSTORE POP PUSH2 0xE2D PUSH8 0x6DD96455537EA3FF PUSH1 0xC0 SHL PUSH2 0x24A4 JUMP JUMPDEST PUSH2 0xE41 PUSH8 0xED6F0775AF2A4FB9 PUSH1 0xC0 SHL PUSH2 0x24A4 JUMP JUMPDEST PUSH32 0x3FF69354BB51BEFB41CB392610BE115187B4AFCFED73D238A16F370C7F20491C DUP7 DUP7 DUP7 DUP7 PUSH1 0x40 MLOAD PUSH2 0xE76 SWAP5 SWAP4 SWAP3 SWAP2 SWAP1 PUSH2 0x3096 JUMP JUMPDEST PUSH1 0x40 MLOAD DUP1 SWAP2 SUB SWAP1 LOG1 POP POP POP POP POP POP JUMP JUMPDEST PUSH1 0x60 PUSH2 0xE9C PUSH8 0xDAD043E7110FCF5 PUSH1 0xC0 SHL PUSH2 0x24A4 JUMP JUMPDEST PUSH2 0xEB0 PUSH8 0xFB0CC7466544CB0A PUSH1 0xC0 SHL PUSH2 0x24A4 JUMP JUMPDEST PUSH2 0xEC4 PUSH8 0xCB04A7D236B7D1A8 PUSH1 0xC0 SHL PUSH2 0x24A4 JUMP JUMPDEST PUSH2 0xED8 PUSH8 0xD3D33CCFBBC4BE42 PUSH1 0xC0 SHL PUSH2 0x24A4 JUMP JUMPDEST PUSH1 0x1 PUSH1 0x0 CALLER PUSH20 0xFFFFFFFFFFFFFFFFFFFFFFFFFFFFFFFFFFFFFFFF AND PUSH20 0xFFFFFFFFFFFFFFFFFFFFFFFFFFFFFFFFFFFFFFFF AND DUP2 MSTORE PUSH1 0x20 ADD SWAP1 DUP2 MSTORE PUSH1 0x20 ADD PUSH1 0x0 KECCAK256 PUSH1 0x0 ADD PUSH1 0x15 SWAP1 SLOAD SWAP1 PUSH2 0x100 EXP SWAP1 DIV PUSH1 0xFF AND PUSH2 0xF67 JUMPI PUSH1 0x40 MLOAD PUSH32 0x8C379A000000000000000000000000000000000000000000000000000000000 DUP2 MSTORE PUSH1 0x4 ADD PUSH2 0xF5E SWAP1 PUSH2 0x3127 JUMP JUMPDEST PUSH1 0x40 MLOAD DUP1 SWAP2 SUB SWAP1 REVERT JUMPDEST PUSH2 0xF7B PUSH8 0xD03EBEF8257B677B PUSH1 0xC0 SHL PUSH2 0x24A4 JUMP JUMPDEST PUSH2 0xF8F PUSH8 0x5D912C3327B9EA1C PUSH1 0xC0 SHL PUSH2 0x24A4 JUMP JUMPDEST PUSH2 0xFA3 PUSH8 0xE4A11287C15C998A PUSH1 0xC0 SHL PUSH2 0x24A4 JUMP JUMPDEST PUSH2 0xFB7 PUSH8 0x27EB27F3EFD60893 PUSH1 0xC0 SHL PUSH2 0x24A4 JUMP JUMPDEST PUSH1 0x0 PUSH1 0x2 DUP2 GT ISZERO PUSH2 0xFCB JUMPI PUSH2 0xFCA PUSH2 0x2B32 JUMP JUMPDEST JUMPDEST PUSH1 0x1 PUSH1 0x0 CALLER PUSH20 0xFFFFFFFFFFFFFFFFFFFFFFFFFFFFFFFFFFFFFFFF AND PUSH20 0xFFFFFFFFFFFFFFFFFFFFFFFFFFFFFFFFFFFFFFFF AND DUP2 MSTORE PUSH1 0x20 ADD SWAP1 DUP2 MSTORE PUSH1 0x20 ADD PUSH1 0x0 KECCAK256 PUSH1 0x0 ADD PUSH1 0x14 SWAP1 SLOAD SWAP1 PUSH2 0x100 EXP SWAP1 DIV PUSH1 0xFF AND PUSH1 0x2 DUP2 GT ISZERO PUSH2 0x102D JUMPI PUSH2 0x102C PUSH2 0x2B32 JUMP JUMPDEST JUMPDEST EQ PUSH2 0x106D JUMPI PUSH1 0x40 MLOAD PUSH32 0x8C379A000000000000000000000000000000000000000000000000000000000 DUP2 MSTORE PUSH1 0x4 ADD PUSH2 0x1064 SWAP1 PUSH2 0x31B9 JUMP JUMPDEST PUSH1 0x40 MLOAD DUP1 SWAP2 SUB SWAP1 REVERT JUMPDEST PUSH2 0x1081 PUSH8 0xD0D85B1422CE0650 PUSH1 0xC0 SHL PUSH2 0x24A4 JUMP JUMPDEST PUSH2 0x1095 PUSH8 0x9CEBD3E8A3A4DD2A PUSH1 0xC0 SHL PUSH2 0x24A4 JUMP JUMPDEST PUSH2 0x10A9 PUSH8 0xBEBBE3772F9B6678 PUSH1 0xC0 SHL PUSH2 0x24A4 JUMP JUMPDEST PUSH1 0x0 PUSH1 0x2 SLOAD PUSH8 0xFFFFFFFFFFFFFFFF DUP2 GT ISZERO PUSH2 0x10C7 JUMPI PUSH2 0x10C6 PUSH2 0x27DE JUMP JUMPDEST JUMPDEST PUSH1 0x40 MLOAD SWAP1 DUP1 DUP3 MSTORE DUP1 PUSH1 0x20 MUL PUSH1 0x20 ADD DUP3 ADD PUSH1 0x40 MSTORE DUP1 ISZERO PUSH2 0x10F5 JUMPI DUP2 PUSH1 0x20 ADD PUSH1 0x20 DUP3 MUL DUP1 CALLDATASIZE DUP4 CALLDATACOPY DUP1 DUP3 ADD SWAP2 POP POP SWAP1 POP JUMPDEST POP SWAP1 POP PUSH2 0x110C PUSH8 0x2CC5221B809A01A1 PUSH1 0xC0 SHL PUSH2 0x24A4 JUMP JUMPDEST PUSH2 0x1120 PUSH8 0x414843E019CBF5EC PUSH1 0xC0 SHL PUSH2 0x24A4 JUMP JUMPDEST PUSH1 0x0 PUSH2 0x1136 PUSH8 0xD9722DFB8EE9C137 PUSH1 0xC0 SHL PUSH2 0x24A4 JUMP JUMPDEST PUSH2 0x114A PUSH8 0xBCFB2943EB962F01 PUSH1 0xC0 SHL PUSH2 0x24A4 JUMP JUMPDEST PUSH1 0x0 JUMPDEST PUSH1 0x2 SLOAD DUP2 LT ISZERO PUSH2 0x131D JUMPI PUSH2 0x116B PUSH8 0xE0BB9C436CFEF07F PUSH1 0xC0 SHL PUSH2 0x24A4 JUMP JUMPDEST PUSH2 0x117F PUSH8 0xF26026083FA69B3E PUSH1 0xC0 SHL PUSH2 0x24A4 JUMP JUMPDEST PUSH1 0x0 DUP1 PUSH1 0x0 DUP4 DUP2 MSTORE PUSH1 0x20 ADD SWAP1 DUP2 MSTORE PUSH1 0x20 ADD PUSH1 0x0 KECCAK256 SWAP1 POP PUSH2 0x11A9 PUSH8 0xBCD08B297182BD70 PUSH1 0xC0 SHL PUSH2 0x24A4 JUMP JUMPDEST PUSH2 0x11BD PUSH8 0xA7966C88BBA0A4A PUSH1 0xC0 SHL PUSH2 0x24A4 JUMP JUMPDEST PUSH1 0x0 JUMPDEST DUP2 PUSH1 0x5 ADD DUP1 SLOAD SWAP1 POP DUP2 LT ISZERO PUSH2 0x130E JUMPI PUSH2 0x11E3 PUSH8 0xC93B4EE31099E22B PUSH1 0xC0 SHL PUSH2 0x24A4 JUMP JUMPDEST PUSH2 0x11F7 PUSH8 0x4207685E52896DA0 PUSH1 0xC0 SHL PUSH2 0x24A4 JUMP JUMPDEST CALLER PUSH20 0xFFFFFFFFFFFFFFFFFFFFFFFFFFFFFFFFFFFFFFFF AND DUP3 PUSH1 0x5 ADD DUP3 DUP2 SLOAD DUP2 LT PUSH2 0x1224 JUMPI PUSH2 0x1223 PUSH2 0x2E71 JUMP JUMPDEST JUMPDEST SWAP1 PUSH1 0x0 MSTORE PUSH1 0x20 PUSH1 0x0 KECCAK256 ADD PUSH1 0x0 SWAP1 SLOAD SWAP1 PUSH2 0x100 EXP SWAP1 DIV PUSH20 0xFFFFFFFFFFFFFFFFFFFFFFFFFFFFFFFFFFFFFFFF AND PUSH20 0xFFFFFFFFFFFFFFFFFFFFFFFFFFFFFFFFFFFFFFFF AND SUB PUSH2 0x12ED JUMPI PUSH2 0x127E PUSH8 0xF20FBFF7CBDDE7D1 PUSH1 0xC0 SHL PUSH2 0x24A4 JUMP JUMPDEST PUSH2 0x1292 PUSH8 0x26C0F2DEB2B7E94F PUSH1 0xC0 SHL PUSH2 0x24A4 JUMP JUMPDEST DUP3 DUP6 DUP6 DUP2 MLOAD DUP2 LT PUSH2 0x12A6 JUMPI PUSH2 0x12A5 PUSH2 0x2E71 JUMP JUMPDEST JUMPDEST PUSH1 0x20 MUL PUSH1 0x20 ADD ADD DUP2 DUP2 MSTORE POP POP PUSH2 0x12C6 PUSH8 0x9780635DEDCE0187 PUSH1 0xC0 SHL PUSH2 0x24A4 JUMP JUMPDEST DUP4 DUP1 PUSH2 0x12D1 SWAP1 PUSH2 0x31D9 JUMP JUMPDEST SWAP5 POP POP PUSH2 0x12E8 PUSH8 0xF25ADE49FCD24E4E PUSH1 0xC0 SHL PUSH2 0x24A4 JUMP JUMPDEST PUSH2 0x130E JUMP JUMPDEST PUSH2 0x1301 PUSH8 0xE0627F6A2223D257 PUSH1 0xC0 SHL PUSH2 0x24A4 JUMP JUMPDEST DUP1 DUP1 PUSH1 0x1 ADD SWAP2 POP POP PUSH2 0x11C0 JUMP JUMPDEST POP POP DUP1 DUP1 PUSH1 0x1 ADD SWAP2 POP POP PUSH2 0x114D JUMP JUMPDEST POP PUSH2 0x1332 PUSH8 0xFAF936E080266699 PUSH1 0xC0 SHL PUSH2 0x24A4 JUMP JUMPDEST PUSH2 0x1346 PUSH8 0xC51014E2C72E11E6 PUSH1 0xC0 SHL PUSH2 0x24A4 JUMP JUMPDEST PUSH1 0x0 DUP2 PUSH8 0xFFFFFFFFFFFFFFFF DUP2 GT ISZERO PUSH2 0x1362 JUMPI PUSH2 0x1361 PUSH2 0x27DE JUMP JUMPDEST JUMPDEST PUSH1 0x40 MLOAD SWAP1 DUP1 DUP3 MSTORE DUP1 PUSH1 0x20 MUL PUSH1 0x20 ADD DUP3 ADD PUSH1 0x40 MSTORE DUP1 ISZERO PUSH2 0x1390 JUMPI DUP2 PUSH1 0x20 ADD PUSH1 0x20 DUP3 MUL DUP1 CALLDATASIZE DUP4 CALLDATACOPY DUP1 DUP3 ADD SWAP2 POP POP SWAP1 POP JUMPDEST POP SWAP1 POP PUSH2 0x13A7 PUSH8 0x469E264A8E21645C PUSH1 0xC0 SHL PUSH2 0x24A4 JUMP JUMPDEST PUSH2 0x13BB PUSH8 0xABFE7C6F3FD8A77E PUSH1 0xC0 SHL PUSH2 0x24A4 JUMP JUMPDEST PUSH1 0x0 JUMPDEST DUP3 DUP2 LT ISZERO PUSH2 0x1421 JUMPI PUSH2 0x13DA PUSH8 0x246AE8D749404AC7 PUSH1 0xC0 SHL PUSH2 0x24A4 JUMP JUMPDEST DUP4 DUP2 DUP2 MLOAD DUP2 LT PUSH2 0x13ED JUMPI PUSH2 0x13EC PUSH2 0x2E71 JUMP JUMPDEST JUMPDEST PUSH1 0x20 MUL PUSH1 0x20 ADD ADD MLOAD DUP3 DUP3 DUP2 MLOAD DUP2 LT PUSH2 0x1408 JUMPI PUSH2 0x1407 PUSH2 0x2E71 JUMP JUMPDEST JUMPDEST PUSH1 0x20 MUL PUSH1 0x20 ADD ADD DUP2 DUP2 MSTORE POP POP DUP1 DUP1 PUSH1 0x1 ADD SWAP2 POP POP PUSH2 0x13BE JUMP JUMPDEST POP PUSH2 0x1436 PUSH8 0x241432874B140FA2 PUSH1 0xC0 SHL PUSH2 0x24A4 JUMP JUMPDEST PUSH2 0x144A PUSH8 0x1ED9041D1DC76A62 PUSH1 0xC0 SHL PUSH2 0x24A4 JUMP JUMPDEST DUP1 SWAP4 POP POP POP POP SWAP1 JUMP JUMPDEST PUSH1 0x2 SLOAD DUP2 JUMP JUMPDEST PUSH2 0x146D PUSH8 0xEFA4200865812723 PUSH1 0xC0 SHL PUSH2 0x24A4 JUMP JUMPDEST PUSH2 0x1481 PUSH8 0x5FB32F58224448E1 PUSH1 0xC0 SHL PUSH2 0x24A4 JUMP JUMPDEST PUSH2 0x1495 PUSH8 0x9E4665C1C9D41155 PUSH1 0xC0 SHL PUSH2 0x24A4 JUMP JUMPDEST PUSH2 0x14A9 PUSH8 0x1B85A9D3AD6A26E8 PUSH1 0xC0 SHL PUSH2 0x24A4 JUMP JUMPDEST PUSH1 0x2 SLOAD DUP5 LT PUSH2 0x14ED JUMPI PUSH1 0x40 MLOAD PUSH32 0x8C379A000000000000000000000000000000000000000000000000000000000 DUP2 MSTORE PUSH1 0x4 ADD PUSH2 0x14E4 SWAP1 PUSH2 0x2CCD JUMP JUMPDEST PUSH1 0x40 MLOAD DUP1 SWAP2 SUB SWAP1 REVERT JUMPDEST PUSH2 0x1501 PUSH8 0x1615E6C23917CF24 PUSH1 0xC0 SHL PUSH2 0x24A4 JUMP JUMPDEST PUSH2 0x1515 PUSH8 0xCAD2BD8E060FA67B PUSH1 0xC0 SHL PUSH2 0x24A4 JUMP JUMPDEST PUSH2 0x1529 PUSH8 0x6A13BF3997A98B1C PUSH1 0xC0 SHL PUSH2 0x24A4 JUMP JUMPDEST PUSH2 0x153D PUSH8 0x55373551CBEDDFD0 PUSH1 0xC0 SHL PUSH2 0x24A4 JUMP JUMPDEST PUSH1 0x0 DUP1 DUP6 DUP2 MSTORE PUSH1 0x20 ADD SWAP1 DUP2 MSTORE PUSH1 0x20 ADD PUSH1 0x0 KECCAK256 PUSH1 0x3 ADD PUSH1 0x0 SWAP1 SLOAD SWAP1 PUSH2 0x100 EXP SWAP1 DIV PUSH1 0xFF AND PUSH2 0x159F JUMPI PUSH1 0x40 MLOAD PUSH32 0x8C379A000000000000000000000000000000000000000000000000000000000 DUP2 MSTORE PUSH1 0x4 ADD PUSH2 0x1596 SWAP1 PUSH2 0x2DBF JUMP JUMPDEST PUSH1 0x40 MLOAD DUP1 SWAP2 SUB SWAP1 REVERT JUMPDEST PUSH2 0x15B3 PUSH8 0x6D5A3CE307BBAE1B PUSH1 0xC0 SHL PUSH2 0x24A4 JUMP JUMPDEST PUSH2 0x15C7 PUSH8 0xF65CA3A9180C2EF8 PUSH1 0xC0 SHL PUSH2 0x24A4 JUMP JUMPDEST PUSH2 0x15DB PUSH8 0xD6761EB1694D1AE1 PUSH1 0xC0 SHL PUSH2 0x24A4 JUMP JUMPDEST PUSH1 0x0 DUP1 PUSH1 0x0 DUP7 DUP2 MSTORE PUSH1 0x20 ADD SWAP1 DUP2 MSTORE PUSH1 0x20 ADD PUSH1 0x0 KECCAK256 SWAP1 POP PUSH2 0x1605 PUSH8 0x6CAE4B343425FFEA PUSH1 0xC0 SHL PUSH2 0x24A4 JUMP JUMPDEST DUP4 DUP2 PUSH1 0x0 ADD SWAP1 DUP2 PUSH2 0x1616 SWAP2 SWAP1 PUSH2 0x33CD JUMP JUMPDEST POP PUSH2 0x162B PUSH8 0xBBD053E05FF771C2 PUSH1 0xC0 SHL PUSH2 0x24A4 JUMP JUMPDEST DUP3 DUP2 PUSH1 0x1 ADD SWAP1 DUP2 PUSH2 0x163C SWAP2 SWAP1 PUSH2 0x33CD JUMP JUMPDEST POP PUSH2 0x1651 PUSH8 0x7B4F18D59C7962FB PUSH1 0xC0 SHL PUSH2 0x24A4 JUMP JUMPDEST DUP2 DUP2 PUSH1 0x2 ADD DUP2 SWAP1 SSTORE POP PUSH2 0x166E PUSH8 0xD5E20A06DB62A45F PUSH1 0xC0 SHL PUSH2 0x24A4 JUMP JUMPDEST PUSH2 0x1682 PUSH8 0xA4845E4364AE8B48 PUSH1 0xC0 SHL PUSH2 0x24A4 JUMP JUMPDEST PUSH32 0x61F1B503285F2BAF5AE0EC7BE5C9605A293C9D47BDAF9BDB36FC15C570615FE6 DUP6 DUP6 PUSH1 0x40 MLOAD PUSH2 0x16B3 SWAP3 SWAP2 SWAP1 PUSH2 0x349F JUMP JUMPDEST PUSH1 0x40 MLOAD DUP1 SWAP2 SUB SWAP1 LOG1 POP POP POP POP POP JUMP JUMPDEST PUSH1 0x0 PUSH1 0x20 MSTORE DUP1 PUSH1 0x0 MSTORE PUSH1 0x40 PUSH1 0x0 KECCAK256 PUSH1 0x0 SWAP2 POP SWAP1 POP DUP1 PUSH1 0x0 ADD DUP1 SLOAD PUSH2 0x16E5 SWAP1 PUSH2 0x2D1C JUMP JUMPDEST DUP1 PUSH1 0x1F ADD PUSH1 0x20 DUP1 SWAP2 DIV MUL PUSH1 0x20 ADD PUSH1 0x40 MLOAD SWAP1 DUP2 ADD PUSH1 0x40 MSTORE DUP1 SWAP3 SWAP2 SWAP1 DUP2 DUP2 MSTORE PUSH1 0x20 ADD DUP3 DUP1 SLOAD PUSH2 0x1711 SWAP1 PUSH2 0x2D1C JUMP JUMPDEST DUP1 ISZERO PUSH2 0x175E JUMPI DUP1 PUSH1 0x1F LT PUSH2 0x1733 JUMPI PUSH2 0x100 DUP1 DUP4 SLOAD DIV MUL DUP4 MSTORE SWAP2 PUSH1 0x20 ADD SWAP2 PUSH2 0x175E JUMP JUMPDEST DUP3 ADD SWAP2 SWAP1 PUSH1 0x0 MSTORE PUSH1 0x20 PUSH1 0x0 KECCAK256 SWAP1 JUMPDEST DUP2 SLOAD DUP2 MSTORE SWAP1 PUSH1 0x1 ADD SWAP1 PUSH1 0x20 ADD DUP1 DUP4 GT PUSH2 0x1741 JUMPI DUP3 SWAP1 SUB PUSH1 0x1F AND DUP3 ADD SWAP2 JUMPDEST POP POP POP POP POP SWAP1 DUP1 PUSH1 0x1 ADD DUP1 SLOAD PUSH2 0x1773 SWAP1 PUSH2 0x2D1C JUMP JUMPDEST DUP1 PUSH1 0x1F ADD PUSH1 0x20 DUP1 SWAP2 DIV MUL PUSH1 0x20 ADD PUSH1 0x40 MLOAD SWAP1 DUP2 ADD PUSH1 0x40 MSTORE DUP1 SWAP3 SWAP2 SWAP1 DUP2 DUP2 MSTORE PUSH1 0x20 ADD DUP3 DUP1 SLOAD PUSH2 0x179F SWAP1 PUSH2 0x2D1C JUMP JUMPDEST DUP1 ISZERO PUSH2 0x17EC JUMPI DUP1 PUSH1 0x1F LT PUSH2 0x17C1 JUMPI PUSH2 0x100 DUP1 DUP4 SLOAD DIV MUL DUP4 MSTORE SWAP2 PUSH1 0x20 ADD SWAP2 PUSH2 0x17EC JUMP JUMPDEST DUP3 ADD SWAP2 SWAP1 PUSH1 0x0 MSTORE PUSH1 0x20 PUSH1 0x0 KECCAK256 SWAP1 JUMPDEST DUP2 SLOAD DUP2 MSTORE SWAP1 PUSH1 0x1 ADD SWAP1 PUSH1 0x20 ADD DUP1 DUP4 GT PUSH2 0x17CF JUMPI DUP3 SWAP1 SUB PUSH1 0x1F AND DUP3 ADD SWAP2 JUMPDEST POP POP POP POP POP SWAP1 DUP1 PUSH1 0x2 ADD SLOAD SWAP1 DUP1 PUSH1 0x3 ADD PUSH1 0x0 SWAP1 SLOAD SWAP1 PUSH2 0x100 EXP SWAP1 DIV PUSH1 0xFF AND SWAP1 DUP1 PUSH1 0x4 ADD SLOAD SWAP1 POP DUP6 JUMP JUMPDEST PUSH2 0x1829 PUSH8 0xFBE0B86A39A049D5 PUSH1 0xC0 SHL PUSH2 0x24A4 JUMP JUMPDEST PUSH2 0x183D PUSH8 0x10513AA207C43770 PUSH1 0xC0 SHL PUSH2 0x24A4 JUMP JUMPDEST PUSH2 0x1851 PUSH8 0xCE0F3B4FBD247761 PUSH1 0xC0 SHL PUSH2 0x24A4 JUMP JUMPDEST PUSH2 0x1865 PUSH8 0xFA12B017006519FF PUSH1 0xC0 SHL PUSH2 0x24A4 JUMP JUMPDEST PUSH1 0x2 SLOAD DUP2 LT PUSH2 0x18A9 JUMPI PUSH1 0x40 MLOAD PUSH32 0x8C379A000000000000000000000000000000000000000000000000000000000 DUP2 MSTORE PUSH1 0x4 ADD PUSH2 0x18A0 SWAP1 PUSH2 0x2CCD JUMP JUMPDEST PUSH1 0x40 MLOAD DUP1 SWAP2 SUB SWAP1 REVERT JUMPDEST PUSH2 0x18BD PUSH8 0x727950B62B216152 PUSH1 0xC0 SHL PUSH2 0x24A4 JUMP JUMPDEST PUSH2 0x18D1 PUSH8 0xBFBF86115256CCF5 PUSH1 0xC0 SHL PUSH2 0x24A4 JUMP JUMPDEST PUSH2 0x18E5 PUSH8 0x65E0290839D646F1 PUSH1 0xC0 SHL PUSH2 0x24A4 JUMP JUMPDEST PUSH2 0x18F9 PUSH8 0x9F771991C3AEF0F0 PUSH1 0xC0 SHL PUSH2 0x24A4 JUMP JUMPDEST PUSH1 0x0 DUP1 DUP3 DUP2 MSTORE PUSH1 0x20 ADD SWAP1 DUP2 MSTORE PUSH1 0x20 ADD PUSH1 0x0 KECCAK256 PUSH1 0x3 ADD PUSH1 0x0 SWAP1 SLOAD SWAP1 PUSH2 0x100 EXP SWAP1 DIV PUSH1 0xFF AND PUSH2 0x195B JUMPI PUSH1 0x40 MLOAD PUSH32 0x8C379A000000000000000000000000000000000000000000000000000000000 DUP2 MSTORE PUSH1 0x4 ADD PUSH2 0x1952 SWAP1 PUSH2 0x2DBF JUMP JUMPDEST PUSH1 0x40 MLOAD DUP1 SWAP2 SUB SWAP1 REVERT JUMPDEST PUSH2 0x196F PUSH8 0x4F2E29A43170EF9B PUSH1 0xC0 SHL PUSH2 0x24A4 JUMP JUMPDEST PUSH2 0x1983 PUSH8 0x5D3E28A49C8A8D0A PUSH1 0xC0 SHL PUSH2 0x24A4 JUMP JUMPDEST PUSH1 0x0 DUP1 PUSH1 0x0 DUP4 DUP2 MSTORE PUSH1 0x20 ADD SWAP1 DUP2 MSTORE PUSH1 0x20 ADD PUSH1 0x0 KECCAK256 PUSH1 0x3 ADD PUSH1 0x0 PUSH2 0x100 EXP DUP2 SLOAD DUP2 PUSH1 0xFF MUL NOT AND SWAP1 DUP4 ISZERO ISZERO MUL OR SWAP1 SSTORE POP PUSH2 0x19C5 PUSH8 0x8F77B762C337EDC4 PUSH1 0xC0 SHL PUSH2 0x24A4 JUMP JUMPDEST PUSH2 0x19D9 PUSH8 0xAA012EE553094AB9 PUSH1 0xC0 SHL PUSH2 0x24A4 JUMP JUMPDEST PUSH32 0x39EEDA956A5B638CCE21D44FEB4E3279509FBAF8FB7776431F55F57A0CD21537 DUP2 PUSH1 0x40 MLOAD PUSH2 0x1A08 SWAP2 SWAP1 PUSH2 0x27B9 JUMP JUMPDEST PUSH1 0x40 MLOAD DUP1 SWAP2 SUB SWAP1 LOG1 POP JUMP JUMPDEST PUSH2 0x1A27 PUSH8 0x8CFD343DB7F9F310 PUSH1 0xC0 SHL PUSH2 0x24A4 JUMP JUMPDEST PUSH2 0x1A3B PUSH8 0xE2DDCC1130163DA7 PUSH1 0xC0 SHL PUSH2 0x24A4 JUMP JUMPDEST PUSH2 0x1A4F PUSH8 0xD08475223611B573 PUSH1 0xC0 SHL PUSH2 0x24A4 JUMP JUMPDEST PUSH2 0x1A63 PUSH8 0xE4C5ED3F9819CF55 PUSH1 0xC0 SHL PUSH2 0x24A4 JUMP JUMPDEST PUSH1 0x1 PUSH1 0x0 DUP4 PUSH20 0xFFFFFFFFFFFFFFFFFFFFFFFFFFFFFFFFFFFFFFFF AND PUSH20 0xFFFFFFFFFFFFFFFFFFFFFFFFFFFFFFFFFFFFFFFF AND DUP2 MSTORE PUSH1 0x20 ADD SWAP1 DUP2 MSTORE PUSH1 0x20 ADD PUSH1 0x0 KECCAK256 PUSH1 0x0 ADD PUSH1 0x15 SWAP1 SLOAD SWAP1 PUSH2 0x100 EXP SWAP1 DIV PUSH1 0xFF AND ISZERO PUSH2 0x1AF3 JUMPI PUSH1 0x40 MLOAD PUSH32 0x8C379A000000000000000000000000000000000000000000000000000000000 DUP2 MSTORE PUSH1 0x4 ADD PUSH2 0x1AEA SWAP1 PUSH2 0x351B JUMP JUMPDEST PUSH1 0x40 MLOAD DUP1 SWAP2 SUB SWAP1 REVERT JUMPDEST PUSH2 0x1B07 PUSH8 0xC111F64EEFD5922A PUSH1 0xC0 SHL PUSH2 0x24A4 JUMP JUMPDEST PUSH2 0x1B1B PUSH8 0x5ABBA16195A16B88 PUSH1 0xC0 SHL PUSH2 0x24A4 JUMP JUMPDEST PUSH1 0x40 MLOAD DUP1 PUSH1 0x60 ADD PUSH1 0x40 MSTORE DUP1 DUP4 PUSH20 0xFFFFFFFFFFFFFFFFFFFFFFFFFFFFFFFFFFFFFFFF AND DUP2 MSTORE PUSH1 0x20 ADD DUP3 PUSH1 0x2 DUP2 GT ISZERO PUSH2 0x1B55 JUMPI PUSH2 0x1B54 PUSH2 0x2B32 JUMP JUMPDEST JUMPDEST DUP2 MSTORE PUSH1 0x20 ADD PUSH1 0x1 ISZERO ISZERO DUP2 MSTORE POP PUSH1 0x1 PUSH1 0x0 DUP5 PUSH20 0xFFFFFFFFFFFFFFFFFFFFFFFFFFFFFFFFFFFFFFFF AND PUSH20 0xFFFFFFFFFFFFFFFFFFFFFFFFFFFFFFFFFFFFFFFF AND DUP2 MSTORE PUSH1 0x20 ADD SWAP1 DUP2 MSTORE PUSH1 0x20 ADD PUSH1 0x0 KECCAK256 PUSH1 0x0 DUP3 ADD MLOAD DUP2 PUSH1 0x0 ADD PUSH1 0x0 PUSH2 0x100 EXP DUP2 SLOAD DUP2 PUSH20 0xFFFFFFFFFFFFFFFFFFFFFFFFFFFFFFFFFFFFFFFF MUL NOT AND SWAP1 DUP4 PUSH20 0xFFFFFFFFFFFFFFFFFFFFFFFFFFFFFFFFFFFFFFFF AND MUL OR SWAP1 SSTORE POP PUSH1 0x20 DUP3 ADD MLOAD DUP2 PUSH1 0x0 ADD PUSH1 0x14 PUSH2 0x100 EXP DUP2 SLOAD DUP2 PUSH1 0xFF MUL NOT AND SWAP1 DUP4 PUSH1 0x2 DUP2 GT ISZERO PUSH2 0x1C12 JUMPI PUSH2 0x1C11 PUSH2 0x2B32 JUMP JUMPDEST JUMPDEST MUL OR SWAP1 SSTORE POP PUSH1 0x40 DUP3 ADD MLOAD DUP2 PUSH1 0x0 ADD PUSH1 0x15 PUSH2 0x100 EXP DUP2 SLOAD DUP2 PUSH1 0xFF MUL NOT AND SWAP1 DUP4 ISZERO ISZERO MUL OR SWAP1 SSTORE POP SWAP1 POP POP PUSH2 0x1C4E PUSH8 0x918CFA8F16C3247E PUSH1 0xC0 SHL PUSH2 0x24A4 JUMP JUMPDEST PUSH2 0x1C62 PUSH8 0xDF9B372033C9A47C PUSH1 0xC0 SHL PUSH2 0x24A4 JUMP JUMPDEST PUSH32 0x8E18574F8A7333E6A87112742A55853A643E2F0550F4E1A3A2C3F1BB2994441D DUP3 DUP3 PUSH1 0x40 MLOAD PUSH2 0x1C93 SWAP3 SWAP2 SWAP1 PUSH2 0x353B JUMP JUMPDEST PUSH1 0x40 MLOAD DUP1 SWAP2 SUB SWAP1 LOG1 POP POP JUMP JUMPDEST PUSH2 0x1CB3 PUSH8 0x4B2A1D54151477B4 PUSH1 0xC0 SHL PUSH2 0x24A4 JUMP JUMPDEST PUSH2 0x1CC7 PUSH8 0x6645EFCFC21F684B PUSH1 0xC0 SHL PUSH2 0x24A4 JUMP JUMPDEST PUSH2 0x1CDB PUSH8 0xBC49AF777B3D779F PUSH1 0xC0 SHL PUSH2 0x24A4 JUMP JUMPDEST PUSH1 0x0 PUSH1 0x2 PUSH1 0x0 DUP2 SLOAD DUP1 SWAP3 SWAP2 SWAP1 PUSH2 0x1CF0 SWAP1 PUSH2 0x31D9 JUMP JUMPDEST SWAP2 SWAP1 POP SSTORE SWAP1 POP PUSH2 0x1D0A PUSH8 0xCA966D4F261220B0 PUSH1 0xC0 SHL PUSH2 0x24A4 JUMP JUMPDEST PUSH2 0x1D1E PUSH8 0xD5AAB07BD10DDE19 PUSH1 0xC0 SHL PUSH2 0x24A4 JUMP JUMPDEST PUSH1 0x0 DUP1 PUSH1 0x0 DUP4 DUP2 MSTORE PUSH1 0x20 ADD SWAP1 DUP2 MSTORE PUSH1 0x20 ADD PUSH1 0x0 KECCAK256 SWAP1 POP PUSH2 0x1D48 PUSH8 0x328384EBD74453D PUSH1 0xC0 SHL PUSH2 0x24A4 JUMP JUMPDEST DUP5 DUP2 PUSH1 0x0 ADD SWAP1 DUP2 PUSH2 0x1D59 SWAP2 SWAP1 PUSH2 0x33CD JUMP JUMPDEST POP PUSH2 0x1D6E PUSH8 0x935038318856FA96 PUSH1 0xC0 SHL PUSH2 0x24A4 JUMP JUMPDEST DUP4 DUP2 PUSH1 0x1 ADD SWAP1 DUP2 PUSH2 0x1D7F SWAP2 SWAP1 PUSH2 0x33CD JUMP JUMPDEST POP PUSH2 0x1D94 PUSH8 0xE3576FBECB7259ED PUSH1 0xC0 SHL PUSH2 0x24A4 JUMP JUMPDEST DUP3 DUP2 PUSH1 0x2 ADD DUP2 SWAP1 SSTORE POP PUSH2 0x1DB1 PUSH8 0x492A52ECC5BB2CDD PUSH1 0xC0 SHL PUSH2 0x24A4 JUMP JUMPDEST PUSH1 0x1 DUP2 PUSH1 0x3 ADD PUSH1 0x0 PUSH2 0x100 EXP DUP2 SLOAD DUP2 PUSH1 0xFF MUL NOT AND SWAP1 DUP4 ISZERO ISZERO MUL OR SWAP1 SSTORE POP PUSH2 0x1DE2 PUSH8 0x9F8AB1DEDC6BCB8F PUSH1 0xC0 SHL PUSH2 0x24A4 JUMP JUMPDEST PUSH1 0x0 DUP2 PUSH1 0x4 ADD DUP2 SWAP1 SSTORE POP PUSH2 0x1E00 PUSH8 0xCEE4E5B094EF9C0 PUSH1 0xC0 SHL PUSH2 0x24A4 JUMP JUMPDEST PUSH2 0x1E14 PUSH8 0x93435154D47110EE PUSH1 0xC0 SHL PUSH2 0x24A4 JUMP JUMPDEST PUSH32 0xC2C844C5F6C72FE99B99DE0942BA619E99957D3E8F7E614263ECFE40DE952E58 DUP3 DUP7 PUSH1 0x40 MLOAD PUSH2 0x1E45 SWAP3 SWAP2 SWAP1 PUSH2 0x349F JUMP JUMPDEST PUSH1 0x40 MLOAD DUP1 SWAP2 SUB SWAP1 LOG1 POP POP POP POP POP JUMP JUMPDEST PUSH1 0x1 PUSH1 0x20 MSTORE DUP1 PUSH1 0x0 MSTORE PUSH1 0x40 PUSH1 0x0 KECCAK256 PUSH1 0x0 SWAP2 POP SWAP1 POP DUP1 PUSH1 0x0 ADD PUSH1 0x0 SWAP1 SLOAD SWAP1 PUSH2 0x100 EXP SWAP1 DIV PUSH20 0xFFFFFFFFFFFFFFFFFFFFFFFFFFFFFFFFFFFFFFFF AND SWAP1 DUP1 PUSH1 0x0 ADD PUSH1 0x14 SWAP1 SLOAD SWAP1 PUSH2 0x100 EXP SWAP1 DIV PUSH1 0xFF AND SWAP1 DUP1 PUSH1 0x0 ADD PUSH1 0x15 SWAP1 SLOAD SWAP1 PUSH2 0x100 EXP SWAP1 DIV PUSH1 0xFF AND SWAP1 POP DUP4 JUMP JUMPDEST PUSH1 0x60 PUSH2 0x1ECE PUSH8 0xE791826A5A23A9E4 PUSH1 0xC0 SHL PUSH2 0x24A4 JUMP JUMPDEST PUSH2 0x1EE2 PUSH8 0x40210FDACA2934EB PUSH1 0xC0 SHL PUSH2 0x24A4 JUMP JUMPDEST PUSH2 0x1EF6 PUSH8 0xECC647D2615D65DA PUSH1 0xC0 SHL PUSH2 0x24A4 JUMP JUMPDEST PUSH1 0x0 PUSH1 0x2 SLOAD PUSH8 0xFFFFFFFFFFFFFFFF DUP2 GT ISZERO PUSH2 0x1F14 JUMPI PUSH2 0x1F13 PUSH2 0x27DE JUMP JUMPDEST JUMPDEST PUSH1 0x40 MLOAD SWAP1 DUP1 DUP3 MSTORE DUP1 PUSH1 0x20 MUL PUSH1 0x20 ADD DUP3 ADD PUSH1 0x40 MSTORE DUP1 ISZERO PUSH2 0x1F42 JUMPI DUP2 PUSH1 0x20 ADD PUSH1 0x20 DUP3 MUL DUP1 CALLDATASIZE DUP4 CALLDATACOPY DUP1 DUP3 ADD SWAP2 POP POP SWAP1 POP JUMPDEST POP SWAP1 POP PUSH2 0x1F59 PUSH8 0xFDE97E48A717B0D PUSH1 0xC0 SHL PUSH2 0x24A4 JUMP JUMPDEST PUSH2 0x1F6D PUSH8 0xE514F2A594547901 PUSH1 0xC0 SHL PUSH2 0x24A4 JUMP JUMPDEST PUSH1 0x0 PUSH2 0x1F83 PUSH8 0x6128A8AC189C559 PUSH1 0xC0 SHL PUSH2 0x24A4 JUMP JUMPDEST PUSH2 0x1F97 PUSH8 0xBAC9FFF63784E0A1 PUSH1 0xC0 SHL PUSH2 0x24A4 JUMP JUMPDEST PUSH1 0x0 JUMPDEST PUSH1 0x2 SLOAD DUP2 LT ISZERO PUSH2 0x2085 JUMPI PUSH2 0x1FB8 PUSH8 0xA3A17B43A70A4AE5 PUSH1 0xC0 SHL PUSH2 0x24A4 JUMP JUMPDEST PUSH2 0x1FCC PUSH8 0xA21E80BC7F071BBF PUSH1 0xC0 SHL PUSH2 0x24A4 JUMP JUMPDEST PUSH1 0x0 DUP1 DUP3 DUP2 MSTORE PUSH1 0x20 ADD SWAP1 DUP2 MSTORE PUSH1 0x20 ADD PUSH1 0x0 KECCAK256 PUSH1 0x3 ADD PUSH1 0x0 SWAP1 SLOAD SWAP1 PUSH2 0x100 EXP SWAP1 DIV PUSH1 0xFF AND ISZERO PUSH2 0x2063 JUMPI PUSH2 0x2008 PUSH8 0xAA60CB6A673FD3AF PUSH1 0xC0 SHL PUSH2 0x24A4 JUMP JUMPDEST PUSH2 0x201C PUSH8 0xAAF4E5DD1B02F40B PUSH1 0xC0 SHL PUSH2 0x24A4 JUMP JUMPDEST DUP1 DUP4 DUP4 DUP2 MLOAD DUP2 LT PUSH2 0x2030 JUMPI PUSH2 0x202F PUSH2 0x2E71 JUMP JUMPDEST JUMPDEST PUSH1 0x20 MUL PUSH1 0x20 ADD ADD DUP2 DUP2 MSTORE POP POP PUSH2 0x2050 PUSH8 0xA8326045F8A96BA7 PUSH1 0xC0 SHL PUSH2 0x24A4 JUMP JUMPDEST DUP2 DUP1 PUSH2 0x205B SWAP1 PUSH2 0x31D9 JUMP JUMPDEST SWAP3 POP POP PUSH2 0x2078 JUMP JUMPDEST PUSH2 0x2077 PUSH8 0x7DB4F457A6869A3E PUSH1 0xC0 SHL PUSH2 0x24A4 JUMP JUMPDEST JUMPDEST DUP1 DUP1 PUSH1 0x1 ADD SWAP2 POP POP PUSH2 0x1F9A JUMP JUMPDEST POP PUSH2 0x209A PUSH8 0x77C38C97EF336B08 PUSH1 0xC0 SHL PUSH2 0x24A4 JUMP JUMPDEST PUSH2 0x20AE PUSH8 0x484CBD0A4B591DFF PUSH1 0xC0 SHL PUSH2 0x24A4 JUMP JUMPDEST PUSH1 0x0 DUP2 PUSH8 0xFFFFFFFFFFFFFFFF DUP2 GT ISZERO PUSH2 0x20CA JUMPI PUSH2 0x20C9 PUSH2 0x27DE JUMP JUMPDEST JUMPDEST PUSH1 0x40 MLOAD SWAP1 DUP1 DUP3 MSTORE DUP1 PUSH1 0x20 MUL PUSH1 0x20 ADD DUP3 ADD PUSH1 0x40 MSTORE DUP1 ISZERO PUSH2 0x20F8 JUMPI DUP2 PUSH1 0x20 ADD PUSH1 0x20 DUP3 MUL DUP1 CALLDATASIZE DUP4 CALLDATACOPY DUP1 DUP3 ADD SWAP2 POP POP SWAP1 POP JUMPDEST POP SWAP1 POP PUSH2 0x210F PUSH8 0xC8BFDBA8F0CB99FA PUSH1 0xC0 SHL PUSH2 0x24A4 JUMP JUMPDEST PUSH2 0x2123 PUSH8 0x437D0BF82235306E PUSH1 0xC0 SHL PUSH2 0x24A4 JUMP JUMPDEST PUSH1 0x0 JUMPDEST DUP3 DUP2 LT ISZERO PUSH2 0x2189 JUMPI PUSH2 0x2142 PUSH8 0xCB8E4E53348C08F1 PUSH1 0xC0 SHL PUSH2 0x24A4 JUMP JUMPDEST DUP4 DUP2 DUP2 MLOAD DUP2 LT PUSH2 0x2155 JUMPI PUSH2 0x2154 PUSH2 0x2E71 JUMP JUMPDEST JUMPDEST PUSH1 0x20 MUL PUSH1 0x20 ADD ADD MLOAD DUP3 DUP3 DUP2 MLOAD DUP2 LT PUSH2 0x2170 JUMPI PUSH2 0x216F PUSH2 0x2E71 JUMP JUMPDEST JUMPDEST PUSH1 0x20 MUL PUSH1 0x20 ADD ADD DUP2 DUP2 MSTORE POP POP DUP1 DUP1 PUSH1 0x1 ADD SWAP2 POP POP PUSH2 0x2126 JUMP JUMPDEST POP PUSH2 0x219E PUSH8 0xAA9B19357554D9BB PUSH1 0xC0 SHL PUSH2 0x24A4 JUMP JUMPDEST PUSH2 0x21B1 PUSH7 0x39CA7B8B366DB3 PUSH1 0xC0 SHL PUSH2 0x24A4 JUMP JUMPDEST DUP1 SWAP4 POP POP POP POP SWAP1 JUMP JUMPDEST PUSH1 0x0 DUP1 PUSH1 0x0 PUSH2 0x21D3 PUSH8 0x46AE95BB242D27E0 PUSH1 0xC0 SHL PUSH2 0x24A4 JUMP JUMPDEST PUSH2 0x21E7 PUSH8 0xBD358223229E8FB8 PUSH1 0xC0 SHL PUSH2 0x24A4 JUMP JUMPDEST PUSH2 0x21FB PUSH8 0x440FB32CF1ABE2D6 PUSH1 0xC0 SHL PUSH2 0x24A4 JUMP JUMPDEST PUSH2 0x220F PUSH8 0x37470F2556BC5C79 PUSH1 0xC0 SHL PUSH2 0x24A4 JUMP JUMPDEST PUSH1 0x2 SLOAD DUP6 LT PUSH2 0x2253 JUMPI PUSH1 0x40 MLOAD PUSH32 0x8C379A000000000000000000000000000000000000000000000000000000000 DUP2 MSTORE PUSH1 0x4 ADD PUSH2 0x224A SWAP1 PUSH2 0x2CCD JUMP JUMPDEST PUSH1 0x40 MLOAD DUP1 SWAP2 SUB SWAP1 REVERT JUMPDEST PUSH2 0x2267 PUSH8 0xD27E475F0839936D PUSH1 0xC0 SHL PUSH2 0x24A4 JUMP JUMPDEST PUSH2 0x227B PUSH8 0xF22F86F69CE72B94 PUSH1 0xC0 SHL PUSH2 0x24A4 JUMP JUMPDEST PUSH2 0x228F PUSH8 0xD721F89C0A8AA479 PUSH1 0xC0 SHL PUSH2 0x24A4 JUMP JUMPDEST PUSH2 0x22A3 PUSH8 0xB924512D42E6C58 PUSH1 0xC0 SHL PUSH2 0x24A4 JUMP JUMPDEST PUSH1 0x0 DUP1 DUP7 DUP2 MSTORE PUSH1 0x20 ADD SWAP1 DUP2 MSTORE PUSH1 0x20 ADD PUSH1 0x0 KECCAK256 PUSH1 0x3 ADD PUSH1 0x0 SWAP1 SLOAD SWAP1 PUSH2 0x100 EXP SWAP1 DIV PUSH1 0xFF AND PUSH2 0x2305 JUMPI PUSH1 0x40 MLOAD PUSH32 0x8C379A000000000000000000000000000000000000000000000000000000000 DUP2 MSTORE PUSH1 0x4 ADD PUSH2 0x22FC SWAP1 PUSH2 0x2DBF JUMP JUMPDEST PUSH1 0x40 MLOAD DUP1 SWAP2 SUB SWAP1 REVERT JUMPDEST PUSH2 0x2319 PUSH8 0xE63200269761FD4 PUSH1 0xC0 SHL PUSH2 0x24A4 JUMP JUMPDEST PUSH2 0x232D PUSH8 0x2FE43DE37973CA6A PUSH1 0xC0 SHL PUSH2 0x24A4 JUMP JUMPDEST PUSH2 0x2340 PUSH7 0x5ED5B9B6AFA406 PUSH1 0xC0 SHL PUSH2 0x24A4 JUMP JUMPDEST PUSH2 0x2354 PUSH8 0xF80D9F229565B751 PUSH1 0xC0 SHL PUSH2 0x24A4 JUMP JUMPDEST PUSH1 0x0 DUP1 DUP7 DUP2 MSTORE PUSH1 0x20 ADD SWAP1 DUP2 MSTORE PUSH1 0x20 ADD PUSH1 0x0 KECCAK256 PUSH1 0x4 ADD SLOAD DUP5 GT ISZERO PUSH2 0x23AC JUMPI PUSH1 0x40 MLOAD PUSH32 0x8C379A000000000000000000000000000000000000000000000000000000000 DUP2 MSTORE PUSH1 0x4 ADD PUSH2 0x23A3 SWAP1 PUSH2 0x35B0 JUMP JUMPDEST PUSH1 0x40 MLOAD DUP1 SWAP2 SUB SWAP1 REVERT JUMPDEST PUSH2 0x23C0 PUSH8 0xE72C26862F3D9741 PUSH1 0xC0 SHL PUSH2 0x24A4 JUMP JUMPDEST PUSH2 0x23D4 PUSH8 0xE1C2283C53D05D65 PUSH1 0xC0 SHL PUSH2 0x24A4 JUMP JUMPDEST PUSH2 0x23E8 PUSH8 0x912F4E6C47D0C077 PUSH1 0xC0 SHL PUSH2 0x24A4 JUMP JUMPDEST PUSH1 0x0 DUP1 PUSH1 0x0 DUP8 DUP2 MSTORE PUSH1 0x20 ADD SWAP1 DUP2 MSTORE PUSH1 0x20 ADD PUSH1 0x0 KECCAK256 PUSH1 0x6 ADD PUSH1 0x0 DUP7 DUP2 MSTORE PUSH1 0x20 ADD SWAP1 DUP2 MSTORE PUSH1 0x20 ADD PUSH1 0x0 KECCAK256 SWAP1 POP PUSH2 0x2426 PUSH8 0xFB95B48DCF714638 PUSH1 0xC0 SHL PUSH2 0x24A4 JUMP JUMPDEST PUSH2 0x243A PUSH8 0x5FA890E0E2675A62 PUSH1 0xC0 SHL PUSH2 0x24A4 JUMP JUMPDEST DUP1 PUSH1 0x0 ADD PUSH1 0x0 SWAP1 SLOAD SWAP1 PUSH2 0x100 EXP SWAP1 DIV PUSH1 0xFF AND DUP2 PUSH1 0x0 ADD PUSH1 0x1 SWAP1 SLOAD SWAP1 PUSH2 0x100 EXP SWAP1 DIV PUSH1 0xFF AND DUP3 PUSH1 0x0 ADD PUSH1 0x2 SWAP1 SLOAD SWAP1 PUSH2 0x100 EXP SWAP1 DIV PUSH1 0xFF AND SWAP4 POP SWAP4 POP SWAP4 POP POP SWAP3 POP SWAP3 POP SWAP3 JUMP JUMPDEST PUSH1 0x3 PUSH1 0x0 SWAP1 SLOAD SWAP1 PUSH2 0x100 EXP SWAP1 DIV PUSH20 0xFFFFFFFFFFFFFFFFFFFFFFFFFFFFFFFFFFFFFFFF AND DUP2 JUMP JUMPDEST POP JUMP JUMPDEST PUSH1 0x0 PUSH1 0x40 MLOAD SWAP1 POP SWAP1 JUMP JUMPDEST PUSH1 0x0 DUP1 REVERT JUMPDEST PUSH1 0x0 DUP1 REVERT JUMPDEST PUSH1 0x0 DUP2 SWAP1 POP SWAP2 SWAP1 POP JUMP JUMPDEST PUSH2 0x24CE DUP2 PUSH2 0x24BB JUMP JUMPDEST DUP2 EQ PUSH2 0x24D9 JUMPI PUSH1 0x0 DUP1 REVERT JUMPDEST POP JUMP JUMPDEST PUSH1 0x0 DUP2 CALLDATALOAD SWAP1 POP PUSH2 0x24EB DUP2 PUSH2 0x24C5 JUMP JUMPDEST SWAP3 SWAP2 POP POP JUMP JUMPDEST PUSH1 0x0 PUSH1 0x20 DUP3 DUP5 SUB SLT ISZERO PUSH2 0x2507 JUMPI PUSH2 0x2506 PUSH2 0x24B1 JUMP JUMPDEST JUMPDEST PUSH1 0x0 PUSH2 0x2515 DUP5 DUP3 DUP6 ADD PUSH2 0x24DC JUMP JUMPDEST SWAP2 POP POP SWAP3 SWAP2 POP POP JUMP JUMPDEST PUSH1 0x0 DUP2 MLOAD SWAP1 POP SWAP2 SWAP1 POP JUMP JUMPDEST PUSH1 0x0 DUP3 DUP3 MSTORE PUSH1 0x20 DUP3 ADD SWAP1 POP SWAP3 SWAP2 POP POP JUMP JUMPDEST PUSH1 0x0 JUMPDEST DUP4 DUP2 LT ISZERO PUSH2 0x2558 JUMPI DUP1 DUP3 ADD MLOAD DUP2 DUP5 ADD MSTORE PUSH1 0x20 DUP2 ADD SWAP1 POP PUSH2 0x253D JUMP JUMPDEST PUSH1 0x0 DUP5 DUP5 ADD MSTORE POP POP POP POP JUMP JUMPDEST PUSH1 0x0 PUSH1 0x1F NOT PUSH1 0x1F DUP4 ADD AND SWAP1 POP SWAP2 SWAP1 POP JUMP JUMPDEST PUSH1 0x0 PUSH2 0x2580 DUP3 PUSH2 0x251E JUMP JUMPDEST PUSH2 0x258A DUP2 DUP6 PUSH2 0x2529 JUMP JUMPDEST SWAP4 POP PUSH2 0x259A DUP2 DUP6 PUSH1 0x20 DUP7 ADD PUSH2 0x253A JUMP JUMPDEST PUSH2 0x25A3 DUP2 PUSH2 0x2564 JUMP JUMPDEST DUP5 ADD SWAP2 POP POP SWAP3 SWAP2 POP POP JUMP JUMPDEST PUSH2 0x25B7 DUP2 PUSH2 0x24BB JUMP JUMPDEST DUP3 MSTORE POP POP JUMP JUMPDEST PUSH1 0x0 DUP2 ISZERO ISZERO SWAP1 POP SWAP2 SWAP1 POP JUMP JUMPDEST PUSH2 0x25D2 DUP2 PUSH2 0x25BD JUMP JUMPDEST DUP3 MSTORE POP POP JUMP JUMPDEST PUSH1 0x0 PUSH1 0xA0 DUP3 ADD SWAP1 POP DUP2 DUP2 SUB PUSH1 0x0 DUP4 ADD MSTORE PUSH2 0x25F2 DUP2 DUP9 PUSH2 0x2575 JUMP JUMPDEST SWAP1 POP DUP2 DUP2 SUB PUSH1 0x20 DUP4 ADD MSTORE PUSH2 0x2606 DUP2 DUP8 PUSH2 0x2575 JUMP JUMPDEST SWAP1 POP PUSH2 0x2615 PUSH1 0x40 DUP4 ADD DUP7 PUSH2 0x25AE JUMP JUMPDEST PUSH2 0x2622 PUSH1 0x60 DUP4 ADD DUP6 PUSH2 0x25C9 JUMP JUMPDEST PUSH2 0x262F PUSH1 0x80 DUP4 ADD DUP5 PUSH2 0x25AE JUMP JUMPDEST SWAP7 SWAP6 POP POP POP POP POP POP JUMP JUMPDEST PUSH1 0x0 PUSH1 0xFF DUP3 AND SWAP1 POP SWAP2 SWAP1 POP JUMP JUMPDEST PUSH2 0x264F DUP2 PUSH2 0x2639 JUMP JUMPDEST DUP2 EQ PUSH2 0x265A JUMPI PUSH1 0x0 DUP1 REVERT JUMPDEST POP JUMP JUMPDEST PUSH1 0x0 DUP2 CALLDATALOAD SWAP1 POP PUSH2 0x266C DUP2 PUSH2 0x2646 JUMP JUMPDEST SWAP3 SWAP2 POP POP JUMP JUMPDEST PUSH1 0x0 DUP1 PUSH1 0x0 DUP1 PUSH1 0x80 DUP6 DUP8 SUB SLT ISZERO PUSH2 0x268C JUMPI PUSH2 0x268B PUSH2 0x24B1 JUMP JUMPDEST JUMPDEST PUSH1 0x0 PUSH2 0x269A DUP8 DUP3 DUP9 ADD PUSH2 0x24DC JUMP JUMPDEST SWAP5 POP POP PUSH1 0x20 PUSH2 0x26AB DUP8 DUP3 DUP9 ADD PUSH2 0x265D JUMP JUMPDEST SWAP4 POP POP PUSH1 0x40 PUSH2 0x26BC DUP8 DUP3 DUP9 ADD PUSH2 0x265D JUMP JUMPDEST SWAP3 POP POP PUSH1 0x60 PUSH2 0x26CD DUP8 DUP3 DUP9 ADD PUSH2 0x265D JUMP JUMPDEST SWAP2 POP POP SWAP3 SWAP6 SWAP2 SWAP5 POP SWAP3 POP JUMP JUMPDEST PUSH1 0x0 DUP2 MLOAD SWAP1 POP SWAP2 SWAP1 POP JUMP JUMPDEST PUSH1 0x0 DUP3 DUP3 MSTORE PUSH1 0x20 DUP3 ADD SWAP1 POP SWAP3 SWAP2 POP POP JUMP JUMPDEST PUSH1 0x0 DUP2 SWAP1 POP PUSH1 0x20 DUP3 ADD SWAP1 POP SWAP2 SWAP1 POP JUMP JUMPDEST PUSH2 0x270E DUP2 PUSH2 0x24BB JUMP JUMPDEST DUP3 MSTORE POP POP JUMP JUMPDEST PUSH1 0x0 PUSH2 0x2720 DUP4 DUP4 PUSH2 0x2705 JUMP JUMPDEST PUSH1 0x20 DUP4 ADD SWAP1 POP SWAP3 SWAP2 POP POP JUMP JUMPDEST PUSH1 0x0 PUSH1 0x20 DUP3 ADD SWAP1 POP SWAP2 SWAP1 POP JUMP JUMPDEST PUSH1 0x0 PUSH2 0x2744 DUP3 PUSH2 0x26D9 JUMP JUMPDEST PUSH2 0x274E DUP2 DUP6 PUSH2 0x26E4 JUMP JUMPDEST SWAP4 POP PUSH2 0x2759 DUP4 PUSH2 0x26F5 JUMP JUMPDEST DUP1 PUSH1 0x0 JUMPDEST DUP4 DUP2 LT ISZERO PUSH2 0x278A JUMPI DUP2 MLOAD PUSH2 0x2771 DUP9 DUP3 PUSH2 0x2714 JUMP JUMPDEST SWAP8 POP PUSH2 0x277C DUP4 PUSH2 0x272C JUMP JUMPDEST SWAP3 POP POP PUSH1 0x1 DUP2 ADD SWAP1 POP PUSH2 0x275D JUMP JUMPDEST POP DUP6 SWAP4 POP POP POP POP SWAP3 SWAP2 POP POP JUMP JUMPDEST PUSH1 0x0 PUSH1 0x20 DUP3 ADD SWAP1 POP DUP2 DUP2 SUB PUSH1 0x0 DUP4 ADD MSTORE PUSH2 0x27B1 DUP2 DUP5 PUSH2 0x2739 JUMP JUMPDEST SWAP1 POP SWAP3 SWAP2 POP POP JUMP JUMPDEST PUSH1 0x0 PUSH1 0x20 DUP3 ADD SWAP1 POP PUSH2 0x27CE PUSH1 0x0 DUP4 ADD DUP5 PUSH2 0x25AE JUMP JUMPDEST SWAP3 SWAP2 POP POP JUMP JUMPDEST PUSH1 0x0 DUP1 REVERT JUMPDEST PUSH1 0x0 DUP1 REVERT JUMPDEST PUSH32 0x4E487B7100000000000000000000000000000000000000000000000000000000 PUSH1 0x0 MSTORE PUSH1 0x41 PUSH1 0x4 MSTORE PUSH1 0x24 PUSH1 0x0 REVERT JUMPDEST PUSH2 0x2816 DUP3 PUSH2 0x2564 JUMP JUMPDEST DUP2 ADD DUP2 DUP2 LT PUSH8 0xFFFFFFFFFFFFFFFF DUP3 GT OR ISZERO PUSH2 0x2835 JUMPI PUSH2 0x2834 PUSH2 0x27DE JUMP JUMPDEST JUMPDEST DUP1 PUSH1 0x40 MSTORE POP POP POP JUMP JUMPDEST PUSH1 0x0 PUSH2 0x2848 PUSH2 0x24A7 JUMP JUMPDEST SWAP1 POP PUSH2 0x2854 DUP3 DUP3 PUSH2 0x280D JUMP JUMPDEST SWAP2 SWAP1 POP JUMP JUMPDEST PUSH1 0x0 PUSH8 0xFFFFFFFFFFFFFFFF DUP3 GT ISZERO PUSH2 0x2874 JUMPI PUSH2 0x2873 PUSH2 0x27DE JUMP JUMPDEST JUMPDEST PUSH2 0x287D DUP3 PUSH2 0x2564 JUMP JUMPDEST SWAP1 POP PUSH1 0x20 DUP2 ADD SWAP1 POP SWAP2 SWAP1 POP JUMP JUMPDEST DUP3 DUP2 DUP4 CALLDATACOPY PUSH1 0x0 DUP4 DUP4 ADD MSTORE POP POP POP JUMP JUMPDEST PUSH1 0x0 PUSH2 0x28AC PUSH2 0x28A7 DUP5 PUSH2 0x2859 JUMP JUMPDEST PUSH2 0x283E JUMP JUMPDEST SWAP1 POP DUP3 DUP2 MSTORE PUSH1 0x20 DUP2 ADD DUP5 DUP5 DUP5 ADD GT ISZERO PUSH2 0x28C8 JUMPI PUSH2 0x28C7 PUSH2 0x27D9 JUMP JUMPDEST JUMPDEST PUSH2 0x28D3 DUP5 DUP3 DUP6 PUSH2 0x288A JUMP JUMPDEST POP SWAP4 SWAP3 POP POP POP JUMP JUMPDEST PUSH1 0x0 DUP3 PUSH1 0x1F DUP4 ADD SLT PUSH2 0x28F0 JUMPI PUSH2 0x28EF PUSH2 0x27D4 JUMP JUMPDEST JUMPDEST DUP2 CALLDATALOAD PUSH2 0x2900 DUP5 DUP3 PUSH1 0x20 DUP7 ADD PUSH2 0x2899 JUMP JUMPDEST SWAP2 POP POP SWAP3 SWAP2 POP POP JUMP JUMPDEST PUSH1 0x0 DUP1 PUSH1 0x0 DUP1 PUSH1 0x80 DUP6 DUP8 SUB SLT ISZERO PUSH2 0x2923 JUMPI PUSH2 0x2922 PUSH2 0x24B1 JUMP JUMPDEST JUMPDEST PUSH1 0x0 PUSH2 0x2931 DUP8 DUP3 DUP9 ADD PUSH2 0x24DC JUMP JUMPDEST SWAP5 POP POP PUSH1 0x20 DUP6 ADD CALLDATALOAD PUSH8 0xFFFFFFFFFFFFFFFF DUP2 GT ISZERO PUSH2 0x2952 JUMPI PUSH2 0x2951 PUSH2 0x24B6 JUMP JUMPDEST JUMPDEST PUSH2 0x295E DUP8 DUP3 DUP9 ADD PUSH2 0x28DB JUMP JUMPDEST SWAP4 POP POP PUSH1 0x40 DUP6 ADD CALLDATALOAD PUSH8 0xFFFFFFFFFFFFFFFF DUP2 GT ISZERO PUSH2 0x297F JUMPI PUSH2 0x297E PUSH2 0x24B6 JUMP JUMPDEST JUMPDEST PUSH2 0x298B DUP8 DUP3 DUP9 ADD PUSH2 0x28DB JUMP JUMPDEST SWAP3 POP POP PUSH1 0x60 PUSH2 0x299C DUP8 DUP3 DUP9 ADD PUSH2 0x24DC JUMP JUMPDEST SWAP2 POP POP SWAP3 SWAP6 SWAP2 SWAP5 POP SWAP3 POP JUMP JUMPDEST PUSH1 0x0 PUSH20 0xFFFFFFFFFFFFFFFFFFFFFFFFFFFFFFFFFFFFFFFF DUP3 AND SWAP1 POP SWAP2 SWAP1 POP JUMP JUMPDEST PUSH1 0x0 PUSH2 0x29D3 DUP3 PUSH2 0x29A8 JUMP JUMPDEST SWAP1 POP SWAP2 SWAP1 POP JUMP JUMPDEST PUSH2 0x29E3 DUP2 PUSH2 0x29C8 JUMP JUMPDEST DUP2 EQ PUSH2 0x29EE JUMPI PUSH1 0x0 DUP1 REVERT JUMPDEST POP JUMP JUMPDEST PUSH1 0x0 DUP2 CALLDATALOAD SWAP1 POP PUSH2 0x2A00 DUP2 PUSH2 0x29DA JUMP JUMPDEST SWAP3 SWAP2 POP POP JUMP JUMPDEST PUSH1 0x3 DUP2 LT PUSH2 0x2A13 JUMPI PUSH1 0x0 DUP1 REVERT JUMPDEST POP JUMP JUMPDEST PUSH1 0x0 DUP2 CALLDATALOAD SWAP1 POP PUSH2 0x2A25 DUP2 PUSH2 0x2A06 JUMP JUMPDEST SWAP3 SWAP2 POP POP JUMP JUMPDEST PUSH1 0x0 DUP1 PUSH1 0x40 DUP4 DUP6 SUB SLT ISZERO PUSH2 0x2A42 JUMPI PUSH2 0x2A41 PUSH2 0x24B1 JUMP JUMPDEST JUMPDEST PUSH1 0x0 PUSH2 0x2A50 DUP6 DUP3 DUP7 ADD PUSH2 0x29F1 JUMP JUMPDEST SWAP3 POP POP PUSH1 0x20 PUSH2 0x2A61 DUP6 DUP3 DUP7 ADD PUSH2 0x2A16 JUMP JUMPDEST SWAP2 POP POP SWAP3 POP SWAP3 SWAP1 POP JUMP JUMPDEST PUSH1 0x0 DUP1 PUSH1 0x0 PUSH1 0x60 DUP5 DUP7 SUB SLT ISZERO PUSH2 0x2A84 JUMPI PUSH2 0x2A83 PUSH2 0x24B1 JUMP JUMPDEST JUMPDEST PUSH1 0x0 DUP5 ADD CALLDATALOAD PUSH8 0xFFFFFFFFFFFFFFFF DUP2 GT ISZERO PUSH2 0x2AA2 JUMPI PUSH2 0x2AA1 PUSH2 0x24B6 JUMP JUMPDEST JUMPDEST PUSH2 0x2AAE DUP7 DUP3 DUP8 ADD PUSH2 0x28DB JUMP JUMPDEST SWAP4 POP POP PUSH1 0x20 DUP5 ADD CALLDATALOAD PUSH8 0xFFFFFFFFFFFFFFFF DUP2 GT ISZERO PUSH2 0x2ACF JUMPI PUSH2 0x2ACE PUSH2 0x24B6 JUMP JUMPDEST JUMPDEST PUSH2 0x2ADB DUP7 DUP3 DUP8 ADD PUSH2 0x28DB JUMP JUMPDEST SWAP3 POP POP PUSH1 0x40 PUSH2 0x2AEC DUP7 DUP3 DUP8 ADD PUSH2 0x24DC JUMP JUMPDEST SWAP2 POP POP SWAP3 POP SWAP3 POP SWAP3 JUMP JUMPDEST PUSH1 0x0 PUSH1 0x20 DUP3 DUP5 SUB SLT ISZERO PUSH2 0x2B0C JUMPI PUSH2 0x2B0B PUSH2 0x24B1 JUMP JUMPDEST JUMPDEST PUSH1 0x0 PUSH2 0x2B1A DUP5 DUP3 DUP6 ADD PUSH2 0x29F1 JUMP JUMPDEST SWAP2 POP POP SWAP3 SWAP2 POP POP JUMP JUMPDEST PUSH2 0x2B2C DUP2 PUSH2 0x29C8 JUMP JUMPDEST DUP3 MSTORE POP POP JUMP JUMPDEST PUSH32 0x4E487B7100000000000000000000000000000000000000000000000000000000 PUSH1 0x0 MSTORE PUSH1 0x21 PUSH1 0x4 MSTORE PUSH1 0x24 PUSH1 0x0 REVERT JUMPDEST PUSH1 0x3 DUP2 LT PUSH2 0x2B72 JUMPI PUSH2 0x2B71 PUSH2 0x2B32 JUMP JUMPDEST JUMPDEST POP JUMP JUMPDEST PUSH1 0x0 DUP2 SWAP1 POP PUSH2 0x2B83 DUP3 PUSH2 0x2B61 JUMP JUMPDEST SWAP2 SWAP1 POP JUMP JUMPDEST PUSH1 0x0 PUSH2 0x2B93 DUP3 PUSH2 0x2B75 JUMP JUMPDEST SWAP1 POP SWAP2 SWAP1 POP JUMP JUMPDEST PUSH2 0x2BA3 DUP2 PUSH2 0x2B88 JUMP JUMPDEST DUP3 MSTORE POP POP JUMP JUMPDEST PUSH1 0x0 PUSH1 0x60 DUP3 ADD SWAP1 POP PUSH2 0x2BBE PUSH1 0x0 DUP4 ADD DUP7 PUSH2 0x2B23 JUMP JUMPDEST PUSH2 0x2BCB PUSH1 0x20 DUP4 ADD DUP6 PUSH2 0x2B9A JUMP JUMPDEST PUSH2 0x2BD8 PUSH1 0x40 DUP4 ADD DUP5 PUSH2 0x25C9 JUMP JUMPDEST SWAP5 SWAP4 POP POP POP POP JUMP JUMPDEST PUSH1 0x0 DUP1 PUSH1 0x40 DUP4 DUP6 SUB SLT ISZERO PUSH2 0x2BF7 JUMPI PUSH2 0x2BF6 PUSH2 0x24B1 JUMP JUMPDEST JUMPDEST PUSH1 0x0 PUSH2 0x2C05 DUP6 DUP3 DUP7 ADD PUSH2 0x24DC JUMP JUMPDEST SWAP3 POP POP PUSH1 0x20 PUSH2 0x2C16 DUP6 DUP3 DUP7 ADD PUSH2 0x24DC JUMP JUMPDEST SWAP2 POP POP SWAP3 POP SWAP3 SWAP1 POP JUMP JUMPDEST PUSH2 0x2C29 DUP2 PUSH2 0x2639 JUMP JUMPDEST DUP3 MSTORE POP POP JUMP JUMPDEST PUSH1 0x0 PUSH1 0x60 DUP3 ADD SWAP1 POP PUSH2 0x2C44 PUSH1 0x0 DUP4 ADD DUP7 PUSH2 0x2C20 JUMP JUMPDEST PUSH2 0x2C51 PUSH1 0x20 DUP4 ADD DUP6 PUSH2 0x2C20 JUMP JUMPDEST PUSH2 0x2C5E PUSH1 0x40 DUP4 ADD DUP5 PUSH2 0x2C20 JUMP JUMPDEST SWAP5 SWAP4 POP POP POP POP JUMP JUMPDEST PUSH1 0x0 PUSH1 0x20 DUP3 ADD SWAP1 POP PUSH2 0x2C7B PUSH1 0x0 DUP4 ADD DUP5 PUSH2 0x2B23 JUMP JUMPDEST SWAP3 SWAP2 POP POP JUMP JUMPDEST PUSH32 0x496E76616C696420636F75727365204944000000000000000000000000000000 PUSH1 0x0 DUP3 ADD MSTORE POP JUMP JUMPDEST PUSH1 0x0 PUSH2 0x2CB7 PUSH1 0x11 DUP4 PUSH2 0x2529 JUMP JUMPDEST SWAP2 POP PUSH2 0x2CC2 DUP3 PUSH2 0x2C81 JUMP JUMPDEST PUSH1 0x20 DUP3 ADD SWAP1 POP SWAP2 SWAP1 POP JUMP JUMPDEST PUSH1 0x0 PUSH1 0x20 DUP3 ADD SWAP1 POP DUP2 DUP2 SUB PUSH1 0x0 DUP4 ADD MSTORE PUSH2 0x2CE6 DUP2 PUSH2 0x2CAA JUMP JUMPDEST SWAP1 POP SWAP2 SWAP1 POP JUMP JUMPDEST PUSH32 0x4E487B7100000000000000000000000000000000000000000000000000000000 PUSH1 0x0 MSTORE PUSH1 0x22 PUSH1 0x4 MSTORE PUSH1 0x24 PUSH1 0x0 REVERT JUMPDEST PUSH1 0x0 PUSH1 0x2 DUP3 DIV SWAP1 POP PUSH1 0x1 DUP3 AND DUP1 PUSH2 0x2D34 JUMPI PUSH1 0x7F DUP3 AND SWAP2 POP JUMPDEST PUSH1 0x20 DUP3 LT DUP2 SUB PUSH2 0x2D47 JUMPI PUSH2 0x2D46 PUSH2 0x2CED JUMP JUMPDEST JUMPDEST POP SWAP2 SWAP1 POP JUMP JUMPDEST PUSH32 0x436F7572736520646F6573206E6F74206578697374206F722068617320626565 PUSH1 0x0 DUP3 ADD MSTORE PUSH32 0x6E2064656C657465640000000000000000000000000000000000000000000000 PUSH1 0x20 DUP3 ADD MSTORE POP JUMP JUMPDEST PUSH1 0x0 PUSH2 0x2DA9 PUSH1 0x29 DUP4 PUSH2 0x2529 JUMP JUMPDEST SWAP2 POP PUSH2 0x2DB4 DUP3 PUSH2 0x2D4D JUMP JUMPDEST PUSH1 0x40 DUP3 ADD SWAP1 POP SWAP2 SWAP1 POP JUMP JUMPDEST PUSH1 0x0 PUSH1 0x20 DUP3 ADD SWAP1 POP DUP2 DUP2 SUB PUSH1 0x0 DUP4 ADD MSTORE PUSH2 0x2DD8 DUP2 PUSH2 0x2D9C JUMP JUMPDEST SWAP1 POP SWAP2 SWAP1 POP JUMP JUMPDEST PUSH32 0x4F6E6C792073747564656E74732063616E20726567697374657220696E20636F PUSH1 0x0 DUP3 ADD MSTORE PUSH32 0x7572736573000000000000000000000000000000000000000000000000000000 PUSH1 0x20 DUP3 ADD MSTORE POP JUMP JUMPDEST PUSH1 0x0 PUSH2 0x2E3B PUSH1 0x25 DUP4 PUSH2 0x2529 JUMP JUMPDEST SWAP2 POP PUSH2 0x2E46 DUP3 PUSH2 0x2DDF JUMP JUMPDEST PUSH1 0x40 DUP3 ADD SWAP1 POP SWAP2 SWAP1 POP JUMP JUMPDEST PUSH1 0x0 PUSH1 0x20 DUP3 ADD SWAP1 POP DUP2 DUP2 SUB PUSH1 0x0 DUP4 ADD MSTORE PUSH2 0x2E6A DUP2 PUSH2 0x2E2E JUMP JUMPDEST SWAP1 POP SWAP2 SWAP1 POP JUMP JUMPDEST PUSH32 0x4E487B7100000000000000000000000000000000000000000000000000000000 PUSH1 0x0 MSTORE PUSH1 0x32 PUSH1 0x4 MSTORE PUSH1 0x24 PUSH1 0x0 REVERT JUMPDEST PUSH32 0x53747564656E7420616C7265616479207265676973746572656420696E207468 PUSH1 0x0 DUP3 ADD MSTORE PUSH32 0x6520636F75727365000000000000000000000000000000000000000000000000 PUSH1 0x20 DUP3 ADD MSTORE POP JUMP JUMPDEST PUSH1 0x0 PUSH2 0x2EFC PUSH1 0x28 DUP4 PUSH2 0x2529 JUMP JUMPDEST SWAP2 POP PUSH2 0x2F07 DUP3 PUSH2 0x2EA0 JUMP JUMPDEST PUSH1 0x40 DUP3 ADD SWAP1 POP SWAP2 SWAP1 POP JUMP JUMPDEST PUSH1 0x0 PUSH1 0x20 DUP3 ADD SWAP1 POP DUP2 DUP2 SUB PUSH1 0x0 DUP4 ADD MSTORE PUSH2 0x2F2B DUP2 PUSH2 0x2EEF JUMP JUMPDEST SWAP1 POP SWAP2 SWAP1 POP JUMP JUMPDEST PUSH1 0x0 PUSH1 0x40 DUP3 ADD SWAP1 POP PUSH2 0x2F47 PUSH1 0x0 DUP4 ADD DUP6 PUSH2 0x25AE JUMP JUMPDEST PUSH2 0x2F54 PUSH1 0x20 DUP4 ADD DUP5 PUSH2 0x2B23 JUMP JUMPDEST SWAP4 SWAP3 POP POP POP JUMP JUMPDEST PUSH32 0x496E76616C696420646179000000000000000000000000000000000000000000 PUSH1 0x0 DUP3 ADD MSTORE POP JUMP JUMPDEST PUSH1 0x0 PUSH2 0x2F91 PUSH1 0xB DUP4 PUSH2 0x2529 JUMP JUMPDEST SWAP2 POP PUSH2 0x2F9C DUP3 PUSH2 0x2F5B JUMP JUMPDEST PUSH1 0x20 DUP3 ADD SWAP1 POP SWAP2 SWAP1 POP JUMP JUMPDEST PUSH1 0x0 PUSH1 0x20 DUP3 ADD SWAP1 POP DUP2 DUP2 SUB PUSH1 0x0 DUP4 ADD MSTORE PUSH2 0x2FC0 DUP2 PUSH2 0x2F84 JUMP JUMPDEST SWAP1 POP SWAP2 SWAP1 POP JUMP JUMPDEST PUSH32 0x496E76616C6964207363686564756C6500000000000000000000000000000000 PUSH1 0x0 DUP3 ADD MSTORE POP JUMP JUMPDEST PUSH1 0x0 PUSH2 0x2FFD PUSH1 0x10 DUP4 PUSH2 0x2529 JUMP JUMPDEST SWAP2 POP PUSH2 0x3008 DUP3 PUSH2 0x2FC7 JUMP JUMPDEST PUSH1 0x20 DUP3 ADD SWAP1 POP SWAP2 SWAP1 POP JUMP JUMPDEST PUSH1 0x0 PUSH1 0x20 DUP3 ADD SWAP1 POP DUP2 DUP2 SUB PUSH1 0x0 DUP4 ADD MSTORE PUSH2 0x302C DUP2 PUSH2 0x2FF0 JUMP JUMPDEST SWAP1 POP SWAP2 SWAP1 POP JUMP JUMPDEST PUSH32 0x4E487B7100000000000000000000000000000000000000000000000000000000 PUSH1 0x0 MSTORE PUSH1 0x11 PUSH1 0x4 MSTORE PUSH1 0x24 PUSH1 0x0 REVERT JUMPDEST PUSH1 0x0 PUSH2 0x306D DUP3 PUSH2 0x24BB JUMP JUMPDEST SWAP2 POP PUSH2 0x3078 DUP4 PUSH2 0x24BB JUMP JUMPDEST SWAP3 POP DUP3 DUP3 ADD SWAP1 POP DUP1 DUP3 GT ISZERO PUSH2 0x3090 JUMPI PUSH2 0x308F PUSH2 0x3033 JUMP JUMPDEST JUMPDEST SWAP3 SWAP2 POP POP JUMP JUMPDEST PUSH1 0x0 PUSH1 0x80 DUP3 ADD SWAP1 POP PUSH2 0x30AB PUSH1 0x0 DUP4 ADD DUP8 PUSH2 0x25AE JUMP JUMPDEST PUSH2 0x30B8 PUSH1 0x20 DUP4 ADD DUP7 PUSH2 0x2C20 JUMP JUMPDEST PUSH2 0x30C5 PUSH1 0x40 DUP4 ADD DUP6 PUSH2 0x2C20 JUMP JUMPDEST PUSH2 0x30D2 PUSH1 0x60 DUP4 ADD DUP5 PUSH2 0x2C20 JUMP JUMPDEST SWAP6 SWAP5 POP POP POP POP POP JUMP JUMPDEST PUSH32 0x55736572206E6F74207265676973746572656400000000000000000000000000 PUSH1 0x0 DUP3 ADD MSTORE POP JUMP JUMPDEST PUSH1 0x0 PUSH2 0x3111 PUSH1 0x13 DUP4 PUSH2 0x2529 JUMP JUMPDEST SWAP2 POP PUSH2 0x311C DUP3 PUSH2 0x30DB JUMP JUMPDEST PUSH1 0x20 DUP3 ADD SWAP1 POP SWAP2 SWAP1 POP JUMP JUMPDEST PUSH1 0x0 PUSH1 0x20 DUP3 ADD SWAP1 POP DUP2 DUP2 SUB PUSH1 0x0 DUP4 ADD MSTORE PUSH2 0x3140 DUP2 PUSH2 0x3104 JUMP JUMPDEST SWAP1 POP SWAP2 SWAP1 POP JUMP JUMPDEST PUSH32 0x4F6E6C792073747564656E74732063616E206861766520656E726F6C6C656420 PUSH1 0x0 DUP3 ADD MSTORE PUSH32 0x636F757273657300000000000000000000000000000000000000000000000000 PUSH1 0x20 DUP3 ADD MSTORE POP JUMP JUMPDEST PUSH1 0x0 PUSH2 0x31A3 PUSH1 0x27 DUP4 PUSH2 0x2529 JUMP JUMPDEST SWAP2 POP PUSH2 0x31AE DUP3 PUSH2 0x3147 JUMP JUMPDEST PUSH1 0x40 DUP3 ADD SWAP1 POP SWAP2 SWAP1 POP JUMP JUMPDEST PUSH1 0x0 PUSH1 0x20 DUP3 ADD SWAP1 POP DUP2 DUP2 SUB PUSH1 0x0 DUP4 ADD MSTORE PUSH2 0x31D2 DUP2 PUSH2 0x3196 JUMP JUMPDEST SWAP1 POP SWAP2 SWAP1 POP JUMP JUMPDEST PUSH1 0x0 PUSH2 0x31E4 DUP3 PUSH2 0x24BB JUMP JUMPDEST SWAP2 POP PUSH32 0xFFFFFFFFFFFFFFFFFFFFFFFFFFFFFFFFFFFFFFFFFFFFFFFFFFFFFFFFFFFFFFFF DUP3 SUB PUSH2 0x3216 JUMPI PUSH2 0x3215 PUSH2 0x3033 JUMP JUMPDEST JUMPDEST PUSH1 0x1 DUP3 ADD SWAP1 POP SWAP2 SWAP1 POP JUMP JUMPDEST PUSH1 0x0 DUP2 SWAP1 POP DUP2 PUSH1 0x0 MSTORE PUSH1 0x20 PUSH1 0x0 KECCAK256 SWAP1 POP SWAP2 SWAP1 POP JUMP JUMPDEST PUSH1 0x0 PUSH1 0x20 PUSH1 0x1F DUP4 ADD DIV SWAP1 POP SWAP2 SWAP1 POP JUMP JUMPDEST PUSH1 0x0 DUP3 DUP3 SHL SWAP1 POP SWAP3 SWAP2 POP POP JUMP JUMPDEST PUSH1 0x0 PUSH1 0x8 DUP4 MUL PUSH2 0x3283 PUSH32 0xFFFFFFFFFFFFFFFFFFFFFFFFFFFFFFFFFFFFFFFFFFFFFFFFFFFFFFFFFFFFFFFF DUP3 PUSH2 0x3246 JUMP JUMPDEST PUSH2 0x328D DUP7 DUP4 PUSH2 0x3246 JUMP JUMPDEST SWAP6 POP DUP1 NOT DUP5 AND SWAP4 POP DUP1 DUP7 AND DUP5 OR SWAP3 POP POP POP SWAP4 SWAP3 POP POP POP JUMP JUMPDEST PUSH1 0x0 DUP2 SWAP1 POP SWAP2 SWAP1 POP JUMP JUMPDEST PUSH1 0x0 PUSH2 0x32CA PUSH2 0x32C5 PUSH2 0x32C0 DUP5 PUSH2 0x24BB JUMP JUMPDEST PUSH2 0x32A5 JUMP JUMPDEST PUSH2 0x24BB JUMP JUMPDEST SWAP1 POP SWAP2 SWAP1 POP JUMP JUMPDEST PUSH1 0x0 DUP2 SWAP1 POP SWAP2 SWAP1 POP JUMP JUMPDEST PUSH2 0x32E4 DUP4 PUSH2 0x32AF JUMP JUMPDEST PUSH2 0x32F8 PUSH2 0x32F0 DUP3 PUSH2 0x32D1 JUMP JUMPDEST DUP5 DUP5 SLOAD PUSH2 0x3253 JUMP JUMPDEST DUP3 SSTORE POP POP POP POP JUMP JUMPDEST PUSH1 0x0 SWAP1 JUMP JUMPDEST PUSH2 0x330D PUSH2 0x3300 JUMP JUMPDEST PUSH2 0x3318 DUP2 DUP5 DUP5 PUSH2 0x32DB JUMP JUMPDEST POP POP POP JUMP JUMPDEST JUMPDEST DUP2 DUP2 LT ISZERO PUSH2 0x333C JUMPI PUSH2 0x3331 PUSH1 0x0 DUP3 PUSH2 0x3305 JUMP JUMPDEST PUSH1 0x1 DUP2 ADD SWAP1 POP PUSH2 0x331E JUMP JUMPDEST POP POP JUMP JUMPDEST PUSH1 0x1F DUP3 GT ISZERO PUSH2 0x3381 JUMPI PUSH2 0x3352 DUP2 PUSH2 0x3221 JUMP JUMPDEST PUSH2 0x335B DUP5 PUSH2 0x3236 JUMP JUMPDEST DUP2 ADD PUSH1 0x20 DUP6 LT ISZERO PUSH2 0x336A JUMPI DUP2 SWAP1 POP JUMPDEST PUSH2 0x337E PUSH2 0x3376 DUP6 PUSH2 0x3236 JUMP JUMPDEST DUP4 ADD DUP3 PUSH2 0x331D JUMP JUMPDEST POP POP JUMPDEST POP POP POP JUMP JUMPDEST PUSH1 0x0 DUP3 DUP3 SHR SWAP1 POP SWAP3 SWAP2 POP POP JUMP JUMPDEST PUSH1 0x0 PUSH2 0x33A4 PUSH1 0x0 NOT DUP5 PUSH1 0x8 MUL PUSH2 0x3386 JUMP JUMPDEST NOT DUP1 DUP4 AND SWAP2 POP POP SWAP3 SWAP2 POP POP JUMP JUMPDEST PUSH1 0x0 PUSH2 0x33BD DUP4 DUP4 PUSH2 0x3393 JUMP JUMPDEST SWAP2 POP DUP3 PUSH1 0x2 MUL DUP3 OR SWAP1 POP SWAP3 SWAP2 POP POP JUMP JUMPDEST PUSH2 0x33D6 DUP3 PUSH2 0x251E JUMP JUMPDEST PUSH8 0xFFFFFFFFFFFFFFFF DUP2 GT ISZERO PUSH2 0x33EF JUMPI PUSH2 0x33EE PUSH2 0x27DE JUMP JUMPDEST JUMPDEST PUSH2 0x33F9 DUP3 SLOAD PUSH2 0x2D1C JUMP JUMPDEST PUSH2 0x3404 DUP3 DUP3 DUP6 PUSH2 0x3340 JUMP JUMPDEST PUSH1 0x0 PUSH1 0x20 SWAP1 POP PUSH1 0x1F DUP4 GT PUSH1 0x1 DUP2 EQ PUSH2 0x3437 JUMPI PUSH1 0x0 DUP5 ISZERO PUSH2 0x3425 JUMPI DUP3 DUP8 ADD MLOAD SWAP1 POP JUMPDEST PUSH2 0x342F DUP6 DUP3 PUSH2 0x33B1 JUMP JUMPDEST DUP7 SSTORE POP PUSH2 0x3497 JUMP JUMPDEST PUSH1 0x1F NOT DUP5 AND PUSH2 0x3445 DUP7 PUSH2 0x3221 JUMP JUMPDEST PUSH1 0x0 JUMPDEST DUP3 DUP2 LT ISZERO PUSH2 0x346D JUMPI DUP5 DUP10 ADD MLOAD DUP3 SSTORE PUSH1 0x1 DUP3 ADD SWAP2 POP PUSH1 0x20 DUP6 ADD SWAP5 POP PUSH1 0x20 DUP2 ADD SWAP1 POP PUSH2 0x3448 JUMP JUMPDEST DUP7 DUP4 LT ISZERO PUSH2 0x348A JUMPI DUP5 DUP10 ADD MLOAD PUSH2 0x3486 PUSH1 0x1F DUP10 AND DUP3 PUSH2 0x3393 JUMP JUMPDEST DUP4 SSTORE POP JUMPDEST PUSH1 0x1 PUSH1 0x2 DUP9 MUL ADD DUP9 SSTORE POP POP POP JUMPDEST POP POP POP POP POP POP JUMP JUMPDEST PUSH1 0x0 PUSH1 0x40 DUP3 ADD SWAP1 POP PUSH2 0x34B4 PUSH1 0x0 DUP4 ADD DUP6 PUSH2 0x25AE JUMP JUMPDEST DUP2 DUP2 SUB PUSH1 0x20 DUP4 ADD MSTORE PUSH2 0x34C6 DUP2 DUP5 PUSH2 0x2575 JUMP JUMPDEST SWAP1 POP SWAP4 SWAP3 POP POP POP JUMP JUMPDEST PUSH32 0x5573657220616C72656164792072656769737465726564000000000000000000 PUSH1 0x0 DUP3 ADD MSTORE POP JUMP JUMPDEST PUSH1 0x0 PUSH2 0x3505 PUSH1 0x17 DUP4 PUSH2 0x2529 JUMP JUMPDEST SWAP2 POP PUSH2 0x3510 DUP3 PUSH2 0x34CF JUMP JUMPDEST PUSH1 0x20 DUP3 ADD SWAP1 POP SWAP2 SWAP1 POP JUMP JUMPDEST PUSH1 0x0 PUSH1 0x20 DUP3 ADD SWAP1 POP DUP2 DUP2 SUB PUSH1 0x0 DUP4 ADD MSTORE PUSH2 0x3534 DUP2 PUSH2 0x34F8 JUMP JUMPDEST SWAP1 POP SWAP2 SWAP1 POP JUMP JUMPDEST PUSH1 0x0 PUSH1 0x40 DUP3 ADD SWAP1 POP PUSH2 0x3550 PUSH1 0x0 DUP4 ADD DUP6 PUSH2 0x2B23 JUMP JUMPDEST PUSH2 0x355D PUSH1 0x20 DUP4 ADD DUP5 PUSH2 0x2B9A JUMP JUMPDEST SWAP4 SWAP3 POP POP POP JUMP JUMPDEST PUSH32 0x496E76616C6964207363686564756C6520494400000000000000000000000000 PUSH1 0x0 DUP3 ADD MSTORE POP JUMP JUMPDEST PUSH1 0x0 PUSH2 0x359A PUSH1 0x13 DUP4 PUSH2 0x2529 JUMP JUMPDEST SWAP2 POP PUSH2 0x35A5 DUP3 PUSH2 0x3564 JUMP JUMPDEST PUSH1 0x20 DUP3 ADD SWAP1 POP SWAP2 SWAP1 POP JUMP JUMPDEST PUSH1 0x0 PUSH1 0x20 DUP3 ADD SWAP1 POP DUP2 DUP2 SUB PUSH1 0x0 DUP4 ADD MSTORE PUSH2 0x35C9 DUP2 PUSH2 0x358D JUMP JUMPDEST SWAP1 POP SWAP2 SWAP1 POP JUMP INVALID LOG2 PUSH5 0x6970667358 0x22 SLT KECCAK256 0xC2 0x25 SLOAD CALLDATASIZE MOD 0xAD JUMP 0xCA DUP8 0xC2 MCOPY PUSH0 0xB9 ORIGIN REVERT 0xD9 0xCF 0xF8 0x24 BYTE 0xDE 0xC1 PUSH30 0x7CE7940E4693AB5BE364736F6C634300081B003300000000000000000000 "},"methodIdentifiers":{"addSchedule(uint256,uint8,uint8,uint8)":"77b31134","admin()":"f851a440","courses(uint256)":"96f979d2","createCourse(string,string,uint256)":"a4adb24b","deleteCourse(uint256)":"9dad8d22","getCourse(uint256)":"0b91e28d","getSchedule(uint256,uint256)":"f43e5e42","getStudentCourses()":"83517a4f","listCourses()":"c53069c7","registerStudentInCourse(uint256)":"19384dd1","registerUser(address,uint8)":"9e9fa097","totalCourses()":"87ac1860","updateCourse(uint256,string,string,uint256)":"91aac065","users(address)":"a87430ba"}}}}}