{"contracts/CourseContract.sol":{"CourseContract":{"abi":[{"inputs":[],"stateMutability":"nonpayable","type":"constructor"},{"anonymous":false,"inputs":[{"indexed":false,"internalType":"uint256","name":"id","type":"uint256"},{"indexed":false,"internalType":"string","name":"name","type":"string"}],"name":"CourseCreated","type":"event"},{"anonymous":false,"inputs":[{"indexed":false,"internalType":"uint256","name":"id","type":"uint256"}],"name":"CourseDeleted","type":"event"},{"anonymous":false,"inputs":[{"indexed":false,"internalType":"uint256","name":"id","type":"uint256"},{"indexed":false,"internalType":"string","name":"name","type":"string"}],"name":"CourseUpdated","type":"event"},{"anonymous":false,"inputs":[{"indexed":false,"internalType":"uint256","name":"id","type":"uint256"},{"indexed":false,"internalType":"uint8","name":"day","type":"uint8"},{"indexed":false,"internalType":"uint8","name":"startHour","type":"uint8"},{"indexed":false,"internalType":"uint8","name":"endHour","type":"uint8"}],"name":"ScheduleAdded","type":"event"},{"anonymous":false,"inputs":[{"indexed":false,"internalType":"uint256","name":"courseId","type":"uint256"},{"indexed":false,"internalType":"uint256","name":"scheduleId","type":"uint256"},{"indexed":false,"internalType":"uint8","name":"day","type":"uint8"},{"indexed":false,"internalType":"uint8","name":"startHour","type":"uint8"},{"indexed":false,"internalType":"uint8","name":"endHour","type":"uint8"}],"name":"ScheduleUpdated","type":"event"},{"anonymous":false,"inputs":[{"indexed":false,"internalType":"uint256","name":"courseId","type":"uint256"},{"indexed":false,"internalType":"address","name":"student","type":"address"}],"name":"StudentRegisteredInCourse","type":"event"},{"anonymous":false,"inputs":[{"indexed":false,"internalType":"address","name":"addr","type":"address"},{"indexed":false,"internalType":"enum CourseContract.Role","name":"role","type":"uint8"}],"name":"UserRegistered","type":"event"},{"inputs":[{"internalType":"uint256","name":"_id","type":"uint256"},{"internalType":"uint8","name":"_day","type":"uint8"},{"internalType":"uint8","name":"_startHour","type":"uint8"},{"internalType":"uint8","name":"_endHour","type":"uint8"}],"name":"addSchedule","outputs":[],"stateMutability":"nonpayable","type":"function"},{"inputs":[],"name":"admin","outputs":[{"internalType":"address","name":"","type":"address"}],"stateMutability":"view","type":"function"},{"inputs":[{"internalType":"uint256","name":"","type":"uint256"}],"name":"courses","outputs":[{"internalType":"uint256","name":"id","type":"uint256"},{"internalType":"string","name":"name","type":"string"},{"internalType":"string","name":"description","type":"string"},{"internalType":"uint256","name":"credits","type":"uint256"},{"internalType":"bool","name":"isActive","type":"bool"},{"internalType":"uint256","name":"totalSchedules","type":"uint256"}],"stateMutability":"view","type":"function"},{"inputs":[{"internalType":"string","name":"_name","type":"string"},{"internalType":"string","name":"_description","type":"string"},{"internalType":"uint256","name":"_credits","type":"uint256"}],"name":"createCourse","outputs":[],"stateMutability":"nonpayable","type":"function"},{"inputs":[{"internalType":"uint256","name":"_id","type":"uint256"}],"name":"deleteCourse","outputs":[],"stateMutability":"nonpayable","type":"function"},{"inputs":[{"internalType":"uint256","name":"_courseId","type":"uint256"},{"internalType":"uint256","name":"_scheduleId","type":"uint256"}],"name":"deleteSchedule","outputs":[],"stateMutability":"nonpayable","type":"function"},{"inputs":[{"internalType":"uint256","name":"_id","type":"uint256"}],"name":"getCourse","outputs":[{"internalType":"uint256","name":"","type":"uint256"},{"internalType":"string","name":"","type":"string"},{"internalType":"string","name":"","type":"string"},{"internalType":"uint256","name":"","type":"uint256"},{"internalType":"bool","name":"","type":"bool"},{"internalType":"uint256","name":"","type":"uint256"}],"stateMutability":"view","type":"function"},{"inputs":[{"internalType":"uint256","name":"_courseId","type":"uint256"},{"internalType":"uint256","name":"_scheduleId","type":"uint256"}],"name":"getSchedule","outputs":[{"internalType":"uint256","name":"","type":"uint256"},{"internalType":"uint8","name":"","type":"uint8"},{"internalType":"uint8","name":"","type":"uint8"},{"internalType":"uint8","name":"","type":"uint8"},{"internalType":"string","name":"","type":"string"},{"internalType":"bool","name":"","type":"bool"}],"stateMutability":"view","type":"function"},{"inputs":[{"internalType":"uint256","name":"_scheduleId","type":"uint256"}],"name":"getScheduleById","outputs":[{"internalType":"uint256","name":"","type":"uint256"},{"internalType":"uint8","name":"","type":"uint8"},{"internalType":"uint8","name":"","type":"uint8"},{"internalType":"uint8","name":"","type":"uint8"},{"internalType":"string","name":"","type":"string"},{"internalType":"bool","name":"","type":"bool"}],"stateMutability":"view","type":"function"},{"inputs":[],"name":"getStudentCourses","outputs":[{"internalType":"uint256[]","name":"","type":"uint256[]"}],"stateMutability":"view","type":"function"},{"inputs":[{"internalType":"address","name":"_user","type":"address"}],"name":"getUser","outputs":[{"components":[{"internalType":"address","name":"addr","type":"address"},{"internalType":"enum CourseContract.Role","name":"role","type":"uint8"},{"internalType":"bool","name":"isActive","type":"bool"}],"internalType":"struct CourseContract.User","name":"","type":"tuple"}],"stateMutability":"view","type":"function"},{"inputs":[{"internalType":"address","name":"_user","type":"address"}],"name":"isRegistered","outputs":[{"internalType":"bool","name":"","type":"bool"}],"stateMutability":"view","type":"function"},{"inputs":[],"name":"listAllSchedules","outputs":[{"components":[{"internalType":"uint256","name":"id","type":"uint256"},{"internalType":"uint8","name":"day","type":"uint8"},{"internalType":"uint8","name":"startHour","type":"uint8"},{"internalType":"uint8","name":"endHour","type":"uint8"},{"internalType":"string","name":"courseName","type":"string"},{"internalType":"bool","name":"isActive","type":"bool"}],"internalType":"struct CourseContract.Schedule[]","name":"","type":"tuple[]"}],"stateMutability":"view","type":"function"},{"inputs":[],"name":"listCourses","outputs":[{"internalType":"uint256[]","name":"","type":"uint256[]"}],"stateMutability":"view","type":"function"},{"inputs":[{"internalType":"uint256","name":"_courseId","type":"uint256"}],"name":"registerStudentInCourse","outputs":[],"stateMutability":"nonpayable","type":"function"},{"inputs":[{"internalType":"address","name":"_user","type":"address"},{"internalType":"enum CourseContract.Role","name":"_role","type":"uint8"}],"name":"registerUser","outputs":[],"stateMutability":"nonpayable","type":"function"},{"inputs":[{"internalType":"uint256","name":"","type":"uint256"}],"name":"schedulesById","outputs":[{"internalType":"uint256","name":"id","type":"uint256"},{"internalType":"uint8","name":"day","type":"uint8"},{"internalType":"uint8","name":"startHour","type":"uint8"},{"internalType":"uint8","name":"endHour","type":"uint8"},{"internalType":"string","name":"courseName","type":"string"},{"internalType":"bool","name":"isActive","type":"bool"}],"stateMutability":"view","type":"function"},{"inputs":[],"name":"totalCourses","outputs":[{"internalType":"uint256","name":"","type":"uint256"}],"stateMutability":"view","type":"function"},{"inputs":[],"name":"totalSchedules","outputs":[{"internalType":"uint256","name":"","type":"uint256"}],"stateMutability":"view","type":"function"},{"inputs":[{"internalType":"uint256","name":"_id","type":"uint256"},{"internalType":"string","name":"_name","type":"string"},{"internalType":"string","name":"_description","type":"string"},{"internalType":"uint256","name":"_credits","type":"uint256"}],"name":"updateCourse","outputs":[],"stateMutability":"nonpayable","type":"function"},{"inputs":[{"internalType":"uint256","name":"_courseId","type":"uint256"},{"internalType":"uint256","name":"_scheduleId","type":"uint256"},{"internalType":"uint8","name":"_day","type":"uint8"},{"internalType":"uint8","name":"_startHour","type":"uint8"},{"internalType":"uint8","name":"_endHour","type":"uint8"}],"name":"updateSchedule","outputs":[],"stateMutability":"nonpayable","type":"function"},{"inputs":[{"internalType":"address","name":"","type":"address"}],"name":"users","outputs":[{"internalType":"address","name":"addr","type":"address"},{"internalType":"enum CourseContract.Role","name":"role","type":"uint8"},{"internalType":"bool","name":"isActive","type":"bool"}],"stateMutability":"view","type":"function"}],"evm":{"bytecode":{"linkReferences":{},"object":"608060405234801561001057600080fd5b5033600560006101000a81548173ffffffffffffffffffffffffffffffffffffffff021916908373ffffffffffffffffffffffffffffffffffffffff16021790555060405180606001604052803373ffffffffffffffffffffffffffffffffffffffff16815260200160028081111561008c5761008b610176565b5b815260200160011515815250600160003373ffffffffffffffffffffffffffffffffffffffff1673ffffffffffffffffffffffffffffffffffffffff16815260200190815260200160002060008201518160000160006101000a81548173ffffffffffffffffffffffffffffffffffffffff021916908373ffffffffffffffffffffffffffffffffffffffff16021790555060208201518160000160146101000a81548160ff0219169083600281111561014957610148610176565b5b021790555060408201518160000160156101000a81548160ff0219169083151502179055509050506101a5565b7f4e487b7100000000000000000000000000000000000000000000000000000000600052602160045260246000fd5b613d17806101b46000396000f3fe608060405234801561001057600080fd5b50600436106101425760003560e01c806396f979d2116100b8578063bfc423281161007c578063bfc423281461039d578063c3c5a547146103b9578063c53069c7146103e9578063ecf1938e14610407578063f43e5e4214610423578063f851a4401461045857610142565b806396f979d2146102e25780639dad8d22146103175780639e9fa09714610333578063a4adb24b1461034f578063a87430ba1461036b57610142565b806377b311341161010a57806377b311341461021b57806380b3ea881461023757806383517a4f1461026c57806387ac18601461028a57806391aac065146102a8578063965720af146102c457610142565b80630b91e28d1461014757806319384dd11461017c57806327fd957214610198578063292a1b55146101cd5780636f77926b146101eb575b600080fd5b610161600480360381019061015c91906126e5565b610476565b604051610173969594939291906127cc565b60405180910390f35b610196600480360381019061019191906126e5565b610631565b005b6101b260048036038101906101ad91906126e5565b610913565b6040516101c496959493929190612857565b60405180910390f35b6101d5610a0b565b6040516101e29190612a81565b60405180910390f35b61020560048036038101906102009190612b01565b610d39565b6040516102129190612bf6565b60405180910390f35b61023560048036038101906102309190612c3d565b610ed3565b005b610251600480360381019061024c91906126e5565b611221565b60405161026396959493929190612857565b60405180910390f35b610274611379565b6040516102819190612d53565b60405180910390f35b6102926116b1565b60405161029f9190612d75565b60405180910390f35b6102c260048036038101906102bd9190612ec5565b6116b7565b005b6102cc6117e0565b6040516102d99190612d75565b60405180910390f35b6102fc60048036038101906102f791906126e5565b6117e6565b60405161030e969594939291906127cc565b60405180910390f35b610331600480360381019061032c91906126e5565b61193f565b005b61034d60048036038101906103489190612f89565b611a4d565b005b61036960048036038101906103649190612fc9565b611bea565b005b61038560048036038101906103809190612b01565b611cb8565b60405161039493929190613072565b60405180910390f35b6103b760048036038101906103b291906130a9565b611d1c565b005b6103d360048036038101906103ce9190612b01565b611ff0565b6040516103e09190613124565b60405180910390f35b6103f1612049565b6040516103fe9190612d53565b60405180910390f35b610421600480360381019061041c919061313f565b6121b6565b005b61043d6004803603810190610438919061313f565b6123c3565b60405161044f96959493929190612857565b60405180910390f35b6104606125e9565b60405161046d919061317f565b60405180910390f35b6000606080600080600060035487106104c4576040517f08c379a00000000000000000000000000000000000000000000000000000000081526004016104bb906131e6565b60405180910390fd5b600080600089815260200190815260200160002090508060000154816001018260020183600301548460040160009054906101000a900460ff16856005015484805461050f90613235565b80601f016020809104026020016040519081016040528092919081815260200182805461053b90613235565b80156105885780601f1061055d57610100808354040283529160200191610588565b820191906000526020600020905b81548152906001019060200180831161056b57829003601f168201915b5050505050945083805461059b90613235565b80601f01602080910402602001604051908101604052809291908181526020018280546105c790613235565b80156106145780601f106105e957610100808354040283529160200191610614565b820191906000526020600020905b8154815290600101906020018083116105f757829003601f168201915b505050505093509650965096509650965096505091939550919395565b6003548110610675576040517f08c379a000000000000000000000000000000000000000000000000000000000815260040161066c906131e6565b60405180910390fd5b60008082815260200190815260200160002060040160009054906101000a900460ff166106d7576040517f08c379a00000000000000000000000000000000000000000000000000000000081526004016106ce906132d8565b60405180910390fd5b600060028111156106eb576106ea612b3d565b5b600160003373ffffffffffffffffffffffffffffffffffffffff1673ffffffffffffffffffffffffffffffffffffffff16815260200190815260200160002060000160149054906101000a900460ff16600281111561074d5761074c612b3d565b5b1461078d576040517f08c379a00000000000000000000000000000000000000000000000000000000081526004016107849061336a565b60405180910390fd5b6000806000838152602001908152602001600020905060005b8160060180549050811015610870573373ffffffffffffffffffffffffffffffffffffffff168260060182815481106107e2576107e161338a565b5b9060005260206000200160009054906101000a900473ffffffffffffffffffffffffffffffffffffffff1673ffffffffffffffffffffffffffffffffffffffff1603610863576040517f08c379a000000000000000000000000000000000000000000000000000000000815260040161085a9061342b565b60405180910390fd5b80806001019150506107a6565b5080600601339080600181540180825580915050600190039060005260206000200160009091909190916101000a81548173ffffffffffffffffffffffffffffffffffffffff021916908373ffffffffffffffffffffffffffffffffffffffff1602179055507f5978a47ce47cdeb8a43a1794142dd16f2f94e95103bd104783a42725c7fe8cff823360405161090792919061344b565b60405180910390a15050565b60026020528060005260406000206000915090508060000154908060010160009054906101000a900460ff16908060010160019054906101000a900460ff16908060010160029054906101000a900460ff169080600201805461097590613235565b80601f01602080910402602001604051908101604052809291908181526020018280546109a190613235565b80156109ee5780601f106109c3576101008083540402835291602001916109ee565b820191906000526020600020905b8154815290600101906020018083116109d157829003601f168201915b5050505050908060030160009054906101000a900460ff16905086565b60606000805b600354811015610acf5760008082815260200190815260200160002060040160009054906101000a900460ff1615610ac25760005b600080838152602001908152602001600020600501548111610ac057600080838152602001908152602001600020600701600082815260200190815260200160002060030160009054906101000a900460ff1615610aad578280610aa9906134a3565b9350505b8080610ab8906134a3565b915050610a46565b505b8080600101915050610a11565b5060008167ffffffffffffffff811115610aec57610aeb612d9a565b5b604051908082528060200260200182016040528015610b2557816020015b610b1261260f565b815260200190600190039081610b0a5790505b5090506000805b600354811015610d2f5760008082815260200190815260200160002060040160009054906101000a900460ff1615610d2257600080600083815260200190815260200160002090506000600190505b81600501548111610d1f5781600701600082815260200190815260200160002060030160009054906101000a900460ff1615610d0c578160070160008281526020019081526020016000206040518060c0016040529081600082015481526020016001820160009054906101000a900460ff1660ff1660ff1681526020016001820160019054906101000a900460ff1660ff1660ff1681526020016001820160029054906101000a900460ff1660ff1660ff168152602001600282018054610c4290613235565b80601f0160208091040260200160405190810160405280929190818152602001828054610c6e90613235565b8015610cbb5780601f10610c9057610100808354040283529160200191610cbb565b820191906000526020600020905b815481529060010190602001808311610c9e57829003601f168201915b505050505081526020016003820160009054906101000a900460ff161515151581525050858581518110610cf257610cf161338a565b5b60200260200101819052508380610d08906134a3565b9450505b8080610d17906134a3565b915050610b7b565b50505b8080600101915050610b2c565b5081935050505090565b610d41612650565b600160008373ffffffffffffffffffffffffffffffffffffffff1673ffffffffffffffffffffffffffffffffffffffff16815260200190815260200160002060000160159054906101000a900460ff16610dd0576040517f08c379a0000000000000000000000000000000000000000000000000000000008152600401610dc790613537565b60405180910390fd5b6000600160008473ffffffffffffffffffffffffffffffffffffffff1673ffffffffffffffffffffffffffffffffffffffff1681526020019081526020016000206040518060600160405290816000820160009054906101000a900473ffffffffffffffffffffffffffffffffffffffff1673ffffffffffffffffffffffffffffffffffffffff1673ffffffffffffffffffffffffffffffffffffffff1681526020016000820160149054906101000a900460ff166002811115610e9757610e96612b3d565b5b6002811115610ea957610ea8612b3d565b5b81526020016000820160159054906101000a900460ff161515151581525050905080915050919050565b6003548410610f17576040517f08c379a0000000000000000000000000000000000000000000000000000000008152600401610f0e906131e6565b60405180910390fd5b60008085815260200190815260200160002060040160009054906101000a900460ff16610f79576040517f08c379a0000000000000000000000000000000000000000000000000000000008152600401610f70906132d8565b60405180910390fd5b60018360ff1610158015610f91575060078360ff1611155b610fd0576040517f08c379a0000000000000000000000000000000000000000000000000000000008152600401610fc7906135a3565b60405180910390fd5b60188260ff16108015610fe6575060188160ff16105b8015610ff757508060ff168260ff16105b611036576040517f08c379a000000000000000000000000000000000000000000000000000000000815260040161102d9061360f565b60405180910390fd5b6000806000868152602001908152602001600020905060006001826005015461105f919061362f565b905060008260070160008381526020019081526020016000209050818160000181905550858160010160006101000a81548160ff021916908360ff160217905550848160010160016101000a81548160ff021916908360ff160217905550838160010160026101000a81548160ff021916908360ff160217905550826001018160020190816110ee919061383a565b5060018160030160006101000a81548160ff021916908315150217905550818360050181905550600060026000600454815260200190815260200160002090506004548160000181905550868160010160006101000a81548160ff021916908360ff160217905550858160010160016101000a81548160ff021916908360ff160217905550848160010160026101000a81548160ff021916908360ff160217905550836001018160020190816111a4919061383a565b5060018160030160006101000a81548160ff021916908315150217905550600460008154809291906111d5906134a3565b91905055507f3ff69354bb51befb41cb392610be115187b4afcfed73d238a16f370c7f20491c8888888860405161120f9493929190613922565b60405180910390a15050505050505050565b60008060008060606000600454871061126f576040517f08c379a0000000000000000000000000000000000000000000000000000000008152600401611266906139b3565b60405180910390fd5b600060026000898152602001908152602001600020905080600001548160010160009054906101000a900460ff168260010160019054906101000a900460ff168360010160029054906101000a900460ff16846002018560030160009054906101000a900460ff168180546112e390613235565b80601f016020809104026020016040519081016040528092919081815260200182805461130f90613235565b801561135c5780601f106113315761010080835404028352916020019161135c565b820191906000526020600020905b81548152906001019060200180831161133f57829003601f168201915b505050505091509650965096509650965096505091939550919395565b6060600160003373ffffffffffffffffffffffffffffffffffffffff1673ffffffffffffffffffffffffffffffffffffffff16815260200190815260200160002060000160159054906101000a900460ff1661140a576040517f08c379a000000000000000000000000000000000000000000000000000000000815260040161140190613537565b60405180910390fd5b6000600281111561141e5761141d612b3d565b5b600160003373ffffffffffffffffffffffffffffffffffffffff1673ffffffffffffffffffffffffffffffffffffffff16815260200190815260200160002060000160149054906101000a900460ff1660028111156114805761147f612b3d565b5b146114c0576040517f08c379a00000000000000000000000000000000000000000000000000000000081526004016114b790613a45565b60405180910390fd5b600060035467ffffffffffffffff8111156114de576114dd612d9a565b5b60405190808252806020026020018201604052801561150c5781602001602082028036833780820191505090505b5090506000805b600354811015611607576000806000838152602001908152602001600020905060005b81600601805490508110156115f8573373ffffffffffffffffffffffffffffffffffffffff168260060182815481106115725761157161338a565b5b9060005260206000200160009054906101000a900473ffffffffffffffffffffffffffffffffffffffff1673ffffffffffffffffffffffffffffffffffffffff16036115eb57828585815181106115cc576115cb61338a565b5b60200260200101818152505083806115e3906134a3565b9450506115f8565b8080600101915050611536565b50508080600101915050611513565b5060008167ffffffffffffffff81111561162457611623612d9a565b5b6040519080825280602002602001820160405280156116525781602001602082028036833780820191505090505b50905060005b828110156116a7578381815181106116735761167261338a565b5b602002602001015182828151811061168e5761168d61338a565b5b6020026020010181815250508080600101915050611658565b5080935050505090565b60035481565b60035484106116fb576040517f08c379a00000000000000000000000000000000000000000000000000000000081526004016116f2906131e6565b60405180910390fd5b60008085815260200190815260200160002060040160009054906101000a900460ff1661175d576040517f08c379a0000000000000000000000000000000000000000000000000000000008152600401611754906132d8565b60405180910390fd5b60008060008681526020019081526020016000209050838160010190816117849190613a65565b50828160020190816117969190613a65565b508181600301819055507f61f1b503285f2baf5ae0ec7be5c9605a293c9d47bdaf9bdb36fc15c570615fe685856040516117d1929190613b37565b60405180910390a15050505050565b60045481565b600060205280600052604060002060009150905080600001549080600101805461180f90613235565b80601f016020809104026020016040519081016040528092919081815260200182805461183b90613235565b80156118885780601f1061185d57610100808354040283529160200191611888565b820191906000526020600020905b81548152906001019060200180831161186b57829003601f168201915b50505050509080600201805461189d90613235565b80601f01602080910402602001604051908101604052809291908181526020018280546118c990613235565b80156119165780601f106118eb57610100808354040283529160200191611916565b820191906000526020600020905b8154815290600101906020018083116118f957829003601f168201915b5050505050908060030154908060040160009054906101000a900460ff16908060050154905086565b6003548110611983576040517f08c379a000000000000000000000000000000000000000000000000000000000815260040161197a906131e6565b60405180910390fd5b60008082815260200190815260200160002060040160009054906101000a900460ff166119e5576040517f08c379a00000000000000000000000000000000000000000000000000000000081526004016119dc906132d8565b60405180910390fd5b600080600083815260200190815260200160002060040160006101000a81548160ff0219169083151502179055507f39eeda956a5b638cce21d44feb4e3279509fbaf8fb7776431f55f57a0cd2153781604051611a429190612d75565b60405180910390a150565b600160008373ffffffffffffffffffffffffffffffffffffffff1673ffffffffffffffffffffffffffffffffffffffff16815260200190815260200160002060000160159054906101000a900460ff1615611add576040517f08c379a0000000000000000000000000000000000000000000000000000000008152600401611ad490613bb3565b60405180910390fd5b6000600160008473ffffffffffffffffffffffffffffffffffffffff1673ffffffffffffffffffffffffffffffffffffffff1681526020019081526020016000209050828160000160006101000a81548173ffffffffffffffffffffffffffffffffffffffff021916908373ffffffffffffffffffffffffffffffffffffffff160217905550818160000160146101000a81548160ff02191690836002811115611b8a57611b89612b3d565b5b021790555060018160000160156101000a81548160ff0219169083151502179055507f8e18574f8a7333e6a87112742a55853a643e2f0550f4e1a3a2c3f1bb2994441d8383604051611bdd929190613bd3565b60405180910390a1505050565b600060036000815480929190611bff906134a3565b9190505590506000806000838152602001908152602001600020905081816000018190555084816001019081611c359190613a65565b5083816002019081611c479190613a65565b5082816003018190555060018160040160006101000a81548160ff021916908315150217905550600081600501819055507fc2c844c5f6c72fe99b99de0942ba619e99957d3e8f7e614263ecfe40de952e588286604051611ca9929190613b37565b60405180910390a15050505050565b60016020528060005260406000206000915090508060000160009054906101000a900473ffffffffffffffffffffffffffffffffffffffff16908060000160149054906101000a900460ff16908060000160159054906101000a900460ff16905083565b6003548510611d60576040517f08c379a0000000000000000000000000000000000000000000000000000000008152600401611d57906131e6565b60405180910390fd5b60008086815260200190815260200160002060040160009054906101000a900460ff16611dc2576040517f08c379a0000000000000000000000000000000000000000000000000000000008152600401611db9906132d8565b60405180910390fd5b60008086815260200190815260200160002060050154841115611e1a576040517f08c379a0000000000000000000000000000000000000000000000000000000008152600401611e11906139b3565b60405180910390fd5b60018360ff1610158015611e32575060078360ff1611155b611e71576040517f08c379a0000000000000000000000000000000000000000000000000000000008152600401611e68906135a3565b60405180910390fd5b60188260ff16108015611e87575060188160ff16105b8015611e9857508060ff168260ff16105b611ed7576040517f08c379a0000000000000000000000000000000000000000000000000000000008152600401611ece9061360f565b60405180910390fd5b6000806000878152602001908152602001600020600701600086815260200190815260200160002090508060030160009054906101000a900460ff16611f52576040517f08c379a0000000000000000000000000000000000000000000000000000000008152600401611f4990613c6e565b60405180910390fd5b838160010160006101000a81548160ff021916908360ff160217905550828160010160016101000a81548160ff021916908360ff160217905550818160010160026101000a81548160ff021916908360ff1602179055507f29558593f0b584fa97b5489122cab9fc63aa0424b99f2b9ce433cfb20a73cd708686868686604051611fe0959493929190613c8e565b60405180910390a1505050505050565b6000600160008373ffffffffffffffffffffffffffffffffffffffff1673ffffffffffffffffffffffffffffffffffffffff16815260200190815260200160002060000160159054906101000a900460ff169050919050565b6060600060035467ffffffffffffffff81111561206957612068612d9a565b5b6040519080825280602002602001820160405280156120975781602001602082028036833780820191505090505b5090506000805b60035481101561210c5760008082815260200190815260200160002060040160009054906101000a900460ff16156120ff57808383815181106120e4576120e361338a565b5b60200260200101818152505081806120fb906134a3565b9250505b808060010191505061209e565b5060008167ffffffffffffffff81111561212957612128612d9a565b5b6040519080825280602002602001820160405280156121575781602001602082028036833780820191505090505b50905060005b828110156121ac578381815181106121785761217761338a565b5b60200260200101518282815181106121935761219261338a565b5b602002602001018181525050808060010191505061215d565b5080935050505090565b60035482106121fa576040517f08c379a00000000000000000000000000000000000000000000000000000000081526004016121f1906131e6565b60405180910390fd5b60008083815260200190815260200160002060040160009054906101000a900460ff1661225c576040517f08c379a0000000000000000000000000000000000000000000000000000000008152600401612253906132d8565b60405180910390fd5b600080838152602001908152602001600020600501548111156122b4576040517f08c379a00000000000000000000000000000000000000000000000000000000081526004016122ab906139b3565b60405180910390fd5b6000806000848152602001908152602001600020600701600083815260200190815260200160002090508060030160009054906101000a900460ff1661232f576040517f08c379a000000000000000000000000000000000000000000000000000000000815260040161232690613c6e565b60405180910390fd5b60008160030160006101000a81548160ff0219169083151502179055507f29558593f0b584fa97b5489122cab9fc63aa0424b99f2b9ce433cfb20a73cd7083838360010160009054906101000a900460ff168460010160019054906101000a900460ff168560010160029054906101000a900460ff166040516123b6959493929190613c8e565b60405180910390a1505050565b600080600080606060006003548810612411576040517f08c379a0000000000000000000000000000000000000000000000000000000008152600401612408906131e6565b60405180910390fd5b60008089815260200190815260200160002060040160009054906101000a900460ff16612473576040517f08c379a000000000000000000000000000000000000000000000000000000000815260040161246a906132d8565b60405180910390fd5b600080898152602001908152602001600020600501548711156124cb576040517f08c379a00000000000000000000000000000000000000000000000000000000081526004016124c2906139b3565b60405180910390fd5b60008060008a81526020019081526020016000206007016000898152602001908152602001600020905080600001548160010160009054906101000a900460ff168260010160019054906101000a900460ff168360010160029054906101000a900460ff16846002018560030160009054906101000a900460ff1681805461255290613235565b80601f016020809104026020016040519081016040528092919081815260200182805461257e90613235565b80156125cb5780601f106125a0576101008083540402835291602001916125cb565b820191906000526020600020905b8154815290600101906020018083116125ae57829003601f168201915b50505050509150965096509650965096509650509295509295509295565b600560009054906101000a900473ffffffffffffffffffffffffffffffffffffffff1681565b6040518060c0016040528060008152602001600060ff168152602001600060ff168152602001600060ff168152602001606081526020016000151581525090565b6040518060600160405280600073ffffffffffffffffffffffffffffffffffffffff1681526020016000600281111561268c5761268b612b3d565b5b81526020016000151581525090565b6000604051905090565b600080fd5b600080fd5b6000819050919050565b6126c2816126af565b81146126cd57600080fd5b50565b6000813590506126df816126b9565b92915050565b6000602082840312156126fb576126fa6126a5565b5b6000612709848285016126d0565b91505092915050565b61271b816126af565b82525050565b600081519050919050565b600082825260208201905092915050565b60005b8381101561275b578082015181840152602081019050612740565b60008484015250505050565b6000601f19601f8301169050919050565b600061278382612721565b61278d818561272c565b935061279d81856020860161273d565b6127a681612767565b840191505092915050565b60008115159050919050565b6127c6816127b1565b82525050565b600060c0820190506127e16000830189612712565b81810360208301526127f38188612778565b905081810360408301526128078187612778565b90506128166060830186612712565b61282360808301856127bd565b61283060a0830184612712565b979650505050505050565b600060ff82169050919050565b6128518161283b565b82525050565b600060c08201905061286c6000830189612712565b6128796020830188612848565b6128866040830187612848565b6128936060830186612848565b81810360808301526128a58185612778565b90506128b460a08301846127bd565b979650505050505050565b600081519050919050565b600082825260208201905092915050565b6000819050602082019050919050565b6128f4816126af565b82525050565b6129038161283b565b82525050565b600082825260208201905092915050565b600061292582612721565b61292f8185612909565b935061293f81856020860161273d565b61294881612767565b840191505092915050565b61295c816127b1565b82525050565b600060c08301600083015161297a60008601826128eb565b50602083015161298d60208601826128fa565b5060408301516129a060408601826128fa565b5060608301516129b360608601826128fa565b50608083015184820360808601526129cb828261291a565b91505060a08301516129e060a0860182612953565b508091505092915050565b60006129f78383612962565b905092915050565b6000602082019050919050565b6000612a17826128bf565b612a2181856128ca565b935083602082028501612a33856128db565b8060005b85811015612a6f5784840389528151612a5085826129eb565b9450612a5b836129ff565b925060208a01995050600181019050612a37565b50829750879550505050505092915050565b60006020820190508181036000830152612a9b8184612a0c565b905092915050565b600073ffffffffffffffffffffffffffffffffffffffff82169050919050565b6000612ace82612aa3565b9050919050565b612ade81612ac3565b8114612ae957600080fd5b50565b600081359050612afb81612ad5565b92915050565b600060208284031215612b1757612b166126a5565b5b6000612b2584828501612aec565b91505092915050565b612b3781612ac3565b82525050565b7f4e487b7100000000000000000000000000000000000000000000000000000000600052602160045260246000fd5b60038110612b7d57612b7c612b3d565b5b50565b6000819050612b8e82612b6c565b919050565b6000612b9e82612b80565b9050919050565b612bae81612b93565b82525050565b606082016000820151612bca6000850182612b2e565b506020820151612bdd6020850182612ba5565b506040820151612bf06040850182612953565b50505050565b6000606082019050612c0b6000830184612bb4565b92915050565b612c1a8161283b565b8114612c2557600080fd5b50565b600081359050612c3781612c11565b92915050565b60008060008060808587031215612c5757612c566126a5565b5b6000612c65878288016126d0565b9450506020612c7687828801612c28565b9350506040612c8787828801612c28565b9250506060612c9887828801612c28565b91505092959194509250565b600081519050919050565b600082825260208201905092915050565b6000819050602082019050919050565b6000612cdc83836128eb565b60208301905092915050565b6000602082019050919050565b6000612d0082612ca4565b612d0a8185612caf565b9350612d1583612cc0565b8060005b83811015612d46578151612d2d8882612cd0565b9750612d3883612ce8565b925050600181019050612d19565b5085935050505092915050565b60006020820190508181036000830152612d6d8184612cf5565b905092915050565b6000602082019050612d8a6000830184612712565b92915050565b600080fd5b600080fd5b7f4e487b7100000000000000000000000000000000000000000000000000000000600052604160045260246000fd5b612dd282612767565b810181811067ffffffffffffffff82111715612df157612df0612d9a565b5b80604052505050565b6000612e0461269b565b9050612e108282612dc9565b919050565b600067ffffffffffffffff821115612e3057612e2f612d9a565b5b612e3982612767565b9050602081019050919050565b82818337600083830152505050565b6000612e68612e6384612e15565b612dfa565b905082815260208101848484011115612e8457612e83612d95565b5b612e8f848285612e46565b509392505050565b600082601f830112612eac57612eab612d90565b5b8135612ebc848260208601612e55565b91505092915050565b60008060008060808587031215612edf57612ede6126a5565b5b6000612eed878288016126d0565b945050602085013567ffffffffffffffff811115612f0e57612f0d6126aa565b5b612f1a87828801612e97565b935050604085013567ffffffffffffffff811115612f3b57612f3a6126aa565b5b612f4787828801612e97565b9250506060612f58878288016126d0565b91505092959194509250565b60038110612f7157600080fd5b50565b600081359050612f8381612f64565b92915050565b60008060408385031215612fa057612f9f6126a5565b5b6000612fae85828601612aec565b9250506020612fbf85828601612f74565b9150509250929050565b600080600060608486031215612fe257612fe16126a5565b5b600084013567ffffffffffffffff81111561300057612fff6126aa565b5b61300c86828701612e97565b935050602084013567ffffffffffffffff81111561302d5761302c6126aa565b5b61303986828701612e97565b925050604061304a868287016126d0565b9150509250925092565b61305d81612ac3565b82525050565b61306c81612b93565b82525050565b60006060820190506130876000830186613054565b6130946020830185613063565b6130a160408301846127bd565b949350505050565b600080600080600060a086880312156130c5576130c46126a5565b5b60006130d3888289016126d0565b95505060206130e4888289016126d0565b94505060406130f588828901612c28565b935050606061310688828901612c28565b925050608061311788828901612c28565b9150509295509295909350565b600060208201905061313960008301846127bd565b92915050565b60008060408385031215613156576131556126a5565b5b6000613164858286016126d0565b9250506020613175858286016126d0565b9150509250929050565b60006020820190506131946000830184613054565b92915050565b7f496e76616c696420636f75727365204944000000000000000000000000000000600082015250565b60006131d060118361272c565b91506131db8261319a565b602082019050919050565b600060208201905081810360008301526131ff816131c3565b9050919050565b7f4e487b7100000000000000000000000000000000000000000000000000000000600052602260045260246000fd5b6000600282049050600182168061324d57607f821691505b6020821081036132605761325f613206565b5b50919050565b7f436f7572736520646f6573206e6f74206578697374206f72206861732062656560008201527f6e2064656c657465640000000000000000000000000000000000000000000000602082015250565b60006132c260298361272c565b91506132cd82613266565b604082019050919050565b600060208201905081810360008301526132f1816132b5565b9050919050565b7f4f6e6c792073747564656e74732063616e20726567697374657220696e20636f60008201527f7572736573000000000000000000000000000000000000000000000000000000602082015250565b600061335460258361272c565b915061335f826132f8565b604082019050919050565b6000602082019050818103600083015261338381613347565b9050919050565b7f4e487b7100000000000000000000000000000000000000000000000000000000600052603260045260246000fd5b7f53747564656e7420616c7265616479207265676973746572656420696e20746860008201527f6520636f75727365000000000000000000000000000000000000000000000000602082015250565b600061341560288361272c565b9150613420826133b9565b604082019050919050565b6000602082019050818103600083015261344481613408565b9050919050565b60006040820190506134606000830185612712565b61346d6020830184613054565b9392505050565b7f4e487b7100000000000000000000000000000000000000000000000000000000600052601160045260246000fd5b60006134ae826126af565b91507fffffffffffffffffffffffffffffffffffffffffffffffffffffffffffffffff82036134e0576134df613474565b5b600182019050919050565b7f55736572206e6f74207265676973746572656400000000000000000000000000600082015250565b600061352160138361272c565b915061352c826134eb565b602082019050919050565b6000602082019050818103600083015261355081613514565b9050919050565b7f496e76616c696420646179000000000000000000000000000000000000000000600082015250565b600061358d600b8361272c565b915061359882613557565b602082019050919050565b600060208201905081810360008301526135bc81613580565b9050919050565b7f496e76616c6964207363686564756c6500000000000000000000000000000000600082015250565b60006135f960108361272c565b9150613604826135c3565b602082019050919050565b60006020820190508181036000830152613628816135ec565b9050919050565b600061363a826126af565b9150613645836126af565b925082820190508082111561365d5761365c613474565b5b92915050565b60008154905061367281613235565b9050919050565b60008190508160005260206000209050919050565b60008190508160005260206000209050919050565b60006020601f8301049050919050565b600082821b905092915050565b6000600883026136f07fffffffffffffffffffffffffffffffffffffffffffffffffffffffffffffffff826136b3565b6136fa86836136b3565b95508019841693508086168417925050509392505050565b6000819050919050565b600061373761373261372d846126af565b613712565b6126af565b9050919050565b6000819050919050565b6137518361371c565b61376561375d8261373e565b8484546136c0565b825550505050565b600090565b61377a61376d565b613785818484613748565b505050565b5b818110156137a95761379e600082613772565b60018101905061378b565b5050565b601f8211156137ee576137bf81613679565b6137c8846136a3565b810160208510156137d7578190505b6137eb6137e3856136a3565b83018261378a565b50505b505050565b600082821c905092915050565b6000613811600019846008026137f3565b1980831691505092915050565b600061382a8383613800565b9150826002028217905092915050565b818103613848575050613920565b61385182613663565b67ffffffffffffffff81111561386a57613869612d9a565b5b6138748254613235565b61387f8282856137ad565b6000601f8311600181146138ae576000841561389c578287015490505b6138a6858261381e565b865550613919565b601f1984166138bc8761368e565b96506138c786613679565b60005b828110156138ef578489015482556001820191506001850194506020810190506138ca565b8683101561390c5784890154613908601f891682613800565b8355505b6001600288020188555050505b5050505050505b565b60006080820190506139376000830187612712565b6139446020830186612848565b6139516040830185612848565b61395e6060830184612848565b95945050505050565b7f496e76616c6964207363686564756c6520494400000000000000000000000000600082015250565b600061399d60138361272c565b91506139a882613967565b602082019050919050565b600060208201905081810360008301526139cc81613990565b9050919050565b7f4f6e6c792073747564656e74732063616e206861766520656e726f6c6c65642060008201527f636f757273657300000000000000000000000000000000000000000000000000602082015250565b6000613a2f60278361272c565b9150613a3a826139d3565b604082019050919050565b60006020820190508181036000830152613a5e81613a22565b9050919050565b613a6e82612721565b67ffffffffffffffff811115613a8757613a86612d9a565b5b613a918254613235565b613a9c8282856137ad565b600060209050601f831160018114613acf5760008415613abd578287015190505b613ac7858261381e565b865550613b2f565b601f198416613add86613679565b60005b82811015613b0557848901518255600182019150602085019450602081019050613ae0565b86831015613b225784890151613b1e601f891682613800565b8355505b6001600288020188555050505b505050505050565b6000604082019050613b4c6000830185612712565b8181036020830152613b5e8184612778565b90509392505050565b7f5573657220616c72656164792072656769737465726564000000000000000000600082015250565b6000613b9d60178361272c565b9150613ba882613b67565b602082019050919050565b60006020820190508181036000830152613bcc81613b90565b9050919050565b6000604082019050613be86000830185613054565b613bf56020830184613063565b9392505050565b7f5363686564756c6520646f6573206e6f74206578697374206f7220686173206260008201527f65656e2064656c65746564000000000000000000000000000000000000000000602082015250565b6000613c58602b8361272c565b9150613c6382613bfc565b604082019050919050565b60006020820190508181036000830152613c8781613c4b565b9050919050565b600060a082019050613ca36000830188612712565b613cb06020830187612712565b613cbd6040830186612848565b613cca6060830185612848565b613cd76080830184612848565b969550505050505056fea2646970667358221220f765d37f0c211397115b63cb46b17d9679fff1f3077bd08e8d5ac2194010677f64736f6c634300081b0033","opcodes":"PUSH1 0x80 PUSH1 0x40 MSTORE CALLVALUE DUP1 ISZERO PUSH2 0x10 JUMPI PUSH1 0x0 DUP1 REVERT JUMPDEST POP CALLER PUSH1 0x5 PUSH1 0x0 PUSH2 0x100 EXP DUP2 SLOAD DUP2 PUSH20 0xFFFFFFFFFFFFFFFFFFFFFFFFFFFFFFFFFFFFFFFF MUL NOT AND SWAP1 DUP4 PUSH20 0xFFFFFFFFFFFFFFFFFFFFFFFFFFFFFFFFFFFFFFFF AND MUL OR SWAP1 SSTORE POP PUSH1 0x40 MLOAD DUP1 PUSH1 0x60 ADD PUSH1 0x40 MSTORE DUP1 CALLER PUSH20 0xFFFFFFFFFFFFFFFFFFFFFFFFFFFFFFFFFFFFFFFF AND DUP2 MSTORE PUSH1 0x20 ADD PUSH1 0x2 DUP1 DUP2 GT ISZERO PUSH2 0x8C JUMPI PUSH2 0x8B PUSH2 0x176 JUMP JUMPDEST JUMPDEST DUP2 MSTORE PUSH1 0x20 ADD PUSH1 0x1 ISZERO ISZERO DUP2 MSTORE POP PUSH1 0x1 PUSH1 0x0 CALLER PUSH20 0xFFFFFFFFFFFFFFFFFFFFFFFFFFFFFFFFFFFFFFFF AND PUSH20 0xFFFFFFFFFFFFFFFFFFFFFFFFFFFFFFFFFFFFFFFF AND DUP2 MSTORE PUSH1 0x20 ADD SWAP1 DUP2 MSTORE PUSH1 0x20 ADD PUSH1 0x0 KECCAK256 PUSH1 0x0 DUP3 ADD MLOAD DUP2 PUSH1 0x0 ADD PUSH1 0x0 PUSH2 0x100 EXP DUP2 SLOAD DUP2 PUSH20 0xFFFFFFFFFFFFFFFFFFFFFFFFFFFFFFFFFFFFFFFF MUL NOT AND SWAP1 DUP4 PUSH20 0xFFFFFFFFFFFFFFFFFFFFFFFFFFFFFFFFFFFFFFFF AND MUL OR SWAP1 SSTORE POP PUSH1 0x20 DUP3 ADD MLOAD DUP2 PUSH1 0x0 ADD PUSH1 0x14 PUSH2 0x100 EXP DUP2 SLOAD DUP2 PUSH1 0xFF MUL NOT AND SWAP1 DUP4 PUSH1 0x2 DUP2 GT ISZERO PUSH2 0x149 JUMPI PUSH2 0x148 PUSH2 0x176 JUMP JUMPDEST JUMPDEST MUL OR SWAP1 SSTORE POP PUSH1 0x40 DUP3 ADD MLOAD DUP2 PUSH1 0x0 ADD PUSH1 0x15 PUSH2 0x100 EXP DUP2 SLOAD DUP2 PUSH1 0xFF MUL NOT AND SWAP1 DUP4 ISZERO ISZERO MUL OR SWAP1 SSTORE POP SWAP1 POP POP PUSH2 0x1A5 JUMP JUMPDEST PUSH32 0x4E487B7100000000000000000000000000000000000000000000000000000000 PUSH1 0x0 MSTORE PUSH1 0x21 PUSH1 0x4 MSTORE PUSH1 0x24 PUSH1 0x0 REVERT JUMPDEST PUSH2 0x3D17 DUP1 PUSH2 0x1B4 PUSH1 0x0 CODECOPY PUSH1 0x0 RETURN INVALID PUSH1 0x80 PUSH1 0x40 MSTORE CALLVALUE DUP1 ISZERO PUSH2 0x10 JUMPI PUSH1 0x0 DUP1 REVERT JUMPDEST POP PUSH1 0x4 CALLDATASIZE LT PUSH2 0x142 JUMPI PUSH1 0x0 CALLDATALOAD PUSH1 0xE0 SHR DUP1 PUSH4 0x96F979D2 GT PUSH2 0xB8 JUMPI DUP1 PUSH4 0xBFC42328 GT PUSH2 0x7C JUMPI DUP1 PUSH4 0xBFC42328 EQ PUSH2 0x39D JUMPI DUP1 PUSH4 0xC3C5A547 EQ PUSH2 0x3B9 JUMPI DUP1 PUSH4 0xC53069C7 EQ PUSH2 0x3E9 JUMPI DUP1 PUSH4 0xECF1938E EQ PUSH2 0x407 JUMPI DUP1 PUSH4 0xF43E5E42 EQ PUSH2 0x423 JUMPI DUP1 PUSH4 0xF851A440 EQ PUSH2 0x458 JUMPI PUSH2 0x142 JUMP JUMPDEST DUP1 PUSH4 0x96F979D2 EQ PUSH2 0x2E2 JUMPI DUP1 PUSH4 0x9DAD8D22 EQ PUSH2 0x317 JUMPI DUP1 PUSH4 0x9E9FA097 EQ PUSH2 0x333 JUMPI DUP1 PUSH4 0xA4ADB24B EQ PUSH2 0x34F JUMPI DUP1 PUSH4 0xA87430BA EQ PUSH2 0x36B JUMPI PUSH2 0x142 JUMP JUMPDEST DUP1 PUSH4 0x77B31134 GT PUSH2 0x10A JUMPI DUP1 PUSH4 0x77B31134 EQ PUSH2 0x21B JUMPI DUP1 PUSH4 0x80B3EA88 EQ PUSH2 0x237 JUMPI DUP1 PUSH4 0x83517A4F EQ PUSH2 0x26C JUMPI DUP1 PUSH4 0x87AC1860 EQ PUSH2 0x28A JUMPI DUP1 PUSH4 0x91AAC065 EQ PUSH2 0x2A8 JUMPI DUP1 PUSH4 0x965720AF EQ PUSH2 0x2C4 JUMPI PUSH2 0x142 JUMP JUMPDEST DUP1 PUSH4 0xB91E28D EQ PUSH2 0x147 JUMPI DUP1 PUSH4 0x19384DD1 EQ PUSH2 0x17C JUMPI DUP1 PUSH4 0x27FD9572 EQ PUSH2 0x198 JUMPI DUP1 PUSH4 0x292A1B55 EQ PUSH2 0x1CD JUMPI DUP1 PUSH4 0x6F77926B EQ PUSH2 0x1EB JUMPI JUMPDEST PUSH1 0x0 DUP1 REVERT JUMPDEST PUSH2 0x161 PUSH1 0x4 DUP1 CALLDATASIZE SUB DUP2 ADD SWAP1 PUSH2 0x15C SWAP2 SWAP1 PUSH2 0x26E5 JUMP JUMPDEST PUSH2 0x476 JUMP JUMPDEST PUSH1 0x40 MLOAD PUSH2 0x173 SWAP7 SWAP6 SWAP5 SWAP4 SWAP3 SWAP2 SWAP1 PUSH2 0x27CC JUMP JUMPDEST PUSH1 0x40 MLOAD DUP1 SWAP2 SUB SWAP1 RETURN JUMPDEST PUSH2 0x196 PUSH1 0x4 DUP1 CALLDATASIZE SUB DUP2 ADD SWAP1 PUSH2 0x191 SWAP2 SWAP1 PUSH2 0x26E5 JUMP JUMPDEST PUSH2 0x631 JUMP JUMPDEST STOP JUMPDEST PUSH2 0x1B2 PUSH1 0x4 DUP1 CALLDATASIZE SUB DUP2 ADD SWAP1 PUSH2 0x1AD SWAP2 SWAP1 PUSH2 0x26E5 JUMP JUMPDEST PUSH2 0x913 JUMP JUMPDEST PUSH1 0x40 MLOAD PUSH2 0x1C4 SWAP7 SWAP6 SWAP5 SWAP4 SWAP3 SWAP2 SWAP1 PUSH2 0x2857 JUMP JUMPDEST PUSH1 0x40 MLOAD DUP1 SWAP2 SUB SWAP1 RETURN JUMPDEST PUSH2 0x1D5 PUSH2 0xA0B JUMP JUMPDEST PUSH1 0x40 MLOAD PUSH2 0x1E2 SWAP2 SWAP1 PUSH2 0x2A81 JUMP JUMPDEST PUSH1 0x40 MLOAD DUP1 SWAP2 SUB SWAP1 RETURN JUMPDEST PUSH2 0x205 PUSH1 0x4 DUP1 CALLDATASIZE SUB DUP2 ADD SWAP1 PUSH2 0x200 SWAP2 SWAP1 PUSH2 0x2B01 JUMP JUMPDEST PUSH2 0xD39 JUMP JUMPDEST PUSH1 0x40 MLOAD PUSH2 0x212 SWAP2 SWAP1 PUSH2 0x2BF6 JUMP JUMPDEST PUSH1 0x40 MLOAD DUP1 SWAP2 SUB SWAP1 RETURN JUMPDEST PUSH2 0x235 PUSH1 0x4 DUP1 CALLDATASIZE SUB DUP2 ADD SWAP1 PUSH2 0x230 SWAP2 SWAP1 PUSH2 0x2C3D JUMP JUMPDEST PUSH2 0xED3 JUMP JUMPDEST STOP JUMPDEST PUSH2 0x251 PUSH1 0x4 DUP1 CALLDATASIZE SUB DUP2 ADD SWAP1 PUSH2 0x24C SWAP2 SWAP1 PUSH2 0x26E5 JUMP JUMPDEST PUSH2 0x1221 JUMP JUMPDEST PUSH1 0x40 MLOAD PUSH2 0x263 SWAP7 SWAP6 SWAP5 SWAP4 SWAP3 SWAP2 SWAP1 PUSH2 0x2857 JUMP JUMPDEST PUSH1 0x40 MLOAD DUP1 SWAP2 SUB SWAP1 RETURN JUMPDEST PUSH2 0x274 PUSH2 0x1379 JUMP JUMPDEST PUSH1 0x40 MLOAD PUSH2 0x281 SWAP2 SWAP1 PUSH2 0x2D53 JUMP JUMPDEST PUSH1 0x40 MLOAD DUP1 SWAP2 SUB SWAP1 RETURN JUMPDEST PUSH2 0x292 PUSH2 0x16B1 JUMP JUMPDEST PUSH1 0x40 MLOAD PUSH2 0x29F SWAP2 SWAP1 PUSH2 0x2D75 JUMP JUMPDEST PUSH1 0x40 MLOAD DUP1 SWAP2 SUB SWAP1 RETURN JUMPDEST PUSH2 0x2C2 PUSH1 0x4 DUP1 CALLDATASIZE SUB DUP2 ADD SWAP1 PUSH2 0x2BD SWAP2 SWAP1 PUSH2 0x2EC5 JUMP JUMPDEST PUSH2 0x16B7 JUMP JUMPDEST STOP JUMPDEST PUSH2 0x2CC PUSH2 0x17E0 JUMP JUMPDEST PUSH1 0x40 MLOAD PUSH2 0x2D9 SWAP2 SWAP1 PUSH2 0x2D75 JUMP JUMPDEST PUSH1 0x40 MLOAD DUP1 SWAP2 SUB SWAP1 RETURN JUMPDEST PUSH2 0x2FC PUSH1 0x4 DUP1 CALLDATASIZE SUB DUP2 ADD SWAP1 PUSH2 0x2F7 SWAP2 SWAP1 PUSH2 0x26E5 JUMP JUMPDEST PUSH2 0x17E6 JUMP JUMPDEST PUSH1 0x40 MLOAD PUSH2 0x30E SWAP7 SWAP6 SWAP5 SWAP4 SWAP3 SWAP2 SWAP1 PUSH2 0x27CC JUMP JUMPDEST PUSH1 0x40 MLOAD DUP1 SWAP2 SUB SWAP1 RETURN JUMPDEST PUSH2 0x331 PUSH1 0x4 DUP1 CALLDATASIZE SUB DUP2 ADD SWAP1 PUSH2 0x32C SWAP2 SWAP1 PUSH2 0x26E5 JUMP JUMPDEST PUSH2 0x193F JUMP JUMPDEST STOP JUMPDEST PUSH2 0x34D PUSH1 0x4 DUP1 CALLDATASIZE SUB DUP2 ADD SWAP1 PUSH2 0x348 SWAP2 SWAP1 PUSH2 0x2F89 JUMP JUMPDEST PUSH2 0x1A4D JUMP JUMPDEST STOP JUMPDEST PUSH2 0x369 PUSH1 0x4 DUP1 CALLDATASIZE SUB DUP2 ADD SWAP1 PUSH2 0x364 SWAP2 SWAP1 PUSH2 0x2FC9 JUMP JUMPDEST PUSH2 0x1BEA JUMP JUMPDEST STOP JUMPDEST PUSH2 0x385 PUSH1 0x4 DUP1 CALLDATASIZE SUB DUP2 ADD SWAP1 PUSH2 0x380 SWAP2 SWAP1 PUSH2 0x2B01 JUMP JUMPDEST PUSH2 0x1CB8 JUMP JUMPDEST PUSH1 0x40 MLOAD PUSH2 0x394 SWAP4 SWAP3 SWAP2 SWAP1 PUSH2 0x3072 JUMP JUMPDEST PUSH1 0x40 MLOAD DUP1 SWAP2 SUB SWAP1 RETURN JUMPDEST PUSH2 0x3B7 PUSH1 0x4 DUP1 CALLDATASIZE SUB DUP2 ADD SWAP1 PUSH2 0x3B2 SWAP2 SWAP1 PUSH2 0x30A9 JUMP JUMPDEST PUSH2 0x1D1C JUMP JUMPDEST STOP JUMPDEST PUSH2 0x3D3 PUSH1 0x4 DUP1 CALLDATASIZE SUB DUP2 ADD SWAP1 PUSH2 0x3CE SWAP2 SWAP1 PUSH2 0x2B01 JUMP JUMPDEST PUSH2 0x1FF0 JUMP JUMPDEST PUSH1 0x40 MLOAD PUSH2 0x3E0 SWAP2 SWAP1 PUSH2 0x3124 JUMP JUMPDEST PUSH1 0x40 MLOAD DUP1 SWAP2 SUB SWAP1 RETURN JUMPDEST PUSH2 0x3F1 PUSH2 0x2049 JUMP JUMPDEST PUSH1 0x40 MLOAD PUSH2 0x3FE SWAP2 SWAP1 PUSH2 0x2D53 JUMP JUMPDEST PUSH1 0x40 MLOAD DUP1 SWAP2 SUB SWAP1 RETURN JUMPDEST PUSH2 0x421 PUSH1 0x4 DUP1 CALLDATASIZE SUB DUP2 ADD SWAP1 PUSH2 0x41C SWAP2 SWAP1 PUSH2 0x313F JUMP JUMPDEST PUSH2 0x21B6 JUMP JUMPDEST STOP JUMPDEST PUSH2 0x43D PUSH1 0x4 DUP1 CALLDATASIZE SUB DUP2 ADD SWAP1 PUSH2 0x438 SWAP2 SWAP1 PUSH2 0x313F JUMP JUMPDEST PUSH2 0x23C3 JUMP JUMPDEST PUSH1 0x40 MLOAD PUSH2 0x44F SWAP7 SWAP6 SWAP5 SWAP4 SWAP3 SWAP2 SWAP1 PUSH2 0x2857 JUMP JUMPDEST PUSH1 0x40 MLOAD DUP1 SWAP2 SUB SWAP1 RETURN JUMPDEST PUSH2 0x460 PUSH2 0x25E9 JUMP JUMPDEST PUSH1 0x40 MLOAD PUSH2 0x46D SWAP2 SWAP1 PUSH2 0x317F JUMP JUMPDEST PUSH1 0x40 MLOAD DUP1 SWAP2 SUB SWAP1 RETURN JUMPDEST PUSH1 0x0 PUSH1 0x60 DUP1 PUSH1 0x0 DUP1 PUSH1 0x0 PUSH1 0x3 SLOAD DUP8 LT PUSH2 0x4C4 JUMPI PUSH1 0x40 MLOAD PUSH32 0x8C379A000000000000000000000000000000000000000000000000000000000 DUP2 MSTORE PUSH1 0x4 ADD PUSH2 0x4BB SWAP1 PUSH2 0x31E6 JUMP JUMPDEST PUSH1 0x40 MLOAD DUP1 SWAP2 SUB SWAP1 REVERT JUMPDEST PUSH1 0x0 DUP1 PUSH1 0x0 DUP10 DUP2 MSTORE PUSH1 0x20 ADD SWAP1 DUP2 MSTORE PUSH1 0x20 ADD PUSH1 0x0 KECCAK256 SWAP1 POP DUP1 PUSH1 0x0 ADD SLOAD DUP2 PUSH1 0x1 ADD DUP3 PUSH1 0x2 ADD DUP4 PUSH1 0x3 ADD SLOAD DUP5 PUSH1 0x4 ADD PUSH1 0x0 SWAP1 SLOAD SWAP1 PUSH2 0x100 EXP SWAP1 DIV PUSH1 0xFF AND DUP6 PUSH1 0x5 ADD SLOAD DUP5 DUP1 SLOAD PUSH2 0x50F SWAP1 PUSH2 0x3235 JUMP JUMPDEST DUP1 PUSH1 0x1F ADD PUSH1 0x20 DUP1 SWAP2 DIV MUL PUSH1 0x20 ADD PUSH1 0x40 MLOAD SWAP1 DUP2 ADD PUSH1 0x40 MSTORE DUP1 SWAP3 SWAP2 SWAP1 DUP2 DUP2 MSTORE PUSH1 0x20 ADD DUP3 DUP1 SLOAD PUSH2 0x53B SWAP1 PUSH2 0x3235 JUMP JUMPDEST DUP1 ISZERO PUSH2 0x588 JUMPI DUP1 PUSH1 0x1F LT PUSH2 0x55D JUMPI PUSH2 0x100 DUP1 DUP4 SLOAD DIV MUL DUP4 MSTORE SWAP2 PUSH1 0x20 ADD SWAP2 PUSH2 0x588 JUMP JUMPDEST DUP3 ADD SWAP2 SWAP1 PUSH1 0x0 MSTORE PUSH1 0x20 PUSH1 0x0 KECCAK256 SWAP1 JUMPDEST DUP2 SLOAD DUP2 MSTORE SWAP1 PUSH1 0x1 ADD SWAP1 PUSH1 0x20 ADD DUP1 DUP4 GT PUSH2 0x56B JUMPI DUP3 SWAP1 SUB PUSH1 0x1F AND DUP3 ADD SWAP2 JUMPDEST POP POP POP POP POP SWAP5 POP DUP4 DUP1 SLOAD PUSH2 0x59B SWAP1 PUSH2 0x3235 JUMP JUMPDEST DUP1 PUSH1 0x1F ADD PUSH1 0x20 DUP1 SWAP2 DIV MUL PUSH1 0x20 ADD PUSH1 0x40 MLOAD SWAP1 DUP2 ADD PUSH1 0x40 MSTORE DUP1 SWAP3 SWAP2 SWAP1 DUP2 DUP2 MSTORE PUSH1 0x20 ADD DUP3 DUP1 SLOAD PUSH2 0x5C7 SWAP1 PUSH2 0x3235 JUMP JUMPDEST DUP1 ISZERO PUSH2 0x614 JUMPI DUP1 PUSH1 0x1F LT PUSH2 0x5E9 JUMPI PUSH2 0x100 DUP1 DUP4 SLOAD DIV MUL DUP4 MSTORE SWAP2 PUSH1 0x20 ADD SWAP2 PUSH2 0x614 JUMP JUMPDEST DUP3 ADD SWAP2 SWAP1 PUSH1 0x0 MSTORE PUSH1 0x20 PUSH1 0x0 KECCAK256 SWAP1 JUMPDEST DUP2 SLOAD DUP2 MSTORE SWAP1 PUSH1 0x1 ADD SWAP1 PUSH1 0x20 ADD DUP1 DUP4 GT PUSH2 0x5F7 JUMPI DUP3 SWAP1 SUB PUSH1 0x1F AND DUP3 ADD SWAP2 JUMPDEST POP POP POP POP POP SWAP4 POP SWAP7 POP SWAP7 POP SWAP7 POP SWAP7 POP SWAP7 POP SWAP7 POP POP SWAP2 SWAP4 SWAP6 POP SWAP2 SWAP4 SWAP6 JUMP JUMPDEST PUSH1 0x3 SLOAD DUP2 LT PUSH2 0x675 JUMPI PUSH1 0x40 MLOAD PUSH32 0x8C379A000000000000000000000000000000000000000000000000000000000 DUP2 MSTORE PUSH1 0x4 ADD PUSH2 0x66C SWAP1 PUSH2 0x31E6 JUMP JUMPDEST PUSH1 0x40 MLOAD DUP1 SWAP2 SUB SWAP1 REVERT JUMPDEST PUSH1 0x0 DUP1 DUP3 DUP2 MSTORE PUSH1 0x20 ADD SWAP1 DUP2 MSTORE PUSH1 0x20 ADD PUSH1 0x0 KECCAK256 PUSH1 0x4 ADD PUSH1 0x0 SWAP1 SLOAD SWAP1 PUSH2 0x100 EXP SWAP1 DIV PUSH1 0xFF AND PUSH2 0x6D7 JUMPI PUSH1 0x40 MLOAD PUSH32 0x8C379A000000000000000000000000000000000000000000000000000000000 DUP2 MSTORE PUSH1 0x4 ADD PUSH2 0x6CE SWAP1 PUSH2 0x32D8 JUMP JUMPDEST PUSH1 0x40 MLOAD DUP1 SWAP2 SUB SWAP1 REVERT JUMPDEST PUSH1 0x0 PUSH1 0x2 DUP2 GT ISZERO PUSH2 0x6EB JUMPI PUSH2 0x6EA PUSH2 0x2B3D JUMP JUMPDEST JUMPDEST PUSH1 0x1 PUSH1 0x0 CALLER PUSH20 0xFFFFFFFFFFFFFFFFFFFFFFFFFFFFFFFFFFFFFFFF AND PUSH20 0xFFFFFFFFFFFFFFFFFFFFFFFFFFFFFFFFFFFFFFFF AND DUP2 MSTORE PUSH1 0x20 ADD SWAP1 DUP2 MSTORE PUSH1 0x20 ADD PUSH1 0x0 KECCAK256 PUSH1 0x0 ADD PUSH1 0x14 SWAP1 SLOAD SWAP1 PUSH2 0x100 EXP SWAP1 DIV PUSH1 0xFF AND PUSH1 0x2 DUP2 GT ISZERO PUSH2 0x74D JUMPI PUSH2 0x74C PUSH2 0x2B3D JUMP JUMPDEST JUMPDEST EQ PUSH2 0x78D JUMPI PUSH1 0x40 MLOAD PUSH32 0x8C379A000000000000000000000000000000000000000000000000000000000 DUP2 MSTORE PUSH1 0x4 ADD PUSH2 0x784 SWAP1 PUSH2 0x336A JUMP JUMPDEST PUSH1 0x40 MLOAD DUP1 SWAP2 SUB SWAP1 REVERT JUMPDEST PUSH1 0x0 DUP1 PUSH1 0x0 DUP4 DUP2 MSTORE PUSH1 0x20 ADD SWAP1 DUP2 MSTORE PUSH1 0x20 ADD PUSH1 0x0 KECCAK256 SWAP1 POP PUSH1 0x0 JUMPDEST DUP2 PUSH1 0x6 ADD DUP1 SLOAD SWAP1 POP DUP2 LT ISZERO PUSH2 0x870 JUMPI CALLER PUSH20 0xFFFFFFFFFFFFFFFFFFFFFFFFFFFFFFFFFFFFFFFF AND DUP3 PUSH1 0x6 ADD DUP3 DUP2 SLOAD DUP2 LT PUSH2 0x7E2 JUMPI PUSH2 0x7E1 PUSH2 0x338A JUMP JUMPDEST JUMPDEST SWAP1 PUSH1 0x0 MSTORE PUSH1 0x20 PUSH1 0x0 KECCAK256 ADD PUSH1 0x0 SWAP1 SLOAD SWAP1 PUSH2 0x100 EXP SWAP1 DIV PUSH20 0xFFFFFFFFFFFFFFFFFFFFFFFFFFFFFFFFFFFFFFFF AND PUSH20 0xFFFFFFFFFFFFFFFFFFFFFFFFFFFFFFFFFFFFFFFF AND SUB PUSH2 0x863 JUMPI PUSH1 0x40 MLOAD PUSH32 0x8C379A000000000000000000000000000000000000000000000000000000000 DUP2 MSTORE PUSH1 0x4 ADD PUSH2 0x85A SWAP1 PUSH2 0x342B JUMP JUMPDEST PUSH1 0x40 MLOAD DUP1 SWAP2 SUB SWAP1 REVERT JUMPDEST DUP1 DUP1 PUSH1 0x1 ADD SWAP2 POP POP PUSH2 0x7A6 JUMP JUMPDEST POP DUP1 PUSH1 0x6 ADD CALLER SWAP1 DUP1 PUSH1 0x1 DUP2 SLOAD ADD DUP1 DUP3 SSTORE DUP1 SWAP2 POP POP PUSH1 0x1 SWAP1 SUB SWAP1 PUSH1 0x0 MSTORE PUSH1 0x20 PUSH1 0x0 KECCAK256 ADD PUSH1 0x0 SWAP1 SWAP2 SWAP1 SWAP2 SWAP1 SWAP2 PUSH2 0x100 EXP DUP2 SLOAD DUP2 PUSH20 0xFFFFFFFFFFFFFFFFFFFFFFFFFFFFFFFFFFFFFFFF MUL NOT AND SWAP1 DUP4 PUSH20 0xFFFFFFFFFFFFFFFFFFFFFFFFFFFFFFFFFFFFFFFF AND MUL OR SWAP1 SSTORE POP PUSH32 0x5978A47CE47CDEB8A43A1794142DD16F2F94E95103BD104783A42725C7FE8CFF DUP3 CALLER PUSH1 0x40 MLOAD PUSH2 0x907 SWAP3 SWAP2 SWAP1 PUSH2 0x344B JUMP JUMPDEST PUSH1 0x40 MLOAD DUP1 SWAP2 SUB SWAP1 LOG1 POP POP JUMP JUMPDEST PUSH1 0x2 PUSH1 0x20 MSTORE DUP1 PUSH1 0x0 MSTORE PUSH1 0x40 PUSH1 0x0 KECCAK256 PUSH1 0x0 SWAP2 POP SWAP1 POP DUP1 PUSH1 0x0 ADD SLOAD SWAP1 DUP1 PUSH1 0x1 ADD PUSH1 0x0 SWAP1 SLOAD SWAP1 PUSH2 0x100 EXP SWAP1 DIV PUSH1 0xFF AND SWAP1 DUP1 PUSH1 0x1 ADD PUSH1 0x1 SWAP1 SLOAD SWAP1 PUSH2 0x100 EXP SWAP1 DIV PUSH1 0xFF AND SWAP1 DUP1 PUSH1 0x1 ADD PUSH1 0x2 SWAP1 SLOAD SWAP1 PUSH2 0x100 EXP SWAP1 DIV PUSH1 0xFF AND SWAP1 DUP1 PUSH1 0x2 ADD DUP1 SLOAD PUSH2 0x975 SWAP1 PUSH2 0x3235 JUMP JUMPDEST DUP1 PUSH1 0x1F ADD PUSH1 0x20 DUP1 SWAP2 DIV MUL PUSH1 0x20 ADD PUSH1 0x40 MLOAD SWAP1 DUP2 ADD PUSH1 0x40 MSTORE DUP1 SWAP3 SWAP2 SWAP1 DUP2 DUP2 MSTORE PUSH1 0x20 ADD DUP3 DUP1 SLOAD PUSH2 0x9A1 SWAP1 PUSH2 0x3235 JUMP JUMPDEST DUP1 ISZERO PUSH2 0x9EE JUMPI DUP1 PUSH1 0x1F LT PUSH2 0x9C3 JUMPI PUSH2 0x100 DUP1 DUP4 SLOAD DIV MUL DUP4 MSTORE SWAP2 PUSH1 0x20 ADD SWAP2 PUSH2 0x9EE JUMP JUMPDEST DUP3 ADD SWAP2 SWAP1 PUSH1 0x0 MSTORE PUSH1 0x20 PUSH1 0x0 KECCAK256 SWAP1 JUMPDEST DUP2 SLOAD DUP2 MSTORE SWAP1 PUSH1 0x1 ADD SWAP1 PUSH1 0x20 ADD DUP1 DUP4 GT PUSH2 0x9D1 JUMPI DUP3 SWAP1 SUB PUSH1 0x1F AND DUP3 ADD SWAP2 JUMPDEST POP POP POP POP POP SWAP1 DUP1 PUSH1 0x3 ADD PUSH1 0x0 SWAP1 SLOAD SWAP1 PUSH2 0x100 EXP SWAP1 DIV PUSH1 0xFF AND SWAP1 POP DUP7 JUMP JUMPDEST PUSH1 0x60 PUSH1 0x0 DUP1 JUMPDEST PUSH1 0x3 SLOAD DUP2 LT ISZERO PUSH2 0xACF JUMPI PUSH1 0x0 DUP1 DUP3 DUP2 MSTORE PUSH1 0x20 ADD SWAP1 DUP2 MSTORE PUSH1 0x20 ADD PUSH1 0x0 KECCAK256 PUSH1 0x4 ADD PUSH1 0x0 SWAP1 SLOAD SWAP1 PUSH2 0x100 EXP SWAP1 DIV PUSH1 0xFF AND ISZERO PUSH2 0xAC2 JUMPI PUSH1 0x0 JUMPDEST PUSH1 0x0 DUP1 DUP4 DUP2 MSTORE PUSH1 0x20 ADD SWAP1 DUP2 MSTORE PUSH1 0x20 ADD PUSH1 0x0 KECCAK256 PUSH1 0x5 ADD SLOAD DUP2 GT PUSH2 0xAC0 JUMPI PUSH1 0x0 DUP1 DUP4 DUP2 MSTORE PUSH1 0x20 ADD SWAP1 DUP2 MSTORE PUSH1 0x20 ADD PUSH1 0x0 KECCAK256 PUSH1 0x7 ADD PUSH1 0x0 DUP3 DUP2 MSTORE PUSH1 0x20 ADD SWAP1 DUP2 MSTORE PUSH1 0x20 ADD PUSH1 0x0 KECCAK256 PUSH1 0x3 ADD PUSH1 0x0 SWAP1 SLOAD SWAP1 PUSH2 0x100 EXP SWAP1 DIV PUSH1 0xFF AND ISZERO PUSH2 0xAAD JUMPI DUP3 DUP1 PUSH2 0xAA9 SWAP1 PUSH2 0x34A3 JUMP JUMPDEST SWAP4 POP POP JUMPDEST DUP1 DUP1 PUSH2 0xAB8 SWAP1 PUSH2 0x34A3 JUMP JUMPDEST SWAP2 POP POP PUSH2 0xA46 JUMP JUMPDEST POP JUMPDEST DUP1 DUP1 PUSH1 0x1 ADD SWAP2 POP POP PUSH2 0xA11 JUMP JUMPDEST POP PUSH1 0x0 DUP2 PUSH8 0xFFFFFFFFFFFFFFFF DUP2 GT ISZERO PUSH2 0xAEC JUMPI PUSH2 0xAEB PUSH2 0x2D9A JUMP JUMPDEST JUMPDEST PUSH1 0x40 MLOAD SWAP1 DUP1 DUP3 MSTORE DUP1 PUSH1 0x20 MUL PUSH1 0x20 ADD DUP3 ADD PUSH1 0x40 MSTORE DUP1 ISZERO PUSH2 0xB25 JUMPI DUP2 PUSH1 0x20 ADD JUMPDEST PUSH2 0xB12 PUSH2 0x260F JUMP JUMPDEST DUP2 MSTORE PUSH1 0x20 ADD SWAP1 PUSH1 0x1 SWAP1 SUB SWAP1 DUP2 PUSH2 0xB0A JUMPI SWAP1 POP JUMPDEST POP SWAP1 POP PUSH1 0x0 DUP1 JUMPDEST PUSH1 0x3 SLOAD DUP2 LT ISZERO PUSH2 0xD2F JUMPI PUSH1 0x0 DUP1 DUP3 DUP2 MSTORE PUSH1 0x20 ADD SWAP1 DUP2 MSTORE PUSH1 0x20 ADD PUSH1 0x0 KECCAK256 PUSH1 0x4 ADD PUSH1 0x0 SWAP1 SLOAD SWAP1 PUSH2 0x100 EXP SWAP1 DIV PUSH1 0xFF AND ISZERO PUSH2 0xD22 JUMPI PUSH1 0x0 DUP1 PUSH1 0x0 DUP4 DUP2 MSTORE PUSH1 0x20 ADD SWAP1 DUP2 MSTORE PUSH1 0x20 ADD PUSH1 0x0 KECCAK256 SWAP1 POP PUSH1 0x0 PUSH1 0x1 SWAP1 POP JUMPDEST DUP2 PUSH1 0x5 ADD SLOAD DUP2 GT PUSH2 0xD1F JUMPI DUP2 PUSH1 0x7 ADD PUSH1 0x0 DUP3 DUP2 MSTORE PUSH1 0x20 ADD SWAP1 DUP2 MSTORE PUSH1 0x20 ADD PUSH1 0x0 KECCAK256 PUSH1 0x3 ADD PUSH1 0x0 SWAP1 SLOAD SWAP1 PUSH2 0x100 EXP SWAP1 DIV PUSH1 0xFF AND ISZERO PUSH2 0xD0C JUMPI DUP2 PUSH1 0x7 ADD PUSH1 0x0 DUP3 DUP2 MSTORE PUSH1 0x20 ADD SWAP1 DUP2 MSTORE PUSH1 0x20 ADD PUSH1 0x0 KECCAK256 PUSH1 0x40 MLOAD DUP1 PUSH1 0xC0 ADD PUSH1 0x40 MSTORE SWAP1 DUP2 PUSH1 0x0 DUP3 ADD SLOAD DUP2 MSTORE PUSH1 0x20 ADD PUSH1 0x1 DUP3 ADD PUSH1 0x0 SWAP1 SLOAD SWAP1 PUSH2 0x100 EXP SWAP1 DIV PUSH1 0xFF AND PUSH1 0xFF AND PUSH1 0xFF AND DUP2 MSTORE PUSH1 0x20 ADD PUSH1 0x1 DUP3 ADD PUSH1 0x1 SWAP1 SLOAD SWAP1 PUSH2 0x100 EXP SWAP1 DIV PUSH1 0xFF AND PUSH1 0xFF AND PUSH1 0xFF AND DUP2 MSTORE PUSH1 0x20 ADD PUSH1 0x1 DUP3 ADD PUSH1 0x2 SWAP1 SLOAD SWAP1 PUSH2 0x100 EXP SWAP1 DIV PUSH1 0xFF AND PUSH1 0xFF AND PUSH1 0xFF AND DUP2 MSTORE PUSH1 0x20 ADD PUSH1 0x2 DUP3 ADD DUP1 SLOAD PUSH2 0xC42 SWAP1 PUSH2 0x3235 JUMP JUMPDEST DUP1 PUSH1 0x1F ADD PUSH1 0x20 DUP1 SWAP2 DIV MUL PUSH1 0x20 ADD PUSH1 0x40 MLOAD SWAP1 DUP2 ADD PUSH1 0x40 MSTORE DUP1 SWAP3 SWAP2 SWAP1 DUP2 DUP2 MSTORE PUSH1 0x20 ADD DUP3 DUP1 SLOAD PUSH2 0xC6E SWAP1 PUSH2 0x3235 JUMP JUMPDEST DUP1 ISZERO PUSH2 0xCBB JUMPI DUP1 PUSH1 0x1F LT PUSH2 0xC90 JUMPI PUSH2 0x100 DUP1 DUP4 SLOAD DIV MUL DUP4 MSTORE SWAP2 PUSH1 0x20 ADD SWAP2 PUSH2 0xCBB JUMP JUMPDEST DUP3 ADD SWAP2 SWAP1 PUSH1 0x0 MSTORE PUSH1 0x20 PUSH1 0x0 KECCAK256 SWAP1 JUMPDEST DUP2 SLOAD DUP2 MSTORE SWAP1 PUSH1 0x1 ADD SWAP1 PUSH1 0x20 ADD DUP1 DUP4 GT PUSH2 0xC9E JUMPI DUP3 SWAP1 SUB PUSH1 0x1F AND DUP3 ADD SWAP2 JUMPDEST POP POP POP POP POP DUP2 MSTORE PUSH1 0x20 ADD PUSH1 0x3 DUP3 ADD PUSH1 0x0 SWAP1 SLOAD SWAP1 PUSH2 0x100 EXP SWAP1 DIV PUSH1 0xFF AND ISZERO ISZERO ISZERO ISZERO DUP2 MSTORE POP POP DUP6 DUP6 DUP2 MLOAD DUP2 LT PUSH2 0xCF2 JUMPI PUSH2 0xCF1 PUSH2 0x338A JUMP JUMPDEST JUMPDEST PUSH1 0x20 MUL PUSH1 0x20 ADD ADD DUP2 SWAP1 MSTORE POP DUP4 DUP1 PUSH2 0xD08 SWAP1 PUSH2 0x34A3 JUMP JUMPDEST SWAP5 POP POP JUMPDEST DUP1 DUP1 PUSH2 0xD17 SWAP1 PUSH2 0x34A3 JUMP JUMPDEST SWAP2 POP POP PUSH2 0xB7B JUMP JUMPDEST POP POP JUMPDEST DUP1 DUP1 PUSH1 0x1 ADD SWAP2 POP POP PUSH2 0xB2C JUMP JUMPDEST POP DUP2 SWAP4 POP POP POP POP SWAP1 JUMP JUMPDEST PUSH2 0xD41 PUSH2 0x2650 JUMP JUMPDEST PUSH1 0x1 PUSH1 0x0 DUP4 PUSH20 0xFFFFFFFFFFFFFFFFFFFFFFFFFFFFFFFFFFFFFFFF AND PUSH20 0xFFFFFFFFFFFFFFFFFFFFFFFFFFFFFFFFFFFFFFFF AND DUP2 MSTORE PUSH1 0x20 ADD SWAP1 DUP2 MSTORE PUSH1 0x20 ADD PUSH1 0x0 KECCAK256 PUSH1 0x0 ADD PUSH1 0x15 SWAP1 SLOAD SWAP1 PUSH2 0x100 EXP SWAP1 DIV PUSH1 0xFF AND PUSH2 0xDD0 JUMPI PUSH1 0x40 MLOAD PUSH32 0x8C379A000000000000000000000000000000000000000000000000000000000 DUP2 MSTORE PUSH1 0x4 ADD PUSH2 0xDC7 SWAP1 PUSH2 0x3537 JUMP JUMPDEST PUSH1 0x40 MLOAD DUP1 SWAP2 SUB SWAP1 REVERT JUMPDEST PUSH1 0x0 PUSH1 0x1 PUSH1 0x0 DUP5 PUSH20 0xFFFFFFFFFFFFFFFFFFFFFFFFFFFFFFFFFFFFFFFF AND PUSH20 0xFFFFFFFFFFFFFFFFFFFFFFFFFFFFFFFFFFFFFFFF AND DUP2 MSTORE PUSH1 0x20 ADD SWAP1 DUP2 MSTORE PUSH1 0x20 ADD PUSH1 0x0 KECCAK256 PUSH1 0x40 MLOAD DUP1 PUSH1 0x60 ADD PUSH1 0x40 MSTORE SWAP1 DUP2 PUSH1 0x0 DUP3 ADD PUSH1 0x0 SWAP1 SLOAD SWAP1 PUSH2 0x100 EXP SWAP1 DIV PUSH20 0xFFFFFFFFFFFFFFFFFFFFFFFFFFFFFFFFFFFFFFFF AND PUSH20 0xFFFFFFFFFFFFFFFFFFFFFFFFFFFFFFFFFFFFFFFF AND PUSH20 0xFFFFFFFFFFFFFFFFFFFFFFFFFFFFFFFFFFFFFFFF AND DUP2 MSTORE PUSH1 0x20 ADD PUSH1 0x0 DUP3 ADD PUSH1 0x14 SWAP1 SLOAD SWAP1 PUSH2 0x100 EXP SWAP1 DIV PUSH1 0xFF AND PUSH1 0x2 DUP2 GT ISZERO PUSH2 0xE97 JUMPI PUSH2 0xE96 PUSH2 0x2B3D JUMP JUMPDEST JUMPDEST PUSH1 0x2 DUP2 GT ISZERO PUSH2 0xEA9 JUMPI PUSH2 0xEA8 PUSH2 0x2B3D JUMP JUMPDEST JUMPDEST DUP2 MSTORE PUSH1 0x20 ADD PUSH1 0x0 DUP3 ADD PUSH1 0x15 SWAP1 SLOAD SWAP1 PUSH2 0x100 EXP SWAP1 DIV PUSH1 0xFF AND ISZERO ISZERO ISZERO ISZERO DUP2 MSTORE POP POP SWAP1 POP DUP1 SWAP2 POP POP SWAP2 SWAP1 POP JUMP JUMPDEST PUSH1 0x3 SLOAD DUP5 LT PUSH2 0xF17 JUMPI PUSH1 0x40 MLOAD PUSH32 0x8C379A000000000000000000000000000000000000000000000000000000000 DUP2 MSTORE PUSH1 0x4 ADD PUSH2 0xF0E SWAP1 PUSH2 0x31E6 JUMP JUMPDEST PUSH1 0x40 MLOAD DUP1 SWAP2 SUB SWAP1 REVERT JUMPDEST PUSH1 0x0 DUP1 DUP6 DUP2 MSTORE PUSH1 0x20 ADD SWAP1 DUP2 MSTORE PUSH1 0x20 ADD PUSH1 0x0 KECCAK256 PUSH1 0x4 ADD PUSH1 0x0 SWAP1 SLOAD SWAP1 PUSH2 0x100 EXP SWAP1 DIV PUSH1 0xFF AND PUSH2 0xF79 JUMPI PUSH1 0x40 MLOAD PUSH32 0x8C379A000000000000000000000000000000000000000000000000000000000 DUP2 MSTORE PUSH1 0x4 ADD PUSH2 0xF70 SWAP1 PUSH2 0x32D8 JUMP JUMPDEST PUSH1 0x40 MLOAD DUP1 SWAP2 SUB SWAP1 REVERT JUMPDEST PUSH1 0x1 DUP4 PUSH1 0xFF AND LT ISZERO DUP1 ISZERO PUSH2 0xF91 JUMPI POP PUSH1 0x7 DUP4 PUSH1 0xFF AND GT ISZERO JUMPDEST PUSH2 0xFD0 JUMPI PUSH1 0x40 MLOAD PUSH32 0x8C379A000000000000000000000000000000000000000000000000000000000 DUP2 MSTORE PUSH1 0x4 ADD PUSH2 0xFC7 SWAP1 PUSH2 0x35A3 JUMP JUMPDEST PUSH1 0x40 MLOAD DUP1 SWAP2 SUB SWAP1 REVERT JUMPDEST PUSH1 0x18 DUP3 PUSH1 0xFF AND LT DUP1 ISZERO PUSH2 0xFE6 JUMPI POP PUSH1 0x18 DUP2 PUSH1 0xFF AND LT JUMPDEST DUP1 ISZERO PUSH2 0xFF7 JUMPI POP DUP1 PUSH1 0xFF AND DUP3 PUSH1 0xFF AND LT JUMPDEST PUSH2 0x1036 JUMPI PUSH1 0x40 MLOAD PUSH32 0x8C379A000000000000000000000000000000000000000000000000000000000 DUP2 MSTORE PUSH1 0x4 ADD PUSH2 0x102D SWAP1 PUSH2 0x360F JUMP JUMPDEST PUSH1 0x40 MLOAD DUP1 SWAP2 SUB SWAP1 REVERT JUMPDEST PUSH1 0x0 DUP1 PUSH1 0x0 DUP7 DUP2 MSTORE PUSH1 0x20 ADD SWAP1 DUP2 MSTORE PUSH1 0x20 ADD PUSH1 0x0 KECCAK256 SWAP1 POP PUSH1 0x0 PUSH1 0x1 DUP3 PUSH1 0x5 ADD SLOAD PUSH2 0x105F SWAP2 SWAP1 PUSH2 0x362F JUMP JUMPDEST SWAP1 POP PUSH1 0x0 DUP3 PUSH1 0x7 ADD PUSH1 0x0 DUP4 DUP2 MSTORE PUSH1 0x20 ADD SWAP1 DUP2 MSTORE PUSH1 0x20 ADD PUSH1 0x0 KECCAK256 SWAP1 POP DUP2 DUP2 PUSH1 0x0 ADD DUP2 SWAP1 SSTORE POP DUP6 DUP2 PUSH1 0x1 ADD PUSH1 0x0 PUSH2 0x100 EXP DUP2 SLOAD DUP2 PUSH1 0xFF MUL NOT AND SWAP1 DUP4 PUSH1 0xFF AND MUL OR SWAP1 SSTORE POP DUP5 DUP2 PUSH1 0x1 ADD PUSH1 0x1 PUSH2 0x100 EXP DUP2 SLOAD DUP2 PUSH1 0xFF MUL NOT AND SWAP1 DUP4 PUSH1 0xFF AND MUL OR SWAP1 SSTORE POP DUP4 DUP2 PUSH1 0x1 ADD PUSH1 0x2 PUSH2 0x100 EXP DUP2 SLOAD DUP2 PUSH1 0xFF MUL NOT AND SWAP1 DUP4 PUSH1 0xFF AND MUL OR SWAP1 SSTORE POP DUP3 PUSH1 0x1 ADD DUP2 PUSH1 0x2 ADD SWAP1 DUP2 PUSH2 0x10EE SWAP2 SWAP1 PUSH2 0x383A JUMP JUMPDEST POP PUSH1 0x1 DUP2 PUSH1 0x3 ADD PUSH1 0x0 PUSH2 0x100 EXP DUP2 SLOAD DUP2 PUSH1 0xFF MUL NOT AND SWAP1 DUP4 ISZERO ISZERO MUL OR SWAP1 SSTORE POP DUP2 DUP4 PUSH1 0x5 ADD DUP2 SWAP1 SSTORE POP PUSH1 0x0 PUSH1 0x2 PUSH1 0x0 PUSH1 0x4 SLOAD DUP2 MSTORE PUSH1 0x20 ADD SWAP1 DUP2 MSTORE PUSH1 0x20 ADD PUSH1 0x0 KECCAK256 SWAP1 POP PUSH1 0x4 SLOAD DUP2 PUSH1 0x0 ADD DUP2 SWAP1 SSTORE POP DUP7 DUP2 PUSH1 0x1 ADD PUSH1 0x0 PUSH2 0x100 EXP DUP2 SLOAD DUP2 PUSH1 0xFF MUL NOT AND SWAP1 DUP4 PUSH1 0xFF AND MUL OR SWAP1 SSTORE POP DUP6 DUP2 PUSH1 0x1 ADD PUSH1 0x1 PUSH2 0x100 EXP DUP2 SLOAD DUP2 PUSH1 0xFF MUL NOT AND SWAP1 DUP4 PUSH1 0xFF AND MUL OR SWAP1 SSTORE POP DUP5 DUP2 PUSH1 0x1 ADD PUSH1 0x2 PUSH2 0x100 EXP DUP2 SLOAD DUP2 PUSH1 0xFF MUL NOT AND SWAP1 DUP4 PUSH1 0xFF AND MUL OR SWAP1 SSTORE POP DUP4 PUSH1 0x1 ADD DUP2 PUSH1 0x2 ADD SWAP1 DUP2 PUSH2 0x11A4 SWAP2 SWAP1 PUSH2 0x383A JUMP JUMPDEST POP PUSH1 0x1 DUP2 PUSH1 0x3 ADD PUSH1 0x0 PUSH2 0x100 EXP DUP2 SLOAD DUP2 PUSH1 0xFF MUL NOT AND SWAP1 DUP4 ISZERO ISZERO MUL OR SWAP1 SSTORE POP PUSH1 0x4 PUSH1 0x0 DUP2 SLOAD DUP1 SWAP3 SWAP2 SWAP1 PUSH2 0x11D5 SWAP1 PUSH2 0x34A3 JUMP JUMPDEST SWAP2 SWAP1 POP SSTORE POP PUSH32 0x3FF69354BB51BEFB41CB392610BE115187B4AFCFED73D238A16F370C7F20491C DUP9 DUP9 DUP9 DUP9 PUSH1 0x40 MLOAD PUSH2 0x120F SWAP5 SWAP4 SWAP3 SWAP2 SWAP1 PUSH2 0x3922 JUMP JUMPDEST PUSH1 0x40 MLOAD DUP1 SWAP2 SUB SWAP1 LOG1 POP POP POP POP POP POP POP POP JUMP JUMPDEST PUSH1 0x0 DUP1 PUSH1 0x0 DUP1 PUSH1 0x60 PUSH1 0x0 PUSH1 0x4 SLOAD DUP8 LT PUSH2 0x126F JUMPI PUSH1 0x40 MLOAD PUSH32 0x8C379A000000000000000000000000000000000000000000000000000000000 DUP2 MSTORE PUSH1 0x4 ADD PUSH2 0x1266 SWAP1 PUSH2 0x39B3 JUMP JUMPDEST PUSH1 0x40 MLOAD DUP1 SWAP2 SUB SWAP1 REVERT JUMPDEST PUSH1 0x0 PUSH1 0x2 PUSH1 0x0 DUP10 DUP2 MSTORE PUSH1 0x20 ADD SWAP1 DUP2 MSTORE PUSH1 0x20 ADD PUSH1 0x0 KECCAK256 SWAP1 POP DUP1 PUSH1 0x0 ADD SLOAD DUP2 PUSH1 0x1 ADD PUSH1 0x0 SWAP1 SLOAD SWAP1 PUSH2 0x100 EXP SWAP1 DIV PUSH1 0xFF AND DUP3 PUSH1 0x1 ADD PUSH1 0x1 SWAP1 SLOAD SWAP1 PUSH2 0x100 EXP SWAP1 DIV PUSH1 0xFF AND DUP4 PUSH1 0x1 ADD PUSH1 0x2 SWAP1 SLOAD SWAP1 PUSH2 0x100 EXP SWAP1 DIV PUSH1 0xFF AND DUP5 PUSH1 0x2 ADD DUP6 PUSH1 0x3 ADD PUSH1 0x0 SWAP1 SLOAD SWAP1 PUSH2 0x100 EXP SWAP1 DIV PUSH1 0xFF AND DUP2 DUP1 SLOAD PUSH2 0x12E3 SWAP1 PUSH2 0x3235 JUMP JUMPDEST DUP1 PUSH1 0x1F ADD PUSH1 0x20 DUP1 SWAP2 DIV MUL PUSH1 0x20 ADD PUSH1 0x40 MLOAD SWAP1 DUP2 ADD PUSH1 0x40 MSTORE DUP1 SWAP3 SWAP2 SWAP1 DUP2 DUP2 MSTORE PUSH1 0x20 ADD DUP3 DUP1 SLOAD PUSH2 0x130F SWAP1 PUSH2 0x3235 JUMP JUMPDEST DUP1 ISZERO PUSH2 0x135C JUMPI DUP1 PUSH1 0x1F LT PUSH2 0x1331 JUMPI PUSH2 0x100 DUP1 DUP4 SLOAD DIV MUL DUP4 MSTORE SWAP2 PUSH1 0x20 ADD SWAP2 PUSH2 0x135C JUMP JUMPDEST DUP3 ADD SWAP2 SWAP1 PUSH1 0x0 MSTORE PUSH1 0x20 PUSH1 0x0 KECCAK256 SWAP1 JUMPDEST DUP2 SLOAD DUP2 MSTORE SWAP1 PUSH1 0x1 ADD SWAP1 PUSH1 0x20 ADD DUP1 DUP4 GT PUSH2 0x133F JUMPI DUP3 SWAP1 SUB PUSH1 0x1F AND DUP3 ADD SWAP2 JUMPDEST POP POP POP POP POP SWAP2 POP SWAP7 POP SWAP7 POP SWAP7 POP SWAP7 POP SWAP7 POP SWAP7 POP POP SWAP2 SWAP4 SWAP6 POP SWAP2 SWAP4 SWAP6 JUMP JUMPDEST PUSH1 0x60 PUSH1 0x1 PUSH1 0x0 CALLER PUSH20 0xFFFFFFFFFFFFFFFFFFFFFFFFFFFFFFFFFFFFFFFF AND PUSH20 0xFFFFFFFFFFFFFFFFFFFFFFFFFFFFFFFFFFFFFFFF AND DUP2 MSTORE PUSH1 0x20 ADD SWAP1 DUP2 MSTORE PUSH1 0x20 ADD PUSH1 0x0 KECCAK256 PUSH1 0x0 ADD PUSH1 0x15 SWAP1 SLOAD SWAP1 PUSH2 0x100 EXP SWAP1 DIV PUSH1 0xFF AND PUSH2 0x140A JUMPI PUSH1 0x40 MLOAD PUSH32 0x8C379A000000000000000000000000000000000000000000000000000000000 DUP2 MSTORE PUSH1 0x4 ADD PUSH2 0x1401 SWAP1 PUSH2 0x3537 JUMP JUMPDEST PUSH1 0x40 MLOAD DUP1 SWAP2 SUB SWAP1 REVERT JUMPDEST PUSH1 0x0 PUSH1 0x2 DUP2 GT ISZERO PUSH2 0x141E JUMPI PUSH2 0x141D PUSH2 0x2B3D JUMP JUMPDEST JUMPDEST PUSH1 0x1 PUSH1 0x0 CALLER PUSH20 0xFFFFFFFFFFFFFFFFFFFFFFFFFFFFFFFFFFFFFFFF AND PUSH20 0xFFFFFFFFFFFFFFFFFFFFFFFFFFFFFFFFFFFFFFFF AND DUP2 MSTORE PUSH1 0x20 ADD SWAP1 DUP2 MSTORE PUSH1 0x20 ADD PUSH1 0x0 KECCAK256 PUSH1 0x0 ADD PUSH1 0x14 SWAP1 SLOAD SWAP1 PUSH2 0x100 EXP SWAP1 DIV PUSH1 0xFF AND PUSH1 0x2 DUP2 GT ISZERO PUSH2 0x1480 JUMPI PUSH2 0x147F PUSH2 0x2B3D JUMP JUMPDEST JUMPDEST EQ PUSH2 0x14C0 JUMPI PUSH1 0x40 MLOAD PUSH32 0x8C379A000000000000000000000000000000000000000000000000000000000 DUP2 MSTORE PUSH1 0x4 ADD PUSH2 0x14B7 SWAP1 PUSH2 0x3A45 JUMP JUMPDEST PUSH1 0x40 MLOAD DUP1 SWAP2 SUB SWAP1 REVERT JUMPDEST PUSH1 0x0 PUSH1 0x3 SLOAD PUSH8 0xFFFFFFFFFFFFFFFF DUP2 GT ISZERO PUSH2 0x14DE JUMPI PUSH2 0x14DD PUSH2 0x2D9A JUMP JUMPDEST JUMPDEST PUSH1 0x40 MLOAD SWAP1 DUP1 DUP3 MSTORE DUP1 PUSH1 0x20 MUL PUSH1 0x20 ADD DUP3 ADD PUSH1 0x40 MSTORE DUP1 ISZERO PUSH2 0x150C JUMPI DUP2 PUSH1 0x20 ADD PUSH1 0x20 DUP3 MUL DUP1 CALLDATASIZE DUP4 CALLDATACOPY DUP1 DUP3 ADD SWAP2 POP POP SWAP1 POP JUMPDEST POP SWAP1 POP PUSH1 0x0 DUP1 JUMPDEST PUSH1 0x3 SLOAD DUP2 LT ISZERO PUSH2 0x1607 JUMPI PUSH1 0x0 DUP1 PUSH1 0x0 DUP4 DUP2 MSTORE PUSH1 0x20 ADD SWAP1 DUP2 MSTORE PUSH1 0x20 ADD PUSH1 0x0 KECCAK256 SWAP1 POP PUSH1 0x0 JUMPDEST DUP2 PUSH1 0x6 ADD DUP1 SLOAD SWAP1 POP DUP2 LT ISZERO PUSH2 0x15F8 JUMPI CALLER PUSH20 0xFFFFFFFFFFFFFFFFFFFFFFFFFFFFFFFFFFFFFFFF AND DUP3 PUSH1 0x6 ADD DUP3 DUP2 SLOAD DUP2 LT PUSH2 0x1572 JUMPI PUSH2 0x1571 PUSH2 0x338A JUMP JUMPDEST JUMPDEST SWAP1 PUSH1 0x0 MSTORE PUSH1 0x20 PUSH1 0x0 KECCAK256 ADD PUSH1 0x0 SWAP1 SLOAD SWAP1 PUSH2 0x100 EXP SWAP1 DIV PUSH20 0xFFFFFFFFFFFFFFFFFFFFFFFFFFFFFFFFFFFFFFFF AND PUSH20 0xFFFFFFFFFFFFFFFFFFFFFFFFFFFFFFFFFFFFFFFF AND SUB PUSH2 0x15EB JUMPI DUP3 DUP6 DUP6 DUP2 MLOAD DUP2 LT PUSH2 0x15CC JUMPI PUSH2 0x15CB PUSH2 0x338A JUMP JUMPDEST JUMPDEST PUSH1 0x20 MUL PUSH1 0x20 ADD ADD DUP2 DUP2 MSTORE POP POP DUP4 DUP1 PUSH2 0x15E3 SWAP1 PUSH2 0x34A3 JUMP JUMPDEST SWAP5 POP POP PUSH2 0x15F8 JUMP JUMPDEST DUP1 DUP1 PUSH1 0x1 ADD SWAP2 POP POP PUSH2 0x1536 JUMP JUMPDEST POP POP DUP1 DUP1 PUSH1 0x1 ADD SWAP2 POP POP PUSH2 0x1513 JUMP JUMPDEST POP PUSH1 0x0 DUP2 PUSH8 0xFFFFFFFFFFFFFFFF DUP2 GT ISZERO PUSH2 0x1624 JUMPI PUSH2 0x1623 PUSH2 0x2D9A JUMP JUMPDEST JUMPDEST PUSH1 0x40 MLOAD SWAP1 DUP1 DUP3 MSTORE DUP1 PUSH1 0x20 MUL PUSH1 0x20 ADD DUP3 ADD PUSH1 0x40 MSTORE DUP1 ISZERO PUSH2 0x1652 JUMPI DUP2 PUSH1 0x20 ADD PUSH1 0x20 DUP3 MUL DUP1 CALLDATASIZE DUP4 CALLDATACOPY DUP1 DUP3 ADD SWAP2 POP POP SWAP1 POP JUMPDEST POP SWAP1 POP PUSH1 0x0 JUMPDEST DUP3 DUP2 LT ISZERO PUSH2 0x16A7 JUMPI DUP4 DUP2 DUP2 MLOAD DUP2 LT PUSH2 0x1673 JUMPI PUSH2 0x1672 PUSH2 0x338A JUMP JUMPDEST JUMPDEST PUSH1 0x20 MUL PUSH1 0x20 ADD ADD MLOAD DUP3 DUP3 DUP2 MLOAD DUP2 LT PUSH2 0x168E JUMPI PUSH2 0x168D PUSH2 0x338A JUMP JUMPDEST JUMPDEST PUSH1 0x20 MUL PUSH1 0x20 ADD ADD DUP2 DUP2 MSTORE POP POP DUP1 DUP1 PUSH1 0x1 ADD SWAP2 POP POP PUSH2 0x1658 JUMP JUMPDEST POP DUP1 SWAP4 POP POP POP POP SWAP1 JUMP JUMPDEST PUSH1 0x3 SLOAD DUP2 JUMP JUMPDEST PUSH1 0x3 SLOAD DUP5 LT PUSH2 0x16FB JUMPI PUSH1 0x40 MLOAD PUSH32 0x8C379A000000000000000000000000000000000000000000000000000000000 DUP2 MSTORE PUSH1 0x4 ADD PUSH2 0x16F2 SWAP1 PUSH2 0x31E6 JUMP JUMPDEST PUSH1 0x40 MLOAD DUP1 SWAP2 SUB SWAP1 REVERT JUMPDEST PUSH1 0x0 DUP1 DUP6 DUP2 MSTORE PUSH1 0x20 ADD SWAP1 DUP2 MSTORE PUSH1 0x20 ADD PUSH1 0x0 KECCAK256 PUSH1 0x4 ADD PUSH1 0x0 SWAP1 SLOAD SWAP1 PUSH2 0x100 EXP SWAP1 DIV PUSH1 0xFF AND PUSH2 0x175D JUMPI PUSH1 0x40 MLOAD PUSH32 0x8C379A000000000000000000000000000000000000000000000000000000000 DUP2 MSTORE PUSH1 0x4 ADD PUSH2 0x1754 SWAP1 PUSH2 0x32D8 JUMP JUMPDEST PUSH1 0x40 MLOAD DUP1 SWAP2 SUB SWAP1 REVERT JUMPDEST PUSH1 0x0 DUP1 PUSH1 0x0 DUP7 DUP2 MSTORE PUSH1 0x20 ADD SWAP1 DUP2 MSTORE PUSH1 0x20 ADD PUSH1 0x0 KECCAK256 SWAP1 POP DUP4 DUP2 PUSH1 0x1 ADD SWAP1 DUP2 PUSH2 0x1784 SWAP2 SWAP1 PUSH2 0x3A65 JUMP JUMPDEST POP DUP3 DUP2 PUSH1 0x2 ADD SWAP1 DUP2 PUSH2 0x1796 SWAP2 SWAP1 PUSH2 0x3A65 JUMP JUMPDEST POP DUP2 DUP2 PUSH1 0x3 ADD DUP2 SWAP1 SSTORE POP PUSH32 0x61F1B503285F2BAF5AE0EC7BE5C9605A293C9D47BDAF9BDB36FC15C570615FE6 DUP6 DUP6 PUSH1 0x40 MLOAD PUSH2 0x17D1 SWAP3 SWAP2 SWAP1 PUSH2 0x3B37 JUMP JUMPDEST PUSH1 0x40 MLOAD DUP1 SWAP2 SUB SWAP1 LOG1 POP POP POP POP POP JUMP JUMPDEST PUSH1 0x4 SLOAD DUP2 JUMP JUMPDEST PUSH1 0x0 PUSH1 0x20 MSTORE DUP1 PUSH1 0x0 MSTORE PUSH1 0x40 PUSH1 0x0 KECCAK256 PUSH1 0x0 SWAP2 POP SWAP1 POP DUP1 PUSH1 0x0 ADD SLOAD SWAP1 DUP1 PUSH1 0x1 ADD DUP1 SLOAD PUSH2 0x180F SWAP1 PUSH2 0x3235 JUMP JUMPDEST DUP1 PUSH1 0x1F ADD PUSH1 0x20 DUP1 SWAP2 DIV MUL PUSH1 0x20 ADD PUSH1 0x40 MLOAD SWAP1 DUP2 ADD PUSH1 0x40 MSTORE DUP1 SWAP3 SWAP2 SWAP1 DUP2 DUP2 MSTORE PUSH1 0x20 ADD DUP3 DUP1 SLOAD PUSH2 0x183B SWAP1 PUSH2 0x3235 JUMP JUMPDEST DUP1 ISZERO PUSH2 0x1888 JUMPI DUP1 PUSH1 0x1F LT PUSH2 0x185D JUMPI PUSH2 0x100 DUP1 DUP4 SLOAD DIV MUL DUP4 MSTORE SWAP2 PUSH1 0x20 ADD SWAP2 PUSH2 0x1888 JUMP JUMPDEST DUP3 ADD SWAP2 SWAP1 PUSH1 0x0 MSTORE PUSH1 0x20 PUSH1 0x0 KECCAK256 SWAP1 JUMPDEST DUP2 SLOAD DUP2 MSTORE SWAP1 PUSH1 0x1 ADD SWAP1 PUSH1 0x20 ADD DUP1 DUP4 GT PUSH2 0x186B JUMPI DUP3 SWAP1 SUB PUSH1 0x1F AND DUP3 ADD SWAP2 JUMPDEST POP POP POP POP POP SWAP1 DUP1 PUSH1 0x2 ADD DUP1 SLOAD PUSH2 0x189D SWAP1 PUSH2 0x3235 JUMP JUMPDEST DUP1 PUSH1 0x1F ADD PUSH1 0x20 DUP1 SWAP2 DIV MUL PUSH1 0x20 ADD PUSH1 0x40 MLOAD SWAP1 DUP2 ADD PUSH1 0x40 MSTORE DUP1 SWAP3 SWAP2 SWAP1 DUP2 DUP2 MSTORE PUSH1 0x20 ADD DUP3 DUP1 SLOAD PUSH2 0x18C9 SWAP1 PUSH2 0x3235 JUMP JUMPDEST DUP1 ISZERO PUSH2 0x1916 JUMPI DUP1 PUSH1 0x1F LT PUSH2 0x18EB JUMPI PUSH2 0x100 DUP1 DUP4 SLOAD DIV MUL DUP4 MSTORE SWAP2 PUSH1 0x20 ADD SWAP2 PUSH2 0x1916 JUMP JUMPDEST DUP3 ADD SWAP2 SWAP1 PUSH1 0x0 MSTORE PUSH1 0x20 PUSH1 0x0 KECCAK256 SWAP1 JUMPDEST DUP2 SLOAD DUP2 MSTORE SWAP1 PUSH1 0x1 ADD SWAP1 PUSH1 0x20 ADD DUP1 DUP4 GT PUSH2 0x18F9 JUMPI DUP3 SWAP1 SUB PUSH1 0x1F AND DUP3 ADD SWAP2 JUMPDEST POP POP POP POP POP SWAP1 DUP1 PUSH1 0x3 ADD SLOAD SWAP1 DUP1 PUSH1 0x4 ADD PUSH1 0x0 SWAP1 SLOAD SWAP1 PUSH2 0x100 EXP SWAP1 DIV PUSH1 0xFF AND SWAP1 DUP1 PUSH1 0x5 ADD SLOAD SWAP1 POP DUP7 JUMP JUMPDEST PUSH1 0x3 SLOAD DUP2 LT PUSH2 0x1983 JUMPI PUSH1 0x40 MLOAD PUSH32 0x8C379A000000000000000000000000000000000000000000000000000000000 DUP2 MSTORE PUSH1 0x4 ADD PUSH2 0x197A SWAP1 PUSH2 0x31E6 JUMP JUMPDEST PUSH1 0x40 MLOAD DUP1 SWAP2 SUB SWAP1 REVERT JUMPDEST PUSH1 0x0 DUP1 DUP3 DUP2 MSTORE PUSH1 0x20 ADD SWAP1 DUP2 MSTORE PUSH1 0x20 ADD PUSH1 0x0 KECCAK256 PUSH1 0x4 ADD PUSH1 0x0 SWAP1 SLOAD SWAP1 PUSH2 0x100 EXP SWAP1 DIV PUSH1 0xFF AND PUSH2 0x19E5 JUMPI PUSH1 0x40 MLOAD PUSH32 0x8C379A000000000000000000000000000000000000000000000000000000000 DUP2 MSTORE PUSH1 0x4 ADD PUSH2 0x19DC SWAP1 PUSH2 0x32D8 JUMP JUMPDEST PUSH1 0x40 MLOAD DUP1 SWAP2 SUB SWAP1 REVERT JUMPDEST PUSH1 0x0 DUP1 PUSH1 0x0 DUP4 DUP2 MSTORE PUSH1 0x20 ADD SWAP1 DUP2 MSTORE PUSH1 0x20 ADD PUSH1 0x0 KECCAK256 PUSH1 0x4 ADD PUSH1 0x0 PUSH2 0x100 EXP DUP2 SLOAD DUP2 PUSH1 0xFF MUL NOT AND SWAP1 DUP4 ISZERO ISZERO MUL OR SWAP1 SSTORE POP PUSH32 0x39EEDA956A5B638CCE21D44FEB4E3279509FBAF8FB7776431F55F57A0CD21537 DUP2 PUSH1 0x40 MLOAD PUSH2 0x1A42 SWAP2 SWAP1 PUSH2 0x2D75 JUMP JUMPDEST PUSH1 0x40 MLOAD DUP1 SWAP2 SUB SWAP1 LOG1 POP JUMP JUMPDEST PUSH1 0x1 PUSH1 0x0 DUP4 PUSH20 0xFFFFFFFFFFFFFFFFFFFFFFFFFFFFFFFFFFFFFFFF AND PUSH20 0xFFFFFFFFFFFFFFFFFFFFFFFFFFFFFFFFFFFFFFFF AND DUP2 MSTORE PUSH1 0x20 ADD SWAP1 DUP2 MSTORE PUSH1 0x20 ADD PUSH1 0x0 KECCAK256 PUSH1 0x0 ADD PUSH1 0x15 SWAP1 SLOAD SWAP1 PUSH2 0x100 EXP SWAP1 DIV PUSH1 0xFF AND ISZERO PUSH2 0x1ADD JUMPI PUSH1 0x40 MLOAD PUSH32 0x8C379A000000000000000000000000000000000000000000000000000000000 DUP2 MSTORE PUSH1 0x4 ADD PUSH2 0x1AD4 SWAP1 PUSH2 0x3BB3 JUMP JUMPDEST PUSH1 0x40 MLOAD DUP1 SWAP2 SUB SWAP1 REVERT JUMPDEST PUSH1 0x0 PUSH1 0x1 PUSH1 0x0 DUP5 PUSH20 0xFFFFFFFFFFFFFFFFFFFFFFFFFFFFFFFFFFFFFFFF AND PUSH20 0xFFFFFFFFFFFFFFFFFFFFFFFFFFFFFFFFFFFFFFFF AND DUP2 MSTORE PUSH1 0x20 ADD SWAP1 DUP2 MSTORE PUSH1 0x20 ADD PUSH1 0x0 KECCAK256 SWAP1 POP DUP3 DUP2 PUSH1 0x0 ADD PUSH1 0x0 PUSH2 0x100 EXP DUP2 SLOAD DUP2 PUSH20 0xFFFFFFFFFFFFFFFFFFFFFFFFFFFFFFFFFFFFFFFF MUL NOT AND SWAP1 DUP4 PUSH20 0xFFFFFFFFFFFFFFFFFFFFFFFFFFFFFFFFFFFFFFFF AND MUL OR SWAP1 SSTORE POP DUP2 DUP2 PUSH1 0x0 ADD PUSH1 0x14 PUSH2 0x100 EXP DUP2 SLOAD DUP2 PUSH1 0xFF MUL NOT AND SWAP1 DUP4 PUSH1 0x2 DUP2 GT ISZERO PUSH2 0x1B8A JUMPI PUSH2 0x1B89 PUSH2 0x2B3D JUMP JUMPDEST JUMPDEST MUL OR SWAP1 SSTORE POP PUSH1 0x1 DUP2 PUSH1 0x0 ADD PUSH1 0x15 PUSH2 0x100 EXP DUP2 SLOAD DUP2 PUSH1 0xFF MUL NOT AND SWAP1 DUP4 ISZERO ISZERO MUL OR SWAP1 SSTORE POP PUSH32 0x8E18574F8A7333E6A87112742A55853A643E2F0550F4E1A3A2C3F1BB2994441D DUP4 DUP4 PUSH1 0x40 MLOAD PUSH2 0x1BDD SWAP3 SWAP2 SWAP1 PUSH2 0x3BD3 JUMP JUMPDEST PUSH1 0x40 MLOAD DUP1 SWAP2 SUB SWAP1 LOG1 POP POP POP JUMP JUMPDEST PUSH1 0x0 PUSH1 0x3 PUSH1 0x0 DUP2 SLOAD DUP1 SWAP3 SWAP2 SWAP1 PUSH2 0x1BFF SWAP1 PUSH2 0x34A3 JUMP JUMPDEST SWAP2 SWAP1 POP SSTORE SWAP1 POP PUSH1 0x0 DUP1 PUSH1 0x0 DUP4 DUP2 MSTORE PUSH1 0x20 ADD SWAP1 DUP2 MSTORE PUSH1 0x20 ADD PUSH1 0x0 KECCAK256 SWAP1 POP DUP2 DUP2 PUSH1 0x0 ADD DUP2 SWAP1 SSTORE POP DUP5 DUP2 PUSH1 0x1 ADD SWAP1 DUP2 PUSH2 0x1C35 SWAP2 SWAP1 PUSH2 0x3A65 JUMP JUMPDEST POP DUP4 DUP2 PUSH1 0x2 ADD SWAP1 DUP2 PUSH2 0x1C47 SWAP2 SWAP1 PUSH2 0x3A65 JUMP JUMPDEST POP DUP3 DUP2 PUSH1 0x3 ADD DUP2 SWAP1 SSTORE POP PUSH1 0x1 DUP2 PUSH1 0x4 ADD PUSH1 0x0 PUSH2 0x100 EXP DUP2 SLOAD DUP2 PUSH1 0xFF MUL NOT AND SWAP1 DUP4 ISZERO ISZERO MUL OR SWAP1 SSTORE POP PUSH1 0x0 DUP2 PUSH1 0x5 ADD DUP2 SWAP1 SSTORE POP PUSH32 0xC2C844C5F6C72FE99B99DE0942BA619E99957D3E8F7E614263ECFE40DE952E58 DUP3 DUP7 PUSH1 0x40 MLOAD PUSH2 0x1CA9 SWAP3 SWAP2 SWAP1 PUSH2 0x3B37 JUMP JUMPDEST PUSH1 0x40 MLOAD DUP1 SWAP2 SUB SWAP1 LOG1 POP POP POP POP POP JUMP JUMPDEST PUSH1 0x1 PUSH1 0x20 MSTORE DUP1 PUSH1 0x0 MSTORE PUSH1 0x40 PUSH1 0x0 KECCAK256 PUSH1 0x0 SWAP2 POP SWAP1 POP DUP1 PUSH1 0x0 ADD PUSH1 0x0 SWAP1 SLOAD SWAP1 PUSH2 0x100 EXP SWAP1 DIV PUSH20 0xFFFFFFFFFFFFFFFFFFFFFFFFFFFFFFFFFFFFFFFF AND SWAP1 DUP1 PUSH1 0x0 ADD PUSH1 0x14 SWAP1 SLOAD SWAP1 PUSH2 0x100 EXP SWAP1 DIV PUSH1 0xFF AND SWAP1 DUP1 PUSH1 0x0 ADD PUSH1 0x15 SWAP1 SLOAD SWAP1 PUSH2 0x100 EXP SWAP1 DIV PUSH1 0xFF AND SWAP1 POP DUP4 JUMP JUMPDEST PUSH1 0x3 SLOAD DUP6 LT PUSH2 0x1D60 JUMPI PUSH1 0x40 MLOAD PUSH32 0x8C379A000000000000000000000000000000000000000000000000000000000 DUP2 MSTORE PUSH1 0x4 ADD PUSH2 0x1D57 SWAP1 PUSH2 0x31E6 JUMP JUMPDEST PUSH1 0x40 MLOAD DUP1 SWAP2 SUB SWAP1 REVERT JUMPDEST PUSH1 0x0 DUP1 DUP7 DUP2 MSTORE PUSH1 0x20 ADD SWAP1 DUP2 MSTORE PUSH1 0x20 ADD PUSH1 0x0 KECCAK256 PUSH1 0x4 ADD PUSH1 0x0 SWAP1 SLOAD SWAP1 PUSH2 0x100 EXP SWAP1 DIV PUSH1 0xFF AND PUSH2 0x1DC2 JUMPI PUSH1 0x40 MLOAD PUSH32 0x8C379A000000000000000000000000000000000000000000000000000000000 DUP2 MSTORE PUSH1 0x4 ADD PUSH2 0x1DB9 SWAP1 PUSH2 0x32D8 JUMP JUMPDEST PUSH1 0x40 MLOAD DUP1 SWAP2 SUB SWAP1 REVERT JUMPDEST PUSH1 0x0 DUP1 DUP7 DUP2 MSTORE PUSH1 0x20 ADD SWAP1 DUP2 MSTORE PUSH1 0x20 ADD PUSH1 0x0 KECCAK256 PUSH1 0x5 ADD SLOAD DUP5 GT ISZERO PUSH2 0x1E1A JUMPI PUSH1 0x40 MLOAD PUSH32 0x8C379A000000000000000000000000000000000000000000000000000000000 DUP2 MSTORE PUSH1 0x4 ADD PUSH2 0x1E11 SWAP1 PUSH2 0x39B3 JUMP JUMPDEST PUSH1 0x40 MLOAD DUP1 SWAP2 SUB SWAP1 REVERT JUMPDEST PUSH1 0x1 DUP4 PUSH1 0xFF AND LT ISZERO DUP1 ISZERO PUSH2 0x1E32 JUMPI POP PUSH1 0x7 DUP4 PUSH1 0xFF AND GT ISZERO JUMPDEST PUSH2 0x1E71 JUMPI PUSH1 0x40 MLOAD PUSH32 0x8C379A000000000000000000000000000000000000000000000000000000000 DUP2 MSTORE PUSH1 0x4 ADD PUSH2 0x1E68 SWAP1 PUSH2 0x35A3 JUMP JUMPDEST PUSH1 0x40 MLOAD DUP1 SWAP2 SUB SWAP1 REVERT JUMPDEST PUSH1 0x18 DUP3 PUSH1 0xFF AND LT DUP1 ISZERO PUSH2 0x1E87 JUMPI POP PUSH1 0x18 DUP2 PUSH1 0xFF AND LT JUMPDEST DUP1 ISZERO PUSH2 0x1E98 JUMPI POP DUP1 PUSH1 0xFF AND DUP3 PUSH1 0xFF AND LT JUMPDEST PUSH2 0x1ED7 JUMPI PUSH1 0x40 MLOAD PUSH32 0x8C379A000000000000000000000000000000000000000000000000000000000 DUP2 MSTORE PUSH1 0x4 ADD PUSH2 0x1ECE SWAP1 PUSH2 0x360F JUMP JUMPDEST PUSH1 0x40 MLOAD DUP1 SWAP2 SUB SWAP1 REVERT JUMPDEST PUSH1 0x0 DUP1 PUSH1 0x0 DUP8 DUP2 MSTORE PUSH1 0x20 ADD SWAP1 DUP2 MSTORE PUSH1 0x20 ADD PUSH1 0x0 KECCAK256 PUSH1 0x7 ADD PUSH1 0x0 DUP7 DUP2 MSTORE PUSH1 0x20 ADD SWAP1 DUP2 MSTORE PUSH1 0x20 ADD PUSH1 0x0 KECCAK256 SWAP1 POP DUP1 PUSH1 0x3 ADD PUSH1 0x0 SWAP1 SLOAD SWAP1 PUSH2 0x100 EXP SWAP1 DIV PUSH1 0xFF AND PUSH2 0x1F52 JUMPI PUSH1 0x40 MLOAD PUSH32 0x8C379A000000000000000000000000000000000000000000000000000000000 DUP2 MSTORE PUSH1 0x4 ADD PUSH2 0x1F49 SWAP1 PUSH2 0x3C6E JUMP JUMPDEST PUSH1 0x40 MLOAD DUP1 SWAP2 SUB SWAP1 REVERT JUMPDEST DUP4 DUP2 PUSH1 0x1 ADD PUSH1 0x0 PUSH2 0x100 EXP DUP2 SLOAD DUP2 PUSH1 0xFF MUL NOT AND SWAP1 DUP4 PUSH1 0xFF AND MUL OR SWAP1 SSTORE POP DUP3 DUP2 PUSH1 0x1 ADD PUSH1 0x1 PUSH2 0x100 EXP DUP2 SLOAD DUP2 PUSH1 0xFF MUL NOT AND SWAP1 DUP4 PUSH1 0xFF AND MUL OR SWAP1 SSTORE POP DUP2 DUP2 PUSH1 0x1 ADD PUSH1 0x2 PUSH2 0x100 EXP DUP2 SLOAD DUP2 PUSH1 0xFF MUL NOT AND SWAP1 DUP4 PUSH1 0xFF AND MUL OR SWAP1 SSTORE POP PUSH32 0x29558593F0B584FA97B5489122CAB9FC63AA0424B99F2B9CE433CFB20A73CD70 DUP7 DUP7 DUP7 DUP7 DUP7 PUSH1 0x40 MLOAD PUSH2 0x1FE0 SWAP6 SWAP5 SWAP4 SWAP3 SWAP2 SWAP1 PUSH2 0x3C8E JUMP JUMPDEST PUSH1 0x40 MLOAD DUP1 SWAP2 SUB SWAP1 LOG1 POP POP POP POP POP POP JUMP JUMPDEST PUSH1 0x0 PUSH1 0x1 PUSH1 0x0 DUP4 PUSH20 0xFFFFFFFFFFFFFFFFFFFFFFFFFFFFFFFFFFFFFFFF AND PUSH20 0xFFFFFFFFFFFFFFFFFFFFFFFFFFFFFFFFFFFFFFFF AND DUP2 MSTORE PUSH1 0x20 ADD SWAP1 DUP2 MSTORE PUSH1 0x20 ADD PUSH1 0x0 KECCAK256 PUSH1 0x0 ADD PUSH1 0x15 SWAP1 SLOAD SWAP1 PUSH2 0x100 EXP SWAP1 DIV PUSH1 0xFF AND SWAP1 POP SWAP2 SWAP1 POP JUMP JUMPDEST PUSH1 0x60 PUSH1 0x0 PUSH1 0x3 SLOAD PUSH8 0xFFFFFFFFFFFFFFFF DUP2 GT ISZERO PUSH2 0x2069 JUMPI PUSH2 0x2068 PUSH2 0x2D9A JUMP JUMPDEST JUMPDEST PUSH1 0x40 MLOAD SWAP1 DUP1 DUP3 MSTORE DUP1 PUSH1 0x20 MUL PUSH1 0x20 ADD DUP3 ADD PUSH1 0x40 MSTORE DUP1 ISZERO PUSH2 0x2097 JUMPI DUP2 PUSH1 0x20 ADD PUSH1 0x20 DUP3 MUL DUP1 CALLDATASIZE DUP4 CALLDATACOPY DUP1 DUP3 ADD SWAP2 POP POP SWAP1 POP JUMPDEST POP SWAP1 POP PUSH1 0x0 DUP1 JUMPDEST PUSH1 0x3 SLOAD DUP2 LT ISZERO PUSH2 0x210C JUMPI PUSH1 0x0 DUP1 DUP3 DUP2 MSTORE PUSH1 0x20 ADD SWAP1 DUP2 MSTORE PUSH1 0x20 ADD PUSH1 0x0 KECCAK256 PUSH1 0x4 ADD PUSH1 0x0 SWAP1 SLOAD SWAP1 PUSH2 0x100 EXP SWAP1 DIV PUSH1 0xFF AND ISZERO PUSH2 0x20FF JUMPI DUP1 DUP4 DUP4 DUP2 MLOAD DUP2 LT PUSH2 0x20E4 JUMPI PUSH2 0x20E3 PUSH2 0x338A JUMP JUMPDEST JUMPDEST PUSH1 0x20 MUL PUSH1 0x20 ADD ADD DUP2 DUP2 MSTORE POP POP DUP2 DUP1 PUSH2 0x20FB SWAP1 PUSH2 0x34A3 JUMP JUMPDEST SWAP3 POP POP JUMPDEST DUP1 DUP1 PUSH1 0x1 ADD SWAP2 POP POP PUSH2 0x209E JUMP JUMPDEST POP PUSH1 0x0 DUP2 PUSH8 0xFFFFFFFFFFFFFFFF DUP2 GT ISZERO PUSH2 0x2129 JUMPI PUSH2 0x2128 PUSH2 0x2D9A JUMP JUMPDEST JUMPDEST PUSH1 0x40 MLOAD SWAP1 DUP1 DUP3 MSTORE DUP1 PUSH1 0x20 MUL PUSH1 0x20 ADD DUP3 ADD PUSH1 0x40 MSTORE DUP1 ISZERO PUSH2 0x2157 JUMPI DUP2 PUSH1 0x20 ADD PUSH1 0x20 DUP3 MUL DUP1 CALLDATASIZE DUP4 CALLDATACOPY DUP1 DUP3 ADD SWAP2 POP POP SWAP1 POP JUMPDEST POP SWAP1 POP PUSH1 0x0 JUMPDEST DUP3 DUP2 LT ISZERO PUSH2 0x21AC JUMPI DUP4 DUP2 DUP2 MLOAD DUP2 LT PUSH2 0x2178 JUMPI PUSH2 0x2177 PUSH2 0x338A JUMP JUMPDEST JUMPDEST PUSH1 0x20 MUL PUSH1 0x20 ADD ADD MLOAD DUP3 DUP3 DUP2 MLOAD DUP2 LT PUSH2 0x2193 JUMPI PUSH2 0x2192 PUSH2 0x338A JUMP JUMPDEST JUMPDEST PUSH1 0x20 MUL PUSH1 0x20 ADD ADD DUP2 DUP2 MSTORE POP POP DUP1 DUP1 PUSH1 0x1 ADD SWAP2 POP POP PUSH2 0x215D JUMP JUMPDEST POP DUP1 SWAP4 POP POP POP POP SWAP1 JUMP JUMPDEST PUSH1 0x3 SLOAD DUP3 LT PUSH2 0x21FA JUMPI PUSH1 0x40 MLOAD PUSH32 0x8C379A000000000000000000000000000000000000000000000000000000000 DUP2 MSTORE PUSH1 0x4 ADD PUSH2 0x21F1 SWAP1 PUSH2 0x31E6 JUMP JUMPDEST PUSH1 0x40 MLOAD DUP1 SWAP2 SUB SWAP1 REVERT JUMPDEST PUSH1 0x0 DUP1 DUP4 DUP2 MSTORE PUSH1 0x20 ADD SWAP1 DUP2 MSTORE PUSH1 0x20 ADD PUSH1 0x0 KECCAK256 PUSH1 0x4 ADD PUSH1 0x0 SWAP1 SLOAD SWAP1 PUSH2 0x100 EXP SWAP1 DIV PUSH1 0xFF AND PUSH2 0x225C JUMPI PUSH1 0x40 MLOAD PUSH32 0x8C379A000000000000000000000000000000000000000000000000000000000 DUP2 MSTORE PUSH1 0x4 ADD PUSH2 0x2253 SWAP1 PUSH2 0x32D8 JUMP JUMPDEST PUSH1 0x40 MLOAD DUP1 SWAP2 SUB SWAP1 REVERT JUMPDEST PUSH1 0x0 DUP1 DUP4 DUP2 MSTORE PUSH1 0x20 ADD SWAP1 DUP2 MSTORE PUSH1 0x20 ADD PUSH1 0x0 KECCAK256 PUSH1 0x5 ADD SLOAD DUP2 GT ISZERO PUSH2 0x22B4 JUMPI PUSH1 0x40 MLOAD PUSH32 0x8C379A000000000000000000000000000000000000000000000000000000000 DUP2 MSTORE PUSH1 0x4 ADD PUSH2 0x22AB SWAP1 PUSH2 0x39B3 JUMP JUMPDEST PUSH1 0x40 MLOAD DUP1 SWAP2 SUB SWAP1 REVERT JUMPDEST PUSH1 0x0 DUP1 PUSH1 0x0 DUP5 DUP2 MSTORE PUSH1 0x20 ADD SWAP1 DUP2 MSTORE PUSH1 0x20 ADD PUSH1 0x0 KECCAK256 PUSH1 0x7 ADD PUSH1 0x0 DUP4 DUP2 MSTORE PUSH1 0x20 ADD SWAP1 DUP2 MSTORE PUSH1 0x20 ADD PUSH1 0x0 KECCAK256 SWAP1 POP DUP1 PUSH1 0x3 ADD PUSH1 0x0 SWAP1 SLOAD SWAP1 PUSH2 0x100 EXP SWAP1 DIV PUSH1 0xFF AND PUSH2 0x232F JUMPI PUSH1 0x40 MLOAD PUSH32 0x8C379A000000000000000000000000000000000000000000000000000000000 DUP2 MSTORE PUSH1 0x4 ADD PUSH2 0x2326 SWAP1 PUSH2 0x3C6E JUMP JUMPDEST PUSH1 0x40 MLOAD DUP1 SWAP2 SUB SWAP1 REVERT JUMPDEST PUSH1 0x0 DUP2 PUSH1 0x3 ADD PUSH1 0x0 PUSH2 0x100 EXP DUP2 SLOAD DUP2 PUSH1 0xFF MUL NOT AND SWAP1 DUP4 ISZERO ISZERO MUL OR SWAP1 SSTORE POP PUSH32 0x29558593F0B584FA97B5489122CAB9FC63AA0424B99F2B9CE433CFB20A73CD70 DUP4 DUP4 DUP4 PUSH1 0x1 ADD PUSH1 0x0 SWAP1 SLOAD SWAP1 PUSH2 0x100 EXP SWAP1 DIV PUSH1 0xFF AND DUP5 PUSH1 0x1 ADD PUSH1 0x1 SWAP1 SLOAD SWAP1 PUSH2 0x100 EXP SWAP1 DIV PUSH1 0xFF AND DUP6 PUSH1 0x1 ADD PUSH1 0x2 SWAP1 SLOAD SWAP1 PUSH2 0x100 EXP SWAP1 DIV PUSH1 0xFF AND PUSH1 0x40 MLOAD PUSH2 0x23B6 SWAP6 SWAP5 SWAP4 SWAP3 SWAP2 SWAP1 PUSH2 0x3C8E JUMP JUMPDEST PUSH1 0x40 MLOAD DUP1 SWAP2 SUB SWAP1 LOG1 POP POP POP JUMP JUMPDEST PUSH1 0x0 DUP1 PUSH1 0x0 DUP1 PUSH1 0x60 PUSH1 0x0 PUSH1 0x3 SLOAD DUP9 LT PUSH2 0x2411 JUMPI PUSH1 0x40 MLOAD PUSH32 0x8C379A000000000000000000000000000000000000000000000000000000000 DUP2 MSTORE PUSH1 0x4 ADD PUSH2 0x2408 SWAP1 PUSH2 0x31E6 JUMP JUMPDEST PUSH1 0x40 MLOAD DUP1 SWAP2 SUB SWAP1 REVERT JUMPDEST PUSH1 0x0 DUP1 DUP10 DUP2 MSTORE PUSH1 0x20 ADD SWAP1 DUP2 MSTORE PUSH1 0x20 ADD PUSH1 0x0 KECCAK256 PUSH1 0x4 ADD PUSH1 0x0 SWAP1 SLOAD SWAP1 PUSH2 0x100 EXP SWAP1 DIV PUSH1 0xFF AND PUSH2 0x2473 JUMPI PUSH1 0x40 MLOAD PUSH32 0x8C379A000000000000000000000000000000000000000000000000000000000 DUP2 MSTORE PUSH1 0x4 ADD PUSH2 0x246A SWAP1 PUSH2 0x32D8 JUMP JUMPDEST PUSH1 0x40 MLOAD DUP1 SWAP2 SUB SWAP1 REVERT JUMPDEST PUSH1 0x0 DUP1 DUP10 DUP2 MSTORE PUSH1 0x20 ADD SWAP1 DUP2 MSTORE PUSH1 0x20 ADD PUSH1 0x0 KECCAK256 PUSH1 0x5 ADD SLOAD DUP8 GT ISZERO PUSH2 0x24CB JUMPI PUSH1 0x40 MLOAD PUSH32 0x8C379A000000000000000000000000000000000000000000000000000000000 DUP2 MSTORE PUSH1 0x4 ADD PUSH2 0x24C2 SWAP1 PUSH2 0x39B3 JUMP JUMPDEST PUSH1 0x40 MLOAD DUP1 SWAP2 SUB SWAP1 REVERT JUMPDEST PUSH1 0x0 DUP1 PUSH1 0x0 DUP11 DUP2 MSTORE PUSH1 0x20 ADD SWAP1 DUP2 MSTORE PUSH1 0x20 ADD PUSH1 0x0 KECCAK256 PUSH1 0x7 ADD PUSH1 0x0 DUP10 DUP2 MSTORE PUSH1 0x20 ADD SWAP1 DUP2 MSTORE PUSH1 0x20 ADD PUSH1 0x0 KECCAK256 SWAP1 POP DUP1 PUSH1 0x0 ADD SLOAD DUP2 PUSH1 0x1 ADD PUSH1 0x0 SWAP1 SLOAD SWAP1 PUSH2 0x100 EXP SWAP1 DIV PUSH1 0xFF AND DUP3 PUSH1 0x1 ADD PUSH1 0x1 SWAP1 SLOAD SWAP1 PUSH2 0x100 EXP SWAP1 DIV PUSH1 0xFF AND DUP4 PUSH1 0x1 ADD PUSH1 0x2 SWAP1 SLOAD SWAP1 PUSH2 0x100 EXP SWAP1 DIV PUSH1 0xFF AND DUP5 PUSH1 0x2 ADD DUP6 PUSH1 0x3 ADD PUSH1 0x0 SWAP1 SLOAD SWAP1 PUSH2 0x100 EXP SWAP1 DIV PUSH1 0xFF AND DUP2 DUP1 SLOAD PUSH2 0x2552 SWAP1 PUSH2 0x3235 JUMP JUMPDEST DUP1 PUSH1 0x1F ADD PUSH1 0x20 DUP1 SWAP2 DIV MUL PUSH1 0x20 ADD PUSH1 0x40 MLOAD SWAP1 DUP2 ADD PUSH1 0x40 MSTORE DUP1 SWAP3 SWAP2 SWAP1 DUP2 DUP2 MSTORE PUSH1 0x20 ADD DUP3 DUP1 SLOAD PUSH2 0x257E SWAP1 PUSH2 0x3235 JUMP JUMPDEST DUP1 ISZERO PUSH2 0x25CB JUMPI DUP1 PUSH1 0x1F LT PUSH2 0x25A0 JUMPI PUSH2 0x100 DUP1 DUP4 SLOAD DIV MUL DUP4 MSTORE SWAP2 PUSH1 0x20 ADD SWAP2 PUSH2 0x25CB JUMP JUMPDEST DUP3 ADD SWAP2 SWAP1 PUSH1 0x0 MSTORE PUSH1 0x20 PUSH1 0x0 KECCAK256 SWAP1 JUMPDEST DUP2 SLOAD DUP2 MSTORE SWAP1 PUSH1 0x1 ADD SWAP1 PUSH1 0x20 ADD DUP1 DUP4 GT PUSH2 0x25AE JUMPI DUP3 SWAP1 SUB PUSH1 0x1F AND DUP3 ADD SWAP2 JUMPDEST POP POP POP POP POP SWAP2 POP SWAP7 POP SWAP7 POP SWAP7 POP SWAP7 POP SWAP7 POP SWAP7 POP POP SWAP3 SWAP6 POP SWAP3 SWAP6 POP SWAP3 SWAP6 JUMP JUMPDEST PUSH1 0x5 PUSH1 0x0 SWAP1 SLOAD SWAP1 PUSH2 0x100 EXP SWAP1 DIV PUSH20 0xFFFFFFFFFFFFFFFFFFFFFFFFFFFFFFFFFFFFFFFF AND DUP2 JUMP JUMPDEST PUSH1 0x40 MLOAD DUP1 PUSH1 0xC0 ADD PUSH1 0x40 MSTORE DUP1 PUSH1 0x0 DUP2 MSTORE PUSH1 0x20 ADD PUSH1 0x0 PUSH1 0xFF AND DUP2 MSTORE PUSH1 0x20 ADD PUSH1 0x0 PUSH1 0xFF AND DUP2 MSTORE PUSH1 0x20 ADD PUSH1 0x0 PUSH1 0xFF AND DUP2 MSTORE PUSH1 0x20 ADD PUSH1 0x60 DUP2 MSTORE PUSH1 0x20 ADD PUSH1 0x0 ISZERO ISZERO DUP2 MSTORE POP SWAP1 JUMP JUMPDEST PUSH1 0x40 MLOAD DUP1 PUSH1 0x60 ADD PUSH1 0x40 MSTORE DUP1 PUSH1 0x0 PUSH20 0xFFFFFFFFFFFFFFFFFFFFFFFFFFFFFFFFFFFFFFFF AND DUP2 MSTORE PUSH1 0x20 ADD PUSH1 0x0 PUSH1 0x2 DUP2 GT ISZERO PUSH2 0x268C JUMPI PUSH2 0x268B PUSH2 0x2B3D JUMP JUMPDEST JUMPDEST DUP2 MSTORE PUSH1 0x20 ADD PUSH1 0x0 ISZERO ISZERO DUP2 MSTORE POP SWAP1 JUMP JUMPDEST PUSH1 0x0 PUSH1 0x40 MLOAD SWAP1 POP SWAP1 JUMP JUMPDEST PUSH1 0x0 DUP1 REVERT JUMPDEST PUSH1 0x0 DUP1 REVERT JUMPDEST PUSH1 0x0 DUP2 SWAP1 POP SWAP2 SWAP1 POP JUMP JUMPDEST PUSH2 0x26C2 DUP2 PUSH2 0x26AF JUMP JUMPDEST DUP2 EQ PUSH2 0x26CD JUMPI PUSH1 0x0 DUP1 REVERT JUMPDEST POP JUMP JUMPDEST PUSH1 0x0 DUP2 CALLDATALOAD SWAP1 POP PUSH2 0x26DF DUP2 PUSH2 0x26B9 JUMP JUMPDEST SWAP3 SWAP2 POP POP JUMP JUMPDEST PUSH1 0x0 PUSH1 0x20 DUP3 DUP5 SUB SLT ISZERO PUSH2 0x26FB JUMPI PUSH2 0x26FA PUSH2 0x26A5 JUMP JUMPDEST JUMPDEST PUSH1 0x0 PUSH2 0x2709 DUP5 DUP3 DUP6 ADD PUSH2 0x26D0 JUMP JUMPDEST SWAP2 POP POP SWAP3 SWAP2 POP POP JUMP JUMPDEST PUSH2 0x271B DUP2 PUSH2 0x26AF JUMP JUMPDEST DUP3 MSTORE POP POP JUMP JUMPDEST PUSH1 0x0 DUP2 MLOAD SWAP1 POP SWAP2 SWAP1 POP JUMP JUMPDEST PUSH1 0x0 DUP3 DUP3 MSTORE PUSH1 0x20 DUP3 ADD SWAP1 POP SWAP3 SWAP2 POP POP JUMP JUMPDEST PUSH1 0x0 JUMPDEST DUP4 DUP2 LT ISZERO PUSH2 0x275B JUMPI DUP1 DUP3 ADD MLOAD DUP2 DUP5 ADD MSTORE PUSH1 0x20 DUP2 ADD SWAP1 POP PUSH2 0x2740 JUMP JUMPDEST PUSH1 0x0 DUP5 DUP5 ADD MSTORE POP POP POP POP JUMP JUMPDEST PUSH1 0x0 PUSH1 0x1F NOT PUSH1 0x1F DUP4 ADD AND SWAP1 POP SWAP2 SWAP1 POP JUMP JUMPDEST PUSH1 0x0 PUSH2 0x2783 DUP3 PUSH2 0x2721 JUMP JUMPDEST PUSH2 0x278D DUP2 DUP6 PUSH2 0x272C JUMP JUMPDEST SWAP4 POP PUSH2 0x279D DUP2 DUP6 PUSH1 0x20 DUP7 ADD PUSH2 0x273D JUMP JUMPDEST PUSH2 0x27A6 DUP2 PUSH2 0x2767 JUMP JUMPDEST DUP5 ADD SWAP2 POP POP SWAP3 SWAP2 POP POP JUMP JUMPDEST PUSH1 0x0 DUP2 ISZERO ISZERO SWAP1 POP SWAP2 SWAP1 POP JUMP JUMPDEST PUSH2 0x27C6 DUP2 PUSH2 0x27B1 JUMP JUMPDEST DUP3 MSTORE POP POP JUMP JUMPDEST PUSH1 0x0 PUSH1 0xC0 DUP3 ADD SWAP1 POP PUSH2 0x27E1 PUSH1 0x0 DUP4 ADD DUP10 PUSH2 0x2712 JUMP JUMPDEST DUP2 DUP2 SUB PUSH1 0x20 DUP4 ADD MSTORE PUSH2 0x27F3 DUP2 DUP9 PUSH2 0x2778 JUMP JUMPDEST SWAP1 POP DUP2 DUP2 SUB PUSH1 0x40 DUP4 ADD MSTORE PUSH2 0x2807 DUP2 DUP8 PUSH2 0x2778 JUMP JUMPDEST SWAP1 POP PUSH2 0x2816 PUSH1 0x60 DUP4 ADD DUP7 PUSH2 0x2712 JUMP JUMPDEST PUSH2 0x2823 PUSH1 0x80 DUP4 ADD DUP6 PUSH2 0x27BD JUMP JUMPDEST PUSH2 0x2830 PUSH1 0xA0 DUP4 ADD DUP5 PUSH2 0x2712 JUMP JUMPDEST SWAP8 SWAP7 POP POP POP POP POP POP POP JUMP JUMPDEST PUSH1 0x0 PUSH1 0xFF DUP3 AND SWAP1 POP SWAP2 SWAP1 POP JUMP JUMPDEST PUSH2 0x2851 DUP2 PUSH2 0x283B JUMP JUMPDEST DUP3 MSTORE POP POP JUMP JUMPDEST PUSH1 0x0 PUSH1 0xC0 DUP3 ADD SWAP1 POP PUSH2 0x286C PUSH1 0x0 DUP4 ADD DUP10 PUSH2 0x2712 JUMP JUMPDEST PUSH2 0x2879 PUSH1 0x20 DUP4 ADD DUP9 PUSH2 0x2848 JUMP JUMPDEST PUSH2 0x2886 PUSH1 0x40 DUP4 ADD DUP8 PUSH2 0x2848 JUMP JUMPDEST PUSH2 0x2893 PUSH1 0x60 DUP4 ADD DUP7 PUSH2 0x2848 JUMP JUMPDEST DUP2 DUP2 SUB PUSH1 0x80 DUP4 ADD MSTORE PUSH2 0x28A5 DUP2 DUP6 PUSH2 0x2778 JUMP JUMPDEST SWAP1 POP PUSH2 0x28B4 PUSH1 0xA0 DUP4 ADD DUP5 PUSH2 0x27BD JUMP JUMPDEST SWAP8 SWAP7 POP POP POP POP POP POP POP JUMP JUMPDEST PUSH1 0x0 DUP2 MLOAD SWAP1 POP SWAP2 SWAP1 POP JUMP JUMPDEST PUSH1 0x0 DUP3 DUP3 MSTORE PUSH1 0x20 DUP3 ADD SWAP1 POP SWAP3 SWAP2 POP POP JUMP JUMPDEST PUSH1 0x0 DUP2 SWAP1 POP PUSH1 0x20 DUP3 ADD SWAP1 POP SWAP2 SWAP1 POP JUMP JUMPDEST PUSH2 0x28F4 DUP2 PUSH2 0x26AF JUMP JUMPDEST DUP3 MSTORE POP POP JUMP JUMPDEST PUSH2 0x2903 DUP2 PUSH2 0x283B JUMP JUMPDEST DUP3 MSTORE POP POP JUMP JUMPDEST PUSH1 0x0 DUP3 DUP3 MSTORE PUSH1 0x20 DUP3 ADD SWAP1 POP SWAP3 SWAP2 POP POP JUMP JUMPDEST PUSH1 0x0 PUSH2 0x2925 DUP3 PUSH2 0x2721 JUMP JUMPDEST PUSH2 0x292F DUP2 DUP6 PUSH2 0x2909 JUMP JUMPDEST SWAP4 POP PUSH2 0x293F DUP2 DUP6 PUSH1 0x20 DUP7 ADD PUSH2 0x273D JUMP JUMPDEST PUSH2 0x2948 DUP2 PUSH2 0x2767 JUMP JUMPDEST DUP5 ADD SWAP2 POP POP SWAP3 SWAP2 POP POP JUMP JUMPDEST PUSH2 0x295C DUP2 PUSH2 0x27B1 JUMP JUMPDEST DUP3 MSTORE POP POP JUMP JUMPDEST PUSH1 0x0 PUSH1 0xC0 DUP4 ADD PUSH1 0x0 DUP4 ADD MLOAD PUSH2 0x297A PUSH1 0x0 DUP7 ADD DUP3 PUSH2 0x28EB JUMP JUMPDEST POP PUSH1 0x20 DUP4 ADD MLOAD PUSH2 0x298D PUSH1 0x20 DUP7 ADD DUP3 PUSH2 0x28FA JUMP JUMPDEST POP PUSH1 0x40 DUP4 ADD MLOAD PUSH2 0x29A0 PUSH1 0x40 DUP7 ADD DUP3 PUSH2 0x28FA JUMP JUMPDEST POP PUSH1 0x60 DUP4 ADD MLOAD PUSH2 0x29B3 PUSH1 0x60 DUP7 ADD DUP3 PUSH2 0x28FA JUMP JUMPDEST POP PUSH1 0x80 DUP4 ADD MLOAD DUP5 DUP3 SUB PUSH1 0x80 DUP7 ADD MSTORE PUSH2 0x29CB DUP3 DUP3 PUSH2 0x291A JUMP JUMPDEST SWAP2 POP POP PUSH1 0xA0 DUP4 ADD MLOAD PUSH2 0x29E0 PUSH1 0xA0 DUP7 ADD DUP3 PUSH2 0x2953 JUMP JUMPDEST POP DUP1 SWAP2 POP POP SWAP3 SWAP2 POP POP JUMP JUMPDEST PUSH1 0x0 PUSH2 0x29F7 DUP4 DUP4 PUSH2 0x2962 JUMP JUMPDEST SWAP1 POP SWAP3 SWAP2 POP POP JUMP JUMPDEST PUSH1 0x0 PUSH1 0x20 DUP3 ADD SWAP1 POP SWAP2 SWAP1 POP JUMP JUMPDEST PUSH1 0x0 PUSH2 0x2A17 DUP3 PUSH2 0x28BF JUMP JUMPDEST PUSH2 0x2A21 DUP2 DUP6 PUSH2 0x28CA JUMP JUMPDEST SWAP4 POP DUP4 PUSH1 0x20 DUP3 MUL DUP6 ADD PUSH2 0x2A33 DUP6 PUSH2 0x28DB JUMP JUMPDEST DUP1 PUSH1 0x0 JUMPDEST DUP6 DUP2 LT ISZERO PUSH2 0x2A6F JUMPI DUP5 DUP5 SUB DUP10 MSTORE DUP2 MLOAD PUSH2 0x2A50 DUP6 DUP3 PUSH2 0x29EB JUMP JUMPDEST SWAP5 POP PUSH2 0x2A5B DUP4 PUSH2 0x29FF JUMP JUMPDEST SWAP3 POP PUSH1 0x20 DUP11 ADD SWAP10 POP POP PUSH1 0x1 DUP2 ADD SWAP1 POP PUSH2 0x2A37 JUMP JUMPDEST POP DUP3 SWAP8 POP DUP8 SWAP6 POP POP POP POP POP POP SWAP3 SWAP2 POP POP JUMP JUMPDEST PUSH1 0x0 PUSH1 0x20 DUP3 ADD SWAP1 POP DUP2 DUP2 SUB PUSH1 0x0 DUP4 ADD MSTORE PUSH2 0x2A9B DUP2 DUP5 PUSH2 0x2A0C JUMP JUMPDEST SWAP1 POP SWAP3 SWAP2 POP POP JUMP JUMPDEST PUSH1 0x0 PUSH20 0xFFFFFFFFFFFFFFFFFFFFFFFFFFFFFFFFFFFFFFFF DUP3 AND SWAP1 POP SWAP2 SWAP1 POP JUMP JUMPDEST PUSH1 0x0 PUSH2 0x2ACE DUP3 PUSH2 0x2AA3 JUMP JUMPDEST SWAP1 POP SWAP2 SWAP1 POP JUMP JUMPDEST PUSH2 0x2ADE DUP2 PUSH2 0x2AC3 JUMP JUMPDEST DUP2 EQ PUSH2 0x2AE9 JUMPI PUSH1 0x0 DUP1 REVERT JUMPDEST POP JUMP JUMPDEST PUSH1 0x0 DUP2 CALLDATALOAD SWAP1 POP PUSH2 0x2AFB DUP2 PUSH2 0x2AD5 JUMP JUMPDEST SWAP3 SWAP2 POP POP JUMP JUMPDEST PUSH1 0x0 PUSH1 0x20 DUP3 DUP5 SUB SLT ISZERO PUSH2 0x2B17 JUMPI PUSH2 0x2B16 PUSH2 0x26A5 JUMP JUMPDEST JUMPDEST PUSH1 0x0 PUSH2 0x2B25 DUP5 DUP3 DUP6 ADD PUSH2 0x2AEC JUMP JUMPDEST SWAP2 POP POP SWAP3 SWAP2 POP POP JUMP JUMPDEST PUSH2 0x2B37 DUP2 PUSH2 0x2AC3 JUMP JUMPDEST DUP3 MSTORE POP POP JUMP JUMPDEST PUSH32 0x4E487B7100000000000000000000000000000000000000000000000000000000 PUSH1 0x0 MSTORE PUSH1 0x21 PUSH1 0x4 MSTORE PUSH1 0x24 PUSH1 0x0 REVERT JUMPDEST PUSH1 0x3 DUP2 LT PUSH2 0x2B7D JUMPI PUSH2 0x2B7C PUSH2 0x2B3D JUMP JUMPDEST JUMPDEST POP JUMP JUMPDEST PUSH1 0x0 DUP2 SWAP1 POP PUSH2 0x2B8E DUP3 PUSH2 0x2B6C JUMP JUMPDEST SWAP2 SWAP1 POP JUMP JUMPDEST PUSH1 0x0 PUSH2 0x2B9E DUP3 PUSH2 0x2B80 JUMP JUMPDEST SWAP1 POP SWAP2 SWAP1 POP JUMP JUMPDEST PUSH2 0x2BAE DUP2 PUSH2 0x2B93 JUMP JUMPDEST DUP3 MSTORE POP POP JUMP JUMPDEST PUSH1 0x60 DUP3 ADD PUSH1 0x0 DUP3 ADD MLOAD PUSH2 0x2BCA PUSH1 0x0 DUP6 ADD DUP3 PUSH2 0x2B2E JUMP JUMPDEST POP PUSH1 0x20 DUP3 ADD MLOAD PUSH2 0x2BDD PUSH1 0x20 DUP6 ADD DUP3 PUSH2 0x2BA5 JUMP JUMPDEST POP PUSH1 0x40 DUP3 ADD MLOAD PUSH2 0x2BF0 PUSH1 0x40 DUP6 ADD DUP3 PUSH2 0x2953 JUMP JUMPDEST POP POP POP POP JUMP JUMPDEST PUSH1 0x0 PUSH1 0x60 DUP3 ADD SWAP1 POP PUSH2 0x2C0B PUSH1 0x0 DUP4 ADD DUP5 PUSH2 0x2BB4 JUMP JUMPDEST SWAP3 SWAP2 POP POP JUMP JUMPDEST PUSH2 0x2C1A DUP2 PUSH2 0x283B JUMP JUMPDEST DUP2 EQ PUSH2 0x2C25 JUMPI PUSH1 0x0 DUP1 REVERT JUMPDEST POP JUMP JUMPDEST PUSH1 0x0 DUP2 CALLDATALOAD SWAP1 POP PUSH2 0x2C37 DUP2 PUSH2 0x2C11 JUMP JUMPDEST SWAP3 SWAP2 POP POP JUMP JUMPDEST PUSH1 0x0 DUP1 PUSH1 0x0 DUP1 PUSH1 0x80 DUP6 DUP8 SUB SLT ISZERO PUSH2 0x2C57 JUMPI PUSH2 0x2C56 PUSH2 0x26A5 JUMP JUMPDEST JUMPDEST PUSH1 0x0 PUSH2 0x2C65 DUP8 DUP3 DUP9 ADD PUSH2 0x26D0 JUMP JUMPDEST SWAP5 POP POP PUSH1 0x20 PUSH2 0x2C76 DUP8 DUP3 DUP9 ADD PUSH2 0x2C28 JUMP JUMPDEST SWAP4 POP POP PUSH1 0x40 PUSH2 0x2C87 DUP8 DUP3 DUP9 ADD PUSH2 0x2C28 JUMP JUMPDEST SWAP3 POP POP PUSH1 0x60 PUSH2 0x2C98 DUP8 DUP3 DUP9 ADD PUSH2 0x2C28 JUMP JUMPDEST SWAP2 POP POP SWAP3 SWAP6 SWAP2 SWAP5 POP SWAP3 POP JUMP JUMPDEST PUSH1 0x0 DUP2 MLOAD SWAP1 POP SWAP2 SWAP1 POP JUMP JUMPDEST PUSH1 0x0 DUP3 DUP3 MSTORE PUSH1 0x20 DUP3 ADD SWAP1 POP SWAP3 SWAP2 POP POP JUMP JUMPDEST PUSH1 0x0 DUP2 SWAP1 POP PUSH1 0x20 DUP3 ADD SWAP1 POP SWAP2 SWAP1 POP JUMP JUMPDEST PUSH1 0x0 PUSH2 0x2CDC DUP4 DUP4 PUSH2 0x28EB JUMP JUMPDEST PUSH1 0x20 DUP4 ADD SWAP1 POP SWAP3 SWAP2 POP POP JUMP JUMPDEST PUSH1 0x0 PUSH1 0x20 DUP3 ADD SWAP1 POP SWAP2 SWAP1 POP JUMP JUMPDEST PUSH1 0x0 PUSH2 0x2D00 DUP3 PUSH2 0x2CA4 JUMP JUMPDEST PUSH2 0x2D0A DUP2 DUP6 PUSH2 0x2CAF JUMP JUMPDEST SWAP4 POP PUSH2 0x2D15 DUP4 PUSH2 0x2CC0 JUMP JUMPDEST DUP1 PUSH1 0x0 JUMPDEST DUP4 DUP2 LT ISZERO PUSH2 0x2D46 JUMPI DUP2 MLOAD PUSH2 0x2D2D DUP9 DUP3 PUSH2 0x2CD0 JUMP JUMPDEST SWAP8 POP PUSH2 0x2D38 DUP4 PUSH2 0x2CE8 JUMP JUMPDEST SWAP3 POP POP PUSH1 0x1 DUP2 ADD SWAP1 POP PUSH2 0x2D19 JUMP JUMPDEST POP DUP6 SWAP4 POP POP POP POP SWAP3 SWAP2 POP POP JUMP JUMPDEST PUSH1 0x0 PUSH1 0x20 DUP3 ADD SWAP1 POP DUP2 DUP2 SUB PUSH1 0x0 DUP4 ADD MSTORE PUSH2 0x2D6D DUP2 DUP5 PUSH2 0x2CF5 JUMP JUMPDEST SWAP1 POP SWAP3 SWAP2 POP POP JUMP JUMPDEST PUSH1 0x0 PUSH1 0x20 DUP3 ADD SWAP1 POP PUSH2 0x2D8A PUSH1 0x0 DUP4 ADD DUP5 PUSH2 0x2712 JUMP JUMPDEST SWAP3 SWAP2 POP POP JUMP JUMPDEST PUSH1 0x0 DUP1 REVERT JUMPDEST PUSH1 0x0 DUP1 REVERT JUMPDEST PUSH32 0x4E487B7100000000000000000000000000000000000000000000000000000000 PUSH1 0x0 MSTORE PUSH1 0x41 PUSH1 0x4 MSTORE PUSH1 0x24 PUSH1 0x0 REVERT JUMPDEST PUSH2 0x2DD2 DUP3 PUSH2 0x2767 JUMP JUMPDEST DUP2 ADD DUP2 DUP2 LT PUSH8 0xFFFFFFFFFFFFFFFF DUP3 GT OR ISZERO PUSH2 0x2DF1 JUMPI PUSH2 0x2DF0 PUSH2 0x2D9A JUMP JUMPDEST JUMPDEST DUP1 PUSH1 0x40 MSTORE POP POP POP JUMP JUMPDEST PUSH1 0x0 PUSH2 0x2E04 PUSH2 0x269B JUMP JUMPDEST SWAP1 POP PUSH2 0x2E10 DUP3 DUP3 PUSH2 0x2DC9 JUMP JUMPDEST SWAP2 SWAP1 POP JUMP JUMPDEST PUSH1 0x0 PUSH8 0xFFFFFFFFFFFFFFFF DUP3 GT ISZERO PUSH2 0x2E30 JUMPI PUSH2 0x2E2F PUSH2 0x2D9A JUMP JUMPDEST JUMPDEST PUSH2 0x2E39 DUP3 PUSH2 0x2767 JUMP JUMPDEST SWAP1 POP PUSH1 0x20 DUP2 ADD SWAP1 POP SWAP2 SWAP1 POP JUMP JUMPDEST DUP3 DUP2 DUP4 CALLDATACOPY PUSH1 0x0 DUP4 DUP4 ADD MSTORE POP POP POP JUMP JUMPDEST PUSH1 0x0 PUSH2 0x2E68 PUSH2 0x2E63 DUP5 PUSH2 0x2E15 JUMP JUMPDEST PUSH2 0x2DFA JUMP JUMPDEST SWAP1 POP DUP3 DUP2 MSTORE PUSH1 0x20 DUP2 ADD DUP5 DUP5 DUP5 ADD GT ISZERO PUSH2 0x2E84 JUMPI PUSH2 0x2E83 PUSH2 0x2D95 JUMP JUMPDEST JUMPDEST PUSH2 0x2E8F DUP5 DUP3 DUP6 PUSH2 0x2E46 JUMP JUMPDEST POP SWAP4 SWAP3 POP POP POP JUMP JUMPDEST PUSH1 0x0 DUP3 PUSH1 0x1F DUP4 ADD SLT PUSH2 0x2EAC JUMPI PUSH2 0x2EAB PUSH2 0x2D90 JUMP JUMPDEST JUMPDEST DUP2 CALLDATALOAD PUSH2 0x2EBC DUP5 DUP3 PUSH1 0x20 DUP7 ADD PUSH2 0x2E55 JUMP JUMPDEST SWAP2 POP POP SWAP3 SWAP2 POP POP JUMP JUMPDEST PUSH1 0x0 DUP1 PUSH1 0x0 DUP1 PUSH1 0x80 DUP6 DUP8 SUB SLT ISZERO PUSH2 0x2EDF JUMPI PUSH2 0x2EDE PUSH2 0x26A5 JUMP JUMPDEST JUMPDEST PUSH1 0x0 PUSH2 0x2EED DUP8 DUP3 DUP9 ADD PUSH2 0x26D0 JUMP JUMPDEST SWAP5 POP POP PUSH1 0x20 DUP6 ADD CALLDATALOAD PUSH8 0xFFFFFFFFFFFFFFFF DUP2 GT ISZERO PUSH2 0x2F0E JUMPI PUSH2 0x2F0D PUSH2 0x26AA JUMP JUMPDEST JUMPDEST PUSH2 0x2F1A DUP8 DUP3 DUP9 ADD PUSH2 0x2E97 JUMP JUMPDEST SWAP4 POP POP PUSH1 0x40 DUP6 ADD CALLDATALOAD PUSH8 0xFFFFFFFFFFFFFFFF DUP2 GT ISZERO PUSH2 0x2F3B JUMPI PUSH2 0x2F3A PUSH2 0x26AA JUMP JUMPDEST JUMPDEST PUSH2 0x2F47 DUP8 DUP3 DUP9 ADD PUSH2 0x2E97 JUMP JUMPDEST SWAP3 POP POP PUSH1 0x60 PUSH2 0x2F58 DUP8 DUP3 DUP9 ADD PUSH2 0x26D0 JUMP JUMPDEST SWAP2 POP POP SWAP3 SWAP6 SWAP2 SWAP5 POP SWAP3 POP JUMP JUMPDEST PUSH1 0x3 DUP2 LT PUSH2 0x2F71 JUMPI PUSH1 0x0 DUP1 REVERT JUMPDEST POP JUMP JUMPDEST PUSH1 0x0 DUP2 CALLDATALOAD SWAP1 POP PUSH2 0x2F83 DUP2 PUSH2 0x2F64 JUMP JUMPDEST SWAP3 SWAP2 POP POP JUMP JUMPDEST PUSH1 0x0 DUP1 PUSH1 0x40 DUP4 DUP6 SUB SLT ISZERO PUSH2 0x2FA0 JUMPI PUSH2 0x2F9F PUSH2 0x26A5 JUMP JUMPDEST JUMPDEST PUSH1 0x0 PUSH2 0x2FAE DUP6 DUP3 DUP7 ADD PUSH2 0x2AEC JUMP JUMPDEST SWAP3 POP POP PUSH1 0x20 PUSH2 0x2FBF DUP6 DUP3 DUP7 ADD PUSH2 0x2F74 JUMP JUMPDEST SWAP2 POP POP SWAP3 POP SWAP3 SWAP1 POP JUMP JUMPDEST PUSH1 0x0 DUP1 PUSH1 0x0 PUSH1 0x60 DUP5 DUP7 SUB SLT ISZERO PUSH2 0x2FE2 JUMPI PUSH2 0x2FE1 PUSH2 0x26A5 JUMP JUMPDEST JUMPDEST PUSH1 0x0 DUP5 ADD CALLDATALOAD PUSH8 0xFFFFFFFFFFFFFFFF DUP2 GT ISZERO PUSH2 0x3000 JUMPI PUSH2 0x2FFF PUSH2 0x26AA JUMP JUMPDEST JUMPDEST PUSH2 0x300C DUP7 DUP3 DUP8 ADD PUSH2 0x2E97 JUMP JUMPDEST SWAP4 POP POP PUSH1 0x20 DUP5 ADD CALLDATALOAD PUSH8 0xFFFFFFFFFFFFFFFF DUP2 GT ISZERO PUSH2 0x302D JUMPI PUSH2 0x302C PUSH2 0x26AA JUMP JUMPDEST JUMPDEST PUSH2 0x3039 DUP7 DUP3 DUP8 ADD PUSH2 0x2E97 JUMP JUMPDEST SWAP3 POP POP PUSH1 0x40 PUSH2 0x304A DUP7 DUP3 DUP8 ADD PUSH2 0x26D0 JUMP JUMPDEST SWAP2 POP POP SWAP3 POP SWAP3 POP SWAP3 JUMP JUMPDEST PUSH2 0x305D DUP2 PUSH2 0x2AC3 JUMP JUMPDEST DUP3 MSTORE POP POP JUMP JUMPDEST PUSH2 0x306C DUP2 PUSH2 0x2B93 JUMP JUMPDEST DUP3 MSTORE POP POP JUMP JUMPDEST PUSH1 0x0 PUSH1 0x60 DUP3 ADD SWAP1 POP PUSH2 0x3087 PUSH1 0x0 DUP4 ADD DUP7 PUSH2 0x3054 JUMP JUMPDEST PUSH2 0x3094 PUSH1 0x20 DUP4 ADD DUP6 PUSH2 0x3063 JUMP JUMPDEST PUSH2 0x30A1 PUSH1 0x40 DUP4 ADD DUP5 PUSH2 0x27BD JUMP JUMPDEST SWAP5 SWAP4 POP POP POP POP JUMP JUMPDEST PUSH1 0x0 DUP1 PUSH1 0x0 DUP1 PUSH1 0x0 PUSH1 0xA0 DUP7 DUP9 SUB SLT ISZERO PUSH2 0x30C5 JUMPI PUSH2 0x30C4 PUSH2 0x26A5 JUMP JUMPDEST JUMPDEST PUSH1 0x0 PUSH2 0x30D3 DUP9 DUP3 DUP10 ADD PUSH2 0x26D0 JUMP JUMPDEST SWAP6 POP POP PUSH1 0x20 PUSH2 0x30E4 DUP9 DUP3 DUP10 ADD PUSH2 0x26D0 JUMP JUMPDEST SWAP5 POP POP PUSH1 0x40 PUSH2 0x30F5 DUP9 DUP3 DUP10 ADD PUSH2 0x2C28 JUMP JUMPDEST SWAP4 POP POP PUSH1 0x60 PUSH2 0x3106 DUP9 DUP3 DUP10 ADD PUSH2 0x2C28 JUMP JUMPDEST SWAP3 POP POP PUSH1 0x80 PUSH2 0x3117 DUP9 DUP3 DUP10 ADD PUSH2 0x2C28 JUMP JUMPDEST SWAP2 POP POP SWAP3 SWAP6 POP SWAP3 SWAP6 SWAP1 SWAP4 POP JUMP JUMPDEST PUSH1 0x0 PUSH1 0x20 DUP3 ADD SWAP1 POP PUSH2 0x3139 PUSH1 0x0 DUP4 ADD DUP5 PUSH2 0x27BD JUMP JUMPDEST SWAP3 SWAP2 POP POP JUMP JUMPDEST PUSH1 0x0 DUP1 PUSH1 0x40 DUP4 DUP6 SUB SLT ISZERO PUSH2 0x3156 JUMPI PUSH2 0x3155 PUSH2 0x26A5 JUMP JUMPDEST JUMPDEST PUSH1 0x0 PUSH2 0x3164 DUP6 DUP3 DUP7 ADD PUSH2 0x26D0 JUMP JUMPDEST SWAP3 POP POP PUSH1 0x20 PUSH2 0x3175 DUP6 DUP3 DUP7 ADD PUSH2 0x26D0 JUMP JUMPDEST SWAP2 POP POP SWAP3 POP SWAP3 SWAP1 POP JUMP JUMPDEST PUSH1 0x0 PUSH1 0x20 DUP3 ADD SWAP1 POP PUSH2 0x3194 PUSH1 0x0 DUP4 ADD DUP5 PUSH2 0x3054 JUMP JUMPDEST SWAP3 SWAP2 POP POP JUMP JUMPDEST PUSH32 0x496E76616C696420636F75727365204944000000000000000000000000000000 PUSH1 0x0 DUP3 ADD MSTORE POP JUMP JUMPDEST PUSH1 0x0 PUSH2 0x31D0 PUSH1 0x11 DUP4 PUSH2 0x272C JUMP JUMPDEST SWAP2 POP PUSH2 0x31DB DUP3 PUSH2 0x319A JUMP JUMPDEST PUSH1 0x20 DUP3 ADD SWAP1 POP SWAP2 SWAP1 POP JUMP JUMPDEST PUSH1 0x0 PUSH1 0x20 DUP3 ADD SWAP1 POP DUP2 DUP2 SUB PUSH1 0x0 DUP4 ADD MSTORE PUSH2 0x31FF DUP2 PUSH2 0x31C3 JUMP JUMPDEST SWAP1 POP SWAP2 SWAP1 POP JUMP JUMPDEST PUSH32 0x4E487B7100000000000000000000000000000000000000000000000000000000 PUSH1 0x0 MSTORE PUSH1 0x22 PUSH1 0x4 MSTORE PUSH1 0x24 PUSH1 0x0 REVERT JUMPDEST PUSH1 0x0 PUSH1 0x2 DUP3 DIV SWAP1 POP PUSH1 0x1 DUP3 AND DUP1 PUSH2 0x324D JUMPI PUSH1 0x7F DUP3 AND SWAP2 POP JUMPDEST PUSH1 0x20 DUP3 LT DUP2 SUB PUSH2 0x3260 JUMPI PUSH2 0x325F PUSH2 0x3206 JUMP JUMPDEST JUMPDEST POP SWAP2 SWAP1 POP JUMP JUMPDEST PUSH32 0x436F7572736520646F6573206E6F74206578697374206F722068617320626565 PUSH1 0x0 DUP3 ADD MSTORE PUSH32 0x6E2064656C657465640000000000000000000000000000000000000000000000 PUSH1 0x20 DUP3 ADD MSTORE POP JUMP JUMPDEST PUSH1 0x0 PUSH2 0x32C2 PUSH1 0x29 DUP4 PUSH2 0x272C JUMP JUMPDEST SWAP2 POP PUSH2 0x32CD DUP3 PUSH2 0x3266 JUMP JUMPDEST PUSH1 0x40 DUP3 ADD SWAP1 POP SWAP2 SWAP1 POP JUMP JUMPDEST PUSH1 0x0 PUSH1 0x20 DUP3 ADD SWAP1 POP DUP2 DUP2 SUB PUSH1 0x0 DUP4 ADD MSTORE PUSH2 0x32F1 DUP2 PUSH2 0x32B5 JUMP JUMPDEST SWAP1 POP SWAP2 SWAP1 POP JUMP JUMPDEST PUSH32 0x4F6E6C792073747564656E74732063616E20726567697374657220696E20636F PUSH1 0x0 DUP3 ADD MSTORE PUSH32 0x7572736573000000000000000000000000000000000000000000000000000000 PUSH1 0x20 DUP3 ADD MSTORE POP JUMP JUMPDEST PUSH1 0x0 PUSH2 0x3354 PUSH1 0x25 DUP4 PUSH2 0x272C JUMP JUMPDEST SWAP2 POP PUSH2 0x335F DUP3 PUSH2 0x32F8 JUMP JUMPDEST PUSH1 0x40 DUP3 ADD SWAP1 POP SWAP2 SWAP1 POP JUMP JUMPDEST PUSH1 0x0 PUSH1 0x20 DUP3 ADD SWAP1 POP DUP2 DUP2 SUB PUSH1 0x0 DUP4 ADD MSTORE PUSH2 0x3383 DUP2 PUSH2 0x3347 JUMP JUMPDEST SWAP1 POP SWAP2 SWAP1 POP JUMP JUMPDEST PUSH32 0x4E487B7100000000000000000000000000000000000000000000000000000000 PUSH1 0x0 MSTORE PUSH1 0x32 PUSH1 0x4 MSTORE PUSH1 0x24 PUSH1 0x0 REVERT JUMPDEST PUSH32 0x53747564656E7420616C7265616479207265676973746572656420696E207468 PUSH1 0x0 DUP3 ADD MSTORE PUSH32 0x6520636F75727365000000000000000000000000000000000000000000000000 PUSH1 0x20 DUP3 ADD MSTORE POP JUMP JUMPDEST PUSH1 0x0 PUSH2 0x3415 PUSH1 0x28 DUP4 PUSH2 0x272C JUMP JUMPDEST SWAP2 POP PUSH2 0x3420 DUP3 PUSH2 0x33B9 JUMP JUMPDEST PUSH1 0x40 DUP3 ADD SWAP1 POP SWAP2 SWAP1 POP JUMP JUMPDEST PUSH1 0x0 PUSH1 0x20 DUP3 ADD SWAP1 POP DUP2 DUP2 SUB PUSH1 0x0 DUP4 ADD MSTORE PUSH2 0x3444 DUP2 PUSH2 0x3408 JUMP JUMPDEST SWAP1 POP SWAP2 SWAP1 POP JUMP JUMPDEST PUSH1 0x0 PUSH1 0x40 DUP3 ADD SWAP1 POP PUSH2 0x3460 PUSH1 0x0 DUP4 ADD DUP6 PUSH2 0x2712 JUMP JUMPDEST PUSH2 0x346D PUSH1 0x20 DUP4 ADD DUP5 PUSH2 0x3054 JUMP JUMPDEST SWAP4 SWAP3 POP POP POP JUMP JUMPDEST PUSH32 0x4E487B7100000000000000000000000000000000000000000000000000000000 PUSH1 0x0 MSTORE PUSH1 0x11 PUSH1 0x4 MSTORE PUSH1 0x24 PUSH1 0x0 REVERT JUMPDEST PUSH1 0x0 PUSH2 0x34AE DUP3 PUSH2 0x26AF JUMP JUMPDEST SWAP2 POP PUSH32 0xFFFFFFFFFFFFFFFFFFFFFFFFFFFFFFFFFFFFFFFFFFFFFFFFFFFFFFFFFFFFFFFF DUP3 SUB PUSH2 0x34E0 JUMPI PUSH2 0x34DF PUSH2 0x3474 JUMP JUMPDEST JUMPDEST PUSH1 0x1 DUP3 ADD SWAP1 POP SWAP2 SWAP1 POP JUMP JUMPDEST PUSH32 0x55736572206E6F74207265676973746572656400000000000000000000000000 PUSH1 0x0 DUP3 ADD MSTORE POP JUMP JUMPDEST PUSH1 0x0 PUSH2 0x3521 PUSH1 0x13 DUP4 PUSH2 0x272C JUMP JUMPDEST SWAP2 POP PUSH2 0x352C DUP3 PUSH2 0x34EB JUMP JUMPDEST PUSH1 0x20 DUP3 ADD SWAP1 POP SWAP2 SWAP1 POP JUMP JUMPDEST PUSH1 0x0 PUSH1 0x20 DUP3 ADD SWAP1 POP DUP2 DUP2 SUB PUSH1 0x0 DUP4 ADD MSTORE PUSH2 0x3550 DUP2 PUSH2 0x3514 JUMP JUMPDEST SWAP1 POP SWAP2 SWAP1 POP JUMP JUMPDEST PUSH32 0x496E76616C696420646179000000000000000000000000000000000000000000 PUSH1 0x0 DUP3 ADD MSTORE POP JUMP JUMPDEST PUSH1 0x0 PUSH2 0x358D PUSH1 0xB DUP4 PUSH2 0x272C JUMP JUMPDEST SWAP2 POP PUSH2 0x3598 DUP3 PUSH2 0x3557 JUMP JUMPDEST PUSH1 0x20 DUP3 ADD SWAP1 POP SWAP2 SWAP1 POP JUMP JUMPDEST PUSH1 0x0 PUSH1 0x20 DUP3 ADD SWAP1 POP DUP2 DUP2 SUB PUSH1 0x0 DUP4 ADD MSTORE PUSH2 0x35BC DUP2 PUSH2 0x3580 JUMP JUMPDEST SWAP1 POP SWAP2 SWAP1 POP JUMP JUMPDEST PUSH32 0x496E76616C6964207363686564756C6500000000000000000000000000000000 PUSH1 0x0 DUP3 ADD MSTORE POP JUMP JUMPDEST PUSH1 0x0 PUSH2 0x35F9 PUSH1 0x10 DUP4 PUSH2 0x272C JUMP JUMPDEST SWAP2 POP PUSH2 0x3604 DUP3 PUSH2 0x35C3 JUMP JUMPDEST PUSH1 0x20 DUP3 ADD SWAP1 POP SWAP2 SWAP1 POP JUMP JUMPDEST PUSH1 0x0 PUSH1 0x20 DUP3 ADD SWAP1 POP DUP2 DUP2 SUB PUSH1 0x0 DUP4 ADD MSTORE PUSH2 0x3628 DUP2 PUSH2 0x35EC JUMP JUMPDEST SWAP1 POP SWAP2 SWAP1 POP JUMP JUMPDEST PUSH1 0x0 PUSH2 0x363A DUP3 PUSH2 0x26AF JUMP JUMPDEST SWAP2 POP PUSH2 0x3645 DUP4 PUSH2 0x26AF JUMP JUMPDEST SWAP3 POP DUP3 DUP3 ADD SWAP1 POP DUP1 DUP3 GT ISZERO PUSH2 0x365D JUMPI PUSH2 0x365C PUSH2 0x3474 JUMP JUMPDEST JUMPDEST SWAP3 SWAP2 POP POP JUMP JUMPDEST PUSH1 0x0 DUP2 SLOAD SWAP1 POP PUSH2 0x3672 DUP2 PUSH2 0x3235 JUMP JUMPDEST SWAP1 POP SWAP2 SWAP1 POP JUMP JUMPDEST PUSH1 0x0 DUP2 SWAP1 POP DUP2 PUSH1 0x0 MSTORE PUSH1 0x20 PUSH1 0x0 KECCAK256 SWAP1 POP SWAP2 SWAP1 POP JUMP JUMPDEST PUSH1 0x0 DUP2 SWAP1 POP DUP2 PUSH1 0x0 MSTORE PUSH1 0x20 PUSH1 0x0 KECCAK256 SWAP1 POP SWAP2 SWAP1 POP JUMP JUMPDEST PUSH1 0x0 PUSH1 0x20 PUSH1 0x1F DUP4 ADD DIV SWAP1 POP SWAP2 SWAP1 POP JUMP JUMPDEST PUSH1 0x0 DUP3 DUP3 SHL SWAP1 POP SWAP3 SWAP2 POP POP JUMP JUMPDEST PUSH1 0x0 PUSH1 0x8 DUP4 MUL PUSH2 0x36F0 PUSH32 0xFFFFFFFFFFFFFFFFFFFFFFFFFFFFFFFFFFFFFFFFFFFFFFFFFFFFFFFFFFFFFFFF DUP3 PUSH2 0x36B3 JUMP JUMPDEST PUSH2 0x36FA DUP7 DUP4 PUSH2 0x36B3 JUMP JUMPDEST SWAP6 POP DUP1 NOT DUP5 AND SWAP4 POP DUP1 DUP7 AND DUP5 OR SWAP3 POP POP POP SWAP4 SWAP3 POP POP POP JUMP JUMPDEST PUSH1 0x0 DUP2 SWAP1 POP SWAP2 SWAP1 POP JUMP JUMPDEST PUSH1 0x0 PUSH2 0x3737 PUSH2 0x3732 PUSH2 0x372D DUP5 PUSH2 0x26AF JUMP JUMPDEST PUSH2 0x3712 JUMP JUMPDEST PUSH2 0x26AF JUMP JUMPDEST SWAP1 POP SWAP2 SWAP1 POP JUMP JUMPDEST PUSH1 0x0 DUP2 SWAP1 POP SWAP2 SWAP1 POP JUMP JUMPDEST PUSH2 0x3751 DUP4 PUSH2 0x371C JUMP JUMPDEST PUSH2 0x3765 PUSH2 0x375D DUP3 PUSH2 0x373E JUMP JUMPDEST DUP5 DUP5 SLOAD PUSH2 0x36C0 JUMP JUMPDEST DUP3 SSTORE POP POP POP POP JUMP JUMPDEST PUSH1 0x0 SWAP1 JUMP JUMPDEST PUSH2 0x377A PUSH2 0x376D JUMP JUMPDEST PUSH2 0x3785 DUP2 DUP5 DUP5 PUSH2 0x3748 JUMP JUMPDEST POP POP POP JUMP JUMPDEST JUMPDEST DUP2 DUP2 LT ISZERO PUSH2 0x37A9 JUMPI PUSH2 0x379E PUSH1 0x0 DUP3 PUSH2 0x3772 JUMP JUMPDEST PUSH1 0x1 DUP2 ADD SWAP1 POP PUSH2 0x378B JUMP JUMPDEST POP POP JUMP JUMPDEST PUSH1 0x1F DUP3 GT ISZERO PUSH2 0x37EE JUMPI PUSH2 0x37BF DUP2 PUSH2 0x3679 JUMP JUMPDEST PUSH2 0x37C8 DUP5 PUSH2 0x36A3 JUMP JUMPDEST DUP2 ADD PUSH1 0x20 DUP6 LT ISZERO PUSH2 0x37D7 JUMPI DUP2 SWAP1 POP JUMPDEST PUSH2 0x37EB PUSH2 0x37E3 DUP6 PUSH2 0x36A3 JUMP JUMPDEST DUP4 ADD DUP3 PUSH2 0x378A JUMP JUMPDEST POP POP JUMPDEST POP POP POP JUMP JUMPDEST PUSH1 0x0 DUP3 DUP3 SHR SWAP1 POP SWAP3 SWAP2 POP POP JUMP JUMPDEST PUSH1 0x0 PUSH2 0x3811 PUSH1 0x0 NOT DUP5 PUSH1 0x8 MUL PUSH2 0x37F3 JUMP JUMPDEST NOT DUP1 DUP4 AND SWAP2 POP POP SWAP3 SWAP2 POP POP JUMP JUMPDEST PUSH1 0x0 PUSH2 0x382A DUP4 DUP4 PUSH2 0x3800 JUMP JUMPDEST SWAP2 POP DUP3 PUSH1 0x2 MUL DUP3 OR SWAP1 POP SWAP3 SWAP2 POP POP JUMP JUMPDEST DUP2 DUP2 SUB PUSH2 0x3848 JUMPI POP POP PUSH2 0x3920 JUMP JUMPDEST PUSH2 0x3851 DUP3 PUSH2 0x3663 JUMP JUMPDEST PUSH8 0xFFFFFFFFFFFFFFFF DUP2 GT ISZERO PUSH2 0x386A JUMPI PUSH2 0x3869 PUSH2 0x2D9A JUMP JUMPDEST JUMPDEST PUSH2 0x3874 DUP3 SLOAD PUSH2 0x3235 JUMP JUMPDEST PUSH2 0x387F DUP3 DUP3 DUP6 PUSH2 0x37AD JUMP JUMPDEST PUSH1 0x0 PUSH1 0x1F DUP4 GT PUSH1 0x1 DUP2 EQ PUSH2 0x38AE JUMPI PUSH1 0x0 DUP5 ISZERO PUSH2 0x389C JUMPI DUP3 DUP8 ADD SLOAD SWAP1 POP JUMPDEST PUSH2 0x38A6 DUP6 DUP3 PUSH2 0x381E JUMP JUMPDEST DUP7 SSTORE POP PUSH2 0x3919 JUMP JUMPDEST PUSH1 0x1F NOT DUP5 AND PUSH2 0x38BC DUP8 PUSH2 0x368E JUMP JUMPDEST SWAP7 POP PUSH2 0x38C7 DUP7 PUSH2 0x3679 JUMP JUMPDEST PUSH1 0x0 JUMPDEST DUP3 DUP2 LT ISZERO PUSH2 0x38EF JUMPI DUP5 DUP10 ADD SLOAD DUP3 SSTORE PUSH1 0x1 DUP3 ADD SWAP2 POP PUSH1 0x1 DUP6 ADD SWAP5 POP PUSH1 0x20 DUP2 ADD SWAP1 POP PUSH2 0x38CA JUMP JUMPDEST DUP7 DUP4 LT ISZERO PUSH2 0x390C JUMPI DUP5 DUP10 ADD SLOAD PUSH2 0x3908 PUSH1 0x1F DUP10 AND DUP3 PUSH2 0x3800 JUMP JUMPDEST DUP4 SSTORE POP JUMPDEST PUSH1 0x1 PUSH1 0x2 DUP9 MUL ADD DUP9 SSTORE POP POP POP JUMPDEST POP POP POP POP POP POP JUMPDEST JUMP JUMPDEST PUSH1 0x0 PUSH1 0x80 DUP3 ADD SWAP1 POP PUSH2 0x3937 PUSH1 0x0 DUP4 ADD DUP8 PUSH2 0x2712 JUMP JUMPDEST PUSH2 0x3944 PUSH1 0x20 DUP4 ADD DUP7 PUSH2 0x2848 JUMP JUMPDEST PUSH2 0x3951 PUSH1 0x40 DUP4 ADD DUP6 PUSH2 0x2848 JUMP JUMPDEST PUSH2 0x395E PUSH1 0x60 DUP4 ADD DUP5 PUSH2 0x2848 JUMP JUMPDEST SWAP6 SWAP5 POP POP POP POP POP JUMP JUMPDEST PUSH32 0x496E76616C6964207363686564756C6520494400000000000000000000000000 PUSH1 0x0 DUP3 ADD MSTORE POP JUMP JUMPDEST PUSH1 0x0 PUSH2 0x399D PUSH1 0x13 DUP4 PUSH2 0x272C JUMP JUMPDEST SWAP2 POP PUSH2 0x39A8 DUP3 PUSH2 0x3967 JUMP JUMPDEST PUSH1 0x20 DUP3 ADD SWAP1 POP SWAP2 SWAP1 POP JUMP JUMPDEST PUSH1 0x0 PUSH1 0x20 DUP3 ADD SWAP1 POP DUP2 DUP2 SUB PUSH1 0x0 DUP4 ADD MSTORE PUSH2 0x39CC DUP2 PUSH2 0x3990 JUMP JUMPDEST SWAP1 POP SWAP2 SWAP1 POP JUMP JUMPDEST PUSH32 0x4F6E6C792073747564656E74732063616E206861766520656E726F6C6C656420 PUSH1 0x0 DUP3 ADD MSTORE PUSH32 0x636F757273657300000000000000000000000000000000000000000000000000 PUSH1 0x20 DUP3 ADD MSTORE POP JUMP JUMPDEST PUSH1 0x0 PUSH2 0x3A2F PUSH1 0x27 DUP4 PUSH2 0x272C JUMP JUMPDEST SWAP2 POP PUSH2 0x3A3A DUP3 PUSH2 0x39D3 JUMP JUMPDEST PUSH1 0x40 DUP3 ADD SWAP1 POP SWAP2 SWAP1 POP JUMP JUMPDEST PUSH1 0x0 PUSH1 0x20 DUP3 ADD SWAP1 POP DUP2 DUP2 SUB PUSH1 0x0 DUP4 ADD MSTORE PUSH2 0x3A5E DUP2 PUSH2 0x3A22 JUMP JUMPDEST SWAP1 POP SWAP2 SWAP1 POP JUMP JUMPDEST PUSH2 0x3A6E DUP3 PUSH2 0x2721 JUMP JUMPDEST PUSH8 0xFFFFFFFFFFFFFFFF DUP2 GT ISZERO PUSH2 0x3A87 JUMPI PUSH2 0x3A86 PUSH2 0x2D9A JUMP JUMPDEST JUMPDEST PUSH2 0x3A91 DUP3 SLOAD PUSH2 0x3235 JUMP JUMPDEST PUSH2 0x3A9C DUP3 DUP3 DUP6 PUSH2 0x37AD JUMP JUMPDEST PUSH1 0x0 PUSH1 0x20 SWAP1 POP PUSH1 0x1F DUP4 GT PUSH1 0x1 DUP2 EQ PUSH2 0x3ACF JUMPI PUSH1 0x0 DUP5 ISZERO PUSH2 0x3ABD JUMPI DUP3 DUP8 ADD MLOAD SWAP1 POP JUMPDEST PUSH2 0x3AC7 DUP6 DUP3 PUSH2 0x381E JUMP JUMPDEST DUP7 SSTORE POP PUSH2 0x3B2F JUMP JUMPDEST PUSH1 0x1F NOT DUP5 AND PUSH2 0x3ADD DUP7 PUSH2 0x3679 JUMP JUMPDEST PUSH1 0x0 JUMPDEST DUP3 DUP2 LT ISZERO PUSH2 0x3B05 JUMPI DUP5 DUP10 ADD MLOAD DUP3 SSTORE PUSH1 0x1 DUP3 ADD SWAP2 POP PUSH1 0x20 DUP6 ADD SWAP5 POP PUSH1 0x20 DUP2 ADD SWAP1 POP PUSH2 0x3AE0 JUMP JUMPDEST DUP7 DUP4 LT ISZERO PUSH2 0x3B22 JUMPI DUP5 DUP10 ADD MLOAD PUSH2 0x3B1E PUSH1 0x1F DUP10 AND DUP3 PUSH2 0x3800 JUMP JUMPDEST DUP4 SSTORE POP JUMPDEST PUSH1 0x1 PUSH1 0x2 DUP9 MUL ADD DUP9 SSTORE POP POP POP JUMPDEST POP POP POP POP POP POP JUMP JUMPDEST PUSH1 0x0 PUSH1 0x40 DUP3 ADD SWAP1 POP PUSH2 0x3B4C PUSH1 0x0 DUP4 ADD DUP6 PUSH2 0x2712 JUMP JUMPDEST DUP2 DUP2 SUB PUSH1 0x20 DUP4 ADD MSTORE PUSH2 0x3B5E DUP2 DUP5 PUSH2 0x2778 JUMP JUMPDEST SWAP1 POP SWAP4 SWAP3 POP POP POP JUMP JUMPDEST PUSH32 0x5573657220616C72656164792072656769737465726564000000000000000000 PUSH1 0x0 DUP3 ADD MSTORE POP JUMP JUMPDEST PUSH1 0x0 PUSH2 0x3B9D PUSH1 0x17 DUP4 PUSH2 0x272C JUMP JUMPDEST SWAP2 POP PUSH2 0x3BA8 DUP3 PUSH2 0x3B67 JUMP JUMPDEST PUSH1 0x20 DUP3 ADD SWAP1 POP SWAP2 SWAP1 POP JUMP JUMPDEST PUSH1 0x0 PUSH1 0x20 DUP3 ADD SWAP1 POP DUP2 DUP2 SUB PUSH1 0x0 DUP4 ADD MSTORE PUSH2 0x3BCC DUP2 PUSH2 0x3B90 JUMP JUMPDEST SWAP1 POP SWAP2 SWAP1 POP JUMP JUMPDEST PUSH1 0x0 PUSH1 0x40 DUP3 ADD SWAP1 POP PUSH2 0x3BE8 PUSH1 0x0 DUP4 ADD DUP6 PUSH2 0x3054 JUMP JUMPDEST PUSH2 0x3BF5 PUSH1 0x20 DUP4 ADD DUP5 PUSH2 0x3063 JUMP JUMPDEST SWAP4 SWAP3 POP POP POP JUMP JUMPDEST PUSH32 0x5363686564756C6520646F6573206E6F74206578697374206F72206861732062 PUSH1 0x0 DUP3 ADD MSTORE PUSH32 0x65656E2064656C65746564000000000000000000000000000000000000000000 PUSH1 0x20 DUP3 ADD MSTORE POP JUMP JUMPDEST PUSH1 0x0 PUSH2 0x3C58 PUSH1 0x2B DUP4 PUSH2 0x272C JUMP JUMPDEST SWAP2 POP PUSH2 0x3C63 DUP3 PUSH2 0x3BFC JUMP JUMPDEST PUSH1 0x40 DUP3 ADD SWAP1 POP SWAP2 SWAP1 POP JUMP JUMPDEST PUSH1 0x0 PUSH1 0x20 DUP3 ADD SWAP1 POP DUP2 DUP2 SUB PUSH1 0x0 DUP4 ADD MSTORE PUSH2 0x3C87 DUP2 PUSH2 0x3C4B JUMP JUMPDEST SWAP1 POP SWAP2 SWAP1 POP JUMP JUMPDEST PUSH1 0x0 PUSH1 0xA0 DUP3 ADD SWAP1 POP PUSH2 0x3CA3 PUSH1 0x0 DUP4 ADD DUP9 PUSH2 0x2712 JUMP JUMPDEST PUSH2 0x3CB0 PUSH1 0x20 DUP4 ADD DUP8 PUSH2 0x2712 JUMP JUMPDEST PUSH2 0x3CBD PUSH1 0x40 DUP4 ADD DUP7 PUSH2 0x2848 JUMP JUMPDEST PUSH2 0x3CCA PUSH1 0x60 DUP4 ADD DUP6 PUSH2 0x2848 JUMP JUMPDEST PUSH2 0x3CD7 PUSH1 0x80 DUP4 ADD DUP5 PUSH2 0x2848 JUMP JUMPDEST SWAP7 SWAP6 POP POP POP POP POP POP JUMP INVALID LOG2 PUSH5 0x6970667358 0x22 SLT KECCAK256 0xF7 PUSH6 0xD37F0C211397 GT JUMPDEST PUSH4 0xCB46B17D SWAP7 PUSH26 0xFFF1F3077BD08E8D5AC2194010677F64736F6C634300081B0033 "},"methodIdentifiers":{"addSchedule(uint256,uint8,uint8,uint8)":"77b31134","admin()":"f851a440","courses(uint256)":"96f979d2","createCourse(string,string,uint256)":"a4adb24b","deleteCourse(uint256)":"9dad8d22","deleteSchedule(uint256,uint256)":"ecf1938e","getCourse(uint256)":"0b91e28d","getSchedule(uint256,uint256)":"f43e5e42","getScheduleById(uint256)":"80b3ea88","getStudentCourses()":"83517a4f","getUser(address)":"6f77926b","isRegistered(address)":"c3c5a547","listAllSchedules()":"292a1b55","listCourses()":"c53069c7","registerStudentInCourse(uint256)":"19384dd1","registerUser(address,uint8)":"9e9fa097","schedulesById(uint256)":"27fd9572","totalCourses()":"87ac1860","totalSchedules()":"965720af","updateCourse(uint256,string,string,uint256)":"91aac065","updateSchedule(uint256,uint256,uint8,uint8,uint8)":"bfc42328","users(address)":"a87430ba"}}}}}