{"contracts/CourseContract.sol":{"CourseContract":{"abi":[{"inputs":[],"stateMutability":"nonpayable","type":"constructor"},{"anonymous":false,"inputs":[{"indexed":false,"internalType":"uint256","name":"scheduleId","type":"uint256"},{"indexed":false,"internalType":"uint256","name":"classroomId","type":"uint256"}],"name":"ClassroomAssignedToSchedule","type":"event"},{"anonymous":false,"inputs":[{"indexed":false,"internalType":"uint256","name":"id","type":"uint256"},{"indexed":false,"internalType":"string","name":"name","type":"string"}],"name":"ClassroomCreated","type":"event"},{"anonymous":false,"inputs":[{"indexed":false,"internalType":"uint256","name":"id","type":"uint256"}],"name":"ClassroomDeleted","type":"event"},{"anonymous":false,"inputs":[{"indexed":false,"internalType":"uint256","name":"id","type":"uint256"},{"indexed":false,"internalType":"string","name":"name","type":"string"}],"name":"ClassroomUpdated","type":"event"},{"anonymous":false,"inputs":[{"indexed":false,"internalType":"uint256","name":"id","type":"uint256"},{"indexed":false,"internalType":"string","name":"name","type":"string"}],"name":"CourseCreated","type":"event"},{"anonymous":false,"inputs":[{"indexed":false,"internalType":"uint256","name":"id","type":"uint256"}],"name":"CourseDeleted","type":"event"},{"anonymous":false,"inputs":[{"indexed":false,"internalType":"uint256","name":"id","type":"uint256"},{"indexed":false,"internalType":"string","name":"name","type":"string"}],"name":"CourseUpdated","type":"event"},{"anonymous":false,"inputs":[{"indexed":false,"internalType":"uint256","name":"scheduleId","type":"uint256"},{"indexed":false,"internalType":"address","name":"professor","type":"address"}],"name":"ProfessorAssignedToSchedule","type":"event"},{"anonymous":false,"inputs":[{"indexed":false,"internalType":"address","name":"professor","type":"address"},{"indexed":false,"internalType":"string","name":"info","type":"string"}],"name":"ProfessorUpdated","type":"event"},{"anonymous":false,"inputs":[{"indexed":false,"internalType":"uint256","name":"id","type":"uint256"},{"indexed":false,"internalType":"uint8","name":"day","type":"uint8"},{"indexed":false,"internalType":"uint8","name":"startHour","type":"uint8"},{"indexed":false,"internalType":"uint8","name":"endHour","type":"uint8"}],"name":"ScheduleAdded","type":"event"},{"anonymous":false,"inputs":[{"indexed":false,"internalType":"uint256","name":"courseId","type":"uint256"},{"indexed":false,"internalType":"uint256","name":"scheduleId","type":"uint256"},{"indexed":false,"internalType":"uint8","name":"day","type":"uint8"},{"indexed":false,"internalType":"uint8","name":"startHour","type":"uint8"},{"indexed":false,"internalType":"uint8","name":"endHour","type":"uint8"}],"name":"ScheduleUpdated","type":"event"},{"anonymous":false,"inputs":[{"indexed":false,"internalType":"uint256","name":"courseId","type":"uint256"},{"indexed":false,"internalType":"address","name":"student","type":"address"}],"name":"StudentRegisteredInCourse","type":"event"},{"anonymous":false,"inputs":[{"indexed":false,"internalType":"address","name":"addr","type":"address"},{"indexed":false,"internalType":"enum CourseContract.Role","name":"role","type":"uint8"}],"name":"UserRegistered","type":"event"},{"inputs":[{"internalType":"uint256","name":"_id","type":"uint256"},{"internalType":"uint8","name":"_day","type":"uint8"},{"internalType":"uint8","name":"_startHour","type":"uint8"},{"internalType":"uint8","name":"_endHour","type":"uint8"},{"internalType":"uint256","name":"_classroomId","type":"uint256"},{"internalType":"address","name":"_professor","type":"address"}],"name":"addSchedule","outputs":[],"stateMutability":"nonpayable","type":"function"},{"inputs":[],"name":"admin","outputs":[{"internalType":"address","name":"","type":"address"}],"stateMutability":"view","type":"function"},{"inputs":[{"internalType":"uint256","name":"_courseId","type":"uint256"},{"internalType":"uint256","name":"_scheduleId","type":"uint256"},{"internalType":"uint256","name":"_classroomId","type":"uint256"}],"name":"assignClassroomToSchedule","outputs":[],"stateMutability":"nonpayable","type":"function"},{"inputs":[{"internalType":"uint256","name":"_courseId","type":"uint256"},{"internalType":"uint256","name":"_scheduleId","type":"uint256"},{"internalType":"address","name":"_professor","type":"address"}],"name":"assignProfessorToSchedule","outputs":[],"stateMutability":"nonpayable","type":"function"},{"inputs":[{"internalType":"uint256","name":"","type":"uint256"}],"name":"classrooms","outputs":[{"internalType":"uint256","name":"id","type":"uint256"},{"internalType":"string","name":"name","type":"string"},{"internalType":"string","name":"building","type":"string"},{"internalType":"uint256","name":"capacity","type":"uint256"},{"internalType":"bool","name":"isActive","type":"bool"}],"stateMutability":"view","type":"function"},{"inputs":[{"internalType":"uint256","name":"","type":"uint256"}],"name":"courses","outputs":[{"internalType":"uint256","name":"id","type":"uint256"},{"internalType":"string","name":"name","type":"string"},{"internalType":"string","name":"description","type":"string"},{"internalType":"uint256","name":"credits","type":"uint256"},{"internalType":"bool","name":"isActive","type":"bool"},{"internalType":"uint256","name":"totalSchedules","type":"uint256"}],"stateMutability":"view","type":"function"},{"inputs":[{"internalType":"string","name":"_name","type":"string"},{"internalType":"string","name":"_building","type":"string"},{"internalType":"uint256","name":"_capacity","type":"uint256"}],"name":"createClassroom","outputs":[],"stateMutability":"nonpayable","type":"function"},{"inputs":[{"internalType":"string","name":"_name","type":"string"},{"internalType":"string","name":"_description","type":"string"},{"internalType":"uint256","name":"_credits","type":"uint256"}],"name":"createCourse","outputs":[],"stateMutability":"nonpayable","type":"function"},{"inputs":[{"internalType":"uint256","name":"_id","type":"uint256"}],"name":"deleteClassroom","outputs":[],"stateMutability":"nonpayable","type":"function"},{"inputs":[{"internalType":"uint256","name":"_id","type":"uint256"}],"name":"deleteCourse","outputs":[],"stateMutability":"nonpayable","type":"function"},{"inputs":[{"internalType":"uint256","name":"_courseId","type":"uint256"},{"internalType":"uint256","name":"_scheduleId","type":"uint256"}],"name":"deleteSchedule","outputs":[],"stateMutability":"nonpayable","type":"function"},{"inputs":[{"internalType":"uint256","name":"_id","type":"uint256"}],"name":"getClassroom","outputs":[{"internalType":"uint256","name":"","type":"uint256"},{"internalType":"string","name":"","type":"string"},{"internalType":"string","name":"","type":"string"},{"internalType":"uint256","name":"","type":"uint256"},{"internalType":"bool","name":"","type":"bool"}],"stateMutability":"view","type":"function"},{"inputs":[{"internalType":"uint256","name":"_id","type":"uint256"}],"name":"getCourse","outputs":[{"internalType":"uint256","name":"","type":"uint256"},{"internalType":"string","name":"","type":"string"},{"internalType":"string","name":"","type":"string"},{"internalType":"uint256","name":"","type":"uint256"},{"internalType":"bool","name":"","type":"bool"},{"internalType":"uint256","name":"","type":"uint256"}],"stateMutability":"view","type":"function"},{"inputs":[{"internalType":"address","name":"_professor","type":"address"}],"name":"getProfessorCourses","outputs":[{"internalType":"uint256[]","name":"","type":"uint256[]"}],"stateMutability":"view","type":"function"},{"inputs":[{"internalType":"address","name":"_professor","type":"address"}],"name":"getProfessorSchedules","outputs":[{"components":[{"internalType":"uint256","name":"id","type":"uint256"},{"internalType":"uint8","name":"day","type":"uint8"},{"internalType":"uint8","name":"startHour","type":"uint8"},{"internalType":"uint8","name":"endHour","type":"uint8"},{"internalType":"string","name":"courseName","type":"string"},{"internalType":"bool","name":"isActive","type":"bool"},{"internalType":"uint256","name":"classroomId","type":"uint256"},{"internalType":"address","name":"professor","type":"address"}],"internalType":"struct CourseContract.Schedule[]","name":"","type":"tuple[]"}],"stateMutability":"view","type":"function"},{"inputs":[{"internalType":"uint256","name":"_courseId","type":"uint256"},{"internalType":"uint256","name":"_scheduleId","type":"uint256"}],"name":"getSchedule","outputs":[{"internalType":"uint256","name":"","type":"uint256"},{"internalType":"uint8","name":"","type":"uint8"},{"internalType":"uint8","name":"","type":"uint8"},{"internalType":"uint8","name":"","type":"uint8"},{"internalType":"string","name":"","type":"string"},{"internalType":"bool","name":"","type":"bool"},{"internalType":"uint256","name":"","type":"uint256"},{"internalType":"address","name":"","type":"address"}],"stateMutability":"view","type":"function"},{"inputs":[{"internalType":"uint256","name":"_scheduleId","type":"uint256"}],"name":"getScheduleById","outputs":[{"internalType":"uint256","name":"","type":"uint256"},{"internalType":"uint8","name":"","type":"uint8"},{"internalType":"uint8","name":"","type":"uint8"},{"internalType":"uint8","name":"","type":"uint8"},{"internalType":"string","name":"","type":"string"},{"internalType":"bool","name":"","type":"bool"},{"internalType":"uint256","name":"","type":"uint256"},{"internalType":"address","name":"","type":"address"}],"stateMutability":"view","type":"function"},{"inputs":[],"name":"getStudentCourses","outputs":[{"internalType":"uint256[]","name":"","type":"uint256[]"}],"stateMutability":"view","type":"function"},{"inputs":[{"internalType":"address","name":"_user","type":"address"}],"name":"getUser","outputs":[{"components":[{"internalType":"address","name":"addr","type":"address"},{"internalType":"enum CourseContract.Role","name":"role","type":"uint8"},{"internalType":"bool","name":"isActive","type":"bool"}],"internalType":"struct CourseContract.User","name":"","type":"tuple"}],"stateMutability":"view","type":"function"},{"inputs":[{"internalType":"address","name":"_user","type":"address"}],"name":"isRegistered","outputs":[{"internalType":"bool","name":"","type":"bool"}],"stateMutability":"view","type":"function"},{"inputs":[],"name":"listAllSchedules","outputs":[{"components":[{"internalType":"uint256","name":"id","type":"uint256"},{"internalType":"uint8","name":"day","type":"uint8"},{"internalType":"uint8","name":"startHour","type":"uint8"},{"internalType":"uint8","name":"endHour","type":"uint8"},{"internalType":"string","name":"courseName","type":"string"},{"internalType":"bool","name":"isActive","type":"bool"},{"internalType":"uint256","name":"classroomId","type":"uint256"},{"internalType":"address","name":"professor","type":"address"}],"internalType":"struct CourseContract.Schedule[]","name":"","type":"tuple[]"}],"stateMutability":"view","type":"function"},{"inputs":[],"name":"listClassrooms","outputs":[{"internalType":"uint256[]","name":"","type":"uint256[]"}],"stateMutability":"view","type":"function"},{"inputs":[],"name":"listCourses","outputs":[{"internalType":"uint256[]","name":"","type":"uint256[]"}],"stateMutability":"view","type":"function"},{"inputs":[{"internalType":"uint256[]","name":"_courseIds","type":"uint256[]"}],"name":"registerStudentInCourses","outputs":[],"stateMutability":"nonpayable","type":"function"},{"inputs":[{"internalType":"address","name":"_user","type":"address"},{"internalType":"enum CourseContract.Role","name":"_role","type":"uint8"}],"name":"registerUser","outputs":[],"stateMutability":"nonpayable","type":"function"},{"inputs":[{"internalType":"uint256","name":"","type":"uint256"}],"name":"schedulesById","outputs":[{"internalType":"uint256","name":"id","type":"uint256"},{"internalType":"uint8","name":"day","type":"uint8"},{"internalType":"uint8","name":"startHour","type":"uint8"},{"internalType":"uint8","name":"endHour","type":"uint8"},{"internalType":"string","name":"courseName","type":"string"},{"internalType":"bool","name":"isActive","type":"bool"},{"internalType":"uint256","name":"classroomId","type":"uint256"},{"internalType":"address","name":"professor","type":"address"}],"stateMutability":"view","type":"function"},{"inputs":[],"name":"totalClassrooms","outputs":[{"internalType":"uint256","name":"","type":"uint256"}],"stateMutability":"view","type":"function"},{"inputs":[],"name":"totalCourses","outputs":[{"internalType":"uint256","name":"","type":"uint256"}],"stateMutability":"view","type":"function"},{"inputs":[],"name":"totalSchedules","outputs":[{"internalType":"uint256","name":"","type":"uint256"}],"stateMutability":"view","type":"function"},{"inputs":[{"internalType":"uint256","name":"_id","type":"uint256"},{"internalType":"string","name":"_name","type":"string"},{"internalType":"string","name":"_building","type":"string"},{"internalType":"uint256","name":"_capacity","type":"uint256"}],"name":"updateClassroom","outputs":[],"stateMutability":"nonpayable","type":"function"},{"inputs":[{"internalType":"uint256","name":"_id","type":"uint256"},{"internalType":"string","name":"_name","type":"string"},{"internalType":"string","name":"_description","type":"string"},{"internalType":"uint256","name":"_credits","type":"uint256"}],"name":"updateCourse","outputs":[],"stateMutability":"nonpayable","type":"function"},{"inputs":[{"internalType":"uint256","name":"_courseId","type":"uint256"},{"internalType":"uint256","name":"_scheduleId","type":"uint256"},{"internalType":"uint8","name":"_day","type":"uint8"},{"internalType":"uint8","name":"_startHour","type":"uint8"},{"internalType":"uint8","name":"_endHour","type":"uint8"},{"internalType":"uint256","name":"_classroomId","type":"uint256"},{"internalType":"address","name":"_professor","type":"address"}],"name":"updateSchedule","outputs":[],"stateMutability":"nonpayable","type":"function"},{"inputs":[{"internalType":"address","name":"","type":"address"}],"name":"users","outputs":[{"internalType":"address","name":"addr","type":"address"},{"internalType":"enum CourseContract.Role","name":"role","type":"uint8"},{"internalType":"bool","name":"isActive","type":"bool"}],"stateMutability":"view","type":"function"}],"evm":{"bytecode":{"linkReferences":{},"object":"608060405234801561001057600080fd5b5033600760006101000a81548173ffffffffffffffffffffffffffffffffffffffff021916908373ffffffffffffffffffffffffffffffffffffffff16021790555060405180606001604052803373ffffffffffffffffffffffffffffffffffffffff16815260200160028081111561008c5761008b610176565b5b815260200160011515815250600160003373ffffffffffffffffffffffffffffffffffffffff1673ffffffffffffffffffffffffffffffffffffffff16815260200190815260200160002060008201518160000160006101000a81548173ffffffffffffffffffffffffffffffffffffffff021916908373ffffffffffffffffffffffffffffffffffffffff16021790555060208201518160000160146101000a81548160ff0219169083600281111561014957610148610176565b5b021790555060408201518160000160156101000a81548160ff0219169083151502179055509050506101a5565b7f4e487b7100000000000000000000000000000000000000000000000000000000600052602160045260246000fd5b61686c806101b46000396000f3fe608060405234801561001057600080fd5b50600436106101fb5760003560e01c806387ac18601161011a578063b270a168116100ad578063df57a55a1161007c578063df57a55a14610604578063eb7546c614610620578063ecf1938e14610654578063f43e5e4214610670578063f851a440146106a7576101fb565b8063b270a1681461057e578063b68b1aac1461059a578063c3c5a547146105b6578063c53069c7146105e6576101fb565b80639dad8d22116100e95780639dad8d22146104f85780639e9fa09714610514578063a4adb24b14610530578063a87430ba1461054c576101fb565b806387ac18601461046b57806391aac06514610489578063965720af146104a557806396f979d2146104c3576101fb565b8063494d69f0116101925780636f77926b116101615780636f77926b146103ca578063717c85be146103fa57806380b3ea881461041657806383517a4f1461044d576101fb565b8063494d69f0146103445780634d6dc664146103605780635802cc4e146103905780636a03292d146103ae576101fb565b806327fd9572116101ce57806327fd9572146102a3578063292a1b55146102da578063330818e6146102f857806335e91d6514610314576101fb565b8063086eafae146102005780630b91e28d14610234578063123268d1146102695780631358815f14610287575b600080fd5b61021a60048036038101906102159190614a4c565b6106c5565b60405161022b959493929190614b33565b60405180910390f35b61024e60048036038101906102499190614a4c565b610818565b60405161026096959493929190614b94565b60405180910390f35b6102716109d3565b60405161027e9190614cc1565b60405180910390f35b6102a1600480360381019061029c9190614ce3565b610b41565b005b6102bd60048036038101906102b89190614a4c565b610da9565b6040516102d1989796959493929190614d93565b60405180910390f35b6102e2610ecd565b6040516102ef9190615001565b60405180910390f35b610312600480360381019061030d919061504f565b61125c565b005b61032e600480360381019061032991906150a2565b6116e3565b60405161033b9190615001565b60405180910390f35b61035e600480360381019061035991906150fb565b611bba565b005b61037a600480360381019061037591906150a2565b6121c7565b6040516103879190614cc1565b60405180910390f35b610398612581565b6040516103a5919061519d565b60405180910390f35b6103c860048036038101906103c391906152ed565b612587565b005b6103e460048036038101906103df91906150a2565b612767565b6040516103f19190615445565b60405180910390f35b610414600480360381019061040f9190614a4c565b612901565b005b610430600480360381019061042b9190614a4c565b612ac6565b604051610444989796959493929190614d93565b60405180910390f35b610455612c51565b6040516104629190614cc1565b60405180910390f35b610473612f89565b604051610480919061519d565b60405180910390f35b6104a3600480360381019061049e91906152ed565b612f8f565b005b6104ad6130b8565b6040516104ba919061519d565b60405180910390f35b6104dd60048036038101906104d89190614a4c565b6130be565b6040516104ef96959493929190614b94565b60405180910390f35b610512600480360381019061050d9190614a4c565b613217565b005b61052e60048036038101906105299190615485565b613325565b005b61054a600480360381019061054591906154c5565b6134c2565b005b610566600480360381019061056191906150a2565b613590565b6040516105759392919061555f565b60405180910390f35b610598600480360381019061059391906154c5565b6135f4565b005b6105b460048036038101906105af9190615596565b61376e565b005b6105d060048036038101906105cb91906150a2565b613e1e565b6040516105dd9190615623565b60405180910390f35b6105ee613e77565b6040516105fb9190614cc1565b60405180910390f35b61061e60048036038101906106199190615706565b613fe4565b005b61063a60048036038101906106359190614a4c565b614311565b60405161064b959493929190614b33565b60405180910390f35b61066e6004803603810190610669919061574f565b6144c4565b005b61068a6004803603810190610685919061574f565b6146d1565b60405161069e989796959493929190614d93565b60405180910390f35b6106af61492b565b6040516106bc919061578f565b60405180910390f35b60036020528060005260406000206000915090508060000154908060010180546106ee906157d9565b80601f016020809104026020016040519081016040528092919081815260200182805461071a906157d9565b80156107675780601f1061073c57610100808354040283529160200191610767565b820191906000526020600020905b81548152906001019060200180831161074a57829003601f168201915b50505050509080600201805461077c906157d9565b80601f01602080910402602001604051908101604052809291908181526020018280546107a8906157d9565b80156107f55780601f106107ca576101008083540402835291602001916107f5565b820191906000526020600020905b8154815290600101906020018083116107d857829003601f168201915b5050505050908060030154908060040160009054906101000a900460ff16905085565b600060608060008060006004548710610866576040517f08c379a000000000000000000000000000000000000000000000000000000000815260040161085d90615856565b60405180910390fd5b600080600089815260200190815260200160002090508060000154816001018260020183600301548460040160009054906101000a900460ff1685600501548480546108b1906157d9565b80601f01602080910402602001604051908101604052809291908181526020018280546108dd906157d9565b801561092a5780601f106108ff5761010080835404028352916020019161092a565b820191906000526020600020905b81548152906001019060200180831161090d57829003601f168201915b5050505050945083805461093d906157d9565b80601f0160208091040260200160405190810160405280929190818152602001828054610969906157d9565b80156109b65780601f1061098b576101008083540402835291602001916109b6565b820191906000526020600020905b81548152906001019060200180831161099957829003601f168201915b505050505093509650965096509650965096505091939550919395565b6060600060065467ffffffffffffffff8111156109f3576109f26151c2565b5b604051908082528060200260200182016040528015610a215781602001602082028036833780820191505090505b5090506000805b600654811015610a97576003600082815260200190815260200160002060040160009054906101000a900460ff1615610a8a5780838381518110610a6f57610a6e615876565b5b6020026020010181815250508180610a86906158d4565b9250505b8080600101915050610a28565b5060008167ffffffffffffffff811115610ab457610ab36151c2565b5b604051908082528060200260200182016040528015610ae25781602001602082028036833780820191505090505b50905060005b82811015610b3757838181518110610b0357610b02615876565b5b6020026020010151828281518110610b1e57610b1d615876565b5b6020026020010181815250508080600101915050610ae8565b5080935050505090565b6004548310610b85576040517f08c379a0000000000000000000000000000000000000000000000000000000008152600401610b7c90615856565b60405180910390fd5b60008084815260200190815260200160002060040160009054906101000a900460ff16610be7576040517f08c379a0000000000000000000000000000000000000000000000000000000008152600401610bde9061598e565b60405180910390fd5b60008084815260200190815260200160002060050154821115610c3f576040517f08c379a0000000000000000000000000000000000000000000000000000000008152600401610c36906159fa565b60405180910390fd5b6006548110610c83576040517f08c379a0000000000000000000000000000000000000000000000000000000008152600401610c7a90615a66565b60405180910390fd5b6003600082815260200190815260200160002060040160009054906101000a900460ff16610ce6576040517f08c379a0000000000000000000000000000000000000000000000000000000008152600401610cdd90615af8565b60405180910390fd5b6000806000858152602001908152602001600020600701600084815260200190815260200160002090508060030160009054906101000a900460ff16610d61576040517f08c379a0000000000000000000000000000000000000000000000000000000008152600401610d5890615b8a565b60405180910390fd5b8181600401819055507fa6513a9bba35746dacd52ac5046464ecc24f542aa1b1a92ceff55438cdb0a76b8383604051610d9b929190615baa565b60405180910390a150505050565b60026020528060005260406000206000915090508060000154908060010160009054906101000a900460ff16908060010160019054906101000a900460ff16908060010160029054906101000a900460ff1690806002018054610e0b906157d9565b80601f0160208091040260200160405190810160405280929190818152602001828054610e37906157d9565b8015610e845780601f10610e5957610100808354040283529160200191610e84565b820191906000526020600020905b815481529060010190602001808311610e6757829003601f168201915b5050505050908060030160009054906101000a900460ff16908060040154908060050160009054906101000a900473ffffffffffffffffffffffffffffffffffffffff16905088565b60606000805b600454811015610f915760008082815260200190815260200160002060040160009054906101000a900460ff1615610f845760005b600080838152602001908152602001600020600501548111610f8257600080838152602001908152602001600020600701600082815260200190815260200160002060030160009054906101000a900460ff1615610f6f578280610f6b906158d4565b9350505b8080610f7a906158d4565b915050610f08565b505b8080600101915050610ed3565b5060008167ffffffffffffffff811115610fae57610fad6151c2565b5b604051908082528060200260200182016040528015610fe757816020015b610fd4614951565b815260200190600190039081610fcc5790505b5090506000805b6004548110156112525760008082815260200190815260200160002060040160009054906101000a900460ff161561124557600080600083815260200190815260200160002090506000600190505b816005015481116112425781600701600082815260200190815260200160002060030160009054906101000a900460ff161561122f5781600701600082815260200190815260200160002060405180610100016040529081600082015481526020016001820160009054906101000a900460ff1660ff1660ff1681526020016001820160019054906101000a900460ff1660ff1660ff1681526020016001820160029054906101000a900460ff1660ff1660ff168152602001600282018054611105906157d9565b80601f0160208091040260200160405190810160405280929190818152602001828054611131906157d9565b801561117e5780601f106111535761010080835404028352916020019161117e565b820191906000526020600020905b81548152906001019060200180831161116157829003601f168201915b505050505081526020016003820160009054906101000a900460ff16151515158152602001600482015481526020016005820160009054906101000a900473ffffffffffffffffffffffffffffffffffffffff1673ffffffffffffffffffffffffffffffffffffffff1673ffffffffffffffffffffffffffffffffffffffff168152505085858151811061121557611214615876565b5b6020026020010181905250838061122b906158d4565b9450505b808061123a906158d4565b91505061103d565b50505b8080600101915050610fee565b5081935050505090565b60028081111561126f5761126e61538c565b5b600160003373ffffffffffffffffffffffffffffffffffffffff1673ffffffffffffffffffffffffffffffffffffffff16815260200190815260200160002060000160149054906101000a900460ff1660028111156112d1576112d061538c565b5b14611311576040517f08c379a000000000000000000000000000000000000000000000000000000000815260040161130890615c45565b60405180910390fd5b6004548310611355576040517f08c379a000000000000000000000000000000000000000000000000000000000815260040161134c90615856565b60405180910390fd5b60008084815260200190815260200160002060040160009054906101000a900460ff166113b7576040517f08c379a00000000000000000000000000000000000000000000000000000000081526004016113ae9061598e565b60405180910390fd5b6000808481526020019081526020016000206005015482111561140f576040517f08c379a0000000000000000000000000000000000000000000000000000000008152600401611406906159fa565b60405180910390fd5b600160008273ffffffffffffffffffffffffffffffffffffffff1673ffffffffffffffffffffffffffffffffffffffff16815260200190815260200160002060000160159054906101000a900460ff1661149e576040517f08c379a000000000000000000000000000000000000000000000000000000000815260040161149590615cb1565b60405180910390fd5b600160028111156114b2576114b161538c565b5b600160008373ffffffffffffffffffffffffffffffffffffffff1673ffffffffffffffffffffffffffffffffffffffff16815260200190815260200160002060000160149054906101000a900460ff1660028111156115145761151361538c565b5b14611554576040517f08c379a000000000000000000000000000000000000000000000000000000000815260040161154b90615d43565b60405180910390fd5b6000806000858152602001908152602001600020600701600084815260200190815260200160002090508060030160009054906101000a900460ff166115cf576040517f08c379a00000000000000000000000000000000000000000000000000000000081526004016115c690615b8a565b60405180910390fd5b818160050160006101000a81548173ffffffffffffffffffffffffffffffffffffffff021916908373ffffffffffffffffffffffffffffffffffffffff16021790555060005b6005548110156116a3578360026000838152602001908152602001600020600001540361169657826002600083815260200190815260200160002060050160006101000a81548173ffffffffffffffffffffffffffffffffffffffff021916908373ffffffffffffffffffffffffffffffffffffffff1602179055506116a3565b8080600101915050611615565b507f6a9bdbe78c097d179e13e8451ac044b23e4a80386fde775d802424d5b0e1ffb983836040516116d5929190615d63565b60405180910390a150505050565b6060600160008373ffffffffffffffffffffffffffffffffffffffff1673ffffffffffffffffffffffffffffffffffffffff16815260200190815260200160002060000160159054906101000a900460ff16611774576040517f08c379a000000000000000000000000000000000000000000000000000000000815260040161176b90615dd8565b60405180910390fd5b600160028111156117885761178761538c565b5b600160008473ffffffffffffffffffffffffffffffffffffffff1673ffffffffffffffffffffffffffffffffffffffff16815260200190815260200160002060000160149054906101000a900460ff1660028111156117ea576117e961538c565b5b1461182a576040517f08c379a000000000000000000000000000000000000000000000000000000000815260040161182190615e44565b60405180910390fd5b6000805b6005548110156118ea576002600082815260200190815260200160002060030160009054906101000a900460ff1680156118c957508373ffffffffffffffffffffffffffffffffffffffff166002600083815260200190815260200160002060050160009054906101000a900473ffffffffffffffffffffffffffffffffffffffff1673ffffffffffffffffffffffffffffffffffffffff16145b156118dd5781806118d9906158d4565b9250505b808060010191505061182e565b5060008167ffffffffffffffff811115611907576119066151c2565b5b60405190808252806020026020018201604052801561194057816020015b61192d614951565b8152602001906001900390816119255790505b5090506000805b600554811015611bae576002600082815260200190815260200160002060030160009054906101000a900460ff1680156119e257508573ffffffffffffffffffffffffffffffffffffffff166002600083815260200190815260200160002060050160009054906101000a900473ffffffffffffffffffffffffffffffffffffffff1673ffffffffffffffffffffffffffffffffffffffff16145b15611ba1576002600082815260200190815260200160002060405180610100016040529081600082015481526020016001820160009054906101000a900460ff1660ff1660ff1681526020016001820160019054906101000a900460ff1660ff1660ff1681526020016001820160029054906101000a900460ff1660ff1660ff168152602001600282018054611a77906157d9565b80601f0160208091040260200160405190810160405280929190818152602001828054611aa3906157d9565b8015611af05780601f10611ac557610100808354040283529160200191611af0565b820191906000526020600020905b815481529060010190602001808311611ad357829003601f168201915b505050505081526020016003820160009054906101000a900460ff16151515158152602001600482015481526020016005820160009054906101000a900473ffffffffffffffffffffffffffffffffffffffff1673ffffffffffffffffffffffffffffffffffffffff1673ffffffffffffffffffffffffffffffffffffffff1681525050838381518110611b8757611b86615876565b5b60200260200101819052508180611b9d906158d4565b9250505b8080600101915050611947565b50819350505050919050565b6004548710611bfe576040517f08c379a0000000000000000000000000000000000000000000000000000000008152600401611bf590615856565b60405180910390fd5b60008088815260200190815260200160002060040160009054906101000a900460ff16611c60576040517f08c379a0000000000000000000000000000000000000000000000000000000008152600401611c579061598e565b60405180910390fd5b60008088815260200190815260200160002060050154861115611cb8576040517f08c379a0000000000000000000000000000000000000000000000000000000008152600401611caf906159fa565b60405180910390fd5b60018560ff1610158015611cd0575060078560ff1611155b611d0f576040517f08c379a0000000000000000000000000000000000000000000000000000000008152600401611d0690615eb0565b60405180910390fd5b60188460ff16108015611d25575060188360ff16105b8015611d3657508260ff168460ff16105b611d75576040517f08c379a0000000000000000000000000000000000000000000000000000000008152600401611d6c90615f1c565b60405180910390fd5b6006548210611db9576040517f08c379a0000000000000000000000000000000000000000000000000000000008152600401611db090615a66565b60405180910390fd5b6003600083815260200190815260200160002060040160009054906101000a900460ff16611e1c576040517f08c379a0000000000000000000000000000000000000000000000000000000008152600401611e1390615af8565b60405180910390fd5b600073ffffffffffffffffffffffffffffffffffffffff168173ffffffffffffffffffffffffffffffffffffffff1614611f9657600160008273ffffffffffffffffffffffffffffffffffffffff1673ffffffffffffffffffffffffffffffffffffffff16815260200190815260200160002060000160159054906101000a900460ff16611edf576040517f08c379a0000000000000000000000000000000000000000000000000000000008152600401611ed690615cb1565b60405180910390fd5b60016002811115611ef357611ef261538c565b5b600160008373ffffffffffffffffffffffffffffffffffffffff1673ffffffffffffffffffffffffffffffffffffffff16815260200190815260200160002060000160149054906101000a900460ff166002811115611f5557611f5461538c565b5b14611f95576040517f08c379a0000000000000000000000000000000000000000000000000000000008152600401611f8c90615d43565b60405180910390fd5b5b6000806000898152602001908152602001600020600701600088815260200190815260200160002090508060030160009054906101000a900460ff16612011576040517f08c379a000000000000000000000000000000000000000000000000000000000815260040161200890615b8a565b60405180910390fd5b858160010160006101000a81548160ff021916908360ff160217905550848160010160016101000a81548160ff021916908360ff160217905550838160010160026101000a81548160ff021916908360ff1602179055508281600401819055508060050160009054906101000a900473ffffffffffffffffffffffffffffffffffffffff1673ffffffffffffffffffffffffffffffffffffffff168273ffffffffffffffffffffffffffffffffffffffff161461214557818160050160006101000a81548173ffffffffffffffffffffffffffffffffffffffff021916908373ffffffffffffffffffffffffffffffffffffffff1602179055507f6a9bdbe78c097d179e13e8451ac044b23e4a80386fde775d802424d5b0e1ffb9878360405161213c929190615d63565b60405180910390a15b7f29558593f0b584fa97b5489122cab9fc63aa0424b99f2b9ce433cfb20a73cd70888888888860405161217c959493929190615f3c565b60405180910390a17fa6513a9bba35746dacd52ac5046464ecc24f542aa1b1a92ceff55438cdb0a76b87846040516121b5929190615baa565b60405180910390a15050505050505050565b6060600160008373ffffffffffffffffffffffffffffffffffffffff1673ffffffffffffffffffffffffffffffffffffffff16815260200190815260200160002060000160159054906101000a900460ff16612258576040517f08c379a000000000000000000000000000000000000000000000000000000000815260040161224f90615dd8565b60405180910390fd5b6001600281111561226c5761226b61538c565b5b600160008473ffffffffffffffffffffffffffffffffffffffff1673ffffffffffffffffffffffffffffffffffffffff16815260200190815260200160002060000160149054906101000a900460ff1660028111156122ce576122cd61538c565b5b1461230e576040517f08c379a000000000000000000000000000000000000000000000000000000000815260040161230590615e44565b60405180910390fd5b600060045467ffffffffffffffff81111561232c5761232b6151c2565b5b60405190808252806020026020018201604052801561235a5781602001602082028036833780820191505090505b5090506000805b6004548110156124d55760008082815260200190815260200160002060040160009054906101000a900460ff16156124c857600080600190505b6000808481526020019081526020016000206005015481111580156123be575081155b156124c557600080848152602001908152602001600020600701600082815260200190815260200160002060030160009054906101000a900460ff16801561247a57508673ffffffffffffffffffffffffffffffffffffffff16600080858152602001908152602001600020600701600083815260200190815260200160002060050160009054906101000a900473ffffffffffffffffffffffffffffffffffffffff1673ffffffffffffffffffffffffffffffffffffffff16145b156124b2578285858151811061249357612492615876565b5b60200260200101818152505083806124aa906158d4565b945050600191505b80806124bd906158d4565b91505061239b565b50505b8080600101915050612361565b5060008167ffffffffffffffff8111156124f2576124f16151c2565b5b6040519080825280602002602001820160405280156125205781602001602082028036833780820191505090505b50905060005b828110156125755783818151811061254157612540615876565b5b602002602001015182828151811061255c5761255b615876565b5b6020026020010181815250508080600101915050612526565b50809350505050919050565b60065481565b60028081111561259a5761259961538c565b5b600160003373ffffffffffffffffffffffffffffffffffffffff1673ffffffffffffffffffffffffffffffffffffffff16815260200190815260200160002060000160149054906101000a900460ff1660028111156125fc576125fb61538c565b5b1461263c576040517f08c379a000000000000000000000000000000000000000000000000000000000815260040161263390616001565b60405180910390fd5b6006548410612680576040517f08c379a000000000000000000000000000000000000000000000000000000000815260040161267790615a66565b60405180910390fd5b6003600085815260200190815260200160002060040160009054906101000a900460ff166126e3576040517f08c379a00000000000000000000000000000000000000000000000000000000081526004016126da90615af8565b60405180910390fd5b60006003600086815260200190815260200160002090508381600101908161270b91906161cd565b508281600201908161271d91906161cd565b508181600301819055507fe8d83b4d126e406c5f52ec2794aed6541667952ff7c14c1fad713823a5cd9bc7858560405161275892919061629f565b60405180910390a15050505050565b61276f6149b7565b600160008373ffffffffffffffffffffffffffffffffffffffff1673ffffffffffffffffffffffffffffffffffffffff16815260200190815260200160002060000160159054906101000a900460ff166127fe576040517f08c379a00000000000000000000000000000000000000000000000000000000081526004016127f59061631b565b60405180910390fd5b6000600160008473ffffffffffffffffffffffffffffffffffffffff1673ffffffffffffffffffffffffffffffffffffffff1681526020019081526020016000206040518060600160405290816000820160009054906101000a900473ffffffffffffffffffffffffffffffffffffffff1673ffffffffffffffffffffffffffffffffffffffff1673ffffffffffffffffffffffffffffffffffffffff1681526020016000820160149054906101000a900460ff1660028111156128c5576128c461538c565b5b60028111156128d7576128d661538c565b5b81526020016000820160159054906101000a900460ff161515151581525050905080915050919050565b6002808111156129145761291361538c565b5b600160003373ffffffffffffffffffffffffffffffffffffffff1673ffffffffffffffffffffffffffffffffffffffff16815260200190815260200160002060000160149054906101000a900460ff1660028111156129765761297561538c565b5b146129b6576040517f08c379a00000000000000000000000000000000000000000000000000000000081526004016129ad906163ad565b60405180910390fd5b60065481106129fa576040517f08c379a00000000000000000000000000000000000000000000000000000000081526004016129f190615a66565b60405180910390fd5b6003600082815260200190815260200160002060040160009054906101000a900460ff16612a5d576040517f08c379a0000000000000000000000000000000000000000000000000000000008152600401612a5490615af8565b60405180910390fd5b60006003600083815260200190815260200160002060040160006101000a81548160ff0219169083151502179055507fb36c3b7df89f39c0af42cd89a8107da757d131f043249ac34ada80f2de24c74e81604051612abb919061519d565b60405180910390a150565b600080600080606060008060006005548910612b17576040517f08c379a0000000000000000000000000000000000000000000000000000000008152600401612b0e906159fa565b60405180910390fd5b6000600260008b8152602001908152602001600020905080600001548160010160009054906101000a900460ff168260010160019054906101000a900460ff168360010160029054906101000a900460ff16846002018560030160009054906101000a900460ff1686600401548760050160009054906101000a900473ffffffffffffffffffffffffffffffffffffffff16838054612bb5906157d9565b80601f0160208091040260200160405190810160405280929190818152602001828054612be1906157d9565b8015612c2e5780601f10612c0357610100808354040283529160200191612c2e565b820191906000526020600020905b815481529060010190602001808311612c1157829003601f168201915b505050505093509850985098509850985098509850985050919395975091939597565b6060600160003373ffffffffffffffffffffffffffffffffffffffff1673ffffffffffffffffffffffffffffffffffffffff16815260200190815260200160002060000160159054906101000a900460ff16612ce2576040517f08c379a0000000000000000000000000000000000000000000000000000000008152600401612cd99061631b565b60405180910390fd5b60006002811115612cf657612cf561538c565b5b600160003373ffffffffffffffffffffffffffffffffffffffff1673ffffffffffffffffffffffffffffffffffffffff16815260200190815260200160002060000160149054906101000a900460ff166002811115612d5857612d5761538c565b5b14612d98576040517f08c379a0000000000000000000000000000000000000000000000000000000008152600401612d8f9061643f565b60405180910390fd5b600060045467ffffffffffffffff811115612db657612db56151c2565b5b604051908082528060200260200182016040528015612de45781602001602082028036833780820191505090505b5090506000805b600454811015612edf576000806000838152602001908152602001600020905060005b8160060180549050811015612ed0573373ffffffffffffffffffffffffffffffffffffffff16826006018281548110612e4a57612e49615876565b5b9060005260206000200160009054906101000a900473ffffffffffffffffffffffffffffffffffffffff1673ffffffffffffffffffffffffffffffffffffffff1603612ec35782858581518110612ea457612ea3615876565b5b6020026020010181815250508380612ebb906158d4565b945050612ed0565b8080600101915050612e0e565b50508080600101915050612deb565b5060008167ffffffffffffffff811115612efc57612efb6151c2565b5b604051908082528060200260200182016040528015612f2a5781602001602082028036833780820191505090505b50905060005b82811015612f7f57838181518110612f4b57612f4a615876565b5b6020026020010151828281518110612f6657612f65615876565b5b6020026020010181815250508080600101915050612f30565b5080935050505090565b60045481565b6004548410612fd3576040517f08c379a0000000000000000000000000000000000000000000000000000000008152600401612fca90615856565b60405180910390fd5b60008085815260200190815260200160002060040160009054906101000a900460ff16613035576040517f08c379a000000000000000000000000000000000000000000000000000000000815260040161302c9061598e565b60405180910390fd5b600080600086815260200190815260200160002090508381600101908161305c91906161cd565b508281600201908161306e91906161cd565b508181600301819055507f61f1b503285f2baf5ae0ec7be5c9605a293c9d47bdaf9bdb36fc15c570615fe685856040516130a992919061629f565b60405180910390a15050505050565b60055481565b60006020528060005260406000206000915090508060000154908060010180546130e7906157d9565b80601f0160208091040260200160405190810160405280929190818152602001828054613113906157d9565b80156131605780601f1061313557610100808354040283529160200191613160565b820191906000526020600020905b81548152906001019060200180831161314357829003601f168201915b505050505090806002018054613175906157d9565b80601f01602080910402602001604051908101604052809291908181526020018280546131a1906157d9565b80156131ee5780601f106131c3576101008083540402835291602001916131ee565b820191906000526020600020905b8154815290600101906020018083116131d157829003601f168201915b5050505050908060030154908060040160009054906101000a900460ff16908060050154905086565b600454811061325b576040517f08c379a000000000000000000000000000000000000000000000000000000000815260040161325290615856565b60405180910390fd5b60008082815260200190815260200160002060040160009054906101000a900460ff166132bd576040517f08c379a00000000000000000000000000000000000000000000000000000000081526004016132b49061598e565b60405180910390fd5b600080600083815260200190815260200160002060040160006101000a81548160ff0219169083151502179055507f39eeda956a5b638cce21d44feb4e3279509fbaf8fb7776431f55f57a0cd215378160405161331a919061519d565b60405180910390a150565b600160008373ffffffffffffffffffffffffffffffffffffffff1673ffffffffffffffffffffffffffffffffffffffff16815260200190815260200160002060000160159054906101000a900460ff16156133b5576040517f08c379a00000000000000000000000000000000000000000000000000000000081526004016133ac906164ab565b60405180910390fd5b6000600160008473ffffffffffffffffffffffffffffffffffffffff1673ffffffffffffffffffffffffffffffffffffffff1681526020019081526020016000209050828160000160006101000a81548173ffffffffffffffffffffffffffffffffffffffff021916908373ffffffffffffffffffffffffffffffffffffffff160217905550818160000160146101000a81548160ff021916908360028111156134625761346161538c565b5b021790555060018160000160156101000a81548160ff0219169083151502179055507f8e18574f8a7333e6a87112742a55853a643e2f0550f4e1a3a2c3f1bb2994441d83836040516134b59291906164cb565b60405180910390a1505050565b6000600460008154809291906134d7906158d4565b919050559050600080600083815260200190815260200160002090508181600001819055508481600101908161350d91906161cd565b508381600201908161351f91906161cd565b5082816003018190555060018160040160006101000a81548160ff021916908315150217905550600081600501819055507fc2c844c5f6c72fe99b99de0942ba619e99957d3e8f7e614263ecfe40de952e58828660405161358192919061629f565b60405180910390a15050505050565b60016020528060005260406000206000915090508060000160009054906101000a900473ffffffffffffffffffffffffffffffffffffffff16908060000160149054906101000a900460ff16908060000160159054906101000a900460ff16905083565b6002808111156136075761360661538c565b5b600160003373ffffffffffffffffffffffffffffffffffffffff1673ffffffffffffffffffffffffffffffffffffffff16815260200190815260200160002060000160149054906101000a900460ff1660028111156136695761366861538c565b5b146136a9576040517f08c379a00000000000000000000000000000000000000000000000000000000081526004016136a090616566565b60405180910390fd5b6000600660008154809291906136be906158d4565b9190505590506000600360008381526020019081526020016000209050818160000181905550848160010190816136f591906161cd565b508381600201908161370791906161cd565b5082816003018190555060018160040160006101000a81548160ff0219169083151502179055507f9a1c9f10d6ee756c0a71f88b8991db99f6866f27ae438706a3ea95076df295db828660405161375f92919061629f565b60405180910390a15050505050565b60045486106137b2576040517f08c379a00000000000000000000000000000000000000000000000000000000081526004016137a990615856565b60405180910390fd5b60008087815260200190815260200160002060040160009054906101000a900460ff16613814576040517f08c379a000000000000000000000000000000000000000000000000000000000815260040161380b9061598e565b60405180910390fd5b60018560ff161015801561382c575060078560ff1611155b61386b576040517f08c379a000000000000000000000000000000000000000000000000000000000815260040161386290615eb0565b60405180910390fd5b60188460ff16108015613881575060188360ff16105b801561389257508260ff168460ff16105b6138d1576040517f08c379a00000000000000000000000000000000000000000000000000000000081526004016138c890615f1c565b60405180910390fd5b6006548210613915576040517f08c379a000000000000000000000000000000000000000000000000000000000815260040161390c90615a66565b60405180910390fd5b6003600083815260200190815260200160002060040160009054906101000a900460ff16613978576040517f08c379a000000000000000000000000000000000000000000000000000000000815260040161396f90615af8565b60405180910390fd5b600073ffffffffffffffffffffffffffffffffffffffff168173ffffffffffffffffffffffffffffffffffffffff1614613af257600160008273ffffffffffffffffffffffffffffffffffffffff1673ffffffffffffffffffffffffffffffffffffffff16815260200190815260200160002060000160159054906101000a900460ff16613a3b576040517f08c379a0000000000000000000000000000000000000000000000000000000008152600401613a3290615cb1565b60405180910390fd5b60016002811115613a4f57613a4e61538c565b5b600160008373ffffffffffffffffffffffffffffffffffffffff1673ffffffffffffffffffffffffffffffffffffffff16815260200190815260200160002060000160149054906101000a900460ff166002811115613ab157613ab061538c565b5b14613af1576040517f08c379a0000000000000000000000000000000000000000000000000000000008152600401613ae890615d43565b60405180910390fd5b5b60008060008881526020019081526020016000209050600060018260050154613b1b9190616586565b905060008260070160008381526020019081526020016000209050818160000181905550878160010160006101000a81548160ff021916908360ff160217905550868160010160016101000a81548160ff021916908360ff160217905550858160010160026101000a81548160ff021916908360ff16021790555082600101816002019081613baa91906165e5565b5060018160030160006101000a81548160ff021916908315150217905550848160040181905550838160050160006101000a81548173ffffffffffffffffffffffffffffffffffffffff021916908373ffffffffffffffffffffffffffffffffffffffff160217905550818360050181905550600060026000600554815260200190815260200160002090506005548160000181905550888160010160006101000a81548160ff021916908360ff160217905550878160010160016101000a81548160ff021916908360ff160217905550868160010160026101000a81548160ff021916908360ff16021790555083600101816002019081613cac91906165e5565b5060018160030160006101000a81548160ff021916908315150217905550858160040181905550848160050160006101000a81548173ffffffffffffffffffffffffffffffffffffffff021916908373ffffffffffffffffffffffffffffffffffffffff16021790555060056000815480929190613d29906158d4565b91905055507f3ff69354bb51befb41cb392610be115187b4afcfed73d238a16f370c7f20491c8a8a8a8a604051613d6394939291906166cd565b60405180910390a17fa6513a9bba35746dacd52ac5046464ecc24f542aa1b1a92ceff55438cdb0a76b8387604051613d9c929190615baa565b60405180910390a1600073ffffffffffffffffffffffffffffffffffffffff168573ffffffffffffffffffffffffffffffffffffffff1614613e12577f6a9bdbe78c097d179e13e8451ac044b23e4a80386fde775d802424d5b0e1ffb98386604051613e09929190615d63565b60405180910390a15b50505050505050505050565b6000600160008373ffffffffffffffffffffffffffffffffffffffff1673ffffffffffffffffffffffffffffffffffffffff16815260200190815260200160002060000160159054906101000a900460ff169050919050565b6060600060045467ffffffffffffffff811115613e9757613e966151c2565b5b604051908082528060200260200182016040528015613ec55781602001602082028036833780820191505090505b5090506000805b600454811015613f3a5760008082815260200190815260200160002060040160009054906101000a900460ff1615613f2d5780838381518110613f1257613f11615876565b5b6020026020010181815250508180613f29906158d4565b9250505b8080600101915050613ecc565b5060008167ffffffffffffffff811115613f5757613f566151c2565b5b604051908082528060200260200182016040528015613f855781602001602082028036833780820191505090505b50905060005b82811015613fda57838181518110613fa657613fa5615876565b5b6020026020010151828281518110613fc157613fc0615876565b5b6020026020010181815250508080600101915050613f8b565b5080935050505090565b60006002811115613ff857613ff761538c565b5b600160003373ffffffffffffffffffffffffffffffffffffffff1673ffffffffffffffffffffffffffffffffffffffff16815260200190815260200160002060000160149054906101000a900460ff16600281111561405a5761405961538c565b5b1461409a576040517f08c379a000000000000000000000000000000000000000000000000000000000815260040161409190616784565b60405180910390fd5b60005b815181101561430d5760008282815181106140bb576140ba615876565b5b602002602001015190506004548110614109576040517f08c379a000000000000000000000000000000000000000000000000000000000815260040161410090615856565b60405180910390fd5b60008082815260200190815260200160002060040160009054906101000a900460ff1661416b576040517f08c379a00000000000000000000000000000000000000000000000000000000081526004016141629061598e565b60405180910390fd5b600080600083815260200190815260200160002090506000805b826006018054905081101561421d573373ffffffffffffffffffffffffffffffffffffffff168360060182815481106141c1576141c0615876565b5b9060005260206000200160009054906101000a900473ffffffffffffffffffffffffffffffffffffffff1673ffffffffffffffffffffffffffffffffffffffff1603614210576001915061421d565b8080600101915050614185565b50801561425f576040517f08c379a000000000000000000000000000000000000000000000000000000000815260040161425690616816565b60405180910390fd5b81600601339080600181540180825580915050600190039060005260206000200160009091909190916101000a81548173ffffffffffffffffffffffffffffffffffffffff021916908373ffffffffffffffffffffffffffffffffffffffff1602179055507f5978a47ce47cdeb8a43a1794142dd16f2f94e95103bd104783a42725c7fe8cff83336040516142f5929190615d63565b60405180910390a1505050808060010191505061409d565b5050565b6000606080600080600654861061435d576040517f08c379a000000000000000000000000000000000000000000000000000000000815260040161435490615a66565b60405180910390fd5b60006003600088815260200190815260200160002090508060000154816001018260020183600301548460040160009054906101000a900460ff168380546143a4906157d9565b80601f01602080910402602001604051908101604052809291908181526020018280546143d0906157d9565b801561441d5780601f106143f25761010080835404028352916020019161441d565b820191906000526020600020905b81548152906001019060200180831161440057829003601f168201915b50505050509350828054614430906157d9565b80601f016020809104026020016040519081016040528092919081815260200182805461445c906157d9565b80156144a95780601f1061447e576101008083540402835291602001916144a9565b820191906000526020600020905b81548152906001019060200180831161448c57829003601f168201915b50505050509250955095509550955095505091939590929450565b6004548210614508576040517f08c379a00000000000000000000000000000000000000000000000000000000081526004016144ff90615856565b60405180910390fd5b60008083815260200190815260200160002060040160009054906101000a900460ff1661456a576040517f08c379a00000000000000000000000000000000000000000000000000000000081526004016145619061598e565b60405180910390fd5b600080838152602001908152602001600020600501548111156145c2576040517f08c379a00000000000000000000000000000000000000000000000000000000081526004016145b9906159fa565b60405180910390fd5b6000806000848152602001908152602001600020600701600083815260200190815260200160002090508060030160009054906101000a900460ff1661463d576040517f08c379a000000000000000000000000000000000000000000000000000000000815260040161463490615b8a565b60405180910390fd5b60008160030160006101000a81548160ff0219169083151502179055507f29558593f0b584fa97b5489122cab9fc63aa0424b99f2b9ce433cfb20a73cd7083838360010160009054906101000a900460ff168460010160019054906101000a900460ff168560010160029054906101000a900460ff166040516146c4959493929190615f3c565b60405180910390a1505050565b600080600080606060008060006004548a10614722576040517f08c379a000000000000000000000000000000000000000000000000000000000815260040161471990615856565b60405180910390fd5b6000808b815260200190815260200160002060040160009054906101000a900460ff16614784576040517f08c379a000000000000000000000000000000000000000000000000000000000815260040161477b9061598e565b60405180910390fd5b6000808b8152602001908152602001600020600501548911156147dc576040517f08c379a00000000000000000000000000000000000000000000000000000000081526004016147d3906159fa565b60405180910390fd5b60008060008c815260200190815260200160002060070160008b8152602001908152602001600020905080600001548160010160009054906101000a900460ff168260010160019054906101000a900460ff168360010160029054906101000a900460ff16846002018560030160009054906101000a900460ff1686600401548760050160009054906101000a900473ffffffffffffffffffffffffffffffffffffffff1683805461488d906157d9565b80601f01602080910402602001604051908101604052809291908181526020018280546148b9906157d9565b80156149065780601f106148db57610100808354040283529160200191614906565b820191906000526020600020905b8154815290600101906020018083116148e957829003601f168201915b5050505050935098509850985098509850985098509850509295985092959890939650565b600760009054906101000a900473ffffffffffffffffffffffffffffffffffffffff1681565b60405180610100016040528060008152602001600060ff168152602001600060ff168152602001600060ff1681526020016060815260200160001515815260200160008152602001600073ffffffffffffffffffffffffffffffffffffffff1681525090565b6040518060600160405280600073ffffffffffffffffffffffffffffffffffffffff168152602001600060028111156149f3576149f261538c565b5b81526020016000151581525090565b6000604051905090565b600080fd5b600080fd5b6000819050919050565b614a2981614a16565b8114614a3457600080fd5b50565b600081359050614a4681614a20565b92915050565b600060208284031215614a6257614a61614a0c565b5b6000614a7084828501614a37565b91505092915050565b614a8281614a16565b82525050565b600081519050919050565b600082825260208201905092915050565b60005b83811015614ac2578082015181840152602081019050614aa7565b60008484015250505050565b6000601f19601f8301169050919050565b6000614aea82614a88565b614af48185614a93565b9350614b04818560208601614aa4565b614b0d81614ace565b840191505092915050565b60008115159050919050565b614b2d81614b18565b82525050565b600060a082019050614b486000830188614a79565b8181036020830152614b5a8187614adf565b90508181036040830152614b6e8186614adf565b9050614b7d6060830185614a79565b614b8a6080830184614b24565b9695505050505050565b600060c082019050614ba96000830189614a79565b8181036020830152614bbb8188614adf565b90508181036040830152614bcf8187614adf565b9050614bde6060830186614a79565b614beb6080830185614b24565b614bf860a0830184614a79565b979650505050505050565b600081519050919050565b600082825260208201905092915050565b6000819050602082019050919050565b614c3881614a16565b82525050565b6000614c4a8383614c2f565b60208301905092915050565b6000602082019050919050565b6000614c6e82614c03565b614c788185614c0e565b9350614c8383614c1f565b8060005b83811015614cb4578151614c9b8882614c3e565b9750614ca683614c56565b925050600181019050614c87565b5085935050505092915050565b60006020820190508181036000830152614cdb8184614c63565b905092915050565b600080600060608486031215614cfc57614cfb614a0c565b5b6000614d0a86828701614a37565b9350506020614d1b86828701614a37565b9250506040614d2c86828701614a37565b9150509250925092565b600060ff82169050919050565b614d4c81614d36565b82525050565b600073ffffffffffffffffffffffffffffffffffffffff82169050919050565b6000614d7d82614d52565b9050919050565b614d8d81614d72565b82525050565b600061010082019050614da9600083018b614a79565b614db6602083018a614d43565b614dc36040830189614d43565b614dd06060830188614d43565b8181036080830152614de28187614adf565b9050614df160a0830186614b24565b614dfe60c0830185614a79565b614e0b60e0830184614d84565b9998505050505050505050565b600081519050919050565b600082825260208201905092915050565b6000819050602082019050919050565b614e4d81614d36565b82525050565b600082825260208201905092915050565b6000614e6f82614a88565b614e798185614e53565b9350614e89818560208601614aa4565b614e9281614ace565b840191505092915050565b614ea681614b18565b82525050565b614eb581614d72565b82525050565b600061010083016000830151614ed46000860182614c2f565b506020830151614ee76020860182614e44565b506040830151614efa6040860182614e44565b506060830151614f0d6060860182614e44565b5060808301518482036080860152614f258282614e64565b91505060a0830151614f3a60a0860182614e9d565b5060c0830151614f4d60c0860182614c2f565b5060e0830151614f6060e0860182614eac565b508091505092915050565b6000614f778383614ebb565b905092915050565b6000602082019050919050565b6000614f9782614e18565b614fa18185614e23565b935083602082028501614fb385614e34565b8060005b85811015614fef5784840389528151614fd08582614f6b565b9450614fdb83614f7f565b925060208a01995050600181019050614fb7565b50829750879550505050505092915050565b6000602082019050818103600083015261501b8184614f8c565b905092915050565b61502c81614d72565b811461503757600080fd5b50565b60008135905061504981615023565b92915050565b60008060006060848603121561506857615067614a0c565b5b600061507686828701614a37565b935050602061508786828701614a37565b92505060406150988682870161503a565b9150509250925092565b6000602082840312156150b8576150b7614a0c565b5b60006150c68482850161503a565b91505092915050565b6150d881614d36565b81146150e357600080fd5b50565b6000813590506150f5816150cf565b92915050565b600080600080600080600060e0888a03121561511a57615119614a0c565b5b60006151288a828b01614a37565b97505060206151398a828b01614a37565b965050604061514a8a828b016150e6565b955050606061515b8a828b016150e6565b945050608061516c8a828b016150e6565b93505060a061517d8a828b01614a37565b92505060c061518e8a828b0161503a565b91505092959891949750929550565b60006020820190506151b26000830184614a79565b92915050565b600080fd5b600080fd5b7f4e487b7100000000000000000000000000000000000000000000000000000000600052604160045260246000fd5b6151fa82614ace565b810181811067ffffffffffffffff82111715615219576152186151c2565b5b80604052505050565b600061522c614a02565b905061523882826151f1565b919050565b600067ffffffffffffffff821115615258576152576151c2565b5b61526182614ace565b9050602081019050919050565b82818337600083830152505050565b600061529061528b8461523d565b615222565b9050828152602081018484840111156152ac576152ab6151bd565b5b6152b784828561526e565b509392505050565b600082601f8301126152d4576152d36151b8565b5b81356152e484826020860161527d565b91505092915050565b6000806000806080858703121561530757615306614a0c565b5b600061531587828801614a37565b945050602085013567ffffffffffffffff81111561533657615335614a11565b5b615342878288016152bf565b935050604085013567ffffffffffffffff81111561536357615362614a11565b5b61536f878288016152bf565b925050606061538087828801614a37565b91505092959194509250565b7f4e487b7100000000000000000000000000000000000000000000000000000000600052602160045260246000fd5b600381106153cc576153cb61538c565b5b50565b60008190506153dd826153bb565b919050565b60006153ed826153cf565b9050919050565b6153fd816153e2565b82525050565b6060820160008201516154196000850182614eac565b50602082015161542c60208501826153f4565b50604082015161543f6040850182614e9d565b50505050565b600060608201905061545a6000830184615403565b92915050565b6003811061546d57600080fd5b50565b60008135905061547f81615460565b92915050565b6000806040838503121561549c5761549b614a0c565b5b60006154aa8582860161503a565b92505060206154bb85828601615470565b9150509250929050565b6000806000606084860312156154de576154dd614a0c565b5b600084013567ffffffffffffffff8111156154fc576154fb614a11565b5b615508868287016152bf565b935050602084013567ffffffffffffffff81111561552957615528614a11565b5b615535868287016152bf565b925050604061554686828701614a37565b9150509250925092565b615559816153e2565b82525050565b60006060820190506155746000830186614d84565b6155816020830185615550565b61558e6040830184614b24565b949350505050565b60008060008060008060c087890312156155b3576155b2614a0c565b5b60006155c189828a01614a37565b96505060206155d289828a016150e6565b95505060406155e389828a016150e6565b94505060606155f489828a016150e6565b935050608061560589828a01614a37565b92505060a061561689828a0161503a565b9150509295509295509295565b60006020820190506156386000830184614b24565b92915050565b600067ffffffffffffffff821115615659576156586151c2565b5b602082029050602081019050919050565b600080fd5b600061568261567d8461563e565b615222565b905080838252602082019050602084028301858111156156a5576156a461566a565b5b835b818110156156ce57806156ba8882614a37565b8452602084019350506020810190506156a7565b5050509392505050565b600082601f8301126156ed576156ec6151b8565b5b81356156fd84826020860161566f565b91505092915050565b60006020828403121561571c5761571b614a0c565b5b600082013567ffffffffffffffff81111561573a57615739614a11565b5b615746848285016156d8565b91505092915050565b6000806040838503121561576657615765614a0c565b5b600061577485828601614a37565b925050602061578585828601614a37565b9150509250929050565b60006020820190506157a46000830184614d84565b92915050565b7f4e487b7100000000000000000000000000000000000000000000000000000000600052602260045260246000fd5b600060028204905060018216806157f157607f821691505b602082108103615804576158036157aa565b5b50919050565b7f496e76616c696420636f75727365204944000000000000000000000000000000600082015250565b6000615840601183614a93565b915061584b8261580a565b602082019050919050565b6000602082019050818103600083015261586f81615833565b9050919050565b7f4e487b7100000000000000000000000000000000000000000000000000000000600052603260045260246000fd5b7f4e487b7100000000000000000000000000000000000000000000000000000000600052601160045260246000fd5b60006158df82614a16565b91507fffffffffffffffffffffffffffffffffffffffffffffffffffffffffffffffff8203615911576159106158a5565b5b600182019050919050565b7f436f7572736520646f6573206e6f74206578697374206f72206861732062656560008201527f6e2064656c657465640000000000000000000000000000000000000000000000602082015250565b6000615978602983614a93565b91506159838261591c565b604082019050919050565b600060208201905081810360008301526159a78161596b565b9050919050565b7f496e76616c6964207363686564756c6520494400000000000000000000000000600082015250565b60006159e4601383614a93565b91506159ef826159ae565b602082019050919050565b60006020820190508181036000830152615a13816159d7565b9050919050565b7f496e76616c696420636c617373726f6f6d204944000000000000000000000000600082015250565b6000615a50601483614a93565b9150615a5b82615a1a565b602082019050919050565b60006020820190508181036000830152615a7f81615a43565b9050919050565b7f436c617373726f6f6d20646f6573206e6f74206578697374206f72206861732060008201527f6265656e2064656c657465640000000000000000000000000000000000000000602082015250565b6000615ae2602c83614a93565b9150615aed82615a86565b604082019050919050565b60006020820190508181036000830152615b1181615ad5565b9050919050565b7f5363686564756c6520646f6573206e6f74206578697374206f7220686173206260008201527f65656e2064656c65746564000000000000000000000000000000000000000000602082015250565b6000615b74602b83614a93565b9150615b7f82615b18565b604082019050919050565b60006020820190508181036000830152615ba381615b67565b9050919050565b6000604082019050615bbf6000830185614a79565b615bcc6020830184614a79565b9392505050565b7f4f6e6c792061646d696e6973747261746f72732063616e2061737369676e207060008201527f726f666573736f72730000000000000000000000000000000000000000000000602082015250565b6000615c2f602983614a93565b9150615c3a82615bd3565b604082019050919050565b60006020820190508181036000830152615c5e81615c22565b9050919050565b7f50726f666573736f72206d757374206265207265676973746572656400000000600082015250565b6000615c9b601c83614a93565b9150615ca682615c65565b602082019050919050565b60006020820190508181036000830152615cca81615c8e565b9050919050565b7f41737369676e65642075736572206d75737420626520612070726f666573736f60008201527f7200000000000000000000000000000000000000000000000000000000000000602082015250565b6000615d2d602183614a93565b9150615d3882615cd1565b604082019050919050565b60006020820190508181036000830152615d5c81615d20565b9050919050565b6000604082019050615d786000830185614a79565b615d856020830184614d84565b9392505050565b7f50726f666573736f72206e6f7420726567697374657265640000000000000000600082015250565b6000615dc2601883614a93565b9150615dcd82615d8c565b602082019050919050565b60006020820190508181036000830152615df181615db5565b9050919050565b7f55736572206d75737420626520612070726f666573736f720000000000000000600082015250565b6000615e2e601883614a93565b9150615e3982615df8565b602082019050919050565b60006020820190508181036000830152615e5d81615e21565b9050919050565b7f496e76616c696420646179000000000000000000000000000000000000000000600082015250565b6000615e9a600b83614a93565b9150615ea582615e64565b602082019050919050565b60006020820190508181036000830152615ec981615e8d565b9050919050565b7f496e76616c6964207363686564756c6500000000000000000000000000000000600082015250565b6000615f06601083614a93565b9150615f1182615ed0565b602082019050919050565b60006020820190508181036000830152615f3581615ef9565b9050919050565b600060a082019050615f516000830188614a79565b615f5e6020830187614a79565b615f6b6040830186614d43565b615f786060830185614d43565b615f856080830184614d43565b9695505050505050565b7f4f6e6c792061646d696e6973747261746f72732063616e20757064617465206360008201527f6c617373726f6f6d730000000000000000000000000000000000000000000000602082015250565b6000615feb602983614a93565b9150615ff682615f8f565b604082019050919050565b6000602082019050818103600083015261601a81615fde565b9050919050565b60008190508160005260206000209050919050565b60006020601f8301049050919050565b600082821b905092915050565b6000600883026160837fffffffffffffffffffffffffffffffffffffffffffffffffffffffffffffffff82616046565b61608d8683616046565b95508019841693508086168417925050509392505050565b6000819050919050565b60006160ca6160c56160c084614a16565b6160a5565b614a16565b9050919050565b6000819050919050565b6160e4836160af565b6160f86160f0826160d1565b848454616053565b825550505050565b600090565b61610d616100565b6161188184846160db565b505050565b5b8181101561613c57616131600082616105565b60018101905061611e565b5050565b601f8211156161815761615281616021565b61615b84616036565b8101602085101561616a578190505b61617e61617685616036565b83018261611d565b50505b505050565b600082821c905092915050565b60006161a460001984600802616186565b1980831691505092915050565b60006161bd8383616193565b9150826002028217905092915050565b6161d682614a88565b67ffffffffffffffff8111156161ef576161ee6151c2565b5b6161f982546157d9565b616204828285616140565b600060209050601f8311600181146162375760008415616225578287015190505b61622f85826161b1565b865550616297565b601f19841661624586616021565b60005b8281101561626d57848901518255600182019150602085019450602081019050616248565b8683101561628a5784890151616286601f891682616193565b8355505b6001600288020188555050505b505050505050565b60006040820190506162b46000830185614a79565b81810360208301526162c68184614adf565b90509392505050565b7f55736572206e6f74207265676973746572656400000000000000000000000000600082015250565b6000616305601383614a93565b9150616310826162cf565b602082019050919050565b60006020820190508181036000830152616334816162f8565b9050919050565b7f4f6e6c792061646d696e6973747261746f72732063616e2064656c657465206360008201527f6c617373726f6f6d730000000000000000000000000000000000000000000000602082015250565b6000616397602983614a93565b91506163a28261633b565b604082019050919050565b600060208201905081810360008301526163c68161638a565b9050919050565b7f4f6e6c792073747564656e74732063616e206861766520656e726f6c6c65642060008201527f636f757273657300000000000000000000000000000000000000000000000000602082015250565b6000616429602783614a93565b9150616434826163cd565b604082019050919050565b600060208201905081810360008301526164588161641c565b9050919050565b7f5573657220616c72656164792072656769737465726564000000000000000000600082015250565b6000616495601783614a93565b91506164a08261645f565b602082019050919050565b600060208201905081810360008301526164c481616488565b9050919050565b60006040820190506164e06000830185614d84565b6164ed6020830184615550565b9392505050565b7f4f6e6c792061646d696e6973747261746f72732063616e20637265617465206360008201527f6c617373726f6f6d730000000000000000000000000000000000000000000000602082015250565b6000616550602983614a93565b915061655b826164f4565b604082019050919050565b6000602082019050818103600083015261657f81616543565b9050919050565b600061659182614a16565b915061659c83614a16565b92508282019050808211156165b4576165b36158a5565b5b92915050565b6000815490506165c9816157d9565b9050919050565b60008190508160005260206000209050919050565b8181036165f35750506166cb565b6165fc826165ba565b67ffffffffffffffff811115616615576166146151c2565b5b61661f82546157d9565b61662a828285616140565b6000601f8311600181146166595760008415616647578287015490505b61665185826161b1565b8655506166c4565b601f198416616667876165d0565b965061667286616021565b60005b8281101561669a57848901548255600182019150600185019450602081019050616675565b868310156166b757848901546166b3601f891682616193565b8355505b6001600288020188555050505b5050505050505b565b60006080820190506166e26000830187614a79565b6166ef6020830186614d43565b6166fc6040830185614d43565b6167096060830184614d43565b95945050505050565b7f4f6e6c792073747564656e74732063616e20726567697374657220696e20636f60008201527f7572736573000000000000000000000000000000000000000000000000000000602082015250565b600061676e602583614a93565b915061677982616712565b604082019050919050565b6000602082019050818103600083015261679d81616761565b9050919050565b7f53747564656e7420616c7265616479207265676973746572656420696e206f6e60008201527f65206f662074686520636f757273657300000000000000000000000000000000602082015250565b6000616800603083614a93565b915061680b826167a4565b604082019050919050565b6000602082019050818103600083015261682f816167f3565b905091905056fea2646970667358221220113ae166c3f2c942b640f2ee992adeb1f8fa3e2ad4c942571910b78650935cc364736f6c634300081b0033","opcodes":"PUSH1 0x80 PUSH1 0x40 MSTORE CALLVALUE DUP1 ISZERO PUSH2 0x10 JUMPI PUSH1 0x0 DUP1 REVERT JUMPDEST POP CALLER PUSH1 0x7 PUSH1 0x0 PUSH2 0x100 EXP DUP2 SLOAD DUP2 PUSH20 0xFFFFFFFFFFFFFFFFFFFFFFFFFFFFFFFFFFFFFFFF MUL NOT AND SWAP1 DUP4 PUSH20 0xFFFFFFFFFFFFFFFFFFFFFFFFFFFFFFFFFFFFFFFF AND MUL OR SWAP1 SSTORE POP PUSH1 0x40 MLOAD DUP1 PUSH1 0x60 ADD PUSH1 0x40 MSTORE DUP1 CALLER PUSH20 0xFFFFFFFFFFFFFFFFFFFFFFFFFFFFFFFFFFFFFFFF AND DUP2 MSTORE PUSH1 0x20 ADD PUSH1 0x2 DUP1 DUP2 GT ISZERO PUSH2 0x8C JUMPI PUSH2 0x8B PUSH2 0x176 JUMP JUMPDEST JUMPDEST DUP2 MSTORE PUSH1 0x20 ADD PUSH1 0x1 ISZERO ISZERO DUP2 MSTORE POP PUSH1 0x1 PUSH1 0x0 CALLER PUSH20 0xFFFFFFFFFFFFFFFFFFFFFFFFFFFFFFFFFFFFFFFF AND PUSH20 0xFFFFFFFFFFFFFFFFFFFFFFFFFFFFFFFFFFFFFFFF AND DUP2 MSTORE PUSH1 0x20 ADD SWAP1 DUP2 MSTORE PUSH1 0x20 ADD PUSH1 0x0 KECCAK256 PUSH1 0x0 DUP3 ADD MLOAD DUP2 PUSH1 0x0 ADD PUSH1 0x0 PUSH2 0x100 EXP DUP2 SLOAD DUP2 PUSH20 0xFFFFFFFFFFFFFFFFFFFFFFFFFFFFFFFFFFFFFFFF MUL NOT AND SWAP1 DUP4 PUSH20 0xFFFFFFFFFFFFFFFFFFFFFFFFFFFFFFFFFFFFFFFF AND MUL OR SWAP1 SSTORE POP PUSH1 0x20 DUP3 ADD MLOAD DUP2 PUSH1 0x0 ADD PUSH1 0x14 PUSH2 0x100 EXP DUP2 SLOAD DUP2 PUSH1 0xFF MUL NOT AND SWAP1 DUP4 PUSH1 0x2 DUP2 GT ISZERO PUSH2 0x149 JUMPI PUSH2 0x148 PUSH2 0x176 JUMP JUMPDEST JUMPDEST MUL OR SWAP1 SSTORE POP PUSH1 0x40 DUP3 ADD MLOAD DUP2 PUSH1 0x0 ADD PUSH1 0x15 PUSH2 0x100 EXP DUP2 SLOAD DUP2 PUSH1 0xFF MUL NOT AND SWAP1 DUP4 ISZERO ISZERO MUL OR SWAP1 SSTORE POP SWAP1 POP POP PUSH2 0x1A5 JUMP JUMPDEST PUSH32 0x4E487B7100000000000000000000000000000000000000000000000000000000 PUSH1 0x0 MSTORE PUSH1 0x21 PUSH1 0x4 MSTORE PUSH1 0x24 PUSH1 0x0 REVERT JUMPDEST PUSH2 0x686C DUP1 PUSH2 0x1B4 PUSH1 0x0 CODECOPY PUSH1 0x0 RETURN INVALID PUSH1 0x80 PUSH1 0x40 MSTORE CALLVALUE DUP1 ISZERO PUSH2 0x10 JUMPI PUSH1 0x0 DUP1 REVERT JUMPDEST POP PUSH1 0x4 CALLDATASIZE LT PUSH2 0x1FB JUMPI PUSH1 0x0 CALLDATALOAD PUSH1 0xE0 SHR DUP1 PUSH4 0x87AC1860 GT PUSH2 0x11A JUMPI DUP1 PUSH4 0xB270A168 GT PUSH2 0xAD JUMPI DUP1 PUSH4 0xDF57A55A GT PUSH2 0x7C JUMPI DUP1 PUSH4 0xDF57A55A EQ PUSH2 0x604 JUMPI DUP1 PUSH4 0xEB7546C6 EQ PUSH2 0x620 JUMPI DUP1 PUSH4 0xECF1938E EQ PUSH2 0x654 JUMPI DUP1 PUSH4 0xF43E5E42 EQ PUSH2 0x670 JUMPI DUP1 PUSH4 0xF851A440 EQ PUSH2 0x6A7 JUMPI PUSH2 0x1FB JUMP JUMPDEST DUP1 PUSH4 0xB270A168 EQ PUSH2 0x57E JUMPI DUP1 PUSH4 0xB68B1AAC EQ PUSH2 0x59A JUMPI DUP1 PUSH4 0xC3C5A547 EQ PUSH2 0x5B6 JUMPI DUP1 PUSH4 0xC53069C7 EQ PUSH2 0x5E6 JUMPI PUSH2 0x1FB JUMP JUMPDEST DUP1 PUSH4 0x9DAD8D22 GT PUSH2 0xE9 JUMPI DUP1 PUSH4 0x9DAD8D22 EQ PUSH2 0x4F8 JUMPI DUP1 PUSH4 0x9E9FA097 EQ PUSH2 0x514 JUMPI DUP1 PUSH4 0xA4ADB24B EQ PUSH2 0x530 JUMPI DUP1 PUSH4 0xA87430BA EQ PUSH2 0x54C JUMPI PUSH2 0x1FB JUMP JUMPDEST DUP1 PUSH4 0x87AC1860 EQ PUSH2 0x46B JUMPI DUP1 PUSH4 0x91AAC065 EQ PUSH2 0x489 JUMPI DUP1 PUSH4 0x965720AF EQ PUSH2 0x4A5 JUMPI DUP1 PUSH4 0x96F979D2 EQ PUSH2 0x4C3 JUMPI PUSH2 0x1FB JUMP JUMPDEST DUP1 PUSH4 0x494D69F0 GT PUSH2 0x192 JUMPI DUP1 PUSH4 0x6F77926B GT PUSH2 0x161 JUMPI DUP1 PUSH4 0x6F77926B EQ PUSH2 0x3CA JUMPI DUP1 PUSH4 0x717C85BE EQ PUSH2 0x3FA JUMPI DUP1 PUSH4 0x80B3EA88 EQ PUSH2 0x416 JUMPI DUP1 PUSH4 0x83517A4F EQ PUSH2 0x44D JUMPI PUSH2 0x1FB JUMP JUMPDEST DUP1 PUSH4 0x494D69F0 EQ PUSH2 0x344 JUMPI DUP1 PUSH4 0x4D6DC664 EQ PUSH2 0x360 JUMPI DUP1 PUSH4 0x5802CC4E EQ PUSH2 0x390 JUMPI DUP1 PUSH4 0x6A03292D EQ PUSH2 0x3AE JUMPI PUSH2 0x1FB JUMP JUMPDEST DUP1 PUSH4 0x27FD9572 GT PUSH2 0x1CE JUMPI DUP1 PUSH4 0x27FD9572 EQ PUSH2 0x2A3 JUMPI DUP1 PUSH4 0x292A1B55 EQ PUSH2 0x2DA JUMPI DUP1 PUSH4 0x330818E6 EQ PUSH2 0x2F8 JUMPI DUP1 PUSH4 0x35E91D65 EQ PUSH2 0x314 JUMPI PUSH2 0x1FB JUMP JUMPDEST DUP1 PUSH4 0x86EAFAE EQ PUSH2 0x200 JUMPI DUP1 PUSH4 0xB91E28D EQ PUSH2 0x234 JUMPI DUP1 PUSH4 0x123268D1 EQ PUSH2 0x269 JUMPI DUP1 PUSH4 0x1358815F EQ PUSH2 0x287 JUMPI JUMPDEST PUSH1 0x0 DUP1 REVERT JUMPDEST PUSH2 0x21A PUSH1 0x4 DUP1 CALLDATASIZE SUB DUP2 ADD SWAP1 PUSH2 0x215 SWAP2 SWAP1 PUSH2 0x4A4C JUMP JUMPDEST PUSH2 0x6C5 JUMP JUMPDEST PUSH1 0x40 MLOAD PUSH2 0x22B SWAP6 SWAP5 SWAP4 SWAP3 SWAP2 SWAP1 PUSH2 0x4B33 JUMP JUMPDEST PUSH1 0x40 MLOAD DUP1 SWAP2 SUB SWAP1 RETURN JUMPDEST PUSH2 0x24E PUSH1 0x4 DUP1 CALLDATASIZE SUB DUP2 ADD SWAP1 PUSH2 0x249 SWAP2 SWAP1 PUSH2 0x4A4C JUMP JUMPDEST PUSH2 0x818 JUMP JUMPDEST PUSH1 0x40 MLOAD PUSH2 0x260 SWAP7 SWAP6 SWAP5 SWAP4 SWAP3 SWAP2 SWAP1 PUSH2 0x4B94 JUMP JUMPDEST PUSH1 0x40 MLOAD DUP1 SWAP2 SUB SWAP1 RETURN JUMPDEST PUSH2 0x271 PUSH2 0x9D3 JUMP JUMPDEST PUSH1 0x40 MLOAD PUSH2 0x27E SWAP2 SWAP1 PUSH2 0x4CC1 JUMP JUMPDEST PUSH1 0x40 MLOAD DUP1 SWAP2 SUB SWAP1 RETURN JUMPDEST PUSH2 0x2A1 PUSH1 0x4 DUP1 CALLDATASIZE SUB DUP2 ADD SWAP1 PUSH2 0x29C SWAP2 SWAP1 PUSH2 0x4CE3 JUMP JUMPDEST PUSH2 0xB41 JUMP JUMPDEST STOP JUMPDEST PUSH2 0x2BD PUSH1 0x4 DUP1 CALLDATASIZE SUB DUP2 ADD SWAP1 PUSH2 0x2B8 SWAP2 SWAP1 PUSH2 0x4A4C JUMP JUMPDEST PUSH2 0xDA9 JUMP JUMPDEST PUSH1 0x40 MLOAD PUSH2 0x2D1 SWAP9 SWAP8 SWAP7 SWAP6 SWAP5 SWAP4 SWAP3 SWAP2 SWAP1 PUSH2 0x4D93 JUMP JUMPDEST PUSH1 0x40 MLOAD DUP1 SWAP2 SUB SWAP1 RETURN JUMPDEST PUSH2 0x2E2 PUSH2 0xECD JUMP JUMPDEST PUSH1 0x40 MLOAD PUSH2 0x2EF SWAP2 SWAP1 PUSH2 0x5001 JUMP JUMPDEST PUSH1 0x40 MLOAD DUP1 SWAP2 SUB SWAP1 RETURN JUMPDEST PUSH2 0x312 PUSH1 0x4 DUP1 CALLDATASIZE SUB DUP2 ADD SWAP1 PUSH2 0x30D SWAP2 SWAP1 PUSH2 0x504F JUMP JUMPDEST PUSH2 0x125C JUMP JUMPDEST STOP JUMPDEST PUSH2 0x32E PUSH1 0x4 DUP1 CALLDATASIZE SUB DUP2 ADD SWAP1 PUSH2 0x329 SWAP2 SWAP1 PUSH2 0x50A2 JUMP JUMPDEST PUSH2 0x16E3 JUMP JUMPDEST PUSH1 0x40 MLOAD PUSH2 0x33B SWAP2 SWAP1 PUSH2 0x5001 JUMP JUMPDEST PUSH1 0x40 MLOAD DUP1 SWAP2 SUB SWAP1 RETURN JUMPDEST PUSH2 0x35E PUSH1 0x4 DUP1 CALLDATASIZE SUB DUP2 ADD SWAP1 PUSH2 0x359 SWAP2 SWAP1 PUSH2 0x50FB JUMP JUMPDEST PUSH2 0x1BBA JUMP JUMPDEST STOP JUMPDEST PUSH2 0x37A PUSH1 0x4 DUP1 CALLDATASIZE SUB DUP2 ADD SWAP1 PUSH2 0x375 SWAP2 SWAP1 PUSH2 0x50A2 JUMP JUMPDEST PUSH2 0x21C7 JUMP JUMPDEST PUSH1 0x40 MLOAD PUSH2 0x387 SWAP2 SWAP1 PUSH2 0x4CC1 JUMP JUMPDEST PUSH1 0x40 MLOAD DUP1 SWAP2 SUB SWAP1 RETURN JUMPDEST PUSH2 0x398 PUSH2 0x2581 JUMP JUMPDEST PUSH1 0x40 MLOAD PUSH2 0x3A5 SWAP2 SWAP1 PUSH2 0x519D JUMP JUMPDEST PUSH1 0x40 MLOAD DUP1 SWAP2 SUB SWAP1 RETURN JUMPDEST PUSH2 0x3C8 PUSH1 0x4 DUP1 CALLDATASIZE SUB DUP2 ADD SWAP1 PUSH2 0x3C3 SWAP2 SWAP1 PUSH2 0x52ED JUMP JUMPDEST PUSH2 0x2587 JUMP JUMPDEST STOP JUMPDEST PUSH2 0x3E4 PUSH1 0x4 DUP1 CALLDATASIZE SUB DUP2 ADD SWAP1 PUSH2 0x3DF SWAP2 SWAP1 PUSH2 0x50A2 JUMP JUMPDEST PUSH2 0x2767 JUMP JUMPDEST PUSH1 0x40 MLOAD PUSH2 0x3F1 SWAP2 SWAP1 PUSH2 0x5445 JUMP JUMPDEST PUSH1 0x40 MLOAD DUP1 SWAP2 SUB SWAP1 RETURN JUMPDEST PUSH2 0x414 PUSH1 0x4 DUP1 CALLDATASIZE SUB DUP2 ADD SWAP1 PUSH2 0x40F SWAP2 SWAP1 PUSH2 0x4A4C JUMP JUMPDEST PUSH2 0x2901 JUMP JUMPDEST STOP JUMPDEST PUSH2 0x430 PUSH1 0x4 DUP1 CALLDATASIZE SUB DUP2 ADD SWAP1 PUSH2 0x42B SWAP2 SWAP1 PUSH2 0x4A4C JUMP JUMPDEST PUSH2 0x2AC6 JUMP JUMPDEST PUSH1 0x40 MLOAD PUSH2 0x444 SWAP9 SWAP8 SWAP7 SWAP6 SWAP5 SWAP4 SWAP3 SWAP2 SWAP1 PUSH2 0x4D93 JUMP JUMPDEST PUSH1 0x40 MLOAD DUP1 SWAP2 SUB SWAP1 RETURN JUMPDEST PUSH2 0x455 PUSH2 0x2C51 JUMP JUMPDEST PUSH1 0x40 MLOAD PUSH2 0x462 SWAP2 SWAP1 PUSH2 0x4CC1 JUMP JUMPDEST PUSH1 0x40 MLOAD DUP1 SWAP2 SUB SWAP1 RETURN JUMPDEST PUSH2 0x473 PUSH2 0x2F89 JUMP JUMPDEST PUSH1 0x40 MLOAD PUSH2 0x480 SWAP2 SWAP1 PUSH2 0x519D JUMP JUMPDEST PUSH1 0x40 MLOAD DUP1 SWAP2 SUB SWAP1 RETURN JUMPDEST PUSH2 0x4A3 PUSH1 0x4 DUP1 CALLDATASIZE SUB DUP2 ADD SWAP1 PUSH2 0x49E SWAP2 SWAP1 PUSH2 0x52ED JUMP JUMPDEST PUSH2 0x2F8F JUMP JUMPDEST STOP JUMPDEST PUSH2 0x4AD PUSH2 0x30B8 JUMP JUMPDEST PUSH1 0x40 MLOAD PUSH2 0x4BA SWAP2 SWAP1 PUSH2 0x519D JUMP JUMPDEST PUSH1 0x40 MLOAD DUP1 SWAP2 SUB SWAP1 RETURN JUMPDEST PUSH2 0x4DD PUSH1 0x4 DUP1 CALLDATASIZE SUB DUP2 ADD SWAP1 PUSH2 0x4D8 SWAP2 SWAP1 PUSH2 0x4A4C JUMP JUMPDEST PUSH2 0x30BE JUMP JUMPDEST PUSH1 0x40 MLOAD PUSH2 0x4EF SWAP7 SWAP6 SWAP5 SWAP4 SWAP3 SWAP2 SWAP1 PUSH2 0x4B94 JUMP JUMPDEST PUSH1 0x40 MLOAD DUP1 SWAP2 SUB SWAP1 RETURN JUMPDEST PUSH2 0x512 PUSH1 0x4 DUP1 CALLDATASIZE SUB DUP2 ADD SWAP1 PUSH2 0x50D SWAP2 SWAP1 PUSH2 0x4A4C JUMP JUMPDEST PUSH2 0x3217 JUMP JUMPDEST STOP JUMPDEST PUSH2 0x52E PUSH1 0x4 DUP1 CALLDATASIZE SUB DUP2 ADD SWAP1 PUSH2 0x529 SWAP2 SWAP1 PUSH2 0x5485 JUMP JUMPDEST PUSH2 0x3325 JUMP JUMPDEST STOP JUMPDEST PUSH2 0x54A PUSH1 0x4 DUP1 CALLDATASIZE SUB DUP2 ADD SWAP1 PUSH2 0x545 SWAP2 SWAP1 PUSH2 0x54C5 JUMP JUMPDEST PUSH2 0x34C2 JUMP JUMPDEST STOP JUMPDEST PUSH2 0x566 PUSH1 0x4 DUP1 CALLDATASIZE SUB DUP2 ADD SWAP1 PUSH2 0x561 SWAP2 SWAP1 PUSH2 0x50A2 JUMP JUMPDEST PUSH2 0x3590 JUMP JUMPDEST PUSH1 0x40 MLOAD PUSH2 0x575 SWAP4 SWAP3 SWAP2 SWAP1 PUSH2 0x555F JUMP JUMPDEST PUSH1 0x40 MLOAD DUP1 SWAP2 SUB SWAP1 RETURN JUMPDEST PUSH2 0x598 PUSH1 0x4 DUP1 CALLDATASIZE SUB DUP2 ADD SWAP1 PUSH2 0x593 SWAP2 SWAP1 PUSH2 0x54C5 JUMP JUMPDEST PUSH2 0x35F4 JUMP JUMPDEST STOP JUMPDEST PUSH2 0x5B4 PUSH1 0x4 DUP1 CALLDATASIZE SUB DUP2 ADD SWAP1 PUSH2 0x5AF SWAP2 SWAP1 PUSH2 0x5596 JUMP JUMPDEST PUSH2 0x376E JUMP JUMPDEST STOP JUMPDEST PUSH2 0x5D0 PUSH1 0x4 DUP1 CALLDATASIZE SUB DUP2 ADD SWAP1 PUSH2 0x5CB SWAP2 SWAP1 PUSH2 0x50A2 JUMP JUMPDEST PUSH2 0x3E1E JUMP JUMPDEST PUSH1 0x40 MLOAD PUSH2 0x5DD SWAP2 SWAP1 PUSH2 0x5623 JUMP JUMPDEST PUSH1 0x40 MLOAD DUP1 SWAP2 SUB SWAP1 RETURN JUMPDEST PUSH2 0x5EE PUSH2 0x3E77 JUMP JUMPDEST PUSH1 0x40 MLOAD PUSH2 0x5FB SWAP2 SWAP1 PUSH2 0x4CC1 JUMP JUMPDEST PUSH1 0x40 MLOAD DUP1 SWAP2 SUB SWAP1 RETURN JUMPDEST PUSH2 0x61E PUSH1 0x4 DUP1 CALLDATASIZE SUB DUP2 ADD SWAP1 PUSH2 0x619 SWAP2 SWAP1 PUSH2 0x5706 JUMP JUMPDEST PUSH2 0x3FE4 JUMP JUMPDEST STOP JUMPDEST PUSH2 0x63A PUSH1 0x4 DUP1 CALLDATASIZE SUB DUP2 ADD SWAP1 PUSH2 0x635 SWAP2 SWAP1 PUSH2 0x4A4C JUMP JUMPDEST PUSH2 0x4311 JUMP JUMPDEST PUSH1 0x40 MLOAD PUSH2 0x64B SWAP6 SWAP5 SWAP4 SWAP3 SWAP2 SWAP1 PUSH2 0x4B33 JUMP JUMPDEST PUSH1 0x40 MLOAD DUP1 SWAP2 SUB SWAP1 RETURN JUMPDEST PUSH2 0x66E PUSH1 0x4 DUP1 CALLDATASIZE SUB DUP2 ADD SWAP1 PUSH2 0x669 SWAP2 SWAP1 PUSH2 0x574F JUMP JUMPDEST PUSH2 0x44C4 JUMP JUMPDEST STOP JUMPDEST PUSH2 0x68A PUSH1 0x4 DUP1 CALLDATASIZE SUB DUP2 ADD SWAP1 PUSH2 0x685 SWAP2 SWAP1 PUSH2 0x574F JUMP JUMPDEST PUSH2 0x46D1 JUMP JUMPDEST PUSH1 0x40 MLOAD PUSH2 0x69E SWAP9 SWAP8 SWAP7 SWAP6 SWAP5 SWAP4 SWAP3 SWAP2 SWAP1 PUSH2 0x4D93 JUMP JUMPDEST PUSH1 0x40 MLOAD DUP1 SWAP2 SUB SWAP1 RETURN JUMPDEST PUSH2 0x6AF PUSH2 0x492B JUMP JUMPDEST PUSH1 0x40 MLOAD PUSH2 0x6BC SWAP2 SWAP1 PUSH2 0x578F JUMP JUMPDEST PUSH1 0x40 MLOAD DUP1 SWAP2 SUB SWAP1 RETURN JUMPDEST PUSH1 0x3 PUSH1 0x20 MSTORE DUP1 PUSH1 0x0 MSTORE PUSH1 0x40 PUSH1 0x0 KECCAK256 PUSH1 0x0 SWAP2 POP SWAP1 POP DUP1 PUSH1 0x0 ADD SLOAD SWAP1 DUP1 PUSH1 0x1 ADD DUP1 SLOAD PUSH2 0x6EE SWAP1 PUSH2 0x57D9 JUMP JUMPDEST DUP1 PUSH1 0x1F ADD PUSH1 0x20 DUP1 SWAP2 DIV MUL PUSH1 0x20 ADD PUSH1 0x40 MLOAD SWAP1 DUP2 ADD PUSH1 0x40 MSTORE DUP1 SWAP3 SWAP2 SWAP1 DUP2 DUP2 MSTORE PUSH1 0x20 ADD DUP3 DUP1 SLOAD PUSH2 0x71A SWAP1 PUSH2 0x57D9 JUMP JUMPDEST DUP1 ISZERO PUSH2 0x767 JUMPI DUP1 PUSH1 0x1F LT PUSH2 0x73C JUMPI PUSH2 0x100 DUP1 DUP4 SLOAD DIV MUL DUP4 MSTORE SWAP2 PUSH1 0x20 ADD SWAP2 PUSH2 0x767 JUMP JUMPDEST DUP3 ADD SWAP2 SWAP1 PUSH1 0x0 MSTORE PUSH1 0x20 PUSH1 0x0 KECCAK256 SWAP1 JUMPDEST DUP2 SLOAD DUP2 MSTORE SWAP1 PUSH1 0x1 ADD SWAP1 PUSH1 0x20 ADD DUP1 DUP4 GT PUSH2 0x74A JUMPI DUP3 SWAP1 SUB PUSH1 0x1F AND DUP3 ADD SWAP2 JUMPDEST POP POP POP POP POP SWAP1 DUP1 PUSH1 0x2 ADD DUP1 SLOAD PUSH2 0x77C SWAP1 PUSH2 0x57D9 JUMP JUMPDEST DUP1 PUSH1 0x1F ADD PUSH1 0x20 DUP1 SWAP2 DIV MUL PUSH1 0x20 ADD PUSH1 0x40 MLOAD SWAP1 DUP2 ADD PUSH1 0x40 MSTORE DUP1 SWAP3 SWAP2 SWAP1 DUP2 DUP2 MSTORE PUSH1 0x20 ADD DUP3 DUP1 SLOAD PUSH2 0x7A8 SWAP1 PUSH2 0x57D9 JUMP JUMPDEST DUP1 ISZERO PUSH2 0x7F5 JUMPI DUP1 PUSH1 0x1F LT PUSH2 0x7CA JUMPI PUSH2 0x100 DUP1 DUP4 SLOAD DIV MUL DUP4 MSTORE SWAP2 PUSH1 0x20 ADD SWAP2 PUSH2 0x7F5 JUMP JUMPDEST DUP3 ADD SWAP2 SWAP1 PUSH1 0x0 MSTORE PUSH1 0x20 PUSH1 0x0 KECCAK256 SWAP1 JUMPDEST DUP2 SLOAD DUP2 MSTORE SWAP1 PUSH1 0x1 ADD SWAP1 PUSH1 0x20 ADD DUP1 DUP4 GT PUSH2 0x7D8 JUMPI DUP3 SWAP1 SUB PUSH1 0x1F AND DUP3 ADD SWAP2 JUMPDEST POP POP POP POP POP SWAP1 DUP1 PUSH1 0x3 ADD SLOAD SWAP1 DUP1 PUSH1 0x4 ADD PUSH1 0x0 SWAP1 SLOAD SWAP1 PUSH2 0x100 EXP SWAP1 DIV PUSH1 0xFF AND SWAP1 POP DUP6 JUMP JUMPDEST PUSH1 0x0 PUSH1 0x60 DUP1 PUSH1 0x0 DUP1 PUSH1 0x0 PUSH1 0x4 SLOAD DUP8 LT PUSH2 0x866 JUMPI PUSH1 0x40 MLOAD PUSH32 0x8C379A000000000000000000000000000000000000000000000000000000000 DUP2 MSTORE PUSH1 0x4 ADD PUSH2 0x85D SWAP1 PUSH2 0x5856 JUMP JUMPDEST PUSH1 0x40 MLOAD DUP1 SWAP2 SUB SWAP1 REVERT JUMPDEST PUSH1 0x0 DUP1 PUSH1 0x0 DUP10 DUP2 MSTORE PUSH1 0x20 ADD SWAP1 DUP2 MSTORE PUSH1 0x20 ADD PUSH1 0x0 KECCAK256 SWAP1 POP DUP1 PUSH1 0x0 ADD SLOAD DUP2 PUSH1 0x1 ADD DUP3 PUSH1 0x2 ADD DUP4 PUSH1 0x3 ADD SLOAD DUP5 PUSH1 0x4 ADD PUSH1 0x0 SWAP1 SLOAD SWAP1 PUSH2 0x100 EXP SWAP1 DIV PUSH1 0xFF AND DUP6 PUSH1 0x5 ADD SLOAD DUP5 DUP1 SLOAD PUSH2 0x8B1 SWAP1 PUSH2 0x57D9 JUMP JUMPDEST DUP1 PUSH1 0x1F ADD PUSH1 0x20 DUP1 SWAP2 DIV MUL PUSH1 0x20 ADD PUSH1 0x40 MLOAD SWAP1 DUP2 ADD PUSH1 0x40 MSTORE DUP1 SWAP3 SWAP2 SWAP1 DUP2 DUP2 MSTORE PUSH1 0x20 ADD DUP3 DUP1 SLOAD PUSH2 0x8DD SWAP1 PUSH2 0x57D9 JUMP JUMPDEST DUP1 ISZERO PUSH2 0x92A JUMPI DUP1 PUSH1 0x1F LT PUSH2 0x8FF JUMPI PUSH2 0x100 DUP1 DUP4 SLOAD DIV MUL DUP4 MSTORE SWAP2 PUSH1 0x20 ADD SWAP2 PUSH2 0x92A JUMP JUMPDEST DUP3 ADD SWAP2 SWAP1 PUSH1 0x0 MSTORE PUSH1 0x20 PUSH1 0x0 KECCAK256 SWAP1 JUMPDEST DUP2 SLOAD DUP2 MSTORE SWAP1 PUSH1 0x1 ADD SWAP1 PUSH1 0x20 ADD DUP1 DUP4 GT PUSH2 0x90D JUMPI DUP3 SWAP1 SUB PUSH1 0x1F AND DUP3 ADD SWAP2 JUMPDEST POP POP POP POP POP SWAP5 POP DUP4 DUP1 SLOAD PUSH2 0x93D SWAP1 PUSH2 0x57D9 JUMP JUMPDEST DUP1 PUSH1 0x1F ADD PUSH1 0x20 DUP1 SWAP2 DIV MUL PUSH1 0x20 ADD PUSH1 0x40 MLOAD SWAP1 DUP2 ADD PUSH1 0x40 MSTORE DUP1 SWAP3 SWAP2 SWAP1 DUP2 DUP2 MSTORE PUSH1 0x20 ADD DUP3 DUP1 SLOAD PUSH2 0x969 SWAP1 PUSH2 0x57D9 JUMP JUMPDEST DUP1 ISZERO PUSH2 0x9B6 JUMPI DUP1 PUSH1 0x1F LT PUSH2 0x98B JUMPI PUSH2 0x100 DUP1 DUP4 SLOAD DIV MUL DUP4 MSTORE SWAP2 PUSH1 0x20 ADD SWAP2 PUSH2 0x9B6 JUMP JUMPDEST DUP3 ADD SWAP2 SWAP1 PUSH1 0x0 MSTORE PUSH1 0x20 PUSH1 0x0 KECCAK256 SWAP1 JUMPDEST DUP2 SLOAD DUP2 MSTORE SWAP1 PUSH1 0x1 ADD SWAP1 PUSH1 0x20 ADD DUP1 DUP4 GT PUSH2 0x999 JUMPI DUP3 SWAP1 SUB PUSH1 0x1F AND DUP3 ADD SWAP2 JUMPDEST POP POP POP POP POP SWAP4 POP SWAP7 POP SWAP7 POP SWAP7 POP SWAP7 POP SWAP7 POP SWAP7 POP POP SWAP2 SWAP4 SWAP6 POP SWAP2 SWAP4 SWAP6 JUMP JUMPDEST PUSH1 0x60 PUSH1 0x0 PUSH1 0x6 SLOAD PUSH8 0xFFFFFFFFFFFFFFFF DUP2 GT ISZERO PUSH2 0x9F3 JUMPI PUSH2 0x9F2 PUSH2 0x51C2 JUMP JUMPDEST JUMPDEST PUSH1 0x40 MLOAD SWAP1 DUP1 DUP3 MSTORE DUP1 PUSH1 0x20 MUL PUSH1 0x20 ADD DUP3 ADD PUSH1 0x40 MSTORE DUP1 ISZERO PUSH2 0xA21 JUMPI DUP2 PUSH1 0x20 ADD PUSH1 0x20 DUP3 MUL DUP1 CALLDATASIZE DUP4 CALLDATACOPY DUP1 DUP3 ADD SWAP2 POP POP SWAP1 POP JUMPDEST POP SWAP1 POP PUSH1 0x0 DUP1 JUMPDEST PUSH1 0x6 SLOAD DUP2 LT ISZERO PUSH2 0xA97 JUMPI PUSH1 0x3 PUSH1 0x0 DUP3 DUP2 MSTORE PUSH1 0x20 ADD SWAP1 DUP2 MSTORE PUSH1 0x20 ADD PUSH1 0x0 KECCAK256 PUSH1 0x4 ADD PUSH1 0x0 SWAP1 SLOAD SWAP1 PUSH2 0x100 EXP SWAP1 DIV PUSH1 0xFF AND ISZERO PUSH2 0xA8A JUMPI DUP1 DUP4 DUP4 DUP2 MLOAD DUP2 LT PUSH2 0xA6F JUMPI PUSH2 0xA6E PUSH2 0x5876 JUMP JUMPDEST JUMPDEST PUSH1 0x20 MUL PUSH1 0x20 ADD ADD DUP2 DUP2 MSTORE POP POP DUP2 DUP1 PUSH2 0xA86 SWAP1 PUSH2 0x58D4 JUMP JUMPDEST SWAP3 POP POP JUMPDEST DUP1 DUP1 PUSH1 0x1 ADD SWAP2 POP POP PUSH2 0xA28 JUMP JUMPDEST POP PUSH1 0x0 DUP2 PUSH8 0xFFFFFFFFFFFFFFFF DUP2 GT ISZERO PUSH2 0xAB4 JUMPI PUSH2 0xAB3 PUSH2 0x51C2 JUMP JUMPDEST JUMPDEST PUSH1 0x40 MLOAD SWAP1 DUP1 DUP3 MSTORE DUP1 PUSH1 0x20 MUL PUSH1 0x20 ADD DUP3 ADD PUSH1 0x40 MSTORE DUP1 ISZERO PUSH2 0xAE2 JUMPI DUP2 PUSH1 0x20 ADD PUSH1 0x20 DUP3 MUL DUP1 CALLDATASIZE DUP4 CALLDATACOPY DUP1 DUP3 ADD SWAP2 POP POP SWAP1 POP JUMPDEST POP SWAP1 POP PUSH1 0x0 JUMPDEST DUP3 DUP2 LT ISZERO PUSH2 0xB37 JUMPI DUP4 DUP2 DUP2 MLOAD DUP2 LT PUSH2 0xB03 JUMPI PUSH2 0xB02 PUSH2 0x5876 JUMP JUMPDEST JUMPDEST PUSH1 0x20 MUL PUSH1 0x20 ADD ADD MLOAD DUP3 DUP3 DUP2 MLOAD DUP2 LT PUSH2 0xB1E JUMPI PUSH2 0xB1D PUSH2 0x5876 JUMP JUMPDEST JUMPDEST PUSH1 0x20 MUL PUSH1 0x20 ADD ADD DUP2 DUP2 MSTORE POP POP DUP1 DUP1 PUSH1 0x1 ADD SWAP2 POP POP PUSH2 0xAE8 JUMP JUMPDEST POP DUP1 SWAP4 POP POP POP POP SWAP1 JUMP JUMPDEST PUSH1 0x4 SLOAD DUP4 LT PUSH2 0xB85 JUMPI PUSH1 0x40 MLOAD PUSH32 0x8C379A000000000000000000000000000000000000000000000000000000000 DUP2 MSTORE PUSH1 0x4 ADD PUSH2 0xB7C SWAP1 PUSH2 0x5856 JUMP JUMPDEST PUSH1 0x40 MLOAD DUP1 SWAP2 SUB SWAP1 REVERT JUMPDEST PUSH1 0x0 DUP1 DUP5 DUP2 MSTORE PUSH1 0x20 ADD SWAP1 DUP2 MSTORE PUSH1 0x20 ADD PUSH1 0x0 KECCAK256 PUSH1 0x4 ADD PUSH1 0x0 SWAP1 SLOAD SWAP1 PUSH2 0x100 EXP SWAP1 DIV PUSH1 0xFF AND PUSH2 0xBE7 JUMPI PUSH1 0x40 MLOAD PUSH32 0x8C379A000000000000000000000000000000000000000000000000000000000 DUP2 MSTORE PUSH1 0x4 ADD PUSH2 0xBDE SWAP1 PUSH2 0x598E JUMP JUMPDEST PUSH1 0x40 MLOAD DUP1 SWAP2 SUB SWAP1 REVERT JUMPDEST PUSH1 0x0 DUP1 DUP5 DUP2 MSTORE PUSH1 0x20 ADD SWAP1 DUP2 MSTORE PUSH1 0x20 ADD PUSH1 0x0 KECCAK256 PUSH1 0x5 ADD SLOAD DUP3 GT ISZERO PUSH2 0xC3F JUMPI PUSH1 0x40 MLOAD PUSH32 0x8C379A000000000000000000000000000000000000000000000000000000000 DUP2 MSTORE PUSH1 0x4 ADD PUSH2 0xC36 SWAP1 PUSH2 0x59FA JUMP JUMPDEST PUSH1 0x40 MLOAD DUP1 SWAP2 SUB SWAP1 REVERT JUMPDEST PUSH1 0x6 SLOAD DUP2 LT PUSH2 0xC83 JUMPI PUSH1 0x40 MLOAD PUSH32 0x8C379A000000000000000000000000000000000000000000000000000000000 DUP2 MSTORE PUSH1 0x4 ADD PUSH2 0xC7A SWAP1 PUSH2 0x5A66 JUMP JUMPDEST PUSH1 0x40 MLOAD DUP1 SWAP2 SUB SWAP1 REVERT JUMPDEST PUSH1 0x3 PUSH1 0x0 DUP3 DUP2 MSTORE PUSH1 0x20 ADD SWAP1 DUP2 MSTORE PUSH1 0x20 ADD PUSH1 0x0 KECCAK256 PUSH1 0x4 ADD PUSH1 0x0 SWAP1 SLOAD SWAP1 PUSH2 0x100 EXP SWAP1 DIV PUSH1 0xFF AND PUSH2 0xCE6 JUMPI PUSH1 0x40 MLOAD PUSH32 0x8C379A000000000000000000000000000000000000000000000000000000000 DUP2 MSTORE PUSH1 0x4 ADD PUSH2 0xCDD SWAP1 PUSH2 0x5AF8 JUMP JUMPDEST PUSH1 0x40 MLOAD DUP1 SWAP2 SUB SWAP1 REVERT JUMPDEST PUSH1 0x0 DUP1 PUSH1 0x0 DUP6 DUP2 MSTORE PUSH1 0x20 ADD SWAP1 DUP2 MSTORE PUSH1 0x20 ADD PUSH1 0x0 KECCAK256 PUSH1 0x7 ADD PUSH1 0x0 DUP5 DUP2 MSTORE PUSH1 0x20 ADD SWAP1 DUP2 MSTORE PUSH1 0x20 ADD PUSH1 0x0 KECCAK256 SWAP1 POP DUP1 PUSH1 0x3 ADD PUSH1 0x0 SWAP1 SLOAD SWAP1 PUSH2 0x100 EXP SWAP1 DIV PUSH1 0xFF AND PUSH2 0xD61 JUMPI PUSH1 0x40 MLOAD PUSH32 0x8C379A000000000000000000000000000000000000000000000000000000000 DUP2 MSTORE PUSH1 0x4 ADD PUSH2 0xD58 SWAP1 PUSH2 0x5B8A JUMP JUMPDEST PUSH1 0x40 MLOAD DUP1 SWAP2 SUB SWAP1 REVERT JUMPDEST DUP2 DUP2 PUSH1 0x4 ADD DUP2 SWAP1 SSTORE POP PUSH32 0xA6513A9BBA35746DACD52AC5046464ECC24F542AA1B1A92CEFF55438CDB0A76B DUP4 DUP4 PUSH1 0x40 MLOAD PUSH2 0xD9B SWAP3 SWAP2 SWAP1 PUSH2 0x5BAA JUMP JUMPDEST PUSH1 0x40 MLOAD DUP1 SWAP2 SUB SWAP1 LOG1 POP POP POP POP JUMP JUMPDEST PUSH1 0x2 PUSH1 0x20 MSTORE DUP1 PUSH1 0x0 MSTORE PUSH1 0x40 PUSH1 0x0 KECCAK256 PUSH1 0x0 SWAP2 POP SWAP1 POP DUP1 PUSH1 0x0 ADD SLOAD SWAP1 DUP1 PUSH1 0x1 ADD PUSH1 0x0 SWAP1 SLOAD SWAP1 PUSH2 0x100 EXP SWAP1 DIV PUSH1 0xFF AND SWAP1 DUP1 PUSH1 0x1 ADD PUSH1 0x1 SWAP1 SLOAD SWAP1 PUSH2 0x100 EXP SWAP1 DIV PUSH1 0xFF AND SWAP1 DUP1 PUSH1 0x1 ADD PUSH1 0x2 SWAP1 SLOAD SWAP1 PUSH2 0x100 EXP SWAP1 DIV PUSH1 0xFF AND SWAP1 DUP1 PUSH1 0x2 ADD DUP1 SLOAD PUSH2 0xE0B SWAP1 PUSH2 0x57D9 JUMP JUMPDEST DUP1 PUSH1 0x1F ADD PUSH1 0x20 DUP1 SWAP2 DIV MUL PUSH1 0x20 ADD PUSH1 0x40 MLOAD SWAP1 DUP2 ADD PUSH1 0x40 MSTORE DUP1 SWAP3 SWAP2 SWAP1 DUP2 DUP2 MSTORE PUSH1 0x20 ADD DUP3 DUP1 SLOAD PUSH2 0xE37 SWAP1 PUSH2 0x57D9 JUMP JUMPDEST DUP1 ISZERO PUSH2 0xE84 JUMPI DUP1 PUSH1 0x1F LT PUSH2 0xE59 JUMPI PUSH2 0x100 DUP1 DUP4 SLOAD DIV MUL DUP4 MSTORE SWAP2 PUSH1 0x20 ADD SWAP2 PUSH2 0xE84 JUMP JUMPDEST DUP3 ADD SWAP2 SWAP1 PUSH1 0x0 MSTORE PUSH1 0x20 PUSH1 0x0 KECCAK256 SWAP1 JUMPDEST DUP2 SLOAD DUP2 MSTORE SWAP1 PUSH1 0x1 ADD SWAP1 PUSH1 0x20 ADD DUP1 DUP4 GT PUSH2 0xE67 JUMPI DUP3 SWAP1 SUB PUSH1 0x1F AND DUP3 ADD SWAP2 JUMPDEST POP POP POP POP POP SWAP1 DUP1 PUSH1 0x3 ADD PUSH1 0x0 SWAP1 SLOAD SWAP1 PUSH2 0x100 EXP SWAP1 DIV PUSH1 0xFF AND SWAP1 DUP1 PUSH1 0x4 ADD SLOAD SWAP1 DUP1 PUSH1 0x5 ADD PUSH1 0x0 SWAP1 SLOAD SWAP1 PUSH2 0x100 EXP SWAP1 DIV PUSH20 0xFFFFFFFFFFFFFFFFFFFFFFFFFFFFFFFFFFFFFFFF AND SWAP1 POP DUP9 JUMP JUMPDEST PUSH1 0x60 PUSH1 0x0 DUP1 JUMPDEST PUSH1 0x4 SLOAD DUP2 LT ISZERO PUSH2 0xF91 JUMPI PUSH1 0x0 DUP1 DUP3 DUP2 MSTORE PUSH1 0x20 ADD SWAP1 DUP2 MSTORE PUSH1 0x20 ADD PUSH1 0x0 KECCAK256 PUSH1 0x4 ADD PUSH1 0x0 SWAP1 SLOAD SWAP1 PUSH2 0x100 EXP SWAP1 DIV PUSH1 0xFF AND ISZERO PUSH2 0xF84 JUMPI PUSH1 0x0 JUMPDEST PUSH1 0x0 DUP1 DUP4 DUP2 MSTORE PUSH1 0x20 ADD SWAP1 DUP2 MSTORE PUSH1 0x20 ADD PUSH1 0x0 KECCAK256 PUSH1 0x5 ADD SLOAD DUP2 GT PUSH2 0xF82 JUMPI PUSH1 0x0 DUP1 DUP4 DUP2 MSTORE PUSH1 0x20 ADD SWAP1 DUP2 MSTORE PUSH1 0x20 ADD PUSH1 0x0 KECCAK256 PUSH1 0x7 ADD PUSH1 0x0 DUP3 DUP2 MSTORE PUSH1 0x20 ADD SWAP1 DUP2 MSTORE PUSH1 0x20 ADD PUSH1 0x0 KECCAK256 PUSH1 0x3 ADD PUSH1 0x0 SWAP1 SLOAD SWAP1 PUSH2 0x100 EXP SWAP1 DIV PUSH1 0xFF AND ISZERO PUSH2 0xF6F JUMPI DUP3 DUP1 PUSH2 0xF6B SWAP1 PUSH2 0x58D4 JUMP JUMPDEST SWAP4 POP POP JUMPDEST DUP1 DUP1 PUSH2 0xF7A SWAP1 PUSH2 0x58D4 JUMP JUMPDEST SWAP2 POP POP PUSH2 0xF08 JUMP JUMPDEST POP JUMPDEST DUP1 DUP1 PUSH1 0x1 ADD SWAP2 POP POP PUSH2 0xED3 JUMP JUMPDEST POP PUSH1 0x0 DUP2 PUSH8 0xFFFFFFFFFFFFFFFF DUP2 GT ISZERO PUSH2 0xFAE JUMPI PUSH2 0xFAD PUSH2 0x51C2 JUMP JUMPDEST JUMPDEST PUSH1 0x40 MLOAD SWAP1 DUP1 DUP3 MSTORE DUP1 PUSH1 0x20 MUL PUSH1 0x20 ADD DUP3 ADD PUSH1 0x40 MSTORE DUP1 ISZERO PUSH2 0xFE7 JUMPI DUP2 PUSH1 0x20 ADD JUMPDEST PUSH2 0xFD4 PUSH2 0x4951 JUMP JUMPDEST DUP2 MSTORE PUSH1 0x20 ADD SWAP1 PUSH1 0x1 SWAP1 SUB SWAP1 DUP2 PUSH2 0xFCC JUMPI SWAP1 POP JUMPDEST POP SWAP1 POP PUSH1 0x0 DUP1 JUMPDEST PUSH1 0x4 SLOAD DUP2 LT ISZERO PUSH2 0x1252 JUMPI PUSH1 0x0 DUP1 DUP3 DUP2 MSTORE PUSH1 0x20 ADD SWAP1 DUP2 MSTORE PUSH1 0x20 ADD PUSH1 0x0 KECCAK256 PUSH1 0x4 ADD PUSH1 0x0 SWAP1 SLOAD SWAP1 PUSH2 0x100 EXP SWAP1 DIV PUSH1 0xFF AND ISZERO PUSH2 0x1245 JUMPI PUSH1 0x0 DUP1 PUSH1 0x0 DUP4 DUP2 MSTORE PUSH1 0x20 ADD SWAP1 DUP2 MSTORE PUSH1 0x20 ADD PUSH1 0x0 KECCAK256 SWAP1 POP PUSH1 0x0 PUSH1 0x1 SWAP1 POP JUMPDEST DUP2 PUSH1 0x5 ADD SLOAD DUP2 GT PUSH2 0x1242 JUMPI DUP2 PUSH1 0x7 ADD PUSH1 0x0 DUP3 DUP2 MSTORE PUSH1 0x20 ADD SWAP1 DUP2 MSTORE PUSH1 0x20 ADD PUSH1 0x0 KECCAK256 PUSH1 0x3 ADD PUSH1 0x0 SWAP1 SLOAD SWAP1 PUSH2 0x100 EXP SWAP1 DIV PUSH1 0xFF AND ISZERO PUSH2 0x122F JUMPI DUP2 PUSH1 0x7 ADD PUSH1 0x0 DUP3 DUP2 MSTORE PUSH1 0x20 ADD SWAP1 DUP2 MSTORE PUSH1 0x20 ADD PUSH1 0x0 KECCAK256 PUSH1 0x40 MLOAD DUP1 PUSH2 0x100 ADD PUSH1 0x40 MSTORE SWAP1 DUP2 PUSH1 0x0 DUP3 ADD SLOAD DUP2 MSTORE PUSH1 0x20 ADD PUSH1 0x1 DUP3 ADD PUSH1 0x0 SWAP1 SLOAD SWAP1 PUSH2 0x100 EXP SWAP1 DIV PUSH1 0xFF AND PUSH1 0xFF AND PUSH1 0xFF AND DUP2 MSTORE PUSH1 0x20 ADD PUSH1 0x1 DUP3 ADD PUSH1 0x1 SWAP1 SLOAD SWAP1 PUSH2 0x100 EXP SWAP1 DIV PUSH1 0xFF AND PUSH1 0xFF AND PUSH1 0xFF AND DUP2 MSTORE PUSH1 0x20 ADD PUSH1 0x1 DUP3 ADD PUSH1 0x2 SWAP1 SLOAD SWAP1 PUSH2 0x100 EXP SWAP1 DIV PUSH1 0xFF AND PUSH1 0xFF AND PUSH1 0xFF AND DUP2 MSTORE PUSH1 0x20 ADD PUSH1 0x2 DUP3 ADD DUP1 SLOAD PUSH2 0x1105 SWAP1 PUSH2 0x57D9 JUMP JUMPDEST DUP1 PUSH1 0x1F ADD PUSH1 0x20 DUP1 SWAP2 DIV MUL PUSH1 0x20 ADD PUSH1 0x40 MLOAD SWAP1 DUP2 ADD PUSH1 0x40 MSTORE DUP1 SWAP3 SWAP2 SWAP1 DUP2 DUP2 MSTORE PUSH1 0x20 ADD DUP3 DUP1 SLOAD PUSH2 0x1131 SWAP1 PUSH2 0x57D9 JUMP JUMPDEST DUP1 ISZERO PUSH2 0x117E JUMPI DUP1 PUSH1 0x1F LT PUSH2 0x1153 JUMPI PUSH2 0x100 DUP1 DUP4 SLOAD DIV MUL DUP4 MSTORE SWAP2 PUSH1 0x20 ADD SWAP2 PUSH2 0x117E JUMP JUMPDEST DUP3 ADD SWAP2 SWAP1 PUSH1 0x0 MSTORE PUSH1 0x20 PUSH1 0x0 KECCAK256 SWAP1 JUMPDEST DUP2 SLOAD DUP2 MSTORE SWAP1 PUSH1 0x1 ADD SWAP1 PUSH1 0x20 ADD DUP1 DUP4 GT PUSH2 0x1161 JUMPI DUP3 SWAP1 SUB PUSH1 0x1F AND DUP3 ADD SWAP2 JUMPDEST POP POP POP POP POP DUP2 MSTORE PUSH1 0x20 ADD PUSH1 0x3 DUP3 ADD PUSH1 0x0 SWAP1 SLOAD SWAP1 PUSH2 0x100 EXP SWAP1 DIV PUSH1 0xFF AND ISZERO ISZERO ISZERO ISZERO DUP2 MSTORE PUSH1 0x20 ADD PUSH1 0x4 DUP3 ADD SLOAD DUP2 MSTORE PUSH1 0x20 ADD PUSH1 0x5 DUP3 ADD PUSH1 0x0 SWAP1 SLOAD SWAP1 PUSH2 0x100 EXP SWAP1 DIV PUSH20 0xFFFFFFFFFFFFFFFFFFFFFFFFFFFFFFFFFFFFFFFF AND PUSH20 0xFFFFFFFFFFFFFFFFFFFFFFFFFFFFFFFFFFFFFFFF AND PUSH20 0xFFFFFFFFFFFFFFFFFFFFFFFFFFFFFFFFFFFFFFFF AND DUP2 MSTORE POP POP DUP6 DUP6 DUP2 MLOAD DUP2 LT PUSH2 0x1215 JUMPI PUSH2 0x1214 PUSH2 0x5876 JUMP JUMPDEST JUMPDEST PUSH1 0x20 MUL PUSH1 0x20 ADD ADD DUP2 SWAP1 MSTORE POP DUP4 DUP1 PUSH2 0x122B SWAP1 PUSH2 0x58D4 JUMP JUMPDEST SWAP5 POP POP JUMPDEST DUP1 DUP1 PUSH2 0x123A SWAP1 PUSH2 0x58D4 JUMP JUMPDEST SWAP2 POP POP PUSH2 0x103D JUMP JUMPDEST POP POP JUMPDEST DUP1 DUP1 PUSH1 0x1 ADD SWAP2 POP POP PUSH2 0xFEE JUMP JUMPDEST POP DUP2 SWAP4 POP POP POP POP SWAP1 JUMP JUMPDEST PUSH1 0x2 DUP1 DUP2 GT ISZERO PUSH2 0x126F JUMPI PUSH2 0x126E PUSH2 0x538C JUMP JUMPDEST JUMPDEST PUSH1 0x1 PUSH1 0x0 CALLER PUSH20 0xFFFFFFFFFFFFFFFFFFFFFFFFFFFFFFFFFFFFFFFF AND PUSH20 0xFFFFFFFFFFFFFFFFFFFFFFFFFFFFFFFFFFFFFFFF AND DUP2 MSTORE PUSH1 0x20 ADD SWAP1 DUP2 MSTORE PUSH1 0x20 ADD PUSH1 0x0 KECCAK256 PUSH1 0x0 ADD PUSH1 0x14 SWAP1 SLOAD SWAP1 PUSH2 0x100 EXP SWAP1 DIV PUSH1 0xFF AND PUSH1 0x2 DUP2 GT ISZERO PUSH2 0x12D1 JUMPI PUSH2 0x12D0 PUSH2 0x538C JUMP JUMPDEST JUMPDEST EQ PUSH2 0x1311 JUMPI PUSH1 0x40 MLOAD PUSH32 0x8C379A000000000000000000000000000000000000000000000000000000000 DUP2 MSTORE PUSH1 0x4 ADD PUSH2 0x1308 SWAP1 PUSH2 0x5C45 JUMP JUMPDEST PUSH1 0x40 MLOAD DUP1 SWAP2 SUB SWAP1 REVERT JUMPDEST PUSH1 0x4 SLOAD DUP4 LT PUSH2 0x1355 JUMPI PUSH1 0x40 MLOAD PUSH32 0x8C379A000000000000000000000000000000000000000000000000000000000 DUP2 MSTORE PUSH1 0x4 ADD PUSH2 0x134C SWAP1 PUSH2 0x5856 JUMP JUMPDEST PUSH1 0x40 MLOAD DUP1 SWAP2 SUB SWAP1 REVERT JUMPDEST PUSH1 0x0 DUP1 DUP5 DUP2 MSTORE PUSH1 0x20 ADD SWAP1 DUP2 MSTORE PUSH1 0x20 ADD PUSH1 0x0 KECCAK256 PUSH1 0x4 ADD PUSH1 0x0 SWAP1 SLOAD SWAP1 PUSH2 0x100 EXP SWAP1 DIV PUSH1 0xFF AND PUSH2 0x13B7 JUMPI PUSH1 0x40 MLOAD PUSH32 0x8C379A000000000000000000000000000000000000000000000000000000000 DUP2 MSTORE PUSH1 0x4 ADD PUSH2 0x13AE SWAP1 PUSH2 0x598E JUMP JUMPDEST PUSH1 0x40 MLOAD DUP1 SWAP2 SUB SWAP1 REVERT JUMPDEST PUSH1 0x0 DUP1 DUP5 DUP2 MSTORE PUSH1 0x20 ADD SWAP1 DUP2 MSTORE PUSH1 0x20 ADD PUSH1 0x0 KECCAK256 PUSH1 0x5 ADD SLOAD DUP3 GT ISZERO PUSH2 0x140F JUMPI PUSH1 0x40 MLOAD PUSH32 0x8C379A000000000000000000000000000000000000000000000000000000000 DUP2 MSTORE PUSH1 0x4 ADD PUSH2 0x1406 SWAP1 PUSH2 0x59FA JUMP JUMPDEST PUSH1 0x40 MLOAD DUP1 SWAP2 SUB SWAP1 REVERT JUMPDEST PUSH1 0x1 PUSH1 0x0 DUP3 PUSH20 0xFFFFFFFFFFFFFFFFFFFFFFFFFFFFFFFFFFFFFFFF AND PUSH20 0xFFFFFFFFFFFFFFFFFFFFFFFFFFFFFFFFFFFFFFFF AND DUP2 MSTORE PUSH1 0x20 ADD SWAP1 DUP2 MSTORE PUSH1 0x20 ADD PUSH1 0x0 KECCAK256 PUSH1 0x0 ADD PUSH1 0x15 SWAP1 SLOAD SWAP1 PUSH2 0x100 EXP SWAP1 DIV PUSH1 0xFF AND PUSH2 0x149E JUMPI PUSH1 0x40 MLOAD PUSH32 0x8C379A000000000000000000000000000000000000000000000000000000000 DUP2 MSTORE PUSH1 0x4 ADD PUSH2 0x1495 SWAP1 PUSH2 0x5CB1 JUMP JUMPDEST PUSH1 0x40 MLOAD DUP1 SWAP2 SUB SWAP1 REVERT JUMPDEST PUSH1 0x1 PUSH1 0x2 DUP2 GT ISZERO PUSH2 0x14B2 JUMPI PUSH2 0x14B1 PUSH2 0x538C JUMP JUMPDEST JUMPDEST PUSH1 0x1 PUSH1 0x0 DUP4 PUSH20 0xFFFFFFFFFFFFFFFFFFFFFFFFFFFFFFFFFFFFFFFF AND PUSH20 0xFFFFFFFFFFFFFFFFFFFFFFFFFFFFFFFFFFFFFFFF AND DUP2 MSTORE PUSH1 0x20 ADD SWAP1 DUP2 MSTORE PUSH1 0x20 ADD PUSH1 0x0 KECCAK256 PUSH1 0x0 ADD PUSH1 0x14 SWAP1 SLOAD SWAP1 PUSH2 0x100 EXP SWAP1 DIV PUSH1 0xFF AND PUSH1 0x2 DUP2 GT ISZERO PUSH2 0x1514 JUMPI PUSH2 0x1513 PUSH2 0x538C JUMP JUMPDEST JUMPDEST EQ PUSH2 0x1554 JUMPI PUSH1 0x40 MLOAD PUSH32 0x8C379A000000000000000000000000000000000000000000000000000000000 DUP2 MSTORE PUSH1 0x4 ADD PUSH2 0x154B SWAP1 PUSH2 0x5D43 JUMP JUMPDEST PUSH1 0x40 MLOAD DUP1 SWAP2 SUB SWAP1 REVERT JUMPDEST PUSH1 0x0 DUP1 PUSH1 0x0 DUP6 DUP2 MSTORE PUSH1 0x20 ADD SWAP1 DUP2 MSTORE PUSH1 0x20 ADD PUSH1 0x0 KECCAK256 PUSH1 0x7 ADD PUSH1 0x0 DUP5 DUP2 MSTORE PUSH1 0x20 ADD SWAP1 DUP2 MSTORE PUSH1 0x20 ADD PUSH1 0x0 KECCAK256 SWAP1 POP DUP1 PUSH1 0x3 ADD PUSH1 0x0 SWAP1 SLOAD SWAP1 PUSH2 0x100 EXP SWAP1 DIV PUSH1 0xFF AND PUSH2 0x15CF JUMPI PUSH1 0x40 MLOAD PUSH32 0x8C379A000000000000000000000000000000000000000000000000000000000 DUP2 MSTORE PUSH1 0x4 ADD PUSH2 0x15C6 SWAP1 PUSH2 0x5B8A JUMP JUMPDEST PUSH1 0x40 MLOAD DUP1 SWAP2 SUB SWAP1 REVERT JUMPDEST DUP2 DUP2 PUSH1 0x5 ADD PUSH1 0x0 PUSH2 0x100 EXP DUP2 SLOAD DUP2 PUSH20 0xFFFFFFFFFFFFFFFFFFFFFFFFFFFFFFFFFFFFFFFF MUL NOT AND SWAP1 DUP4 PUSH20 0xFFFFFFFFFFFFFFFFFFFFFFFFFFFFFFFFFFFFFFFF AND MUL OR SWAP1 SSTORE POP PUSH1 0x0 JUMPDEST PUSH1 0x5 SLOAD DUP2 LT ISZERO PUSH2 0x16A3 JUMPI DUP4 PUSH1 0x2 PUSH1 0x0 DUP4 DUP2 MSTORE PUSH1 0x20 ADD SWAP1 DUP2 MSTORE PUSH1 0x20 ADD PUSH1 0x0 KECCAK256 PUSH1 0x0 ADD SLOAD SUB PUSH2 0x1696 JUMPI DUP3 PUSH1 0x2 PUSH1 0x0 DUP4 DUP2 MSTORE PUSH1 0x20 ADD SWAP1 DUP2 MSTORE PUSH1 0x20 ADD PUSH1 0x0 KECCAK256 PUSH1 0x5 ADD PUSH1 0x0 PUSH2 0x100 EXP DUP2 SLOAD DUP2 PUSH20 0xFFFFFFFFFFFFFFFFFFFFFFFFFFFFFFFFFFFFFFFF MUL NOT AND SWAP1 DUP4 PUSH20 0xFFFFFFFFFFFFFFFFFFFFFFFFFFFFFFFFFFFFFFFF AND MUL OR SWAP1 SSTORE POP PUSH2 0x16A3 JUMP JUMPDEST DUP1 DUP1 PUSH1 0x1 ADD SWAP2 POP POP PUSH2 0x1615 JUMP JUMPDEST POP PUSH32 0x6A9BDBE78C097D179E13E8451AC044B23E4A80386FDE775D802424D5B0E1FFB9 DUP4 DUP4 PUSH1 0x40 MLOAD PUSH2 0x16D5 SWAP3 SWAP2 SWAP1 PUSH2 0x5D63 JUMP JUMPDEST PUSH1 0x40 MLOAD DUP1 SWAP2 SUB SWAP1 LOG1 POP POP POP POP JUMP JUMPDEST PUSH1 0x60 PUSH1 0x1 PUSH1 0x0 DUP4 PUSH20 0xFFFFFFFFFFFFFFFFFFFFFFFFFFFFFFFFFFFFFFFF AND PUSH20 0xFFFFFFFFFFFFFFFFFFFFFFFFFFFFFFFFFFFFFFFF AND DUP2 MSTORE PUSH1 0x20 ADD SWAP1 DUP2 MSTORE PUSH1 0x20 ADD PUSH1 0x0 KECCAK256 PUSH1 0x0 ADD PUSH1 0x15 SWAP1 SLOAD SWAP1 PUSH2 0x100 EXP SWAP1 DIV PUSH1 0xFF AND PUSH2 0x1774 JUMPI PUSH1 0x40 MLOAD PUSH32 0x8C379A000000000000000000000000000000000000000000000000000000000 DUP2 MSTORE PUSH1 0x4 ADD PUSH2 0x176B SWAP1 PUSH2 0x5DD8 JUMP JUMPDEST PUSH1 0x40 MLOAD DUP1 SWAP2 SUB SWAP1 REVERT JUMPDEST PUSH1 0x1 PUSH1 0x2 DUP2 GT ISZERO PUSH2 0x1788 JUMPI PUSH2 0x1787 PUSH2 0x538C JUMP JUMPDEST JUMPDEST PUSH1 0x1 PUSH1 0x0 DUP5 PUSH20 0xFFFFFFFFFFFFFFFFFFFFFFFFFFFFFFFFFFFFFFFF AND PUSH20 0xFFFFFFFFFFFFFFFFFFFFFFFFFFFFFFFFFFFFFFFF AND DUP2 MSTORE PUSH1 0x20 ADD SWAP1 DUP2 MSTORE PUSH1 0x20 ADD PUSH1 0x0 KECCAK256 PUSH1 0x0 ADD PUSH1 0x14 SWAP1 SLOAD SWAP1 PUSH2 0x100 EXP SWAP1 DIV PUSH1 0xFF AND PUSH1 0x2 DUP2 GT ISZERO PUSH2 0x17EA JUMPI PUSH2 0x17E9 PUSH2 0x538C JUMP JUMPDEST JUMPDEST EQ PUSH2 0x182A JUMPI PUSH1 0x40 MLOAD PUSH32 0x8C379A000000000000000000000000000000000000000000000000000000000 DUP2 MSTORE PUSH1 0x4 ADD PUSH2 0x1821 SWAP1 PUSH2 0x5E44 JUMP JUMPDEST PUSH1 0x40 MLOAD DUP1 SWAP2 SUB SWAP1 REVERT JUMPDEST PUSH1 0x0 DUP1 JUMPDEST PUSH1 0x5 SLOAD DUP2 LT ISZERO PUSH2 0x18EA JUMPI PUSH1 0x2 PUSH1 0x0 DUP3 DUP2 MSTORE PUSH1 0x20 ADD SWAP1 DUP2 MSTORE PUSH1 0x20 ADD PUSH1 0x0 KECCAK256 PUSH1 0x3 ADD PUSH1 0x0 SWAP1 SLOAD SWAP1 PUSH2 0x100 EXP SWAP1 DIV PUSH1 0xFF AND DUP1 ISZERO PUSH2 0x18C9 JUMPI POP DUP4 PUSH20 0xFFFFFFFFFFFFFFFFFFFFFFFFFFFFFFFFFFFFFFFF AND PUSH1 0x2 PUSH1 0x0 DUP4 DUP2 MSTORE PUSH1 0x20 ADD SWAP1 DUP2 MSTORE PUSH1 0x20 ADD PUSH1 0x0 KECCAK256 PUSH1 0x5 ADD PUSH1 0x0 SWAP1 SLOAD SWAP1 PUSH2 0x100 EXP SWAP1 DIV PUSH20 0xFFFFFFFFFFFFFFFFFFFFFFFFFFFFFFFFFFFFFFFF AND PUSH20 0xFFFFFFFFFFFFFFFFFFFFFFFFFFFFFFFFFFFFFFFF AND EQ JUMPDEST ISZERO PUSH2 0x18DD JUMPI DUP2 DUP1 PUSH2 0x18D9 SWAP1 PUSH2 0x58D4 JUMP JUMPDEST SWAP3 POP POP JUMPDEST DUP1 DUP1 PUSH1 0x1 ADD SWAP2 POP POP PUSH2 0x182E JUMP JUMPDEST POP PUSH1 0x0 DUP2 PUSH8 0xFFFFFFFFFFFFFFFF DUP2 GT ISZERO PUSH2 0x1907 JUMPI PUSH2 0x1906 PUSH2 0x51C2 JUMP JUMPDEST JUMPDEST PUSH1 0x40 MLOAD SWAP1 DUP1 DUP3 MSTORE DUP1 PUSH1 0x20 MUL PUSH1 0x20 ADD DUP3 ADD PUSH1 0x40 MSTORE DUP1 ISZERO PUSH2 0x1940 JUMPI DUP2 PUSH1 0x20 ADD JUMPDEST PUSH2 0x192D PUSH2 0x4951 JUMP JUMPDEST DUP2 MSTORE PUSH1 0x20 ADD SWAP1 PUSH1 0x1 SWAP1 SUB SWAP1 DUP2 PUSH2 0x1925 JUMPI SWAP1 POP JUMPDEST POP SWAP1 POP PUSH1 0x0 DUP1 JUMPDEST PUSH1 0x5 SLOAD DUP2 LT ISZERO PUSH2 0x1BAE JUMPI PUSH1 0x2 PUSH1 0x0 DUP3 DUP2 MSTORE PUSH1 0x20 ADD SWAP1 DUP2 MSTORE PUSH1 0x20 ADD PUSH1 0x0 KECCAK256 PUSH1 0x3 ADD PUSH1 0x0 SWAP1 SLOAD SWAP1 PUSH2 0x100 EXP SWAP1 DIV PUSH1 0xFF AND DUP1 ISZERO PUSH2 0x19E2 JUMPI POP DUP6 PUSH20 0xFFFFFFFFFFFFFFFFFFFFFFFFFFFFFFFFFFFFFFFF AND PUSH1 0x2 PUSH1 0x0 DUP4 DUP2 MSTORE PUSH1 0x20 ADD SWAP1 DUP2 MSTORE PUSH1 0x20 ADD PUSH1 0x0 KECCAK256 PUSH1 0x5 ADD PUSH1 0x0 SWAP1 SLOAD SWAP1 PUSH2 0x100 EXP SWAP1 DIV PUSH20 0xFFFFFFFFFFFFFFFFFFFFFFFFFFFFFFFFFFFFFFFF AND PUSH20 0xFFFFFFFFFFFFFFFFFFFFFFFFFFFFFFFFFFFFFFFF AND EQ JUMPDEST ISZERO PUSH2 0x1BA1 JUMPI PUSH1 0x2 PUSH1 0x0 DUP3 DUP2 MSTORE PUSH1 0x20 ADD SWAP1 DUP2 MSTORE PUSH1 0x20 ADD PUSH1 0x0 KECCAK256 PUSH1 0x40 MLOAD DUP1 PUSH2 0x100 ADD PUSH1 0x40 MSTORE SWAP1 DUP2 PUSH1 0x0 DUP3 ADD SLOAD DUP2 MSTORE PUSH1 0x20 ADD PUSH1 0x1 DUP3 ADD PUSH1 0x0 SWAP1 SLOAD SWAP1 PUSH2 0x100 EXP SWAP1 DIV PUSH1 0xFF AND PUSH1 0xFF AND PUSH1 0xFF AND DUP2 MSTORE PUSH1 0x20 ADD PUSH1 0x1 DUP3 ADD PUSH1 0x1 SWAP1 SLOAD SWAP1 PUSH2 0x100 EXP SWAP1 DIV PUSH1 0xFF AND PUSH1 0xFF AND PUSH1 0xFF AND DUP2 MSTORE PUSH1 0x20 ADD PUSH1 0x1 DUP3 ADD PUSH1 0x2 SWAP1 SLOAD SWAP1 PUSH2 0x100 EXP SWAP1 DIV PUSH1 0xFF AND PUSH1 0xFF AND PUSH1 0xFF AND DUP2 MSTORE PUSH1 0x20 ADD PUSH1 0x2 DUP3 ADD DUP1 SLOAD PUSH2 0x1A77 SWAP1 PUSH2 0x57D9 JUMP JUMPDEST DUP1 PUSH1 0x1F ADD PUSH1 0x20 DUP1 SWAP2 DIV MUL PUSH1 0x20 ADD PUSH1 0x40 MLOAD SWAP1 DUP2 ADD PUSH1 0x40 MSTORE DUP1 SWAP3 SWAP2 SWAP1 DUP2 DUP2 MSTORE PUSH1 0x20 ADD DUP3 DUP1 SLOAD PUSH2 0x1AA3 SWAP1 PUSH2 0x57D9 JUMP JUMPDEST DUP1 ISZERO PUSH2 0x1AF0 JUMPI DUP1 PUSH1 0x1F LT PUSH2 0x1AC5 JUMPI PUSH2 0x100 DUP1 DUP4 SLOAD DIV MUL DUP4 MSTORE SWAP2 PUSH1 0x20 ADD SWAP2 PUSH2 0x1AF0 JUMP JUMPDEST DUP3 ADD SWAP2 SWAP1 PUSH1 0x0 MSTORE PUSH1 0x20 PUSH1 0x0 KECCAK256 SWAP1 JUMPDEST DUP2 SLOAD DUP2 MSTORE SWAP1 PUSH1 0x1 ADD SWAP1 PUSH1 0x20 ADD DUP1 DUP4 GT PUSH2 0x1AD3 JUMPI DUP3 SWAP1 SUB PUSH1 0x1F AND DUP3 ADD SWAP2 JUMPDEST POP POP POP POP POP DUP2 MSTORE PUSH1 0x20 ADD PUSH1 0x3 DUP3 ADD PUSH1 0x0 SWAP1 SLOAD SWAP1 PUSH2 0x100 EXP SWAP1 DIV PUSH1 0xFF AND ISZERO ISZERO ISZERO ISZERO DUP2 MSTORE PUSH1 0x20 ADD PUSH1 0x4 DUP3 ADD SLOAD DUP2 MSTORE PUSH1 0x20 ADD PUSH1 0x5 DUP3 ADD PUSH1 0x0 SWAP1 SLOAD SWAP1 PUSH2 0x100 EXP SWAP1 DIV PUSH20 0xFFFFFFFFFFFFFFFFFFFFFFFFFFFFFFFFFFFFFFFF AND PUSH20 0xFFFFFFFFFFFFFFFFFFFFFFFFFFFFFFFFFFFFFFFF AND PUSH20 0xFFFFFFFFFFFFFFFFFFFFFFFFFFFFFFFFFFFFFFFF AND DUP2 MSTORE POP POP DUP4 DUP4 DUP2 MLOAD DUP2 LT PUSH2 0x1B87 JUMPI PUSH2 0x1B86 PUSH2 0x5876 JUMP JUMPDEST JUMPDEST PUSH1 0x20 MUL PUSH1 0x20 ADD ADD DUP2 SWAP1 MSTORE POP DUP2 DUP1 PUSH2 0x1B9D SWAP1 PUSH2 0x58D4 JUMP JUMPDEST SWAP3 POP POP JUMPDEST DUP1 DUP1 PUSH1 0x1 ADD SWAP2 POP POP PUSH2 0x1947 JUMP JUMPDEST POP DUP2 SWAP4 POP POP POP POP SWAP2 SWAP1 POP JUMP JUMPDEST PUSH1 0x4 SLOAD DUP8 LT PUSH2 0x1BFE JUMPI PUSH1 0x40 MLOAD PUSH32 0x8C379A000000000000000000000000000000000000000000000000000000000 DUP2 MSTORE PUSH1 0x4 ADD PUSH2 0x1BF5 SWAP1 PUSH2 0x5856 JUMP JUMPDEST PUSH1 0x40 MLOAD DUP1 SWAP2 SUB SWAP1 REVERT JUMPDEST PUSH1 0x0 DUP1 DUP9 DUP2 MSTORE PUSH1 0x20 ADD SWAP1 DUP2 MSTORE PUSH1 0x20 ADD PUSH1 0x0 KECCAK256 PUSH1 0x4 ADD PUSH1 0x0 SWAP1 SLOAD SWAP1 PUSH2 0x100 EXP SWAP1 DIV PUSH1 0xFF AND PUSH2 0x1C60 JUMPI PUSH1 0x40 MLOAD PUSH32 0x8C379A000000000000000000000000000000000000000000000000000000000 DUP2 MSTORE PUSH1 0x4 ADD PUSH2 0x1C57 SWAP1 PUSH2 0x598E JUMP JUMPDEST PUSH1 0x40 MLOAD DUP1 SWAP2 SUB SWAP1 REVERT JUMPDEST PUSH1 0x0 DUP1 DUP9 DUP2 MSTORE PUSH1 0x20 ADD SWAP1 DUP2 MSTORE PUSH1 0x20 ADD PUSH1 0x0 KECCAK256 PUSH1 0x5 ADD SLOAD DUP7 GT ISZERO PUSH2 0x1CB8 JUMPI PUSH1 0x40 MLOAD PUSH32 0x8C379A000000000000000000000000000000000000000000000000000000000 DUP2 MSTORE PUSH1 0x4 ADD PUSH2 0x1CAF SWAP1 PUSH2 0x59FA JUMP JUMPDEST PUSH1 0x40 MLOAD DUP1 SWAP2 SUB SWAP1 REVERT JUMPDEST PUSH1 0x1 DUP6 PUSH1 0xFF AND LT ISZERO DUP1 ISZERO PUSH2 0x1CD0 JUMPI POP PUSH1 0x7 DUP6 PUSH1 0xFF AND GT ISZERO JUMPDEST PUSH2 0x1D0F JUMPI PUSH1 0x40 MLOAD PUSH32 0x8C379A000000000000000000000000000000000000000000000000000000000 DUP2 MSTORE PUSH1 0x4 ADD PUSH2 0x1D06 SWAP1 PUSH2 0x5EB0 JUMP JUMPDEST PUSH1 0x40 MLOAD DUP1 SWAP2 SUB SWAP1 REVERT JUMPDEST PUSH1 0x18 DUP5 PUSH1 0xFF AND LT DUP1 ISZERO PUSH2 0x1D25 JUMPI POP PUSH1 0x18 DUP4 PUSH1 0xFF AND LT JUMPDEST DUP1 ISZERO PUSH2 0x1D36 JUMPI POP DUP3 PUSH1 0xFF AND DUP5 PUSH1 0xFF AND LT JUMPDEST PUSH2 0x1D75 JUMPI PUSH1 0x40 MLOAD PUSH32 0x8C379A000000000000000000000000000000000000000000000000000000000 DUP2 MSTORE PUSH1 0x4 ADD PUSH2 0x1D6C SWAP1 PUSH2 0x5F1C JUMP JUMPDEST PUSH1 0x40 MLOAD DUP1 SWAP2 SUB SWAP1 REVERT JUMPDEST PUSH1 0x6 SLOAD DUP3 LT PUSH2 0x1DB9 JUMPI PUSH1 0x40 MLOAD PUSH32 0x8C379A000000000000000000000000000000000000000000000000000000000 DUP2 MSTORE PUSH1 0x4 ADD PUSH2 0x1DB0 SWAP1 PUSH2 0x5A66 JUMP JUMPDEST PUSH1 0x40 MLOAD DUP1 SWAP2 SUB SWAP1 REVERT JUMPDEST PUSH1 0x3 PUSH1 0x0 DUP4 DUP2 MSTORE PUSH1 0x20 ADD SWAP1 DUP2 MSTORE PUSH1 0x20 ADD PUSH1 0x0 KECCAK256 PUSH1 0x4 ADD PUSH1 0x0 SWAP1 SLOAD SWAP1 PUSH2 0x100 EXP SWAP1 DIV PUSH1 0xFF AND PUSH2 0x1E1C JUMPI PUSH1 0x40 MLOAD PUSH32 0x8C379A000000000000000000000000000000000000000000000000000000000 DUP2 MSTORE PUSH1 0x4 ADD PUSH2 0x1E13 SWAP1 PUSH2 0x5AF8 JUMP JUMPDEST PUSH1 0x40 MLOAD DUP1 SWAP2 SUB SWAP1 REVERT JUMPDEST PUSH1 0x0 PUSH20 0xFFFFFFFFFFFFFFFFFFFFFFFFFFFFFFFFFFFFFFFF AND DUP2 PUSH20 0xFFFFFFFFFFFFFFFFFFFFFFFFFFFFFFFFFFFFFFFF AND EQ PUSH2 0x1F96 JUMPI PUSH1 0x1 PUSH1 0x0 DUP3 PUSH20 0xFFFFFFFFFFFFFFFFFFFFFFFFFFFFFFFFFFFFFFFF AND PUSH20 0xFFFFFFFFFFFFFFFFFFFFFFFFFFFFFFFFFFFFFFFF AND DUP2 MSTORE PUSH1 0x20 ADD SWAP1 DUP2 MSTORE PUSH1 0x20 ADD PUSH1 0x0 KECCAK256 PUSH1 0x0 ADD PUSH1 0x15 SWAP1 SLOAD SWAP1 PUSH2 0x100 EXP SWAP1 DIV PUSH1 0xFF AND PUSH2 0x1EDF JUMPI PUSH1 0x40 MLOAD PUSH32 0x8C379A000000000000000000000000000000000000000000000000000000000 DUP2 MSTORE PUSH1 0x4 ADD PUSH2 0x1ED6 SWAP1 PUSH2 0x5CB1 JUMP JUMPDEST PUSH1 0x40 MLOAD DUP1 SWAP2 SUB SWAP1 REVERT JUMPDEST PUSH1 0x1 PUSH1 0x2 DUP2 GT ISZERO PUSH2 0x1EF3 JUMPI PUSH2 0x1EF2 PUSH2 0x538C JUMP JUMPDEST JUMPDEST PUSH1 0x1 PUSH1 0x0 DUP4 PUSH20 0xFFFFFFFFFFFFFFFFFFFFFFFFFFFFFFFFFFFFFFFF AND PUSH20 0xFFFFFFFFFFFFFFFFFFFFFFFFFFFFFFFFFFFFFFFF AND DUP2 MSTORE PUSH1 0x20 ADD SWAP1 DUP2 MSTORE PUSH1 0x20 ADD PUSH1 0x0 KECCAK256 PUSH1 0x0 ADD PUSH1 0x14 SWAP1 SLOAD SWAP1 PUSH2 0x100 EXP SWAP1 DIV PUSH1 0xFF AND PUSH1 0x2 DUP2 GT ISZERO PUSH2 0x1F55 JUMPI PUSH2 0x1F54 PUSH2 0x538C JUMP JUMPDEST JUMPDEST EQ PUSH2 0x1F95 JUMPI PUSH1 0x40 MLOAD PUSH32 0x8C379A000000000000000000000000000000000000000000000000000000000 DUP2 MSTORE PUSH1 0x4 ADD PUSH2 0x1F8C SWAP1 PUSH2 0x5D43 JUMP JUMPDEST PUSH1 0x40 MLOAD DUP1 SWAP2 SUB SWAP1 REVERT JUMPDEST JUMPDEST PUSH1 0x0 DUP1 PUSH1 0x0 DUP10 DUP2 MSTORE PUSH1 0x20 ADD SWAP1 DUP2 MSTORE PUSH1 0x20 ADD PUSH1 0x0 KECCAK256 PUSH1 0x7 ADD PUSH1 0x0 DUP9 DUP2 MSTORE PUSH1 0x20 ADD SWAP1 DUP2 MSTORE PUSH1 0x20 ADD PUSH1 0x0 KECCAK256 SWAP1 POP DUP1 PUSH1 0x3 ADD PUSH1 0x0 SWAP1 SLOAD SWAP1 PUSH2 0x100 EXP SWAP1 DIV PUSH1 0xFF AND PUSH2 0x2011 JUMPI PUSH1 0x40 MLOAD PUSH32 0x8C379A000000000000000000000000000000000000000000000000000000000 DUP2 MSTORE PUSH1 0x4 ADD PUSH2 0x2008 SWAP1 PUSH2 0x5B8A JUMP JUMPDEST PUSH1 0x40 MLOAD DUP1 SWAP2 SUB SWAP1 REVERT JUMPDEST DUP6 DUP2 PUSH1 0x1 ADD PUSH1 0x0 PUSH2 0x100 EXP DUP2 SLOAD DUP2 PUSH1 0xFF MUL NOT AND SWAP1 DUP4 PUSH1 0xFF AND MUL OR SWAP1 SSTORE POP DUP5 DUP2 PUSH1 0x1 ADD PUSH1 0x1 PUSH2 0x100 EXP DUP2 SLOAD DUP2 PUSH1 0xFF MUL NOT AND SWAP1 DUP4 PUSH1 0xFF AND MUL OR SWAP1 SSTORE POP DUP4 DUP2 PUSH1 0x1 ADD PUSH1 0x2 PUSH2 0x100 EXP DUP2 SLOAD DUP2 PUSH1 0xFF MUL NOT AND SWAP1 DUP4 PUSH1 0xFF AND MUL OR SWAP1 SSTORE POP DUP3 DUP2 PUSH1 0x4 ADD DUP2 SWAP1 SSTORE POP DUP1 PUSH1 0x5 ADD PUSH1 0x0 SWAP1 SLOAD SWAP1 PUSH2 0x100 EXP SWAP1 DIV PUSH20 0xFFFFFFFFFFFFFFFFFFFFFFFFFFFFFFFFFFFFFFFF AND PUSH20 0xFFFFFFFFFFFFFFFFFFFFFFFFFFFFFFFFFFFFFFFF AND DUP3 PUSH20 0xFFFFFFFFFFFFFFFFFFFFFFFFFFFFFFFFFFFFFFFF AND EQ PUSH2 0x2145 JUMPI DUP2 DUP2 PUSH1 0x5 ADD PUSH1 0x0 PUSH2 0x100 EXP DUP2 SLOAD DUP2 PUSH20 0xFFFFFFFFFFFFFFFFFFFFFFFFFFFFFFFFFFFFFFFF MUL NOT AND SWAP1 DUP4 PUSH20 0xFFFFFFFFFFFFFFFFFFFFFFFFFFFFFFFFFFFFFFFF AND MUL OR SWAP1 SSTORE POP PUSH32 0x6A9BDBE78C097D179E13E8451AC044B23E4A80386FDE775D802424D5B0E1FFB9 DUP8 DUP4 PUSH1 0x40 MLOAD PUSH2 0x213C SWAP3 SWAP2 SWAP1 PUSH2 0x5D63 JUMP JUMPDEST PUSH1 0x40 MLOAD DUP1 SWAP2 SUB SWAP1 LOG1 JUMPDEST PUSH32 0x29558593F0B584FA97B5489122CAB9FC63AA0424B99F2B9CE433CFB20A73CD70 DUP9 DUP9 DUP9 DUP9 DUP9 PUSH1 0x40 MLOAD PUSH2 0x217C SWAP6 SWAP5 SWAP4 SWAP3 SWAP2 SWAP1 PUSH2 0x5F3C JUMP JUMPDEST PUSH1 0x40 MLOAD DUP1 SWAP2 SUB SWAP1 LOG1 PUSH32 0xA6513A9BBA35746DACD52AC5046464ECC24F542AA1B1A92CEFF55438CDB0A76B DUP8 DUP5 PUSH1 0x40 MLOAD PUSH2 0x21B5 SWAP3 SWAP2 SWAP1 PUSH2 0x5BAA JUMP JUMPDEST PUSH1 0x40 MLOAD DUP1 SWAP2 SUB SWAP1 LOG1 POP POP POP POP POP POP POP POP JUMP JUMPDEST PUSH1 0x60 PUSH1 0x1 PUSH1 0x0 DUP4 PUSH20 0xFFFFFFFFFFFFFFFFFFFFFFFFFFFFFFFFFFFFFFFF AND PUSH20 0xFFFFFFFFFFFFFFFFFFFFFFFFFFFFFFFFFFFFFFFF AND DUP2 MSTORE PUSH1 0x20 ADD SWAP1 DUP2 MSTORE PUSH1 0x20 ADD PUSH1 0x0 KECCAK256 PUSH1 0x0 ADD PUSH1 0x15 SWAP1 SLOAD SWAP1 PUSH2 0x100 EXP SWAP1 DIV PUSH1 0xFF AND PUSH2 0x2258 JUMPI PUSH1 0x40 MLOAD PUSH32 0x8C379A000000000000000000000000000000000000000000000000000000000 DUP2 MSTORE PUSH1 0x4 ADD PUSH2 0x224F SWAP1 PUSH2 0x5DD8 JUMP JUMPDEST PUSH1 0x40 MLOAD DUP1 SWAP2 SUB SWAP1 REVERT JUMPDEST PUSH1 0x1 PUSH1 0x2 DUP2 GT ISZERO PUSH2 0x226C JUMPI PUSH2 0x226B PUSH2 0x538C JUMP JUMPDEST JUMPDEST PUSH1 0x1 PUSH1 0x0 DUP5 PUSH20 0xFFFFFFFFFFFFFFFFFFFFFFFFFFFFFFFFFFFFFFFF AND PUSH20 0xFFFFFFFFFFFFFFFFFFFFFFFFFFFFFFFFFFFFFFFF AND DUP2 MSTORE PUSH1 0x20 ADD SWAP1 DUP2 MSTORE PUSH1 0x20 ADD PUSH1 0x0 KECCAK256 PUSH1 0x0 ADD PUSH1 0x14 SWAP1 SLOAD SWAP1 PUSH2 0x100 EXP SWAP1 DIV PUSH1 0xFF AND PUSH1 0x2 DUP2 GT ISZERO PUSH2 0x22CE JUMPI PUSH2 0x22CD PUSH2 0x538C JUMP JUMPDEST JUMPDEST EQ PUSH2 0x230E JUMPI PUSH1 0x40 MLOAD PUSH32 0x8C379A000000000000000000000000000000000000000000000000000000000 DUP2 MSTORE PUSH1 0x4 ADD PUSH2 0x2305 SWAP1 PUSH2 0x5E44 JUMP JUMPDEST PUSH1 0x40 MLOAD DUP1 SWAP2 SUB SWAP1 REVERT JUMPDEST PUSH1 0x0 PUSH1 0x4 SLOAD PUSH8 0xFFFFFFFFFFFFFFFF DUP2 GT ISZERO PUSH2 0x232C JUMPI PUSH2 0x232B PUSH2 0x51C2 JUMP JUMPDEST JUMPDEST PUSH1 0x40 MLOAD SWAP1 DUP1 DUP3 MSTORE DUP1 PUSH1 0x20 MUL PUSH1 0x20 ADD DUP3 ADD PUSH1 0x40 MSTORE DUP1 ISZERO PUSH2 0x235A JUMPI DUP2 PUSH1 0x20 ADD PUSH1 0x20 DUP3 MUL DUP1 CALLDATASIZE DUP4 CALLDATACOPY DUP1 DUP3 ADD SWAP2 POP POP SWAP1 POP JUMPDEST POP SWAP1 POP PUSH1 0x0 DUP1 JUMPDEST PUSH1 0x4 SLOAD DUP2 LT ISZERO PUSH2 0x24D5 JUMPI PUSH1 0x0 DUP1 DUP3 DUP2 MSTORE PUSH1 0x20 ADD SWAP1 DUP2 MSTORE PUSH1 0x20 ADD PUSH1 0x0 KECCAK256 PUSH1 0x4 ADD PUSH1 0x0 SWAP1 SLOAD SWAP1 PUSH2 0x100 EXP SWAP1 DIV PUSH1 0xFF AND ISZERO PUSH2 0x24C8 JUMPI PUSH1 0x0 DUP1 PUSH1 0x1 SWAP1 POP JUMPDEST PUSH1 0x0 DUP1 DUP5 DUP2 MSTORE PUSH1 0x20 ADD SWAP1 DUP2 MSTORE PUSH1 0x20 ADD PUSH1 0x0 KECCAK256 PUSH1 0x5 ADD SLOAD DUP2 GT ISZERO DUP1 ISZERO PUSH2 0x23BE JUMPI POP DUP2 ISZERO JUMPDEST ISZERO PUSH2 0x24C5 JUMPI PUSH1 0x0 DUP1 DUP5 DUP2 MSTORE PUSH1 0x20 ADD SWAP1 DUP2 MSTORE PUSH1 0x20 ADD PUSH1 0x0 KECCAK256 PUSH1 0x7 ADD PUSH1 0x0 DUP3 DUP2 MSTORE PUSH1 0x20 ADD SWAP1 DUP2 MSTORE PUSH1 0x20 ADD PUSH1 0x0 KECCAK256 PUSH1 0x3 ADD PUSH1 0x0 SWAP1 SLOAD SWAP1 PUSH2 0x100 EXP SWAP1 DIV PUSH1 0xFF AND DUP1 ISZERO PUSH2 0x247A JUMPI POP DUP7 PUSH20 0xFFFFFFFFFFFFFFFFFFFFFFFFFFFFFFFFFFFFFFFF AND PUSH1 0x0 DUP1 DUP6 DUP2 MSTORE PUSH1 0x20 ADD SWAP1 DUP2 MSTORE PUSH1 0x20 ADD PUSH1 0x0 KECCAK256 PUSH1 0x7 ADD PUSH1 0x0 DUP4 DUP2 MSTORE PUSH1 0x20 ADD SWAP1 DUP2 MSTORE PUSH1 0x20 ADD PUSH1 0x0 KECCAK256 PUSH1 0x5 ADD PUSH1 0x0 SWAP1 SLOAD SWAP1 PUSH2 0x100 EXP SWAP1 DIV PUSH20 0xFFFFFFFFFFFFFFFFFFFFFFFFFFFFFFFFFFFFFFFF AND PUSH20 0xFFFFFFFFFFFFFFFFFFFFFFFFFFFFFFFFFFFFFFFF AND EQ JUMPDEST ISZERO PUSH2 0x24B2 JUMPI DUP3 DUP6 DUP6 DUP2 MLOAD DUP2 LT PUSH2 0x2493 JUMPI PUSH2 0x2492 PUSH2 0x5876 JUMP JUMPDEST JUMPDEST PUSH1 0x20 MUL PUSH1 0x20 ADD ADD DUP2 DUP2 MSTORE POP POP DUP4 DUP1 PUSH2 0x24AA SWAP1 PUSH2 0x58D4 JUMP JUMPDEST SWAP5 POP POP PUSH1 0x1 SWAP2 POP JUMPDEST DUP1 DUP1 PUSH2 0x24BD SWAP1 PUSH2 0x58D4 JUMP JUMPDEST SWAP2 POP POP PUSH2 0x239B JUMP JUMPDEST POP POP JUMPDEST DUP1 DUP1 PUSH1 0x1 ADD SWAP2 POP POP PUSH2 0x2361 JUMP JUMPDEST POP PUSH1 0x0 DUP2 PUSH8 0xFFFFFFFFFFFFFFFF DUP2 GT ISZERO PUSH2 0x24F2 JUMPI PUSH2 0x24F1 PUSH2 0x51C2 JUMP JUMPDEST JUMPDEST PUSH1 0x40 MLOAD SWAP1 DUP1 DUP3 MSTORE DUP1 PUSH1 0x20 MUL PUSH1 0x20 ADD DUP3 ADD PUSH1 0x40 MSTORE DUP1 ISZERO PUSH2 0x2520 JUMPI DUP2 PUSH1 0x20 ADD PUSH1 0x20 DUP3 MUL DUP1 CALLDATASIZE DUP4 CALLDATACOPY DUP1 DUP3 ADD SWAP2 POP POP SWAP1 POP JUMPDEST POP SWAP1 POP PUSH1 0x0 JUMPDEST DUP3 DUP2 LT ISZERO PUSH2 0x2575 JUMPI DUP4 DUP2 DUP2 MLOAD DUP2 LT PUSH2 0x2541 JUMPI PUSH2 0x2540 PUSH2 0x5876 JUMP JUMPDEST JUMPDEST PUSH1 0x20 MUL PUSH1 0x20 ADD ADD MLOAD DUP3 DUP3 DUP2 MLOAD DUP2 LT PUSH2 0x255C JUMPI PUSH2 0x255B PUSH2 0x5876 JUMP JUMPDEST JUMPDEST PUSH1 0x20 MUL PUSH1 0x20 ADD ADD DUP2 DUP2 MSTORE POP POP DUP1 DUP1 PUSH1 0x1 ADD SWAP2 POP POP PUSH2 0x2526 JUMP JUMPDEST POP DUP1 SWAP4 POP POP POP POP SWAP2 SWAP1 POP JUMP JUMPDEST PUSH1 0x6 SLOAD DUP2 JUMP JUMPDEST PUSH1 0x2 DUP1 DUP2 GT ISZERO PUSH2 0x259A JUMPI PUSH2 0x2599 PUSH2 0x538C JUMP JUMPDEST JUMPDEST PUSH1 0x1 PUSH1 0x0 CALLER PUSH20 0xFFFFFFFFFFFFFFFFFFFFFFFFFFFFFFFFFFFFFFFF AND PUSH20 0xFFFFFFFFFFFFFFFFFFFFFFFFFFFFFFFFFFFFFFFF AND DUP2 MSTORE PUSH1 0x20 ADD SWAP1 DUP2 MSTORE PUSH1 0x20 ADD PUSH1 0x0 KECCAK256 PUSH1 0x0 ADD PUSH1 0x14 SWAP1 SLOAD SWAP1 PUSH2 0x100 EXP SWAP1 DIV PUSH1 0xFF AND PUSH1 0x2 DUP2 GT ISZERO PUSH2 0x25FC JUMPI PUSH2 0x25FB PUSH2 0x538C JUMP JUMPDEST JUMPDEST EQ PUSH2 0x263C JUMPI PUSH1 0x40 MLOAD PUSH32 0x8C379A000000000000000000000000000000000000000000000000000000000 DUP2 MSTORE PUSH1 0x4 ADD PUSH2 0x2633 SWAP1 PUSH2 0x6001 JUMP JUMPDEST PUSH1 0x40 MLOAD DUP1 SWAP2 SUB SWAP1 REVERT JUMPDEST PUSH1 0x6 SLOAD DUP5 LT PUSH2 0x2680 JUMPI PUSH1 0x40 MLOAD PUSH32 0x8C379A000000000000000000000000000000000000000000000000000000000 DUP2 MSTORE PUSH1 0x4 ADD PUSH2 0x2677 SWAP1 PUSH2 0x5A66 JUMP JUMPDEST PUSH1 0x40 MLOAD DUP1 SWAP2 SUB SWAP1 REVERT JUMPDEST PUSH1 0x3 PUSH1 0x0 DUP6 DUP2 MSTORE PUSH1 0x20 ADD SWAP1 DUP2 MSTORE PUSH1 0x20 ADD PUSH1 0x0 KECCAK256 PUSH1 0x4 ADD PUSH1 0x0 SWAP1 SLOAD SWAP1 PUSH2 0x100 EXP SWAP1 DIV PUSH1 0xFF AND PUSH2 0x26E3 JUMPI PUSH1 0x40 MLOAD PUSH32 0x8C379A000000000000000000000000000000000000000000000000000000000 DUP2 MSTORE PUSH1 0x4 ADD PUSH2 0x26DA SWAP1 PUSH2 0x5AF8 JUMP JUMPDEST PUSH1 0x40 MLOAD DUP1 SWAP2 SUB SWAP1 REVERT JUMPDEST PUSH1 0x0 PUSH1 0x3 PUSH1 0x0 DUP7 DUP2 MSTORE PUSH1 0x20 ADD SWAP1 DUP2 MSTORE PUSH1 0x20 ADD PUSH1 0x0 KECCAK256 SWAP1 POP DUP4 DUP2 PUSH1 0x1 ADD SWAP1 DUP2 PUSH2 0x270B SWAP2 SWAP1 PUSH2 0x61CD JUMP JUMPDEST POP DUP3 DUP2 PUSH1 0x2 ADD SWAP1 DUP2 PUSH2 0x271D SWAP2 SWAP1 PUSH2 0x61CD JUMP JUMPDEST POP DUP2 DUP2 PUSH1 0x3 ADD DUP2 SWAP1 SSTORE POP PUSH32 0xE8D83B4D126E406C5F52EC2794AED6541667952FF7C14C1FAD713823A5CD9BC7 DUP6 DUP6 PUSH1 0x40 MLOAD PUSH2 0x2758 SWAP3 SWAP2 SWAP1 PUSH2 0x629F JUMP JUMPDEST PUSH1 0x40 MLOAD DUP1 SWAP2 SUB SWAP1 LOG1 POP POP POP POP POP JUMP JUMPDEST PUSH2 0x276F PUSH2 0x49B7 JUMP JUMPDEST PUSH1 0x1 PUSH1 0x0 DUP4 PUSH20 0xFFFFFFFFFFFFFFFFFFFFFFFFFFFFFFFFFFFFFFFF AND PUSH20 0xFFFFFFFFFFFFFFFFFFFFFFFFFFFFFFFFFFFFFFFF AND DUP2 MSTORE PUSH1 0x20 ADD SWAP1 DUP2 MSTORE PUSH1 0x20 ADD PUSH1 0x0 KECCAK256 PUSH1 0x0 ADD PUSH1 0x15 SWAP1 SLOAD SWAP1 PUSH2 0x100 EXP SWAP1 DIV PUSH1 0xFF AND PUSH2 0x27FE JUMPI PUSH1 0x40 MLOAD PUSH32 0x8C379A000000000000000000000000000000000000000000000000000000000 DUP2 MSTORE PUSH1 0x4 ADD PUSH2 0x27F5 SWAP1 PUSH2 0x631B JUMP JUMPDEST PUSH1 0x40 MLOAD DUP1 SWAP2 SUB SWAP1 REVERT JUMPDEST PUSH1 0x0 PUSH1 0x1 PUSH1 0x0 DUP5 PUSH20 0xFFFFFFFFFFFFFFFFFFFFFFFFFFFFFFFFFFFFFFFF AND PUSH20 0xFFFFFFFFFFFFFFFFFFFFFFFFFFFFFFFFFFFFFFFF AND DUP2 MSTORE PUSH1 0x20 ADD SWAP1 DUP2 MSTORE PUSH1 0x20 ADD PUSH1 0x0 KECCAK256 PUSH1 0x40 MLOAD DUP1 PUSH1 0x60 ADD PUSH1 0x40 MSTORE SWAP1 DUP2 PUSH1 0x0 DUP3 ADD PUSH1 0x0 SWAP1 SLOAD SWAP1 PUSH2 0x100 EXP SWAP1 DIV PUSH20 0xFFFFFFFFFFFFFFFFFFFFFFFFFFFFFFFFFFFFFFFF AND PUSH20 0xFFFFFFFFFFFFFFFFFFFFFFFFFFFFFFFFFFFFFFFF AND PUSH20 0xFFFFFFFFFFFFFFFFFFFFFFFFFFFFFFFFFFFFFFFF AND DUP2 MSTORE PUSH1 0x20 ADD PUSH1 0x0 DUP3 ADD PUSH1 0x14 SWAP1 SLOAD SWAP1 PUSH2 0x100 EXP SWAP1 DIV PUSH1 0xFF AND PUSH1 0x2 DUP2 GT ISZERO PUSH2 0x28C5 JUMPI PUSH2 0x28C4 PUSH2 0x538C JUMP JUMPDEST JUMPDEST PUSH1 0x2 DUP2 GT ISZERO PUSH2 0x28D7 JUMPI PUSH2 0x28D6 PUSH2 0x538C JUMP JUMPDEST JUMPDEST DUP2 MSTORE PUSH1 0x20 ADD PUSH1 0x0 DUP3 ADD PUSH1 0x15 SWAP1 SLOAD SWAP1 PUSH2 0x100 EXP SWAP1 DIV PUSH1 0xFF AND ISZERO ISZERO ISZERO ISZERO DUP2 MSTORE POP POP SWAP1 POP DUP1 SWAP2 POP POP SWAP2 SWAP1 POP JUMP JUMPDEST PUSH1 0x2 DUP1 DUP2 GT ISZERO PUSH2 0x2914 JUMPI PUSH2 0x2913 PUSH2 0x538C JUMP JUMPDEST JUMPDEST PUSH1 0x1 PUSH1 0x0 CALLER PUSH20 0xFFFFFFFFFFFFFFFFFFFFFFFFFFFFFFFFFFFFFFFF AND PUSH20 0xFFFFFFFFFFFFFFFFFFFFFFFFFFFFFFFFFFFFFFFF AND DUP2 MSTORE PUSH1 0x20 ADD SWAP1 DUP2 MSTORE PUSH1 0x20 ADD PUSH1 0x0 KECCAK256 PUSH1 0x0 ADD PUSH1 0x14 SWAP1 SLOAD SWAP1 PUSH2 0x100 EXP SWAP1 DIV PUSH1 0xFF AND PUSH1 0x2 DUP2 GT ISZERO PUSH2 0x2976 JUMPI PUSH2 0x2975 PUSH2 0x538C JUMP JUMPDEST JUMPDEST EQ PUSH2 0x29B6 JUMPI PUSH1 0x40 MLOAD PUSH32 0x8C379A000000000000000000000000000000000000000000000000000000000 DUP2 MSTORE PUSH1 0x4 ADD PUSH2 0x29AD SWAP1 PUSH2 0x63AD JUMP JUMPDEST PUSH1 0x40 MLOAD DUP1 SWAP2 SUB SWAP1 REVERT JUMPDEST PUSH1 0x6 SLOAD DUP2 LT PUSH2 0x29FA JUMPI PUSH1 0x40 MLOAD PUSH32 0x8C379A000000000000000000000000000000000000000000000000000000000 DUP2 MSTORE PUSH1 0x4 ADD PUSH2 0x29F1 SWAP1 PUSH2 0x5A66 JUMP JUMPDEST PUSH1 0x40 MLOAD DUP1 SWAP2 SUB SWAP1 REVERT JUMPDEST PUSH1 0x3 PUSH1 0x0 DUP3 DUP2 MSTORE PUSH1 0x20 ADD SWAP1 DUP2 MSTORE PUSH1 0x20 ADD PUSH1 0x0 KECCAK256 PUSH1 0x4 ADD PUSH1 0x0 SWAP1 SLOAD SWAP1 PUSH2 0x100 EXP SWAP1 DIV PUSH1 0xFF AND PUSH2 0x2A5D JUMPI PUSH1 0x40 MLOAD PUSH32 0x8C379A000000000000000000000000000000000000000000000000000000000 DUP2 MSTORE PUSH1 0x4 ADD PUSH2 0x2A54 SWAP1 PUSH2 0x5AF8 JUMP JUMPDEST PUSH1 0x40 MLOAD DUP1 SWAP2 SUB SWAP1 REVERT JUMPDEST PUSH1 0x0 PUSH1 0x3 PUSH1 0x0 DUP4 DUP2 MSTORE PUSH1 0x20 ADD SWAP1 DUP2 MSTORE PUSH1 0x20 ADD PUSH1 0x0 KECCAK256 PUSH1 0x4 ADD PUSH1 0x0 PUSH2 0x100 EXP DUP2 SLOAD DUP2 PUSH1 0xFF MUL NOT AND SWAP1 DUP4 ISZERO ISZERO MUL OR SWAP1 SSTORE POP PUSH32 0xB36C3B7DF89F39C0AF42CD89A8107DA757D131F043249AC34ADA80F2DE24C74E DUP2 PUSH1 0x40 MLOAD PUSH2 0x2ABB SWAP2 SWAP1 PUSH2 0x519D JUMP JUMPDEST PUSH1 0x40 MLOAD DUP1 SWAP2 SUB SWAP1 LOG1 POP JUMP JUMPDEST PUSH1 0x0 DUP1 PUSH1 0x0 DUP1 PUSH1 0x60 PUSH1 0x0 DUP1 PUSH1 0x0 PUSH1 0x5 SLOAD DUP10 LT PUSH2 0x2B17 JUMPI PUSH1 0x40 MLOAD PUSH32 0x8C379A000000000000000000000000000000000000000000000000000000000 DUP2 MSTORE PUSH1 0x4 ADD PUSH2 0x2B0E SWAP1 PUSH2 0x59FA JUMP JUMPDEST PUSH1 0x40 MLOAD DUP1 SWAP2 SUB SWAP1 REVERT JUMPDEST PUSH1 0x0 PUSH1 0x2 PUSH1 0x0 DUP12 DUP2 MSTORE PUSH1 0x20 ADD SWAP1 DUP2 MSTORE PUSH1 0x20 ADD PUSH1 0x0 KECCAK256 SWAP1 POP DUP1 PUSH1 0x0 ADD SLOAD DUP2 PUSH1 0x1 ADD PUSH1 0x0 SWAP1 SLOAD SWAP1 PUSH2 0x100 EXP SWAP1 DIV PUSH1 0xFF AND DUP3 PUSH1 0x1 ADD PUSH1 0x1 SWAP1 SLOAD SWAP1 PUSH2 0x100 EXP SWAP1 DIV PUSH1 0xFF AND DUP4 PUSH1 0x1 ADD PUSH1 0x2 SWAP1 SLOAD SWAP1 PUSH2 0x100 EXP SWAP1 DIV PUSH1 0xFF AND DUP5 PUSH1 0x2 ADD DUP6 PUSH1 0x3 ADD PUSH1 0x0 SWAP1 SLOAD SWAP1 PUSH2 0x100 EXP SWAP1 DIV PUSH1 0xFF AND DUP7 PUSH1 0x4 ADD SLOAD DUP8 PUSH1 0x5 ADD PUSH1 0x0 SWAP1 SLOAD SWAP1 PUSH2 0x100 EXP SWAP1 DIV PUSH20 0xFFFFFFFFFFFFFFFFFFFFFFFFFFFFFFFFFFFFFFFF AND DUP4 DUP1 SLOAD PUSH2 0x2BB5 SWAP1 PUSH2 0x57D9 JUMP JUMPDEST DUP1 PUSH1 0x1F ADD PUSH1 0x20 DUP1 SWAP2 DIV MUL PUSH1 0x20 ADD PUSH1 0x40 MLOAD SWAP1 DUP2 ADD PUSH1 0x40 MSTORE DUP1 SWAP3 SWAP2 SWAP1 DUP2 DUP2 MSTORE PUSH1 0x20 ADD DUP3 DUP1 SLOAD PUSH2 0x2BE1 SWAP1 PUSH2 0x57D9 JUMP JUMPDEST DUP1 ISZERO PUSH2 0x2C2E JUMPI DUP1 PUSH1 0x1F LT PUSH2 0x2C03 JUMPI PUSH2 0x100 DUP1 DUP4 SLOAD DIV MUL DUP4 MSTORE SWAP2 PUSH1 0x20 ADD SWAP2 PUSH2 0x2C2E JUMP JUMPDEST DUP3 ADD SWAP2 SWAP1 PUSH1 0x0 MSTORE PUSH1 0x20 PUSH1 0x0 KECCAK256 SWAP1 JUMPDEST DUP2 SLOAD DUP2 MSTORE SWAP1 PUSH1 0x1 ADD SWAP1 PUSH1 0x20 ADD DUP1 DUP4 GT PUSH2 0x2C11 JUMPI DUP3 SWAP1 SUB PUSH1 0x1F AND DUP3 ADD SWAP2 JUMPDEST POP POP POP POP POP SWAP4 POP SWAP9 POP SWAP9 POP SWAP9 POP SWAP9 POP SWAP9 POP SWAP9 POP SWAP9 POP SWAP9 POP POP SWAP2 SWAP4 SWAP6 SWAP8 POP SWAP2 SWAP4 SWAP6 SWAP8 JUMP JUMPDEST PUSH1 0x60 PUSH1 0x1 PUSH1 0x0 CALLER PUSH20 0xFFFFFFFFFFFFFFFFFFFFFFFFFFFFFFFFFFFFFFFF AND PUSH20 0xFFFFFFFFFFFFFFFFFFFFFFFFFFFFFFFFFFFFFFFF AND DUP2 MSTORE PUSH1 0x20 ADD SWAP1 DUP2 MSTORE PUSH1 0x20 ADD PUSH1 0x0 KECCAK256 PUSH1 0x0 ADD PUSH1 0x15 SWAP1 SLOAD SWAP1 PUSH2 0x100 EXP SWAP1 DIV PUSH1 0xFF AND PUSH2 0x2CE2 JUMPI PUSH1 0x40 MLOAD PUSH32 0x8C379A000000000000000000000000000000000000000000000000000000000 DUP2 MSTORE PUSH1 0x4 ADD PUSH2 0x2CD9 SWAP1 PUSH2 0x631B JUMP JUMPDEST PUSH1 0x40 MLOAD DUP1 SWAP2 SUB SWAP1 REVERT JUMPDEST PUSH1 0x0 PUSH1 0x2 DUP2 GT ISZERO PUSH2 0x2CF6 JUMPI PUSH2 0x2CF5 PUSH2 0x538C JUMP JUMPDEST JUMPDEST PUSH1 0x1 PUSH1 0x0 CALLER PUSH20 0xFFFFFFFFFFFFFFFFFFFFFFFFFFFFFFFFFFFFFFFF AND PUSH20 0xFFFFFFFFFFFFFFFFFFFFFFFFFFFFFFFFFFFFFFFF AND DUP2 MSTORE PUSH1 0x20 ADD SWAP1 DUP2 MSTORE PUSH1 0x20 ADD PUSH1 0x0 KECCAK256 PUSH1 0x0 ADD PUSH1 0x14 SWAP1 SLOAD SWAP1 PUSH2 0x100 EXP SWAP1 DIV PUSH1 0xFF AND PUSH1 0x2 DUP2 GT ISZERO PUSH2 0x2D58 JUMPI PUSH2 0x2D57 PUSH2 0x538C JUMP JUMPDEST JUMPDEST EQ PUSH2 0x2D98 JUMPI PUSH1 0x40 MLOAD PUSH32 0x8C379A000000000000000000000000000000000000000000000000000000000 DUP2 MSTORE PUSH1 0x4 ADD PUSH2 0x2D8F SWAP1 PUSH2 0x643F JUMP JUMPDEST PUSH1 0x40 MLOAD DUP1 SWAP2 SUB SWAP1 REVERT JUMPDEST PUSH1 0x0 PUSH1 0x4 SLOAD PUSH8 0xFFFFFFFFFFFFFFFF DUP2 GT ISZERO PUSH2 0x2DB6 JUMPI PUSH2 0x2DB5 PUSH2 0x51C2 JUMP JUMPDEST JUMPDEST PUSH1 0x40 MLOAD SWAP1 DUP1 DUP3 MSTORE DUP1 PUSH1 0x20 MUL PUSH1 0x20 ADD DUP3 ADD PUSH1 0x40 MSTORE DUP1 ISZERO PUSH2 0x2DE4 JUMPI DUP2 PUSH1 0x20 ADD PUSH1 0x20 DUP3 MUL DUP1 CALLDATASIZE DUP4 CALLDATACOPY DUP1 DUP3 ADD SWAP2 POP POP SWAP1 POP JUMPDEST POP SWAP1 POP PUSH1 0x0 DUP1 JUMPDEST PUSH1 0x4 SLOAD DUP2 LT ISZERO PUSH2 0x2EDF JUMPI PUSH1 0x0 DUP1 PUSH1 0x0 DUP4 DUP2 MSTORE PUSH1 0x20 ADD SWAP1 DUP2 MSTORE PUSH1 0x20 ADD PUSH1 0x0 KECCAK256 SWAP1 POP PUSH1 0x0 JUMPDEST DUP2 PUSH1 0x6 ADD DUP1 SLOAD SWAP1 POP DUP2 LT ISZERO PUSH2 0x2ED0 JUMPI CALLER PUSH20 0xFFFFFFFFFFFFFFFFFFFFFFFFFFFFFFFFFFFFFFFF AND DUP3 PUSH1 0x6 ADD DUP3 DUP2 SLOAD DUP2 LT PUSH2 0x2E4A JUMPI PUSH2 0x2E49 PUSH2 0x5876 JUMP JUMPDEST JUMPDEST SWAP1 PUSH1 0x0 MSTORE PUSH1 0x20 PUSH1 0x0 KECCAK256 ADD PUSH1 0x0 SWAP1 SLOAD SWAP1 PUSH2 0x100 EXP SWAP1 DIV PUSH20 0xFFFFFFFFFFFFFFFFFFFFFFFFFFFFFFFFFFFFFFFF AND PUSH20 0xFFFFFFFFFFFFFFFFFFFFFFFFFFFFFFFFFFFFFFFF AND SUB PUSH2 0x2EC3 JUMPI DUP3 DUP6 DUP6 DUP2 MLOAD DUP2 LT PUSH2 0x2EA4 JUMPI PUSH2 0x2EA3 PUSH2 0x5876 JUMP JUMPDEST JUMPDEST PUSH1 0x20 MUL PUSH1 0x20 ADD ADD DUP2 DUP2 MSTORE POP POP DUP4 DUP1 PUSH2 0x2EBB SWAP1 PUSH2 0x58D4 JUMP JUMPDEST SWAP5 POP POP PUSH2 0x2ED0 JUMP JUMPDEST DUP1 DUP1 PUSH1 0x1 ADD SWAP2 POP POP PUSH2 0x2E0E JUMP JUMPDEST POP POP DUP1 DUP1 PUSH1 0x1 ADD SWAP2 POP POP PUSH2 0x2DEB JUMP JUMPDEST POP PUSH1 0x0 DUP2 PUSH8 0xFFFFFFFFFFFFFFFF DUP2 GT ISZERO PUSH2 0x2EFC JUMPI PUSH2 0x2EFB PUSH2 0x51C2 JUMP JUMPDEST JUMPDEST PUSH1 0x40 MLOAD SWAP1 DUP1 DUP3 MSTORE DUP1 PUSH1 0x20 MUL PUSH1 0x20 ADD DUP3 ADD PUSH1 0x40 MSTORE DUP1 ISZERO PUSH2 0x2F2A JUMPI DUP2 PUSH1 0x20 ADD PUSH1 0x20 DUP3 MUL DUP1 CALLDATASIZE DUP4 CALLDATACOPY DUP1 DUP3 ADD SWAP2 POP POP SWAP1 POP JUMPDEST POP SWAP1 POP PUSH1 0x0 JUMPDEST DUP3 DUP2 LT ISZERO PUSH2 0x2F7F JUMPI DUP4 DUP2 DUP2 MLOAD DUP2 LT PUSH2 0x2F4B JUMPI PUSH2 0x2F4A PUSH2 0x5876 JUMP JUMPDEST JUMPDEST PUSH1 0x20 MUL PUSH1 0x20 ADD ADD MLOAD DUP3 DUP3 DUP2 MLOAD DUP2 LT PUSH2 0x2F66 JUMPI PUSH2 0x2F65 PUSH2 0x5876 JUMP JUMPDEST JUMPDEST PUSH1 0x20 MUL PUSH1 0x20 ADD ADD DUP2 DUP2 MSTORE POP POP DUP1 DUP1 PUSH1 0x1 ADD SWAP2 POP POP PUSH2 0x2F30 JUMP JUMPDEST POP DUP1 SWAP4 POP POP POP POP SWAP1 JUMP JUMPDEST PUSH1 0x4 SLOAD DUP2 JUMP JUMPDEST PUSH1 0x4 SLOAD DUP5 LT PUSH2 0x2FD3 JUMPI PUSH1 0x40 MLOAD PUSH32 0x8C379A000000000000000000000000000000000000000000000000000000000 DUP2 MSTORE PUSH1 0x4 ADD PUSH2 0x2FCA SWAP1 PUSH2 0x5856 JUMP JUMPDEST PUSH1 0x40 MLOAD DUP1 SWAP2 SUB SWAP1 REVERT JUMPDEST PUSH1 0x0 DUP1 DUP6 DUP2 MSTORE PUSH1 0x20 ADD SWAP1 DUP2 MSTORE PUSH1 0x20 ADD PUSH1 0x0 KECCAK256 PUSH1 0x4 ADD PUSH1 0x0 SWAP1 SLOAD SWAP1 PUSH2 0x100 EXP SWAP1 DIV PUSH1 0xFF AND PUSH2 0x3035 JUMPI PUSH1 0x40 MLOAD PUSH32 0x8C379A000000000000000000000000000000000000000000000000000000000 DUP2 MSTORE PUSH1 0x4 ADD PUSH2 0x302C SWAP1 PUSH2 0x598E JUMP JUMPDEST PUSH1 0x40 MLOAD DUP1 SWAP2 SUB SWAP1 REVERT JUMPDEST PUSH1 0x0 DUP1 PUSH1 0x0 DUP7 DUP2 MSTORE PUSH1 0x20 ADD SWAP1 DUP2 MSTORE PUSH1 0x20 ADD PUSH1 0x0 KECCAK256 SWAP1 POP DUP4 DUP2 PUSH1 0x1 ADD SWAP1 DUP2 PUSH2 0x305C SWAP2 SWAP1 PUSH2 0x61CD JUMP JUMPDEST POP DUP3 DUP2 PUSH1 0x2 ADD SWAP1 DUP2 PUSH2 0x306E SWAP2 SWAP1 PUSH2 0x61CD JUMP JUMPDEST POP DUP2 DUP2 PUSH1 0x3 ADD DUP2 SWAP1 SSTORE POP PUSH32 0x61F1B503285F2BAF5AE0EC7BE5C9605A293C9D47BDAF9BDB36FC15C570615FE6 DUP6 DUP6 PUSH1 0x40 MLOAD PUSH2 0x30A9 SWAP3 SWAP2 SWAP1 PUSH2 0x629F JUMP JUMPDEST PUSH1 0x40 MLOAD DUP1 SWAP2 SUB SWAP1 LOG1 POP POP POP POP POP JUMP JUMPDEST PUSH1 0x5 SLOAD DUP2 JUMP JUMPDEST PUSH1 0x0 PUSH1 0x20 MSTORE DUP1 PUSH1 0x0 MSTORE PUSH1 0x40 PUSH1 0x0 KECCAK256 PUSH1 0x0 SWAP2 POP SWAP1 POP DUP1 PUSH1 0x0 ADD SLOAD SWAP1 DUP1 PUSH1 0x1 ADD DUP1 SLOAD PUSH2 0x30E7 SWAP1 PUSH2 0x57D9 JUMP JUMPDEST DUP1 PUSH1 0x1F ADD PUSH1 0x20 DUP1 SWAP2 DIV MUL PUSH1 0x20 ADD PUSH1 0x40 MLOAD SWAP1 DUP2 ADD PUSH1 0x40 MSTORE DUP1 SWAP3 SWAP2 SWAP1 DUP2 DUP2 MSTORE PUSH1 0x20 ADD DUP3 DUP1 SLOAD PUSH2 0x3113 SWAP1 PUSH2 0x57D9 JUMP JUMPDEST DUP1 ISZERO PUSH2 0x3160 JUMPI DUP1 PUSH1 0x1F LT PUSH2 0x3135 JUMPI PUSH2 0x100 DUP1 DUP4 SLOAD DIV MUL DUP4 MSTORE SWAP2 PUSH1 0x20 ADD SWAP2 PUSH2 0x3160 JUMP JUMPDEST DUP3 ADD SWAP2 SWAP1 PUSH1 0x0 MSTORE PUSH1 0x20 PUSH1 0x0 KECCAK256 SWAP1 JUMPDEST DUP2 SLOAD DUP2 MSTORE SWAP1 PUSH1 0x1 ADD SWAP1 PUSH1 0x20 ADD DUP1 DUP4 GT PUSH2 0x3143 JUMPI DUP3 SWAP1 SUB PUSH1 0x1F AND DUP3 ADD SWAP2 JUMPDEST POP POP POP POP POP SWAP1 DUP1 PUSH1 0x2 ADD DUP1 SLOAD PUSH2 0x3175 SWAP1 PUSH2 0x57D9 JUMP JUMPDEST DUP1 PUSH1 0x1F ADD PUSH1 0x20 DUP1 SWAP2 DIV MUL PUSH1 0x20 ADD PUSH1 0x40 MLOAD SWAP1 DUP2 ADD PUSH1 0x40 MSTORE DUP1 SWAP3 SWAP2 SWAP1 DUP2 DUP2 MSTORE PUSH1 0x20 ADD DUP3 DUP1 SLOAD PUSH2 0x31A1 SWAP1 PUSH2 0x57D9 JUMP JUMPDEST DUP1 ISZERO PUSH2 0x31EE JUMPI DUP1 PUSH1 0x1F LT PUSH2 0x31C3 JUMPI PUSH2 0x100 DUP1 DUP4 SLOAD DIV MUL DUP4 MSTORE SWAP2 PUSH1 0x20 ADD SWAP2 PUSH2 0x31EE JUMP JUMPDEST DUP3 ADD SWAP2 SWAP1 PUSH1 0x0 MSTORE PUSH1 0x20 PUSH1 0x0 KECCAK256 SWAP1 JUMPDEST DUP2 SLOAD DUP2 MSTORE SWAP1 PUSH1 0x1 ADD SWAP1 PUSH1 0x20 ADD DUP1 DUP4 GT PUSH2 0x31D1 JUMPI DUP3 SWAP1 SUB PUSH1 0x1F AND DUP3 ADD SWAP2 JUMPDEST POP POP POP POP POP SWAP1 DUP1 PUSH1 0x3 ADD SLOAD SWAP1 DUP1 PUSH1 0x4 ADD PUSH1 0x0 SWAP1 SLOAD SWAP1 PUSH2 0x100 EXP SWAP1 DIV PUSH1 0xFF AND SWAP1 DUP1 PUSH1 0x5 ADD SLOAD SWAP1 POP DUP7 JUMP JUMPDEST PUSH1 0x4 SLOAD DUP2 LT PUSH2 0x325B JUMPI PUSH1 0x40 MLOAD PUSH32 0x8C379A000000000000000000000000000000000000000000000000000000000 DUP2 MSTORE PUSH1 0x4 ADD PUSH2 0x3252 SWAP1 PUSH2 0x5856 JUMP JUMPDEST PUSH1 0x40 MLOAD DUP1 SWAP2 SUB SWAP1 REVERT JUMPDEST PUSH1 0x0 DUP1 DUP3 DUP2 MSTORE PUSH1 0x20 ADD SWAP1 DUP2 MSTORE PUSH1 0x20 ADD PUSH1 0x0 KECCAK256 PUSH1 0x4 ADD PUSH1 0x0 SWAP1 SLOAD SWAP1 PUSH2 0x100 EXP SWAP1 DIV PUSH1 0xFF AND PUSH2 0x32BD JUMPI PUSH1 0x40 MLOAD PUSH32 0x8C379A000000000000000000000000000000000000000000000000000000000 DUP2 MSTORE PUSH1 0x4 ADD PUSH2 0x32B4 SWAP1 PUSH2 0x598E JUMP JUMPDEST PUSH1 0x40 MLOAD DUP1 SWAP2 SUB SWAP1 REVERT JUMPDEST PUSH1 0x0 DUP1 PUSH1 0x0 DUP4 DUP2 MSTORE PUSH1 0x20 ADD SWAP1 DUP2 MSTORE PUSH1 0x20 ADD PUSH1 0x0 KECCAK256 PUSH1 0x4 ADD PUSH1 0x0 PUSH2 0x100 EXP DUP2 SLOAD DUP2 PUSH1 0xFF MUL NOT AND SWAP1 DUP4 ISZERO ISZERO MUL OR SWAP1 SSTORE POP PUSH32 0x39EEDA956A5B638CCE21D44FEB4E3279509FBAF8FB7776431F55F57A0CD21537 DUP2 PUSH1 0x40 MLOAD PUSH2 0x331A SWAP2 SWAP1 PUSH2 0x519D JUMP JUMPDEST PUSH1 0x40 MLOAD DUP1 SWAP2 SUB SWAP1 LOG1 POP JUMP JUMPDEST PUSH1 0x1 PUSH1 0x0 DUP4 PUSH20 0xFFFFFFFFFFFFFFFFFFFFFFFFFFFFFFFFFFFFFFFF AND PUSH20 0xFFFFFFFFFFFFFFFFFFFFFFFFFFFFFFFFFFFFFFFF AND DUP2 MSTORE PUSH1 0x20 ADD SWAP1 DUP2 MSTORE PUSH1 0x20 ADD PUSH1 0x0 KECCAK256 PUSH1 0x0 ADD PUSH1 0x15 SWAP1 SLOAD SWAP1 PUSH2 0x100 EXP SWAP1 DIV PUSH1 0xFF AND ISZERO PUSH2 0x33B5 JUMPI PUSH1 0x40 MLOAD PUSH32 0x8C379A000000000000000000000000000000000000000000000000000000000 DUP2 MSTORE PUSH1 0x4 ADD PUSH2 0x33AC SWAP1 PUSH2 0x64AB JUMP JUMPDEST PUSH1 0x40 MLOAD DUP1 SWAP2 SUB SWAP1 REVERT JUMPDEST PUSH1 0x0 PUSH1 0x1 PUSH1 0x0 DUP5 PUSH20 0xFFFFFFFFFFFFFFFFFFFFFFFFFFFFFFFFFFFFFFFF AND PUSH20 0xFFFFFFFFFFFFFFFFFFFFFFFFFFFFFFFFFFFFFFFF AND DUP2 MSTORE PUSH1 0x20 ADD SWAP1 DUP2 MSTORE PUSH1 0x20 ADD PUSH1 0x0 KECCAK256 SWAP1 POP DUP3 DUP2 PUSH1 0x0 ADD PUSH1 0x0 PUSH2 0x100 EXP DUP2 SLOAD DUP2 PUSH20 0xFFFFFFFFFFFFFFFFFFFFFFFFFFFFFFFFFFFFFFFF MUL NOT AND SWAP1 DUP4 PUSH20 0xFFFFFFFFFFFFFFFFFFFFFFFFFFFFFFFFFFFFFFFF AND MUL OR SWAP1 SSTORE POP DUP2 DUP2 PUSH1 0x0 ADD PUSH1 0x14 PUSH2 0x100 EXP DUP2 SLOAD DUP2 PUSH1 0xFF MUL NOT AND SWAP1 DUP4 PUSH1 0x2 DUP2 GT ISZERO PUSH2 0x3462 JUMPI PUSH2 0x3461 PUSH2 0x538C JUMP JUMPDEST JUMPDEST MUL OR SWAP1 SSTORE POP PUSH1 0x1 DUP2 PUSH1 0x0 ADD PUSH1 0x15 PUSH2 0x100 EXP DUP2 SLOAD DUP2 PUSH1 0xFF MUL NOT AND SWAP1 DUP4 ISZERO ISZERO MUL OR SWAP1 SSTORE POP PUSH32 0x8E18574F8A7333E6A87112742A55853A643E2F0550F4E1A3A2C3F1BB2994441D DUP4 DUP4 PUSH1 0x40 MLOAD PUSH2 0x34B5 SWAP3 SWAP2 SWAP1 PUSH2 0x64CB JUMP JUMPDEST PUSH1 0x40 MLOAD DUP1 SWAP2 SUB SWAP1 LOG1 POP POP POP JUMP JUMPDEST PUSH1 0x0 PUSH1 0x4 PUSH1 0x0 DUP2 SLOAD DUP1 SWAP3 SWAP2 SWAP1 PUSH2 0x34D7 SWAP1 PUSH2 0x58D4 JUMP JUMPDEST SWAP2 SWAP1 POP SSTORE SWAP1 POP PUSH1 0x0 DUP1 PUSH1 0x0 DUP4 DUP2 MSTORE PUSH1 0x20 ADD SWAP1 DUP2 MSTORE PUSH1 0x20 ADD PUSH1 0x0 KECCAK256 SWAP1 POP DUP2 DUP2 PUSH1 0x0 ADD DUP2 SWAP1 SSTORE POP DUP5 DUP2 PUSH1 0x1 ADD SWAP1 DUP2 PUSH2 0x350D SWAP2 SWAP1 PUSH2 0x61CD JUMP JUMPDEST POP DUP4 DUP2 PUSH1 0x2 ADD SWAP1 DUP2 PUSH2 0x351F SWAP2 SWAP1 PUSH2 0x61CD JUMP JUMPDEST POP DUP3 DUP2 PUSH1 0x3 ADD DUP2 SWAP1 SSTORE POP PUSH1 0x1 DUP2 PUSH1 0x4 ADD PUSH1 0x0 PUSH2 0x100 EXP DUP2 SLOAD DUP2 PUSH1 0xFF MUL NOT AND SWAP1 DUP4 ISZERO ISZERO MUL OR SWAP1 SSTORE POP PUSH1 0x0 DUP2 PUSH1 0x5 ADD DUP2 SWAP1 SSTORE POP PUSH32 0xC2C844C5F6C72FE99B99DE0942BA619E99957D3E8F7E614263ECFE40DE952E58 DUP3 DUP7 PUSH1 0x40 MLOAD PUSH2 0x3581 SWAP3 SWAP2 SWAP1 PUSH2 0x629F JUMP JUMPDEST PUSH1 0x40 MLOAD DUP1 SWAP2 SUB SWAP1 LOG1 POP POP POP POP POP JUMP JUMPDEST PUSH1 0x1 PUSH1 0x20 MSTORE DUP1 PUSH1 0x0 MSTORE PUSH1 0x40 PUSH1 0x0 KECCAK256 PUSH1 0x0 SWAP2 POP SWAP1 POP DUP1 PUSH1 0x0 ADD PUSH1 0x0 SWAP1 SLOAD SWAP1 PUSH2 0x100 EXP SWAP1 DIV PUSH20 0xFFFFFFFFFFFFFFFFFFFFFFFFFFFFFFFFFFFFFFFF AND SWAP1 DUP1 PUSH1 0x0 ADD PUSH1 0x14 SWAP1 SLOAD SWAP1 PUSH2 0x100 EXP SWAP1 DIV PUSH1 0xFF AND SWAP1 DUP1 PUSH1 0x0 ADD PUSH1 0x15 SWAP1 SLOAD SWAP1 PUSH2 0x100 EXP SWAP1 DIV PUSH1 0xFF AND SWAP1 POP DUP4 JUMP JUMPDEST PUSH1 0x2 DUP1 DUP2 GT ISZERO PUSH2 0x3607 JUMPI PUSH2 0x3606 PUSH2 0x538C JUMP JUMPDEST JUMPDEST PUSH1 0x1 PUSH1 0x0 CALLER PUSH20 0xFFFFFFFFFFFFFFFFFFFFFFFFFFFFFFFFFFFFFFFF AND PUSH20 0xFFFFFFFFFFFFFFFFFFFFFFFFFFFFFFFFFFFFFFFF AND DUP2 MSTORE PUSH1 0x20 ADD SWAP1 DUP2 MSTORE PUSH1 0x20 ADD PUSH1 0x0 KECCAK256 PUSH1 0x0 ADD PUSH1 0x14 SWAP1 SLOAD SWAP1 PUSH2 0x100 EXP SWAP1 DIV PUSH1 0xFF AND PUSH1 0x2 DUP2 GT ISZERO PUSH2 0x3669 JUMPI PUSH2 0x3668 PUSH2 0x538C JUMP JUMPDEST JUMPDEST EQ PUSH2 0x36A9 JUMPI PUSH1 0x40 MLOAD PUSH32 0x8C379A000000000000000000000000000000000000000000000000000000000 DUP2 MSTORE PUSH1 0x4 ADD PUSH2 0x36A0 SWAP1 PUSH2 0x6566 JUMP JUMPDEST PUSH1 0x40 MLOAD DUP1 SWAP2 SUB SWAP1 REVERT JUMPDEST PUSH1 0x0 PUSH1 0x6 PUSH1 0x0 DUP2 SLOAD DUP1 SWAP3 SWAP2 SWAP1 PUSH2 0x36BE SWAP1 PUSH2 0x58D4 JUMP JUMPDEST SWAP2 SWAP1 POP SSTORE SWAP1 POP PUSH1 0x0 PUSH1 0x3 PUSH1 0x0 DUP4 DUP2 MSTORE PUSH1 0x20 ADD SWAP1 DUP2 MSTORE PUSH1 0x20 ADD PUSH1 0x0 KECCAK256 SWAP1 POP DUP2 DUP2 PUSH1 0x0 ADD DUP2 SWAP1 SSTORE POP DUP5 DUP2 PUSH1 0x1 ADD SWAP1 DUP2 PUSH2 0x36F5 SWAP2 SWAP1 PUSH2 0x61CD JUMP JUMPDEST POP DUP4 DUP2 PUSH1 0x2 ADD SWAP1 DUP2 PUSH2 0x3707 SWAP2 SWAP1 PUSH2 0x61CD JUMP JUMPDEST POP DUP3 DUP2 PUSH1 0x3 ADD DUP2 SWAP1 SSTORE POP PUSH1 0x1 DUP2 PUSH1 0x4 ADD PUSH1 0x0 PUSH2 0x100 EXP DUP2 SLOAD DUP2 PUSH1 0xFF MUL NOT AND SWAP1 DUP4 ISZERO ISZERO MUL OR SWAP1 SSTORE POP PUSH32 0x9A1C9F10D6EE756C0A71F88B8991DB99F6866F27AE438706A3EA95076DF295DB DUP3 DUP7 PUSH1 0x40 MLOAD PUSH2 0x375F SWAP3 SWAP2 SWAP1 PUSH2 0x629F JUMP JUMPDEST PUSH1 0x40 MLOAD DUP1 SWAP2 SUB SWAP1 LOG1 POP POP POP POP POP JUMP JUMPDEST PUSH1 0x4 SLOAD DUP7 LT PUSH2 0x37B2 JUMPI PUSH1 0x40 MLOAD PUSH32 0x8C379A000000000000000000000000000000000000000000000000000000000 DUP2 MSTORE PUSH1 0x4 ADD PUSH2 0x37A9 SWAP1 PUSH2 0x5856 JUMP JUMPDEST PUSH1 0x40 MLOAD DUP1 SWAP2 SUB SWAP1 REVERT JUMPDEST PUSH1 0x0 DUP1 DUP8 DUP2 MSTORE PUSH1 0x20 ADD SWAP1 DUP2 MSTORE PUSH1 0x20 ADD PUSH1 0x0 KECCAK256 PUSH1 0x4 ADD PUSH1 0x0 SWAP1 SLOAD SWAP1 PUSH2 0x100 EXP SWAP1 DIV PUSH1 0xFF AND PUSH2 0x3814 JUMPI PUSH1 0x40 MLOAD PUSH32 0x8C379A000000000000000000000000000000000000000000000000000000000 DUP2 MSTORE PUSH1 0x4 ADD PUSH2 0x380B SWAP1 PUSH2 0x598E JUMP JUMPDEST PUSH1 0x40 MLOAD DUP1 SWAP2 SUB SWAP1 REVERT JUMPDEST PUSH1 0x1 DUP6 PUSH1 0xFF AND LT ISZERO DUP1 ISZERO PUSH2 0x382C JUMPI POP PUSH1 0x7 DUP6 PUSH1 0xFF AND GT ISZERO JUMPDEST PUSH2 0x386B JUMPI PUSH1 0x40 MLOAD PUSH32 0x8C379A000000000000000000000000000000000000000000000000000000000 DUP2 MSTORE PUSH1 0x4 ADD PUSH2 0x3862 SWAP1 PUSH2 0x5EB0 JUMP JUMPDEST PUSH1 0x40 MLOAD DUP1 SWAP2 SUB SWAP1 REVERT JUMPDEST PUSH1 0x18 DUP5 PUSH1 0xFF AND LT DUP1 ISZERO PUSH2 0x3881 JUMPI POP PUSH1 0x18 DUP4 PUSH1 0xFF AND LT JUMPDEST DUP1 ISZERO PUSH2 0x3892 JUMPI POP DUP3 PUSH1 0xFF AND DUP5 PUSH1 0xFF AND LT JUMPDEST PUSH2 0x38D1 JUMPI PUSH1 0x40 MLOAD PUSH32 0x8C379A000000000000000000000000000000000000000000000000000000000 DUP2 MSTORE PUSH1 0x4 ADD PUSH2 0x38C8 SWAP1 PUSH2 0x5F1C JUMP JUMPDEST PUSH1 0x40 MLOAD DUP1 SWAP2 SUB SWAP1 REVERT JUMPDEST PUSH1 0x6 SLOAD DUP3 LT PUSH2 0x3915 JUMPI PUSH1 0x40 MLOAD PUSH32 0x8C379A000000000000000000000000000000000000000000000000000000000 DUP2 MSTORE PUSH1 0x4 ADD PUSH2 0x390C SWAP1 PUSH2 0x5A66 JUMP JUMPDEST PUSH1 0x40 MLOAD DUP1 SWAP2 SUB SWAP1 REVERT JUMPDEST PUSH1 0x3 PUSH1 0x0 DUP4 DUP2 MSTORE PUSH1 0x20 ADD SWAP1 DUP2 MSTORE PUSH1 0x20 ADD PUSH1 0x0 KECCAK256 PUSH1 0x4 ADD PUSH1 0x0 SWAP1 SLOAD SWAP1 PUSH2 0x100 EXP SWAP1 DIV PUSH1 0xFF AND PUSH2 0x3978 JUMPI PUSH1 0x40 MLOAD PUSH32 0x8C379A000000000000000000000000000000000000000000000000000000000 DUP2 MSTORE PUSH1 0x4 ADD PUSH2 0x396F SWAP1 PUSH2 0x5AF8 JUMP JUMPDEST PUSH1 0x40 MLOAD DUP1 SWAP2 SUB SWAP1 REVERT JUMPDEST PUSH1 0x0 PUSH20 0xFFFFFFFFFFFFFFFFFFFFFFFFFFFFFFFFFFFFFFFF AND DUP2 PUSH20 0xFFFFFFFFFFFFFFFFFFFFFFFFFFFFFFFFFFFFFFFF AND EQ PUSH2 0x3AF2 JUMPI PUSH1 0x1 PUSH1 0x0 DUP3 PUSH20 0xFFFFFFFFFFFFFFFFFFFFFFFFFFFFFFFFFFFFFFFF AND PUSH20 0xFFFFFFFFFFFFFFFFFFFFFFFFFFFFFFFFFFFFFFFF AND DUP2 MSTORE PUSH1 0x20 ADD SWAP1 DUP2 MSTORE PUSH1 0x20 ADD PUSH1 0x0 KECCAK256 PUSH1 0x0 ADD PUSH1 0x15 SWAP1 SLOAD SWAP1 PUSH2 0x100 EXP SWAP1 DIV PUSH1 0xFF AND PUSH2 0x3A3B JUMPI PUSH1 0x40 MLOAD PUSH32 0x8C379A000000000000000000000000000000000000000000000000000000000 DUP2 MSTORE PUSH1 0x4 ADD PUSH2 0x3A32 SWAP1 PUSH2 0x5CB1 JUMP JUMPDEST PUSH1 0x40 MLOAD DUP1 SWAP2 SUB SWAP1 REVERT JUMPDEST PUSH1 0x1 PUSH1 0x2 DUP2 GT ISZERO PUSH2 0x3A4F JUMPI PUSH2 0x3A4E PUSH2 0x538C JUMP JUMPDEST JUMPDEST PUSH1 0x1 PUSH1 0x0 DUP4 PUSH20 0xFFFFFFFFFFFFFFFFFFFFFFFFFFFFFFFFFFFFFFFF AND PUSH20 0xFFFFFFFFFFFFFFFFFFFFFFFFFFFFFFFFFFFFFFFF AND DUP2 MSTORE PUSH1 0x20 ADD SWAP1 DUP2 MSTORE PUSH1 0x20 ADD PUSH1 0x0 KECCAK256 PUSH1 0x0 ADD PUSH1 0x14 SWAP1 SLOAD SWAP1 PUSH2 0x100 EXP SWAP1 DIV PUSH1 0xFF AND PUSH1 0x2 DUP2 GT ISZERO PUSH2 0x3AB1 JUMPI PUSH2 0x3AB0 PUSH2 0x538C JUMP JUMPDEST JUMPDEST EQ PUSH2 0x3AF1 JUMPI PUSH1 0x40 MLOAD PUSH32 0x8C379A000000000000000000000000000000000000000000000000000000000 DUP2 MSTORE PUSH1 0x4 ADD PUSH2 0x3AE8 SWAP1 PUSH2 0x5D43 JUMP JUMPDEST PUSH1 0x40 MLOAD DUP1 SWAP2 SUB SWAP1 REVERT JUMPDEST JUMPDEST PUSH1 0x0 DUP1 PUSH1 0x0 DUP9 DUP2 MSTORE PUSH1 0x20 ADD SWAP1 DUP2 MSTORE PUSH1 0x20 ADD PUSH1 0x0 KECCAK256 SWAP1 POP PUSH1 0x0 PUSH1 0x1 DUP3 PUSH1 0x5 ADD SLOAD PUSH2 0x3B1B SWAP2 SWAP1 PUSH2 0x6586 JUMP JUMPDEST SWAP1 POP PUSH1 0x0 DUP3 PUSH1 0x7 ADD PUSH1 0x0 DUP4 DUP2 MSTORE PUSH1 0x20 ADD SWAP1 DUP2 MSTORE PUSH1 0x20 ADD PUSH1 0x0 KECCAK256 SWAP1 POP DUP2 DUP2 PUSH1 0x0 ADD DUP2 SWAP1 SSTORE POP DUP8 DUP2 PUSH1 0x1 ADD PUSH1 0x0 PUSH2 0x100 EXP DUP2 SLOAD DUP2 PUSH1 0xFF MUL NOT AND SWAP1 DUP4 PUSH1 0xFF AND MUL OR SWAP1 SSTORE POP DUP7 DUP2 PUSH1 0x1 ADD PUSH1 0x1 PUSH2 0x100 EXP DUP2 SLOAD DUP2 PUSH1 0xFF MUL NOT AND SWAP1 DUP4 PUSH1 0xFF AND MUL OR SWAP1 SSTORE POP DUP6 DUP2 PUSH1 0x1 ADD PUSH1 0x2 PUSH2 0x100 EXP DUP2 SLOAD DUP2 PUSH1 0xFF MUL NOT AND SWAP1 DUP4 PUSH1 0xFF AND MUL OR SWAP1 SSTORE POP DUP3 PUSH1 0x1 ADD DUP2 PUSH1 0x2 ADD SWAP1 DUP2 PUSH2 0x3BAA SWAP2 SWAP1 PUSH2 0x65E5 JUMP JUMPDEST POP PUSH1 0x1 DUP2 PUSH1 0x3 ADD PUSH1 0x0 PUSH2 0x100 EXP DUP2 SLOAD DUP2 PUSH1 0xFF MUL NOT AND SWAP1 DUP4 ISZERO ISZERO MUL OR SWAP1 SSTORE POP DUP5 DUP2 PUSH1 0x4 ADD DUP2 SWAP1 SSTORE POP DUP4 DUP2 PUSH1 0x5 ADD PUSH1 0x0 PUSH2 0x100 EXP DUP2 SLOAD DUP2 PUSH20 0xFFFFFFFFFFFFFFFFFFFFFFFFFFFFFFFFFFFFFFFF MUL NOT AND SWAP1 DUP4 PUSH20 0xFFFFFFFFFFFFFFFFFFFFFFFFFFFFFFFFFFFFFFFF AND MUL OR SWAP1 SSTORE POP DUP2 DUP4 PUSH1 0x5 ADD DUP2 SWAP1 SSTORE POP PUSH1 0x0 PUSH1 0x2 PUSH1 0x0 PUSH1 0x5 SLOAD DUP2 MSTORE PUSH1 0x20 ADD SWAP1 DUP2 MSTORE PUSH1 0x20 ADD PUSH1 0x0 KECCAK256 SWAP1 POP PUSH1 0x5 SLOAD DUP2 PUSH1 0x0 ADD DUP2 SWAP1 SSTORE POP DUP9 DUP2 PUSH1 0x1 ADD PUSH1 0x0 PUSH2 0x100 EXP DUP2 SLOAD DUP2 PUSH1 0xFF MUL NOT AND SWAP1 DUP4 PUSH1 0xFF AND MUL OR SWAP1 SSTORE POP DUP8 DUP2 PUSH1 0x1 ADD PUSH1 0x1 PUSH2 0x100 EXP DUP2 SLOAD DUP2 PUSH1 0xFF MUL NOT AND SWAP1 DUP4 PUSH1 0xFF AND MUL OR SWAP1 SSTORE POP DUP7 DUP2 PUSH1 0x1 ADD PUSH1 0x2 PUSH2 0x100 EXP DUP2 SLOAD DUP2 PUSH1 0xFF MUL NOT AND SWAP1 DUP4 PUSH1 0xFF AND MUL OR SWAP1 SSTORE POP DUP4 PUSH1 0x1 ADD DUP2 PUSH1 0x2 ADD SWAP1 DUP2 PUSH2 0x3CAC SWAP2 SWAP1 PUSH2 0x65E5 JUMP JUMPDEST POP PUSH1 0x1 DUP2 PUSH1 0x3 ADD PUSH1 0x0 PUSH2 0x100 EXP DUP2 SLOAD DUP2 PUSH1 0xFF MUL NOT AND SWAP1 DUP4 ISZERO ISZERO MUL OR SWAP1 SSTORE POP DUP6 DUP2 PUSH1 0x4 ADD DUP2 SWAP1 SSTORE POP DUP5 DUP2 PUSH1 0x5 ADD PUSH1 0x0 PUSH2 0x100 EXP DUP2 SLOAD DUP2 PUSH20 0xFFFFFFFFFFFFFFFFFFFFFFFFFFFFFFFFFFFFFFFF MUL NOT AND SWAP1 DUP4 PUSH20 0xFFFFFFFFFFFFFFFFFFFFFFFFFFFFFFFFFFFFFFFF AND MUL OR SWAP1 SSTORE POP PUSH1 0x5 PUSH1 0x0 DUP2 SLOAD DUP1 SWAP3 SWAP2 SWAP1 PUSH2 0x3D29 SWAP1 PUSH2 0x58D4 JUMP JUMPDEST SWAP2 SWAP1 POP SSTORE POP PUSH32 0x3FF69354BB51BEFB41CB392610BE115187B4AFCFED73D238A16F370C7F20491C DUP11 DUP11 DUP11 DUP11 PUSH1 0x40 MLOAD PUSH2 0x3D63 SWAP5 SWAP4 SWAP3 SWAP2 SWAP1 PUSH2 0x66CD JUMP JUMPDEST PUSH1 0x40 MLOAD DUP1 SWAP2 SUB SWAP1 LOG1 PUSH32 0xA6513A9BBA35746DACD52AC5046464ECC24F542AA1B1A92CEFF55438CDB0A76B DUP4 DUP8 PUSH1 0x40 MLOAD PUSH2 0x3D9C SWAP3 SWAP2 SWAP1 PUSH2 0x5BAA JUMP JUMPDEST PUSH1 0x40 MLOAD DUP1 SWAP2 SUB SWAP1 LOG1 PUSH1 0x0 PUSH20 0xFFFFFFFFFFFFFFFFFFFFFFFFFFFFFFFFFFFFFFFF AND DUP6 PUSH20 0xFFFFFFFFFFFFFFFFFFFFFFFFFFFFFFFFFFFFFFFF AND EQ PUSH2 0x3E12 JUMPI PUSH32 0x6A9BDBE78C097D179E13E8451AC044B23E4A80386FDE775D802424D5B0E1FFB9 DUP4 DUP7 PUSH1 0x40 MLOAD PUSH2 0x3E09 SWAP3 SWAP2 SWAP1 PUSH2 0x5D63 JUMP JUMPDEST PUSH1 0x40 MLOAD DUP1 SWAP2 SUB SWAP1 LOG1 JUMPDEST POP POP POP POP POP POP POP POP POP POP JUMP JUMPDEST PUSH1 0x0 PUSH1 0x1 PUSH1 0x0 DUP4 PUSH20 0xFFFFFFFFFFFFFFFFFFFFFFFFFFFFFFFFFFFFFFFF AND PUSH20 0xFFFFFFFFFFFFFFFFFFFFFFFFFFFFFFFFFFFFFFFF AND DUP2 MSTORE PUSH1 0x20 ADD SWAP1 DUP2 MSTORE PUSH1 0x20 ADD PUSH1 0x0 KECCAK256 PUSH1 0x0 ADD PUSH1 0x15 SWAP1 SLOAD SWAP1 PUSH2 0x100 EXP SWAP1 DIV PUSH1 0xFF AND SWAP1 POP SWAP2 SWAP1 POP JUMP JUMPDEST PUSH1 0x60 PUSH1 0x0 PUSH1 0x4 SLOAD PUSH8 0xFFFFFFFFFFFFFFFF DUP2 GT ISZERO PUSH2 0x3E97 JUMPI PUSH2 0x3E96 PUSH2 0x51C2 JUMP JUMPDEST JUMPDEST PUSH1 0x40 MLOAD SWAP1 DUP1 DUP3 MSTORE DUP1 PUSH1 0x20 MUL PUSH1 0x20 ADD DUP3 ADD PUSH1 0x40 MSTORE DUP1 ISZERO PUSH2 0x3EC5 JUMPI DUP2 PUSH1 0x20 ADD PUSH1 0x20 DUP3 MUL DUP1 CALLDATASIZE DUP4 CALLDATACOPY DUP1 DUP3 ADD SWAP2 POP POP SWAP1 POP JUMPDEST POP SWAP1 POP PUSH1 0x0 DUP1 JUMPDEST PUSH1 0x4 SLOAD DUP2 LT ISZERO PUSH2 0x3F3A JUMPI PUSH1 0x0 DUP1 DUP3 DUP2 MSTORE PUSH1 0x20 ADD SWAP1 DUP2 MSTORE PUSH1 0x20 ADD PUSH1 0x0 KECCAK256 PUSH1 0x4 ADD PUSH1 0x0 SWAP1 SLOAD SWAP1 PUSH2 0x100 EXP SWAP1 DIV PUSH1 0xFF AND ISZERO PUSH2 0x3F2D JUMPI DUP1 DUP4 DUP4 DUP2 MLOAD DUP2 LT PUSH2 0x3F12 JUMPI PUSH2 0x3F11 PUSH2 0x5876 JUMP JUMPDEST JUMPDEST PUSH1 0x20 MUL PUSH1 0x20 ADD ADD DUP2 DUP2 MSTORE POP POP DUP2 DUP1 PUSH2 0x3F29 SWAP1 PUSH2 0x58D4 JUMP JUMPDEST SWAP3 POP POP JUMPDEST DUP1 DUP1 PUSH1 0x1 ADD SWAP2 POP POP PUSH2 0x3ECC JUMP JUMPDEST POP PUSH1 0x0 DUP2 PUSH8 0xFFFFFFFFFFFFFFFF DUP2 GT ISZERO PUSH2 0x3F57 JUMPI PUSH2 0x3F56 PUSH2 0x51C2 JUMP JUMPDEST JUMPDEST PUSH1 0x40 MLOAD SWAP1 DUP1 DUP3 MSTORE DUP1 PUSH1 0x20 MUL PUSH1 0x20 ADD DUP3 ADD PUSH1 0x40 MSTORE DUP1 ISZERO PUSH2 0x3F85 JUMPI DUP2 PUSH1 0x20 ADD PUSH1 0x20 DUP3 MUL DUP1 CALLDATASIZE DUP4 CALLDATACOPY DUP1 DUP3 ADD SWAP2 POP POP SWAP1 POP JUMPDEST POP SWAP1 POP PUSH1 0x0 JUMPDEST DUP3 DUP2 LT ISZERO PUSH2 0x3FDA JUMPI DUP4 DUP2 DUP2 MLOAD DUP2 LT PUSH2 0x3FA6 JUMPI PUSH2 0x3FA5 PUSH2 0x5876 JUMP JUMPDEST JUMPDEST PUSH1 0x20 MUL PUSH1 0x20 ADD ADD MLOAD DUP3 DUP3 DUP2 MLOAD DUP2 LT PUSH2 0x3FC1 JUMPI PUSH2 0x3FC0 PUSH2 0x5876 JUMP JUMPDEST JUMPDEST PUSH1 0x20 MUL PUSH1 0x20 ADD ADD DUP2 DUP2 MSTORE POP POP DUP1 DUP1 PUSH1 0x1 ADD SWAP2 POP POP PUSH2 0x3F8B JUMP JUMPDEST POP DUP1 SWAP4 POP POP POP POP SWAP1 JUMP JUMPDEST PUSH1 0x0 PUSH1 0x2 DUP2 GT ISZERO PUSH2 0x3FF8 JUMPI PUSH2 0x3FF7 PUSH2 0x538C JUMP JUMPDEST JUMPDEST PUSH1 0x1 PUSH1 0x0 CALLER PUSH20 0xFFFFFFFFFFFFFFFFFFFFFFFFFFFFFFFFFFFFFFFF AND PUSH20 0xFFFFFFFFFFFFFFFFFFFFFFFFFFFFFFFFFFFFFFFF AND DUP2 MSTORE PUSH1 0x20 ADD SWAP1 DUP2 MSTORE PUSH1 0x20 ADD PUSH1 0x0 KECCAK256 PUSH1 0x0 ADD PUSH1 0x14 SWAP1 SLOAD SWAP1 PUSH2 0x100 EXP SWAP1 DIV PUSH1 0xFF AND PUSH1 0x2 DUP2 GT ISZERO PUSH2 0x405A JUMPI PUSH2 0x4059 PUSH2 0x538C JUMP JUMPDEST JUMPDEST EQ PUSH2 0x409A JUMPI PUSH1 0x40 MLOAD PUSH32 0x8C379A000000000000000000000000000000000000000000000000000000000 DUP2 MSTORE PUSH1 0x4 ADD PUSH2 0x4091 SWAP1 PUSH2 0x6784 JUMP JUMPDEST PUSH1 0x40 MLOAD DUP1 SWAP2 SUB SWAP1 REVERT JUMPDEST PUSH1 0x0 JUMPDEST DUP2 MLOAD DUP2 LT ISZERO PUSH2 0x430D JUMPI PUSH1 0x0 DUP3 DUP3 DUP2 MLOAD DUP2 LT PUSH2 0x40BB JUMPI PUSH2 0x40BA PUSH2 0x5876 JUMP JUMPDEST JUMPDEST PUSH1 0x20 MUL PUSH1 0x20 ADD ADD MLOAD SWAP1 POP PUSH1 0x4 SLOAD DUP2 LT PUSH2 0x4109 JUMPI PUSH1 0x40 MLOAD PUSH32 0x8C379A000000000000000000000000000000000000000000000000000000000 DUP2 MSTORE PUSH1 0x4 ADD PUSH2 0x4100 SWAP1 PUSH2 0x5856 JUMP JUMPDEST PUSH1 0x40 MLOAD DUP1 SWAP2 SUB SWAP1 REVERT JUMPDEST PUSH1 0x0 DUP1 DUP3 DUP2 MSTORE PUSH1 0x20 ADD SWAP1 DUP2 MSTORE PUSH1 0x20 ADD PUSH1 0x0 KECCAK256 PUSH1 0x4 ADD PUSH1 0x0 SWAP1 SLOAD SWAP1 PUSH2 0x100 EXP SWAP1 DIV PUSH1 0xFF AND PUSH2 0x416B JUMPI PUSH1 0x40 MLOAD PUSH32 0x8C379A000000000000000000000000000000000000000000000000000000000 DUP2 MSTORE PUSH1 0x4 ADD PUSH2 0x4162 SWAP1 PUSH2 0x598E JUMP JUMPDEST PUSH1 0x40 MLOAD DUP1 SWAP2 SUB SWAP1 REVERT JUMPDEST PUSH1 0x0 DUP1 PUSH1 0x0 DUP4 DUP2 MSTORE PUSH1 0x20 ADD SWAP1 DUP2 MSTORE PUSH1 0x20 ADD PUSH1 0x0 KECCAK256 SWAP1 POP PUSH1 0x0 DUP1 JUMPDEST DUP3 PUSH1 0x6 ADD DUP1 SLOAD SWAP1 POP DUP2 LT ISZERO PUSH2 0x421D JUMPI CALLER PUSH20 0xFFFFFFFFFFFFFFFFFFFFFFFFFFFFFFFFFFFFFFFF AND DUP4 PUSH1 0x6 ADD DUP3 DUP2 SLOAD DUP2 LT PUSH2 0x41C1 JUMPI PUSH2 0x41C0 PUSH2 0x5876 JUMP JUMPDEST JUMPDEST SWAP1 PUSH1 0x0 MSTORE PUSH1 0x20 PUSH1 0x0 KECCAK256 ADD PUSH1 0x0 SWAP1 SLOAD SWAP1 PUSH2 0x100 EXP SWAP1 DIV PUSH20 0xFFFFFFFFFFFFFFFFFFFFFFFFFFFFFFFFFFFFFFFF AND PUSH20 0xFFFFFFFFFFFFFFFFFFFFFFFFFFFFFFFFFFFFFFFF AND SUB PUSH2 0x4210 JUMPI PUSH1 0x1 SWAP2 POP PUSH2 0x421D JUMP JUMPDEST DUP1 DUP1 PUSH1 0x1 ADD SWAP2 POP POP PUSH2 0x4185 JUMP JUMPDEST POP DUP1 ISZERO PUSH2 0x425F JUMPI PUSH1 0x40 MLOAD PUSH32 0x8C379A000000000000000000000000000000000000000000000000000000000 DUP2 MSTORE PUSH1 0x4 ADD PUSH2 0x4256 SWAP1 PUSH2 0x6816 JUMP JUMPDEST PUSH1 0x40 MLOAD DUP1 SWAP2 SUB SWAP1 REVERT JUMPDEST DUP2 PUSH1 0x6 ADD CALLER SWAP1 DUP1 PUSH1 0x1 DUP2 SLOAD ADD DUP1 DUP3 SSTORE DUP1 SWAP2 POP POP PUSH1 0x1 SWAP1 SUB SWAP1 PUSH1 0x0 MSTORE PUSH1 0x20 PUSH1 0x0 KECCAK256 ADD PUSH1 0x0 SWAP1 SWAP2 SWAP1 SWAP2 SWAP1 SWAP2 PUSH2 0x100 EXP DUP2 SLOAD DUP2 PUSH20 0xFFFFFFFFFFFFFFFFFFFFFFFFFFFFFFFFFFFFFFFF MUL NOT AND SWAP1 DUP4 PUSH20 0xFFFFFFFFFFFFFFFFFFFFFFFFFFFFFFFFFFFFFFFF AND MUL OR SWAP1 SSTORE POP PUSH32 0x5978A47CE47CDEB8A43A1794142DD16F2F94E95103BD104783A42725C7FE8CFF DUP4 CALLER PUSH1 0x40 MLOAD PUSH2 0x42F5 SWAP3 SWAP2 SWAP1 PUSH2 0x5D63 JUMP JUMPDEST PUSH1 0x40 MLOAD DUP1 SWAP2 SUB SWAP1 LOG1 POP POP POP DUP1 DUP1 PUSH1 0x1 ADD SWAP2 POP POP PUSH2 0x409D JUMP JUMPDEST POP POP JUMP JUMPDEST PUSH1 0x0 PUSH1 0x60 DUP1 PUSH1 0x0 DUP1 PUSH1 0x6 SLOAD DUP7 LT PUSH2 0x435D JUMPI PUSH1 0x40 MLOAD PUSH32 0x8C379A000000000000000000000000000000000000000000000000000000000 DUP2 MSTORE PUSH1 0x4 ADD PUSH2 0x4354 SWAP1 PUSH2 0x5A66 JUMP JUMPDEST PUSH1 0x40 MLOAD DUP1 SWAP2 SUB SWAP1 REVERT JUMPDEST PUSH1 0x0 PUSH1 0x3 PUSH1 0x0 DUP9 DUP2 MSTORE PUSH1 0x20 ADD SWAP1 DUP2 MSTORE PUSH1 0x20 ADD PUSH1 0x0 KECCAK256 SWAP1 POP DUP1 PUSH1 0x0 ADD SLOAD DUP2 PUSH1 0x1 ADD DUP3 PUSH1 0x2 ADD DUP4 PUSH1 0x3 ADD SLOAD DUP5 PUSH1 0x4 ADD PUSH1 0x0 SWAP1 SLOAD SWAP1 PUSH2 0x100 EXP SWAP1 DIV PUSH1 0xFF AND DUP4 DUP1 SLOAD PUSH2 0x43A4 SWAP1 PUSH2 0x57D9 JUMP JUMPDEST DUP1 PUSH1 0x1F ADD PUSH1 0x20 DUP1 SWAP2 DIV MUL PUSH1 0x20 ADD PUSH1 0x40 MLOAD SWAP1 DUP2 ADD PUSH1 0x40 MSTORE DUP1 SWAP3 SWAP2 SWAP1 DUP2 DUP2 MSTORE PUSH1 0x20 ADD DUP3 DUP1 SLOAD PUSH2 0x43D0 SWAP1 PUSH2 0x57D9 JUMP JUMPDEST DUP1 ISZERO PUSH2 0x441D JUMPI DUP1 PUSH1 0x1F LT PUSH2 0x43F2 JUMPI PUSH2 0x100 DUP1 DUP4 SLOAD DIV MUL DUP4 MSTORE SWAP2 PUSH1 0x20 ADD SWAP2 PUSH2 0x441D JUMP JUMPDEST DUP3 ADD SWAP2 SWAP1 PUSH1 0x0 MSTORE PUSH1 0x20 PUSH1 0x0 KECCAK256 SWAP1 JUMPDEST DUP2 SLOAD DUP2 MSTORE SWAP1 PUSH1 0x1 ADD SWAP1 PUSH1 0x20 ADD DUP1 DUP4 GT PUSH2 0x4400 JUMPI DUP3 SWAP1 SUB PUSH1 0x1F AND DUP3 ADD SWAP2 JUMPDEST POP POP POP POP POP SWAP4 POP DUP3 DUP1 SLOAD PUSH2 0x4430 SWAP1 PUSH2 0x57D9 JUMP JUMPDEST DUP1 PUSH1 0x1F ADD PUSH1 0x20 DUP1 SWAP2 DIV MUL PUSH1 0x20 ADD PUSH1 0x40 MLOAD SWAP1 DUP2 ADD PUSH1 0x40 MSTORE DUP1 SWAP3 SWAP2 SWAP1 DUP2 DUP2 MSTORE PUSH1 0x20 ADD DUP3 DUP1 SLOAD PUSH2 0x445C SWAP1 PUSH2 0x57D9 JUMP JUMPDEST DUP1 ISZERO PUSH2 0x44A9 JUMPI DUP1 PUSH1 0x1F LT PUSH2 0x447E JUMPI PUSH2 0x100 DUP1 DUP4 SLOAD DIV MUL DUP4 MSTORE SWAP2 PUSH1 0x20 ADD SWAP2 PUSH2 0x44A9 JUMP JUMPDEST DUP3 ADD SWAP2 SWAP1 PUSH1 0x0 MSTORE PUSH1 0x20 PUSH1 0x0 KECCAK256 SWAP1 JUMPDEST DUP2 SLOAD DUP2 MSTORE SWAP1 PUSH1 0x1 ADD SWAP1 PUSH1 0x20 ADD DUP1 DUP4 GT PUSH2 0x448C JUMPI DUP3 SWAP1 SUB PUSH1 0x1F AND DUP3 ADD SWAP2 JUMPDEST POP POP POP POP POP SWAP3 POP SWAP6 POP SWAP6 POP SWAP6 POP SWAP6 POP SWAP6 POP POP SWAP2 SWAP4 SWAP6 SWAP1 SWAP3 SWAP5 POP JUMP JUMPDEST PUSH1 0x4 SLOAD DUP3 LT PUSH2 0x4508 JUMPI PUSH1 0x40 MLOAD PUSH32 0x8C379A000000000000000000000000000000000000000000000000000000000 DUP2 MSTORE PUSH1 0x4 ADD PUSH2 0x44FF SWAP1 PUSH2 0x5856 JUMP JUMPDEST PUSH1 0x40 MLOAD DUP1 SWAP2 SUB SWAP1 REVERT JUMPDEST PUSH1 0x0 DUP1 DUP4 DUP2 MSTORE PUSH1 0x20 ADD SWAP1 DUP2 MSTORE PUSH1 0x20 ADD PUSH1 0x0 KECCAK256 PUSH1 0x4 ADD PUSH1 0x0 SWAP1 SLOAD SWAP1 PUSH2 0x100 EXP SWAP1 DIV PUSH1 0xFF AND PUSH2 0x456A JUMPI PUSH1 0x40 MLOAD PUSH32 0x8C379A000000000000000000000000000000000000000000000000000000000 DUP2 MSTORE PUSH1 0x4 ADD PUSH2 0x4561 SWAP1 PUSH2 0x598E JUMP JUMPDEST PUSH1 0x40 MLOAD DUP1 SWAP2 SUB SWAP1 REVERT JUMPDEST PUSH1 0x0 DUP1 DUP4 DUP2 MSTORE PUSH1 0x20 ADD SWAP1 DUP2 MSTORE PUSH1 0x20 ADD PUSH1 0x0 KECCAK256 PUSH1 0x5 ADD SLOAD DUP2 GT ISZERO PUSH2 0x45C2 JUMPI PUSH1 0x40 MLOAD PUSH32 0x8C379A000000000000000000000000000000000000000000000000000000000 DUP2 MSTORE PUSH1 0x4 ADD PUSH2 0x45B9 SWAP1 PUSH2 0x59FA JUMP JUMPDEST PUSH1 0x40 MLOAD DUP1 SWAP2 SUB SWAP1 REVERT JUMPDEST PUSH1 0x0 DUP1 PUSH1 0x0 DUP5 DUP2 MSTORE PUSH1 0x20 ADD SWAP1 DUP2 MSTORE PUSH1 0x20 ADD PUSH1 0x0 KECCAK256 PUSH1 0x7 ADD PUSH1 0x0 DUP4 DUP2 MSTORE PUSH1 0x20 ADD SWAP1 DUP2 MSTORE PUSH1 0x20 ADD PUSH1 0x0 KECCAK256 SWAP1 POP DUP1 PUSH1 0x3 ADD PUSH1 0x0 SWAP1 SLOAD SWAP1 PUSH2 0x100 EXP SWAP1 DIV PUSH1 0xFF AND PUSH2 0x463D JUMPI PUSH1 0x40 MLOAD PUSH32 0x8C379A000000000000000000000000000000000000000000000000000000000 DUP2 MSTORE PUSH1 0x4 ADD PUSH2 0x4634 SWAP1 PUSH2 0x5B8A JUMP JUMPDEST PUSH1 0x40 MLOAD DUP1 SWAP2 SUB SWAP1 REVERT JUMPDEST PUSH1 0x0 DUP2 PUSH1 0x3 ADD PUSH1 0x0 PUSH2 0x100 EXP DUP2 SLOAD DUP2 PUSH1 0xFF MUL NOT AND SWAP1 DUP4 ISZERO ISZERO MUL OR SWAP1 SSTORE POP PUSH32 0x29558593F0B584FA97B5489122CAB9FC63AA0424B99F2B9CE433CFB20A73CD70 DUP4 DUP4 DUP4 PUSH1 0x1 ADD PUSH1 0x0 SWAP1 SLOAD SWAP1 PUSH2 0x100 EXP SWAP1 DIV PUSH1 0xFF AND DUP5 PUSH1 0x1 ADD PUSH1 0x1 SWAP1 SLOAD SWAP1 PUSH2 0x100 EXP SWAP1 DIV PUSH1 0xFF AND DUP6 PUSH1 0x1 ADD PUSH1 0x2 SWAP1 SLOAD SWAP1 PUSH2 0x100 EXP SWAP1 DIV PUSH1 0xFF AND PUSH1 0x40 MLOAD PUSH2 0x46C4 SWAP6 SWAP5 SWAP4 SWAP3 SWAP2 SWAP1 PUSH2 0x5F3C JUMP JUMPDEST PUSH1 0x40 MLOAD DUP1 SWAP2 SUB SWAP1 LOG1 POP POP POP JUMP JUMPDEST PUSH1 0x0 DUP1 PUSH1 0x0 DUP1 PUSH1 0x60 PUSH1 0x0 DUP1 PUSH1 0x0 PUSH1 0x4 SLOAD DUP11 LT PUSH2 0x4722 JUMPI PUSH1 0x40 MLOAD PUSH32 0x8C379A000000000000000000000000000000000000000000000000000000000 DUP2 MSTORE PUSH1 0x4 ADD PUSH2 0x4719 SWAP1 PUSH2 0x5856 JUMP JUMPDEST PUSH1 0x40 MLOAD DUP1 SWAP2 SUB SWAP1 REVERT JUMPDEST PUSH1 0x0 DUP1 DUP12 DUP2 MSTORE PUSH1 0x20 ADD SWAP1 DUP2 MSTORE PUSH1 0x20 ADD PUSH1 0x0 KECCAK256 PUSH1 0x4 ADD PUSH1 0x0 SWAP1 SLOAD SWAP1 PUSH2 0x100 EXP SWAP1 DIV PUSH1 0xFF AND PUSH2 0x4784 JUMPI PUSH1 0x40 MLOAD PUSH32 0x8C379A000000000000000000000000000000000000000000000000000000000 DUP2 MSTORE PUSH1 0x4 ADD PUSH2 0x477B SWAP1 PUSH2 0x598E JUMP JUMPDEST PUSH1 0x40 MLOAD DUP1 SWAP2 SUB SWAP1 REVERT JUMPDEST PUSH1 0x0 DUP1 DUP12 DUP2 MSTORE PUSH1 0x20 ADD SWAP1 DUP2 MSTORE PUSH1 0x20 ADD PUSH1 0x0 KECCAK256 PUSH1 0x5 ADD SLOAD DUP10 GT ISZERO PUSH2 0x47DC JUMPI PUSH1 0x40 MLOAD PUSH32 0x8C379A000000000000000000000000000000000000000000000000000000000 DUP2 MSTORE PUSH1 0x4 ADD PUSH2 0x47D3 SWAP1 PUSH2 0x59FA JUMP JUMPDEST PUSH1 0x40 MLOAD DUP1 SWAP2 SUB SWAP1 REVERT JUMPDEST PUSH1 0x0 DUP1 PUSH1 0x0 DUP13 DUP2 MSTORE PUSH1 0x20 ADD SWAP1 DUP2 MSTORE PUSH1 0x20 ADD PUSH1 0x0 KECCAK256 PUSH1 0x7 ADD PUSH1 0x0 DUP12 DUP2 MSTORE PUSH1 0x20 ADD SWAP1 DUP2 MSTORE PUSH1 0x20 ADD PUSH1 0x0 KECCAK256 SWAP1 POP DUP1 PUSH1 0x0 ADD SLOAD DUP2 PUSH1 0x1 ADD PUSH1 0x0 SWAP1 SLOAD SWAP1 PUSH2 0x100 EXP SWAP1 DIV PUSH1 0xFF AND DUP3 PUSH1 0x1 ADD PUSH1 0x1 SWAP1 SLOAD SWAP1 PUSH2 0x100 EXP SWAP1 DIV PUSH1 0xFF AND DUP4 PUSH1 0x1 ADD PUSH1 0x2 SWAP1 SLOAD SWAP1 PUSH2 0x100 EXP SWAP1 DIV PUSH1 0xFF AND DUP5 PUSH1 0x2 ADD DUP6 PUSH1 0x3 ADD PUSH1 0x0 SWAP1 SLOAD SWAP1 PUSH2 0x100 EXP SWAP1 DIV PUSH1 0xFF AND DUP7 PUSH1 0x4 ADD SLOAD DUP8 PUSH1 0x5 ADD PUSH1 0x0 SWAP1 SLOAD SWAP1 PUSH2 0x100 EXP SWAP1 DIV PUSH20 0xFFFFFFFFFFFFFFFFFFFFFFFFFFFFFFFFFFFFFFFF AND DUP4 DUP1 SLOAD PUSH2 0x488D SWAP1 PUSH2 0x57D9 JUMP JUMPDEST DUP1 PUSH1 0x1F ADD PUSH1 0x20 DUP1 SWAP2 DIV MUL PUSH1 0x20 ADD PUSH1 0x40 MLOAD SWAP1 DUP2 ADD PUSH1 0x40 MSTORE DUP1 SWAP3 SWAP2 SWAP1 DUP2 DUP2 MSTORE PUSH1 0x20 ADD DUP3 DUP1 SLOAD PUSH2 0x48B9 SWAP1 PUSH2 0x57D9 JUMP JUMPDEST DUP1 ISZERO PUSH2 0x4906 JUMPI DUP1 PUSH1 0x1F LT PUSH2 0x48DB JUMPI PUSH2 0x100 DUP1 DUP4 SLOAD DIV MUL DUP4 MSTORE SWAP2 PUSH1 0x20 ADD SWAP2 PUSH2 0x4906 JUMP JUMPDEST DUP3 ADD SWAP2 SWAP1 PUSH1 0x0 MSTORE PUSH1 0x20 PUSH1 0x0 KECCAK256 SWAP1 JUMPDEST DUP2 SLOAD DUP2 MSTORE SWAP1 PUSH1 0x1 ADD SWAP1 PUSH1 0x20 ADD DUP1 DUP4 GT PUSH2 0x48E9 JUMPI DUP3 SWAP1 SUB PUSH1 0x1F AND DUP3 ADD SWAP2 JUMPDEST POP POP POP POP POP SWAP4 POP SWAP9 POP SWAP9 POP SWAP9 POP SWAP9 POP SWAP9 POP SWAP9 POP SWAP9 POP SWAP9 POP POP SWAP3 SWAP6 SWAP9 POP SWAP3 SWAP6 SWAP9 SWAP1 SWAP4 SWAP7 POP JUMP JUMPDEST PUSH1 0x7 PUSH1 0x0 SWAP1 SLOAD SWAP1 PUSH2 0x100 EXP SWAP1 DIV PUSH20 0xFFFFFFFFFFFFFFFFFFFFFFFFFFFFFFFFFFFFFFFF AND DUP2 JUMP JUMPDEST PUSH1 0x40 MLOAD DUP1 PUSH2 0x100 ADD PUSH1 0x40 MSTORE DUP1 PUSH1 0x0 DUP2 MSTORE PUSH1 0x20 ADD PUSH1 0x0 PUSH1 0xFF AND DUP2 MSTORE PUSH1 0x20 ADD PUSH1 0x0 PUSH1 0xFF AND DUP2 MSTORE PUSH1 0x20 ADD PUSH1 0x0 PUSH1 0xFF AND DUP2 MSTORE PUSH1 0x20 ADD PUSH1 0x60 DUP2 MSTORE PUSH1 0x20 ADD PUSH1 0x0 ISZERO ISZERO DUP2 MSTORE PUSH1 0x20 ADD PUSH1 0x0 DUP2 MSTORE PUSH1 0x20 ADD PUSH1 0x0 PUSH20 0xFFFFFFFFFFFFFFFFFFFFFFFFFFFFFFFFFFFFFFFF AND DUP2 MSTORE POP SWAP1 JUMP JUMPDEST PUSH1 0x40 MLOAD DUP1 PUSH1 0x60 ADD PUSH1 0x40 MSTORE DUP1 PUSH1 0x0 PUSH20 0xFFFFFFFFFFFFFFFFFFFFFFFFFFFFFFFFFFFFFFFF AND DUP2 MSTORE PUSH1 0x20 ADD PUSH1 0x0 PUSH1 0x2 DUP2 GT ISZERO PUSH2 0x49F3 JUMPI PUSH2 0x49F2 PUSH2 0x538C JUMP JUMPDEST JUMPDEST DUP2 MSTORE PUSH1 0x20 ADD PUSH1 0x0 ISZERO ISZERO DUP2 MSTORE POP SWAP1 JUMP JUMPDEST PUSH1 0x0 PUSH1 0x40 MLOAD SWAP1 POP SWAP1 JUMP JUMPDEST PUSH1 0x0 DUP1 REVERT JUMPDEST PUSH1 0x0 DUP1 REVERT JUMPDEST PUSH1 0x0 DUP2 SWAP1 POP SWAP2 SWAP1 POP JUMP JUMPDEST PUSH2 0x4A29 DUP2 PUSH2 0x4A16 JUMP JUMPDEST DUP2 EQ PUSH2 0x4A34 JUMPI PUSH1 0x0 DUP1 REVERT JUMPDEST POP JUMP JUMPDEST PUSH1 0x0 DUP2 CALLDATALOAD SWAP1 POP PUSH2 0x4A46 DUP2 PUSH2 0x4A20 JUMP JUMPDEST SWAP3 SWAP2 POP POP JUMP JUMPDEST PUSH1 0x0 PUSH1 0x20 DUP3 DUP5 SUB SLT ISZERO PUSH2 0x4A62 JUMPI PUSH2 0x4A61 PUSH2 0x4A0C JUMP JUMPDEST JUMPDEST PUSH1 0x0 PUSH2 0x4A70 DUP5 DUP3 DUP6 ADD PUSH2 0x4A37 JUMP JUMPDEST SWAP2 POP POP SWAP3 SWAP2 POP POP JUMP JUMPDEST PUSH2 0x4A82 DUP2 PUSH2 0x4A16 JUMP JUMPDEST DUP3 MSTORE POP POP JUMP JUMPDEST PUSH1 0x0 DUP2 MLOAD SWAP1 POP SWAP2 SWAP1 POP JUMP JUMPDEST PUSH1 0x0 DUP3 DUP3 MSTORE PUSH1 0x20 DUP3 ADD SWAP1 POP SWAP3 SWAP2 POP POP JUMP JUMPDEST PUSH1 0x0 JUMPDEST DUP4 DUP2 LT ISZERO PUSH2 0x4AC2 JUMPI DUP1 DUP3 ADD MLOAD DUP2 DUP5 ADD MSTORE PUSH1 0x20 DUP2 ADD SWAP1 POP PUSH2 0x4AA7 JUMP JUMPDEST PUSH1 0x0 DUP5 DUP5 ADD MSTORE POP POP POP POP JUMP JUMPDEST PUSH1 0x0 PUSH1 0x1F NOT PUSH1 0x1F DUP4 ADD AND SWAP1 POP SWAP2 SWAP1 POP JUMP JUMPDEST PUSH1 0x0 PUSH2 0x4AEA DUP3 PUSH2 0x4A88 JUMP JUMPDEST PUSH2 0x4AF4 DUP2 DUP6 PUSH2 0x4A93 JUMP JUMPDEST SWAP4 POP PUSH2 0x4B04 DUP2 DUP6 PUSH1 0x20 DUP7 ADD PUSH2 0x4AA4 JUMP JUMPDEST PUSH2 0x4B0D DUP2 PUSH2 0x4ACE JUMP JUMPDEST DUP5 ADD SWAP2 POP POP SWAP3 SWAP2 POP POP JUMP JUMPDEST PUSH1 0x0 DUP2 ISZERO ISZERO SWAP1 POP SWAP2 SWAP1 POP JUMP JUMPDEST PUSH2 0x4B2D DUP2 PUSH2 0x4B18 JUMP JUMPDEST DUP3 MSTORE POP POP JUMP JUMPDEST PUSH1 0x0 PUSH1 0xA0 DUP3 ADD SWAP1 POP PUSH2 0x4B48 PUSH1 0x0 DUP4 ADD DUP9 PUSH2 0x4A79 JUMP JUMPDEST DUP2 DUP2 SUB PUSH1 0x20 DUP4 ADD MSTORE PUSH2 0x4B5A DUP2 DUP8 PUSH2 0x4ADF JUMP JUMPDEST SWAP1 POP DUP2 DUP2 SUB PUSH1 0x40 DUP4 ADD MSTORE PUSH2 0x4B6E DUP2 DUP7 PUSH2 0x4ADF JUMP JUMPDEST SWAP1 POP PUSH2 0x4B7D PUSH1 0x60 DUP4 ADD DUP6 PUSH2 0x4A79 JUMP JUMPDEST PUSH2 0x4B8A PUSH1 0x80 DUP4 ADD DUP5 PUSH2 0x4B24 JUMP JUMPDEST SWAP7 SWAP6 POP POP POP POP POP POP JUMP JUMPDEST PUSH1 0x0 PUSH1 0xC0 DUP3 ADD SWAP1 POP PUSH2 0x4BA9 PUSH1 0x0 DUP4 ADD DUP10 PUSH2 0x4A79 JUMP JUMPDEST DUP2 DUP2 SUB PUSH1 0x20 DUP4 ADD MSTORE PUSH2 0x4BBB DUP2 DUP9 PUSH2 0x4ADF JUMP JUMPDEST SWAP1 POP DUP2 DUP2 SUB PUSH1 0x40 DUP4 ADD MSTORE PUSH2 0x4BCF DUP2 DUP8 PUSH2 0x4ADF JUMP JUMPDEST SWAP1 POP PUSH2 0x4BDE PUSH1 0x60 DUP4 ADD DUP7 PUSH2 0x4A79 JUMP JUMPDEST PUSH2 0x4BEB PUSH1 0x80 DUP4 ADD DUP6 PUSH2 0x4B24 JUMP JUMPDEST PUSH2 0x4BF8 PUSH1 0xA0 DUP4 ADD DUP5 PUSH2 0x4A79 JUMP JUMPDEST SWAP8 SWAP7 POP POP POP POP POP POP POP JUMP JUMPDEST PUSH1 0x0 DUP2 MLOAD SWAP1 POP SWAP2 SWAP1 POP JUMP JUMPDEST PUSH1 0x0 DUP3 DUP3 MSTORE PUSH1 0x20 DUP3 ADD SWAP1 POP SWAP3 SWAP2 POP POP JUMP JUMPDEST PUSH1 0x0 DUP2 SWAP1 POP PUSH1 0x20 DUP3 ADD SWAP1 POP SWAP2 SWAP1 POP JUMP JUMPDEST PUSH2 0x4C38 DUP2 PUSH2 0x4A16 JUMP JUMPDEST DUP3 MSTORE POP POP JUMP JUMPDEST PUSH1 0x0 PUSH2 0x4C4A DUP4 DUP4 PUSH2 0x4C2F JUMP JUMPDEST PUSH1 0x20 DUP4 ADD SWAP1 POP SWAP3 SWAP2 POP POP JUMP JUMPDEST PUSH1 0x0 PUSH1 0x20 DUP3 ADD SWAP1 POP SWAP2 SWAP1 POP JUMP JUMPDEST PUSH1 0x0 PUSH2 0x4C6E DUP3 PUSH2 0x4C03 JUMP JUMPDEST PUSH2 0x4C78 DUP2 DUP6 PUSH2 0x4C0E JUMP JUMPDEST SWAP4 POP PUSH2 0x4C83 DUP4 PUSH2 0x4C1F JUMP JUMPDEST DUP1 PUSH1 0x0 JUMPDEST DUP4 DUP2 LT ISZERO PUSH2 0x4CB4 JUMPI DUP2 MLOAD PUSH2 0x4C9B DUP9 DUP3 PUSH2 0x4C3E JUMP JUMPDEST SWAP8 POP PUSH2 0x4CA6 DUP4 PUSH2 0x4C56 JUMP JUMPDEST SWAP3 POP POP PUSH1 0x1 DUP2 ADD SWAP1 POP PUSH2 0x4C87 JUMP JUMPDEST POP DUP6 SWAP4 POP POP POP POP SWAP3 SWAP2 POP POP JUMP JUMPDEST PUSH1 0x0 PUSH1 0x20 DUP3 ADD SWAP1 POP DUP2 DUP2 SUB PUSH1 0x0 DUP4 ADD MSTORE PUSH2 0x4CDB DUP2 DUP5 PUSH2 0x4C63 JUMP JUMPDEST SWAP1 POP SWAP3 SWAP2 POP POP JUMP JUMPDEST PUSH1 0x0 DUP1 PUSH1 0x0 PUSH1 0x60 DUP5 DUP7 SUB SLT ISZERO PUSH2 0x4CFC JUMPI PUSH2 0x4CFB PUSH2 0x4A0C JUMP JUMPDEST JUMPDEST PUSH1 0x0 PUSH2 0x4D0A DUP7 DUP3 DUP8 ADD PUSH2 0x4A37 JUMP JUMPDEST SWAP4 POP POP PUSH1 0x20 PUSH2 0x4D1B DUP7 DUP3 DUP8 ADD PUSH2 0x4A37 JUMP JUMPDEST SWAP3 POP POP PUSH1 0x40 PUSH2 0x4D2C DUP7 DUP3 DUP8 ADD PUSH2 0x4A37 JUMP JUMPDEST SWAP2 POP POP SWAP3 POP SWAP3 POP SWAP3 JUMP JUMPDEST PUSH1 0x0 PUSH1 0xFF DUP3 AND SWAP1 POP SWAP2 SWAP1 POP JUMP JUMPDEST PUSH2 0x4D4C DUP2 PUSH2 0x4D36 JUMP JUMPDEST DUP3 MSTORE POP POP JUMP JUMPDEST PUSH1 0x0 PUSH20 0xFFFFFFFFFFFFFFFFFFFFFFFFFFFFFFFFFFFFFFFF DUP3 AND SWAP1 POP SWAP2 SWAP1 POP JUMP JUMPDEST PUSH1 0x0 PUSH2 0x4D7D DUP3 PUSH2 0x4D52 JUMP JUMPDEST SWAP1 POP SWAP2 SWAP1 POP JUMP JUMPDEST PUSH2 0x4D8D DUP2 PUSH2 0x4D72 JUMP JUMPDEST DUP3 MSTORE POP POP JUMP JUMPDEST PUSH1 0x0 PUSH2 0x100 DUP3 ADD SWAP1 POP PUSH2 0x4DA9 PUSH1 0x0 DUP4 ADD DUP12 PUSH2 0x4A79 JUMP JUMPDEST PUSH2 0x4DB6 PUSH1 0x20 DUP4 ADD DUP11 PUSH2 0x4D43 JUMP JUMPDEST PUSH2 0x4DC3 PUSH1 0x40 DUP4 ADD DUP10 PUSH2 0x4D43 JUMP JUMPDEST PUSH2 0x4DD0 PUSH1 0x60 DUP4 ADD DUP9 PUSH2 0x4D43 JUMP JUMPDEST DUP2 DUP2 SUB PUSH1 0x80 DUP4 ADD MSTORE PUSH2 0x4DE2 DUP2 DUP8 PUSH2 0x4ADF JUMP JUMPDEST SWAP1 POP PUSH2 0x4DF1 PUSH1 0xA0 DUP4 ADD DUP7 PUSH2 0x4B24 JUMP JUMPDEST PUSH2 0x4DFE PUSH1 0xC0 DUP4 ADD DUP6 PUSH2 0x4A79 JUMP JUMPDEST PUSH2 0x4E0B PUSH1 0xE0 DUP4 ADD DUP5 PUSH2 0x4D84 JUMP JUMPDEST SWAP10 SWAP9 POP POP POP POP POP POP POP POP POP JUMP JUMPDEST PUSH1 0x0 DUP2 MLOAD SWAP1 POP SWAP2 SWAP1 POP JUMP JUMPDEST PUSH1 0x0 DUP3 DUP3 MSTORE PUSH1 0x20 DUP3 ADD SWAP1 POP SWAP3 SWAP2 POP POP JUMP JUMPDEST PUSH1 0x0 DUP2 SWAP1 POP PUSH1 0x20 DUP3 ADD SWAP1 POP SWAP2 SWAP1 POP JUMP JUMPDEST PUSH2 0x4E4D DUP2 PUSH2 0x4D36 JUMP JUMPDEST DUP3 MSTORE POP POP JUMP JUMPDEST PUSH1 0x0 DUP3 DUP3 MSTORE PUSH1 0x20 DUP3 ADD SWAP1 POP SWAP3 SWAP2 POP POP JUMP JUMPDEST PUSH1 0x0 PUSH2 0x4E6F DUP3 PUSH2 0x4A88 JUMP JUMPDEST PUSH2 0x4E79 DUP2 DUP6 PUSH2 0x4E53 JUMP JUMPDEST SWAP4 POP PUSH2 0x4E89 DUP2 DUP6 PUSH1 0x20 DUP7 ADD PUSH2 0x4AA4 JUMP JUMPDEST PUSH2 0x4E92 DUP2 PUSH2 0x4ACE JUMP JUMPDEST DUP5 ADD SWAP2 POP POP SWAP3 SWAP2 POP POP JUMP JUMPDEST PUSH2 0x4EA6 DUP2 PUSH2 0x4B18 JUMP JUMPDEST DUP3 MSTORE POP POP JUMP JUMPDEST PUSH2 0x4EB5 DUP2 PUSH2 0x4D72 JUMP JUMPDEST DUP3 MSTORE POP POP JUMP JUMPDEST PUSH1 0x0 PUSH2 0x100 DUP4 ADD PUSH1 0x0 DUP4 ADD MLOAD PUSH2 0x4ED4 PUSH1 0x0 DUP7 ADD DUP3 PUSH2 0x4C2F JUMP JUMPDEST POP PUSH1 0x20 DUP4 ADD MLOAD PUSH2 0x4EE7 PUSH1 0x20 DUP7 ADD DUP3 PUSH2 0x4E44 JUMP JUMPDEST POP PUSH1 0x40 DUP4 ADD MLOAD PUSH2 0x4EFA PUSH1 0x40 DUP7 ADD DUP3 PUSH2 0x4E44 JUMP JUMPDEST POP PUSH1 0x60 DUP4 ADD MLOAD PUSH2 0x4F0D PUSH1 0x60 DUP7 ADD DUP3 PUSH2 0x4E44 JUMP JUMPDEST POP PUSH1 0x80 DUP4 ADD MLOAD DUP5 DUP3 SUB PUSH1 0x80 DUP7 ADD MSTORE PUSH2 0x4F25 DUP3 DUP3 PUSH2 0x4E64 JUMP JUMPDEST SWAP2 POP POP PUSH1 0xA0 DUP4 ADD MLOAD PUSH2 0x4F3A PUSH1 0xA0 DUP7 ADD DUP3 PUSH2 0x4E9D JUMP JUMPDEST POP PUSH1 0xC0 DUP4 ADD MLOAD PUSH2 0x4F4D PUSH1 0xC0 DUP7 ADD DUP3 PUSH2 0x4C2F JUMP JUMPDEST POP PUSH1 0xE0 DUP4 ADD MLOAD PUSH2 0x4F60 PUSH1 0xE0 DUP7 ADD DUP3 PUSH2 0x4EAC JUMP JUMPDEST POP DUP1 SWAP2 POP POP SWAP3 SWAP2 POP POP JUMP JUMPDEST PUSH1 0x0 PUSH2 0x4F77 DUP4 DUP4 PUSH2 0x4EBB JUMP JUMPDEST SWAP1 POP SWAP3 SWAP2 POP POP JUMP JUMPDEST PUSH1 0x0 PUSH1 0x20 DUP3 ADD SWAP1 POP SWAP2 SWAP1 POP JUMP JUMPDEST PUSH1 0x0 PUSH2 0x4F97 DUP3 PUSH2 0x4E18 JUMP JUMPDEST PUSH2 0x4FA1 DUP2 DUP6 PUSH2 0x4E23 JUMP JUMPDEST SWAP4 POP DUP4 PUSH1 0x20 DUP3 MUL DUP6 ADD PUSH2 0x4FB3 DUP6 PUSH2 0x4E34 JUMP JUMPDEST DUP1 PUSH1 0x0 JUMPDEST DUP6 DUP2 LT ISZERO PUSH2 0x4FEF JUMPI DUP5 DUP5 SUB DUP10 MSTORE DUP2 MLOAD PUSH2 0x4FD0 DUP6 DUP3 PUSH2 0x4F6B JUMP JUMPDEST SWAP5 POP PUSH2 0x4FDB DUP4 PUSH2 0x4F7F JUMP JUMPDEST SWAP3 POP PUSH1 0x20 DUP11 ADD SWAP10 POP POP PUSH1 0x1 DUP2 ADD SWAP1 POP PUSH2 0x4FB7 JUMP JUMPDEST POP DUP3 SWAP8 POP DUP8 SWAP6 POP POP POP POP POP POP SWAP3 SWAP2 POP POP JUMP JUMPDEST PUSH1 0x0 PUSH1 0x20 DUP3 ADD SWAP1 POP DUP2 DUP2 SUB PUSH1 0x0 DUP4 ADD MSTORE PUSH2 0x501B DUP2 DUP5 PUSH2 0x4F8C JUMP JUMPDEST SWAP1 POP SWAP3 SWAP2 POP POP JUMP JUMPDEST PUSH2 0x502C DUP2 PUSH2 0x4D72 JUMP JUMPDEST DUP2 EQ PUSH2 0x5037 JUMPI PUSH1 0x0 DUP1 REVERT JUMPDEST POP JUMP JUMPDEST PUSH1 0x0 DUP2 CALLDATALOAD SWAP1 POP PUSH2 0x5049 DUP2 PUSH2 0x5023 JUMP JUMPDEST SWAP3 SWAP2 POP POP JUMP JUMPDEST PUSH1 0x0 DUP1 PUSH1 0x0 PUSH1 0x60 DUP5 DUP7 SUB SLT ISZERO PUSH2 0x5068 JUMPI PUSH2 0x5067 PUSH2 0x4A0C JUMP JUMPDEST JUMPDEST PUSH1 0x0 PUSH2 0x5076 DUP7 DUP3 DUP8 ADD PUSH2 0x4A37 JUMP JUMPDEST SWAP4 POP POP PUSH1 0x20 PUSH2 0x5087 DUP7 DUP3 DUP8 ADD PUSH2 0x4A37 JUMP JUMPDEST SWAP3 POP POP PUSH1 0x40 PUSH2 0x5098 DUP7 DUP3 DUP8 ADD PUSH2 0x503A JUMP JUMPDEST SWAP2 POP POP SWAP3 POP SWAP3 POP SWAP3 JUMP JUMPDEST PUSH1 0x0 PUSH1 0x20 DUP3 DUP5 SUB SLT ISZERO PUSH2 0x50B8 JUMPI PUSH2 0x50B7 PUSH2 0x4A0C JUMP JUMPDEST JUMPDEST PUSH1 0x0 PUSH2 0x50C6 DUP5 DUP3 DUP6 ADD PUSH2 0x503A JUMP JUMPDEST SWAP2 POP POP SWAP3 SWAP2 POP POP JUMP JUMPDEST PUSH2 0x50D8 DUP2 PUSH2 0x4D36 JUMP JUMPDEST DUP2 EQ PUSH2 0x50E3 JUMPI PUSH1 0x0 DUP1 REVERT JUMPDEST POP JUMP JUMPDEST PUSH1 0x0 DUP2 CALLDATALOAD SWAP1 POP PUSH2 0x50F5 DUP2 PUSH2 0x50CF JUMP JUMPDEST SWAP3 SWAP2 POP POP JUMP JUMPDEST PUSH1 0x0 DUP1 PUSH1 0x0 DUP1 PUSH1 0x0 DUP1 PUSH1 0x0 PUSH1 0xE0 DUP9 DUP11 SUB SLT ISZERO PUSH2 0x511A JUMPI PUSH2 0x5119 PUSH2 0x4A0C JUMP JUMPDEST JUMPDEST PUSH1 0x0 PUSH2 0x5128 DUP11 DUP3 DUP12 ADD PUSH2 0x4A37 JUMP JUMPDEST SWAP8 POP POP PUSH1 0x20 PUSH2 0x5139 DUP11 DUP3 DUP12 ADD PUSH2 0x4A37 JUMP JUMPDEST SWAP7 POP POP PUSH1 0x40 PUSH2 0x514A DUP11 DUP3 DUP12 ADD PUSH2 0x50E6 JUMP JUMPDEST SWAP6 POP POP PUSH1 0x60 PUSH2 0x515B DUP11 DUP3 DUP12 ADD PUSH2 0x50E6 JUMP JUMPDEST SWAP5 POP POP PUSH1 0x80 PUSH2 0x516C DUP11 DUP3 DUP12 ADD PUSH2 0x50E6 JUMP JUMPDEST SWAP4 POP POP PUSH1 0xA0 PUSH2 0x517D DUP11 DUP3 DUP12 ADD PUSH2 0x4A37 JUMP JUMPDEST SWAP3 POP POP PUSH1 0xC0 PUSH2 0x518E DUP11 DUP3 DUP12 ADD PUSH2 0x503A JUMP JUMPDEST SWAP2 POP POP SWAP3 SWAP6 SWAP9 SWAP2 SWAP5 SWAP8 POP SWAP3 SWAP6 POP JUMP JUMPDEST PUSH1 0x0 PUSH1 0x20 DUP3 ADD SWAP1 POP PUSH2 0x51B2 PUSH1 0x0 DUP4 ADD DUP5 PUSH2 0x4A79 JUMP JUMPDEST SWAP3 SWAP2 POP POP JUMP JUMPDEST PUSH1 0x0 DUP1 REVERT JUMPDEST PUSH1 0x0 DUP1 REVERT JUMPDEST PUSH32 0x4E487B7100000000000000000000000000000000000000000000000000000000 PUSH1 0x0 MSTORE PUSH1 0x41 PUSH1 0x4 MSTORE PUSH1 0x24 PUSH1 0x0 REVERT JUMPDEST PUSH2 0x51FA DUP3 PUSH2 0x4ACE JUMP JUMPDEST DUP2 ADD DUP2 DUP2 LT PUSH8 0xFFFFFFFFFFFFFFFF DUP3 GT OR ISZERO PUSH2 0x5219 JUMPI PUSH2 0x5218 PUSH2 0x51C2 JUMP JUMPDEST JUMPDEST DUP1 PUSH1 0x40 MSTORE POP POP POP JUMP JUMPDEST PUSH1 0x0 PUSH2 0x522C PUSH2 0x4A02 JUMP JUMPDEST SWAP1 POP PUSH2 0x5238 DUP3 DUP3 PUSH2 0x51F1 JUMP JUMPDEST SWAP2 SWAP1 POP JUMP JUMPDEST PUSH1 0x0 PUSH8 0xFFFFFFFFFFFFFFFF DUP3 GT ISZERO PUSH2 0x5258 JUMPI PUSH2 0x5257 PUSH2 0x51C2 JUMP JUMPDEST JUMPDEST PUSH2 0x5261 DUP3 PUSH2 0x4ACE JUMP JUMPDEST SWAP1 POP PUSH1 0x20 DUP2 ADD SWAP1 POP SWAP2 SWAP1 POP JUMP JUMPDEST DUP3 DUP2 DUP4 CALLDATACOPY PUSH1 0x0 DUP4 DUP4 ADD MSTORE POP POP POP JUMP JUMPDEST PUSH1 0x0 PUSH2 0x5290 PUSH2 0x528B DUP5 PUSH2 0x523D JUMP JUMPDEST PUSH2 0x5222 JUMP JUMPDEST SWAP1 POP DUP3 DUP2 MSTORE PUSH1 0x20 DUP2 ADD DUP5 DUP5 DUP5 ADD GT ISZERO PUSH2 0x52AC JUMPI PUSH2 0x52AB PUSH2 0x51BD JUMP JUMPDEST JUMPDEST PUSH2 0x52B7 DUP5 DUP3 DUP6 PUSH2 0x526E JUMP JUMPDEST POP SWAP4 SWAP3 POP POP POP JUMP JUMPDEST PUSH1 0x0 DUP3 PUSH1 0x1F DUP4 ADD SLT PUSH2 0x52D4 JUMPI PUSH2 0x52D3 PUSH2 0x51B8 JUMP JUMPDEST JUMPDEST DUP2 CALLDATALOAD PUSH2 0x52E4 DUP5 DUP3 PUSH1 0x20 DUP7 ADD PUSH2 0x527D JUMP JUMPDEST SWAP2 POP POP SWAP3 SWAP2 POP POP JUMP JUMPDEST PUSH1 0x0 DUP1 PUSH1 0x0 DUP1 PUSH1 0x80 DUP6 DUP8 SUB SLT ISZERO PUSH2 0x5307 JUMPI PUSH2 0x5306 PUSH2 0x4A0C JUMP JUMPDEST JUMPDEST PUSH1 0x0 PUSH2 0x5315 DUP8 DUP3 DUP9 ADD PUSH2 0x4A37 JUMP JUMPDEST SWAP5 POP POP PUSH1 0x20 DUP6 ADD CALLDATALOAD PUSH8 0xFFFFFFFFFFFFFFFF DUP2 GT ISZERO PUSH2 0x5336 JUMPI PUSH2 0x5335 PUSH2 0x4A11 JUMP JUMPDEST JUMPDEST PUSH2 0x5342 DUP8 DUP3 DUP9 ADD PUSH2 0x52BF JUMP JUMPDEST SWAP4 POP POP PUSH1 0x40 DUP6 ADD CALLDATALOAD PUSH8 0xFFFFFFFFFFFFFFFF DUP2 GT ISZERO PUSH2 0x5363 JUMPI PUSH2 0x5362 PUSH2 0x4A11 JUMP JUMPDEST JUMPDEST PUSH2 0x536F DUP8 DUP3 DUP9 ADD PUSH2 0x52BF JUMP JUMPDEST SWAP3 POP POP PUSH1 0x60 PUSH2 0x5380 DUP8 DUP3 DUP9 ADD PUSH2 0x4A37 JUMP JUMPDEST SWAP2 POP POP SWAP3 SWAP6 SWAP2 SWAP5 POP SWAP3 POP JUMP JUMPDEST PUSH32 0x4E487B7100000000000000000000000000000000000000000000000000000000 PUSH1 0x0 MSTORE PUSH1 0x21 PUSH1 0x4 MSTORE PUSH1 0x24 PUSH1 0x0 REVERT JUMPDEST PUSH1 0x3 DUP2 LT PUSH2 0x53CC JUMPI PUSH2 0x53CB PUSH2 0x538C JUMP JUMPDEST JUMPDEST POP JUMP JUMPDEST PUSH1 0x0 DUP2 SWAP1 POP PUSH2 0x53DD DUP3 PUSH2 0x53BB JUMP JUMPDEST SWAP2 SWAP1 POP JUMP JUMPDEST PUSH1 0x0 PUSH2 0x53ED DUP3 PUSH2 0x53CF JUMP JUMPDEST SWAP1 POP SWAP2 SWAP1 POP JUMP JUMPDEST PUSH2 0x53FD DUP2 PUSH2 0x53E2 JUMP JUMPDEST DUP3 MSTORE POP POP JUMP JUMPDEST PUSH1 0x60 DUP3 ADD PUSH1 0x0 DUP3 ADD MLOAD PUSH2 0x5419 PUSH1 0x0 DUP6 ADD DUP3 PUSH2 0x4EAC JUMP JUMPDEST POP PUSH1 0x20 DUP3 ADD MLOAD PUSH2 0x542C PUSH1 0x20 DUP6 ADD DUP3 PUSH2 0x53F4 JUMP JUMPDEST POP PUSH1 0x40 DUP3 ADD MLOAD PUSH2 0x543F PUSH1 0x40 DUP6 ADD DUP3 PUSH2 0x4E9D JUMP JUMPDEST POP POP POP POP JUMP JUMPDEST PUSH1 0x0 PUSH1 0x60 DUP3 ADD SWAP1 POP PUSH2 0x545A PUSH1 0x0 DUP4 ADD DUP5 PUSH2 0x5403 JUMP JUMPDEST SWAP3 SWAP2 POP POP JUMP JUMPDEST PUSH1 0x3 DUP2 LT PUSH2 0x546D JUMPI PUSH1 0x0 DUP1 REVERT JUMPDEST POP JUMP JUMPDEST PUSH1 0x0 DUP2 CALLDATALOAD SWAP1 POP PUSH2 0x547F DUP2 PUSH2 0x5460 JUMP JUMPDEST SWAP3 SWAP2 POP POP JUMP JUMPDEST PUSH1 0x0 DUP1 PUSH1 0x40 DUP4 DUP6 SUB SLT ISZERO PUSH2 0x549C JUMPI PUSH2 0x549B PUSH2 0x4A0C JUMP JUMPDEST JUMPDEST PUSH1 0x0 PUSH2 0x54AA DUP6 DUP3 DUP7 ADD PUSH2 0x503A JUMP JUMPDEST SWAP3 POP POP PUSH1 0x20 PUSH2 0x54BB DUP6 DUP3 DUP7 ADD PUSH2 0x5470 JUMP JUMPDEST SWAP2 POP POP SWAP3 POP SWAP3 SWAP1 POP JUMP JUMPDEST PUSH1 0x0 DUP1 PUSH1 0x0 PUSH1 0x60 DUP5 DUP7 SUB SLT ISZERO PUSH2 0x54DE JUMPI PUSH2 0x54DD PUSH2 0x4A0C JUMP JUMPDEST JUMPDEST PUSH1 0x0 DUP5 ADD CALLDATALOAD PUSH8 0xFFFFFFFFFFFFFFFF DUP2 GT ISZERO PUSH2 0x54FC JUMPI PUSH2 0x54FB PUSH2 0x4A11 JUMP JUMPDEST JUMPDEST PUSH2 0x5508 DUP7 DUP3 DUP8 ADD PUSH2 0x52BF JUMP JUMPDEST SWAP4 POP POP PUSH1 0x20 DUP5 ADD CALLDATALOAD PUSH8 0xFFFFFFFFFFFFFFFF DUP2 GT ISZERO PUSH2 0x5529 JUMPI PUSH2 0x5528 PUSH2 0x4A11 JUMP JUMPDEST JUMPDEST PUSH2 0x5535 DUP7 DUP3 DUP8 ADD PUSH2 0x52BF JUMP JUMPDEST SWAP3 POP POP PUSH1 0x40 PUSH2 0x5546 DUP7 DUP3 DUP8 ADD PUSH2 0x4A37 JUMP JUMPDEST SWAP2 POP POP SWAP3 POP SWAP3 POP SWAP3 JUMP JUMPDEST PUSH2 0x5559 DUP2 PUSH2 0x53E2 JUMP JUMPDEST DUP3 MSTORE POP POP JUMP JUMPDEST PUSH1 0x0 PUSH1 0x60 DUP3 ADD SWAP1 POP PUSH2 0x5574 PUSH1 0x0 DUP4 ADD DUP7 PUSH2 0x4D84 JUMP JUMPDEST PUSH2 0x5581 PUSH1 0x20 DUP4 ADD DUP6 PUSH2 0x5550 JUMP JUMPDEST PUSH2 0x558E PUSH1 0x40 DUP4 ADD DUP5 PUSH2 0x4B24 JUMP JUMPDEST SWAP5 SWAP4 POP POP POP POP JUMP JUMPDEST PUSH1 0x0 DUP1 PUSH1 0x0 DUP1 PUSH1 0x0 DUP1 PUSH1 0xC0 DUP8 DUP10 SUB SLT ISZERO PUSH2 0x55B3 JUMPI PUSH2 0x55B2 PUSH2 0x4A0C JUMP JUMPDEST JUMPDEST PUSH1 0x0 PUSH2 0x55C1 DUP10 DUP3 DUP11 ADD PUSH2 0x4A37 JUMP JUMPDEST SWAP7 POP POP PUSH1 0x20 PUSH2 0x55D2 DUP10 DUP3 DUP11 ADD PUSH2 0x50E6 JUMP JUMPDEST SWAP6 POP POP PUSH1 0x40 PUSH2 0x55E3 DUP10 DUP3 DUP11 ADD PUSH2 0x50E6 JUMP JUMPDEST SWAP5 POP POP PUSH1 0x60 PUSH2 0x55F4 DUP10 DUP3 DUP11 ADD PUSH2 0x50E6 JUMP JUMPDEST SWAP4 POP POP PUSH1 0x80 PUSH2 0x5605 DUP10 DUP3 DUP11 ADD PUSH2 0x4A37 JUMP JUMPDEST SWAP3 POP POP PUSH1 0xA0 PUSH2 0x5616 DUP10 DUP3 DUP11 ADD PUSH2 0x503A JUMP JUMPDEST SWAP2 POP POP SWAP3 SWAP6 POP SWAP3 SWAP6 POP SWAP3 SWAP6 JUMP JUMPDEST PUSH1 0x0 PUSH1 0x20 DUP3 ADD SWAP1 POP PUSH2 0x5638 PUSH1 0x0 DUP4 ADD DUP5 PUSH2 0x4B24 JUMP JUMPDEST SWAP3 SWAP2 POP POP JUMP JUMPDEST PUSH1 0x0 PUSH8 0xFFFFFFFFFFFFFFFF DUP3 GT ISZERO PUSH2 0x5659 JUMPI PUSH2 0x5658 PUSH2 0x51C2 JUMP JUMPDEST JUMPDEST PUSH1 0x20 DUP3 MUL SWAP1 POP PUSH1 0x20 DUP2 ADD SWAP1 POP SWAP2 SWAP1 POP JUMP JUMPDEST PUSH1 0x0 DUP1 REVERT JUMPDEST PUSH1 0x0 PUSH2 0x5682 PUSH2 0x567D DUP5 PUSH2 0x563E JUMP JUMPDEST PUSH2 0x5222 JUMP JUMPDEST SWAP1 POP DUP1 DUP4 DUP3 MSTORE PUSH1 0x20 DUP3 ADD SWAP1 POP PUSH1 0x20 DUP5 MUL DUP4 ADD DUP6 DUP2 GT ISZERO PUSH2 0x56A5 JUMPI PUSH2 0x56A4 PUSH2 0x566A JUMP JUMPDEST JUMPDEST DUP4 JUMPDEST DUP2 DUP2 LT ISZERO PUSH2 0x56CE JUMPI DUP1 PUSH2 0x56BA DUP9 DUP3 PUSH2 0x4A37 JUMP JUMPDEST DUP5 MSTORE PUSH1 0x20 DUP5 ADD SWAP4 POP POP PUSH1 0x20 DUP2 ADD SWAP1 POP PUSH2 0x56A7 JUMP JUMPDEST POP POP POP SWAP4 SWAP3 POP POP POP JUMP JUMPDEST PUSH1 0x0 DUP3 PUSH1 0x1F DUP4 ADD SLT PUSH2 0x56ED JUMPI PUSH2 0x56EC PUSH2 0x51B8 JUMP JUMPDEST JUMPDEST DUP2 CALLDATALOAD PUSH2 0x56FD DUP5 DUP3 PUSH1 0x20 DUP7 ADD PUSH2 0x566F JUMP JUMPDEST SWAP2 POP POP SWAP3 SWAP2 POP POP JUMP JUMPDEST PUSH1 0x0 PUSH1 0x20 DUP3 DUP5 SUB SLT ISZERO PUSH2 0x571C JUMPI PUSH2 0x571B PUSH2 0x4A0C JUMP JUMPDEST JUMPDEST PUSH1 0x0 DUP3 ADD CALLDATALOAD PUSH8 0xFFFFFFFFFFFFFFFF DUP2 GT ISZERO PUSH2 0x573A JUMPI PUSH2 0x5739 PUSH2 0x4A11 JUMP JUMPDEST JUMPDEST PUSH2 0x5746 DUP5 DUP3 DUP6 ADD PUSH2 0x56D8 JUMP JUMPDEST SWAP2 POP POP SWAP3 SWAP2 POP POP JUMP JUMPDEST PUSH1 0x0 DUP1 PUSH1 0x40 DUP4 DUP6 SUB SLT ISZERO PUSH2 0x5766 JUMPI PUSH2 0x5765 PUSH2 0x4A0C JUMP JUMPDEST JUMPDEST PUSH1 0x0 PUSH2 0x5774 DUP6 DUP3 DUP7 ADD PUSH2 0x4A37 JUMP JUMPDEST SWAP3 POP POP PUSH1 0x20 PUSH2 0x5785 DUP6 DUP3 DUP7 ADD PUSH2 0x4A37 JUMP JUMPDEST SWAP2 POP POP SWAP3 POP SWAP3 SWAP1 POP JUMP JUMPDEST PUSH1 0x0 PUSH1 0x20 DUP3 ADD SWAP1 POP PUSH2 0x57A4 PUSH1 0x0 DUP4 ADD DUP5 PUSH2 0x4D84 JUMP JUMPDEST SWAP3 SWAP2 POP POP JUMP JUMPDEST PUSH32 0x4E487B7100000000000000000000000000000000000000000000000000000000 PUSH1 0x0 MSTORE PUSH1 0x22 PUSH1 0x4 MSTORE PUSH1 0x24 PUSH1 0x0 REVERT JUMPDEST PUSH1 0x0 PUSH1 0x2 DUP3 DIV SWAP1 POP PUSH1 0x1 DUP3 AND DUP1 PUSH2 0x57F1 JUMPI PUSH1 0x7F DUP3 AND SWAP2 POP JUMPDEST PUSH1 0x20 DUP3 LT DUP2 SUB PUSH2 0x5804 JUMPI PUSH2 0x5803 PUSH2 0x57AA JUMP JUMPDEST JUMPDEST POP SWAP2 SWAP1 POP JUMP JUMPDEST PUSH32 0x496E76616C696420636F75727365204944000000000000000000000000000000 PUSH1 0x0 DUP3 ADD MSTORE POP JUMP JUMPDEST PUSH1 0x0 PUSH2 0x5840 PUSH1 0x11 DUP4 PUSH2 0x4A93 JUMP JUMPDEST SWAP2 POP PUSH2 0x584B DUP3 PUSH2 0x580A JUMP JUMPDEST PUSH1 0x20 DUP3 ADD SWAP1 POP SWAP2 SWAP1 POP JUMP JUMPDEST PUSH1 0x0 PUSH1 0x20 DUP3 ADD SWAP1 POP DUP2 DUP2 SUB PUSH1 0x0 DUP4 ADD MSTORE PUSH2 0x586F DUP2 PUSH2 0x5833 JUMP JUMPDEST SWAP1 POP SWAP2 SWAP1 POP JUMP JUMPDEST PUSH32 0x4E487B7100000000000000000000000000000000000000000000000000000000 PUSH1 0x0 MSTORE PUSH1 0x32 PUSH1 0x4 MSTORE PUSH1 0x24 PUSH1 0x0 REVERT JUMPDEST PUSH32 0x4E487B7100000000000000000000000000000000000000000000000000000000 PUSH1 0x0 MSTORE PUSH1 0x11 PUSH1 0x4 MSTORE PUSH1 0x24 PUSH1 0x0 REVERT JUMPDEST PUSH1 0x0 PUSH2 0x58DF DUP3 PUSH2 0x4A16 JUMP JUMPDEST SWAP2 POP PUSH32 0xFFFFFFFFFFFFFFFFFFFFFFFFFFFFFFFFFFFFFFFFFFFFFFFFFFFFFFFFFFFFFFFF DUP3 SUB PUSH2 0x5911 JUMPI PUSH2 0x5910 PUSH2 0x58A5 JUMP JUMPDEST JUMPDEST PUSH1 0x1 DUP3 ADD SWAP1 POP SWAP2 SWAP1 POP JUMP JUMPDEST PUSH32 0x436F7572736520646F6573206E6F74206578697374206F722068617320626565 PUSH1 0x0 DUP3 ADD MSTORE PUSH32 0x6E2064656C657465640000000000000000000000000000000000000000000000 PUSH1 0x20 DUP3 ADD MSTORE POP JUMP JUMPDEST PUSH1 0x0 PUSH2 0x5978 PUSH1 0x29 DUP4 PUSH2 0x4A93 JUMP JUMPDEST SWAP2 POP PUSH2 0x5983 DUP3 PUSH2 0x591C JUMP JUMPDEST PUSH1 0x40 DUP3 ADD SWAP1 POP SWAP2 SWAP1 POP JUMP JUMPDEST PUSH1 0x0 PUSH1 0x20 DUP3 ADD SWAP1 POP DUP2 DUP2 SUB PUSH1 0x0 DUP4 ADD MSTORE PUSH2 0x59A7 DUP2 PUSH2 0x596B JUMP JUMPDEST SWAP1 POP SWAP2 SWAP1 POP JUMP JUMPDEST PUSH32 0x496E76616C6964207363686564756C6520494400000000000000000000000000 PUSH1 0x0 DUP3 ADD MSTORE POP JUMP JUMPDEST PUSH1 0x0 PUSH2 0x59E4 PUSH1 0x13 DUP4 PUSH2 0x4A93 JUMP JUMPDEST SWAP2 POP PUSH2 0x59EF DUP3 PUSH2 0x59AE JUMP JUMPDEST PUSH1 0x20 DUP3 ADD SWAP1 POP SWAP2 SWAP1 POP JUMP JUMPDEST PUSH1 0x0 PUSH1 0x20 DUP3 ADD SWAP1 POP DUP2 DUP2 SUB PUSH1 0x0 DUP4 ADD MSTORE PUSH2 0x5A13 DUP2 PUSH2 0x59D7 JUMP JUMPDEST SWAP1 POP SWAP2 SWAP1 POP JUMP JUMPDEST PUSH32 0x496E76616C696420636C617373726F6F6D204944000000000000000000000000 PUSH1 0x0 DUP3 ADD MSTORE POP JUMP JUMPDEST PUSH1 0x0 PUSH2 0x5A50 PUSH1 0x14 DUP4 PUSH2 0x4A93 JUMP JUMPDEST SWAP2 POP PUSH2 0x5A5B DUP3 PUSH2 0x5A1A JUMP JUMPDEST PUSH1 0x20 DUP3 ADD SWAP1 POP SWAP2 SWAP1 POP JUMP JUMPDEST PUSH1 0x0 PUSH1 0x20 DUP3 ADD SWAP1 POP DUP2 DUP2 SUB PUSH1 0x0 DUP4 ADD MSTORE PUSH2 0x5A7F DUP2 PUSH2 0x5A43 JUMP JUMPDEST SWAP1 POP SWAP2 SWAP1 POP JUMP JUMPDEST PUSH32 0x436C617373726F6F6D20646F6573206E6F74206578697374206F722068617320 PUSH1 0x0 DUP3 ADD MSTORE PUSH32 0x6265656E2064656C657465640000000000000000000000000000000000000000 PUSH1 0x20 DUP3 ADD MSTORE POP JUMP JUMPDEST PUSH1 0x0 PUSH2 0x5AE2 PUSH1 0x2C DUP4 PUSH2 0x4A93 JUMP JUMPDEST SWAP2 POP PUSH2 0x5AED DUP3 PUSH2 0x5A86 JUMP JUMPDEST PUSH1 0x40 DUP3 ADD SWAP1 POP SWAP2 SWAP1 POP JUMP JUMPDEST PUSH1 0x0 PUSH1 0x20 DUP3 ADD SWAP1 POP DUP2 DUP2 SUB PUSH1 0x0 DUP4 ADD MSTORE PUSH2 0x5B11 DUP2 PUSH2 0x5AD5 JUMP JUMPDEST SWAP1 POP SWAP2 SWAP1 POP JUMP JUMPDEST PUSH32 0x5363686564756C6520646F6573206E6F74206578697374206F72206861732062 PUSH1 0x0 DUP3 ADD MSTORE PUSH32 0x65656E2064656C65746564000000000000000000000000000000000000000000 PUSH1 0x20 DUP3 ADD MSTORE POP JUMP JUMPDEST PUSH1 0x0 PUSH2 0x5B74 PUSH1 0x2B DUP4 PUSH2 0x4A93 JUMP JUMPDEST SWAP2 POP PUSH2 0x5B7F DUP3 PUSH2 0x5B18 JUMP JUMPDEST PUSH1 0x40 DUP3 ADD SWAP1 POP SWAP2 SWAP1 POP JUMP JUMPDEST PUSH1 0x0 PUSH1 0x20 DUP3 ADD SWAP1 POP DUP2 DUP2 SUB PUSH1 0x0 DUP4 ADD MSTORE PUSH2 0x5BA3 DUP2 PUSH2 0x5B67 JUMP JUMPDEST SWAP1 POP SWAP2 SWAP1 POP JUMP JUMPDEST PUSH1 0x0 PUSH1 0x40 DUP3 ADD SWAP1 POP PUSH2 0x5BBF PUSH1 0x0 DUP4 ADD DUP6 PUSH2 0x4A79 JUMP JUMPDEST PUSH2 0x5BCC PUSH1 0x20 DUP4 ADD DUP5 PUSH2 0x4A79 JUMP JUMPDEST SWAP4 SWAP3 POP POP POP JUMP JUMPDEST PUSH32 0x4F6E6C792061646D696E6973747261746F72732063616E2061737369676E2070 PUSH1 0x0 DUP3 ADD MSTORE PUSH32 0x726F666573736F72730000000000000000000000000000000000000000000000 PUSH1 0x20 DUP3 ADD MSTORE POP JUMP JUMPDEST PUSH1 0x0 PUSH2 0x5C2F PUSH1 0x29 DUP4 PUSH2 0x4A93 JUMP JUMPDEST SWAP2 POP PUSH2 0x5C3A DUP3 PUSH2 0x5BD3 JUMP JUMPDEST PUSH1 0x40 DUP3 ADD SWAP1 POP SWAP2 SWAP1 POP JUMP JUMPDEST PUSH1 0x0 PUSH1 0x20 DUP3 ADD SWAP1 POP DUP2 DUP2 SUB PUSH1 0x0 DUP4 ADD MSTORE PUSH2 0x5C5E DUP2 PUSH2 0x5C22 JUMP JUMPDEST SWAP1 POP SWAP2 SWAP1 POP JUMP JUMPDEST PUSH32 0x50726F666573736F72206D757374206265207265676973746572656400000000 PUSH1 0x0 DUP3 ADD MSTORE POP JUMP JUMPDEST PUSH1 0x0 PUSH2 0x5C9B PUSH1 0x1C DUP4 PUSH2 0x4A93 JUMP JUMPDEST SWAP2 POP PUSH2 0x5CA6 DUP3 PUSH2 0x5C65 JUMP JUMPDEST PUSH1 0x20 DUP3 ADD SWAP1 POP SWAP2 SWAP1 POP JUMP JUMPDEST PUSH1 0x0 PUSH1 0x20 DUP3 ADD SWAP1 POP DUP2 DUP2 SUB PUSH1 0x0 DUP4 ADD MSTORE PUSH2 0x5CCA DUP2 PUSH2 0x5C8E JUMP JUMPDEST SWAP1 POP SWAP2 SWAP1 POP JUMP JUMPDEST PUSH32 0x41737369676E65642075736572206D75737420626520612070726F666573736F PUSH1 0x0 DUP3 ADD MSTORE PUSH32 0x7200000000000000000000000000000000000000000000000000000000000000 PUSH1 0x20 DUP3 ADD MSTORE POP JUMP JUMPDEST PUSH1 0x0 PUSH2 0x5D2D PUSH1 0x21 DUP4 PUSH2 0x4A93 JUMP JUMPDEST SWAP2 POP PUSH2 0x5D38 DUP3 PUSH2 0x5CD1 JUMP JUMPDEST PUSH1 0x40 DUP3 ADD SWAP1 POP SWAP2 SWAP1 POP JUMP JUMPDEST PUSH1 0x0 PUSH1 0x20 DUP3 ADD SWAP1 POP DUP2 DUP2 SUB PUSH1 0x0 DUP4 ADD MSTORE PUSH2 0x5D5C DUP2 PUSH2 0x5D20 JUMP JUMPDEST SWAP1 POP SWAP2 SWAP1 POP JUMP JUMPDEST PUSH1 0x0 PUSH1 0x40 DUP3 ADD SWAP1 POP PUSH2 0x5D78 PUSH1 0x0 DUP4 ADD DUP6 PUSH2 0x4A79 JUMP JUMPDEST PUSH2 0x5D85 PUSH1 0x20 DUP4 ADD DUP5 PUSH2 0x4D84 JUMP JUMPDEST SWAP4 SWAP3 POP POP POP JUMP JUMPDEST PUSH32 0x50726F666573736F72206E6F7420726567697374657265640000000000000000 PUSH1 0x0 DUP3 ADD MSTORE POP JUMP JUMPDEST PUSH1 0x0 PUSH2 0x5DC2 PUSH1 0x18 DUP4 PUSH2 0x4A93 JUMP JUMPDEST SWAP2 POP PUSH2 0x5DCD DUP3 PUSH2 0x5D8C JUMP JUMPDEST PUSH1 0x20 DUP3 ADD SWAP1 POP SWAP2 SWAP1 POP JUMP JUMPDEST PUSH1 0x0 PUSH1 0x20 DUP3 ADD SWAP1 POP DUP2 DUP2 SUB PUSH1 0x0 DUP4 ADD MSTORE PUSH2 0x5DF1 DUP2 PUSH2 0x5DB5 JUMP JUMPDEST SWAP1 POP SWAP2 SWAP1 POP JUMP JUMPDEST PUSH32 0x55736572206D75737420626520612070726F666573736F720000000000000000 PUSH1 0x0 DUP3 ADD MSTORE POP JUMP JUMPDEST PUSH1 0x0 PUSH2 0x5E2E PUSH1 0x18 DUP4 PUSH2 0x4A93 JUMP JUMPDEST SWAP2 POP PUSH2 0x5E39 DUP3 PUSH2 0x5DF8 JUMP JUMPDEST PUSH1 0x20 DUP3 ADD SWAP1 POP SWAP2 SWAP1 POP JUMP JUMPDEST PUSH1 0x0 PUSH1 0x20 DUP3 ADD SWAP1 POP DUP2 DUP2 SUB PUSH1 0x0 DUP4 ADD MSTORE PUSH2 0x5E5D DUP2 PUSH2 0x5E21 JUMP JUMPDEST SWAP1 POP SWAP2 SWAP1 POP JUMP JUMPDEST PUSH32 0x496E76616C696420646179000000000000000000000000000000000000000000 PUSH1 0x0 DUP3 ADD MSTORE POP JUMP JUMPDEST PUSH1 0x0 PUSH2 0x5E9A PUSH1 0xB DUP4 PUSH2 0x4A93 JUMP JUMPDEST SWAP2 POP PUSH2 0x5EA5 DUP3 PUSH2 0x5E64 JUMP JUMPDEST PUSH1 0x20 DUP3 ADD SWAP1 POP SWAP2 SWAP1 POP JUMP JUMPDEST PUSH1 0x0 PUSH1 0x20 DUP3 ADD SWAP1 POP DUP2 DUP2 SUB PUSH1 0x0 DUP4 ADD MSTORE PUSH2 0x5EC9 DUP2 PUSH2 0x5E8D JUMP JUMPDEST SWAP1 POP SWAP2 SWAP1 POP JUMP JUMPDEST PUSH32 0x496E76616C6964207363686564756C6500000000000000000000000000000000 PUSH1 0x0 DUP3 ADD MSTORE POP JUMP JUMPDEST PUSH1 0x0 PUSH2 0x5F06 PUSH1 0x10 DUP4 PUSH2 0x4A93 JUMP JUMPDEST SWAP2 POP PUSH2 0x5F11 DUP3 PUSH2 0x5ED0 JUMP JUMPDEST PUSH1 0x20 DUP3 ADD SWAP1 POP SWAP2 SWAP1 POP JUMP JUMPDEST PUSH1 0x0 PUSH1 0x20 DUP3 ADD SWAP1 POP DUP2 DUP2 SUB PUSH1 0x0 DUP4 ADD MSTORE PUSH2 0x5F35 DUP2 PUSH2 0x5EF9 JUMP JUMPDEST SWAP1 POP SWAP2 SWAP1 POP JUMP JUMPDEST PUSH1 0x0 PUSH1 0xA0 DUP3 ADD SWAP1 POP PUSH2 0x5F51 PUSH1 0x0 DUP4 ADD DUP9 PUSH2 0x4A79 JUMP JUMPDEST PUSH2 0x5F5E PUSH1 0x20 DUP4 ADD DUP8 PUSH2 0x4A79 JUMP JUMPDEST PUSH2 0x5F6B PUSH1 0x40 DUP4 ADD DUP7 PUSH2 0x4D43 JUMP JUMPDEST PUSH2 0x5F78 PUSH1 0x60 DUP4 ADD DUP6 PUSH2 0x4D43 JUMP JUMPDEST PUSH2 0x5F85 PUSH1 0x80 DUP4 ADD DUP5 PUSH2 0x4D43 JUMP JUMPDEST SWAP7 SWAP6 POP POP POP POP POP POP JUMP JUMPDEST PUSH32 0x4F6E6C792061646D696E6973747261746F72732063616E207570646174652063 PUSH1 0x0 DUP3 ADD MSTORE PUSH32 0x6C617373726F6F6D730000000000000000000000000000000000000000000000 PUSH1 0x20 DUP3 ADD MSTORE POP JUMP JUMPDEST PUSH1 0x0 PUSH2 0x5FEB PUSH1 0x29 DUP4 PUSH2 0x4A93 JUMP JUMPDEST SWAP2 POP PUSH2 0x5FF6 DUP3 PUSH2 0x5F8F JUMP JUMPDEST PUSH1 0x40 DUP3 ADD SWAP1 POP SWAP2 SWAP1 POP JUMP JUMPDEST PUSH1 0x0 PUSH1 0x20 DUP3 ADD SWAP1 POP DUP2 DUP2 SUB PUSH1 0x0 DUP4 ADD MSTORE PUSH2 0x601A DUP2 PUSH2 0x5FDE JUMP JUMPDEST SWAP1 POP SWAP2 SWAP1 POP JUMP JUMPDEST PUSH1 0x0 DUP2 SWAP1 POP DUP2 PUSH1 0x0 MSTORE PUSH1 0x20 PUSH1 0x0 KECCAK256 SWAP1 POP SWAP2 SWAP1 POP JUMP JUMPDEST PUSH1 0x0 PUSH1 0x20 PUSH1 0x1F DUP4 ADD DIV SWAP1 POP SWAP2 SWAP1 POP JUMP JUMPDEST PUSH1 0x0 DUP3 DUP3 SHL SWAP1 POP SWAP3 SWAP2 POP POP JUMP JUMPDEST PUSH1 0x0 PUSH1 0x8 DUP4 MUL PUSH2 0x6083 PUSH32 0xFFFFFFFFFFFFFFFFFFFFFFFFFFFFFFFFFFFFFFFFFFFFFFFFFFFFFFFFFFFFFFFF DUP3 PUSH2 0x6046 JUMP JUMPDEST PUSH2 0x608D DUP7 DUP4 PUSH2 0x6046 JUMP JUMPDEST SWAP6 POP DUP1 NOT DUP5 AND SWAP4 POP DUP1 DUP7 AND DUP5 OR SWAP3 POP POP POP SWAP4 SWAP3 POP POP POP JUMP JUMPDEST PUSH1 0x0 DUP2 SWAP1 POP SWAP2 SWAP1 POP JUMP JUMPDEST PUSH1 0x0 PUSH2 0x60CA PUSH2 0x60C5 PUSH2 0x60C0 DUP5 PUSH2 0x4A16 JUMP JUMPDEST PUSH2 0x60A5 JUMP JUMPDEST PUSH2 0x4A16 JUMP JUMPDEST SWAP1 POP SWAP2 SWAP1 POP JUMP JUMPDEST PUSH1 0x0 DUP2 SWAP1 POP SWAP2 SWAP1 POP JUMP JUMPDEST PUSH2 0x60E4 DUP4 PUSH2 0x60AF JUMP JUMPDEST PUSH2 0x60F8 PUSH2 0x60F0 DUP3 PUSH2 0x60D1 JUMP JUMPDEST DUP5 DUP5 SLOAD PUSH2 0x6053 JUMP JUMPDEST DUP3 SSTORE POP POP POP POP JUMP JUMPDEST PUSH1 0x0 SWAP1 JUMP JUMPDEST PUSH2 0x610D PUSH2 0x6100 JUMP JUMPDEST PUSH2 0x6118 DUP2 DUP5 DUP5 PUSH2 0x60DB JUMP JUMPDEST POP POP POP JUMP JUMPDEST JUMPDEST DUP2 DUP2 LT ISZERO PUSH2 0x613C JUMPI PUSH2 0x6131 PUSH1 0x0 DUP3 PUSH2 0x6105 JUMP JUMPDEST PUSH1 0x1 DUP2 ADD SWAP1 POP PUSH2 0x611E JUMP JUMPDEST POP POP JUMP JUMPDEST PUSH1 0x1F DUP3 GT ISZERO PUSH2 0x6181 JUMPI PUSH2 0x6152 DUP2 PUSH2 0x6021 JUMP JUMPDEST PUSH2 0x615B DUP5 PUSH2 0x6036 JUMP JUMPDEST DUP2 ADD PUSH1 0x20 DUP6 LT ISZERO PUSH2 0x616A JUMPI DUP2 SWAP1 POP JUMPDEST PUSH2 0x617E PUSH2 0x6176 DUP6 PUSH2 0x6036 JUMP JUMPDEST DUP4 ADD DUP3 PUSH2 0x611D JUMP JUMPDEST POP POP JUMPDEST POP POP POP JUMP JUMPDEST PUSH1 0x0 DUP3 DUP3 SHR SWAP1 POP SWAP3 SWAP2 POP POP JUMP JUMPDEST PUSH1 0x0 PUSH2 0x61A4 PUSH1 0x0 NOT DUP5 PUSH1 0x8 MUL PUSH2 0x6186 JUMP JUMPDEST NOT DUP1 DUP4 AND SWAP2 POP POP SWAP3 SWAP2 POP POP JUMP JUMPDEST PUSH1 0x0 PUSH2 0x61BD DUP4 DUP4 PUSH2 0x6193 JUMP JUMPDEST SWAP2 POP DUP3 PUSH1 0x2 MUL DUP3 OR SWAP1 POP SWAP3 SWAP2 POP POP JUMP JUMPDEST PUSH2 0x61D6 DUP3 PUSH2 0x4A88 JUMP JUMPDEST PUSH8 0xFFFFFFFFFFFFFFFF DUP2 GT ISZERO PUSH2 0x61EF JUMPI PUSH2 0x61EE PUSH2 0x51C2 JUMP JUMPDEST JUMPDEST PUSH2 0x61F9 DUP3 SLOAD PUSH2 0x57D9 JUMP JUMPDEST PUSH2 0x6204 DUP3 DUP3 DUP6 PUSH2 0x6140 JUMP JUMPDEST PUSH1 0x0 PUSH1 0x20 SWAP1 POP PUSH1 0x1F DUP4 GT PUSH1 0x1 DUP2 EQ PUSH2 0x6237 JUMPI PUSH1 0x0 DUP5 ISZERO PUSH2 0x6225 JUMPI DUP3 DUP8 ADD MLOAD SWAP1 POP JUMPDEST PUSH2 0x622F DUP6 DUP3 PUSH2 0x61B1 JUMP JUMPDEST DUP7 SSTORE POP PUSH2 0x6297 JUMP JUMPDEST PUSH1 0x1F NOT DUP5 AND PUSH2 0x6245 DUP7 PUSH2 0x6021 JUMP JUMPDEST PUSH1 0x0 JUMPDEST DUP3 DUP2 LT ISZERO PUSH2 0x626D JUMPI DUP5 DUP10 ADD MLOAD DUP3 SSTORE PUSH1 0x1 DUP3 ADD SWAP2 POP PUSH1 0x20 DUP6 ADD SWAP5 POP PUSH1 0x20 DUP2 ADD SWAP1 POP PUSH2 0x6248 JUMP JUMPDEST DUP7 DUP4 LT ISZERO PUSH2 0x628A JUMPI DUP5 DUP10 ADD MLOAD PUSH2 0x6286 PUSH1 0x1F DUP10 AND DUP3 PUSH2 0x6193 JUMP JUMPDEST DUP4 SSTORE POP JUMPDEST PUSH1 0x1 PUSH1 0x2 DUP9 MUL ADD DUP9 SSTORE POP POP POP JUMPDEST POP POP POP POP POP POP JUMP JUMPDEST PUSH1 0x0 PUSH1 0x40 DUP3 ADD SWAP1 POP PUSH2 0x62B4 PUSH1 0x0 DUP4 ADD DUP6 PUSH2 0x4A79 JUMP JUMPDEST DUP2 DUP2 SUB PUSH1 0x20 DUP4 ADD MSTORE PUSH2 0x62C6 DUP2 DUP5 PUSH2 0x4ADF JUMP JUMPDEST SWAP1 POP SWAP4 SWAP3 POP POP POP JUMP JUMPDEST PUSH32 0x55736572206E6F74207265676973746572656400000000000000000000000000 PUSH1 0x0 DUP3 ADD MSTORE POP JUMP JUMPDEST PUSH1 0x0 PUSH2 0x6305 PUSH1 0x13 DUP4 PUSH2 0x4A93 JUMP JUMPDEST SWAP2 POP PUSH2 0x6310 DUP3 PUSH2 0x62CF JUMP JUMPDEST PUSH1 0x20 DUP3 ADD SWAP1 POP SWAP2 SWAP1 POP JUMP JUMPDEST PUSH1 0x0 PUSH1 0x20 DUP3 ADD SWAP1 POP DUP2 DUP2 SUB PUSH1 0x0 DUP4 ADD MSTORE PUSH2 0x6334 DUP2 PUSH2 0x62F8 JUMP JUMPDEST SWAP1 POP SWAP2 SWAP1 POP JUMP JUMPDEST PUSH32 0x4F6E6C792061646D696E6973747261746F72732063616E2064656C6574652063 PUSH1 0x0 DUP3 ADD MSTORE PUSH32 0x6C617373726F6F6D730000000000000000000000000000000000000000000000 PUSH1 0x20 DUP3 ADD MSTORE POP JUMP JUMPDEST PUSH1 0x0 PUSH2 0x6397 PUSH1 0x29 DUP4 PUSH2 0x4A93 JUMP JUMPDEST SWAP2 POP PUSH2 0x63A2 DUP3 PUSH2 0x633B JUMP JUMPDEST PUSH1 0x40 DUP3 ADD SWAP1 POP SWAP2 SWAP1 POP JUMP JUMPDEST PUSH1 0x0 PUSH1 0x20 DUP3 ADD SWAP1 POP DUP2 DUP2 SUB PUSH1 0x0 DUP4 ADD MSTORE PUSH2 0x63C6 DUP2 PUSH2 0x638A JUMP JUMPDEST SWAP1 POP SWAP2 SWAP1 POP JUMP JUMPDEST PUSH32 0x4F6E6C792073747564656E74732063616E206861766520656E726F6C6C656420 PUSH1 0x0 DUP3 ADD MSTORE PUSH32 0x636F757273657300000000000000000000000000000000000000000000000000 PUSH1 0x20 DUP3 ADD MSTORE POP JUMP JUMPDEST PUSH1 0x0 PUSH2 0x6429 PUSH1 0x27 DUP4 PUSH2 0x4A93 JUMP JUMPDEST SWAP2 POP PUSH2 0x6434 DUP3 PUSH2 0x63CD JUMP JUMPDEST PUSH1 0x40 DUP3 ADD SWAP1 POP SWAP2 SWAP1 POP JUMP JUMPDEST PUSH1 0x0 PUSH1 0x20 DUP3 ADD SWAP1 POP DUP2 DUP2 SUB PUSH1 0x0 DUP4 ADD MSTORE PUSH2 0x6458 DUP2 PUSH2 0x641C JUMP JUMPDEST SWAP1 POP SWAP2 SWAP1 POP JUMP JUMPDEST PUSH32 0x5573657220616C72656164792072656769737465726564000000000000000000 PUSH1 0x0 DUP3 ADD MSTORE POP JUMP JUMPDEST PUSH1 0x0 PUSH2 0x6495 PUSH1 0x17 DUP4 PUSH2 0x4A93 JUMP JUMPDEST SWAP2 POP PUSH2 0x64A0 DUP3 PUSH2 0x645F JUMP JUMPDEST PUSH1 0x20 DUP3 ADD SWAP1 POP SWAP2 SWAP1 POP JUMP JUMPDEST PUSH1 0x0 PUSH1 0x20 DUP3 ADD SWAP1 POP DUP2 DUP2 SUB PUSH1 0x0 DUP4 ADD MSTORE PUSH2 0x64C4 DUP2 PUSH2 0x6488 JUMP JUMPDEST SWAP1 POP SWAP2 SWAP1 POP JUMP JUMPDEST PUSH1 0x0 PUSH1 0x40 DUP3 ADD SWAP1 POP PUSH2 0x64E0 PUSH1 0x0 DUP4 ADD DUP6 PUSH2 0x4D84 JUMP JUMPDEST PUSH2 0x64ED PUSH1 0x20 DUP4 ADD DUP5 PUSH2 0x5550 JUMP JUMPDEST SWAP4 SWAP3 POP POP POP JUMP JUMPDEST PUSH32 0x4F6E6C792061646D696E6973747261746F72732063616E206372656174652063 PUSH1 0x0 DUP3 ADD MSTORE PUSH32 0x6C617373726F6F6D730000000000000000000000000000000000000000000000 PUSH1 0x20 DUP3 ADD MSTORE POP JUMP JUMPDEST PUSH1 0x0 PUSH2 0x6550 PUSH1 0x29 DUP4 PUSH2 0x4A93 JUMP JUMPDEST SWAP2 POP PUSH2 0x655B DUP3 PUSH2 0x64F4 JUMP JUMPDEST PUSH1 0x40 DUP3 ADD SWAP1 POP SWAP2 SWAP1 POP JUMP JUMPDEST PUSH1 0x0 PUSH1 0x20 DUP3 ADD SWAP1 POP DUP2 DUP2 SUB PUSH1 0x0 DUP4 ADD MSTORE PUSH2 0x657F DUP2 PUSH2 0x6543 JUMP JUMPDEST SWAP1 POP SWAP2 SWAP1 POP JUMP JUMPDEST PUSH1 0x0 PUSH2 0x6591 DUP3 PUSH2 0x4A16 JUMP JUMPDEST SWAP2 POP PUSH2 0x659C DUP4 PUSH2 0x4A16 JUMP JUMPDEST SWAP3 POP DUP3 DUP3 ADD SWAP1 POP DUP1 DUP3 GT ISZERO PUSH2 0x65B4 JUMPI PUSH2 0x65B3 PUSH2 0x58A5 JUMP JUMPDEST JUMPDEST SWAP3 SWAP2 POP POP JUMP JUMPDEST PUSH1 0x0 DUP2 SLOAD SWAP1 POP PUSH2 0x65C9 DUP2 PUSH2 0x57D9 JUMP JUMPDEST SWAP1 POP SWAP2 SWAP1 POP JUMP JUMPDEST PUSH1 0x0 DUP2 SWAP1 POP DUP2 PUSH1 0x0 MSTORE PUSH1 0x20 PUSH1 0x0 KECCAK256 SWAP1 POP SWAP2 SWAP1 POP JUMP JUMPDEST DUP2 DUP2 SUB PUSH2 0x65F3 JUMPI POP POP PUSH2 0x66CB JUMP JUMPDEST PUSH2 0x65FC DUP3 PUSH2 0x65BA JUMP JUMPDEST PUSH8 0xFFFFFFFFFFFFFFFF DUP2 GT ISZERO PUSH2 0x6615 JUMPI PUSH2 0x6614 PUSH2 0x51C2 JUMP JUMPDEST JUMPDEST PUSH2 0x661F DUP3 SLOAD PUSH2 0x57D9 JUMP JUMPDEST PUSH2 0x662A DUP3 DUP3 DUP6 PUSH2 0x6140 JUMP JUMPDEST PUSH1 0x0 PUSH1 0x1F DUP4 GT PUSH1 0x1 DUP2 EQ PUSH2 0x6659 JUMPI PUSH1 0x0 DUP5 ISZERO PUSH2 0x6647 JUMPI DUP3 DUP8 ADD SLOAD SWAP1 POP JUMPDEST PUSH2 0x6651 DUP6 DUP3 PUSH2 0x61B1 JUMP JUMPDEST DUP7 SSTORE POP PUSH2 0x66C4 JUMP JUMPDEST PUSH1 0x1F NOT DUP5 AND PUSH2 0x6667 DUP8 PUSH2 0x65D0 JUMP JUMPDEST SWAP7 POP PUSH2 0x6672 DUP7 PUSH2 0x6021 JUMP JUMPDEST PUSH1 0x0 JUMPDEST DUP3 DUP2 LT ISZERO PUSH2 0x669A JUMPI DUP5 DUP10 ADD SLOAD DUP3 SSTORE PUSH1 0x1 DUP3 ADD SWAP2 POP PUSH1 0x1 DUP6 ADD SWAP5 POP PUSH1 0x20 DUP2 ADD SWAP1 POP PUSH2 0x6675 JUMP JUMPDEST DUP7 DUP4 LT ISZERO PUSH2 0x66B7 JUMPI DUP5 DUP10 ADD SLOAD PUSH2 0x66B3 PUSH1 0x1F DUP10 AND DUP3 PUSH2 0x6193 JUMP JUMPDEST DUP4 SSTORE POP JUMPDEST PUSH1 0x1 PUSH1 0x2 DUP9 MUL ADD DUP9 SSTORE POP POP POP JUMPDEST POP POP POP POP POP POP JUMPDEST JUMP JUMPDEST PUSH1 0x0 PUSH1 0x80 DUP3 ADD SWAP1 POP PUSH2 0x66E2 PUSH1 0x0 DUP4 ADD DUP8 PUSH2 0x4A79 JUMP JUMPDEST PUSH2 0x66EF PUSH1 0x20 DUP4 ADD DUP7 PUSH2 0x4D43 JUMP JUMPDEST PUSH2 0x66FC PUSH1 0x40 DUP4 ADD DUP6 PUSH2 0x4D43 JUMP JUMPDEST PUSH2 0x6709 PUSH1 0x60 DUP4 ADD DUP5 PUSH2 0x4D43 JUMP JUMPDEST SWAP6 SWAP5 POP POP POP POP POP JUMP JUMPDEST PUSH32 0x4F6E6C792073747564656E74732063616E20726567697374657220696E20636F PUSH1 0x0 DUP3 ADD MSTORE PUSH32 0x7572736573000000000000000000000000000000000000000000000000000000 PUSH1 0x20 DUP3 ADD MSTORE POP JUMP JUMPDEST PUSH1 0x0 PUSH2 0x676E PUSH1 0x25 DUP4 PUSH2 0x4A93 JUMP JUMPDEST SWAP2 POP PUSH2 0x6779 DUP3 PUSH2 0x6712 JUMP JUMPDEST PUSH1 0x40 DUP3 ADD SWAP1 POP SWAP2 SWAP1 POP JUMP JUMPDEST PUSH1 0x0 PUSH1 0x20 DUP3 ADD SWAP1 POP DUP2 DUP2 SUB PUSH1 0x0 DUP4 ADD MSTORE PUSH2 0x679D DUP2 PUSH2 0x6761 JUMP JUMPDEST SWAP1 POP SWAP2 SWAP1 POP JUMP JUMPDEST PUSH32 0x53747564656E7420616C7265616479207265676973746572656420696E206F6E PUSH1 0x0 DUP3 ADD MSTORE PUSH32 0x65206F662074686520636F757273657300000000000000000000000000000000 PUSH1 0x20 DUP3 ADD MSTORE POP JUMP JUMPDEST PUSH1 0x0 PUSH2 0x6800 PUSH1 0x30 DUP4 PUSH2 0x4A93 JUMP JUMPDEST SWAP2 POP PUSH2 0x680B DUP3 PUSH2 0x67A4 JUMP JUMPDEST PUSH1 0x40 DUP3 ADD SWAP1 POP SWAP2 SWAP1 POP JUMP JUMPDEST PUSH1 0x0 PUSH1 0x20 DUP3 ADD SWAP1 POP DUP2 DUP2 SUB PUSH1 0x0 DUP4 ADD MSTORE PUSH2 0x682F DUP2 PUSH2 0x67F3 JUMP JUMPDEST SWAP1 POP SWAP2 SWAP1 POP JUMP INVALID LOG2 PUSH5 0x6970667358 0x22 SLT KECCAK256 GT GASPRICE 0xE1 PUSH7 0xC3F2C942B640F2 0xEE SWAP10 0x2A 0xDE 0xB1 0xF8 STATICCALL RETURNDATACOPY 0x2A 0xD4 0xC9 TIMESTAMP JUMPI NOT LT 0xB7 DUP7 POP SWAP4 TLOAD 0xC3 PUSH5 0x736F6C6343 STOP ADDMOD SHL STOP CALLER "},"methodIdentifiers":{"addSchedule(uint256,uint8,uint8,uint8,uint256,address)":"b68b1aac","admin()":"f851a440","assignClassroomToSchedule(uint256,uint256,uint256)":"1358815f","assignProfessorToSchedule(uint256,uint256,address)":"330818e6","classrooms(uint256)":"086eafae","courses(uint256)":"96f979d2","createClassroom(string,string,uint256)":"b270a168","createCourse(string,string,uint256)":"a4adb24b","deleteClassroom(uint256)":"717c85be","deleteCourse(uint256)":"9dad8d22","deleteSchedule(uint256,uint256)":"ecf1938e","getClassroom(uint256)":"eb7546c6","getCourse(uint256)":"0b91e28d","getProfessorCourses(address)":"4d6dc664","getProfessorSchedules(address)":"35e91d65","getSchedule(uint256,uint256)":"f43e5e42","getScheduleById(uint256)":"80b3ea88","getStudentCourses()":"83517a4f","getUser(address)":"6f77926b","isRegistered(address)":"c3c5a547","listAllSchedules()":"292a1b55","listClassrooms()":"123268d1","listCourses()":"c53069c7","registerStudentInCourses(uint256[])":"df57a55a","registerUser(address,uint8)":"9e9fa097","schedulesById(uint256)":"27fd9572","totalClassrooms()":"5802cc4e","totalCourses()":"87ac1860","totalSchedules()":"965720af","updateClassroom(uint256,string,string,uint256)":"6a03292d","updateCourse(uint256,string,string,uint256)":"91aac065","updateSchedule(uint256,uint256,uint8,uint8,uint8,uint256,address)":"494d69f0","users(address)":"a87430ba"}}}}}