{"contracts/CourseContract.sol":{"CourseContract":{"abi":[{"inputs":[],"stateMutability":"nonpayable","type":"constructor"},{"anonymous":false,"inputs":[{"indexed":false,"internalType":"uint256","name":"id","type":"uint256"},{"indexed":false,"internalType":"string","name":"name","type":"string"}],"name":"CourseCreated","type":"event"},{"anonymous":false,"inputs":[{"indexed":false,"internalType":"uint256","name":"id","type":"uint256"}],"name":"CourseDeleted","type":"event"},{"anonymous":false,"inputs":[{"indexed":false,"internalType":"uint256","name":"id","type":"uint256"},{"indexed":false,"internalType":"string","name":"name","type":"string"}],"name":"CourseUpdated","type":"event"},{"anonymous":false,"inputs":[{"indexed":false,"internalType":"uint256","name":"id","type":"uint256"},{"indexed":false,"internalType":"uint8","name":"day","type":"uint8"},{"indexed":false,"internalType":"uint8","name":"startHour","type":"uint8"},{"indexed":false,"internalType":"uint8","name":"endHour","type":"uint8"}],"name":"ScheduleAdded","type":"event"},{"anonymous":false,"inputs":[{"indexed":false,"internalType":"uint256","name":"courseId","type":"uint256"},{"indexed":false,"internalType":"uint256","name":"scheduleId","type":"uint256"},{"indexed":false,"internalType":"uint8","name":"day","type":"uint8"},{"indexed":false,"internalType":"uint8","name":"startHour","type":"uint8"},{"indexed":false,"internalType":"uint8","name":"endHour","type":"uint8"}],"name":"ScheduleUpdated","type":"event"},{"anonymous":false,"inputs":[{"indexed":false,"internalType":"uint256","name":"courseId","type":"uint256"},{"indexed":false,"internalType":"address","name":"student","type":"address"}],"name":"StudentRegisteredInCourse","type":"event"},{"anonymous":false,"inputs":[{"indexed":false,"internalType":"address","name":"addr","type":"address"},{"indexed":false,"internalType":"enum CourseContract.Role","name":"role","type":"uint8"}],"name":"UserRegistered","type":"event"},{"inputs":[{"internalType":"uint256","name":"_id","type":"uint256"},{"internalType":"uint8","name":"_day","type":"uint8"},{"internalType":"uint8","name":"_startHour","type":"uint8"},{"internalType":"uint8","name":"_endHour","type":"uint8"}],"name":"addSchedule","outputs":[],"stateMutability":"nonpayable","type":"function"},{"inputs":[],"name":"admin","outputs":[{"internalType":"address","name":"","type":"address"}],"stateMutability":"view","type":"function"},{"inputs":[{"internalType":"uint256","name":"","type":"uint256"}],"name":"courses","outputs":[{"internalType":"uint256","name":"id","type":"uint256"},{"internalType":"string","name":"name","type":"string"},{"internalType":"string","name":"description","type":"string"},{"internalType":"uint256","name":"credits","type":"uint256"},{"internalType":"bool","name":"isActive","type":"bool"},{"internalType":"uint256","name":"totalSchedules","type":"uint256"}],"stateMutability":"view","type":"function"},{"inputs":[{"internalType":"string","name":"_name","type":"string"},{"internalType":"string","name":"_description","type":"string"},{"internalType":"uint256","name":"_credits","type":"uint256"}],"name":"createCourse","outputs":[],"stateMutability":"nonpayable","type":"function"},{"inputs":[{"internalType":"uint256","name":"_id","type":"uint256"}],"name":"deleteCourse","outputs":[],"stateMutability":"nonpayable","type":"function"},{"inputs":[{"internalType":"uint256","name":"_courseId","type":"uint256"},{"internalType":"uint256","name":"_scheduleId","type":"uint256"}],"name":"deleteSchedule","outputs":[],"stateMutability":"nonpayable","type":"function"},{"inputs":[{"internalType":"uint256","name":"_id","type":"uint256"}],"name":"getCourse","outputs":[{"internalType":"uint256","name":"","type":"uint256"},{"internalType":"string","name":"","type":"string"},{"internalType":"string","name":"","type":"string"},{"internalType":"uint256","name":"","type":"uint256"},{"internalType":"bool","name":"","type":"bool"},{"internalType":"uint256","name":"","type":"uint256"}],"stateMutability":"view","type":"function"},{"inputs":[{"internalType":"uint256","name":"_courseId","type":"uint256"},{"internalType":"uint256","name":"_scheduleId","type":"uint256"}],"name":"getSchedule","outputs":[{"internalType":"uint256","name":"","type":"uint256"},{"internalType":"uint8","name":"","type":"uint8"},{"internalType":"uint8","name":"","type":"uint8"},{"internalType":"uint8","name":"","type":"uint8"},{"internalType":"string","name":"","type":"string"},{"internalType":"bool","name":"","type":"bool"}],"stateMutability":"view","type":"function"},{"inputs":[{"internalType":"uint256","name":"_scheduleId","type":"uint256"}],"name":"getScheduleById","outputs":[{"internalType":"uint256","name":"","type":"uint256"},{"internalType":"uint8","name":"","type":"uint8"},{"internalType":"uint8","name":"","type":"uint8"},{"internalType":"uint8","name":"","type":"uint8"},{"internalType":"string","name":"","type":"string"},{"internalType":"bool","name":"","type":"bool"}],"stateMutability":"view","type":"function"},{"inputs":[],"name":"getStudentCourses","outputs":[{"internalType":"uint256[]","name":"","type":"uint256[]"}],"stateMutability":"view","type":"function"},{"inputs":[],"name":"listAllSchedules","outputs":[{"components":[{"internalType":"uint256","name":"id","type":"uint256"},{"internalType":"uint8","name":"day","type":"uint8"},{"internalType":"uint8","name":"startHour","type":"uint8"},{"internalType":"uint8","name":"endHour","type":"uint8"},{"internalType":"string","name":"courseName","type":"string"},{"internalType":"bool","name":"isActive","type":"bool"}],"internalType":"struct CourseContract.Schedule[]","name":"","type":"tuple[]"}],"stateMutability":"view","type":"function"},{"inputs":[],"name":"listCourses","outputs":[{"internalType":"uint256[]","name":"","type":"uint256[]"}],"stateMutability":"view","type":"function"},{"inputs":[{"internalType":"uint256","name":"_courseId","type":"uint256"}],"name":"registerStudentInCourse","outputs":[],"stateMutability":"nonpayable","type":"function"},{"inputs":[{"internalType":"address","name":"_user","type":"address"},{"internalType":"enum CourseContract.Role","name":"_role","type":"uint8"}],"name":"registerUser","outputs":[],"stateMutability":"nonpayable","type":"function"},{"inputs":[{"internalType":"uint256","name":"","type":"uint256"}],"name":"schedulesById","outputs":[{"internalType":"uint256","name":"id","type":"uint256"},{"internalType":"uint8","name":"day","type":"uint8"},{"internalType":"uint8","name":"startHour","type":"uint8"},{"internalType":"uint8","name":"endHour","type":"uint8"},{"internalType":"string","name":"courseName","type":"string"},{"internalType":"bool","name":"isActive","type":"bool"}],"stateMutability":"view","type":"function"},{"inputs":[],"name":"totalCourses","outputs":[{"internalType":"uint256","name":"","type":"uint256"}],"stateMutability":"view","type":"function"},{"inputs":[],"name":"totalSchedules","outputs":[{"internalType":"uint256","name":"","type":"uint256"}],"stateMutability":"view","type":"function"},{"inputs":[{"internalType":"uint256","name":"_id","type":"uint256"},{"internalType":"string","name":"_name","type":"string"},{"internalType":"string","name":"_description","type":"string"},{"internalType":"uint256","name":"_credits","type":"uint256"}],"name":"updateCourse","outputs":[],"stateMutability":"nonpayable","type":"function"},{"inputs":[{"internalType":"uint256","name":"_courseId","type":"uint256"},{"internalType":"uint256","name":"_scheduleId","type":"uint256"},{"internalType":"uint8","name":"_day","type":"uint8"},{"internalType":"uint8","name":"_startHour","type":"uint8"},{"internalType":"uint8","name":"_endHour","type":"uint8"}],"name":"updateSchedule","outputs":[],"stateMutability":"nonpayable","type":"function"},{"inputs":[{"internalType":"address","name":"","type":"address"}],"name":"users","outputs":[{"internalType":"address","name":"addr","type":"address"},{"internalType":"enum CourseContract.Role","name":"role","type":"uint8"},{"internalType":"bool","name":"isActive","type":"bool"}],"stateMutability":"view","type":"function"}],"evm":{"bytecode":{"linkReferences":{},"object":"608060405234801561001057600080fd5b5033600560006101000a81548173ffffffffffffffffffffffffffffffffffffffff021916908373ffffffffffffffffffffffffffffffffffffffff16021790555060405180606001604052803373ffffffffffffffffffffffffffffffffffffffff16815260200160028081111561008c5761008b610176565b5b815260200160011515815250600160003373ffffffffffffffffffffffffffffffffffffffff1673ffffffffffffffffffffffffffffffffffffffff16815260200190815260200160002060008201518160000160006101000a81548173ffffffffffffffffffffffffffffffffffffffff021916908373ffffffffffffffffffffffffffffffffffffffff16021790555060208201518160000160146101000a81548160ff0219169083600281111561014957610148610176565b5b021790555060408201518160000160156101000a81548160ff0219169083151502179055509050506101a5565b7f4e487b7100000000000000000000000000000000000000000000000000000000600052602160045260246000fd5b613a1c806101b46000396000f3fe608060405234801561001057600080fd5b506004361061012c5760003560e01c806396f979d2116100ad578063bfc4232811610071578063bfc4232814610357578063c53069c714610373578063ecf1938e14610391578063f43e5e42146103ad578063f851a440146103e25761012c565b806396f979d21461029c5780639dad8d22146102d15780639e9fa097146102ed578063a4adb24b14610309578063a87430ba146103255761012c565b806380b3ea88116100f457806380b3ea88146101f157806383517a4f1461022657806387ac18601461024457806391aac06514610262578063965720af1461027e5761012c565b80630b91e28d1461013157806319384dd11461016657806327fd957214610182578063292a1b55146101b757806377b31134146101d5575b600080fd5b61014b60048036038101906101469190612480565b610400565b60405161015d96959493929190612567565b60405180910390f35b610180600480360381019061017b9190612480565b6105bb565b005b61019c60048036038101906101979190612480565b61089d565b6040516101ae969594939291906125f2565b60405180910390f35b6101bf610995565b6040516101cc919061281c565b60405180910390f35b6101ef60048036038101906101ea919061286a565b610cc3565b005b61020b60048036038101906102069190612480565b611011565b60405161021d969594939291906125f2565b60405180910390f35b61022e611169565b60405161023b9190612980565b60405180910390f35b61024c6114a1565b60405161025991906129a2565b60405180910390f35b61027c60048036038101906102779190612af2565b6114a7565b005b6102866115d0565b60405161029391906129a2565b60405180910390f35b6102b660048036038101906102b19190612480565b6115d6565b6040516102c896959493929190612567565b60405180910390f35b6102eb60048036038101906102e69190612480565b61172f565b005b61030760048036038101906103029190612c14565b61183d565b005b610323600480360381019061031e9190612c54565b611a29565b005b61033f600480360381019061033a9190612cdf565b611af7565b60405161034e93929190612d92565b60405180910390f35b610371600480360381019061036c9190612dc9565b611b5b565b005b61037b611e2f565b6040516103889190612980565b60405180910390f35b6103ab60048036038101906103a69190612e44565b611f9c565b005b6103c760048036038101906103c29190612e44565b6121a9565b6040516103d9969594939291906125f2565b60405180910390f35b6103ea6123cf565b6040516103f79190612e84565b60405180910390f35b60006060806000806000600354871061044e576040517f08c379a000000000000000000000000000000000000000000000000000000000815260040161044590612eeb565b60405180910390fd5b600080600089815260200190815260200160002090508060000154816001018260020183600301548460040160009054906101000a900460ff16856005015484805461049990612f3a565b80601f01602080910402602001604051908101604052809291908181526020018280546104c590612f3a565b80156105125780601f106104e757610100808354040283529160200191610512565b820191906000526020600020905b8154815290600101906020018083116104f557829003601f168201915b5050505050945083805461052590612f3a565b80601f016020809104026020016040519081016040528092919081815260200182805461055190612f3a565b801561059e5780601f106105735761010080835404028352916020019161059e565b820191906000526020600020905b81548152906001019060200180831161058157829003601f168201915b505050505093509650965096509650965096505091939550919395565b60035481106105ff576040517f08c379a00000000000000000000000000000000000000000000000000000000081526004016105f690612eeb565b60405180910390fd5b60008082815260200190815260200160002060040160009054906101000a900460ff16610661576040517f08c379a000000000000000000000000000000000000000000000000000000000815260040161065890612fdd565b60405180910390fd5b6000600281111561067557610674612d1b565b5b600160003373ffffffffffffffffffffffffffffffffffffffff1673ffffffffffffffffffffffffffffffffffffffff16815260200190815260200160002060000160149054906101000a900460ff1660028111156106d7576106d6612d1b565b5b14610717576040517f08c379a000000000000000000000000000000000000000000000000000000000815260040161070e9061306f565b60405180910390fd5b6000806000838152602001908152602001600020905060005b81600601805490508110156107fa573373ffffffffffffffffffffffffffffffffffffffff1682600601828154811061076c5761076b61308f565b5b9060005260206000200160009054906101000a900473ffffffffffffffffffffffffffffffffffffffff1673ffffffffffffffffffffffffffffffffffffffff16036107ed576040517f08c379a00000000000000000000000000000000000000000000000000000000081526004016107e490613130565b60405180910390fd5b8080600101915050610730565b5080600601339080600181540180825580915050600190039060005260206000200160009091909190916101000a81548173ffffffffffffffffffffffffffffffffffffffff021916908373ffffffffffffffffffffffffffffffffffffffff1602179055507f5978a47ce47cdeb8a43a1794142dd16f2f94e95103bd104783a42725c7fe8cff8233604051610891929190613150565b60405180910390a15050565b60026020528060005260406000206000915090508060000154908060010160009054906101000a900460ff16908060010160019054906101000a900460ff16908060010160029054906101000a900460ff16908060020180546108ff90612f3a565b80601f016020809104026020016040519081016040528092919081815260200182805461092b90612f3a565b80156109785780601f1061094d57610100808354040283529160200191610978565b820191906000526020600020905b81548152906001019060200180831161095b57829003601f168201915b5050505050908060030160009054906101000a900460ff16905086565b60606000805b600354811015610a595760008082815260200190815260200160002060040160009054906101000a900460ff1615610a4c5760005b600080838152602001908152602001600020600501548111610a4a57600080838152602001908152602001600020600701600082815260200190815260200160002060030160009054906101000a900460ff1615610a37578280610a33906131a8565b9350505b8080610a42906131a8565b9150506109d0565b505b808060010191505061099b565b5060008167ffffffffffffffff811115610a7657610a756129c7565b5b604051908082528060200260200182016040528015610aaf57816020015b610a9c6123f5565b815260200190600190039081610a945790505b5090506000805b600354811015610cb95760008082815260200190815260200160002060040160009054906101000a900460ff1615610cac57600080600083815260200190815260200160002090506000600190505b81600501548111610ca95781600701600082815260200190815260200160002060030160009054906101000a900460ff1615610c96578160070160008281526020019081526020016000206040518060c0016040529081600082015481526020016001820160009054906101000a900460ff1660ff1660ff1681526020016001820160019054906101000a900460ff1660ff1660ff1681526020016001820160029054906101000a900460ff1660ff1660ff168152602001600282018054610bcc90612f3a565b80601f0160208091040260200160405190810160405280929190818152602001828054610bf890612f3a565b8015610c455780601f10610c1a57610100808354040283529160200191610c45565b820191906000526020600020905b815481529060010190602001808311610c2857829003601f168201915b505050505081526020016003820160009054906101000a900460ff161515151581525050858581518110610c7c57610c7b61308f565b5b60200260200101819052508380610c92906131a8565b9450505b8080610ca1906131a8565b915050610b05565b50505b8080600101915050610ab6565b5081935050505090565b6003548410610d07576040517f08c379a0000000000000000000000000000000000000000000000000000000008152600401610cfe90612eeb565b60405180910390fd5b60008085815260200190815260200160002060040160009054906101000a900460ff16610d69576040517f08c379a0000000000000000000000000000000000000000000000000000000008152600401610d6090612fdd565b60405180910390fd5b60018360ff1610158015610d81575060078360ff1611155b610dc0576040517f08c379a0000000000000000000000000000000000000000000000000000000008152600401610db79061323c565b60405180910390fd5b60188260ff16108015610dd6575060188160ff16105b8015610de757508060ff168260ff16105b610e26576040517f08c379a0000000000000000000000000000000000000000000000000000000008152600401610e1d906132a8565b60405180910390fd5b60008060008681526020019081526020016000209050600060018260050154610e4f91906132c8565b905060008260070160008381526020019081526020016000209050818160000181905550858160010160006101000a81548160ff021916908360ff160217905550848160010160016101000a81548160ff021916908360ff160217905550838160010160026101000a81548160ff021916908360ff16021790555082600101816002019081610ede91906134d3565b5060018160030160006101000a81548160ff021916908315150217905550818360050181905550600060026000600454815260200190815260200160002090506004548160000181905550868160010160006101000a81548160ff021916908360ff160217905550858160010160016101000a81548160ff021916908360ff160217905550848160010160026101000a81548160ff021916908360ff16021790555083600101816002019081610f9491906134d3565b5060018160030160006101000a81548160ff02191690831515021790555060046000815480929190610fc5906131a8565b91905055507f3ff69354bb51befb41cb392610be115187b4afcfed73d238a16f370c7f20491c88888888604051610fff94939291906135bb565b60405180910390a15050505050505050565b60008060008060606000600454871061105f576040517f08c379a00000000000000000000000000000000000000000000000000000000081526004016110569061364c565b60405180910390fd5b600060026000898152602001908152602001600020905080600001548160010160009054906101000a900460ff168260010160019054906101000a900460ff168360010160029054906101000a900460ff16846002018560030160009054906101000a900460ff168180546110d390612f3a565b80601f01602080910402602001604051908101604052809291908181526020018280546110ff90612f3a565b801561114c5780601f106111215761010080835404028352916020019161114c565b820191906000526020600020905b81548152906001019060200180831161112f57829003601f168201915b505050505091509650965096509650965096505091939550919395565b6060600160003373ffffffffffffffffffffffffffffffffffffffff1673ffffffffffffffffffffffffffffffffffffffff16815260200190815260200160002060000160159054906101000a900460ff166111fa576040517f08c379a00000000000000000000000000000000000000000000000000000000081526004016111f1906136b8565b60405180910390fd5b6000600281111561120e5761120d612d1b565b5b600160003373ffffffffffffffffffffffffffffffffffffffff1673ffffffffffffffffffffffffffffffffffffffff16815260200190815260200160002060000160149054906101000a900460ff1660028111156112705761126f612d1b565b5b146112b0576040517f08c379a00000000000000000000000000000000000000000000000000000000081526004016112a79061374a565b60405180910390fd5b600060035467ffffffffffffffff8111156112ce576112cd6129c7565b5b6040519080825280602002602001820160405280156112fc5781602001602082028036833780820191505090505b5090506000805b6003548110156113f7576000806000838152602001908152602001600020905060005b81600601805490508110156113e8573373ffffffffffffffffffffffffffffffffffffffff168260060182815481106113625761136161308f565b5b9060005260206000200160009054906101000a900473ffffffffffffffffffffffffffffffffffffffff1673ffffffffffffffffffffffffffffffffffffffff16036113db57828585815181106113bc576113bb61308f565b5b60200260200101818152505083806113d3906131a8565b9450506113e8565b8080600101915050611326565b50508080600101915050611303565b5060008167ffffffffffffffff811115611414576114136129c7565b5b6040519080825280602002602001820160405280156114425781602001602082028036833780820191505090505b50905060005b82811015611497578381815181106114635761146261308f565b5b602002602001015182828151811061147e5761147d61308f565b5b6020026020010181815250508080600101915050611448565b5080935050505090565b60035481565b60035484106114eb576040517f08c379a00000000000000000000000000000000000000000000000000000000081526004016114e290612eeb565b60405180910390fd5b60008085815260200190815260200160002060040160009054906101000a900460ff1661154d576040517f08c379a000000000000000000000000000000000000000000000000000000000815260040161154490612fdd565b60405180910390fd5b6000806000868152602001908152602001600020905083816001019081611574919061376a565b5082816002019081611586919061376a565b508181600301819055507f61f1b503285f2baf5ae0ec7be5c9605a293c9d47bdaf9bdb36fc15c570615fe685856040516115c192919061383c565b60405180910390a15050505050565b60045481565b60006020528060005260406000206000915090508060000154908060010180546115ff90612f3a565b80601f016020809104026020016040519081016040528092919081815260200182805461162b90612f3a565b80156116785780601f1061164d57610100808354040283529160200191611678565b820191906000526020600020905b81548152906001019060200180831161165b57829003601f168201915b50505050509080600201805461168d90612f3a565b80601f01602080910402602001604051908101604052809291908181526020018280546116b990612f3a565b80156117065780601f106116db57610100808354040283529160200191611706565b820191906000526020600020905b8154815290600101906020018083116116e957829003601f168201915b5050505050908060030154908060040160009054906101000a900460ff16908060050154905086565b6003548110611773576040517f08c379a000000000000000000000000000000000000000000000000000000000815260040161176a90612eeb565b60405180910390fd5b60008082815260200190815260200160002060040160009054906101000a900460ff166117d5576040517f08c379a00000000000000000000000000000000000000000000000000000000081526004016117cc90612fdd565b60405180910390fd5b600080600083815260200190815260200160002060040160006101000a81548160ff0219169083151502179055507f39eeda956a5b638cce21d44feb4e3279509fbaf8fb7776431f55f57a0cd215378160405161183291906129a2565b60405180910390a150565b600160008373ffffffffffffffffffffffffffffffffffffffff1673ffffffffffffffffffffffffffffffffffffffff16815260200190815260200160002060000160159054906101000a900460ff16156118cd576040517f08c379a00000000000000000000000000000000000000000000000000000000081526004016118c4906138b8565b60405180910390fd5b60405180606001604052808373ffffffffffffffffffffffffffffffffffffffff16815260200182600281111561190757611906612d1b565b5b815260200160011515815250600160008473ffffffffffffffffffffffffffffffffffffffff1673ffffffffffffffffffffffffffffffffffffffff16815260200190815260200160002060008201518160000160006101000a81548173ffffffffffffffffffffffffffffffffffffffff021916908373ffffffffffffffffffffffffffffffffffffffff16021790555060208201518160000160146101000a81548160ff021916908360028111156119c4576119c3612d1b565b5b021790555060408201518160000160156101000a81548160ff0219169083151502179055509050507f8e18574f8a7333e6a87112742a55853a643e2f0550f4e1a3a2c3f1bb2994441d8282604051611a1d9291906138d8565b60405180910390a15050565b600060036000815480929190611a3e906131a8565b9190505590506000806000838152602001908152602001600020905081816000018190555084816001019081611a74919061376a565b5083816002019081611a86919061376a565b5082816003018190555060018160040160006101000a81548160ff021916908315150217905550600081600501819055507fc2c844c5f6c72fe99b99de0942ba619e99957d3e8f7e614263ecfe40de952e588286604051611ae892919061383c565b60405180910390a15050505050565b60016020528060005260406000206000915090508060000160009054906101000a900473ffffffffffffffffffffffffffffffffffffffff16908060000160149054906101000a900460ff16908060000160159054906101000a900460ff16905083565b6003548510611b9f576040517f08c379a0000000000000000000000000000000000000000000000000000000008152600401611b9690612eeb565b60405180910390fd5b60008086815260200190815260200160002060040160009054906101000a900460ff16611c01576040517f08c379a0000000000000000000000000000000000000000000000000000000008152600401611bf890612fdd565b60405180910390fd5b60008086815260200190815260200160002060050154841115611c59576040517f08c379a0000000000000000000000000000000000000000000000000000000008152600401611c509061364c565b60405180910390fd5b60018360ff1610158015611c71575060078360ff1611155b611cb0576040517f08c379a0000000000000000000000000000000000000000000000000000000008152600401611ca79061323c565b60405180910390fd5b60188260ff16108015611cc6575060188160ff16105b8015611cd757508060ff168260ff16105b611d16576040517f08c379a0000000000000000000000000000000000000000000000000000000008152600401611d0d906132a8565b60405180910390fd5b6000806000878152602001908152602001600020600701600086815260200190815260200160002090508060030160009054906101000a900460ff16611d91576040517f08c379a0000000000000000000000000000000000000000000000000000000008152600401611d8890613973565b60405180910390fd5b838160010160006101000a81548160ff021916908360ff160217905550828160010160016101000a81548160ff021916908360ff160217905550818160010160026101000a81548160ff021916908360ff1602179055507f29558593f0b584fa97b5489122cab9fc63aa0424b99f2b9ce433cfb20a73cd708686868686604051611e1f959493929190613993565b60405180910390a1505050505050565b6060600060035467ffffffffffffffff811115611e4f57611e4e6129c7565b5b604051908082528060200260200182016040528015611e7d5781602001602082028036833780820191505090505b5090506000805b600354811015611ef25760008082815260200190815260200160002060040160009054906101000a900460ff1615611ee55780838381518110611eca57611ec961308f565b5b6020026020010181815250508180611ee1906131a8565b9250505b8080600101915050611e84565b5060008167ffffffffffffffff811115611f0f57611f0e6129c7565b5b604051908082528060200260200182016040528015611f3d5781602001602082028036833780820191505090505b50905060005b82811015611f9257838181518110611f5e57611f5d61308f565b5b6020026020010151828281518110611f7957611f7861308f565b5b6020026020010181815250508080600101915050611f43565b5080935050505090565b6003548210611fe0576040517f08c379a0000000000000000000000000000000000000000000000000000000008152600401611fd790612eeb565b60405180910390fd5b60008083815260200190815260200160002060040160009054906101000a900460ff16612042576040517f08c379a000000000000000000000000000000000000000000000000000000000815260040161203990612fdd565b60405180910390fd5b6000808381526020019081526020016000206005015481111561209a576040517f08c379a00000000000000000000000000000000000000000000000000000000081526004016120919061364c565b60405180910390fd5b6000806000848152602001908152602001600020600701600083815260200190815260200160002090508060030160009054906101000a900460ff16612115576040517f08c379a000000000000000000000000000000000000000000000000000000000815260040161210c90613973565b60405180910390fd5b60008160030160006101000a81548160ff0219169083151502179055507f29558593f0b584fa97b5489122cab9fc63aa0424b99f2b9ce433cfb20a73cd7083838360010160009054906101000a900460ff168460010160019054906101000a900460ff168560010160029054906101000a900460ff1660405161219c959493929190613993565b60405180910390a1505050565b6000806000806060600060035488106121f7576040517f08c379a00000000000000000000000000000000000000000000000000000000081526004016121ee90612eeb565b60405180910390fd5b60008089815260200190815260200160002060040160009054906101000a900460ff16612259576040517f08c379a000000000000000000000000000000000000000000000000000000000815260040161225090612fdd565b60405180910390fd5b600080898152602001908152602001600020600501548711156122b1576040517f08c379a00000000000000000000000000000000000000000000000000000000081526004016122a89061364c565b60405180910390fd5b60008060008a81526020019081526020016000206007016000898152602001908152602001600020905080600001548160010160009054906101000a900460ff168260010160019054906101000a900460ff168360010160029054906101000a900460ff16846002018560030160009054906101000a900460ff1681805461233890612f3a565b80601f016020809104026020016040519081016040528092919081815260200182805461236490612f3a565b80156123b15780601f10612386576101008083540402835291602001916123b1565b820191906000526020600020905b81548152906001019060200180831161239457829003601f168201915b50505050509150965096509650965096509650509295509295509295565b600560009054906101000a900473ffffffffffffffffffffffffffffffffffffffff1681565b6040518060c0016040528060008152602001600060ff168152602001600060ff168152602001600060ff168152602001606081526020016000151581525090565b6000604051905090565b600080fd5b600080fd5b6000819050919050565b61245d8161244a565b811461246857600080fd5b50565b60008135905061247a81612454565b92915050565b60006020828403121561249657612495612440565b5b60006124a48482850161246b565b91505092915050565b6124b68161244a565b82525050565b600081519050919050565b600082825260208201905092915050565b60005b838110156124f65780820151818401526020810190506124db565b60008484015250505050565b6000601f19601f8301169050919050565b600061251e826124bc565b61252881856124c7565b93506125388185602086016124d8565b61254181612502565b840191505092915050565b60008115159050919050565b6125618161254c565b82525050565b600060c08201905061257c60008301896124ad565b818103602083015261258e8188612513565b905081810360408301526125a28187612513565b90506125b160608301866124ad565b6125be6080830185612558565b6125cb60a08301846124ad565b979650505050505050565b600060ff82169050919050565b6125ec816125d6565b82525050565b600060c08201905061260760008301896124ad565b61261460208301886125e3565b61262160408301876125e3565b61262e60608301866125e3565b81810360808301526126408185612513565b905061264f60a0830184612558565b979650505050505050565b600081519050919050565b600082825260208201905092915050565b6000819050602082019050919050565b61268f8161244a565b82525050565b61269e816125d6565b82525050565b600082825260208201905092915050565b60006126c0826124bc565b6126ca81856126a4565b93506126da8185602086016124d8565b6126e381612502565b840191505092915050565b6126f78161254c565b82525050565b600060c0830160008301516127156000860182612686565b5060208301516127286020860182612695565b50604083015161273b6040860182612695565b50606083015161274e6060860182612695565b506080830151848203608086015261276682826126b5565b91505060a083015161277b60a08601826126ee565b508091505092915050565b600061279283836126fd565b905092915050565b6000602082019050919050565b60006127b28261265a565b6127bc8185612665565b9350836020820285016127ce85612676565b8060005b8581101561280a57848403895281516127eb8582612786565b94506127f68361279a565b925060208a019950506001810190506127d2565b50829750879550505050505092915050565b6000602082019050818103600083015261283681846127a7565b905092915050565b612847816125d6565b811461285257600080fd5b50565b6000813590506128648161283e565b92915050565b6000806000806080858703121561288457612883612440565b5b60006128928782880161246b565b94505060206128a387828801612855565b93505060406128b487828801612855565b92505060606128c587828801612855565b91505092959194509250565b600081519050919050565b600082825260208201905092915050565b6000819050602082019050919050565b60006129098383612686565b60208301905092915050565b6000602082019050919050565b600061292d826128d1565b61293781856128dc565b9350612942836128ed565b8060005b8381101561297357815161295a88826128fd565b975061296583612915565b925050600181019050612946565b5085935050505092915050565b6000602082019050818103600083015261299a8184612922565b905092915050565b60006020820190506129b760008301846124ad565b92915050565b600080fd5b600080fd5b7f4e487b7100000000000000000000000000000000000000000000000000000000600052604160045260246000fd5b6129ff82612502565b810181811067ffffffffffffffff82111715612a1e57612a1d6129c7565b5b80604052505050565b6000612a31612436565b9050612a3d82826129f6565b919050565b600067ffffffffffffffff821115612a5d57612a5c6129c7565b5b612a6682612502565b9050602081019050919050565b82818337600083830152505050565b6000612a95612a9084612a42565b612a27565b905082815260208101848484011115612ab157612ab06129c2565b5b612abc848285612a73565b509392505050565b600082601f830112612ad957612ad86129bd565b5b8135612ae9848260208601612a82565b91505092915050565b60008060008060808587031215612b0c57612b0b612440565b5b6000612b1a8782880161246b565b945050602085013567ffffffffffffffff811115612b3b57612b3a612445565b5b612b4787828801612ac4565b935050604085013567ffffffffffffffff811115612b6857612b67612445565b5b612b7487828801612ac4565b9250506060612b858782880161246b565b91505092959194509250565b600073ffffffffffffffffffffffffffffffffffffffff82169050919050565b6000612bbc82612b91565b9050919050565b612bcc81612bb1565b8114612bd757600080fd5b50565b600081359050612be981612bc3565b92915050565b60038110612bfc57600080fd5b50565b600081359050612c0e81612bef565b92915050565b60008060408385031215612c2b57612c2a612440565b5b6000612c3985828601612bda565b9250506020612c4a85828601612bff565b9150509250929050565b600080600060608486031215612c6d57612c6c612440565b5b600084013567ffffffffffffffff811115612c8b57612c8a612445565b5b612c9786828701612ac4565b935050602084013567ffffffffffffffff811115612cb857612cb7612445565b5b612cc486828701612ac4565b9250506040612cd58682870161246b565b9150509250925092565b600060208284031215612cf557612cf4612440565b5b6000612d0384828501612bda565b91505092915050565b612d1581612bb1565b82525050565b7f4e487b7100000000000000000000000000000000000000000000000000000000600052602160045260246000fd5b60038110612d5b57612d5a612d1b565b5b50565b6000819050612d6c82612d4a565b919050565b6000612d7c82612d5e565b9050919050565b612d8c81612d71565b82525050565b6000606082019050612da76000830186612d0c565b612db46020830185612d83565b612dc16040830184612558565b949350505050565b600080600080600060a08688031215612de557612de4612440565b5b6000612df38882890161246b565b9550506020612e048882890161246b565b9450506040612e1588828901612855565b9350506060612e2688828901612855565b9250506080612e3788828901612855565b9150509295509295909350565b60008060408385031215612e5b57612e5a612440565b5b6000612e698582860161246b565b9250506020612e7a8582860161246b565b9150509250929050565b6000602082019050612e996000830184612d0c565b92915050565b7f496e76616c696420636f75727365204944000000000000000000000000000000600082015250565b6000612ed56011836124c7565b9150612ee082612e9f565b602082019050919050565b60006020820190508181036000830152612f0481612ec8565b9050919050565b7f4e487b7100000000000000000000000000000000000000000000000000000000600052602260045260246000fd5b60006002820490506001821680612f5257607f821691505b602082108103612f6557612f64612f0b565b5b50919050565b7f436f7572736520646f6573206e6f74206578697374206f72206861732062656560008201527f6e2064656c657465640000000000000000000000000000000000000000000000602082015250565b6000612fc76029836124c7565b9150612fd282612f6b565b604082019050919050565b60006020820190508181036000830152612ff681612fba565b9050919050565b7f4f6e6c792073747564656e74732063616e20726567697374657220696e20636f60008201527f7572736573000000000000000000000000000000000000000000000000000000602082015250565b60006130596025836124c7565b915061306482612ffd565b604082019050919050565b600060208201905081810360008301526130888161304c565b9050919050565b7f4e487b7100000000000000000000000000000000000000000000000000000000600052603260045260246000fd5b7f53747564656e7420616c7265616479207265676973746572656420696e20746860008201527f6520636f75727365000000000000000000000000000000000000000000000000602082015250565b600061311a6028836124c7565b9150613125826130be565b604082019050919050565b600060208201905081810360008301526131498161310d565b9050919050565b600060408201905061316560008301856124ad565b6131726020830184612d0c565b9392505050565b7f4e487b7100000000000000000000000000000000000000000000000000000000600052601160045260246000fd5b60006131b38261244a565b91507fffffffffffffffffffffffffffffffffffffffffffffffffffffffffffffffff82036131e5576131e4613179565b5b600182019050919050565b7f496e76616c696420646179000000000000000000000000000000000000000000600082015250565b6000613226600b836124c7565b9150613231826131f0565b602082019050919050565b6000602082019050818103600083015261325581613219565b9050919050565b7f496e76616c6964207363686564756c6500000000000000000000000000000000600082015250565b60006132926010836124c7565b915061329d8261325c565b602082019050919050565b600060208201905081810360008301526132c181613285565b9050919050565b60006132d38261244a565b91506132de8361244a565b92508282019050808211156132f6576132f5613179565b5b92915050565b60008154905061330b81612f3a565b9050919050565b60008190508160005260206000209050919050565b60008190508160005260206000209050919050565b60006020601f8301049050919050565b600082821b905092915050565b6000600883026133897fffffffffffffffffffffffffffffffffffffffffffffffffffffffffffffffff8261334c565b613393868361334c565b95508019841693508086168417925050509392505050565b6000819050919050565b60006133d06133cb6133c68461244a565b6133ab565b61244a565b9050919050565b6000819050919050565b6133ea836133b5565b6133fe6133f6826133d7565b848454613359565b825550505050565b600090565b613413613406565b61341e8184846133e1565b505050565b5b818110156134425761343760008261340b565b600181019050613424565b5050565b601f8211156134875761345881613312565b6134618461333c565b81016020851015613470578190505b61348461347c8561333c565b830182613423565b50505b505050565b600082821c905092915050565b60006134aa6000198460080261348c565b1980831691505092915050565b60006134c38383613499565b9150826002028217905092915050565b8181036134e15750506135b9565b6134ea826132fc565b67ffffffffffffffff811115613503576135026129c7565b5b61350d8254612f3a565b613518828285613446565b6000601f8311600181146135475760008415613535578287015490505b61353f85826134b7565b8655506135b2565b601f19841661355587613327565b965061356086613312565b60005b8281101561358857848901548255600182019150600185019450602081019050613563565b868310156135a557848901546135a1601f891682613499565b8355505b6001600288020188555050505b5050505050505b565b60006080820190506135d060008301876124ad565b6135dd60208301866125e3565b6135ea60408301856125e3565b6135f760608301846125e3565b95945050505050565b7f496e76616c6964207363686564756c6520494400000000000000000000000000600082015250565b60006136366013836124c7565b915061364182613600565b602082019050919050565b6000602082019050818103600083015261366581613629565b9050919050565b7f55736572206e6f74207265676973746572656400000000000000000000000000600082015250565b60006136a26013836124c7565b91506136ad8261366c565b602082019050919050565b600060208201905081810360008301526136d181613695565b9050919050565b7f4f6e6c792073747564656e74732063616e206861766520656e726f6c6c65642060008201527f636f757273657300000000000000000000000000000000000000000000000000602082015250565b60006137346027836124c7565b915061373f826136d8565b604082019050919050565b6000602082019050818103600083015261376381613727565b9050919050565b613773826124bc565b67ffffffffffffffff81111561378c5761378b6129c7565b5b6137968254612f3a565b6137a1828285613446565b600060209050601f8311600181146137d457600084156137c2578287015190505b6137cc85826134b7565b865550613834565b601f1984166137e286613312565b60005b8281101561380a578489015182556001820191506020850194506020810190506137e5565b868310156138275784890151613823601f891682613499565b8355505b6001600288020188555050505b505050505050565b600060408201905061385160008301856124ad565b81810360208301526138638184612513565b90509392505050565b7f5573657220616c72656164792072656769737465726564000000000000000000600082015250565b60006138a26017836124c7565b91506138ad8261386c565b602082019050919050565b600060208201905081810360008301526138d181613895565b9050919050565b60006040820190506138ed6000830185612d0c565b6138fa6020830184612d83565b9392505050565b7f5363686564756c6520646f6573206e6f74206578697374206f7220686173206260008201527f65656e2064656c65746564000000000000000000000000000000000000000000602082015250565b600061395d602b836124c7565b915061396882613901565b604082019050919050565b6000602082019050818103600083015261398c81613950565b9050919050565b600060a0820190506139a860008301886124ad565b6139b560208301876124ad565b6139c260408301866125e3565b6139cf60608301856125e3565b6139dc60808301846125e3565b969550505050505056fea2646970667358221220cbb531b1e7b25536f4df7450b8bcca2e4eca8427d0baff05fb82acc10aa0e55564736f6c634300081b0033","opcodes":"PUSH1 0x80 PUSH1 0x40 MSTORE CALLVALUE DUP1 ISZERO PUSH2 0x10 JUMPI PUSH1 0x0 DUP1 REVERT JUMPDEST POP CALLER PUSH1 0x5 PUSH1 0x0 PUSH2 0x100 EXP DUP2 SLOAD DUP2 PUSH20 0xFFFFFFFFFFFFFFFFFFFFFFFFFFFFFFFFFFFFFFFF MUL NOT AND SWAP1 DUP4 PUSH20 0xFFFFFFFFFFFFFFFFFFFFFFFFFFFFFFFFFFFFFFFF AND MUL OR SWAP1 SSTORE POP PUSH1 0x40 MLOAD DUP1 PUSH1 0x60 ADD PUSH1 0x40 MSTORE DUP1 CALLER PUSH20 0xFFFFFFFFFFFFFFFFFFFFFFFFFFFFFFFFFFFFFFFF AND DUP2 MSTORE PUSH1 0x20 ADD PUSH1 0x2 DUP1 DUP2 GT ISZERO PUSH2 0x8C JUMPI PUSH2 0x8B PUSH2 0x176 JUMP JUMPDEST JUMPDEST DUP2 MSTORE PUSH1 0x20 ADD PUSH1 0x1 ISZERO ISZERO DUP2 MSTORE POP PUSH1 0x1 PUSH1 0x0 CALLER PUSH20 0xFFFFFFFFFFFFFFFFFFFFFFFFFFFFFFFFFFFFFFFF AND PUSH20 0xFFFFFFFFFFFFFFFFFFFFFFFFFFFFFFFFFFFFFFFF AND DUP2 MSTORE PUSH1 0x20 ADD SWAP1 DUP2 MSTORE PUSH1 0x20 ADD PUSH1 0x0 KECCAK256 PUSH1 0x0 DUP3 ADD MLOAD DUP2 PUSH1 0x0 ADD PUSH1 0x0 PUSH2 0x100 EXP DUP2 SLOAD DUP2 PUSH20 0xFFFFFFFFFFFFFFFFFFFFFFFFFFFFFFFFFFFFFFFF MUL NOT AND SWAP1 DUP4 PUSH20 0xFFFFFFFFFFFFFFFFFFFFFFFFFFFFFFFFFFFFFFFF AND MUL OR SWAP1 SSTORE POP PUSH1 0x20 DUP3 ADD MLOAD DUP2 PUSH1 0x0 ADD PUSH1 0x14 PUSH2 0x100 EXP DUP2 SLOAD DUP2 PUSH1 0xFF MUL NOT AND SWAP1 DUP4 PUSH1 0x2 DUP2 GT ISZERO PUSH2 0x149 JUMPI PUSH2 0x148 PUSH2 0x176 JUMP JUMPDEST JUMPDEST MUL OR SWAP1 SSTORE POP PUSH1 0x40 DUP3 ADD MLOAD DUP2 PUSH1 0x0 ADD PUSH1 0x15 PUSH2 0x100 EXP DUP2 SLOAD DUP2 PUSH1 0xFF MUL NOT AND SWAP1 DUP4 ISZERO ISZERO MUL OR SWAP1 SSTORE POP SWAP1 POP POP PUSH2 0x1A5 JUMP JUMPDEST PUSH32 0x4E487B7100000000000000000000000000000000000000000000000000000000 PUSH1 0x0 MSTORE PUSH1 0x21 PUSH1 0x4 MSTORE PUSH1 0x24 PUSH1 0x0 REVERT JUMPDEST PUSH2 0x3A1C DUP1 PUSH2 0x1B4 PUSH1 0x0 CODECOPY PUSH1 0x0 RETURN INVALID PUSH1 0x80 PUSH1 0x40 MSTORE CALLVALUE DUP1 ISZERO PUSH2 0x10 JUMPI PUSH1 0x0 DUP1 REVERT JUMPDEST POP PUSH1 0x4 CALLDATASIZE LT PUSH2 0x12C JUMPI PUSH1 0x0 CALLDATALOAD PUSH1 0xE0 SHR DUP1 PUSH4 0x96F979D2 GT PUSH2 0xAD JUMPI DUP1 PUSH4 0xBFC42328 GT PUSH2 0x71 JUMPI DUP1 PUSH4 0xBFC42328 EQ PUSH2 0x357 JUMPI DUP1 PUSH4 0xC53069C7 EQ PUSH2 0x373 JUMPI DUP1 PUSH4 0xECF1938E EQ PUSH2 0x391 JUMPI DUP1 PUSH4 0xF43E5E42 EQ PUSH2 0x3AD JUMPI DUP1 PUSH4 0xF851A440 EQ PUSH2 0x3E2 JUMPI PUSH2 0x12C JUMP JUMPDEST DUP1 PUSH4 0x96F979D2 EQ PUSH2 0x29C JUMPI DUP1 PUSH4 0x9DAD8D22 EQ PUSH2 0x2D1 JUMPI DUP1 PUSH4 0x9E9FA097 EQ PUSH2 0x2ED JUMPI DUP1 PUSH4 0xA4ADB24B EQ PUSH2 0x309 JUMPI DUP1 PUSH4 0xA87430BA EQ PUSH2 0x325 JUMPI PUSH2 0x12C JUMP JUMPDEST DUP1 PUSH4 0x80B3EA88 GT PUSH2 0xF4 JUMPI DUP1 PUSH4 0x80B3EA88 EQ PUSH2 0x1F1 JUMPI DUP1 PUSH4 0x83517A4F EQ PUSH2 0x226 JUMPI DUP1 PUSH4 0x87AC1860 EQ PUSH2 0x244 JUMPI DUP1 PUSH4 0x91AAC065 EQ PUSH2 0x262 JUMPI DUP1 PUSH4 0x965720AF EQ PUSH2 0x27E JUMPI PUSH2 0x12C JUMP JUMPDEST DUP1 PUSH4 0xB91E28D EQ PUSH2 0x131 JUMPI DUP1 PUSH4 0x19384DD1 EQ PUSH2 0x166 JUMPI DUP1 PUSH4 0x27FD9572 EQ PUSH2 0x182 JUMPI DUP1 PUSH4 0x292A1B55 EQ PUSH2 0x1B7 JUMPI DUP1 PUSH4 0x77B31134 EQ PUSH2 0x1D5 JUMPI JUMPDEST PUSH1 0x0 DUP1 REVERT JUMPDEST PUSH2 0x14B PUSH1 0x4 DUP1 CALLDATASIZE SUB DUP2 ADD SWAP1 PUSH2 0x146 SWAP2 SWAP1 PUSH2 0x2480 JUMP JUMPDEST PUSH2 0x400 JUMP JUMPDEST PUSH1 0x40 MLOAD PUSH2 0x15D SWAP7 SWAP6 SWAP5 SWAP4 SWAP3 SWAP2 SWAP1 PUSH2 0x2567 JUMP JUMPDEST PUSH1 0x40 MLOAD DUP1 SWAP2 SUB SWAP1 RETURN JUMPDEST PUSH2 0x180 PUSH1 0x4 DUP1 CALLDATASIZE SUB DUP2 ADD SWAP1 PUSH2 0x17B SWAP2 SWAP1 PUSH2 0x2480 JUMP JUMPDEST PUSH2 0x5BB JUMP JUMPDEST STOP JUMPDEST PUSH2 0x19C PUSH1 0x4 DUP1 CALLDATASIZE SUB DUP2 ADD SWAP1 PUSH2 0x197 SWAP2 SWAP1 PUSH2 0x2480 JUMP JUMPDEST PUSH2 0x89D JUMP JUMPDEST PUSH1 0x40 MLOAD PUSH2 0x1AE SWAP7 SWAP6 SWAP5 SWAP4 SWAP3 SWAP2 SWAP1 PUSH2 0x25F2 JUMP JUMPDEST PUSH1 0x40 MLOAD DUP1 SWAP2 SUB SWAP1 RETURN JUMPDEST PUSH2 0x1BF PUSH2 0x995 JUMP JUMPDEST PUSH1 0x40 MLOAD PUSH2 0x1CC SWAP2 SWAP1 PUSH2 0x281C JUMP JUMPDEST PUSH1 0x40 MLOAD DUP1 SWAP2 SUB SWAP1 RETURN JUMPDEST PUSH2 0x1EF PUSH1 0x4 DUP1 CALLDATASIZE SUB DUP2 ADD SWAP1 PUSH2 0x1EA SWAP2 SWAP1 PUSH2 0x286A JUMP JUMPDEST PUSH2 0xCC3 JUMP JUMPDEST STOP JUMPDEST PUSH2 0x20B PUSH1 0x4 DUP1 CALLDATASIZE SUB DUP2 ADD SWAP1 PUSH2 0x206 SWAP2 SWAP1 PUSH2 0x2480 JUMP JUMPDEST PUSH2 0x1011 JUMP JUMPDEST PUSH1 0x40 MLOAD PUSH2 0x21D SWAP7 SWAP6 SWAP5 SWAP4 SWAP3 SWAP2 SWAP1 PUSH2 0x25F2 JUMP JUMPDEST PUSH1 0x40 MLOAD DUP1 SWAP2 SUB SWAP1 RETURN JUMPDEST PUSH2 0x22E PUSH2 0x1169 JUMP JUMPDEST PUSH1 0x40 MLOAD PUSH2 0x23B SWAP2 SWAP1 PUSH2 0x2980 JUMP JUMPDEST PUSH1 0x40 MLOAD DUP1 SWAP2 SUB SWAP1 RETURN JUMPDEST PUSH2 0x24C PUSH2 0x14A1 JUMP JUMPDEST PUSH1 0x40 MLOAD PUSH2 0x259 SWAP2 SWAP1 PUSH2 0x29A2 JUMP JUMPDEST PUSH1 0x40 MLOAD DUP1 SWAP2 SUB SWAP1 RETURN JUMPDEST PUSH2 0x27C PUSH1 0x4 DUP1 CALLDATASIZE SUB DUP2 ADD SWAP1 PUSH2 0x277 SWAP2 SWAP1 PUSH2 0x2AF2 JUMP JUMPDEST PUSH2 0x14A7 JUMP JUMPDEST STOP JUMPDEST PUSH2 0x286 PUSH2 0x15D0 JUMP JUMPDEST PUSH1 0x40 MLOAD PUSH2 0x293 SWAP2 SWAP1 PUSH2 0x29A2 JUMP JUMPDEST PUSH1 0x40 MLOAD DUP1 SWAP2 SUB SWAP1 RETURN JUMPDEST PUSH2 0x2B6 PUSH1 0x4 DUP1 CALLDATASIZE SUB DUP2 ADD SWAP1 PUSH2 0x2B1 SWAP2 SWAP1 PUSH2 0x2480 JUMP JUMPDEST PUSH2 0x15D6 JUMP JUMPDEST PUSH1 0x40 MLOAD PUSH2 0x2C8 SWAP7 SWAP6 SWAP5 SWAP4 SWAP3 SWAP2 SWAP1 PUSH2 0x2567 JUMP JUMPDEST PUSH1 0x40 MLOAD DUP1 SWAP2 SUB SWAP1 RETURN JUMPDEST PUSH2 0x2EB PUSH1 0x4 DUP1 CALLDATASIZE SUB DUP2 ADD SWAP1 PUSH2 0x2E6 SWAP2 SWAP1 PUSH2 0x2480 JUMP JUMPDEST PUSH2 0x172F JUMP JUMPDEST STOP JUMPDEST PUSH2 0x307 PUSH1 0x4 DUP1 CALLDATASIZE SUB DUP2 ADD SWAP1 PUSH2 0x302 SWAP2 SWAP1 PUSH2 0x2C14 JUMP JUMPDEST PUSH2 0x183D JUMP JUMPDEST STOP JUMPDEST PUSH2 0x323 PUSH1 0x4 DUP1 CALLDATASIZE SUB DUP2 ADD SWAP1 PUSH2 0x31E SWAP2 SWAP1 PUSH2 0x2C54 JUMP JUMPDEST PUSH2 0x1A29 JUMP JUMPDEST STOP JUMPDEST PUSH2 0x33F PUSH1 0x4 DUP1 CALLDATASIZE SUB DUP2 ADD SWAP1 PUSH2 0x33A SWAP2 SWAP1 PUSH2 0x2CDF JUMP JUMPDEST PUSH2 0x1AF7 JUMP JUMPDEST PUSH1 0x40 MLOAD PUSH2 0x34E SWAP4 SWAP3 SWAP2 SWAP1 PUSH2 0x2D92 JUMP JUMPDEST PUSH1 0x40 MLOAD DUP1 SWAP2 SUB SWAP1 RETURN JUMPDEST PUSH2 0x371 PUSH1 0x4 DUP1 CALLDATASIZE SUB DUP2 ADD SWAP1 PUSH2 0x36C SWAP2 SWAP1 PUSH2 0x2DC9 JUMP JUMPDEST PUSH2 0x1B5B JUMP JUMPDEST STOP JUMPDEST PUSH2 0x37B PUSH2 0x1E2F JUMP JUMPDEST PUSH1 0x40 MLOAD PUSH2 0x388 SWAP2 SWAP1 PUSH2 0x2980 JUMP JUMPDEST PUSH1 0x40 MLOAD DUP1 SWAP2 SUB SWAP1 RETURN JUMPDEST PUSH2 0x3AB PUSH1 0x4 DUP1 CALLDATASIZE SUB DUP2 ADD SWAP1 PUSH2 0x3A6 SWAP2 SWAP1 PUSH2 0x2E44 JUMP JUMPDEST PUSH2 0x1F9C JUMP JUMPDEST STOP JUMPDEST PUSH2 0x3C7 PUSH1 0x4 DUP1 CALLDATASIZE SUB DUP2 ADD SWAP1 PUSH2 0x3C2 SWAP2 SWAP1 PUSH2 0x2E44 JUMP JUMPDEST PUSH2 0x21A9 JUMP JUMPDEST PUSH1 0x40 MLOAD PUSH2 0x3D9 SWAP7 SWAP6 SWAP5 SWAP4 SWAP3 SWAP2 SWAP1 PUSH2 0x25F2 JUMP JUMPDEST PUSH1 0x40 MLOAD DUP1 SWAP2 SUB SWAP1 RETURN JUMPDEST PUSH2 0x3EA PUSH2 0x23CF JUMP JUMPDEST PUSH1 0x40 MLOAD PUSH2 0x3F7 SWAP2 SWAP1 PUSH2 0x2E84 JUMP JUMPDEST PUSH1 0x40 MLOAD DUP1 SWAP2 SUB SWAP1 RETURN JUMPDEST PUSH1 0x0 PUSH1 0x60 DUP1 PUSH1 0x0 DUP1 PUSH1 0x0 PUSH1 0x3 SLOAD DUP8 LT PUSH2 0x44E JUMPI PUSH1 0x40 MLOAD PUSH32 0x8C379A000000000000000000000000000000000000000000000000000000000 DUP2 MSTORE PUSH1 0x4 ADD PUSH2 0x445 SWAP1 PUSH2 0x2EEB JUMP JUMPDEST PUSH1 0x40 MLOAD DUP1 SWAP2 SUB SWAP1 REVERT JUMPDEST PUSH1 0x0 DUP1 PUSH1 0x0 DUP10 DUP2 MSTORE PUSH1 0x20 ADD SWAP1 DUP2 MSTORE PUSH1 0x20 ADD PUSH1 0x0 KECCAK256 SWAP1 POP DUP1 PUSH1 0x0 ADD SLOAD DUP2 PUSH1 0x1 ADD DUP3 PUSH1 0x2 ADD DUP4 PUSH1 0x3 ADD SLOAD DUP5 PUSH1 0x4 ADD PUSH1 0x0 SWAP1 SLOAD SWAP1 PUSH2 0x100 EXP SWAP1 DIV PUSH1 0xFF AND DUP6 PUSH1 0x5 ADD SLOAD DUP5 DUP1 SLOAD PUSH2 0x499 SWAP1 PUSH2 0x2F3A JUMP JUMPDEST DUP1 PUSH1 0x1F ADD PUSH1 0x20 DUP1 SWAP2 DIV MUL PUSH1 0x20 ADD PUSH1 0x40 MLOAD SWAP1 DUP2 ADD PUSH1 0x40 MSTORE DUP1 SWAP3 SWAP2 SWAP1 DUP2 DUP2 MSTORE PUSH1 0x20 ADD DUP3 DUP1 SLOAD PUSH2 0x4C5 SWAP1 PUSH2 0x2F3A JUMP JUMPDEST DUP1 ISZERO PUSH2 0x512 JUMPI DUP1 PUSH1 0x1F LT PUSH2 0x4E7 JUMPI PUSH2 0x100 DUP1 DUP4 SLOAD DIV MUL DUP4 MSTORE SWAP2 PUSH1 0x20 ADD SWAP2 PUSH2 0x512 JUMP JUMPDEST DUP3 ADD SWAP2 SWAP1 PUSH1 0x0 MSTORE PUSH1 0x20 PUSH1 0x0 KECCAK256 SWAP1 JUMPDEST DUP2 SLOAD DUP2 MSTORE SWAP1 PUSH1 0x1 ADD SWAP1 PUSH1 0x20 ADD DUP1 DUP4 GT PUSH2 0x4F5 JUMPI DUP3 SWAP1 SUB PUSH1 0x1F AND DUP3 ADD SWAP2 JUMPDEST POP POP POP POP POP SWAP5 POP DUP4 DUP1 SLOAD PUSH2 0x525 SWAP1 PUSH2 0x2F3A JUMP JUMPDEST DUP1 PUSH1 0x1F ADD PUSH1 0x20 DUP1 SWAP2 DIV MUL PUSH1 0x20 ADD PUSH1 0x40 MLOAD SWAP1 DUP2 ADD PUSH1 0x40 MSTORE DUP1 SWAP3 SWAP2 SWAP1 DUP2 DUP2 MSTORE PUSH1 0x20 ADD DUP3 DUP1 SLOAD PUSH2 0x551 SWAP1 PUSH2 0x2F3A JUMP JUMPDEST DUP1 ISZERO PUSH2 0x59E JUMPI DUP1 PUSH1 0x1F LT PUSH2 0x573 JUMPI PUSH2 0x100 DUP1 DUP4 SLOAD DIV MUL DUP4 MSTORE SWAP2 PUSH1 0x20 ADD SWAP2 PUSH2 0x59E JUMP JUMPDEST DUP3 ADD SWAP2 SWAP1 PUSH1 0x0 MSTORE PUSH1 0x20 PUSH1 0x0 KECCAK256 SWAP1 JUMPDEST DUP2 SLOAD DUP2 MSTORE SWAP1 PUSH1 0x1 ADD SWAP1 PUSH1 0x20 ADD DUP1 DUP4 GT PUSH2 0x581 JUMPI DUP3 SWAP1 SUB PUSH1 0x1F AND DUP3 ADD SWAP2 JUMPDEST POP POP POP POP POP SWAP4 POP SWAP7 POP SWAP7 POP SWAP7 POP SWAP7 POP SWAP7 POP SWAP7 POP POP SWAP2 SWAP4 SWAP6 POP SWAP2 SWAP4 SWAP6 JUMP JUMPDEST PUSH1 0x3 SLOAD DUP2 LT PUSH2 0x5FF JUMPI PUSH1 0x40 MLOAD PUSH32 0x8C379A000000000000000000000000000000000000000000000000000000000 DUP2 MSTORE PUSH1 0x4 ADD PUSH2 0x5F6 SWAP1 PUSH2 0x2EEB JUMP JUMPDEST PUSH1 0x40 MLOAD DUP1 SWAP2 SUB SWAP1 REVERT JUMPDEST PUSH1 0x0 DUP1 DUP3 DUP2 MSTORE PUSH1 0x20 ADD SWAP1 DUP2 MSTORE PUSH1 0x20 ADD PUSH1 0x0 KECCAK256 PUSH1 0x4 ADD PUSH1 0x0 SWAP1 SLOAD SWAP1 PUSH2 0x100 EXP SWAP1 DIV PUSH1 0xFF AND PUSH2 0x661 JUMPI PUSH1 0x40 MLOAD PUSH32 0x8C379A000000000000000000000000000000000000000000000000000000000 DUP2 MSTORE PUSH1 0x4 ADD PUSH2 0x658 SWAP1 PUSH2 0x2FDD JUMP JUMPDEST PUSH1 0x40 MLOAD DUP1 SWAP2 SUB SWAP1 REVERT JUMPDEST PUSH1 0x0 PUSH1 0x2 DUP2 GT ISZERO PUSH2 0x675 JUMPI PUSH2 0x674 PUSH2 0x2D1B JUMP JUMPDEST JUMPDEST PUSH1 0x1 PUSH1 0x0 CALLER PUSH20 0xFFFFFFFFFFFFFFFFFFFFFFFFFFFFFFFFFFFFFFFF AND PUSH20 0xFFFFFFFFFFFFFFFFFFFFFFFFFFFFFFFFFFFFFFFF AND DUP2 MSTORE PUSH1 0x20 ADD SWAP1 DUP2 MSTORE PUSH1 0x20 ADD PUSH1 0x0 KECCAK256 PUSH1 0x0 ADD PUSH1 0x14 SWAP1 SLOAD SWAP1 PUSH2 0x100 EXP SWAP1 DIV PUSH1 0xFF AND PUSH1 0x2 DUP2 GT ISZERO PUSH2 0x6D7 JUMPI PUSH2 0x6D6 PUSH2 0x2D1B JUMP JUMPDEST JUMPDEST EQ PUSH2 0x717 JUMPI PUSH1 0x40 MLOAD PUSH32 0x8C379A000000000000000000000000000000000000000000000000000000000 DUP2 MSTORE PUSH1 0x4 ADD PUSH2 0x70E SWAP1 PUSH2 0x306F JUMP JUMPDEST PUSH1 0x40 MLOAD DUP1 SWAP2 SUB SWAP1 REVERT JUMPDEST PUSH1 0x0 DUP1 PUSH1 0x0 DUP4 DUP2 MSTORE PUSH1 0x20 ADD SWAP1 DUP2 MSTORE PUSH1 0x20 ADD PUSH1 0x0 KECCAK256 SWAP1 POP PUSH1 0x0 JUMPDEST DUP2 PUSH1 0x6 ADD DUP1 SLOAD SWAP1 POP DUP2 LT ISZERO PUSH2 0x7FA JUMPI CALLER PUSH20 0xFFFFFFFFFFFFFFFFFFFFFFFFFFFFFFFFFFFFFFFF AND DUP3 PUSH1 0x6 ADD DUP3 DUP2 SLOAD DUP2 LT PUSH2 0x76C JUMPI PUSH2 0x76B PUSH2 0x308F JUMP JUMPDEST JUMPDEST SWAP1 PUSH1 0x0 MSTORE PUSH1 0x20 PUSH1 0x0 KECCAK256 ADD PUSH1 0x0 SWAP1 SLOAD SWAP1 PUSH2 0x100 EXP SWAP1 DIV PUSH20 0xFFFFFFFFFFFFFFFFFFFFFFFFFFFFFFFFFFFFFFFF AND PUSH20 0xFFFFFFFFFFFFFFFFFFFFFFFFFFFFFFFFFFFFFFFF AND SUB PUSH2 0x7ED JUMPI PUSH1 0x40 MLOAD PUSH32 0x8C379A000000000000000000000000000000000000000000000000000000000 DUP2 MSTORE PUSH1 0x4 ADD PUSH2 0x7E4 SWAP1 PUSH2 0x3130 JUMP JUMPDEST PUSH1 0x40 MLOAD DUP1 SWAP2 SUB SWAP1 REVERT JUMPDEST DUP1 DUP1 PUSH1 0x1 ADD SWAP2 POP POP PUSH2 0x730 JUMP JUMPDEST POP DUP1 PUSH1 0x6 ADD CALLER SWAP1 DUP1 PUSH1 0x1 DUP2 SLOAD ADD DUP1 DUP3 SSTORE DUP1 SWAP2 POP POP PUSH1 0x1 SWAP1 SUB SWAP1 PUSH1 0x0 MSTORE PUSH1 0x20 PUSH1 0x0 KECCAK256 ADD PUSH1 0x0 SWAP1 SWAP2 SWAP1 SWAP2 SWAP1 SWAP2 PUSH2 0x100 EXP DUP2 SLOAD DUP2 PUSH20 0xFFFFFFFFFFFFFFFFFFFFFFFFFFFFFFFFFFFFFFFF MUL NOT AND SWAP1 DUP4 PUSH20 0xFFFFFFFFFFFFFFFFFFFFFFFFFFFFFFFFFFFFFFFF AND MUL OR SWAP1 SSTORE POP PUSH32 0x5978A47CE47CDEB8A43A1794142DD16F2F94E95103BD104783A42725C7FE8CFF DUP3 CALLER PUSH1 0x40 MLOAD PUSH2 0x891 SWAP3 SWAP2 SWAP1 PUSH2 0x3150 JUMP JUMPDEST PUSH1 0x40 MLOAD DUP1 SWAP2 SUB SWAP1 LOG1 POP POP JUMP JUMPDEST PUSH1 0x2 PUSH1 0x20 MSTORE DUP1 PUSH1 0x0 MSTORE PUSH1 0x40 PUSH1 0x0 KECCAK256 PUSH1 0x0 SWAP2 POP SWAP1 POP DUP1 PUSH1 0x0 ADD SLOAD SWAP1 DUP1 PUSH1 0x1 ADD PUSH1 0x0 SWAP1 SLOAD SWAP1 PUSH2 0x100 EXP SWAP1 DIV PUSH1 0xFF AND SWAP1 DUP1 PUSH1 0x1 ADD PUSH1 0x1 SWAP1 SLOAD SWAP1 PUSH2 0x100 EXP SWAP1 DIV PUSH1 0xFF AND SWAP1 DUP1 PUSH1 0x1 ADD PUSH1 0x2 SWAP1 SLOAD SWAP1 PUSH2 0x100 EXP SWAP1 DIV PUSH1 0xFF AND SWAP1 DUP1 PUSH1 0x2 ADD DUP1 SLOAD PUSH2 0x8FF SWAP1 PUSH2 0x2F3A JUMP JUMPDEST DUP1 PUSH1 0x1F ADD PUSH1 0x20 DUP1 SWAP2 DIV MUL PUSH1 0x20 ADD PUSH1 0x40 MLOAD SWAP1 DUP2 ADD PUSH1 0x40 MSTORE DUP1 SWAP3 SWAP2 SWAP1 DUP2 DUP2 MSTORE PUSH1 0x20 ADD DUP3 DUP1 SLOAD PUSH2 0x92B SWAP1 PUSH2 0x2F3A JUMP JUMPDEST DUP1 ISZERO PUSH2 0x978 JUMPI DUP1 PUSH1 0x1F LT PUSH2 0x94D JUMPI PUSH2 0x100 DUP1 DUP4 SLOAD DIV MUL DUP4 MSTORE SWAP2 PUSH1 0x20 ADD SWAP2 PUSH2 0x978 JUMP JUMPDEST DUP3 ADD SWAP2 SWAP1 PUSH1 0x0 MSTORE PUSH1 0x20 PUSH1 0x0 KECCAK256 SWAP1 JUMPDEST DUP2 SLOAD DUP2 MSTORE SWAP1 PUSH1 0x1 ADD SWAP1 PUSH1 0x20 ADD DUP1 DUP4 GT PUSH2 0x95B JUMPI DUP3 SWAP1 SUB PUSH1 0x1F AND DUP3 ADD SWAP2 JUMPDEST POP POP POP POP POP SWAP1 DUP1 PUSH1 0x3 ADD PUSH1 0x0 SWAP1 SLOAD SWAP1 PUSH2 0x100 EXP SWAP1 DIV PUSH1 0xFF AND SWAP1 POP DUP7 JUMP JUMPDEST PUSH1 0x60 PUSH1 0x0 DUP1 JUMPDEST PUSH1 0x3 SLOAD DUP2 LT ISZERO PUSH2 0xA59 JUMPI PUSH1 0x0 DUP1 DUP3 DUP2 MSTORE PUSH1 0x20 ADD SWAP1 DUP2 MSTORE PUSH1 0x20 ADD PUSH1 0x0 KECCAK256 PUSH1 0x4 ADD PUSH1 0x0 SWAP1 SLOAD SWAP1 PUSH2 0x100 EXP SWAP1 DIV PUSH1 0xFF AND ISZERO PUSH2 0xA4C JUMPI PUSH1 0x0 JUMPDEST PUSH1 0x0 DUP1 DUP4 DUP2 MSTORE PUSH1 0x20 ADD SWAP1 DUP2 MSTORE PUSH1 0x20 ADD PUSH1 0x0 KECCAK256 PUSH1 0x5 ADD SLOAD DUP2 GT PUSH2 0xA4A JUMPI PUSH1 0x0 DUP1 DUP4 DUP2 MSTORE PUSH1 0x20 ADD SWAP1 DUP2 MSTORE PUSH1 0x20 ADD PUSH1 0x0 KECCAK256 PUSH1 0x7 ADD PUSH1 0x0 DUP3 DUP2 MSTORE PUSH1 0x20 ADD SWAP1 DUP2 MSTORE PUSH1 0x20 ADD PUSH1 0x0 KECCAK256 PUSH1 0x3 ADD PUSH1 0x0 SWAP1 SLOAD SWAP1 PUSH2 0x100 EXP SWAP1 DIV PUSH1 0xFF AND ISZERO PUSH2 0xA37 JUMPI DUP3 DUP1 PUSH2 0xA33 SWAP1 PUSH2 0x31A8 JUMP JUMPDEST SWAP4 POP POP JUMPDEST DUP1 DUP1 PUSH2 0xA42 SWAP1 PUSH2 0x31A8 JUMP JUMPDEST SWAP2 POP POP PUSH2 0x9D0 JUMP JUMPDEST POP JUMPDEST DUP1 DUP1 PUSH1 0x1 ADD SWAP2 POP POP PUSH2 0x99B JUMP JUMPDEST POP PUSH1 0x0 DUP2 PUSH8 0xFFFFFFFFFFFFFFFF DUP2 GT ISZERO PUSH2 0xA76 JUMPI PUSH2 0xA75 PUSH2 0x29C7 JUMP JUMPDEST JUMPDEST PUSH1 0x40 MLOAD SWAP1 DUP1 DUP3 MSTORE DUP1 PUSH1 0x20 MUL PUSH1 0x20 ADD DUP3 ADD PUSH1 0x40 MSTORE DUP1 ISZERO PUSH2 0xAAF JUMPI DUP2 PUSH1 0x20 ADD JUMPDEST PUSH2 0xA9C PUSH2 0x23F5 JUMP JUMPDEST DUP2 MSTORE PUSH1 0x20 ADD SWAP1 PUSH1 0x1 SWAP1 SUB SWAP1 DUP2 PUSH2 0xA94 JUMPI SWAP1 POP JUMPDEST POP SWAP1 POP PUSH1 0x0 DUP1 JUMPDEST PUSH1 0x3 SLOAD DUP2 LT ISZERO PUSH2 0xCB9 JUMPI PUSH1 0x0 DUP1 DUP3 DUP2 MSTORE PUSH1 0x20 ADD SWAP1 DUP2 MSTORE PUSH1 0x20 ADD PUSH1 0x0 KECCAK256 PUSH1 0x4 ADD PUSH1 0x0 SWAP1 SLOAD SWAP1 PUSH2 0x100 EXP SWAP1 DIV PUSH1 0xFF AND ISZERO PUSH2 0xCAC JUMPI PUSH1 0x0 DUP1 PUSH1 0x0 DUP4 DUP2 MSTORE PUSH1 0x20 ADD SWAP1 DUP2 MSTORE PUSH1 0x20 ADD PUSH1 0x0 KECCAK256 SWAP1 POP PUSH1 0x0 PUSH1 0x1 SWAP1 POP JUMPDEST DUP2 PUSH1 0x5 ADD SLOAD DUP2 GT PUSH2 0xCA9 JUMPI DUP2 PUSH1 0x7 ADD PUSH1 0x0 DUP3 DUP2 MSTORE PUSH1 0x20 ADD SWAP1 DUP2 MSTORE PUSH1 0x20 ADD PUSH1 0x0 KECCAK256 PUSH1 0x3 ADD PUSH1 0x0 SWAP1 SLOAD SWAP1 PUSH2 0x100 EXP SWAP1 DIV PUSH1 0xFF AND ISZERO PUSH2 0xC96 JUMPI DUP2 PUSH1 0x7 ADD PUSH1 0x0 DUP3 DUP2 MSTORE PUSH1 0x20 ADD SWAP1 DUP2 MSTORE PUSH1 0x20 ADD PUSH1 0x0 KECCAK256 PUSH1 0x40 MLOAD DUP1 PUSH1 0xC0 ADD PUSH1 0x40 MSTORE SWAP1 DUP2 PUSH1 0x0 DUP3 ADD SLOAD DUP2 MSTORE PUSH1 0x20 ADD PUSH1 0x1 DUP3 ADD PUSH1 0x0 SWAP1 SLOAD SWAP1 PUSH2 0x100 EXP SWAP1 DIV PUSH1 0xFF AND PUSH1 0xFF AND PUSH1 0xFF AND DUP2 MSTORE PUSH1 0x20 ADD PUSH1 0x1 DUP3 ADD PUSH1 0x1 SWAP1 SLOAD SWAP1 PUSH2 0x100 EXP SWAP1 DIV PUSH1 0xFF AND PUSH1 0xFF AND PUSH1 0xFF AND DUP2 MSTORE PUSH1 0x20 ADD PUSH1 0x1 DUP3 ADD PUSH1 0x2 SWAP1 SLOAD SWAP1 PUSH2 0x100 EXP SWAP1 DIV PUSH1 0xFF AND PUSH1 0xFF AND PUSH1 0xFF AND DUP2 MSTORE PUSH1 0x20 ADD PUSH1 0x2 DUP3 ADD DUP1 SLOAD PUSH2 0xBCC SWAP1 PUSH2 0x2F3A JUMP JUMPDEST DUP1 PUSH1 0x1F ADD PUSH1 0x20 DUP1 SWAP2 DIV MUL PUSH1 0x20 ADD PUSH1 0x40 MLOAD SWAP1 DUP2 ADD PUSH1 0x40 MSTORE DUP1 SWAP3 SWAP2 SWAP1 DUP2 DUP2 MSTORE PUSH1 0x20 ADD DUP3 DUP1 SLOAD PUSH2 0xBF8 SWAP1 PUSH2 0x2F3A JUMP JUMPDEST DUP1 ISZERO PUSH2 0xC45 JUMPI DUP1 PUSH1 0x1F LT PUSH2 0xC1A JUMPI PUSH2 0x100 DUP1 DUP4 SLOAD DIV MUL DUP4 MSTORE SWAP2 PUSH1 0x20 ADD SWAP2 PUSH2 0xC45 JUMP JUMPDEST DUP3 ADD SWAP2 SWAP1 PUSH1 0x0 MSTORE PUSH1 0x20 PUSH1 0x0 KECCAK256 SWAP1 JUMPDEST DUP2 SLOAD DUP2 MSTORE SWAP1 PUSH1 0x1 ADD SWAP1 PUSH1 0x20 ADD DUP1 DUP4 GT PUSH2 0xC28 JUMPI DUP3 SWAP1 SUB PUSH1 0x1F AND DUP3 ADD SWAP2 JUMPDEST POP POP POP POP POP DUP2 MSTORE PUSH1 0x20 ADD PUSH1 0x3 DUP3 ADD PUSH1 0x0 SWAP1 SLOAD SWAP1 PUSH2 0x100 EXP SWAP1 DIV PUSH1 0xFF AND ISZERO ISZERO ISZERO ISZERO DUP2 MSTORE POP POP DUP6 DUP6 DUP2 MLOAD DUP2 LT PUSH2 0xC7C JUMPI PUSH2 0xC7B PUSH2 0x308F JUMP JUMPDEST JUMPDEST PUSH1 0x20 MUL PUSH1 0x20 ADD ADD DUP2 SWAP1 MSTORE POP DUP4 DUP1 PUSH2 0xC92 SWAP1 PUSH2 0x31A8 JUMP JUMPDEST SWAP5 POP POP JUMPDEST DUP1 DUP1 PUSH2 0xCA1 SWAP1 PUSH2 0x31A8 JUMP JUMPDEST SWAP2 POP POP PUSH2 0xB05 JUMP JUMPDEST POP POP JUMPDEST DUP1 DUP1 PUSH1 0x1 ADD SWAP2 POP POP PUSH2 0xAB6 JUMP JUMPDEST POP DUP2 SWAP4 POP POP POP POP SWAP1 JUMP JUMPDEST PUSH1 0x3 SLOAD DUP5 LT PUSH2 0xD07 JUMPI PUSH1 0x40 MLOAD PUSH32 0x8C379A000000000000000000000000000000000000000000000000000000000 DUP2 MSTORE PUSH1 0x4 ADD PUSH2 0xCFE SWAP1 PUSH2 0x2EEB JUMP JUMPDEST PUSH1 0x40 MLOAD DUP1 SWAP2 SUB SWAP1 REVERT JUMPDEST PUSH1 0x0 DUP1 DUP6 DUP2 MSTORE PUSH1 0x20 ADD SWAP1 DUP2 MSTORE PUSH1 0x20 ADD PUSH1 0x0 KECCAK256 PUSH1 0x4 ADD PUSH1 0x0 SWAP1 SLOAD SWAP1 PUSH2 0x100 EXP SWAP1 DIV PUSH1 0xFF AND PUSH2 0xD69 JUMPI PUSH1 0x40 MLOAD PUSH32 0x8C379A000000000000000000000000000000000000000000000000000000000 DUP2 MSTORE PUSH1 0x4 ADD PUSH2 0xD60 SWAP1 PUSH2 0x2FDD JUMP JUMPDEST PUSH1 0x40 MLOAD DUP1 SWAP2 SUB SWAP1 REVERT JUMPDEST PUSH1 0x1 DUP4 PUSH1 0xFF AND LT ISZERO DUP1 ISZERO PUSH2 0xD81 JUMPI POP PUSH1 0x7 DUP4 PUSH1 0xFF AND GT ISZERO JUMPDEST PUSH2 0xDC0 JUMPI PUSH1 0x40 MLOAD PUSH32 0x8C379A000000000000000000000000000000000000000000000000000000000 DUP2 MSTORE PUSH1 0x4 ADD PUSH2 0xDB7 SWAP1 PUSH2 0x323C JUMP JUMPDEST PUSH1 0x40 MLOAD DUP1 SWAP2 SUB SWAP1 REVERT JUMPDEST PUSH1 0x18 DUP3 PUSH1 0xFF AND LT DUP1 ISZERO PUSH2 0xDD6 JUMPI POP PUSH1 0x18 DUP2 PUSH1 0xFF AND LT JUMPDEST DUP1 ISZERO PUSH2 0xDE7 JUMPI POP DUP1 PUSH1 0xFF AND DUP3 PUSH1 0xFF AND LT JUMPDEST PUSH2 0xE26 JUMPI PUSH1 0x40 MLOAD PUSH32 0x8C379A000000000000000000000000000000000000000000000000000000000 DUP2 MSTORE PUSH1 0x4 ADD PUSH2 0xE1D SWAP1 PUSH2 0x32A8 JUMP JUMPDEST PUSH1 0x40 MLOAD DUP1 SWAP2 SUB SWAP1 REVERT JUMPDEST PUSH1 0x0 DUP1 PUSH1 0x0 DUP7 DUP2 MSTORE PUSH1 0x20 ADD SWAP1 DUP2 MSTORE PUSH1 0x20 ADD PUSH1 0x0 KECCAK256 SWAP1 POP PUSH1 0x0 PUSH1 0x1 DUP3 PUSH1 0x5 ADD SLOAD PUSH2 0xE4F SWAP2 SWAP1 PUSH2 0x32C8 JUMP JUMPDEST SWAP1 POP PUSH1 0x0 DUP3 PUSH1 0x7 ADD PUSH1 0x0 DUP4 DUP2 MSTORE PUSH1 0x20 ADD SWAP1 DUP2 MSTORE PUSH1 0x20 ADD PUSH1 0x0 KECCAK256 SWAP1 POP DUP2 DUP2 PUSH1 0x0 ADD DUP2 SWAP1 SSTORE POP DUP6 DUP2 PUSH1 0x1 ADD PUSH1 0x0 PUSH2 0x100 EXP DUP2 SLOAD DUP2 PUSH1 0xFF MUL NOT AND SWAP1 DUP4 PUSH1 0xFF AND MUL OR SWAP1 SSTORE POP DUP5 DUP2 PUSH1 0x1 ADD PUSH1 0x1 PUSH2 0x100 EXP DUP2 SLOAD DUP2 PUSH1 0xFF MUL NOT AND SWAP1 DUP4 PUSH1 0xFF AND MUL OR SWAP1 SSTORE POP DUP4 DUP2 PUSH1 0x1 ADD PUSH1 0x2 PUSH2 0x100 EXP DUP2 SLOAD DUP2 PUSH1 0xFF MUL NOT AND SWAP1 DUP4 PUSH1 0xFF AND MUL OR SWAP1 SSTORE POP DUP3 PUSH1 0x1 ADD DUP2 PUSH1 0x2 ADD SWAP1 DUP2 PUSH2 0xEDE SWAP2 SWAP1 PUSH2 0x34D3 JUMP JUMPDEST POP PUSH1 0x1 DUP2 PUSH1 0x3 ADD PUSH1 0x0 PUSH2 0x100 EXP DUP2 SLOAD DUP2 PUSH1 0xFF MUL NOT AND SWAP1 DUP4 ISZERO ISZERO MUL OR SWAP1 SSTORE POP DUP2 DUP4 PUSH1 0x5 ADD DUP2 SWAP1 SSTORE POP PUSH1 0x0 PUSH1 0x2 PUSH1 0x0 PUSH1 0x4 SLOAD DUP2 MSTORE PUSH1 0x20 ADD SWAP1 DUP2 MSTORE PUSH1 0x20 ADD PUSH1 0x0 KECCAK256 SWAP1 POP PUSH1 0x4 SLOAD DUP2 PUSH1 0x0 ADD DUP2 SWAP1 SSTORE POP DUP7 DUP2 PUSH1 0x1 ADD PUSH1 0x0 PUSH2 0x100 EXP DUP2 SLOAD DUP2 PUSH1 0xFF MUL NOT AND SWAP1 DUP4 PUSH1 0xFF AND MUL OR SWAP1 SSTORE POP DUP6 DUP2 PUSH1 0x1 ADD PUSH1 0x1 PUSH2 0x100 EXP DUP2 SLOAD DUP2 PUSH1 0xFF MUL NOT AND SWAP1 DUP4 PUSH1 0xFF AND MUL OR SWAP1 SSTORE POP DUP5 DUP2 PUSH1 0x1 ADD PUSH1 0x2 PUSH2 0x100 EXP DUP2 SLOAD DUP2 PUSH1 0xFF MUL NOT AND SWAP1 DUP4 PUSH1 0xFF AND MUL OR SWAP1 SSTORE POP DUP4 PUSH1 0x1 ADD DUP2 PUSH1 0x2 ADD SWAP1 DUP2 PUSH2 0xF94 SWAP2 SWAP1 PUSH2 0x34D3 JUMP JUMPDEST POP PUSH1 0x1 DUP2 PUSH1 0x3 ADD PUSH1 0x0 PUSH2 0x100 EXP DUP2 SLOAD DUP2 PUSH1 0xFF MUL NOT AND SWAP1 DUP4 ISZERO ISZERO MUL OR SWAP1 SSTORE POP PUSH1 0x4 PUSH1 0x0 DUP2 SLOAD DUP1 SWAP3 SWAP2 SWAP1 PUSH2 0xFC5 SWAP1 PUSH2 0x31A8 JUMP JUMPDEST SWAP2 SWAP1 POP SSTORE POP PUSH32 0x3FF69354BB51BEFB41CB392610BE115187B4AFCFED73D238A16F370C7F20491C DUP9 DUP9 DUP9 DUP9 PUSH1 0x40 MLOAD PUSH2 0xFFF SWAP5 SWAP4 SWAP3 SWAP2 SWAP1 PUSH2 0x35BB JUMP JUMPDEST PUSH1 0x40 MLOAD DUP1 SWAP2 SUB SWAP1 LOG1 POP POP POP POP POP POP POP POP JUMP JUMPDEST PUSH1 0x0 DUP1 PUSH1 0x0 DUP1 PUSH1 0x60 PUSH1 0x0 PUSH1 0x4 SLOAD DUP8 LT PUSH2 0x105F JUMPI PUSH1 0x40 MLOAD PUSH32 0x8C379A000000000000000000000000000000000000000000000000000000000 DUP2 MSTORE PUSH1 0x4 ADD PUSH2 0x1056 SWAP1 PUSH2 0x364C JUMP JUMPDEST PUSH1 0x40 MLOAD DUP1 SWAP2 SUB SWAP1 REVERT JUMPDEST PUSH1 0x0 PUSH1 0x2 PUSH1 0x0 DUP10 DUP2 MSTORE PUSH1 0x20 ADD SWAP1 DUP2 MSTORE PUSH1 0x20 ADD PUSH1 0x0 KECCAK256 SWAP1 POP DUP1 PUSH1 0x0 ADD SLOAD DUP2 PUSH1 0x1 ADD PUSH1 0x0 SWAP1 SLOAD SWAP1 PUSH2 0x100 EXP SWAP1 DIV PUSH1 0xFF AND DUP3 PUSH1 0x1 ADD PUSH1 0x1 SWAP1 SLOAD SWAP1 PUSH2 0x100 EXP SWAP1 DIV PUSH1 0xFF AND DUP4 PUSH1 0x1 ADD PUSH1 0x2 SWAP1 SLOAD SWAP1 PUSH2 0x100 EXP SWAP1 DIV PUSH1 0xFF AND DUP5 PUSH1 0x2 ADD DUP6 PUSH1 0x3 ADD PUSH1 0x0 SWAP1 SLOAD SWAP1 PUSH2 0x100 EXP SWAP1 DIV PUSH1 0xFF AND DUP2 DUP1 SLOAD PUSH2 0x10D3 SWAP1 PUSH2 0x2F3A JUMP JUMPDEST DUP1 PUSH1 0x1F ADD PUSH1 0x20 DUP1 SWAP2 DIV MUL PUSH1 0x20 ADD PUSH1 0x40 MLOAD SWAP1 DUP2 ADD PUSH1 0x40 MSTORE DUP1 SWAP3 SWAP2 SWAP1 DUP2 DUP2 MSTORE PUSH1 0x20 ADD DUP3 DUP1 SLOAD PUSH2 0x10FF SWAP1 PUSH2 0x2F3A JUMP JUMPDEST DUP1 ISZERO PUSH2 0x114C JUMPI DUP1 PUSH1 0x1F LT PUSH2 0x1121 JUMPI PUSH2 0x100 DUP1 DUP4 SLOAD DIV MUL DUP4 MSTORE SWAP2 PUSH1 0x20 ADD SWAP2 PUSH2 0x114C JUMP JUMPDEST DUP3 ADD SWAP2 SWAP1 PUSH1 0x0 MSTORE PUSH1 0x20 PUSH1 0x0 KECCAK256 SWAP1 JUMPDEST DUP2 SLOAD DUP2 MSTORE SWAP1 PUSH1 0x1 ADD SWAP1 PUSH1 0x20 ADD DUP1 DUP4 GT PUSH2 0x112F JUMPI DUP3 SWAP1 SUB PUSH1 0x1F AND DUP3 ADD SWAP2 JUMPDEST POP POP POP POP POP SWAP2 POP SWAP7 POP SWAP7 POP SWAP7 POP SWAP7 POP SWAP7 POP SWAP7 POP POP SWAP2 SWAP4 SWAP6 POP SWAP2 SWAP4 SWAP6 JUMP JUMPDEST PUSH1 0x60 PUSH1 0x1 PUSH1 0x0 CALLER PUSH20 0xFFFFFFFFFFFFFFFFFFFFFFFFFFFFFFFFFFFFFFFF AND PUSH20 0xFFFFFFFFFFFFFFFFFFFFFFFFFFFFFFFFFFFFFFFF AND DUP2 MSTORE PUSH1 0x20 ADD SWAP1 DUP2 MSTORE PUSH1 0x20 ADD PUSH1 0x0 KECCAK256 PUSH1 0x0 ADD PUSH1 0x15 SWAP1 SLOAD SWAP1 PUSH2 0x100 EXP SWAP1 DIV PUSH1 0xFF AND PUSH2 0x11FA JUMPI PUSH1 0x40 MLOAD PUSH32 0x8C379A000000000000000000000000000000000000000000000000000000000 DUP2 MSTORE PUSH1 0x4 ADD PUSH2 0x11F1 SWAP1 PUSH2 0x36B8 JUMP JUMPDEST PUSH1 0x40 MLOAD DUP1 SWAP2 SUB SWAP1 REVERT JUMPDEST PUSH1 0x0 PUSH1 0x2 DUP2 GT ISZERO PUSH2 0x120E JUMPI PUSH2 0x120D PUSH2 0x2D1B JUMP JUMPDEST JUMPDEST PUSH1 0x1 PUSH1 0x0 CALLER PUSH20 0xFFFFFFFFFFFFFFFFFFFFFFFFFFFFFFFFFFFFFFFF AND PUSH20 0xFFFFFFFFFFFFFFFFFFFFFFFFFFFFFFFFFFFFFFFF AND DUP2 MSTORE PUSH1 0x20 ADD SWAP1 DUP2 MSTORE PUSH1 0x20 ADD PUSH1 0x0 KECCAK256 PUSH1 0x0 ADD PUSH1 0x14 SWAP1 SLOAD SWAP1 PUSH2 0x100 EXP SWAP1 DIV PUSH1 0xFF AND PUSH1 0x2 DUP2 GT ISZERO PUSH2 0x1270 JUMPI PUSH2 0x126F PUSH2 0x2D1B JUMP JUMPDEST JUMPDEST EQ PUSH2 0x12B0 JUMPI PUSH1 0x40 MLOAD PUSH32 0x8C379A000000000000000000000000000000000000000000000000000000000 DUP2 MSTORE PUSH1 0x4 ADD PUSH2 0x12A7 SWAP1 PUSH2 0x374A JUMP JUMPDEST PUSH1 0x40 MLOAD DUP1 SWAP2 SUB SWAP1 REVERT JUMPDEST PUSH1 0x0 PUSH1 0x3 SLOAD PUSH8 0xFFFFFFFFFFFFFFFF DUP2 GT ISZERO PUSH2 0x12CE JUMPI PUSH2 0x12CD PUSH2 0x29C7 JUMP JUMPDEST JUMPDEST PUSH1 0x40 MLOAD SWAP1 DUP1 DUP3 MSTORE DUP1 PUSH1 0x20 MUL PUSH1 0x20 ADD DUP3 ADD PUSH1 0x40 MSTORE DUP1 ISZERO PUSH2 0x12FC JUMPI DUP2 PUSH1 0x20 ADD PUSH1 0x20 DUP3 MUL DUP1 CALLDATASIZE DUP4 CALLDATACOPY DUP1 DUP3 ADD SWAP2 POP POP SWAP1 POP JUMPDEST POP SWAP1 POP PUSH1 0x0 DUP1 JUMPDEST PUSH1 0x3 SLOAD DUP2 LT ISZERO PUSH2 0x13F7 JUMPI PUSH1 0x0 DUP1 PUSH1 0x0 DUP4 DUP2 MSTORE PUSH1 0x20 ADD SWAP1 DUP2 MSTORE PUSH1 0x20 ADD PUSH1 0x0 KECCAK256 SWAP1 POP PUSH1 0x0 JUMPDEST DUP2 PUSH1 0x6 ADD DUP1 SLOAD SWAP1 POP DUP2 LT ISZERO PUSH2 0x13E8 JUMPI CALLER PUSH20 0xFFFFFFFFFFFFFFFFFFFFFFFFFFFFFFFFFFFFFFFF AND DUP3 PUSH1 0x6 ADD DUP3 DUP2 SLOAD DUP2 LT PUSH2 0x1362 JUMPI PUSH2 0x1361 PUSH2 0x308F JUMP JUMPDEST JUMPDEST SWAP1 PUSH1 0x0 MSTORE PUSH1 0x20 PUSH1 0x0 KECCAK256 ADD PUSH1 0x0 SWAP1 SLOAD SWAP1 PUSH2 0x100 EXP SWAP1 DIV PUSH20 0xFFFFFFFFFFFFFFFFFFFFFFFFFFFFFFFFFFFFFFFF AND PUSH20 0xFFFFFFFFFFFFFFFFFFFFFFFFFFFFFFFFFFFFFFFF AND SUB PUSH2 0x13DB JUMPI DUP3 DUP6 DUP6 DUP2 MLOAD DUP2 LT PUSH2 0x13BC JUMPI PUSH2 0x13BB PUSH2 0x308F JUMP JUMPDEST JUMPDEST PUSH1 0x20 MUL PUSH1 0x20 ADD ADD DUP2 DUP2 MSTORE POP POP DUP4 DUP1 PUSH2 0x13D3 SWAP1 PUSH2 0x31A8 JUMP JUMPDEST SWAP5 POP POP PUSH2 0x13E8 JUMP JUMPDEST DUP1 DUP1 PUSH1 0x1 ADD SWAP2 POP POP PUSH2 0x1326 JUMP JUMPDEST POP POP DUP1 DUP1 PUSH1 0x1 ADD SWAP2 POP POP PUSH2 0x1303 JUMP JUMPDEST POP PUSH1 0x0 DUP2 PUSH8 0xFFFFFFFFFFFFFFFF DUP2 GT ISZERO PUSH2 0x1414 JUMPI PUSH2 0x1413 PUSH2 0x29C7 JUMP JUMPDEST JUMPDEST PUSH1 0x40 MLOAD SWAP1 DUP1 DUP3 MSTORE DUP1 PUSH1 0x20 MUL PUSH1 0x20 ADD DUP3 ADD PUSH1 0x40 MSTORE DUP1 ISZERO PUSH2 0x1442 JUMPI DUP2 PUSH1 0x20 ADD PUSH1 0x20 DUP3 MUL DUP1 CALLDATASIZE DUP4 CALLDATACOPY DUP1 DUP3 ADD SWAP2 POP POP SWAP1 POP JUMPDEST POP SWAP1 POP PUSH1 0x0 JUMPDEST DUP3 DUP2 LT ISZERO PUSH2 0x1497 JUMPI DUP4 DUP2 DUP2 MLOAD DUP2 LT PUSH2 0x1463 JUMPI PUSH2 0x1462 PUSH2 0x308F JUMP JUMPDEST JUMPDEST PUSH1 0x20 MUL PUSH1 0x20 ADD ADD MLOAD DUP3 DUP3 DUP2 MLOAD DUP2 LT PUSH2 0x147E JUMPI PUSH2 0x147D PUSH2 0x308F JUMP JUMPDEST JUMPDEST PUSH1 0x20 MUL PUSH1 0x20 ADD ADD DUP2 DUP2 MSTORE POP POP DUP1 DUP1 PUSH1 0x1 ADD SWAP2 POP POP PUSH2 0x1448 JUMP JUMPDEST POP DUP1 SWAP4 POP POP POP POP SWAP1 JUMP JUMPDEST PUSH1 0x3 SLOAD DUP2 JUMP JUMPDEST PUSH1 0x3 SLOAD DUP5 LT PUSH2 0x14EB JUMPI PUSH1 0x40 MLOAD PUSH32 0x8C379A000000000000000000000000000000000000000000000000000000000 DUP2 MSTORE PUSH1 0x4 ADD PUSH2 0x14E2 SWAP1 PUSH2 0x2EEB JUMP JUMPDEST PUSH1 0x40 MLOAD DUP1 SWAP2 SUB SWAP1 REVERT JUMPDEST PUSH1 0x0 DUP1 DUP6 DUP2 MSTORE PUSH1 0x20 ADD SWAP1 DUP2 MSTORE PUSH1 0x20 ADD PUSH1 0x0 KECCAK256 PUSH1 0x4 ADD PUSH1 0x0 SWAP1 SLOAD SWAP1 PUSH2 0x100 EXP SWAP1 DIV PUSH1 0xFF AND PUSH2 0x154D JUMPI PUSH1 0x40 MLOAD PUSH32 0x8C379A000000000000000000000000000000000000000000000000000000000 DUP2 MSTORE PUSH1 0x4 ADD PUSH2 0x1544 SWAP1 PUSH2 0x2FDD JUMP JUMPDEST PUSH1 0x40 MLOAD DUP1 SWAP2 SUB SWAP1 REVERT JUMPDEST PUSH1 0x0 DUP1 PUSH1 0x0 DUP7 DUP2 MSTORE PUSH1 0x20 ADD SWAP1 DUP2 MSTORE PUSH1 0x20 ADD PUSH1 0x0 KECCAK256 SWAP1 POP DUP4 DUP2 PUSH1 0x1 ADD SWAP1 DUP2 PUSH2 0x1574 SWAP2 SWAP1 PUSH2 0x376A JUMP JUMPDEST POP DUP3 DUP2 PUSH1 0x2 ADD SWAP1 DUP2 PUSH2 0x1586 SWAP2 SWAP1 PUSH2 0x376A JUMP JUMPDEST POP DUP2 DUP2 PUSH1 0x3 ADD DUP2 SWAP1 SSTORE POP PUSH32 0x61F1B503285F2BAF5AE0EC7BE5C9605A293C9D47BDAF9BDB36FC15C570615FE6 DUP6 DUP6 PUSH1 0x40 MLOAD PUSH2 0x15C1 SWAP3 SWAP2 SWAP1 PUSH2 0x383C JUMP JUMPDEST PUSH1 0x40 MLOAD DUP1 SWAP2 SUB SWAP1 LOG1 POP POP POP POP POP JUMP JUMPDEST PUSH1 0x4 SLOAD DUP2 JUMP JUMPDEST PUSH1 0x0 PUSH1 0x20 MSTORE DUP1 PUSH1 0x0 MSTORE PUSH1 0x40 PUSH1 0x0 KECCAK256 PUSH1 0x0 SWAP2 POP SWAP1 POP DUP1 PUSH1 0x0 ADD SLOAD SWAP1 DUP1 PUSH1 0x1 ADD DUP1 SLOAD PUSH2 0x15FF SWAP1 PUSH2 0x2F3A JUMP JUMPDEST DUP1 PUSH1 0x1F ADD PUSH1 0x20 DUP1 SWAP2 DIV MUL PUSH1 0x20 ADD PUSH1 0x40 MLOAD SWAP1 DUP2 ADD PUSH1 0x40 MSTORE DUP1 SWAP3 SWAP2 SWAP1 DUP2 DUP2 MSTORE PUSH1 0x20 ADD DUP3 DUP1 SLOAD PUSH2 0x162B SWAP1 PUSH2 0x2F3A JUMP JUMPDEST DUP1 ISZERO PUSH2 0x1678 JUMPI DUP1 PUSH1 0x1F LT PUSH2 0x164D JUMPI PUSH2 0x100 DUP1 DUP4 SLOAD DIV MUL DUP4 MSTORE SWAP2 PUSH1 0x20 ADD SWAP2 PUSH2 0x1678 JUMP JUMPDEST DUP3 ADD SWAP2 SWAP1 PUSH1 0x0 MSTORE PUSH1 0x20 PUSH1 0x0 KECCAK256 SWAP1 JUMPDEST DUP2 SLOAD DUP2 MSTORE SWAP1 PUSH1 0x1 ADD SWAP1 PUSH1 0x20 ADD DUP1 DUP4 GT PUSH2 0x165B JUMPI DUP3 SWAP1 SUB PUSH1 0x1F AND DUP3 ADD SWAP2 JUMPDEST POP POP POP POP POP SWAP1 DUP1 PUSH1 0x2 ADD DUP1 SLOAD PUSH2 0x168D SWAP1 PUSH2 0x2F3A JUMP JUMPDEST DUP1 PUSH1 0x1F ADD PUSH1 0x20 DUP1 SWAP2 DIV MUL PUSH1 0x20 ADD PUSH1 0x40 MLOAD SWAP1 DUP2 ADD PUSH1 0x40 MSTORE DUP1 SWAP3 SWAP2 SWAP1 DUP2 DUP2 MSTORE PUSH1 0x20 ADD DUP3 DUP1 SLOAD PUSH2 0x16B9 SWAP1 PUSH2 0x2F3A JUMP JUMPDEST DUP1 ISZERO PUSH2 0x1706 JUMPI DUP1 PUSH1 0x1F LT PUSH2 0x16DB JUMPI PUSH2 0x100 DUP1 DUP4 SLOAD DIV MUL DUP4 MSTORE SWAP2 PUSH1 0x20 ADD SWAP2 PUSH2 0x1706 JUMP JUMPDEST DUP3 ADD SWAP2 SWAP1 PUSH1 0x0 MSTORE PUSH1 0x20 PUSH1 0x0 KECCAK256 SWAP1 JUMPDEST DUP2 SLOAD DUP2 MSTORE SWAP1 PUSH1 0x1 ADD SWAP1 PUSH1 0x20 ADD DUP1 DUP4 GT PUSH2 0x16E9 JUMPI DUP3 SWAP1 SUB PUSH1 0x1F AND DUP3 ADD SWAP2 JUMPDEST POP POP POP POP POP SWAP1 DUP1 PUSH1 0x3 ADD SLOAD SWAP1 DUP1 PUSH1 0x4 ADD PUSH1 0x0 SWAP1 SLOAD SWAP1 PUSH2 0x100 EXP SWAP1 DIV PUSH1 0xFF AND SWAP1 DUP1 PUSH1 0x5 ADD SLOAD SWAP1 POP DUP7 JUMP JUMPDEST PUSH1 0x3 SLOAD DUP2 LT PUSH2 0x1773 JUMPI PUSH1 0x40 MLOAD PUSH32 0x8C379A000000000000000000000000000000000000000000000000000000000 DUP2 MSTORE PUSH1 0x4 ADD PUSH2 0x176A SWAP1 PUSH2 0x2EEB JUMP JUMPDEST PUSH1 0x40 MLOAD DUP1 SWAP2 SUB SWAP1 REVERT JUMPDEST PUSH1 0x0 DUP1 DUP3 DUP2 MSTORE PUSH1 0x20 ADD SWAP1 DUP2 MSTORE PUSH1 0x20 ADD PUSH1 0x0 KECCAK256 PUSH1 0x4 ADD PUSH1 0x0 SWAP1 SLOAD SWAP1 PUSH2 0x100 EXP SWAP1 DIV PUSH1 0xFF AND PUSH2 0x17D5 JUMPI PUSH1 0x40 MLOAD PUSH32 0x8C379A000000000000000000000000000000000000000000000000000000000 DUP2 MSTORE PUSH1 0x4 ADD PUSH2 0x17CC SWAP1 PUSH2 0x2FDD JUMP JUMPDEST PUSH1 0x40 MLOAD DUP1 SWAP2 SUB SWAP1 REVERT JUMPDEST PUSH1 0x0 DUP1 PUSH1 0x0 DUP4 DUP2 MSTORE PUSH1 0x20 ADD SWAP1 DUP2 MSTORE PUSH1 0x20 ADD PUSH1 0x0 KECCAK256 PUSH1 0x4 ADD PUSH1 0x0 PUSH2 0x100 EXP DUP2 SLOAD DUP2 PUSH1 0xFF MUL NOT AND SWAP1 DUP4 ISZERO ISZERO MUL OR SWAP1 SSTORE POP PUSH32 0x39EEDA956A5B638CCE21D44FEB4E3279509FBAF8FB7776431F55F57A0CD21537 DUP2 PUSH1 0x40 MLOAD PUSH2 0x1832 SWAP2 SWAP1 PUSH2 0x29A2 JUMP JUMPDEST PUSH1 0x40 MLOAD DUP1 SWAP2 SUB SWAP1 LOG1 POP JUMP JUMPDEST PUSH1 0x1 PUSH1 0x0 DUP4 PUSH20 0xFFFFFFFFFFFFFFFFFFFFFFFFFFFFFFFFFFFFFFFF AND PUSH20 0xFFFFFFFFFFFFFFFFFFFFFFFFFFFFFFFFFFFFFFFF AND DUP2 MSTORE PUSH1 0x20 ADD SWAP1 DUP2 MSTORE PUSH1 0x20 ADD PUSH1 0x0 KECCAK256 PUSH1 0x0 ADD PUSH1 0x15 SWAP1 SLOAD SWAP1 PUSH2 0x100 EXP SWAP1 DIV PUSH1 0xFF AND ISZERO PUSH2 0x18CD JUMPI PUSH1 0x40 MLOAD PUSH32 0x8C379A000000000000000000000000000000000000000000000000000000000 DUP2 MSTORE PUSH1 0x4 ADD PUSH2 0x18C4 SWAP1 PUSH2 0x38B8 JUMP JUMPDEST PUSH1 0x40 MLOAD DUP1 SWAP2 SUB SWAP1 REVERT JUMPDEST PUSH1 0x40 MLOAD DUP1 PUSH1 0x60 ADD PUSH1 0x40 MSTORE DUP1 DUP4 PUSH20 0xFFFFFFFFFFFFFFFFFFFFFFFFFFFFFFFFFFFFFFFF AND DUP2 MSTORE PUSH1 0x20 ADD DUP3 PUSH1 0x2 DUP2 GT ISZERO PUSH2 0x1907 JUMPI PUSH2 0x1906 PUSH2 0x2D1B JUMP JUMPDEST JUMPDEST DUP2 MSTORE PUSH1 0x20 ADD PUSH1 0x1 ISZERO ISZERO DUP2 MSTORE POP PUSH1 0x1 PUSH1 0x0 DUP5 PUSH20 0xFFFFFFFFFFFFFFFFFFFFFFFFFFFFFFFFFFFFFFFF AND PUSH20 0xFFFFFFFFFFFFFFFFFFFFFFFFFFFFFFFFFFFFFFFF AND DUP2 MSTORE PUSH1 0x20 ADD SWAP1 DUP2 MSTORE PUSH1 0x20 ADD PUSH1 0x0 KECCAK256 PUSH1 0x0 DUP3 ADD MLOAD DUP2 PUSH1 0x0 ADD PUSH1 0x0 PUSH2 0x100 EXP DUP2 SLOAD DUP2 PUSH20 0xFFFFFFFFFFFFFFFFFFFFFFFFFFFFFFFFFFFFFFFF MUL NOT AND SWAP1 DUP4 PUSH20 0xFFFFFFFFFFFFFFFFFFFFFFFFFFFFFFFFFFFFFFFF AND MUL OR SWAP1 SSTORE POP PUSH1 0x20 DUP3 ADD MLOAD DUP2 PUSH1 0x0 ADD PUSH1 0x14 PUSH2 0x100 EXP DUP2 SLOAD DUP2 PUSH1 0xFF MUL NOT AND SWAP1 DUP4 PUSH1 0x2 DUP2 GT ISZERO PUSH2 0x19C4 JUMPI PUSH2 0x19C3 PUSH2 0x2D1B JUMP JUMPDEST JUMPDEST MUL OR SWAP1 SSTORE POP PUSH1 0x40 DUP3 ADD MLOAD DUP2 PUSH1 0x0 ADD PUSH1 0x15 PUSH2 0x100 EXP DUP2 SLOAD DUP2 PUSH1 0xFF MUL NOT AND SWAP1 DUP4 ISZERO ISZERO MUL OR SWAP1 SSTORE POP SWAP1 POP POP PUSH32 0x8E18574F8A7333E6A87112742A55853A643E2F0550F4E1A3A2C3F1BB2994441D DUP3 DUP3 PUSH1 0x40 MLOAD PUSH2 0x1A1D SWAP3 SWAP2 SWAP1 PUSH2 0x38D8 JUMP JUMPDEST PUSH1 0x40 MLOAD DUP1 SWAP2 SUB SWAP1 LOG1 POP POP JUMP JUMPDEST PUSH1 0x0 PUSH1 0x3 PUSH1 0x0 DUP2 SLOAD DUP1 SWAP3 SWAP2 SWAP1 PUSH2 0x1A3E SWAP1 PUSH2 0x31A8 JUMP JUMPDEST SWAP2 SWAP1 POP SSTORE SWAP1 POP PUSH1 0x0 DUP1 PUSH1 0x0 DUP4 DUP2 MSTORE PUSH1 0x20 ADD SWAP1 DUP2 MSTORE PUSH1 0x20 ADD PUSH1 0x0 KECCAK256 SWAP1 POP DUP2 DUP2 PUSH1 0x0 ADD DUP2 SWAP1 SSTORE POP DUP5 DUP2 PUSH1 0x1 ADD SWAP1 DUP2 PUSH2 0x1A74 SWAP2 SWAP1 PUSH2 0x376A JUMP JUMPDEST POP DUP4 DUP2 PUSH1 0x2 ADD SWAP1 DUP2 PUSH2 0x1A86 SWAP2 SWAP1 PUSH2 0x376A JUMP JUMPDEST POP DUP3 DUP2 PUSH1 0x3 ADD DUP2 SWAP1 SSTORE POP PUSH1 0x1 DUP2 PUSH1 0x4 ADD PUSH1 0x0 PUSH2 0x100 EXP DUP2 SLOAD DUP2 PUSH1 0xFF MUL NOT AND SWAP1 DUP4 ISZERO ISZERO MUL OR SWAP1 SSTORE POP PUSH1 0x0 DUP2 PUSH1 0x5 ADD DUP2 SWAP1 SSTORE POP PUSH32 0xC2C844C5F6C72FE99B99DE0942BA619E99957D3E8F7E614263ECFE40DE952E58 DUP3 DUP7 PUSH1 0x40 MLOAD PUSH2 0x1AE8 SWAP3 SWAP2 SWAP1 PUSH2 0x383C JUMP JUMPDEST PUSH1 0x40 MLOAD DUP1 SWAP2 SUB SWAP1 LOG1 POP POP POP POP POP JUMP JUMPDEST PUSH1 0x1 PUSH1 0x20 MSTORE DUP1 PUSH1 0x0 MSTORE PUSH1 0x40 PUSH1 0x0 KECCAK256 PUSH1 0x0 SWAP2 POP SWAP1 POP DUP1 PUSH1 0x0 ADD PUSH1 0x0 SWAP1 SLOAD SWAP1 PUSH2 0x100 EXP SWAP1 DIV PUSH20 0xFFFFFFFFFFFFFFFFFFFFFFFFFFFFFFFFFFFFFFFF AND SWAP1 DUP1 PUSH1 0x0 ADD PUSH1 0x14 SWAP1 SLOAD SWAP1 PUSH2 0x100 EXP SWAP1 DIV PUSH1 0xFF AND SWAP1 DUP1 PUSH1 0x0 ADD PUSH1 0x15 SWAP1 SLOAD SWAP1 PUSH2 0x100 EXP SWAP1 DIV PUSH1 0xFF AND SWAP1 POP DUP4 JUMP JUMPDEST PUSH1 0x3 SLOAD DUP6 LT PUSH2 0x1B9F JUMPI PUSH1 0x40 MLOAD PUSH32 0x8C379A000000000000000000000000000000000000000000000000000000000 DUP2 MSTORE PUSH1 0x4 ADD PUSH2 0x1B96 SWAP1 PUSH2 0x2EEB JUMP JUMPDEST PUSH1 0x40 MLOAD DUP1 SWAP2 SUB SWAP1 REVERT JUMPDEST PUSH1 0x0 DUP1 DUP7 DUP2 MSTORE PUSH1 0x20 ADD SWAP1 DUP2 MSTORE PUSH1 0x20 ADD PUSH1 0x0 KECCAK256 PUSH1 0x4 ADD PUSH1 0x0 SWAP1 SLOAD SWAP1 PUSH2 0x100 EXP SWAP1 DIV PUSH1 0xFF AND PUSH2 0x1C01 JUMPI PUSH1 0x40 MLOAD PUSH32 0x8C379A000000000000000000000000000000000000000000000000000000000 DUP2 MSTORE PUSH1 0x4 ADD PUSH2 0x1BF8 SWAP1 PUSH2 0x2FDD JUMP JUMPDEST PUSH1 0x40 MLOAD DUP1 SWAP2 SUB SWAP1 REVERT JUMPDEST PUSH1 0x0 DUP1 DUP7 DUP2 MSTORE PUSH1 0x20 ADD SWAP1 DUP2 MSTORE PUSH1 0x20 ADD PUSH1 0x0 KECCAK256 PUSH1 0x5 ADD SLOAD DUP5 GT ISZERO PUSH2 0x1C59 JUMPI PUSH1 0x40 MLOAD PUSH32 0x8C379A000000000000000000000000000000000000000000000000000000000 DUP2 MSTORE PUSH1 0x4 ADD PUSH2 0x1C50 SWAP1 PUSH2 0x364C JUMP JUMPDEST PUSH1 0x40 MLOAD DUP1 SWAP2 SUB SWAP1 REVERT JUMPDEST PUSH1 0x1 DUP4 PUSH1 0xFF AND LT ISZERO DUP1 ISZERO PUSH2 0x1C71 JUMPI POP PUSH1 0x7 DUP4 PUSH1 0xFF AND GT ISZERO JUMPDEST PUSH2 0x1CB0 JUMPI PUSH1 0x40 MLOAD PUSH32 0x8C379A000000000000000000000000000000000000000000000000000000000 DUP2 MSTORE PUSH1 0x4 ADD PUSH2 0x1CA7 SWAP1 PUSH2 0x323C JUMP JUMPDEST PUSH1 0x40 MLOAD DUP1 SWAP2 SUB SWAP1 REVERT JUMPDEST PUSH1 0x18 DUP3 PUSH1 0xFF AND LT DUP1 ISZERO PUSH2 0x1CC6 JUMPI POP PUSH1 0x18 DUP2 PUSH1 0xFF AND LT JUMPDEST DUP1 ISZERO PUSH2 0x1CD7 JUMPI POP DUP1 PUSH1 0xFF AND DUP3 PUSH1 0xFF AND LT JUMPDEST PUSH2 0x1D16 JUMPI PUSH1 0x40 MLOAD PUSH32 0x8C379A000000000000000000000000000000000000000000000000000000000 DUP2 MSTORE PUSH1 0x4 ADD PUSH2 0x1D0D SWAP1 PUSH2 0x32A8 JUMP JUMPDEST PUSH1 0x40 MLOAD DUP1 SWAP2 SUB SWAP1 REVERT JUMPDEST PUSH1 0x0 DUP1 PUSH1 0x0 DUP8 DUP2 MSTORE PUSH1 0x20 ADD SWAP1 DUP2 MSTORE PUSH1 0x20 ADD PUSH1 0x0 KECCAK256 PUSH1 0x7 ADD PUSH1 0x0 DUP7 DUP2 MSTORE PUSH1 0x20 ADD SWAP1 DUP2 MSTORE PUSH1 0x20 ADD PUSH1 0x0 KECCAK256 SWAP1 POP DUP1 PUSH1 0x3 ADD PUSH1 0x0 SWAP1 SLOAD SWAP1 PUSH2 0x100 EXP SWAP1 DIV PUSH1 0xFF AND PUSH2 0x1D91 JUMPI PUSH1 0x40 MLOAD PUSH32 0x8C379A000000000000000000000000000000000000000000000000000000000 DUP2 MSTORE PUSH1 0x4 ADD PUSH2 0x1D88 SWAP1 PUSH2 0x3973 JUMP JUMPDEST PUSH1 0x40 MLOAD DUP1 SWAP2 SUB SWAP1 REVERT JUMPDEST DUP4 DUP2 PUSH1 0x1 ADD PUSH1 0x0 PUSH2 0x100 EXP DUP2 SLOAD DUP2 PUSH1 0xFF MUL NOT AND SWAP1 DUP4 PUSH1 0xFF AND MUL OR SWAP1 SSTORE POP DUP3 DUP2 PUSH1 0x1 ADD PUSH1 0x1 PUSH2 0x100 EXP DUP2 SLOAD DUP2 PUSH1 0xFF MUL NOT AND SWAP1 DUP4 PUSH1 0xFF AND MUL OR SWAP1 SSTORE POP DUP2 DUP2 PUSH1 0x1 ADD PUSH1 0x2 PUSH2 0x100 EXP DUP2 SLOAD DUP2 PUSH1 0xFF MUL NOT AND SWAP1 DUP4 PUSH1 0xFF AND MUL OR SWAP1 SSTORE POP PUSH32 0x29558593F0B584FA97B5489122CAB9FC63AA0424B99F2B9CE433CFB20A73CD70 DUP7 DUP7 DUP7 DUP7 DUP7 PUSH1 0x40 MLOAD PUSH2 0x1E1F SWAP6 SWAP5 SWAP4 SWAP3 SWAP2 SWAP1 PUSH2 0x3993 JUMP JUMPDEST PUSH1 0x40 MLOAD DUP1 SWAP2 SUB SWAP1 LOG1 POP POP POP POP POP POP JUMP JUMPDEST PUSH1 0x60 PUSH1 0x0 PUSH1 0x3 SLOAD PUSH8 0xFFFFFFFFFFFFFFFF DUP2 GT ISZERO PUSH2 0x1E4F JUMPI PUSH2 0x1E4E PUSH2 0x29C7 JUMP JUMPDEST JUMPDEST PUSH1 0x40 MLOAD SWAP1 DUP1 DUP3 MSTORE DUP1 PUSH1 0x20 MUL PUSH1 0x20 ADD DUP3 ADD PUSH1 0x40 MSTORE DUP1 ISZERO PUSH2 0x1E7D JUMPI DUP2 PUSH1 0x20 ADD PUSH1 0x20 DUP3 MUL DUP1 CALLDATASIZE DUP4 CALLDATACOPY DUP1 DUP3 ADD SWAP2 POP POP SWAP1 POP JUMPDEST POP SWAP1 POP PUSH1 0x0 DUP1 JUMPDEST PUSH1 0x3 SLOAD DUP2 LT ISZERO PUSH2 0x1EF2 JUMPI PUSH1 0x0 DUP1 DUP3 DUP2 MSTORE PUSH1 0x20 ADD SWAP1 DUP2 MSTORE PUSH1 0x20 ADD PUSH1 0x0 KECCAK256 PUSH1 0x4 ADD PUSH1 0x0 SWAP1 SLOAD SWAP1 PUSH2 0x100 EXP SWAP1 DIV PUSH1 0xFF AND ISZERO PUSH2 0x1EE5 JUMPI DUP1 DUP4 DUP4 DUP2 MLOAD DUP2 LT PUSH2 0x1ECA JUMPI PUSH2 0x1EC9 PUSH2 0x308F JUMP JUMPDEST JUMPDEST PUSH1 0x20 MUL PUSH1 0x20 ADD ADD DUP2 DUP2 MSTORE POP POP DUP2 DUP1 PUSH2 0x1EE1 SWAP1 PUSH2 0x31A8 JUMP JUMPDEST SWAP3 POP POP JUMPDEST DUP1 DUP1 PUSH1 0x1 ADD SWAP2 POP POP PUSH2 0x1E84 JUMP JUMPDEST POP PUSH1 0x0 DUP2 PUSH8 0xFFFFFFFFFFFFFFFF DUP2 GT ISZERO PUSH2 0x1F0F JUMPI PUSH2 0x1F0E PUSH2 0x29C7 JUMP JUMPDEST JUMPDEST PUSH1 0x40 MLOAD SWAP1 DUP1 DUP3 MSTORE DUP1 PUSH1 0x20 MUL PUSH1 0x20 ADD DUP3 ADD PUSH1 0x40 MSTORE DUP1 ISZERO PUSH2 0x1F3D JUMPI DUP2 PUSH1 0x20 ADD PUSH1 0x20 DUP3 MUL DUP1 CALLDATASIZE DUP4 CALLDATACOPY DUP1 DUP3 ADD SWAP2 POP POP SWAP1 POP JUMPDEST POP SWAP1 POP PUSH1 0x0 JUMPDEST DUP3 DUP2 LT ISZERO PUSH2 0x1F92 JUMPI DUP4 DUP2 DUP2 MLOAD DUP2 LT PUSH2 0x1F5E JUMPI PUSH2 0x1F5D PUSH2 0x308F JUMP JUMPDEST JUMPDEST PUSH1 0x20 MUL PUSH1 0x20 ADD ADD MLOAD DUP3 DUP3 DUP2 MLOAD DUP2 LT PUSH2 0x1F79 JUMPI PUSH2 0x1F78 PUSH2 0x308F JUMP JUMPDEST JUMPDEST PUSH1 0x20 MUL PUSH1 0x20 ADD ADD DUP2 DUP2 MSTORE POP POP DUP1 DUP1 PUSH1 0x1 ADD SWAP2 POP POP PUSH2 0x1F43 JUMP JUMPDEST POP DUP1 SWAP4 POP POP POP POP SWAP1 JUMP JUMPDEST PUSH1 0x3 SLOAD DUP3 LT PUSH2 0x1FE0 JUMPI PUSH1 0x40 MLOAD PUSH32 0x8C379A000000000000000000000000000000000000000000000000000000000 DUP2 MSTORE PUSH1 0x4 ADD PUSH2 0x1FD7 SWAP1 PUSH2 0x2EEB JUMP JUMPDEST PUSH1 0x40 MLOAD DUP1 SWAP2 SUB SWAP1 REVERT JUMPDEST PUSH1 0x0 DUP1 DUP4 DUP2 MSTORE PUSH1 0x20 ADD SWAP1 DUP2 MSTORE PUSH1 0x20 ADD PUSH1 0x0 KECCAK256 PUSH1 0x4 ADD PUSH1 0x0 SWAP1 SLOAD SWAP1 PUSH2 0x100 EXP SWAP1 DIV PUSH1 0xFF AND PUSH2 0x2042 JUMPI PUSH1 0x40 MLOAD PUSH32 0x8C379A000000000000000000000000000000000000000000000000000000000 DUP2 MSTORE PUSH1 0x4 ADD PUSH2 0x2039 SWAP1 PUSH2 0x2FDD JUMP JUMPDEST PUSH1 0x40 MLOAD DUP1 SWAP2 SUB SWAP1 REVERT JUMPDEST PUSH1 0x0 DUP1 DUP4 DUP2 MSTORE PUSH1 0x20 ADD SWAP1 DUP2 MSTORE PUSH1 0x20 ADD PUSH1 0x0 KECCAK256 PUSH1 0x5 ADD SLOAD DUP2 GT ISZERO PUSH2 0x209A JUMPI PUSH1 0x40 MLOAD PUSH32 0x8C379A000000000000000000000000000000000000000000000000000000000 DUP2 MSTORE PUSH1 0x4 ADD PUSH2 0x2091 SWAP1 PUSH2 0x364C JUMP JUMPDEST PUSH1 0x40 MLOAD DUP1 SWAP2 SUB SWAP1 REVERT JUMPDEST PUSH1 0x0 DUP1 PUSH1 0x0 DUP5 DUP2 MSTORE PUSH1 0x20 ADD SWAP1 DUP2 MSTORE PUSH1 0x20 ADD PUSH1 0x0 KECCAK256 PUSH1 0x7 ADD PUSH1 0x0 DUP4 DUP2 MSTORE PUSH1 0x20 ADD SWAP1 DUP2 MSTORE PUSH1 0x20 ADD PUSH1 0x0 KECCAK256 SWAP1 POP DUP1 PUSH1 0x3 ADD PUSH1 0x0 SWAP1 SLOAD SWAP1 PUSH2 0x100 EXP SWAP1 DIV PUSH1 0xFF AND PUSH2 0x2115 JUMPI PUSH1 0x40 MLOAD PUSH32 0x8C379A000000000000000000000000000000000000000000000000000000000 DUP2 MSTORE PUSH1 0x4 ADD PUSH2 0x210C SWAP1 PUSH2 0x3973 JUMP JUMPDEST PUSH1 0x40 MLOAD DUP1 SWAP2 SUB SWAP1 REVERT JUMPDEST PUSH1 0x0 DUP2 PUSH1 0x3 ADD PUSH1 0x0 PUSH2 0x100 EXP DUP2 SLOAD DUP2 PUSH1 0xFF MUL NOT AND SWAP1 DUP4 ISZERO ISZERO MUL OR SWAP1 SSTORE POP PUSH32 0x29558593F0B584FA97B5489122CAB9FC63AA0424B99F2B9CE433CFB20A73CD70 DUP4 DUP4 DUP4 PUSH1 0x1 ADD PUSH1 0x0 SWAP1 SLOAD SWAP1 PUSH2 0x100 EXP SWAP1 DIV PUSH1 0xFF AND DUP5 PUSH1 0x1 ADD PUSH1 0x1 SWAP1 SLOAD SWAP1 PUSH2 0x100 EXP SWAP1 DIV PUSH1 0xFF AND DUP6 PUSH1 0x1 ADD PUSH1 0x2 SWAP1 SLOAD SWAP1 PUSH2 0x100 EXP SWAP1 DIV PUSH1 0xFF AND PUSH1 0x40 MLOAD PUSH2 0x219C SWAP6 SWAP5 SWAP4 SWAP3 SWAP2 SWAP1 PUSH2 0x3993 JUMP JUMPDEST PUSH1 0x40 MLOAD DUP1 SWAP2 SUB SWAP1 LOG1 POP POP POP JUMP JUMPDEST PUSH1 0x0 DUP1 PUSH1 0x0 DUP1 PUSH1 0x60 PUSH1 0x0 PUSH1 0x3 SLOAD DUP9 LT PUSH2 0x21F7 JUMPI PUSH1 0x40 MLOAD PUSH32 0x8C379A000000000000000000000000000000000000000000000000000000000 DUP2 MSTORE PUSH1 0x4 ADD PUSH2 0x21EE SWAP1 PUSH2 0x2EEB JUMP JUMPDEST PUSH1 0x40 MLOAD DUP1 SWAP2 SUB SWAP1 REVERT JUMPDEST PUSH1 0x0 DUP1 DUP10 DUP2 MSTORE PUSH1 0x20 ADD SWAP1 DUP2 MSTORE PUSH1 0x20 ADD PUSH1 0x0 KECCAK256 PUSH1 0x4 ADD PUSH1 0x0 SWAP1 SLOAD SWAP1 PUSH2 0x100 EXP SWAP1 DIV PUSH1 0xFF AND PUSH2 0x2259 JUMPI PUSH1 0x40 MLOAD PUSH32 0x8C379A000000000000000000000000000000000000000000000000000000000 DUP2 MSTORE PUSH1 0x4 ADD PUSH2 0x2250 SWAP1 PUSH2 0x2FDD JUMP JUMPDEST PUSH1 0x40 MLOAD DUP1 SWAP2 SUB SWAP1 REVERT JUMPDEST PUSH1 0x0 DUP1 DUP10 DUP2 MSTORE PUSH1 0x20 ADD SWAP1 DUP2 MSTORE PUSH1 0x20 ADD PUSH1 0x0 KECCAK256 PUSH1 0x5 ADD SLOAD DUP8 GT ISZERO PUSH2 0x22B1 JUMPI PUSH1 0x40 MLOAD PUSH32 0x8C379A000000000000000000000000000000000000000000000000000000000 DUP2 MSTORE PUSH1 0x4 ADD PUSH2 0x22A8 SWAP1 PUSH2 0x364C JUMP JUMPDEST PUSH1 0x40 MLOAD DUP1 SWAP2 SUB SWAP1 REVERT JUMPDEST PUSH1 0x0 DUP1 PUSH1 0x0 DUP11 DUP2 MSTORE PUSH1 0x20 ADD SWAP1 DUP2 MSTORE PUSH1 0x20 ADD PUSH1 0x0 KECCAK256 PUSH1 0x7 ADD PUSH1 0x0 DUP10 DUP2 MSTORE PUSH1 0x20 ADD SWAP1 DUP2 MSTORE PUSH1 0x20 ADD PUSH1 0x0 KECCAK256 SWAP1 POP DUP1 PUSH1 0x0 ADD SLOAD DUP2 PUSH1 0x1 ADD PUSH1 0x0 SWAP1 SLOAD SWAP1 PUSH2 0x100 EXP SWAP1 DIV PUSH1 0xFF AND DUP3 PUSH1 0x1 ADD PUSH1 0x1 SWAP1 SLOAD SWAP1 PUSH2 0x100 EXP SWAP1 DIV PUSH1 0xFF AND DUP4 PUSH1 0x1 ADD PUSH1 0x2 SWAP1 SLOAD SWAP1 PUSH2 0x100 EXP SWAP1 DIV PUSH1 0xFF AND DUP5 PUSH1 0x2 ADD DUP6 PUSH1 0x3 ADD PUSH1 0x0 SWAP1 SLOAD SWAP1 PUSH2 0x100 EXP SWAP1 DIV PUSH1 0xFF AND DUP2 DUP1 SLOAD PUSH2 0x2338 SWAP1 PUSH2 0x2F3A JUMP JUMPDEST DUP1 PUSH1 0x1F ADD PUSH1 0x20 DUP1 SWAP2 DIV MUL PUSH1 0x20 ADD PUSH1 0x40 MLOAD SWAP1 DUP2 ADD PUSH1 0x40 MSTORE DUP1 SWAP3 SWAP2 SWAP1 DUP2 DUP2 MSTORE PUSH1 0x20 ADD DUP3 DUP1 SLOAD PUSH2 0x2364 SWAP1 PUSH2 0x2F3A JUMP JUMPDEST DUP1 ISZERO PUSH2 0x23B1 JUMPI DUP1 PUSH1 0x1F LT PUSH2 0x2386 JUMPI PUSH2 0x100 DUP1 DUP4 SLOAD DIV MUL DUP4 MSTORE SWAP2 PUSH1 0x20 ADD SWAP2 PUSH2 0x23B1 JUMP JUMPDEST DUP3 ADD SWAP2 SWAP1 PUSH1 0x0 MSTORE PUSH1 0x20 PUSH1 0x0 KECCAK256 SWAP1 JUMPDEST DUP2 SLOAD DUP2 MSTORE SWAP1 PUSH1 0x1 ADD SWAP1 PUSH1 0x20 ADD DUP1 DUP4 GT PUSH2 0x2394 JUMPI DUP3 SWAP1 SUB PUSH1 0x1F AND DUP3 ADD SWAP2 JUMPDEST POP POP POP POP POP SWAP2 POP SWAP7 POP SWAP7 POP SWAP7 POP SWAP7 POP SWAP7 POP SWAP7 POP POP SWAP3 SWAP6 POP SWAP3 SWAP6 POP SWAP3 SWAP6 JUMP JUMPDEST PUSH1 0x5 PUSH1 0x0 SWAP1 SLOAD SWAP1 PUSH2 0x100 EXP SWAP1 DIV PUSH20 0xFFFFFFFFFFFFFFFFFFFFFFFFFFFFFFFFFFFFFFFF AND DUP2 JUMP JUMPDEST PUSH1 0x40 MLOAD DUP1 PUSH1 0xC0 ADD PUSH1 0x40 MSTORE DUP1 PUSH1 0x0 DUP2 MSTORE PUSH1 0x20 ADD PUSH1 0x0 PUSH1 0xFF AND DUP2 MSTORE PUSH1 0x20 ADD PUSH1 0x0 PUSH1 0xFF AND DUP2 MSTORE PUSH1 0x20 ADD PUSH1 0x0 PUSH1 0xFF AND DUP2 MSTORE PUSH1 0x20 ADD PUSH1 0x60 DUP2 MSTORE PUSH1 0x20 ADD PUSH1 0x0 ISZERO ISZERO DUP2 MSTORE POP SWAP1 JUMP JUMPDEST PUSH1 0x0 PUSH1 0x40 MLOAD SWAP1 POP SWAP1 JUMP JUMPDEST PUSH1 0x0 DUP1 REVERT JUMPDEST PUSH1 0x0 DUP1 REVERT JUMPDEST PUSH1 0x0 DUP2 SWAP1 POP SWAP2 SWAP1 POP JUMP JUMPDEST PUSH2 0x245D DUP2 PUSH2 0x244A JUMP JUMPDEST DUP2 EQ PUSH2 0x2468 JUMPI PUSH1 0x0 DUP1 REVERT JUMPDEST POP JUMP JUMPDEST PUSH1 0x0 DUP2 CALLDATALOAD SWAP1 POP PUSH2 0x247A DUP2 PUSH2 0x2454 JUMP JUMPDEST SWAP3 SWAP2 POP POP JUMP JUMPDEST PUSH1 0x0 PUSH1 0x20 DUP3 DUP5 SUB SLT ISZERO PUSH2 0x2496 JUMPI PUSH2 0x2495 PUSH2 0x2440 JUMP JUMPDEST JUMPDEST PUSH1 0x0 PUSH2 0x24A4 DUP5 DUP3 DUP6 ADD PUSH2 0x246B JUMP JUMPDEST SWAP2 POP POP SWAP3 SWAP2 POP POP JUMP JUMPDEST PUSH2 0x24B6 DUP2 PUSH2 0x244A JUMP JUMPDEST DUP3 MSTORE POP POP JUMP JUMPDEST PUSH1 0x0 DUP2 MLOAD SWAP1 POP SWAP2 SWAP1 POP JUMP JUMPDEST PUSH1 0x0 DUP3 DUP3 MSTORE PUSH1 0x20 DUP3 ADD SWAP1 POP SWAP3 SWAP2 POP POP JUMP JUMPDEST PUSH1 0x0 JUMPDEST DUP4 DUP2 LT ISZERO PUSH2 0x24F6 JUMPI DUP1 DUP3 ADD MLOAD DUP2 DUP5 ADD MSTORE PUSH1 0x20 DUP2 ADD SWAP1 POP PUSH2 0x24DB JUMP JUMPDEST PUSH1 0x0 DUP5 DUP5 ADD MSTORE POP POP POP POP JUMP JUMPDEST PUSH1 0x0 PUSH1 0x1F NOT PUSH1 0x1F DUP4 ADD AND SWAP1 POP SWAP2 SWAP1 POP JUMP JUMPDEST PUSH1 0x0 PUSH2 0x251E DUP3 PUSH2 0x24BC JUMP JUMPDEST PUSH2 0x2528 DUP2 DUP6 PUSH2 0x24C7 JUMP JUMPDEST SWAP4 POP PUSH2 0x2538 DUP2 DUP6 PUSH1 0x20 DUP7 ADD PUSH2 0x24D8 JUMP JUMPDEST PUSH2 0x2541 DUP2 PUSH2 0x2502 JUMP JUMPDEST DUP5 ADD SWAP2 POP POP SWAP3 SWAP2 POP POP JUMP JUMPDEST PUSH1 0x0 DUP2 ISZERO ISZERO SWAP1 POP SWAP2 SWAP1 POP JUMP JUMPDEST PUSH2 0x2561 DUP2 PUSH2 0x254C JUMP JUMPDEST DUP3 MSTORE POP POP JUMP JUMPDEST PUSH1 0x0 PUSH1 0xC0 DUP3 ADD SWAP1 POP PUSH2 0x257C PUSH1 0x0 DUP4 ADD DUP10 PUSH2 0x24AD JUMP JUMPDEST DUP2 DUP2 SUB PUSH1 0x20 DUP4 ADD MSTORE PUSH2 0x258E DUP2 DUP9 PUSH2 0x2513 JUMP JUMPDEST SWAP1 POP DUP2 DUP2 SUB PUSH1 0x40 DUP4 ADD MSTORE PUSH2 0x25A2 DUP2 DUP8 PUSH2 0x2513 JUMP JUMPDEST SWAP1 POP PUSH2 0x25B1 PUSH1 0x60 DUP4 ADD DUP7 PUSH2 0x24AD JUMP JUMPDEST PUSH2 0x25BE PUSH1 0x80 DUP4 ADD DUP6 PUSH2 0x2558 JUMP JUMPDEST PUSH2 0x25CB PUSH1 0xA0 DUP4 ADD DUP5 PUSH2 0x24AD JUMP JUMPDEST SWAP8 SWAP7 POP POP POP POP POP POP POP JUMP JUMPDEST PUSH1 0x0 PUSH1 0xFF DUP3 AND SWAP1 POP SWAP2 SWAP1 POP JUMP JUMPDEST PUSH2 0x25EC DUP2 PUSH2 0x25D6 JUMP JUMPDEST DUP3 MSTORE POP POP JUMP JUMPDEST PUSH1 0x0 PUSH1 0xC0 DUP3 ADD SWAP1 POP PUSH2 0x2607 PUSH1 0x0 DUP4 ADD DUP10 PUSH2 0x24AD JUMP JUMPDEST PUSH2 0x2614 PUSH1 0x20 DUP4 ADD DUP9 PUSH2 0x25E3 JUMP JUMPDEST PUSH2 0x2621 PUSH1 0x40 DUP4 ADD DUP8 PUSH2 0x25E3 JUMP JUMPDEST PUSH2 0x262E PUSH1 0x60 DUP4 ADD DUP7 PUSH2 0x25E3 JUMP JUMPDEST DUP2 DUP2 SUB PUSH1 0x80 DUP4 ADD MSTORE PUSH2 0x2640 DUP2 DUP6 PUSH2 0x2513 JUMP JUMPDEST SWAP1 POP PUSH2 0x264F PUSH1 0xA0 DUP4 ADD DUP5 PUSH2 0x2558 JUMP JUMPDEST SWAP8 SWAP7 POP POP POP POP POP POP POP JUMP JUMPDEST PUSH1 0x0 DUP2 MLOAD SWAP1 POP SWAP2 SWAP1 POP JUMP JUMPDEST PUSH1 0x0 DUP3 DUP3 MSTORE PUSH1 0x20 DUP3 ADD SWAP1 POP SWAP3 SWAP2 POP POP JUMP JUMPDEST PUSH1 0x0 DUP2 SWAP1 POP PUSH1 0x20 DUP3 ADD SWAP1 POP SWAP2 SWAP1 POP JUMP JUMPDEST PUSH2 0x268F DUP2 PUSH2 0x244A JUMP JUMPDEST DUP3 MSTORE POP POP JUMP JUMPDEST PUSH2 0x269E DUP2 PUSH2 0x25D6 JUMP JUMPDEST DUP3 MSTORE POP POP JUMP JUMPDEST PUSH1 0x0 DUP3 DUP3 MSTORE PUSH1 0x20 DUP3 ADD SWAP1 POP SWAP3 SWAP2 POP POP JUMP JUMPDEST PUSH1 0x0 PUSH2 0x26C0 DUP3 PUSH2 0x24BC JUMP JUMPDEST PUSH2 0x26CA DUP2 DUP6 PUSH2 0x26A4 JUMP JUMPDEST SWAP4 POP PUSH2 0x26DA DUP2 DUP6 PUSH1 0x20 DUP7 ADD PUSH2 0x24D8 JUMP JUMPDEST PUSH2 0x26E3 DUP2 PUSH2 0x2502 JUMP JUMPDEST DUP5 ADD SWAP2 POP POP SWAP3 SWAP2 POP POP JUMP JUMPDEST PUSH2 0x26F7 DUP2 PUSH2 0x254C JUMP JUMPDEST DUP3 MSTORE POP POP JUMP JUMPDEST PUSH1 0x0 PUSH1 0xC0 DUP4 ADD PUSH1 0x0 DUP4 ADD MLOAD PUSH2 0x2715 PUSH1 0x0 DUP7 ADD DUP3 PUSH2 0x2686 JUMP JUMPDEST POP PUSH1 0x20 DUP4 ADD MLOAD PUSH2 0x2728 PUSH1 0x20 DUP7 ADD DUP3 PUSH2 0x2695 JUMP JUMPDEST POP PUSH1 0x40 DUP4 ADD MLOAD PUSH2 0x273B PUSH1 0x40 DUP7 ADD DUP3 PUSH2 0x2695 JUMP JUMPDEST POP PUSH1 0x60 DUP4 ADD MLOAD PUSH2 0x274E PUSH1 0x60 DUP7 ADD DUP3 PUSH2 0x2695 JUMP JUMPDEST POP PUSH1 0x80 DUP4 ADD MLOAD DUP5 DUP3 SUB PUSH1 0x80 DUP7 ADD MSTORE PUSH2 0x2766 DUP3 DUP3 PUSH2 0x26B5 JUMP JUMPDEST SWAP2 POP POP PUSH1 0xA0 DUP4 ADD MLOAD PUSH2 0x277B PUSH1 0xA0 DUP7 ADD DUP3 PUSH2 0x26EE JUMP JUMPDEST POP DUP1 SWAP2 POP POP SWAP3 SWAP2 POP POP JUMP JUMPDEST PUSH1 0x0 PUSH2 0x2792 DUP4 DUP4 PUSH2 0x26FD JUMP JUMPDEST SWAP1 POP SWAP3 SWAP2 POP POP JUMP JUMPDEST PUSH1 0x0 PUSH1 0x20 DUP3 ADD SWAP1 POP SWAP2 SWAP1 POP JUMP JUMPDEST PUSH1 0x0 PUSH2 0x27B2 DUP3 PUSH2 0x265A JUMP JUMPDEST PUSH2 0x27BC DUP2 DUP6 PUSH2 0x2665 JUMP JUMPDEST SWAP4 POP DUP4 PUSH1 0x20 DUP3 MUL DUP6 ADD PUSH2 0x27CE DUP6 PUSH2 0x2676 JUMP JUMPDEST DUP1 PUSH1 0x0 JUMPDEST DUP6 DUP2 LT ISZERO PUSH2 0x280A JUMPI DUP5 DUP5 SUB DUP10 MSTORE DUP2 MLOAD PUSH2 0x27EB DUP6 DUP3 PUSH2 0x2786 JUMP JUMPDEST SWAP5 POP PUSH2 0x27F6 DUP4 PUSH2 0x279A JUMP JUMPDEST SWAP3 POP PUSH1 0x20 DUP11 ADD SWAP10 POP POP PUSH1 0x1 DUP2 ADD SWAP1 POP PUSH2 0x27D2 JUMP JUMPDEST POP DUP3 SWAP8 POP DUP8 SWAP6 POP POP POP POP POP POP SWAP3 SWAP2 POP POP JUMP JUMPDEST PUSH1 0x0 PUSH1 0x20 DUP3 ADD SWAP1 POP DUP2 DUP2 SUB PUSH1 0x0 DUP4 ADD MSTORE PUSH2 0x2836 DUP2 DUP5 PUSH2 0x27A7 JUMP JUMPDEST SWAP1 POP SWAP3 SWAP2 POP POP JUMP JUMPDEST PUSH2 0x2847 DUP2 PUSH2 0x25D6 JUMP JUMPDEST DUP2 EQ PUSH2 0x2852 JUMPI PUSH1 0x0 DUP1 REVERT JUMPDEST POP JUMP JUMPDEST PUSH1 0x0 DUP2 CALLDATALOAD SWAP1 POP PUSH2 0x2864 DUP2 PUSH2 0x283E JUMP JUMPDEST SWAP3 SWAP2 POP POP JUMP JUMPDEST PUSH1 0x0 DUP1 PUSH1 0x0 DUP1 PUSH1 0x80 DUP6 DUP8 SUB SLT ISZERO PUSH2 0x2884 JUMPI PUSH2 0x2883 PUSH2 0x2440 JUMP JUMPDEST JUMPDEST PUSH1 0x0 PUSH2 0x2892 DUP8 DUP3 DUP9 ADD PUSH2 0x246B JUMP JUMPDEST SWAP5 POP POP PUSH1 0x20 PUSH2 0x28A3 DUP8 DUP3 DUP9 ADD PUSH2 0x2855 JUMP JUMPDEST SWAP4 POP POP PUSH1 0x40 PUSH2 0x28B4 DUP8 DUP3 DUP9 ADD PUSH2 0x2855 JUMP JUMPDEST SWAP3 POP POP PUSH1 0x60 PUSH2 0x28C5 DUP8 DUP3 DUP9 ADD PUSH2 0x2855 JUMP JUMPDEST SWAP2 POP POP SWAP3 SWAP6 SWAP2 SWAP5 POP SWAP3 POP JUMP JUMPDEST PUSH1 0x0 DUP2 MLOAD SWAP1 POP SWAP2 SWAP1 POP JUMP JUMPDEST PUSH1 0x0 DUP3 DUP3 MSTORE PUSH1 0x20 DUP3 ADD SWAP1 POP SWAP3 SWAP2 POP POP JUMP JUMPDEST PUSH1 0x0 DUP2 SWAP1 POP PUSH1 0x20 DUP3 ADD SWAP1 POP SWAP2 SWAP1 POP JUMP JUMPDEST PUSH1 0x0 PUSH2 0x2909 DUP4 DUP4 PUSH2 0x2686 JUMP JUMPDEST PUSH1 0x20 DUP4 ADD SWAP1 POP SWAP3 SWAP2 POP POP JUMP JUMPDEST PUSH1 0x0 PUSH1 0x20 DUP3 ADD SWAP1 POP SWAP2 SWAP1 POP JUMP JUMPDEST PUSH1 0x0 PUSH2 0x292D DUP3 PUSH2 0x28D1 JUMP JUMPDEST PUSH2 0x2937 DUP2 DUP6 PUSH2 0x28DC JUMP JUMPDEST SWAP4 POP PUSH2 0x2942 DUP4 PUSH2 0x28ED JUMP JUMPDEST DUP1 PUSH1 0x0 JUMPDEST DUP4 DUP2 LT ISZERO PUSH2 0x2973 JUMPI DUP2 MLOAD PUSH2 0x295A DUP9 DUP3 PUSH2 0x28FD JUMP JUMPDEST SWAP8 POP PUSH2 0x2965 DUP4 PUSH2 0x2915 JUMP JUMPDEST SWAP3 POP POP PUSH1 0x1 DUP2 ADD SWAP1 POP PUSH2 0x2946 JUMP JUMPDEST POP DUP6 SWAP4 POP POP POP POP SWAP3 SWAP2 POP POP JUMP JUMPDEST PUSH1 0x0 PUSH1 0x20 DUP3 ADD SWAP1 POP DUP2 DUP2 SUB PUSH1 0x0 DUP4 ADD MSTORE PUSH2 0x299A DUP2 DUP5 PUSH2 0x2922 JUMP JUMPDEST SWAP1 POP SWAP3 SWAP2 POP POP JUMP JUMPDEST PUSH1 0x0 PUSH1 0x20 DUP3 ADD SWAP1 POP PUSH2 0x29B7 PUSH1 0x0 DUP4 ADD DUP5 PUSH2 0x24AD JUMP JUMPDEST SWAP3 SWAP2 POP POP JUMP JUMPDEST PUSH1 0x0 DUP1 REVERT JUMPDEST PUSH1 0x0 DUP1 REVERT JUMPDEST PUSH32 0x4E487B7100000000000000000000000000000000000000000000000000000000 PUSH1 0x0 MSTORE PUSH1 0x41 PUSH1 0x4 MSTORE PUSH1 0x24 PUSH1 0x0 REVERT JUMPDEST PUSH2 0x29FF DUP3 PUSH2 0x2502 JUMP JUMPDEST DUP2 ADD DUP2 DUP2 LT PUSH8 0xFFFFFFFFFFFFFFFF DUP3 GT OR ISZERO PUSH2 0x2A1E JUMPI PUSH2 0x2A1D PUSH2 0x29C7 JUMP JUMPDEST JUMPDEST DUP1 PUSH1 0x40 MSTORE POP POP POP JUMP JUMPDEST PUSH1 0x0 PUSH2 0x2A31 PUSH2 0x2436 JUMP JUMPDEST SWAP1 POP PUSH2 0x2A3D DUP3 DUP3 PUSH2 0x29F6 JUMP JUMPDEST SWAP2 SWAP1 POP JUMP JUMPDEST PUSH1 0x0 PUSH8 0xFFFFFFFFFFFFFFFF DUP3 GT ISZERO PUSH2 0x2A5D JUMPI PUSH2 0x2A5C PUSH2 0x29C7 JUMP JUMPDEST JUMPDEST PUSH2 0x2A66 DUP3 PUSH2 0x2502 JUMP JUMPDEST SWAP1 POP PUSH1 0x20 DUP2 ADD SWAP1 POP SWAP2 SWAP1 POP JUMP JUMPDEST DUP3 DUP2 DUP4 CALLDATACOPY PUSH1 0x0 DUP4 DUP4 ADD MSTORE POP POP POP JUMP JUMPDEST PUSH1 0x0 PUSH2 0x2A95 PUSH2 0x2A90 DUP5 PUSH2 0x2A42 JUMP JUMPDEST PUSH2 0x2A27 JUMP JUMPDEST SWAP1 POP DUP3 DUP2 MSTORE PUSH1 0x20 DUP2 ADD DUP5 DUP5 DUP5 ADD GT ISZERO PUSH2 0x2AB1 JUMPI PUSH2 0x2AB0 PUSH2 0x29C2 JUMP JUMPDEST JUMPDEST PUSH2 0x2ABC DUP5 DUP3 DUP6 PUSH2 0x2A73 JUMP JUMPDEST POP SWAP4 SWAP3 POP POP POP JUMP JUMPDEST PUSH1 0x0 DUP3 PUSH1 0x1F DUP4 ADD SLT PUSH2 0x2AD9 JUMPI PUSH2 0x2AD8 PUSH2 0x29BD JUMP JUMPDEST JUMPDEST DUP2 CALLDATALOAD PUSH2 0x2AE9 DUP5 DUP3 PUSH1 0x20 DUP7 ADD PUSH2 0x2A82 JUMP JUMPDEST SWAP2 POP POP SWAP3 SWAP2 POP POP JUMP JUMPDEST PUSH1 0x0 DUP1 PUSH1 0x0 DUP1 PUSH1 0x80 DUP6 DUP8 SUB SLT ISZERO PUSH2 0x2B0C JUMPI PUSH2 0x2B0B PUSH2 0x2440 JUMP JUMPDEST JUMPDEST PUSH1 0x0 PUSH2 0x2B1A DUP8 DUP3 DUP9 ADD PUSH2 0x246B JUMP JUMPDEST SWAP5 POP POP PUSH1 0x20 DUP6 ADD CALLDATALOAD PUSH8 0xFFFFFFFFFFFFFFFF DUP2 GT ISZERO PUSH2 0x2B3B JUMPI PUSH2 0x2B3A PUSH2 0x2445 JUMP JUMPDEST JUMPDEST PUSH2 0x2B47 DUP8 DUP3 DUP9 ADD PUSH2 0x2AC4 JUMP JUMPDEST SWAP4 POP POP PUSH1 0x40 DUP6 ADD CALLDATALOAD PUSH8 0xFFFFFFFFFFFFFFFF DUP2 GT ISZERO PUSH2 0x2B68 JUMPI PUSH2 0x2B67 PUSH2 0x2445 JUMP JUMPDEST JUMPDEST PUSH2 0x2B74 DUP8 DUP3 DUP9 ADD PUSH2 0x2AC4 JUMP JUMPDEST SWAP3 POP POP PUSH1 0x60 PUSH2 0x2B85 DUP8 DUP3 DUP9 ADD PUSH2 0x246B JUMP JUMPDEST SWAP2 POP POP SWAP3 SWAP6 SWAP2 SWAP5 POP SWAP3 POP JUMP JUMPDEST PUSH1 0x0 PUSH20 0xFFFFFFFFFFFFFFFFFFFFFFFFFFFFFFFFFFFFFFFF DUP3 AND SWAP1 POP SWAP2 SWAP1 POP JUMP JUMPDEST PUSH1 0x0 PUSH2 0x2BBC DUP3 PUSH2 0x2B91 JUMP JUMPDEST SWAP1 POP SWAP2 SWAP1 POP JUMP JUMPDEST PUSH2 0x2BCC DUP2 PUSH2 0x2BB1 JUMP JUMPDEST DUP2 EQ PUSH2 0x2BD7 JUMPI PUSH1 0x0 DUP1 REVERT JUMPDEST POP JUMP JUMPDEST PUSH1 0x0 DUP2 CALLDATALOAD SWAP1 POP PUSH2 0x2BE9 DUP2 PUSH2 0x2BC3 JUMP JUMPDEST SWAP3 SWAP2 POP POP JUMP JUMPDEST PUSH1 0x3 DUP2 LT PUSH2 0x2BFC JUMPI PUSH1 0x0 DUP1 REVERT JUMPDEST POP JUMP JUMPDEST PUSH1 0x0 DUP2 CALLDATALOAD SWAP1 POP PUSH2 0x2C0E DUP2 PUSH2 0x2BEF JUMP JUMPDEST SWAP3 SWAP2 POP POP JUMP JUMPDEST PUSH1 0x0 DUP1 PUSH1 0x40 DUP4 DUP6 SUB SLT ISZERO PUSH2 0x2C2B JUMPI PUSH2 0x2C2A PUSH2 0x2440 JUMP JUMPDEST JUMPDEST PUSH1 0x0 PUSH2 0x2C39 DUP6 DUP3 DUP7 ADD PUSH2 0x2BDA JUMP JUMPDEST SWAP3 POP POP PUSH1 0x20 PUSH2 0x2C4A DUP6 DUP3 DUP7 ADD PUSH2 0x2BFF JUMP JUMPDEST SWAP2 POP POP SWAP3 POP SWAP3 SWAP1 POP JUMP JUMPDEST PUSH1 0x0 DUP1 PUSH1 0x0 PUSH1 0x60 DUP5 DUP7 SUB SLT ISZERO PUSH2 0x2C6D JUMPI PUSH2 0x2C6C PUSH2 0x2440 JUMP JUMPDEST JUMPDEST PUSH1 0x0 DUP5 ADD CALLDATALOAD PUSH8 0xFFFFFFFFFFFFFFFF DUP2 GT ISZERO PUSH2 0x2C8B JUMPI PUSH2 0x2C8A PUSH2 0x2445 JUMP JUMPDEST JUMPDEST PUSH2 0x2C97 DUP7 DUP3 DUP8 ADD PUSH2 0x2AC4 JUMP JUMPDEST SWAP4 POP POP PUSH1 0x20 DUP5 ADD CALLDATALOAD PUSH8 0xFFFFFFFFFFFFFFFF DUP2 GT ISZERO PUSH2 0x2CB8 JUMPI PUSH2 0x2CB7 PUSH2 0x2445 JUMP JUMPDEST JUMPDEST PUSH2 0x2CC4 DUP7 DUP3 DUP8 ADD PUSH2 0x2AC4 JUMP JUMPDEST SWAP3 POP POP PUSH1 0x40 PUSH2 0x2CD5 DUP7 DUP3 DUP8 ADD PUSH2 0x246B JUMP JUMPDEST SWAP2 POP POP SWAP3 POP SWAP3 POP SWAP3 JUMP JUMPDEST PUSH1 0x0 PUSH1 0x20 DUP3 DUP5 SUB SLT ISZERO PUSH2 0x2CF5 JUMPI PUSH2 0x2CF4 PUSH2 0x2440 JUMP JUMPDEST JUMPDEST PUSH1 0x0 PUSH2 0x2D03 DUP5 DUP3 DUP6 ADD PUSH2 0x2BDA JUMP JUMPDEST SWAP2 POP POP SWAP3 SWAP2 POP POP JUMP JUMPDEST PUSH2 0x2D15 DUP2 PUSH2 0x2BB1 JUMP JUMPDEST DUP3 MSTORE POP POP JUMP JUMPDEST PUSH32 0x4E487B7100000000000000000000000000000000000000000000000000000000 PUSH1 0x0 MSTORE PUSH1 0x21 PUSH1 0x4 MSTORE PUSH1 0x24 PUSH1 0x0 REVERT JUMPDEST PUSH1 0x3 DUP2 LT PUSH2 0x2D5B JUMPI PUSH2 0x2D5A PUSH2 0x2D1B JUMP JUMPDEST JUMPDEST POP JUMP JUMPDEST PUSH1 0x0 DUP2 SWAP1 POP PUSH2 0x2D6C DUP3 PUSH2 0x2D4A JUMP JUMPDEST SWAP2 SWAP1 POP JUMP JUMPDEST PUSH1 0x0 PUSH2 0x2D7C DUP3 PUSH2 0x2D5E JUMP JUMPDEST SWAP1 POP SWAP2 SWAP1 POP JUMP JUMPDEST PUSH2 0x2D8C DUP2 PUSH2 0x2D71 JUMP JUMPDEST DUP3 MSTORE POP POP JUMP JUMPDEST PUSH1 0x0 PUSH1 0x60 DUP3 ADD SWAP1 POP PUSH2 0x2DA7 PUSH1 0x0 DUP4 ADD DUP7 PUSH2 0x2D0C JUMP JUMPDEST PUSH2 0x2DB4 PUSH1 0x20 DUP4 ADD DUP6 PUSH2 0x2D83 JUMP JUMPDEST PUSH2 0x2DC1 PUSH1 0x40 DUP4 ADD DUP5 PUSH2 0x2558 JUMP JUMPDEST SWAP5 SWAP4 POP POP POP POP JUMP JUMPDEST PUSH1 0x0 DUP1 PUSH1 0x0 DUP1 PUSH1 0x0 PUSH1 0xA0 DUP7 DUP9 SUB SLT ISZERO PUSH2 0x2DE5 JUMPI PUSH2 0x2DE4 PUSH2 0x2440 JUMP JUMPDEST JUMPDEST PUSH1 0x0 PUSH2 0x2DF3 DUP9 DUP3 DUP10 ADD PUSH2 0x246B JUMP JUMPDEST SWAP6 POP POP PUSH1 0x20 PUSH2 0x2E04 DUP9 DUP3 DUP10 ADD PUSH2 0x246B JUMP JUMPDEST SWAP5 POP POP PUSH1 0x40 PUSH2 0x2E15 DUP9 DUP3 DUP10 ADD PUSH2 0x2855 JUMP JUMPDEST SWAP4 POP POP PUSH1 0x60 PUSH2 0x2E26 DUP9 DUP3 DUP10 ADD PUSH2 0x2855 JUMP JUMPDEST SWAP3 POP POP PUSH1 0x80 PUSH2 0x2E37 DUP9 DUP3 DUP10 ADD PUSH2 0x2855 JUMP JUMPDEST SWAP2 POP POP SWAP3 SWAP6 POP SWAP3 SWAP6 SWAP1 SWAP4 POP JUMP JUMPDEST PUSH1 0x0 DUP1 PUSH1 0x40 DUP4 DUP6 SUB SLT ISZERO PUSH2 0x2E5B JUMPI PUSH2 0x2E5A PUSH2 0x2440 JUMP JUMPDEST JUMPDEST PUSH1 0x0 PUSH2 0x2E69 DUP6 DUP3 DUP7 ADD PUSH2 0x246B JUMP JUMPDEST SWAP3 POP POP PUSH1 0x20 PUSH2 0x2E7A DUP6 DUP3 DUP7 ADD PUSH2 0x246B JUMP JUMPDEST SWAP2 POP POP SWAP3 POP SWAP3 SWAP1 POP JUMP JUMPDEST PUSH1 0x0 PUSH1 0x20 DUP3 ADD SWAP1 POP PUSH2 0x2E99 PUSH1 0x0 DUP4 ADD DUP5 PUSH2 0x2D0C JUMP JUMPDEST SWAP3 SWAP2 POP POP JUMP JUMPDEST PUSH32 0x496E76616C696420636F75727365204944000000000000000000000000000000 PUSH1 0x0 DUP3 ADD MSTORE POP JUMP JUMPDEST PUSH1 0x0 PUSH2 0x2ED5 PUSH1 0x11 DUP4 PUSH2 0x24C7 JUMP JUMPDEST SWAP2 POP PUSH2 0x2EE0 DUP3 PUSH2 0x2E9F JUMP JUMPDEST PUSH1 0x20 DUP3 ADD SWAP1 POP SWAP2 SWAP1 POP JUMP JUMPDEST PUSH1 0x0 PUSH1 0x20 DUP3 ADD SWAP1 POP DUP2 DUP2 SUB PUSH1 0x0 DUP4 ADD MSTORE PUSH2 0x2F04 DUP2 PUSH2 0x2EC8 JUMP JUMPDEST SWAP1 POP SWAP2 SWAP1 POP JUMP JUMPDEST PUSH32 0x4E487B7100000000000000000000000000000000000000000000000000000000 PUSH1 0x0 MSTORE PUSH1 0x22 PUSH1 0x4 MSTORE PUSH1 0x24 PUSH1 0x0 REVERT JUMPDEST PUSH1 0x0 PUSH1 0x2 DUP3 DIV SWAP1 POP PUSH1 0x1 DUP3 AND DUP1 PUSH2 0x2F52 JUMPI PUSH1 0x7F DUP3 AND SWAP2 POP JUMPDEST PUSH1 0x20 DUP3 LT DUP2 SUB PUSH2 0x2F65 JUMPI PUSH2 0x2F64 PUSH2 0x2F0B JUMP JUMPDEST JUMPDEST POP SWAP2 SWAP1 POP JUMP JUMPDEST PUSH32 0x436F7572736520646F6573206E6F74206578697374206F722068617320626565 PUSH1 0x0 DUP3 ADD MSTORE PUSH32 0x6E2064656C657465640000000000000000000000000000000000000000000000 PUSH1 0x20 DUP3 ADD MSTORE POP JUMP JUMPDEST PUSH1 0x0 PUSH2 0x2FC7 PUSH1 0x29 DUP4 PUSH2 0x24C7 JUMP JUMPDEST SWAP2 POP PUSH2 0x2FD2 DUP3 PUSH2 0x2F6B JUMP JUMPDEST PUSH1 0x40 DUP3 ADD SWAP1 POP SWAP2 SWAP1 POP JUMP JUMPDEST PUSH1 0x0 PUSH1 0x20 DUP3 ADD SWAP1 POP DUP2 DUP2 SUB PUSH1 0x0 DUP4 ADD MSTORE PUSH2 0x2FF6 DUP2 PUSH2 0x2FBA JUMP JUMPDEST SWAP1 POP SWAP2 SWAP1 POP JUMP JUMPDEST PUSH32 0x4F6E6C792073747564656E74732063616E20726567697374657220696E20636F PUSH1 0x0 DUP3 ADD MSTORE PUSH32 0x7572736573000000000000000000000000000000000000000000000000000000 PUSH1 0x20 DUP3 ADD MSTORE POP JUMP JUMPDEST PUSH1 0x0 PUSH2 0x3059 PUSH1 0x25 DUP4 PUSH2 0x24C7 JUMP JUMPDEST SWAP2 POP PUSH2 0x3064 DUP3 PUSH2 0x2FFD JUMP JUMPDEST PUSH1 0x40 DUP3 ADD SWAP1 POP SWAP2 SWAP1 POP JUMP JUMPDEST PUSH1 0x0 PUSH1 0x20 DUP3 ADD SWAP1 POP DUP2 DUP2 SUB PUSH1 0x0 DUP4 ADD MSTORE PUSH2 0x3088 DUP2 PUSH2 0x304C JUMP JUMPDEST SWAP1 POP SWAP2 SWAP1 POP JUMP JUMPDEST PUSH32 0x4E487B7100000000000000000000000000000000000000000000000000000000 PUSH1 0x0 MSTORE PUSH1 0x32 PUSH1 0x4 MSTORE PUSH1 0x24 PUSH1 0x0 REVERT JUMPDEST PUSH32 0x53747564656E7420616C7265616479207265676973746572656420696E207468 PUSH1 0x0 DUP3 ADD MSTORE PUSH32 0x6520636F75727365000000000000000000000000000000000000000000000000 PUSH1 0x20 DUP3 ADD MSTORE POP JUMP JUMPDEST PUSH1 0x0 PUSH2 0x311A PUSH1 0x28 DUP4 PUSH2 0x24C7 JUMP JUMPDEST SWAP2 POP PUSH2 0x3125 DUP3 PUSH2 0x30BE JUMP JUMPDEST PUSH1 0x40 DUP3 ADD SWAP1 POP SWAP2 SWAP1 POP JUMP JUMPDEST PUSH1 0x0 PUSH1 0x20 DUP3 ADD SWAP1 POP DUP2 DUP2 SUB PUSH1 0x0 DUP4 ADD MSTORE PUSH2 0x3149 DUP2 PUSH2 0x310D JUMP JUMPDEST SWAP1 POP SWAP2 SWAP1 POP JUMP JUMPDEST PUSH1 0x0 PUSH1 0x40 DUP3 ADD SWAP1 POP PUSH2 0x3165 PUSH1 0x0 DUP4 ADD DUP6 PUSH2 0x24AD JUMP JUMPDEST PUSH2 0x3172 PUSH1 0x20 DUP4 ADD DUP5 PUSH2 0x2D0C JUMP JUMPDEST SWAP4 SWAP3 POP POP POP JUMP JUMPDEST PUSH32 0x4E487B7100000000000000000000000000000000000000000000000000000000 PUSH1 0x0 MSTORE PUSH1 0x11 PUSH1 0x4 MSTORE PUSH1 0x24 PUSH1 0x0 REVERT JUMPDEST PUSH1 0x0 PUSH2 0x31B3 DUP3 PUSH2 0x244A JUMP JUMPDEST SWAP2 POP PUSH32 0xFFFFFFFFFFFFFFFFFFFFFFFFFFFFFFFFFFFFFFFFFFFFFFFFFFFFFFFFFFFFFFFF DUP3 SUB PUSH2 0x31E5 JUMPI PUSH2 0x31E4 PUSH2 0x3179 JUMP JUMPDEST JUMPDEST PUSH1 0x1 DUP3 ADD SWAP1 POP SWAP2 SWAP1 POP JUMP JUMPDEST PUSH32 0x496E76616C696420646179000000000000000000000000000000000000000000 PUSH1 0x0 DUP3 ADD MSTORE POP JUMP JUMPDEST PUSH1 0x0 PUSH2 0x3226 PUSH1 0xB DUP4 PUSH2 0x24C7 JUMP JUMPDEST SWAP2 POP PUSH2 0x3231 DUP3 PUSH2 0x31F0 JUMP JUMPDEST PUSH1 0x20 DUP3 ADD SWAP1 POP SWAP2 SWAP1 POP JUMP JUMPDEST PUSH1 0x0 PUSH1 0x20 DUP3 ADD SWAP1 POP DUP2 DUP2 SUB PUSH1 0x0 DUP4 ADD MSTORE PUSH2 0x3255 DUP2 PUSH2 0x3219 JUMP JUMPDEST SWAP1 POP SWAP2 SWAP1 POP JUMP JUMPDEST PUSH32 0x496E76616C6964207363686564756C6500000000000000000000000000000000 PUSH1 0x0 DUP3 ADD MSTORE POP JUMP JUMPDEST PUSH1 0x0 PUSH2 0x3292 PUSH1 0x10 DUP4 PUSH2 0x24C7 JUMP JUMPDEST SWAP2 POP PUSH2 0x329D DUP3 PUSH2 0x325C JUMP JUMPDEST PUSH1 0x20 DUP3 ADD SWAP1 POP SWAP2 SWAP1 POP JUMP JUMPDEST PUSH1 0x0 PUSH1 0x20 DUP3 ADD SWAP1 POP DUP2 DUP2 SUB PUSH1 0x0 DUP4 ADD MSTORE PUSH2 0x32C1 DUP2 PUSH2 0x3285 JUMP JUMPDEST SWAP1 POP SWAP2 SWAP1 POP JUMP JUMPDEST PUSH1 0x0 PUSH2 0x32D3 DUP3 PUSH2 0x244A JUMP JUMPDEST SWAP2 POP PUSH2 0x32DE DUP4 PUSH2 0x244A JUMP JUMPDEST SWAP3 POP DUP3 DUP3 ADD SWAP1 POP DUP1 DUP3 GT ISZERO PUSH2 0x32F6 JUMPI PUSH2 0x32F5 PUSH2 0x3179 JUMP JUMPDEST JUMPDEST SWAP3 SWAP2 POP POP JUMP JUMPDEST PUSH1 0x0 DUP2 SLOAD SWAP1 POP PUSH2 0x330B DUP2 PUSH2 0x2F3A JUMP JUMPDEST SWAP1 POP SWAP2 SWAP1 POP JUMP JUMPDEST PUSH1 0x0 DUP2 SWAP1 POP DUP2 PUSH1 0x0 MSTORE PUSH1 0x20 PUSH1 0x0 KECCAK256 SWAP1 POP SWAP2 SWAP1 POP JUMP JUMPDEST PUSH1 0x0 DUP2 SWAP1 POP DUP2 PUSH1 0x0 MSTORE PUSH1 0x20 PUSH1 0x0 KECCAK256 SWAP1 POP SWAP2 SWAP1 POP JUMP JUMPDEST PUSH1 0x0 PUSH1 0x20 PUSH1 0x1F DUP4 ADD DIV SWAP1 POP SWAP2 SWAP1 POP JUMP JUMPDEST PUSH1 0x0 DUP3 DUP3 SHL SWAP1 POP SWAP3 SWAP2 POP POP JUMP JUMPDEST PUSH1 0x0 PUSH1 0x8 DUP4 MUL PUSH2 0x3389 PUSH32 0xFFFFFFFFFFFFFFFFFFFFFFFFFFFFFFFFFFFFFFFFFFFFFFFFFFFFFFFFFFFFFFFF DUP3 PUSH2 0x334C JUMP JUMPDEST PUSH2 0x3393 DUP7 DUP4 PUSH2 0x334C JUMP JUMPDEST SWAP6 POP DUP1 NOT DUP5 AND SWAP4 POP DUP1 DUP7 AND DUP5 OR SWAP3 POP POP POP SWAP4 SWAP3 POP POP POP JUMP JUMPDEST PUSH1 0x0 DUP2 SWAP1 POP SWAP2 SWAP1 POP JUMP JUMPDEST PUSH1 0x0 PUSH2 0x33D0 PUSH2 0x33CB PUSH2 0x33C6 DUP5 PUSH2 0x244A JUMP JUMPDEST PUSH2 0x33AB JUMP JUMPDEST PUSH2 0x244A JUMP JUMPDEST SWAP1 POP SWAP2 SWAP1 POP JUMP JUMPDEST PUSH1 0x0 DUP2 SWAP1 POP SWAP2 SWAP1 POP JUMP JUMPDEST PUSH2 0x33EA DUP4 PUSH2 0x33B5 JUMP JUMPDEST PUSH2 0x33FE PUSH2 0x33F6 DUP3 PUSH2 0x33D7 JUMP JUMPDEST DUP5 DUP5 SLOAD PUSH2 0x3359 JUMP JUMPDEST DUP3 SSTORE POP POP POP POP JUMP JUMPDEST PUSH1 0x0 SWAP1 JUMP JUMPDEST PUSH2 0x3413 PUSH2 0x3406 JUMP JUMPDEST PUSH2 0x341E DUP2 DUP5 DUP5 PUSH2 0x33E1 JUMP JUMPDEST POP POP POP JUMP JUMPDEST JUMPDEST DUP2 DUP2 LT ISZERO PUSH2 0x3442 JUMPI PUSH2 0x3437 PUSH1 0x0 DUP3 PUSH2 0x340B JUMP JUMPDEST PUSH1 0x1 DUP2 ADD SWAP1 POP PUSH2 0x3424 JUMP JUMPDEST POP POP JUMP JUMPDEST PUSH1 0x1F DUP3 GT ISZERO PUSH2 0x3487 JUMPI PUSH2 0x3458 DUP2 PUSH2 0x3312 JUMP JUMPDEST PUSH2 0x3461 DUP5 PUSH2 0x333C JUMP JUMPDEST DUP2 ADD PUSH1 0x20 DUP6 LT ISZERO PUSH2 0x3470 JUMPI DUP2 SWAP1 POP JUMPDEST PUSH2 0x3484 PUSH2 0x347C DUP6 PUSH2 0x333C JUMP JUMPDEST DUP4 ADD DUP3 PUSH2 0x3423 JUMP JUMPDEST POP POP JUMPDEST POP POP POP JUMP JUMPDEST PUSH1 0x0 DUP3 DUP3 SHR SWAP1 POP SWAP3 SWAP2 POP POP JUMP JUMPDEST PUSH1 0x0 PUSH2 0x34AA PUSH1 0x0 NOT DUP5 PUSH1 0x8 MUL PUSH2 0x348C JUMP JUMPDEST NOT DUP1 DUP4 AND SWAP2 POP POP SWAP3 SWAP2 POP POP JUMP JUMPDEST PUSH1 0x0 PUSH2 0x34C3 DUP4 DUP4 PUSH2 0x3499 JUMP JUMPDEST SWAP2 POP DUP3 PUSH1 0x2 MUL DUP3 OR SWAP1 POP SWAP3 SWAP2 POP POP JUMP JUMPDEST DUP2 DUP2 SUB PUSH2 0x34E1 JUMPI POP POP PUSH2 0x35B9 JUMP JUMPDEST PUSH2 0x34EA DUP3 PUSH2 0x32FC JUMP JUMPDEST PUSH8 0xFFFFFFFFFFFFFFFF DUP2 GT ISZERO PUSH2 0x3503 JUMPI PUSH2 0x3502 PUSH2 0x29C7 JUMP JUMPDEST JUMPDEST PUSH2 0x350D DUP3 SLOAD PUSH2 0x2F3A JUMP JUMPDEST PUSH2 0x3518 DUP3 DUP3 DUP6 PUSH2 0x3446 JUMP JUMPDEST PUSH1 0x0 PUSH1 0x1F DUP4 GT PUSH1 0x1 DUP2 EQ PUSH2 0x3547 JUMPI PUSH1 0x0 DUP5 ISZERO PUSH2 0x3535 JUMPI DUP3 DUP8 ADD SLOAD SWAP1 POP JUMPDEST PUSH2 0x353F DUP6 DUP3 PUSH2 0x34B7 JUMP JUMPDEST DUP7 SSTORE POP PUSH2 0x35B2 JUMP JUMPDEST PUSH1 0x1F NOT DUP5 AND PUSH2 0x3555 DUP8 PUSH2 0x3327 JUMP JUMPDEST SWAP7 POP PUSH2 0x3560 DUP7 PUSH2 0x3312 JUMP JUMPDEST PUSH1 0x0 JUMPDEST DUP3 DUP2 LT ISZERO PUSH2 0x3588 JUMPI DUP5 DUP10 ADD SLOAD DUP3 SSTORE PUSH1 0x1 DUP3 ADD SWAP2 POP PUSH1 0x1 DUP6 ADD SWAP5 POP PUSH1 0x20 DUP2 ADD SWAP1 POP PUSH2 0x3563 JUMP JUMPDEST DUP7 DUP4 LT ISZERO PUSH2 0x35A5 JUMPI DUP5 DUP10 ADD SLOAD PUSH2 0x35A1 PUSH1 0x1F DUP10 AND DUP3 PUSH2 0x3499 JUMP JUMPDEST DUP4 SSTORE POP JUMPDEST PUSH1 0x1 PUSH1 0x2 DUP9 MUL ADD DUP9 SSTORE POP POP POP JUMPDEST POP POP POP POP POP POP JUMPDEST JUMP JUMPDEST PUSH1 0x0 PUSH1 0x80 DUP3 ADD SWAP1 POP PUSH2 0x35D0 PUSH1 0x0 DUP4 ADD DUP8 PUSH2 0x24AD JUMP JUMPDEST PUSH2 0x35DD PUSH1 0x20 DUP4 ADD DUP7 PUSH2 0x25E3 JUMP JUMPDEST PUSH2 0x35EA PUSH1 0x40 DUP4 ADD DUP6 PUSH2 0x25E3 JUMP JUMPDEST PUSH2 0x35F7 PUSH1 0x60 DUP4 ADD DUP5 PUSH2 0x25E3 JUMP JUMPDEST SWAP6 SWAP5 POP POP POP POP POP JUMP JUMPDEST PUSH32 0x496E76616C6964207363686564756C6520494400000000000000000000000000 PUSH1 0x0 DUP3 ADD MSTORE POP JUMP JUMPDEST PUSH1 0x0 PUSH2 0x3636 PUSH1 0x13 DUP4 PUSH2 0x24C7 JUMP JUMPDEST SWAP2 POP PUSH2 0x3641 DUP3 PUSH2 0x3600 JUMP JUMPDEST PUSH1 0x20 DUP3 ADD SWAP1 POP SWAP2 SWAP1 POP JUMP JUMPDEST PUSH1 0x0 PUSH1 0x20 DUP3 ADD SWAP1 POP DUP2 DUP2 SUB PUSH1 0x0 DUP4 ADD MSTORE PUSH2 0x3665 DUP2 PUSH2 0x3629 JUMP JUMPDEST SWAP1 POP SWAP2 SWAP1 POP JUMP JUMPDEST PUSH32 0x55736572206E6F74207265676973746572656400000000000000000000000000 PUSH1 0x0 DUP3 ADD MSTORE POP JUMP JUMPDEST PUSH1 0x0 PUSH2 0x36A2 PUSH1 0x13 DUP4 PUSH2 0x24C7 JUMP JUMPDEST SWAP2 POP PUSH2 0x36AD DUP3 PUSH2 0x366C JUMP JUMPDEST PUSH1 0x20 DUP3 ADD SWAP1 POP SWAP2 SWAP1 POP JUMP JUMPDEST PUSH1 0x0 PUSH1 0x20 DUP3 ADD SWAP1 POP DUP2 DUP2 SUB PUSH1 0x0 DUP4 ADD MSTORE PUSH2 0x36D1 DUP2 PUSH2 0x3695 JUMP JUMPDEST SWAP1 POP SWAP2 SWAP1 POP JUMP JUMPDEST PUSH32 0x4F6E6C792073747564656E74732063616E206861766520656E726F6C6C656420 PUSH1 0x0 DUP3 ADD MSTORE PUSH32 0x636F757273657300000000000000000000000000000000000000000000000000 PUSH1 0x20 DUP3 ADD MSTORE POP JUMP JUMPDEST PUSH1 0x0 PUSH2 0x3734 PUSH1 0x27 DUP4 PUSH2 0x24C7 JUMP JUMPDEST SWAP2 POP PUSH2 0x373F DUP3 PUSH2 0x36D8 JUMP JUMPDEST PUSH1 0x40 DUP3 ADD SWAP1 POP SWAP2 SWAP1 POP JUMP JUMPDEST PUSH1 0x0 PUSH1 0x20 DUP3 ADD SWAP1 POP DUP2 DUP2 SUB PUSH1 0x0 DUP4 ADD MSTORE PUSH2 0x3763 DUP2 PUSH2 0x3727 JUMP JUMPDEST SWAP1 POP SWAP2 SWAP1 POP JUMP JUMPDEST PUSH2 0x3773 DUP3 PUSH2 0x24BC JUMP JUMPDEST PUSH8 0xFFFFFFFFFFFFFFFF DUP2 GT ISZERO PUSH2 0x378C JUMPI PUSH2 0x378B PUSH2 0x29C7 JUMP JUMPDEST JUMPDEST PUSH2 0x3796 DUP3 SLOAD PUSH2 0x2F3A JUMP JUMPDEST PUSH2 0x37A1 DUP3 DUP3 DUP6 PUSH2 0x3446 JUMP JUMPDEST PUSH1 0x0 PUSH1 0x20 SWAP1 POP PUSH1 0x1F DUP4 GT PUSH1 0x1 DUP2 EQ PUSH2 0x37D4 JUMPI PUSH1 0x0 DUP5 ISZERO PUSH2 0x37C2 JUMPI DUP3 DUP8 ADD MLOAD SWAP1 POP JUMPDEST PUSH2 0x37CC DUP6 DUP3 PUSH2 0x34B7 JUMP JUMPDEST DUP7 SSTORE POP PUSH2 0x3834 JUMP JUMPDEST PUSH1 0x1F NOT DUP5 AND PUSH2 0x37E2 DUP7 PUSH2 0x3312 JUMP JUMPDEST PUSH1 0x0 JUMPDEST DUP3 DUP2 LT ISZERO PUSH2 0x380A JUMPI DUP5 DUP10 ADD MLOAD DUP3 SSTORE PUSH1 0x1 DUP3 ADD SWAP2 POP PUSH1 0x20 DUP6 ADD SWAP5 POP PUSH1 0x20 DUP2 ADD SWAP1 POP PUSH2 0x37E5 JUMP JUMPDEST DUP7 DUP4 LT ISZERO PUSH2 0x3827 JUMPI DUP5 DUP10 ADD MLOAD PUSH2 0x3823 PUSH1 0x1F DUP10 AND DUP3 PUSH2 0x3499 JUMP JUMPDEST DUP4 SSTORE POP JUMPDEST PUSH1 0x1 PUSH1 0x2 DUP9 MUL ADD DUP9 SSTORE POP POP POP JUMPDEST POP POP POP POP POP POP JUMP JUMPDEST PUSH1 0x0 PUSH1 0x40 DUP3 ADD SWAP1 POP PUSH2 0x3851 PUSH1 0x0 DUP4 ADD DUP6 PUSH2 0x24AD JUMP JUMPDEST DUP2 DUP2 SUB PUSH1 0x20 DUP4 ADD MSTORE PUSH2 0x3863 DUP2 DUP5 PUSH2 0x2513 JUMP JUMPDEST SWAP1 POP SWAP4 SWAP3 POP POP POP JUMP JUMPDEST PUSH32 0x5573657220616C72656164792072656769737465726564000000000000000000 PUSH1 0x0 DUP3 ADD MSTORE POP JUMP JUMPDEST PUSH1 0x0 PUSH2 0x38A2 PUSH1 0x17 DUP4 PUSH2 0x24C7 JUMP JUMPDEST SWAP2 POP PUSH2 0x38AD DUP3 PUSH2 0x386C JUMP JUMPDEST PUSH1 0x20 DUP3 ADD SWAP1 POP SWAP2 SWAP1 POP JUMP JUMPDEST PUSH1 0x0 PUSH1 0x20 DUP3 ADD SWAP1 POP DUP2 DUP2 SUB PUSH1 0x0 DUP4 ADD MSTORE PUSH2 0x38D1 DUP2 PUSH2 0x3895 JUMP JUMPDEST SWAP1 POP SWAP2 SWAP1 POP JUMP JUMPDEST PUSH1 0x0 PUSH1 0x40 DUP3 ADD SWAP1 POP PUSH2 0x38ED PUSH1 0x0 DUP4 ADD DUP6 PUSH2 0x2D0C JUMP JUMPDEST PUSH2 0x38FA PUSH1 0x20 DUP4 ADD DUP5 PUSH2 0x2D83 JUMP JUMPDEST SWAP4 SWAP3 POP POP POP JUMP JUMPDEST PUSH32 0x5363686564756C6520646F6573206E6F74206578697374206F72206861732062 PUSH1 0x0 DUP3 ADD MSTORE PUSH32 0x65656E2064656C65746564000000000000000000000000000000000000000000 PUSH1 0x20 DUP3 ADD MSTORE POP JUMP JUMPDEST PUSH1 0x0 PUSH2 0x395D PUSH1 0x2B DUP4 PUSH2 0x24C7 JUMP JUMPDEST SWAP2 POP PUSH2 0x3968 DUP3 PUSH2 0x3901 JUMP JUMPDEST PUSH1 0x40 DUP3 ADD SWAP1 POP SWAP2 SWAP1 POP JUMP JUMPDEST PUSH1 0x0 PUSH1 0x20 DUP3 ADD SWAP1 POP DUP2 DUP2 SUB PUSH1 0x0 DUP4 ADD MSTORE PUSH2 0x398C DUP2 PUSH2 0x3950 JUMP JUMPDEST SWAP1 POP SWAP2 SWAP1 POP JUMP JUMPDEST PUSH1 0x0 PUSH1 0xA0 DUP3 ADD SWAP1 POP PUSH2 0x39A8 PUSH1 0x0 DUP4 ADD DUP9 PUSH2 0x24AD JUMP JUMPDEST PUSH2 0x39B5 PUSH1 0x20 DUP4 ADD DUP8 PUSH2 0x24AD JUMP JUMPDEST PUSH2 0x39C2 PUSH1 0x40 DUP4 ADD DUP7 PUSH2 0x25E3 JUMP JUMPDEST PUSH2 0x39CF PUSH1 0x60 DUP4 ADD DUP6 PUSH2 0x25E3 JUMP JUMPDEST PUSH2 0x39DC PUSH1 0x80 DUP4 ADD DUP5 PUSH2 0x25E3 JUMP JUMPDEST SWAP7 SWAP6 POP POP POP POP POP POP JUMP INVALID LOG2 PUSH5 0x6970667358 0x22 SLT KECCAK256 0xCB 0xB5 BALANCE 0xB1 0xE7 0xB2 SSTORE CALLDATASIZE DELEGATECALL 0xDF PUSH21 0x50B8BCCA2E4ECA8427D0BAFF05FB82ACC10AA0E555 PUSH5 0x736F6C6343 STOP ADDMOD SHL STOP CALLER "},"methodIdentifiers":{"addSchedule(uint256,uint8,uint8,uint8)":"77b31134","admin()":"f851a440","courses(uint256)":"96f979d2","createCourse(string,string,uint256)":"a4adb24b","deleteCourse(uint256)":"9dad8d22","deleteSchedule(uint256,uint256)":"ecf1938e","getCourse(uint256)":"0b91e28d","getSchedule(uint256,uint256)":"f43e5e42","getScheduleById(uint256)":"80b3ea88","getStudentCourses()":"83517a4f","listAllSchedules()":"292a1b55","listCourses()":"c53069c7","registerStudentInCourse(uint256)":"19384dd1","registerUser(address,uint8)":"9e9fa097","schedulesById(uint256)":"27fd9572","totalCourses()":"87ac1860","totalSchedules()":"965720af","updateCourse(uint256,string,string,uint256)":"91aac065","updateSchedule(uint256,uint256,uint8,uint8,uint8)":"bfc42328","users(address)":"a87430ba"}}}}}