{
  "_format": "hh-sol-artifact-1",
  "contractName": "CourseContract",
  "sourceName": "contracts/CourseContract.sol",
  "abi": [
    {
      "inputs": [],
      "stateMutability": "nonpayable",
      "type": "constructor"
    },
    {
      "anonymous": false,
      "inputs": [
        {
          "indexed": false,
          "internalType": "uint256",
          "name": "id",
          "type": "uint256"
        },
        {
          "indexed": false,
          "internalType": "string",
          "name": "name",
          "type": "string"
        }
      ],
      "name": "CourseCreated",
      "type": "event"
    },
    {
      "anonymous": false,
      "inputs": [
        {
          "indexed": false,
          "internalType": "uint256",
          "name": "id",
          "type": "uint256"
        }
      ],
      "name": "CourseDeleted",
      "type": "event"
    },
    {
      "anonymous": false,
      "inputs": [
        {
          "indexed": false,
          "internalType": "uint256",
          "name": "id",
          "type": "uint256"
        },
        {
          "indexed": false,
          "internalType": "string",
          "name": "name",
          "type": "string"
        }
      ],
      "name": "CourseUpdated",
      "type": "event"
    },
    {
      "anonymous": false,
      "inputs": [
        {
          "indexed": false,
          "internalType": "uint256",
          "name": "id",
          "type": "uint256"
        },
        {
          "indexed": false,
          "internalType": "uint8",
          "name": "day",
          "type": "uint8"
        },
        {
          "indexed": false,
          "internalType": "uint8",
          "name": "startHour",
          "type": "uint8"
        },
        {
          "indexed": false,
          "internalType": "uint8",
          "name": "endHour",
          "type": "uint8"
        }
      ],
      "name": "ScheduleAdded",
      "type": "event"
    },
    {
      "anonymous": false,
      "inputs": [
        {
          "indexed": false,
          "internalType": "uint256",
          "name": "courseId",
          "type": "uint256"
        },
        {
          "indexed": false,
          "internalType": "address",
          "name": "student",
          "type": "address"
        }
      ],
      "name": "StudentRegisteredInCourse",
      "type": "event"
    },
    {
      "anonymous": false,
      "inputs": [
        {
          "indexed": false,
          "internalType": "address",
          "name": "addr",
          "type": "address"
        },
        {
          "indexed": false,
          "internalType": "enum CourseContract.Role",
          "name": "role",
          "type": "uint8"
        }
      ],
      "name": "UserRegistered",
      "type": "event"
    },
    {
      "inputs": [
        {
          "internalType": "uint256",
          "name": "_id",
          "type": "uint256"
        },
        {
          "internalType": "uint8",
          "name": "_day",
          "type": "uint8"
        },
        {
          "internalType": "uint8",
          "name": "_startHour",
          "type": "uint8"
        },
        {
          "internalType": "uint8",
          "name": "_endHour",
          "type": "uint8"
        }
      ],
      "name": "addSchedule",
      "outputs": [],
      "stateMutability": "nonpayable",
      "type": "function"
    },
    {
      "inputs": [],
      "name": "admin",
      "outputs": [
        {
          "internalType": "address",
          "name": "",
          "type": "address"
        }
      ],
      "stateMutability": "view",
      "type": "function"
    },
    {
      "inputs": [
        {
          "internalType": "uint256",
          "name": "",
          "type": "uint256"
        }
      ],
      "name": "courses",
      "outputs": [
        {
          "internalType": "uint256",
          "name": "id",
          "type": "uint256"
        },
        {
          "internalType": "string",
          "name": "name",
          "type": "string"
        },
        {
          "internalType": "string",
          "name": "description",
          "type": "string"
        },
        {
          "internalType": "uint256",
          "name": "credits",
          "type": "uint256"
        },
        {
          "internalType": "bool",
          "name": "isActive",
          "type": "bool"
        },
        {
          "internalType": "uint256",
          "name": "totalSchedules",
          "type": "uint256"
        }
      ],
      "stateMutability": "view",
      "type": "function"
    },
    {
      "inputs": [
        {
          "internalType": "string",
          "name": "_name",
          "type": "string"
        },
        {
          "internalType": "string",
          "name": "_description",
          "type": "string"
        },
        {
          "internalType": "uint256",
          "name": "_credits",
          "type": "uint256"
        }
      ],
      "name": "createCourse",
      "outputs": [],
      "stateMutability": "nonpayable",
      "type": "function"
    },
    {
      "inputs": [
        {
          "internalType": "uint256",
          "name": "_id",
          "type": "uint256"
        }
      ],
      "name": "deleteCourse",
      "outputs": [],
      "stateMutability": "nonpayable",
      "type": "function"
    },
    {
      "inputs": [
        {
          "internalType": "uint256",
          "name": "_id",
          "type": "uint256"
        }
      ],
      "name": "getCourse",
      "outputs": [
        {
          "internalType": "uint256",
          "name": "",
          "type": "uint256"
        },
        {
          "internalType": "string",
          "name": "",
          "type": "string"
        },
        {
          "internalType": "string",
          "name": "",
          "type": "string"
        },
        {
          "internalType": "uint256",
          "name": "",
          "type": "uint256"
        },
        {
          "internalType": "bool",
          "name": "",
          "type": "bool"
        },
        {
          "internalType": "uint256",
          "name": "",
          "type": "uint256"
        }
      ],
      "stateMutability": "view",
      "type": "function"
    },
    {
      "inputs": [
        {
          "internalType": "uint256",
          "name": "_courseId",
          "type": "uint256"
        },
        {
          "internalType": "uint256",
          "name": "_scheduleId",
          "type": "uint256"
        }
      ],
      "name": "getSchedule",
      "outputs": [
        {
          "internalType": "uint8",
          "name": "",
          "type": "uint8"
        },
        {
          "internalType": "uint8",
          "name": "",
          "type": "uint8"
        },
        {
          "internalType": "uint8",
          "name": "",
          "type": "uint8"
        }
      ],
      "stateMutability": "view",
      "type": "function"
    },
    {
      "inputs": [],
      "name": "getStudentCourses",
      "outputs": [
        {
          "internalType": "uint256[]",
          "name": "",
          "type": "uint256[]"
        }
      ],
      "stateMutability": "view",
      "type": "function"
    },
    {
      "inputs": [],
      "name": "listCourses",
      "outputs": [
        {
          "internalType": "uint256[]",
          "name": "",
          "type": "uint256[]"
        }
      ],
      "stateMutability": "view",
      "type": "function"
    },
    {
      "inputs": [
        {
          "internalType": "uint256",
          "name": "_courseId",
          "type": "uint256"
        }
      ],
      "name": "registerStudentInCourse",
      "outputs": [],
      "stateMutability": "nonpayable",
      "type": "function"
    },
    {
      "inputs": [
        {
          "internalType": "address",
          "name": "_user",
          "type": "address"
        },
        {
          "internalType": "enum CourseContract.Role",
          "name": "_role",
          "type": "uint8"
        }
      ],
      "name": "registerUser",
      "outputs": [],
      "stateMutability": "nonpayable",
      "type": "function"
    },
    {
      "inputs": [],
      "name": "totalCourses",
      "outputs": [
        {
          "internalType": "uint256",
          "name": "",
          "type": "uint256"
        }
      ],
      "stateMutability": "view",
      "type": "function"
    },
    {
      "inputs": [
        {
          "internalType": "uint256",
          "name": "_id",
          "type": "uint256"
        },
        {
          "internalType": "string",
          "name": "_name",
          "type": "string"
        },
        {
          "internalType": "string",
          "name": "_description",
          "type": "string"
        },
        {
          "internalType": "uint256",
          "name": "_credits",
          "type": "uint256"
        }
      ],
      "name": "updateCourse",
      "outputs": [],
      "stateMutability": "nonpayable",
      "type": "function"
    },
    {
      "inputs": [
        {
          "internalType": "address",
          "name": "",
          "type": "address"
        }
      ],
      "name": "users",
      "outputs": [
        {
          "internalType": "address",
          "name": "addr",
          "type": "address"
        },
        {
          "internalType": "enum CourseContract.Role",
          "name": "role",
          "type": "uint8"
        },
        {
          "internalType": "bool",
          "name": "isActive",
          "type": "bool"
        }
      ],
      "stateMutability": "view",
      "type": "function"
    }
  ],
  "bytecode": "0x608060405234801561001057600080fd5b5033600360006101000a81548173ffffffffffffffffffffffffffffffffffffffff021916908373ffffffffffffffffffffffffffffffffffffffff16021790555060405180606001604052803373ffffffffffffffffffffffffffffffffffffffff16815260200160028081111561008c5761008b610176565b5b815260200160011515815250600160003373ffffffffffffffffffffffffffffffffffffffff1673ffffffffffffffffffffffffffffffffffffffff16815260200190815260200160002060008201518160000160006101000a81548173ffffffffffffffffffffffffffffffffffffffff021916908373ffffffffffffffffffffffffffffffffffffffff16021790555060208201518160000160146101000a81548160ff0219169083600281111561014957610148610176565b5b021790555060408201518160000160156101000a81548160ff0219169083151502179055509050506101a5565b7f4e487b7100000000000000000000000000000000000000000000000000000000600052602160045260246000fd5b612852806101b46000396000f3fe608060405234801561001057600080fd5b50600436106100ea5760003560e01c80639dad8d221161008c578063a87430ba11610066578063a87430ba1461023d578063c53069c71461026f578063f43e5e421461028d578063f851a440146102bf576100ea565b80639dad8d22146101e95780639e9fa09714610205578063a4adb24b14610221576100ea565b806383517a4f116100c857806383517a4f1461015c57806387ac18601461017a57806391aac0651461019857806396f979d2146101b4576100ea565b80630b91e28d146100ef57806319384dd11461012457806377b3113414610140575b600080fd5b6101096004803603810190610104919061172f565b6102dd565b60405161011b96959493929190611816565b60405180910390f35b61013e6004803603810190610139919061172f565b610498565b005b61015a600480360381019061015591906118be565b61077a565b005b6101646109f5565b60405161017191906119e3565b60405180910390f35b610182610d2d565b60405161018f9190611a05565b60405180910390f35b6101b260048036038101906101ad9190611b55565b610d33565b005b6101ce60048036038101906101c9919061172f565b610e5c565b6040516101e096959493929190611816565b60405180910390f35b61020360048036038101906101fe919061172f565b610fb5565b005b61021f600480360381019061021a9190611c77565b6110c3565b005b61023b60048036038101906102369190611cb7565b6112af565b005b61025760048036038101906102529190611d42565b61137d565b60405161026693929190611df5565b60405180910390f35b6102776113e1565b60405161028491906119e3565b60405180910390f35b6102a760048036038101906102a29190611e2c565b61154e565b6040516102b693929190611e7b565b60405180910390f35b6102c76116bf565b6040516102d49190611eb2565b60405180910390f35b60006060806000806000600254871061032b576040517f08c379a000000000000000000000000000000000000000000000000000000000815260040161032290611f19565b60405180910390fd5b600080600089815260200190815260200160002090508060000154816001018260020183600301548460040160009054906101000a900460ff16856005015484805461037690611f68565b80601f01602080910402602001604051908101604052809291908181526020018280546103a290611f68565b80156103ef5780601f106103c4576101008083540402835291602001916103ef565b820191906000526020600020905b8154815290600101906020018083116103d257829003601f168201915b5050505050945083805461040290611f68565b80601f016020809104026020016040519081016040528092919081815260200182805461042e90611f68565b801561047b5780601f106104505761010080835404028352916020019161047b565b820191906000526020600020905b81548152906001019060200180831161045e57829003601f168201915b505050505093509650965096509650965096505091939550919395565b60025481106104dc576040517f08c379a00000000000000000000000000000000000000000000000000000000081526004016104d390611f19565b60405180910390fd5b60008082815260200190815260200160002060040160009054906101000a900460ff1661053e576040517f08c379a00000000000000000000000000000000000000000000000000000000081526004016105359061200b565b60405180910390fd5b6000600281111561055257610551611d7e565b5b600160003373ffffffffffffffffffffffffffffffffffffffff1673ffffffffffffffffffffffffffffffffffffffff16815260200190815260200160002060000160149054906101000a900460ff1660028111156105b4576105b3611d7e565b5b146105f4576040517f08c379a00000000000000000000000000000000000000000000000000000000081526004016105eb9061209d565b60405180910390fd5b6000806000838152602001908152602001600020905060005b81600601805490508110156106d7573373ffffffffffffffffffffffffffffffffffffffff16826006018281548110610649576106486120bd565b5b9060005260206000200160009054906101000a900473ffffffffffffffffffffffffffffffffffffffff1673ffffffffffffffffffffffffffffffffffffffff16036106ca576040517f08c379a00000000000000000000000000000000000000000000000000000000081526004016106c19061215e565b60405180910390fd5b808060010191505061060d565b5080600601339080600181540180825580915050600190039060005260206000200160009091909190916101000a81548173ffffffffffffffffffffffffffffffffffffffff021916908373ffffffffffffffffffffffffffffffffffffffff1602179055507f5978a47ce47cdeb8a43a1794142dd16f2f94e95103bd104783a42725c7fe8cff823360405161076e92919061217e565b60405180910390a15050565b60025484106107be576040517f08c379a00000000000000000000000000000000000000000000000000000000081526004016107b590611f19565b60405180910390fd5b60008085815260200190815260200160002060040160009054906101000a900460ff16610820576040517f08c379a00000000000000000000000000000000000000000000000000000000081526004016108179061200b565b60405180910390fd5b60018360ff1610158015610838575060078360ff1611155b610877576040517f08c379a000000000000000000000000000000000000000000000000000000000815260040161086e906121f3565b60405180910390fd5b60188260ff1610801561088d575060188160ff16105b801561089e57508060ff168260ff16105b6108dd576040517f08c379a00000000000000000000000000000000000000000000000000000000081526004016108d49061225f565b60405180910390fd5b6000806000868152602001908152602001600020905060006001826005015461090691906122ae565b905060405180606001604052808660ff1681526020018560ff1681526020018460ff1681525082600701600083815260200190815260200160002060008201518160000160006101000a81548160ff021916908360ff16021790555060208201518160000160016101000a81548160ff021916908360ff16021790555060408201518160000160026101000a81548160ff021916908360ff1602179055509050508082600501819055507f3ff69354bb51befb41cb392610be115187b4afcfed73d238a16f370c7f20491c868686866040516109e594939291906122e2565b60405180910390a1505050505050565b6060600160003373ffffffffffffffffffffffffffffffffffffffff1673ffffffffffffffffffffffffffffffffffffffff16815260200190815260200160002060000160159054906101000a900460ff16610a86576040517f08c379a0000000000000000000000000000000000000000000000000000000008152600401610a7d90612373565b60405180910390fd5b60006002811115610a9a57610a99611d7e565b5b600160003373ffffffffffffffffffffffffffffffffffffffff1673ffffffffffffffffffffffffffffffffffffffff16815260200190815260200160002060000160149054906101000a900460ff166002811115610afc57610afb611d7e565b5b14610b3c576040517f08c379a0000000000000000000000000000000000000000000000000000000008152600401610b3390612405565b60405180910390fd5b600060025467ffffffffffffffff811115610b5a57610b59611a2a565b5b604051908082528060200260200182016040528015610b885781602001602082028036833780820191505090505b5090506000805b600254811015610c83576000806000838152602001908152602001600020905060005b8160060180549050811015610c74573373ffffffffffffffffffffffffffffffffffffffff16826006018281548110610bee57610bed6120bd565b5b9060005260206000200160009054906101000a900473ffffffffffffffffffffffffffffffffffffffff1673ffffffffffffffffffffffffffffffffffffffff1603610c675782858581518110610c4857610c476120bd565b5b6020026020010181815250508380610c5f90612425565b945050610c74565b8080600101915050610bb2565b50508080600101915050610b8f565b5060008167ffffffffffffffff811115610ca057610c9f611a2a565b5b604051908082528060200260200182016040528015610cce5781602001602082028036833780820191505090505b50905060005b82811015610d2357838181518110610cef57610cee6120bd565b5b6020026020010151828281518110610d0a57610d096120bd565b5b6020026020010181815250508080600101915050610cd4565b5080935050505090565b60025481565b6002548410610d77576040517f08c379a0000000000000000000000000000000000000000000000000000000008152600401610d6e90611f19565b60405180910390fd5b60008085815260200190815260200160002060040160009054906101000a900460ff16610dd9576040517f08c379a0000000000000000000000000000000000000000000000000000000008152600401610dd09061200b565b60405180910390fd5b6000806000868152602001908152602001600020905083816001019081610e009190612619565b5082816002019081610e129190612619565b508181600301819055507f61f1b503285f2baf5ae0ec7be5c9605a293c9d47bdaf9bdb36fc15c570615fe68585604051610e4d9291906126eb565b60405180910390a15050505050565b6000602052806000526040600020600091509050806000015490806001018054610e8590611f68565b80601f0160208091040260200160405190810160405280929190818152602001828054610eb190611f68565b8015610efe5780601f10610ed357610100808354040283529160200191610efe565b820191906000526020600020905b815481529060010190602001808311610ee157829003601f168201915b505050505090806002018054610f1390611f68565b80601f0160208091040260200160405190810160405280929190818152602001828054610f3f90611f68565b8015610f8c5780601f10610f6157610100808354040283529160200191610f8c565b820191906000526020600020905b815481529060010190602001808311610f6f57829003601f168201915b5050505050908060030154908060040160009054906101000a900460ff16908060050154905086565b6002548110610ff9576040517f08c379a0000000000000000000000000000000000000000000000000000000008152600401610ff090611f19565b60405180910390fd5b60008082815260200190815260200160002060040160009054906101000a900460ff1661105b576040517f08c379a00000000000000000000000000000000000000000000000000000000081526004016110529061200b565b60405180910390fd5b600080600083815260200190815260200160002060040160006101000a81548160ff0219169083151502179055507f39eeda956a5b638cce21d44feb4e3279509fbaf8fb7776431f55f57a0cd21537816040516110b89190611a05565b60405180910390a150565b600160008373ffffffffffffffffffffffffffffffffffffffff1673ffffffffffffffffffffffffffffffffffffffff16815260200190815260200160002060000160159054906101000a900460ff1615611153576040517f08c379a000000000000000000000000000000000000000000000000000000000815260040161114a90612767565b60405180910390fd5b60405180606001604052808373ffffffffffffffffffffffffffffffffffffffff16815260200182600281111561118d5761118c611d7e565b5b815260200160011515815250600160008473ffffffffffffffffffffffffffffffffffffffff1673ffffffffffffffffffffffffffffffffffffffff16815260200190815260200160002060008201518160000160006101000a81548173ffffffffffffffffffffffffffffffffffffffff021916908373ffffffffffffffffffffffffffffffffffffffff16021790555060208201518160000160146101000a81548160ff0219169083600281111561124a57611249611d7e565b5b021790555060408201518160000160156101000a81548160ff0219169083151502179055509050507f8e18574f8a7333e6a87112742a55853a643e2f0550f4e1a3a2c3f1bb2994441d82826040516112a3929190612787565b60405180910390a15050565b6000600260008154809291906112c490612425565b91905055905060008060008381526020019081526020016000209050818160000181905550848160010190816112fa9190612619565b508381600201908161130c9190612619565b5082816003018190555060018160040160006101000a81548160ff021916908315150217905550600081600501819055507fc2c844c5f6c72fe99b99de0942ba619e99957d3e8f7e614263ecfe40de952e58828660405161136e9291906126eb565b60405180910390a15050505050565b60016020528060005260406000206000915090508060000160009054906101000a900473ffffffffffffffffffffffffffffffffffffffff16908060000160149054906101000a900460ff16908060000160159054906101000a900460ff16905083565b6060600060025467ffffffffffffffff81111561140157611400611a2a565b5b60405190808252806020026020018201604052801561142f5781602001602082028036833780820191505090505b5090506000805b6002548110156114a45760008082815260200190815260200160002060040160009054906101000a900460ff1615611497578083838151811061147c5761147b6120bd565b5b602002602001018181525050818061149390612425565b9250505b8080600101915050611436565b5060008167ffffffffffffffff8111156114c1576114c0611a2a565b5b6040519080825280602002602001820160405280156114ef5781602001602082028036833780820191505090505b50905060005b82811015611544578381815181106115105761150f6120bd565b5b602002602001015182828151811061152b5761152a6120bd565b5b60200260200101818152505080806001019150506114f5565b5080935050505090565b60008060006002548510611597576040517f08c379a000000000000000000000000000000000000000000000000000000000815260040161158e90611f19565b60405180910390fd5b60008086815260200190815260200160002060040160009054906101000a900460ff166115f9576040517f08c379a00000000000000000000000000000000000000000000000000000000081526004016115f09061200b565b60405180910390fd5b60008086815260200190815260200160002060050154841115611651576040517f08c379a0000000000000000000000000000000000000000000000000000000008152600401611648906127fc565b60405180910390fd5b6000806000878152602001908152602001600020600701600086815260200190815260200160002090508060000160009054906101000a900460ff168160000160019054906101000a900460ff168260000160029054906101000a900460ff16935093509350509250925092565b600360009054906101000a900473ffffffffffffffffffffffffffffffffffffffff1681565b6000604051905090565b600080fd5b600080fd5b6000819050919050565b61170c816116f9565b811461171757600080fd5b50565b60008135905061172981611703565b92915050565b600060208284031215611745576117446116ef565b5b60006117538482850161171a565b91505092915050565b611765816116f9565b82525050565b600081519050919050565b600082825260208201905092915050565b60005b838110156117a557808201518184015260208101905061178a565b60008484015250505050565b6000601f19601f8301169050919050565b60006117cd8261176b565b6117d78185611776565b93506117e7818560208601611787565b6117f0816117b1565b840191505092915050565b60008115159050919050565b611810816117fb565b82525050565b600060c08201905061182b600083018961175c565b818103602083015261183d81886117c2565b9050818103604083015261185181876117c2565b9050611860606083018661175c565b61186d6080830185611807565b61187a60a083018461175c565b979650505050505050565b600060ff82169050919050565b61189b81611885565b81146118a657600080fd5b50565b6000813590506118b881611892565b92915050565b600080600080608085870312156118d8576118d76116ef565b5b60006118e68782880161171a565b94505060206118f7878288016118a9565b9350506040611908878288016118a9565b9250506060611919878288016118a9565b91505092959194509250565b600081519050919050565b600082825260208201905092915050565b6000819050602082019050919050565b61195a816116f9565b82525050565b600061196c8383611951565b60208301905092915050565b6000602082019050919050565b600061199082611925565b61199a8185611930565b93506119a583611941565b8060005b838110156119d65781516119bd8882611960565b97506119c883611978565b9250506001810190506119a9565b5085935050505092915050565b600060208201905081810360008301526119fd8184611985565b905092915050565b6000602082019050611a1a600083018461175c565b92915050565b600080fd5b600080fd5b7f4e487b7100000000000000000000000000000000000000000000000000000000600052604160045260246000fd5b611a62826117b1565b810181811067ffffffffffffffff82111715611a8157611a80611a2a565b5b80604052505050565b6000611a946116e5565b9050611aa08282611a59565b919050565b600067ffffffffffffffff821115611ac057611abf611a2a565b5b611ac9826117b1565b9050602081019050919050565b82818337600083830152505050565b6000611af8611af384611aa5565b611a8a565b905082815260208101848484011115611b1457611b13611a25565b5b611b1f848285611ad6565b509392505050565b600082601f830112611b3c57611b3b611a20565b5b8135611b4c848260208601611ae5565b91505092915050565b60008060008060808587031215611b6f57611b6e6116ef565b5b6000611b7d8782880161171a565b945050602085013567ffffffffffffffff811115611b9e57611b9d6116f4565b5b611baa87828801611b27565b935050604085013567ffffffffffffffff811115611bcb57611bca6116f4565b5b611bd787828801611b27565b9250506060611be88782880161171a565b91505092959194509250565b600073ffffffffffffffffffffffffffffffffffffffff82169050919050565b6000611c1f82611bf4565b9050919050565b611c2f81611c14565b8114611c3a57600080fd5b50565b600081359050611c4c81611c26565b92915050565b60038110611c5f57600080fd5b50565b600081359050611c7181611c52565b92915050565b60008060408385031215611c8e57611c8d6116ef565b5b6000611c9c85828601611c3d565b9250506020611cad85828601611c62565b9150509250929050565b600080600060608486031215611cd057611ccf6116ef565b5b600084013567ffffffffffffffff811115611cee57611ced6116f4565b5b611cfa86828701611b27565b935050602084013567ffffffffffffffff811115611d1b57611d1a6116f4565b5b611d2786828701611b27565b9250506040611d388682870161171a565b9150509250925092565b600060208284031215611d5857611d576116ef565b5b6000611d6684828501611c3d565b91505092915050565b611d7881611c14565b82525050565b7f4e487b7100000000000000000000000000000000000000000000000000000000600052602160045260246000fd5b60038110611dbe57611dbd611d7e565b5b50565b6000819050611dcf82611dad565b919050565b6000611ddf82611dc1565b9050919050565b611def81611dd4565b82525050565b6000606082019050611e0a6000830186611d6f565b611e176020830185611de6565b611e246040830184611807565b949350505050565b60008060408385031215611e4357611e426116ef565b5b6000611e518582860161171a565b9250506020611e628582860161171a565b9150509250929050565b611e7581611885565b82525050565b6000606082019050611e906000830186611e6c565b611e9d6020830185611e6c565b611eaa6040830184611e6c565b949350505050565b6000602082019050611ec76000830184611d6f565b92915050565b7f496e76616c696420636f75727365204944000000000000000000000000000000600082015250565b6000611f03601183611776565b9150611f0e82611ecd565b602082019050919050565b60006020820190508181036000830152611f3281611ef6565b9050919050565b7f4e487b7100000000000000000000000000000000000000000000000000000000600052602260045260246000fd5b60006002820490506001821680611f8057607f821691505b602082108103611f9357611f92611f39565b5b50919050565b7f436f7572736520646f6573206e6f74206578697374206f72206861732062656560008201527f6e2064656c657465640000000000000000000000000000000000000000000000602082015250565b6000611ff5602983611776565b915061200082611f99565b604082019050919050565b6000602082019050818103600083015261202481611fe8565b9050919050565b7f4f6e6c792073747564656e74732063616e20726567697374657220696e20636f60008201527f7572736573000000000000000000000000000000000000000000000000000000602082015250565b6000612087602583611776565b91506120928261202b565b604082019050919050565b600060208201905081810360008301526120b68161207a565b9050919050565b7f4e487b7100000000000000000000000000000000000000000000000000000000600052603260045260246000fd5b7f53747564656e7420616c7265616479207265676973746572656420696e20746860008201527f6520636f75727365000000000000000000000000000000000000000000000000602082015250565b6000612148602883611776565b9150612153826120ec565b604082019050919050565b600060208201905081810360008301526121778161213b565b9050919050565b6000604082019050612193600083018561175c565b6121a06020830184611d6f565b9392505050565b7f496e76616c696420646179000000000000000000000000000000000000000000600082015250565b60006121dd600b83611776565b91506121e8826121a7565b602082019050919050565b6000602082019050818103600083015261220c816121d0565b9050919050565b7f496e76616c6964207363686564756c6500000000000000000000000000000000600082015250565b6000612249601083611776565b915061225482612213565b602082019050919050565b600060208201905081810360008301526122788161223c565b9050919050565b7f4e487b7100000000000000000000000000000000000000000000000000000000600052601160045260246000fd5b60006122b9826116f9565b91506122c4836116f9565b92508282019050808211156122dc576122db61227f565b5b92915050565b60006080820190506122f7600083018761175c565b6123046020830186611e6c565b6123116040830185611e6c565b61231e6060830184611e6c565b95945050505050565b7f55736572206e6f74207265676973746572656400000000000000000000000000600082015250565b600061235d601383611776565b915061236882612327565b602082019050919050565b6000602082019050818103600083015261238c81612350565b9050919050565b7f4f6e6c792073747564656e74732063616e206861766520656e726f6c6c65642060008201527f636f757273657300000000000000000000000000000000000000000000000000602082015250565b60006123ef602783611776565b91506123fa82612393565b604082019050919050565b6000602082019050818103600083015261241e816123e2565b9050919050565b6000612430826116f9565b91507fffffffffffffffffffffffffffffffffffffffffffffffffffffffffffffffff82036124625761246161227f565b5b600182019050919050565b60008190508160005260206000209050919050565b60006020601f8301049050919050565b600082821b905092915050565b6000600883026124cf7fffffffffffffffffffffffffffffffffffffffffffffffffffffffffffffffff82612492565b6124d98683612492565b95508019841693508086168417925050509392505050565b6000819050919050565b600061251661251161250c846116f9565b6124f1565b6116f9565b9050919050565b6000819050919050565b612530836124fb565b61254461253c8261251d565b84845461249f565b825550505050565b600090565b61255961254c565b612564818484612527565b505050565b5b818110156125885761257d600082612551565b60018101905061256a565b5050565b601f8211156125cd5761259e8161246d565b6125a784612482565b810160208510156125b6578190505b6125ca6125c285612482565b830182612569565b50505b505050565b600082821c905092915050565b60006125f0600019846008026125d2565b1980831691505092915050565b600061260983836125df565b9150826002028217905092915050565b6126228261176b565b67ffffffffffffffff81111561263b5761263a611a2a565b5b6126458254611f68565b61265082828561258c565b600060209050601f8311600181146126835760008415612671578287015190505b61267b85826125fd565b8655506126e3565b601f1984166126918661246d565b60005b828110156126b957848901518255600182019150602085019450602081019050612694565b868310156126d657848901516126d2601f8916826125df565b8355505b6001600288020188555050505b505050505050565b6000604082019050612700600083018561175c565b818103602083015261271281846117c2565b90509392505050565b7f5573657220616c72656164792072656769737465726564000000000000000000600082015250565b6000612751601783611776565b915061275c8261271b565b602082019050919050565b6000602082019050818103600083015261278081612744565b9050919050565b600060408201905061279c6000830185611d6f565b6127a96020830184611de6565b9392505050565b7f496e76616c6964207363686564756c6520494400000000000000000000000000600082015250565b60006127e6601383611776565b91506127f1826127b0565b602082019050919050565b60006020820190508181036000830152612815816127d9565b905091905056fea26469706673582212208bf5646301b0f1b5e0893fd1f870f298c3d00800f046078a878d508bc0ee9ceb64736f6c634300081b0033",
  "linkReferences": {},
  "deployedLinkReferences": {}
}