{
  "_format": "hh-sol-artifact-1",
  "contractName": "CourseContract",
  "sourceName": "contracts/Course.sol",
  "abi": [
    {
      "inputs": [],
      "stateMutability": "nonpayable",
      "type": "constructor"
    },
    {
      "anonymous": false,
      "inputs": [
        {
          "indexed": false,
          "internalType": "uint256",
          "name": "id",
          "type": "uint256"
        },
        {
          "indexed": false,
          "internalType": "string",
          "name": "name",
          "type": "string"
        }
      ],
      "name": "CourseCreated",
      "type": "event"
    },
    {
      "anonymous": false,
      "inputs": [
        {
          "indexed": false,
          "internalType": "uint256",
          "name": "id",
          "type": "uint256"
        }
      ],
      "name": "CourseDeleted",
      "type": "event"
    },
    {
      "anonymous": false,
      "inputs": [
        {
          "indexed": false,
          "internalType": "uint256",
          "name": "id",
          "type": "uint256"
        },
        {
          "indexed": false,
          "internalType": "string",
          "name": "name",
          "type": "string"
        }
      ],
      "name": "CourseUpdated",
      "type": "event"
    },
    {
      "anonymous": false,
      "inputs": [
        {
          "indexed": false,
          "internalType": "uint256",
          "name": "id",
          "type": "uint256"
        },
        {
          "indexed": false,
          "internalType": "uint8",
          "name": "day",
          "type": "uint8"
        },
        {
          "indexed": false,
          "internalType": "uint8",
          "name": "startHour",
          "type": "uint8"
        },
        {
          "indexed": false,
          "internalType": "uint8",
          "name": "endHour",
          "type": "uint8"
        }
      ],
      "name": "ScheduleAdded",
      "type": "event"
    },
    {
      "anonymous": false,
      "inputs": [
        {
          "indexed": false,
          "internalType": "uint256",
          "name": "courseId",
          "type": "uint256"
        },
        {
          "indexed": false,
          "internalType": "address",
          "name": "student",
          "type": "address"
        }
      ],
      "name": "StudentRegisteredInCourse",
      "type": "event"
    },
    {
      "anonymous": false,
      "inputs": [
        {
          "indexed": false,
          "internalType": "address",
          "name": "addr",
          "type": "address"
        },
        {
          "indexed": false,
          "internalType": "enum CourseContract.Role",
          "name": "role",
          "type": "uint8"
        }
      ],
      "name": "UserRegistered",
      "type": "event"
    },
    {
      "inputs": [
        {
          "internalType": "uint256",
          "name": "_id",
          "type": "uint256"
        },
        {
          "internalType": "uint8",
          "name": "_day",
          "type": "uint8"
        },
        {
          "internalType": "uint8",
          "name": "_startHour",
          "type": "uint8"
        },
        {
          "internalType": "uint8",
          "name": "_endHour",
          "type": "uint8"
        }
      ],
      "name": "addSchedule",
      "outputs": [],
      "stateMutability": "nonpayable",
      "type": "function"
    },
    {
      "inputs": [],
      "name": "admin",
      "outputs": [
        {
          "internalType": "address",
          "name": "",
          "type": "address"
        }
      ],
      "stateMutability": "view",
      "type": "function"
    },
    {
      "inputs": [
        {
          "internalType": "uint256",
          "name": "",
          "type": "uint256"
        }
      ],
      "name": "courses",
      "outputs": [
        {
          "internalType": "string",
          "name": "name",
          "type": "string"
        },
        {
          "internalType": "string",
          "name": "description",
          "type": "string"
        },
        {
          "internalType": "uint256",
          "name": "credits",
          "type": "uint256"
        },
        {
          "internalType": "bool",
          "name": "isActive",
          "type": "bool"
        },
        {
          "internalType": "uint256",
          "name": "totalSchedules",
          "type": "uint256"
        }
      ],
      "stateMutability": "view",
      "type": "function"
    },
    {
      "inputs": [
        {
          "internalType": "string",
          "name": "_name",
          "type": "string"
        },
        {
          "internalType": "string",
          "name": "_description",
          "type": "string"
        },
        {
          "internalType": "uint256",
          "name": "_credits",
          "type": "uint256"
        }
      ],
      "name": "createCourse",
      "outputs": [],
      "stateMutability": "nonpayable",
      "type": "function"
    },
    {
      "inputs": [
        {
          "internalType": "uint256",
          "name": "_id",
          "type": "uint256"
        }
      ],
      "name": "deleteCourse",
      "outputs": [],
      "stateMutability": "nonpayable",
      "type": "function"
    },
    {
      "inputs": [
        {
          "internalType": "uint256",
          "name": "_id",
          "type": "uint256"
        }
      ],
      "name": "getCourse",
      "outputs": [
        {
          "internalType": "string",
          "name": "",
          "type": "string"
        },
        {
          "internalType": "string",
          "name": "",
          "type": "string"
        },
        {
          "internalType": "uint256",
          "name": "",
          "type": "uint256"
        },
        {
          "internalType": "bool",
          "name": "",
          "type": "bool"
        },
        {
          "internalType": "uint256",
          "name": "",
          "type": "uint256"
        }
      ],
      "stateMutability": "view",
      "type": "function"
    },
    {
      "inputs": [
        {
          "internalType": "uint256",
          "name": "_courseId",
          "type": "uint256"
        },
        {
          "internalType": "uint256",
          "name": "_scheduleId",
          "type": "uint256"
        }
      ],
      "name": "getSchedule",
      "outputs": [
        {
          "internalType": "uint8",
          "name": "",
          "type": "uint8"
        },
        {
          "internalType": "uint8",
          "name": "",
          "type": "uint8"
        },
        {
          "internalType": "uint8",
          "name": "",
          "type": "uint8"
        }
      ],
      "stateMutability": "view",
      "type": "function"
    },
    {
      "inputs": [],
      "name": "getStudentCourses",
      "outputs": [
        {
          "internalType": "uint256[]",
          "name": "",
          "type": "uint256[]"
        }
      ],
      "stateMutability": "view",
      "type": "function"
    },
    {
      "inputs": [],
      "name": "listCourses",
      "outputs": [
        {
          "internalType": "uint256[]",
          "name": "",
          "type": "uint256[]"
        }
      ],
      "stateMutability": "view",
      "type": "function"
    },
    {
      "inputs": [
        {
          "internalType": "uint256",
          "name": "_courseId",
          "type": "uint256"
        }
      ],
      "name": "registerStudentInCourse",
      "outputs": [],
      "stateMutability": "nonpayable",
      "type": "function"
    },
    {
      "inputs": [
        {
          "internalType": "address",
          "name": "_user",
          "type": "address"
        },
        {
          "internalType": "enum CourseContract.Role",
          "name": "_role",
          "type": "uint8"
        }
      ],
      "name": "registerUser",
      "outputs": [],
      "stateMutability": "nonpayable",
      "type": "function"
    },
    {
      "inputs": [],
      "name": "totalCourses",
      "outputs": [
        {
          "internalType": "uint256",
          "name": "",
          "type": "uint256"
        }
      ],
      "stateMutability": "view",
      "type": "function"
    },
    {
      "inputs": [
        {
          "internalType": "uint256",
          "name": "_id",
          "type": "uint256"
        },
        {
          "internalType": "string",
          "name": "_name",
          "type": "string"
        },
        {
          "internalType": "string",
          "name": "_description",
          "type": "string"
        },
        {
          "internalType": "uint256",
          "name": "_credits",
          "type": "uint256"
        }
      ],
      "name": "updateCourse",
      "outputs": [],
      "stateMutability": "nonpayable",
      "type": "function"
    },
    {
      "inputs": [
        {
          "internalType": "address",
          "name": "",
          "type": "address"
        }
      ],
      "name": "users",
      "outputs": [
        {
          "internalType": "address",
          "name": "addr",
          "type": "address"
        },
        {
          "internalType": "enum CourseContract.Role",
          "name": "role",
          "type": "uint8"
        },
        {
          "internalType": "bool",
          "name": "isActive",
          "type": "bool"
        }
      ],
      "stateMutability": "view",
      "type": "function"
    }
  ],
  "bytecode": "0x608060405234801561001057600080fd5b5061002b67fc2585265235f0bb60c01b6101c460201b60201c565b61004567114cbf210120309860c01b6101c460201b60201c565b33600360006101000a81548173ffffffffffffffffffffffffffffffffffffffff021916908373ffffffffffffffffffffffffffffffffffffffff1602179055506100a0673426b1b7bbe9be4360c01b6101c460201b60201c565b60405180606001604052803373ffffffffffffffffffffffffffffffffffffffff1681526020016002808111156100da576100d96101c7565b5b815260200160011515815250600160003373ffffffffffffffffffffffffffffffffffffffff1673ffffffffffffffffffffffffffffffffffffffff16815260200190815260200160002060008201518160000160006101000a81548173ffffffffffffffffffffffffffffffffffffffff021916908373ffffffffffffffffffffffffffffffffffffffff16021790555060208201518160000160146101000a81548160ff02191690836002811115610197576101966101c7565b5b021790555060408201518160000160156101000a81548160ff0219169083151502179055509050506101f6565b50565b7f4e487b7100000000000000000000000000000000000000000000000000000000600052602160045260246000fd5b613606806102056000396000f3fe608060405234801561001057600080fd5b50600436106100ea5760003560e01c80639dad8d221161008c578063a87430ba11610066578063a87430ba1461023b578063c53069c71461026d578063f43e5e421461028b578063f851a440146102bd576100ea565b80639dad8d22146101e75780639e9fa09714610203578063a4adb24b1461021f576100ea565b806383517a4f116100c857806383517a4f1461015b57806387ac18601461017957806391aac0651461019757806396f979d2146101b3576100ea565b80630b91e28d146100ef57806319384dd11461012357806377b311341461013f575b600080fd5b610109600480360381019061010491906124f1565b6102db565b60405161011a9594939291906125d8565b60405180910390f35b61013d600480360381019061013891906124f1565b610541565b005b61015960048036038101906101549190612672565b610a17565b005b610163610e86565b6040516101709190612797565b60405180910390f35b610181611453565b60405161018e91906127b9565b60405180910390f35b6101b160048036038101906101ac9190612909565b611459565b005b6101cd60048036038101906101c891906124f1565b6116c2565b6040516101de9594939291906125d8565b60405180910390f35b61020160048036038101906101fc91906124f1565b611815565b005b61021d60048036038101906102189190612a2b565b611a13565b005b61023960048036038101906102349190612a6b565b611c9f565b005b61025560048036038101906102509190612af6565b611e54565b60405161026493929190612ba9565b60405180910390f35b610275611eb8565b6040516102829190612797565b60405180910390f35b6102a560048036038101906102a09190612be0565b6121ba565b6040516102b493929190612c2f565b60405180910390f35b6102c561247e565b6040516102d29190612c66565b60405180910390f35b60608060008060006102f7678b618eed2c41925b60c01b6124a4565b61030b67afec20a08eee608560c01b6124a4565b61031f67fa097e7a2659d2e760c01b6124a4565b61033367a168d382b85e03b560c01b6124a4565b6002548610610377576040517f08c379a000000000000000000000000000000000000000000000000000000000815260040161036e90612ccd565b60405180910390fd5b61038b676254f0f5f0e9525260c01b6124a4565b61039f67a078ccabf902cb0160c01b6124a4565b6103b367b2971507281ed19960c01b6124a4565b600080600088815260200190815260200160002090506103dd670dece291aaa8df6360c01b6124a4565b6103f1679a8cf82e47a2be8060c01b6124a4565b806000018160010182600201548360030160009054906101000a900460ff16846004015484805461042190612d1c565b80601f016020809104026020016040519081016040528092919081815260200182805461044d90612d1c565b801561049a5780601f1061046f5761010080835404028352916020019161049a565b820191906000526020600020905b81548152906001019060200180831161047d57829003601f168201915b505050505094508380546104ad90612d1c565b80601f01602080910402602001604051908101604052809291908181526020018280546104d990612d1c565b80156105265780601f106104fb57610100808354040283529160200191610526565b820191906000526020600020905b81548152906001019060200180831161050957829003601f168201915b50505050509350955095509550955095505091939590929450565b6105556739b0ffa113586f5760c01b6124a4565b6105696710e9c80e4f30207860c01b6124a4565b61057d6790204b32cccd776660c01b6124a4565b6105916762805c7e524ac39d60c01b6124a4565b60025481106105d5576040517f08c379a00000000000000000000000000000000000000000000000000000000081526004016105cc90612ccd565b60405180910390fd5b6105e9675f01d8c85915955360c01b6124a4565b6105fd67866f4d7d1a5180d960c01b6124a4565b61061167e8de4c75e25f33e660c01b6124a4565b610625672462859483c4c49460c01b6124a4565b60008082815260200190815260200160002060030160009054906101000a900460ff16610687576040517f08c379a000000000000000000000000000000000000000000000000000000000815260040161067e90612dbf565b60405180910390fd5b61069b6751783a9af6942dc160c01b6124a4565b6106af679f6933d52ba20fbb60c01b6124a4565b6106c367a076949b0b75046860c01b6124a4565b6106d7675ca77da6d7ef415860c01b6124a4565b600060028111156106eb576106ea612b32565b5b600160003373ffffffffffffffffffffffffffffffffffffffff1673ffffffffffffffffffffffffffffffffffffffff16815260200190815260200160002060000160149054906101000a900460ff16600281111561074d5761074c612b32565b5b1461078d576040517f08c379a000000000000000000000000000000000000000000000000000000000815260040161078490612e51565b60405180910390fd5b6107a167cd3c4d831e97554560c01b6124a4565b6107b5671276b6276b24577160c01b6124a4565b6107c967e3bdc6b86c2f0d6e60c01b6124a4565b600080600083815260200190815260200160002090506107f3679e729b70412c1efa60c01b6124a4565b610807676f8ff91ad6ccae1360c01b6124a4565b60005b81600501805490508110156109245761082d6762819ceaef754cc760c01b6124a4565b6108416729b1987db8e5a3cd60c01b6124a4565b610855670bfd329f16fed2d860c01b6124a4565b3373ffffffffffffffffffffffffffffffffffffffff1682600501828154811061088257610881612e71565b5b9060005260206000200160009054906101000a900473ffffffffffffffffffffffffffffffffffffffff1673ffffffffffffffffffffffffffffffffffffffff1603610903576040517f08c379a00000000000000000000000000000000000000000000000000000000081526004016108fa90612f12565b60405180910390fd5b61091767c8af1c2a62fd5fd560c01b6124a4565b808060010191505061080a565b506109396705918c7faf12bf6560c01b6124a4565b61094d671bf08bd5d93ceac460c01b6124a4565b80600501339080600181540180825580915050600190039060005260206000200160009091909190916101000a81548173ffffffffffffffffffffffffffffffffffffffff021916908373ffffffffffffffffffffffffffffffffffffffff1602179055506109c667f9933c064d04488560c01b6124a4565b6109da6706f2c126eab93f7760c01b6124a4565b7f5978a47ce47cdeb8a43a1794142dd16f2f94e95103bd104783a42725c7fe8cff8233604051610a0b929190612f32565b60405180910390a15050565b610a2b677ae6747bd1c9b5e860c01b6124a4565b610a3f673d82f283b19a735160c01b6124a4565b610a5367e490745050d0bca960c01b6124a4565b610a676749d79f0d5545eef060c01b6124a4565b6002548410610aab576040517f08c379a0000000000000000000000000000000000000000000000000000000008152600401610aa290612ccd565b60405180910390fd5b610abf67a0604d10f899b05260c01b6124a4565b610ad367ef2a0f0c620b08b560c01b6124a4565b610ae767cf2059d946e614da60c01b6124a4565b610afb6723a06b278b7256ef60c01b6124a4565b60008085815260200190815260200160002060030160009054906101000a900460ff16610b5d576040517f08c379a0000000000000000000000000000000000000000000000000000000008152600401610b5490612dbf565b60405180910390fd5b610b716785e5d7ad9ec1a7a560c01b6124a4565b610b8567b316a32e1b028d1e60c01b6124a4565b610b996701c1f7a68359050f60c01b6124a4565b610bad673ea2a50efee7040960c01b6124a4565b60018360ff1610158015610bc5575060078360ff1611155b610c04576040517f08c379a0000000000000000000000000000000000000000000000000000000008152600401610bfb90612fa7565b60405180910390fd5b610c1867c10d5b130a68752660c01b6124a4565b610c2c672ba33dc9610a7ba760c01b6124a4565b610c4067b218db656501c9b560c01b6124a4565b610c546743b2196d46e3d53560c01b6124a4565b60188260ff16108015610c6a575060188160ff16105b8015610c7b57508060ff168260ff16105b610cba576040517f08c379a0000000000000000000000000000000000000000000000000000000008152600401610cb190613013565b60405180910390fd5b610cce67550bfaada84c6f4c60c01b6124a4565b610ce267ea622c3ea0fcc5aa60c01b6124a4565b610cf66729a220ceaefb54b160c01b6124a4565b60008060008681526020019081526020016000209050610d2067017a7679072fcefb60c01b6124a4565b610d3467bee8c48e05ab548560c01b6124a4565b600060018260040154610d479190613062565b9050610d5d67d7b3d7c86655e1f560c01b6124a4565b60405180606001604052808660ff1681526020018560ff1681526020018460ff1681525082600601600083815260200190815260200160002060008201518160000160006101000a81548160ff021916908360ff16021790555060208201518160000160016101000a81548160ff021916908360ff16021790555060408201518160000160026101000a81548160ff021916908360ff160217905550905050610e1067eb1cf8fe819bcbca60c01b6124a4565b808260040181905550610e2d676dd96455537ea3ff60c01b6124a4565b610e4167ed6f0775af2a4fb960c01b6124a4565b7f3ff69354bb51befb41cb392610be115187b4afcfed73d238a16f370c7f20491c86868686604051610e769493929190613096565b60405180910390a1505050505050565b6060610e9c670dad043e7110fcf560c01b6124a4565b610eb067fb0cc7466544cb0a60c01b6124a4565b610ec467cb04a7d236b7d1a860c01b6124a4565b610ed867d3d33ccfbbc4be4260c01b6124a4565b600160003373ffffffffffffffffffffffffffffffffffffffff1673ffffffffffffffffffffffffffffffffffffffff16815260200190815260200160002060000160159054906101000a900460ff16610f67576040517f08c379a0000000000000000000000000000000000000000000000000000000008152600401610f5e90613127565b60405180910390fd5b610f7b67d03ebef8257b677b60c01b6124a4565b610f8f675d912c3327b9ea1c60c01b6124a4565b610fa367e4a11287c15c998a60c01b6124a4565b610fb76727eb27f3efd6089360c01b6124a4565b60006002811115610fcb57610fca612b32565b5b600160003373ffffffffffffffffffffffffffffffffffffffff1673ffffffffffffffffffffffffffffffffffffffff16815260200190815260200160002060000160149054906101000a900460ff16600281111561102d5761102c612b32565b5b1461106d576040517f08c379a0000000000000000000000000000000000000000000000000000000008152600401611064906131b9565b60405180910390fd5b61108167d0d85b1422ce065060c01b6124a4565b611095679cebd3e8a3a4dd2a60c01b6124a4565b6110a967bebbe3772f9b667860c01b6124a4565b600060025467ffffffffffffffff8111156110c7576110c66127de565b5b6040519080825280602002602001820160405280156110f55781602001602082028036833780820191505090505b50905061110c672cc5221b809a01a160c01b6124a4565b61112067414843e019cbf5ec60c01b6124a4565b600061113667d9722dfb8ee9c13760c01b6124a4565b61114a67bcfb2943eb962f0160c01b6124a4565b60005b60025481101561131d5761116b67e0bb9c436cfef07f60c01b6124a4565b61117f67f26026083fa69b3e60c01b6124a4565b600080600083815260200190815260200160002090506111a967bcd08b297182bd7060c01b6124a4565b6111bd670a7966c88bba0a4a60c01b6124a4565b60005b816005018054905081101561130e576111e367c93b4ee31099e22b60c01b6124a4565b6111f7674207685e52896da060c01b6124a4565b3373ffffffffffffffffffffffffffffffffffffffff1682600501828154811061122457611223612e71565b5b9060005260206000200160009054906101000a900473ffffffffffffffffffffffffffffffffffffffff1673ffffffffffffffffffffffffffffffffffffffff16036112ed5761127e67f20fbff7cbdde7d160c01b6124a4565b6112926726c0f2deb2b7e94f60c01b6124a4565b828585815181106112a6576112a5612e71565b5b6020026020010181815250506112c6679780635dedce018760c01b6124a4565b83806112d1906131d9565b9450506112e867f25ade49fcd24e4e60c01b6124a4565b61130e565b61130167e0627f6a2223d25760c01b6124a4565b80806001019150506111c0565b5050808060010191505061114d565b5061133267faf936e08026669960c01b6124a4565b61134667c51014e2c72e11e660c01b6124a4565b60008167ffffffffffffffff811115611362576113616127de565b5b6040519080825280602002602001820160405280156113905781602001602082028036833780820191505090505b5090506113a767469e264a8e21645c60c01b6124a4565b6113bb67abfe7c6f3fd8a77e60c01b6124a4565b60005b82811015611421576113da67246ae8d749404ac760c01b6124a4565b8381815181106113ed576113ec612e71565b5b602002602001015182828151811061140857611407612e71565b5b60200260200101818152505080806001019150506113be565b5061143667241432874b140fa260c01b6124a4565b61144a671ed9041d1dc76a6260c01b6124a4565b80935050505090565b60025481565b61146d67efa420086581272360c01b6124a4565b611481675fb32f58224448e160c01b6124a4565b611495679e4665c1c9d4115560c01b6124a4565b6114a9671b85a9d3ad6a26e860c01b6124a4565b60025484106114ed576040517f08c379a00000000000000000000000000000000000000000000000000000000081526004016114e490612ccd565b60405180910390fd5b611501671615e6c23917cf2460c01b6124a4565b61151567cad2bd8e060fa67b60c01b6124a4565b611529676a13bf3997a98b1c60c01b6124a4565b61153d6755373551cbeddfd060c01b6124a4565b60008085815260200190815260200160002060030160009054906101000a900460ff1661159f576040517f08c379a000000000000000000000000000000000000000000000000000000000815260040161159690612dbf565b60405180910390fd5b6115b3676d5a3ce307bbae1b60c01b6124a4565b6115c767f65ca3a9180c2ef860c01b6124a4565b6115db67d6761eb1694d1ae160c01b6124a4565b60008060008681526020019081526020016000209050611605676cae4b343425ffea60c01b6124a4565b8381600001908161161691906133cd565b5061162b67bbd053e05ff771c260c01b6124a4565b8281600101908161163c91906133cd565b50611651677b4f18d59c7962fb60c01b6124a4565b81816002018190555061166e67d5e20a06db62a45f60c01b6124a4565b61168267a4845e4364ae8b4860c01b6124a4565b7f61f1b503285f2baf5ae0ec7be5c9605a293c9d47bdaf9bdb36fc15c570615fe685856040516116b392919061349f565b60405180910390a15050505050565b60006020528060005260406000206000915090508060000180546116e590612d1c565b80601f016020809104026020016040519081016040528092919081815260200182805461171190612d1c565b801561175e5780601f106117335761010080835404028352916020019161175e565b820191906000526020600020905b81548152906001019060200180831161174157829003601f168201915b50505050509080600101805461177390612d1c565b80601f016020809104026020016040519081016040528092919081815260200182805461179f90612d1c565b80156117ec5780601f106117c1576101008083540402835291602001916117ec565b820191906000526020600020905b8154815290600101906020018083116117cf57829003601f168201915b5050505050908060020154908060030160009054906101000a900460ff16908060040154905085565b61182967fbe0b86a39a049d560c01b6124a4565b61183d6710513aa207c4377060c01b6124a4565b61185167ce0f3b4fbd24776160c01b6124a4565b61186567fa12b017006519ff60c01b6124a4565b60025481106118a9576040517f08c379a00000000000000000000000000000000000000000000000000000000081526004016118a090612ccd565b60405180910390fd5b6118bd67727950b62b21615260c01b6124a4565b6118d167bfbf86115256ccf560c01b6124a4565b6118e56765e0290839d646f160c01b6124a4565b6118f9679f771991c3aef0f060c01b6124a4565b60008082815260200190815260200160002060030160009054906101000a900460ff1661195b576040517f08c379a000000000000000000000000000000000000000000000000000000000815260040161195290612dbf565b60405180910390fd5b61196f674f2e29a43170ef9b60c01b6124a4565b611983675d3e28a49c8a8d0a60c01b6124a4565b600080600083815260200190815260200160002060030160006101000a81548160ff0219169083151502179055506119c5678f77b762c337edc460c01b6124a4565b6119d967aa012ee553094ab960c01b6124a4565b7f39eeda956a5b638cce21d44feb4e3279509fbaf8fb7776431f55f57a0cd2153781604051611a0891906127b9565b60405180910390a150565b611a27678cfd343db7f9f31060c01b6124a4565b611a3b67e2ddcc1130163da760c01b6124a4565b611a4f67d08475223611b57360c01b6124a4565b611a6367e4c5ed3f9819cf5560c01b6124a4565b600160008373ffffffffffffffffffffffffffffffffffffffff1673ffffffffffffffffffffffffffffffffffffffff16815260200190815260200160002060000160159054906101000a900460ff1615611af3576040517f08c379a0000000000000000000000000000000000000000000000000000000008152600401611aea9061351b565b60405180910390fd5b611b0767c111f64eefd5922a60c01b6124a4565b611b1b675abba16195a16b8860c01b6124a4565b60405180606001604052808373ffffffffffffffffffffffffffffffffffffffff168152602001826002811115611b5557611b54612b32565b5b815260200160011515815250600160008473ffffffffffffffffffffffffffffffffffffffff1673ffffffffffffffffffffffffffffffffffffffff16815260200190815260200160002060008201518160000160006101000a81548173ffffffffffffffffffffffffffffffffffffffff021916908373ffffffffffffffffffffffffffffffffffffffff16021790555060208201518160000160146101000a81548160ff02191690836002811115611c1257611c11612b32565b5b021790555060408201518160000160156101000a81548160ff021916908315150217905550905050611c4e67918cfa8f16c3247e60c01b6124a4565b611c6267df9b372033c9a47c60c01b6124a4565b7f8e18574f8a7333e6a87112742a55853a643e2f0550f4e1a3a2c3f1bb2994441d8282604051611c9392919061353b565b60405180910390a15050565b611cb3674b2a1d54151477b460c01b6124a4565b611cc7676645efcfc21f684b60c01b6124a4565b611cdb67bc49af777b3d779f60c01b6124a4565b600060026000815480929190611cf0906131d9565b919050559050611d0a67ca966d4f261220b060c01b6124a4565b611d1e67d5aab07bd10dde1960c01b6124a4565b60008060008381526020019081526020016000209050611d48670328384ebd74453d60c01b6124a4565b84816000019081611d5991906133cd565b50611d6e67935038318856fa9660c01b6124a4565b83816001019081611d7f91906133cd565b50611d9467e3576fbecb7259ed60c01b6124a4565b828160020181905550611db167492a52ecc5bb2cdd60c01b6124a4565b60018160030160006101000a81548160ff021916908315150217905550611de2679f8ab1dedc6bcb8f60c01b6124a4565b60008160040181905550611e00670cee4e5b094ef9c060c01b6124a4565b611e146793435154d47110ee60c01b6124a4565b7fc2c844c5f6c72fe99b99de0942ba619e99957d3e8f7e614263ecfe40de952e588286604051611e4592919061349f565b60405180910390a15050505050565b60016020528060005260406000206000915090508060000160009054906101000a900473ffffffffffffffffffffffffffffffffffffffff16908060000160149054906101000a900460ff16908060000160159054906101000a900460ff16905083565b6060611ece67e791826a5a23a9e460c01b6124a4565b611ee26740210fdaca2934eb60c01b6124a4565b611ef667ecc647d2615d65da60c01b6124a4565b600060025467ffffffffffffffff811115611f1457611f136127de565b5b604051908082528060200260200182016040528015611f425781602001602082028036833780820191505090505b509050611f59670fde97e48a717b0d60c01b6124a4565b611f6d67e514f2a59454790160c01b6124a4565b6000611f836706128a8ac189c55960c01b6124a4565b611f9767bac9fff63784e0a160c01b6124a4565b60005b60025481101561208557611fb867a3a17b43a70a4ae560c01b6124a4565b611fcc67a21e80bc7f071bbf60c01b6124a4565b60008082815260200190815260200160002060030160009054906101000a900460ff16156120635761200867aa60cb6a673fd3af60c01b6124a4565b61201c67aaf4e5dd1b02f40b60c01b6124a4565b808383815181106120305761202f612e71565b5b60200260200101818152505061205067a8326045f8a96ba760c01b6124a4565b818061205b906131d9565b925050612078565b612077677db4f457a6869a3e60c01b6124a4565b5b8080600101915050611f9a565b5061209a6777c38c97ef336b0860c01b6124a4565b6120ae67484cbd0a4b591dff60c01b6124a4565b60008167ffffffffffffffff8111156120ca576120c96127de565b5b6040519080825280602002602001820160405280156120f85781602001602082028036833780820191505090505b50905061210f67c8bfdba8f0cb99fa60c01b6124a4565b61212367437d0bf82235306e60c01b6124a4565b60005b828110156121895761214267cb8e4e53348c08f160c01b6124a4565b83818151811061215557612154612e71565b5b60200260200101518282815181106121705761216f612e71565b5b6020026020010181815250508080600101915050612126565b5061219e67aa9b19357554d9bb60c01b6124a4565b6121b16639ca7b8b366db360c01b6124a4565b80935050505090565b60008060006121d36746ae95bb242d27e060c01b6124a4565b6121e767bd358223229e8fb860c01b6124a4565b6121fb67440fb32cf1abe2d660c01b6124a4565b61220f6737470f2556bc5c7960c01b6124a4565b6002548510612253576040517f08c379a000000000000000000000000000000000000000000000000000000000815260040161224a90612ccd565b60405180910390fd5b61226767d27e475f0839936d60c01b6124a4565b61227b67f22f86f69ce72b9460c01b6124a4565b61228f67d721f89c0a8aa47960c01b6124a4565b6122a3670b924512d42e6c5860c01b6124a4565b60008086815260200190815260200160002060030160009054906101000a900460ff16612305576040517f08c379a00000000000000000000000000000000000000000000000000000000081526004016122fc90612dbf565b60405180910390fd5b612319670e63200269761fd460c01b6124a4565b61232d672fe43de37973ca6a60c01b6124a4565b612340665ed5b9b6afa40660c01b6124a4565b61235467f80d9f229565b75160c01b6124a4565b600080868152602001908152602001600020600401548411156123ac576040517f08c379a00000000000000000000000000000000000000000000000000000000081526004016123a3906135b0565b60405180910390fd5b6123c067e72c26862f3d974160c01b6124a4565b6123d467e1c2283c53d05d6560c01b6124a4565b6123e867912f4e6c47d0c07760c01b6124a4565b60008060008781526020019081526020016000206006016000868152602001908152602001600020905061242667fb95b48dcf71463860c01b6124a4565b61243a675fa890e0e2675a6260c01b6124a4565b8060000160009054906101000a900460ff168160000160019054906101000a900460ff168260000160029054906101000a900460ff16935093509350509250925092565b600360009054906101000a900473ffffffffffffffffffffffffffffffffffffffff1681565b50565b6000604051905090565b600080fd5b600080fd5b6000819050919050565b6124ce816124bb565b81146124d957600080fd5b50565b6000813590506124eb816124c5565b92915050565b600060208284031215612507576125066124b1565b5b6000612515848285016124dc565b91505092915050565b600081519050919050565b600082825260208201905092915050565b60005b8381101561255857808201518184015260208101905061253d565b60008484015250505050565b6000601f19601f8301169050919050565b60006125808261251e565b61258a8185612529565b935061259a81856020860161253a565b6125a381612564565b840191505092915050565b6125b7816124bb565b82525050565b60008115159050919050565b6125d2816125bd565b82525050565b600060a08201905081810360008301526125f28188612575565b905081810360208301526126068187612575565b905061261560408301866125ae565b61262260608301856125c9565b61262f60808301846125ae565b9695505050505050565b600060ff82169050919050565b61264f81612639565b811461265a57600080fd5b50565b60008135905061266c81612646565b92915050565b6000806000806080858703121561268c5761268b6124b1565b5b600061269a878288016124dc565b94505060206126ab8782880161265d565b93505060406126bc8782880161265d565b92505060606126cd8782880161265d565b91505092959194509250565b600081519050919050565b600082825260208201905092915050565b6000819050602082019050919050565b61270e816124bb565b82525050565b60006127208383612705565b60208301905092915050565b6000602082019050919050565b6000612744826126d9565b61274e81856126e4565b9350612759836126f5565b8060005b8381101561278a5781516127718882612714565b975061277c8361272c565b92505060018101905061275d565b5085935050505092915050565b600060208201905081810360008301526127b18184612739565b905092915050565b60006020820190506127ce60008301846125ae565b92915050565b600080fd5b600080fd5b7f4e487b7100000000000000000000000000000000000000000000000000000000600052604160045260246000fd5b61281682612564565b810181811067ffffffffffffffff82111715612835576128346127de565b5b80604052505050565b60006128486124a7565b9050612854828261280d565b919050565b600067ffffffffffffffff821115612874576128736127de565b5b61287d82612564565b9050602081019050919050565b82818337600083830152505050565b60006128ac6128a784612859565b61283e565b9050828152602081018484840111156128c8576128c76127d9565b5b6128d384828561288a565b509392505050565b600082601f8301126128f0576128ef6127d4565b5b8135612900848260208601612899565b91505092915050565b60008060008060808587031215612923576129226124b1565b5b6000612931878288016124dc565b945050602085013567ffffffffffffffff811115612952576129516124b6565b5b61295e878288016128db565b935050604085013567ffffffffffffffff81111561297f5761297e6124b6565b5b61298b878288016128db565b925050606061299c878288016124dc565b91505092959194509250565b600073ffffffffffffffffffffffffffffffffffffffff82169050919050565b60006129d3826129a8565b9050919050565b6129e3816129c8565b81146129ee57600080fd5b50565b600081359050612a00816129da565b92915050565b60038110612a1357600080fd5b50565b600081359050612a2581612a06565b92915050565b60008060408385031215612a4257612a416124b1565b5b6000612a50858286016129f1565b9250506020612a6185828601612a16565b9150509250929050565b600080600060608486031215612a8457612a836124b1565b5b600084013567ffffffffffffffff811115612aa257612aa16124b6565b5b612aae868287016128db565b935050602084013567ffffffffffffffff811115612acf57612ace6124b6565b5b612adb868287016128db565b9250506040612aec868287016124dc565b9150509250925092565b600060208284031215612b0c57612b0b6124b1565b5b6000612b1a848285016129f1565b91505092915050565b612b2c816129c8565b82525050565b7f4e487b7100000000000000000000000000000000000000000000000000000000600052602160045260246000fd5b60038110612b7257612b71612b32565b5b50565b6000819050612b8382612b61565b919050565b6000612b9382612b75565b9050919050565b612ba381612b88565b82525050565b6000606082019050612bbe6000830186612b23565b612bcb6020830185612b9a565b612bd860408301846125c9565b949350505050565b60008060408385031215612bf757612bf66124b1565b5b6000612c05858286016124dc565b9250506020612c16858286016124dc565b9150509250929050565b612c2981612639565b82525050565b6000606082019050612c446000830186612c20565b612c516020830185612c20565b612c5e6040830184612c20565b949350505050565b6000602082019050612c7b6000830184612b23565b92915050565b7f496e76616c696420636f75727365204944000000000000000000000000000000600082015250565b6000612cb7601183612529565b9150612cc282612c81565b602082019050919050565b60006020820190508181036000830152612ce681612caa565b9050919050565b7f4e487b7100000000000000000000000000000000000000000000000000000000600052602260045260246000fd5b60006002820490506001821680612d3457607f821691505b602082108103612d4757612d46612ced565b5b50919050565b7f436f7572736520646f6573206e6f74206578697374206f72206861732062656560008201527f6e2064656c657465640000000000000000000000000000000000000000000000602082015250565b6000612da9602983612529565b9150612db482612d4d565b604082019050919050565b60006020820190508181036000830152612dd881612d9c565b9050919050565b7f4f6e6c792073747564656e74732063616e20726567697374657220696e20636f60008201527f7572736573000000000000000000000000000000000000000000000000000000602082015250565b6000612e3b602583612529565b9150612e4682612ddf565b604082019050919050565b60006020820190508181036000830152612e6a81612e2e565b9050919050565b7f4e487b7100000000000000000000000000000000000000000000000000000000600052603260045260246000fd5b7f53747564656e7420616c7265616479207265676973746572656420696e20746860008201527f6520636f75727365000000000000000000000000000000000000000000000000602082015250565b6000612efc602883612529565b9150612f0782612ea0565b604082019050919050565b60006020820190508181036000830152612f2b81612eef565b9050919050565b6000604082019050612f4760008301856125ae565b612f546020830184612b23565b9392505050565b7f496e76616c696420646179000000000000000000000000000000000000000000600082015250565b6000612f91600b83612529565b9150612f9c82612f5b565b602082019050919050565b60006020820190508181036000830152612fc081612f84565b9050919050565b7f496e76616c6964207363686564756c6500000000000000000000000000000000600082015250565b6000612ffd601083612529565b915061300882612fc7565b602082019050919050565b6000602082019050818103600083015261302c81612ff0565b9050919050565b7f4e487b7100000000000000000000000000000000000000000000000000000000600052601160045260246000fd5b600061306d826124bb565b9150613078836124bb565b92508282019050808211156130905761308f613033565b5b92915050565b60006080820190506130ab60008301876125ae565b6130b86020830186612c20565b6130c56040830185612c20565b6130d26060830184612c20565b95945050505050565b7f55736572206e6f74207265676973746572656400000000000000000000000000600082015250565b6000613111601383612529565b915061311c826130db565b602082019050919050565b6000602082019050818103600083015261314081613104565b9050919050565b7f4f6e6c792073747564656e74732063616e206861766520656e726f6c6c65642060008201527f636f757273657300000000000000000000000000000000000000000000000000602082015250565b60006131a3602783612529565b91506131ae82613147565b604082019050919050565b600060208201905081810360008301526131d281613196565b9050919050565b60006131e4826124bb565b91507fffffffffffffffffffffffffffffffffffffffffffffffffffffffffffffffff820361321657613215613033565b5b600182019050919050565b60008190508160005260206000209050919050565b60006020601f8301049050919050565b600082821b905092915050565b6000600883026132837fffffffffffffffffffffffffffffffffffffffffffffffffffffffffffffffff82613246565b61328d8683613246565b95508019841693508086168417925050509392505050565b6000819050919050565b60006132ca6132c56132c0846124bb565b6132a5565b6124bb565b9050919050565b6000819050919050565b6132e4836132af565b6132f86132f0826132d1565b848454613253565b825550505050565b600090565b61330d613300565b6133188184846132db565b505050565b5b8181101561333c57613331600082613305565b60018101905061331e565b5050565b601f8211156133815761335281613221565b61335b84613236565b8101602085101561336a578190505b61337e61337685613236565b83018261331d565b50505b505050565b600082821c905092915050565b60006133a460001984600802613386565b1980831691505092915050565b60006133bd8383613393565b9150826002028217905092915050565b6133d68261251e565b67ffffffffffffffff8111156133ef576133ee6127de565b5b6133f98254612d1c565b613404828285613340565b600060209050601f8311600181146134375760008415613425578287015190505b61342f85826133b1565b865550613497565b601f19841661344586613221565b60005b8281101561346d57848901518255600182019150602085019450602081019050613448565b8683101561348a5784890151613486601f891682613393565b8355505b6001600288020188555050505b505050505050565b60006040820190506134b460008301856125ae565b81810360208301526134c68184612575565b90509392505050565b7f5573657220616c72656164792072656769737465726564000000000000000000600082015250565b6000613505601783612529565b9150613510826134cf565b602082019050919050565b60006020820190508181036000830152613534816134f8565b9050919050565b60006040820190506135506000830185612b23565b61355d6020830184612b9a565b9392505050565b7f496e76616c6964207363686564756c6520494400000000000000000000000000600082015250565b600061359a601383612529565b91506135a582613564565b602082019050919050565b600060208201905081810360008301526135c98161358d565b905091905056fea2646970667358221220c225543606ad56ca87c25e5fb932fdd9cff8241adec17d7ce7940e4693ab5be364736f6c634300081b0033",
  "linkReferences": {},
  "deployedLinkReferences": {}
}